{
	"contracts/Bank.sol": {
		"Bank": {
			"abi": [
				{
					"inputs": [
						{
							"internalType": "contract Token",
							"name": "_token",
							"type": "address"
						}
					],
					"stateMutability": "nonpayable",
					"type": "constructor"
				},
				{
					"inputs": [
						{
							"internalType": "address",
							"name": "",
							"type": "address"
						}
					],
					"name": "clientsBalanceBNB",
					"outputs": [
						{
							"internalType": "uint256",
							"name": "",
							"type": "uint256"
						}
					],
					"stateMutability": "view",
					"type": "function"
				},
				{
					"inputs": [],
					"name": "deposit",
					"outputs": [],
					"stateMutability": "payable",
					"type": "function"
				},
				{
					"inputs": [
						{
							"internalType": "address",
							"name": "",
							"type": "address"
						}
					],
					"name": "depositTimeStamp",
					"outputs": [
						{
							"internalType": "uint256",
							"name": "",
							"type": "uint256"
						}
					],
					"stateMutability": "view",
					"type": "function"
				},
				{
					"inputs": [
						{
							"internalType": "address",
							"name": "",
							"type": "address"
						}
					],
					"name": "isDeposited",
					"outputs": [
						{
							"internalType": "bool",
							"name": "",
							"type": "bool"
						}
					],
					"stateMutability": "view",
					"type": "function"
				},
				{
					"inputs": [],
					"name": "withdraw",
					"outputs": [],
					"stateMutability": "nonpayable",
					"type": "function"
				}
			],
			"devdoc": {
				"kind": "dev",
				"methods": {},
				"version": 1
			},
			"evm": {
				"assembly": "    /* \"contracts/Bank.sol\":88:1554  contract Bank {... */\n  mstore(0x40, 0x80)\n    /* \"contracts/Bank.sol\":437:550  constructor(Token _token) {... */\n  callvalue\n  dup1\n  iszero\n  tag_1\n  jumpi\n  0x00\n  dup1\n  revert\ntag_1:\n  pop\n  mload(0x40)\n  sub(codesize, bytecodeSize)\n  dup1\n  bytecodeSize\n  dup4\n  codecopy\n  dup2\n  dup2\n  add\n  0x40\n  mstore\n  dup2\n  add\n  swap1\n  tag_2\n  swap2\n  swap1\n  tag_3\n  jump\t// in\ntag_2:\n    /* \"contracts/Bank.sol\":536:542  _token */\n  dup1\n    /* \"contracts/Bank.sol\":528:533  token */\n  0x00\n  dup1\n    /* \"contracts/Bank.sol\":528:542  token = _token */\n  0x0100\n  exp\n  dup2\n  sload\n  dup2\n  0xffffffffffffffffffffffffffffffffffffffff\n  mul\n  not\n  and\n  swap1\n  dup4\n  0xffffffffffffffffffffffffffffffffffffffff\n  and\n  mul\n  or\n  swap1\n  sstore\n  pop\n    /* \"contracts/Bank.sol\":437:550  constructor(Token _token) {... */\n  pop\n    /* \"contracts/Bank.sol\":88:1554  contract Bank {... */\n  jump(tag_6)\n    /* \"#utility.yul\":88:205   */\ntag_8:\n    /* \"#utility.yul\":197:198   */\n  0x00\n    /* \"#utility.yul\":194:195   */\n  dup1\n    /* \"#utility.yul\":187:199   */\n  revert\n    /* \"#utility.yul\":334:460   */\ntag_10:\n    /* \"#utility.yul\":371:378   */\n  0x00\n    /* \"#utility.yul\":411:453   */\n  0xffffffffffffffffffffffffffffffffffffffff\n    /* \"#utility.yul\":404:409   */\n  dup3\n    /* \"#utility.yul\":400:454   */\n  and\n    /* \"#utility.yul\":389:454   */\n  swap1\n  pop\n    /* \"#utility.yul\":334:460   */\n  swap2\n  swap1\n  pop\n  jump\t// out\n    /* \"#utility.yul\":466:562   */\ntag_11:\n    /* \"#utility.yul\":503:510   */\n  0x00\n    /* \"#utility.yul\":532:556   */\n  tag_21\n    /* \"#utility.yul\":550:555   */\n  dup3\n    /* \"#utility.yul\":532:556   */\n  tag_10\n  jump\t// in\ntag_21:\n    /* \"#utility.yul\":521:556   */\n  swap1\n  pop\n    /* \"#utility.yul\":466:562   */\n  swap2\n  swap1\n  pop\n  jump\t// out\n    /* \"#utility.yul\":568:677   */\ntag_12:\n    /* \"#utility.yul\":618:625   */\n  0x00\n    /* \"#utility.yul\":647:671   */\n  tag_23\n    /* \"#utility.yul\":665:670   */\n  dup3\n    /* \"#utility.yul\":647:671   */\n  tag_11\n  jump\t// in\ntag_23:\n    /* \"#utility.yul\":636:671   */\n  swap1\n  pop\n    /* \"#utility.yul\":568:677   */\n  swap2\n  swap1\n  pop\n  jump\t// out\n    /* \"#utility.yul\":683:831   */\ntag_13:\n    /* \"#utility.yul\":769:806   */\n  tag_25\n    /* \"#utility.yul\":800:805   */\n  dup2\n    /* \"#utility.yul\":769:806   */\n  tag_12\n  jump\t// in\ntag_25:\n    /* \"#utility.yul\":762:767   */\n  dup2\n    /* \"#utility.yul\":759:807   */\n  eq\n    /* \"#utility.yul\":749:825   */\n  tag_26\n  jumpi\n    /* \"#utility.yul\":821:822   */\n  0x00\n    /* \"#utility.yul\":818:819   */\n  dup1\n    /* \"#utility.yul\":811:823   */\n  revert\n    /* \"#utility.yul\":749:825   */\ntag_26:\n    /* \"#utility.yul\":683:831   */\n  pop\n  jump\t// out\n    /* \"#utility.yul\":837:1006   */\ntag_14:\n    /* \"#utility.yul\":907:912   */\n  0x00\n    /* \"#utility.yul\":938:944   */\n  dup2\n    /* \"#utility.yul\":932:945   */\n  mload\n    /* \"#utility.yul\":923:945   */\n  swap1\n  pop\n    /* \"#utility.yul\":954:1000   */\n  tag_28\n    /* \"#utility.yul\":994:999   */\n  dup2\n    /* \"#utility.yul\":954:1000   */\n  tag_13\n  jump\t// in\ntag_28:\n    /* \"#utility.yul\":837:1006   */\n  swap3\n  swap2\n  pop\n  pop\n  jump\t// out\n    /* \"#utility.yul\":1012:1389   */\ntag_3:\n    /* \"#utility.yul\":1095:1101   */\n  0x00\n    /* \"#utility.yul\":1144:1146   */\n  0x20\n    /* \"#utility.yul\":1132:1141   */\n  dup3\n    /* \"#utility.yul\":1123:1130   */\n  dup5\n    /* \"#utility.yul\":1119:1142   */\n  sub\n    /* \"#utility.yul\":1115:1147   */\n  slt\n    /* \"#utility.yul\":1112:1231   */\n  iszero\n  tag_30\n  jumpi\n    /* \"#utility.yul\":1150:1229   */\n  tag_31\n  tag_8\n  jump\t// in\ntag_31:\n    /* \"#utility.yul\":1112:1231   */\ntag_30:\n    /* \"#utility.yul\":1270:1271   */\n  0x00\n    /* \"#utility.yul\":1295:1372   */\n  tag_32\n    /* \"#utility.yul\":1364:1371   */\n  dup5\n    /* \"#utility.yul\":1355:1361   */\n  dup3\n    /* \"#utility.yul\":1344:1353   */\n  dup6\n    /* \"#utility.yul\":1340:1362   */\n  add\n    /* \"#utility.yul\":1295:1372   */\n  tag_14\n  jump\t// in\ntag_32:\n    /* \"#utility.yul\":1285:1372   */\n  swap2\n  pop\n    /* \"#utility.yul\":1241:1382   */\n  pop\n    /* \"#utility.yul\":1012:1389   */\n  swap3\n  swap2\n  pop\n  pop\n  jump\t// out\n    /* \"contracts/Bank.sol\":88:1554  contract Bank {... */\ntag_6:\n  dataSize(sub_0)\n  dup1\n  dataOffset(sub_0)\n  0x00\n  codecopy\n  0x00\n  return\nstop\n\nsub_0: assembly {\n        /* \"contracts/Bank.sol\":88:1554  contract Bank {... */\n      mstore(0x40, 0x80)\n      jumpi(tag_1, lt(calldatasize, 0x04))\n      shr(0xe0, calldataload(0x00))\n      dup1\n      0x249ee9e1\n      eq\n      tag_2\n      jumpi\n      dup1\n      0x3ccfd60b\n      eq\n      tag_3\n      jumpi\n      dup1\n      0x73732024\n      eq\n      tag_4\n      jumpi\n      dup1\n      0xd0e30db0\n      eq\n      tag_5\n      jumpi\n      dup1\n      0xdff05f82\n      eq\n      tag_6\n      jumpi\n    tag_1:\n      0x00\n      dup1\n      revert\n        /* \"contracts/Bank.sol\":204:253  mapping(address => uint) public clientsBalanceBNB */\n    tag_2:\n      callvalue\n      dup1\n      iszero\n      tag_7\n      jumpi\n      0x00\n      dup1\n      revert\n    tag_7:\n      pop\n      tag_8\n      0x04\n      dup1\n      calldatasize\n      sub\n      dup2\n      add\n      swap1\n      tag_9\n      swap2\n      swap1\n      tag_10\n      jump\t// in\n    tag_9:\n      tag_11\n      jump\t// in\n    tag_8:\n      mload(0x40)\n      tag_12\n      swap2\n      swap1\n      tag_13\n      jump\t// in\n    tag_12:\n      mload(0x40)\n      dup1\n      swap2\n      sub\n      swap1\n      return\n        /* \"contracts/Bank.sol\":785:1549  function withdraw() public {... */\n    tag_3:\n      callvalue\n      dup1\n      iszero\n      tag_14\n      jumpi\n      0x00\n      dup1\n      revert\n    tag_14:\n      pop\n      tag_15\n      tag_16\n      jump\t// in\n    tag_15:\n      stop\n        /* \"contracts/Bank.sol\":315:358  mapping(address => bool) public isDeposited */\n    tag_4:\n      callvalue\n      dup1\n      iszero\n      tag_17\n      jumpi\n      0x00\n      dup1\n      revert\n    tag_17:\n      pop\n      tag_18\n      0x04\n      dup1\n      calldatasize\n      sub\n      dup2\n      add\n      swap1\n      tag_19\n      swap2\n      swap1\n      tag_10\n      jump\t// in\n    tag_19:\n      tag_20\n      jump\t// in\n    tag_18:\n      mload(0x40)\n      tag_21\n      swap2\n      swap1\n      tag_22\n      jump\t// in\n    tag_21:\n      mload(0x40)\n      dup1\n      swap2\n      sub\n      swap1\n      return\n        /* \"contracts/Bank.sol\":556:783  function deposit() payable public {... */\n    tag_5:\n      tag_23\n      tag_24\n      jump\t// in\n    tag_23:\n      stop\n        /* \"contracts/Bank.sol\":260:308  mapping(address => uint) public depositTimeStamp */\n    tag_6:\n      callvalue\n      dup1\n      iszero\n      tag_25\n      jumpi\n      0x00\n      dup1\n      revert\n    tag_25:\n      pop\n      tag_26\n      0x04\n      dup1\n      calldatasize\n      sub\n      dup2\n      add\n      swap1\n      tag_27\n      swap2\n      swap1\n      tag_10\n      jump\t// in\n    tag_27:\n      tag_28\n      jump\t// in\n    tag_26:\n      mload(0x40)\n      tag_29\n      swap2\n      swap1\n      tag_13\n      jump\t// in\n    tag_29:\n      mload(0x40)\n      dup1\n      swap2\n      sub\n      swap1\n      return\n        /* \"contracts/Bank.sol\":204:253  mapping(address => uint) public clientsBalanceBNB */\n    tag_11:\n      mstore(0x20, 0x01)\n      dup1\n      0x00\n      mstore\n      keccak256(0x00, 0x40)\n      0x00\n      swap2\n      pop\n      swap1\n      pop\n      sload\n      dup2\n      jump\t// out\n        /* \"contracts/Bank.sol\":785:1549  function withdraw() public {... */\n    tag_16:\n        /* \"contracts/Bank.sol\":854:858  true */\n      0x01\n        /* \"contracts/Bank.sol\":827:858  isDeposited[msg.sender] == true */\n      iszero\n      iszero\n        /* \"contracts/Bank.sol\":827:838  isDeposited */\n      0x03\n        /* \"contracts/Bank.sol\":827:850  isDeposited[msg.sender] */\n      0x00\n        /* \"contracts/Bank.sol\":839:849  msg.sender */\n      caller\n        /* \"contracts/Bank.sol\":827:850  isDeposited[msg.sender] */\n      0xffffffffffffffffffffffffffffffffffffffff\n      and\n      0xffffffffffffffffffffffffffffffffffffffff\n      and\n      dup2\n      mstore\n      0x20\n      add\n      swap1\n      dup2\n      mstore\n      0x20\n      add\n      0x00\n      keccak256\n      0x00\n      swap1\n      sload\n      swap1\n      0x0100\n      exp\n      swap1\n      div\n      0xff\n      and\n        /* \"contracts/Bank.sol\":827:858  isDeposited[msg.sender] == true */\n      iszero\n      iszero\n      eq\n        /* \"contracts/Bank.sol\":819:889  require(isDeposited[msg.sender] == true, 'Error, no previous deposit') */\n      tag_31\n      jumpi\n      mload(0x40)\n      0x08c379a000000000000000000000000000000000000000000000000000000000\n      dup2\n      mstore\n      0x04\n      add\n      tag_32\n      swap1\n      tag_33\n      jump\t// in\n    tag_32:\n      mload(0x40)\n      dup1\n      swap2\n      sub\n      swap1\n      revert\n    tag_31:\n        /* \"contracts/Bank.sol\":922:943  uint depositTotalTime */\n      0x00\n        /* \"contracts/Bank.sol\":964:980  depositTimeStamp */\n      0x02\n        /* \"contracts/Bank.sol\":964:992  depositTimeStamp[msg.sender] */\n      0x00\n        /* \"contracts/Bank.sol\":981:991  msg.sender */\n      caller\n        /* \"contracts/Bank.sol\":964:992  depositTimeStamp[msg.sender] */\n      0xffffffffffffffffffffffffffffffffffffffff\n      and\n      0xffffffffffffffffffffffffffffffffffffffff\n      and\n      dup2\n      mstore\n      0x20\n      add\n      swap1\n      dup2\n      mstore\n      0x20\n      add\n      0x00\n      keccak256\n      sload\n        /* \"contracts/Bank.sol\":946:961  block.timestamp */\n      timestamp\n        /* \"contracts/Bank.sol\":946:992  block.timestamp - depositTimeStamp[msg.sender] */\n      tag_34\n      swap2\n      swap1\n      tag_35\n      jump\t// in\n    tag_34:\n        /* \"contracts/Bank.sol\":922:992  uint depositTotalTime = block.timestamp - depositTimeStamp[msg.sender] */\n      swap1\n      pop\n        /* \"contracts/Bank.sol\":1003:1025  uint interestPerSecond */\n      0x00\n        /* \"contracts/Bank.sol\":1066:1074  31668017 */\n      0x01e33731\n        /* \"contracts/Bank.sol\":1033:1050  clientsBalanceBNB */\n      0x01\n        /* \"contracts/Bank.sol\":1033:1062  clientsBalanceBNB[msg.sender] */\n      0x00\n        /* \"contracts/Bank.sol\":1051:1061  msg.sender */\n      caller\n        /* \"contracts/Bank.sol\":1033:1062  clientsBalanceBNB[msg.sender] */\n      0xffffffffffffffffffffffffffffffffffffffff\n      and\n      0xffffffffffffffffffffffffffffffffffffffff\n      and\n      dup2\n      mstore\n      0x20\n      add\n      swap1\n      dup2\n      mstore\n      0x20\n      add\n      0x00\n      keccak256\n      sload\n        /* \"contracts/Bank.sol\":1029:1032  100 */\n      0x64\n        /* \"contracts/Bank.sol\":1029:1062  100*clientsBalanceBNB[msg.sender] */\n      tag_36\n      swap2\n      swap1\n      tag_37\n      jump\t// in\n    tag_36:\n        /* \"contracts/Bank.sol\":1028:1074  (100*clientsBalanceBNB[msg.sender]) / 31668017 */\n      tag_38\n      swap2\n      swap1\n      tag_39\n      jump\t// in\n    tag_38:\n        /* \"contracts/Bank.sol\":1003:1074  uint interestPerSecond = (100*clientsBalanceBNB[msg.sender]) / 31668017 */\n      swap1\n      pop\n        /* \"contracts/Bank.sol\":1085:1098  uint interest */\n      0x00\n        /* \"contracts/Bank.sol\":1121:1137  depositTotalTime */\n      dup3\n        /* \"contracts/Bank.sol\":1101:1118  interestPerSecond */\n      dup3\n        /* \"contracts/Bank.sol\":1101:1137  interestPerSecond * depositTotalTime */\n      tag_40\n      swap2\n      swap1\n      tag_37\n      jump\t// in\n    tag_40:\n        /* \"contracts/Bank.sol\":1085:1137  uint interest = interestPerSecond * depositTotalTime */\n      swap1\n      pop\n        /* \"contracts/Bank.sol\":1204:1214  msg.sender */\n      caller\n        /* \"contracts/Bank.sol\":1196:1224  payable(msg.sender).transfer */\n      0xffffffffffffffffffffffffffffffffffffffff\n      and\n        /* \"contracts/Bank.sol\":1196:1269  payable(msg.sender).transfer(clientsBalanceBNB[msg.sender]- 0.008 ether ) */\n      0x08fc\n        /* \"contracts/Bank.sol\":1256:1267  0.008 ether */\n      0x1c6bf526340000\n        /* \"contracts/Bank.sol\":1225:1242  clientsBalanceBNB */\n      0x01\n        /* \"contracts/Bank.sol\":1225:1254  clientsBalanceBNB[msg.sender] */\n      0x00\n        /* \"contracts/Bank.sol\":1243:1253  msg.sender */\n      caller\n        /* \"contracts/Bank.sol\":1225:1254  clientsBalanceBNB[msg.sender] */\n      0xffffffffffffffffffffffffffffffffffffffff\n      and\n      0xffffffffffffffffffffffffffffffffffffffff\n      and\n      dup2\n      mstore\n      0x20\n      add\n      swap1\n      dup2\n      mstore\n      0x20\n      add\n      0x00\n      keccak256\n      sload\n        /* \"contracts/Bank.sol\":1225:1267  clientsBalanceBNB[msg.sender]- 0.008 ether */\n      tag_41\n      swap2\n      swap1\n      tag_35\n      jump\t// in\n    tag_41:\n        /* \"contracts/Bank.sol\":1196:1269  payable(msg.sender).transfer(clientsBalanceBNB[msg.sender]- 0.008 ether ) */\n      swap1\n      dup2\n      iszero\n      mul\n      swap1\n      mload(0x40)\n      0x00\n      mload(0x40)\n      dup1\n      dup4\n      sub\n      dup2\n      dup6\n      dup9\n      dup9\n      call\n      swap4\n      pop\n      pop\n      pop\n      pop\n      iszero\n      dup1\n      iszero\n      tag_43\n      jumpi\n      returndatasize\n      0x00\n      dup1\n      returndatacopy\n      revert(0x00, returndatasize)\n    tag_43:\n      pop\n        /* \"contracts/Bank.sol\":1312:1313  0 */\n      0x00\n        /* \"contracts/Bank.sol\":1280:1297  clientsBalanceBNB */\n      0x01\n        /* \"contracts/Bank.sol\":1280:1309  clientsBalanceBNB[msg.sender] */\n      0x00\n        /* \"contracts/Bank.sol\":1298:1308  msg.sender */\n      caller\n        /* \"contracts/Bank.sol\":1280:1309  clientsBalanceBNB[msg.sender] */\n      0xffffffffffffffffffffffffffffffffffffffff\n      and\n      0xffffffffffffffffffffffffffffffffffffffff\n      and\n      dup2\n      mstore\n      0x20\n      add\n      swap1\n      dup2\n      mstore\n      0x20\n      add\n      0x00\n      keccak256\n        /* \"contracts/Bank.sol\":1280:1313  clientsBalanceBNB[msg.sender] = 0 */\n      dup2\n      swap1\n      sstore\n      pop\n        /* \"contracts/Bank.sol\":1391:1396  token */\n      0x00\n      dup1\n      sload\n      swap1\n      0x0100\n      exp\n      swap1\n      div\n      0xffffffffffffffffffffffffffffffffffffffff\n      and\n        /* \"contracts/Bank.sol\":1391:1401  token.mint */\n      0xffffffffffffffffffffffffffffffffffffffff\n      and\n      0x40c10f19\n        /* \"contracts/Bank.sol\":1402:1412  msg.sender */\n      caller\n        /* \"contracts/Bank.sol\":1414:1422  interest */\n      dup4\n        /* \"contracts/Bank.sol\":1391:1423  token.mint(msg.sender, interest) */\n      mload(0x40)\n      dup4\n      0xffffffff\n      and\n      0xe0\n      shl\n      dup2\n      mstore\n      0x04\n      add\n      tag_44\n      swap3\n      swap2\n      swap1\n      tag_45\n      jump\t// in\n    tag_44:\n      0x00\n      mload(0x40)\n      dup1\n      dup4\n      sub\n      dup2\n      0x00\n      dup8\n      dup1\n      extcodesize\n      iszero\n      dup1\n      iszero\n      tag_46\n      jumpi\n      0x00\n      dup1\n      revert\n    tag_46:\n      pop\n      gas\n      call\n      iszero\n      dup1\n      iszero\n      tag_48\n      jumpi\n      returndatasize\n      0x00\n      dup1\n      returndatacopy\n      revert(0x00, returndatasize)\n    tag_48:\n      pop\n      pop\n      pop\n      pop\n        /* \"contracts/Bank.sol\":1496:1497  0 */\n      0x00\n        /* \"contracts/Bank.sol\":1465:1481  depositTimeStamp */\n      0x02\n        /* \"contracts/Bank.sol\":1465:1493  depositTimeStamp[msg.sender] */\n      0x00\n        /* \"contracts/Bank.sol\":1482:1492  msg.sender */\n      caller\n        /* \"contracts/Bank.sol\":1465:1493  depositTimeStamp[msg.sender] */\n      0xffffffffffffffffffffffffffffffffffffffff\n      and\n      0xffffffffffffffffffffffffffffffffffffffff\n      and\n      dup2\n      mstore\n      0x20\n      add\n      swap1\n      dup2\n      mstore\n      0x20\n      add\n      0x00\n      keccak256\n        /* \"contracts/Bank.sol\":1465:1497  depositTimeStamp[msg.sender] = 0 */\n      dup2\n      swap1\n      sstore\n      pop\n        /* \"contracts/Bank.sol\":1534:1539  false */\n      0x00\n        /* \"contracts/Bank.sol\":1508:1519  isDeposited */\n      0x03\n        /* \"contracts/Bank.sol\":1508:1531  isDeposited[msg.sender] */\n      0x00\n        /* \"contracts/Bank.sol\":1520:1530  msg.sender */\n      caller\n        /* \"contracts/Bank.sol\":1508:1531  isDeposited[msg.sender] */\n      0xffffffffffffffffffffffffffffffffffffffff\n      and\n      0xffffffffffffffffffffffffffffffffffffffff\n      and\n      dup2\n      mstore\n      0x20\n      add\n      swap1\n      dup2\n      mstore\n      0x20\n      add\n      0x00\n      keccak256\n      0x00\n        /* \"contracts/Bank.sol\":1508:1539  isDeposited[msg.sender] = false */\n      0x0100\n      exp\n      dup2\n      sload\n      dup2\n      0xff\n      mul\n      not\n      and\n      swap1\n      dup4\n      iszero\n      iszero\n      mul\n      or\n      swap1\n      sstore\n      pop\n        /* \"contracts/Bank.sol\":812:1549  {... */\n      pop\n      pop\n      pop\n        /* \"contracts/Bank.sol\":785:1549  function withdraw() public {... */\n      jump\t// out\n        /* \"contracts/Bank.sol\":315:358  mapping(address => bool) public isDeposited */\n    tag_20:\n      mstore(0x20, 0x03)\n      dup1\n      0x00\n      mstore\n      keccak256(0x00, 0x40)\n      0x00\n      swap2\n      pop\n      sload\n      swap1\n      0x0100\n      exp\n      swap1\n      div\n      0xff\n      and\n      dup2\n      jump\t// out\n        /* \"contracts/Bank.sol\":556:783  function deposit() payable public {... */\n    tag_24:\n        /* \"contracts/Bank.sol\":665:674  msg.value */\n      callvalue\n        /* \"contracts/Bank.sol\":633:650  clientsBalanceBNB */\n      0x01\n        /* \"contracts/Bank.sol\":633:662  clientsBalanceBNB[msg.sender] */\n      0x00\n        /* \"contracts/Bank.sol\":651:661  msg.sender */\n      caller\n        /* \"contracts/Bank.sol\":633:662  clientsBalanceBNB[msg.sender] */\n      0xffffffffffffffffffffffffffffffffffffffff\n      and\n      0xffffffffffffffffffffffffffffffffffffffff\n      and\n      dup2\n      mstore\n      0x20\n      add\n      swap1\n      dup2\n      mstore\n      0x20\n      add\n      0x00\n      keccak256\n      sload\n        /* \"contracts/Bank.sol\":633:674  clientsBalanceBNB[msg.sender] + msg.value */\n      tag_50\n      swap2\n      swap1\n      tag_51\n      jump\t// in\n    tag_50:\n        /* \"contracts/Bank.sol\":601:618  clientsBalanceBNB */\n      0x01\n        /* \"contracts/Bank.sol\":601:630  clientsBalanceBNB[msg.sender] */\n      0x00\n        /* \"contracts/Bank.sol\":619:629  msg.sender */\n      caller\n        /* \"contracts/Bank.sol\":601:630  clientsBalanceBNB[msg.sender] */\n      0xffffffffffffffffffffffffffffffffffffffff\n      and\n      0xffffffffffffffffffffffffffffffffffffffff\n      and\n      dup2\n      mstore\n      0x20\n      add\n      swap1\n      dup2\n      mstore\n      0x20\n      add\n      0x00\n      keccak256\n        /* \"contracts/Bank.sol\":601:674  clientsBalanceBNB[msg.sender] = clientsBalanceBNB[msg.sender] + msg.value */\n      dup2\n      swap1\n      sstore\n      pop\n        /* \"contracts/Bank.sol\":716:731  block.timestamp */\n      timestamp\n        /* \"contracts/Bank.sol\":685:701  depositTimeStamp */\n      0x02\n        /* \"contracts/Bank.sol\":685:713  depositTimeStamp[msg.sender] */\n      0x00\n        /* \"contracts/Bank.sol\":702:712  msg.sender */\n      caller\n        /* \"contracts/Bank.sol\":685:713  depositTimeStamp[msg.sender] */\n      0xffffffffffffffffffffffffffffffffffffffff\n      and\n      0xffffffffffffffffffffffffffffffffffffffff\n      and\n      dup2\n      mstore\n      0x20\n      add\n      swap1\n      dup2\n      mstore\n      0x20\n      add\n      0x00\n      keccak256\n        /* \"contracts/Bank.sol\":685:731  depositTimeStamp[msg.sender] = block.timestamp */\n      dup2\n      swap1\n      sstore\n      pop\n        /* \"contracts/Bank.sol\":768:772  true */\n      0x01\n        /* \"contracts/Bank.sol\":742:753  isDeposited */\n      0x03\n        /* \"contracts/Bank.sol\":742:765  isDeposited[msg.sender] */\n      0x00\n        /* \"contracts/Bank.sol\":754:764  msg.sender */\n      caller\n        /* \"contracts/Bank.sol\":742:765  isDeposited[msg.sender] */\n      0xffffffffffffffffffffffffffffffffffffffff\n      and\n      0xffffffffffffffffffffffffffffffffffffffff\n      and\n      dup2\n      mstore\n      0x20\n      add\n      swap1\n      dup2\n      mstore\n      0x20\n      add\n      0x00\n      keccak256\n      0x00\n        /* \"contracts/Bank.sol\":742:772  isDeposited[msg.sender] = true */\n      0x0100\n      exp\n      dup2\n      sload\n      dup2\n      0xff\n      mul\n      not\n      and\n      swap1\n      dup4\n      iszero\n      iszero\n      mul\n      or\n      swap1\n      sstore\n      pop\n        /* \"contracts/Bank.sol\":556:783  function deposit() payable public {... */\n      jump\t// out\n        /* \"contracts/Bank.sol\":260:308  mapping(address => uint) public depositTimeStamp */\n    tag_28:\n      mstore(0x20, 0x02)\n      dup1\n      0x00\n      mstore\n      keccak256(0x00, 0x40)\n      0x00\n      swap2\n      pop\n      swap1\n      pop\n      sload\n      dup2\n      jump\t// out\n        /* \"#utility.yul\":88:205   */\n    tag_53:\n        /* \"#utility.yul\":197:198   */\n      0x00\n        /* \"#utility.yul\":194:195   */\n      dup1\n        /* \"#utility.yul\":187:199   */\n      revert\n        /* \"#utility.yul\":334:460   */\n    tag_55:\n        /* \"#utility.yul\":371:378   */\n      0x00\n        /* \"#utility.yul\":411:453   */\n      0xffffffffffffffffffffffffffffffffffffffff\n        /* \"#utility.yul\":404:409   */\n      dup3\n        /* \"#utility.yul\":400:454   */\n      and\n        /* \"#utility.yul\":389:454   */\n      swap1\n      pop\n        /* \"#utility.yul\":334:460   */\n      swap2\n      swap1\n      pop\n      jump\t// out\n        /* \"#utility.yul\":466:562   */\n    tag_56:\n        /* \"#utility.yul\":503:510   */\n      0x00\n        /* \"#utility.yul\":532:556   */\n      tag_75\n        /* \"#utility.yul\":550:555   */\n      dup3\n        /* \"#utility.yul\":532:556   */\n      tag_55\n      jump\t// in\n    tag_75:\n        /* \"#utility.yul\":521:556   */\n      swap1\n      pop\n        /* \"#utility.yul\":466:562   */\n      swap2\n      swap1\n      pop\n      jump\t// out\n        /* \"#utility.yul\":568:690   */\n    tag_57:\n        /* \"#utility.yul\":641:665   */\n      tag_77\n        /* \"#utility.yul\":659:664   */\n      dup2\n        /* \"#utility.yul\":641:665   */\n      tag_56\n      jump\t// in\n    tag_77:\n        /* \"#utility.yul\":634:639   */\n      dup2\n        /* \"#utility.yul\":631:666   */\n      eq\n        /* \"#utility.yul\":621:684   */\n      tag_78\n      jumpi\n        /* \"#utility.yul\":680:681   */\n      0x00\n        /* \"#utility.yul\":677:678   */\n      dup1\n        /* \"#utility.yul\":670:682   */\n      revert\n        /* \"#utility.yul\":621:684   */\n    tag_78:\n        /* \"#utility.yul\":568:690   */\n      pop\n      jump\t// out\n        /* \"#utility.yul\":696:835   */\n    tag_58:\n        /* \"#utility.yul\":742:747   */\n      0x00\n        /* \"#utility.yul\":780:786   */\n      dup2\n        /* \"#utility.yul\":767:787   */\n      calldataload\n        /* \"#utility.yul\":758:787   */\n      swap1\n      pop\n        /* \"#utility.yul\":796:829   */\n      tag_80\n        /* \"#utility.yul\":823:828   */\n      dup2\n        /* \"#utility.yul\":796:829   */\n      tag_57\n      jump\t// in\n    tag_80:\n        /* \"#utility.yul\":696:835   */\n      swap3\n      swap2\n      pop\n      pop\n      jump\t// out\n        /* \"#utility.yul\":841:1170   */\n    tag_10:\n        /* \"#utility.yul\":900:906   */\n      0x00\n        /* \"#utility.yul\":949:951   */\n      0x20\n        /* \"#utility.yul\":937:946   */\n      dup3\n        /* \"#utility.yul\":928:935   */\n      dup5\n        /* \"#utility.yul\":924:947   */\n      sub\n        /* \"#utility.yul\":920:952   */\n      slt\n        /* \"#utility.yul\":917:1036   */\n      iszero\n      tag_82\n      jumpi\n        /* \"#utility.yul\":955:1034   */\n      tag_83\n      tag_53\n      jump\t// in\n    tag_83:\n        /* \"#utility.yul\":917:1036   */\n    tag_82:\n        /* \"#utility.yul\":1075:1076   */\n      0x00\n        /* \"#utility.yul\":1100:1153   */\n      tag_84\n        /* \"#utility.yul\":1145:1152   */\n      dup5\n        /* \"#utility.yul\":1136:1142   */\n      dup3\n        /* \"#utility.yul\":1125:1134   */\n      dup6\n        /* \"#utility.yul\":1121:1143   */\n      add\n        /* \"#utility.yul\":1100:1153   */\n      tag_58\n      jump\t// in\n    tag_84:\n        /* \"#utility.yul\":1090:1153   */\n      swap2\n      pop\n        /* \"#utility.yul\":1046:1163   */\n      pop\n        /* \"#utility.yul\":841:1170   */\n      swap3\n      swap2\n      pop\n      pop\n      jump\t// out\n        /* \"#utility.yul\":1176:1253   */\n    tag_59:\n        /* \"#utility.yul\":1213:1220   */\n      0x00\n        /* \"#utility.yul\":1242:1247   */\n      dup2\n        /* \"#utility.yul\":1231:1247   */\n      swap1\n      pop\n        /* \"#utility.yul\":1176:1253   */\n      swap2\n      swap1\n      pop\n      jump\t// out\n        /* \"#utility.yul\":1259:1377   */\n    tag_60:\n        /* \"#utility.yul\":1346:1370   */\n      tag_87\n        /* \"#utility.yul\":1364:1369   */\n      dup2\n        /* \"#utility.yul\":1346:1370   */\n      tag_59\n      jump\t// in\n    tag_87:\n        /* \"#utility.yul\":1341:1344   */\n      dup3\n        /* \"#utility.yul\":1334:1371   */\n      mstore\n        /* \"#utility.yul\":1259:1377   */\n      pop\n      pop\n      jump\t// out\n        /* \"#utility.yul\":1383:1605   */\n    tag_13:\n        /* \"#utility.yul\":1476:1480   */\n      0x00\n        /* \"#utility.yul\":1514:1516   */\n      0x20\n        /* \"#utility.yul\":1503:1512   */\n      dup3\n        /* \"#utility.yul\":1499:1517   */\n      add\n        /* \"#utility.yul\":1491:1517   */\n      swap1\n      pop\n        /* \"#utility.yul\":1527:1598   */\n      tag_89\n        /* \"#utility.yul\":1595:1596   */\n      0x00\n        /* \"#utility.yul\":1584:1593   */\n      dup4\n        /* \"#utility.yul\":1580:1597   */\n      add\n        /* \"#utility.yul\":1571:1577   */\n      dup5\n        /* \"#utility.yul\":1527:1598   */\n      tag_60\n      jump\t// in\n    tag_89:\n        /* \"#utility.yul\":1383:1605   */\n      swap3\n      swap2\n      pop\n      pop\n      jump\t// out\n        /* \"#utility.yul\":1611:1701   */\n    tag_61:\n        /* \"#utility.yul\":1645:1652   */\n      0x00\n        /* \"#utility.yul\":1688:1693   */\n      dup2\n        /* \"#utility.yul\":1681:1694   */\n      iszero\n        /* \"#utility.yul\":1674:1695   */\n      iszero\n        /* \"#utility.yul\":1663:1695   */\n      swap1\n      pop\n        /* \"#utility.yul\":1611:1701   */\n      swap2\n      swap1\n      pop\n      jump\t// out\n        /* \"#utility.yul\":1707:1816   */\n    tag_62:\n        /* \"#utility.yul\":1788:1809   */\n      tag_92\n        /* \"#utility.yul\":1803:1808   */\n      dup2\n        /* \"#utility.yul\":1788:1809   */\n      tag_61\n      jump\t// in\n    tag_92:\n        /* \"#utility.yul\":1783:1786   */\n      dup3\n        /* \"#utility.yul\":1776:1810   */\n      mstore\n        /* \"#utility.yul\":1707:1816   */\n      pop\n      pop\n      jump\t// out\n        /* \"#utility.yul\":1822:2032   */\n    tag_22:\n        /* \"#utility.yul\":1909:1913   */\n      0x00\n        /* \"#utility.yul\":1947:1949   */\n      0x20\n        /* \"#utility.yul\":1936:1945   */\n      dup3\n        /* \"#utility.yul\":1932:1950   */\n      add\n        /* \"#utility.yul\":1924:1950   */\n      swap1\n      pop\n        /* \"#utility.yul\":1960:2025   */\n      tag_94\n        /* \"#utility.yul\":2022:2023   */\n      0x00\n        /* \"#utility.yul\":2011:2020   */\n      dup4\n        /* \"#utility.yul\":2007:2024   */\n      add\n        /* \"#utility.yul\":1998:2004   */\n      dup5\n        /* \"#utility.yul\":1960:2025   */\n      tag_62\n      jump\t// in\n    tag_94:\n        /* \"#utility.yul\":1822:2032   */\n      swap3\n      swap2\n      pop\n      pop\n      jump\t// out\n        /* \"#utility.yul\":2038:2207   */\n    tag_63:\n        /* \"#utility.yul\":2122:2133   */\n      0x00\n        /* \"#utility.yul\":2156:2162   */\n      dup3\n        /* \"#utility.yul\":2151:2154   */\n      dup3\n        /* \"#utility.yul\":2144:2163   */\n      mstore\n        /* \"#utility.yul\":2196:2200   */\n      0x20\n        /* \"#utility.yul\":2191:2194   */\n      dup3\n        /* \"#utility.yul\":2187:2201   */\n      add\n        /* \"#utility.yul\":2172:2201   */\n      swap1\n      pop\n        /* \"#utility.yul\":2038:2207   */\n      swap3\n      swap2\n      pop\n      pop\n      jump\t// out\n        /* \"#utility.yul\":2213:2389   */\n    tag_64:\n        /* \"#utility.yul\":2353:2381   */\n      0x4572726f722c206e6f2070726576696f7573206465706f736974000000000000\n        /* \"#utility.yul\":2349:2350   */\n      0x00\n        /* \"#utility.yul\":2341:2347   */\n      dup3\n        /* \"#utility.yul\":2337:2351   */\n      add\n        /* \"#utility.yul\":2330:2382   */\n      mstore\n        /* \"#utility.yul\":2213:2389   */\n      pop\n      jump\t// out\n        /* \"#utility.yul\":2395:2761   */\n    tag_65:\n        /* \"#utility.yul\":2537:2540   */\n      0x00\n        /* \"#utility.yul\":2558:2625   */\n      tag_98\n        /* \"#utility.yul\":2622:2624   */\n      0x1a\n        /* \"#utility.yul\":2617:2620   */\n      dup4\n        /* \"#utility.yul\":2558:2625   */\n      tag_63\n      jump\t// in\n    tag_98:\n        /* \"#utility.yul\":2551:2625   */\n      swap2\n      pop\n        /* \"#utility.yul\":2634:2727   */\n      tag_99\n        /* \"#utility.yul\":2723:2726   */\n      dup3\n        /* \"#utility.yul\":2634:2727   */\n      tag_64\n      jump\t// in\n    tag_99:\n        /* \"#utility.yul\":2752:2754   */\n      0x20\n        /* \"#utility.yul\":2747:2750   */\n      dup3\n        /* \"#utility.yul\":2743:2755   */\n      add\n        /* \"#utility.yul\":2736:2755   */\n      swap1\n      pop\n        /* \"#utility.yul\":2395:2761   */\n      swap2\n      swap1\n      pop\n      jump\t// out\n        /* \"#utility.yul\":2767:3186   */\n    tag_33:\n        /* \"#utility.yul\":2933:2937   */\n      0x00\n        /* \"#utility.yul\":2971:2973   */\n      0x20\n        /* \"#utility.yul\":2960:2969   */\n      dup3\n        /* \"#utility.yul\":2956:2974   */\n      add\n        /* \"#utility.yul\":2948:2974   */\n      swap1\n      pop\n        /* \"#utility.yul\":3020:3029   */\n      dup2\n        /* \"#utility.yul\":3014:3018   */\n      dup2\n        /* \"#utility.yul\":3010:3030   */\n      sub\n        /* \"#utility.yul\":3006:3007   */\n      0x00\n        /* \"#utility.yul\":2995:3004   */\n      dup4\n        /* \"#utility.yul\":2991:3008   */\n      add\n        /* \"#utility.yul\":2984:3031   */\n      mstore\n        /* \"#utility.yul\":3048:3179   */\n      tag_101\n        /* \"#utility.yul\":3174:3178   */\n      dup2\n        /* \"#utility.yul\":3048:3179   */\n      tag_65\n      jump\t// in\n    tag_101:\n        /* \"#utility.yul\":3040:3179   */\n      swap1\n      pop\n        /* \"#utility.yul\":2767:3186   */\n      swap2\n      swap1\n      pop\n      jump\t// out\n        /* \"#utility.yul\":3192:3372   */\n    tag_66:\n        /* \"#utility.yul\":3240:3317   */\n      0x4e487b7100000000000000000000000000000000000000000000000000000000\n        /* \"#utility.yul\":3237:3238   */\n      0x00\n        /* \"#utility.yul\":3230:3318   */\n      mstore\n        /* \"#utility.yul\":3337:3341   */\n      0x11\n        /* \"#utility.yul\":3334:3335   */\n      0x04\n        /* \"#utility.yul\":3327:3342   */\n      mstore\n        /* \"#utility.yul\":3361:3365   */\n      0x24\n        /* \"#utility.yul\":3358:3359   */\n      0x00\n        /* \"#utility.yul\":3351:3366   */\n      revert\n        /* \"#utility.yul\":3378:3572   */\n    tag_35:\n        /* \"#utility.yul\":3418:3422   */\n      0x00\n        /* \"#utility.yul\":3438:3458   */\n      tag_104\n        /* \"#utility.yul\":3456:3457   */\n      dup3\n        /* \"#utility.yul\":3438:3458   */\n      tag_59\n      jump\t// in\n    tag_104:\n        /* \"#utility.yul\":3433:3458   */\n      swap2\n      pop\n        /* \"#utility.yul\":3472:3492   */\n      tag_105\n        /* \"#utility.yul\":3490:3491   */\n      dup4\n        /* \"#utility.yul\":3472:3492   */\n      tag_59\n      jump\t// in\n    tag_105:\n        /* \"#utility.yul\":3467:3492   */\n      swap3\n      pop\n        /* \"#utility.yul\":3516:3517   */\n      dup3\n        /* \"#utility.yul\":3513:3514   */\n      dup3\n        /* \"#utility.yul\":3509:3518   */\n      sub\n        /* \"#utility.yul\":3501:3518   */\n      swap1\n      pop\n        /* \"#utility.yul\":3540:3541   */\n      dup2\n        /* \"#utility.yul\":3534:3538   */\n      dup2\n        /* \"#utility.yul\":3531:3542   */\n      gt\n        /* \"#utility.yul\":3528:3565   */\n      iszero\n      tag_106\n      jumpi\n        /* \"#utility.yul\":3545:3563   */\n      tag_107\n      tag_66\n      jump\t// in\n    tag_107:\n        /* \"#utility.yul\":3528:3565   */\n    tag_106:\n        /* \"#utility.yul\":3378:3572   */\n      swap3\n      swap2\n      pop\n      pop\n      jump\t// out\n        /* \"#utility.yul\":3578:3988   */\n    tag_37:\n        /* \"#utility.yul\":3618:3625   */\n      0x00\n        /* \"#utility.yul\":3641:3661   */\n      tag_109\n        /* \"#utility.yul\":3659:3660   */\n      dup3\n        /* \"#utility.yul\":3641:3661   */\n      tag_59\n      jump\t// in\n    tag_109:\n        /* \"#utility.yul\":3636:3661   */\n      swap2\n      pop\n        /* \"#utility.yul\":3675:3695   */\n      tag_110\n        /* \"#utility.yul\":3693:3694   */\n      dup4\n        /* \"#utility.yul\":3675:3695   */\n      tag_59\n      jump\t// in\n    tag_110:\n        /* \"#utility.yul\":3670:3695   */\n      swap3\n      pop\n        /* \"#utility.yul\":3730:3731   */\n      dup3\n        /* \"#utility.yul\":3727:3728   */\n      dup3\n        /* \"#utility.yul\":3723:3732   */\n      mul\n        /* \"#utility.yul\":3752:3782   */\n      tag_111\n        /* \"#utility.yul\":3770:3781   */\n      dup2\n        /* \"#utility.yul\":3752:3782   */\n      tag_59\n      jump\t// in\n    tag_111:\n        /* \"#utility.yul\":3741:3782   */\n      swap2\n      pop\n        /* \"#utility.yul\":3931:3932   */\n      dup3\n        /* \"#utility.yul\":3922:3929   */\n      dup3\n        /* \"#utility.yul\":3918:3933   */\n      div\n        /* \"#utility.yul\":3915:3916   */\n      dup5\n        /* \"#utility.yul\":3912:3934   */\n      eq\n        /* \"#utility.yul\":3892:3893   */\n      dup4\n        /* \"#utility.yul\":3885:3894   */\n      iszero\n        /* \"#utility.yul\":3865:3948   */\n      or\n        /* \"#utility.yul\":3842:3981   */\n      tag_112\n      jumpi\n        /* \"#utility.yul\":3961:3979   */\n      tag_113\n      tag_66\n      jump\t// in\n    tag_113:\n        /* \"#utility.yul\":3842:3981   */\n    tag_112:\n        /* \"#utility.yul\":3626:3988   */\n      pop\n        /* \"#utility.yul\":3578:3988   */\n      swap3\n      swap2\n      pop\n      pop\n      jump\t// out\n        /* \"#utility.yul\":3994:4174   */\n    tag_67:\n        /* \"#utility.yul\":4042:4119   */\n      0x4e487b7100000000000000000000000000000000000000000000000000000000\n        /* \"#utility.yul\":4039:4040   */\n      0x00\n        /* \"#utility.yul\":4032:4120   */\n      mstore\n        /* \"#utility.yul\":4139:4143   */\n      0x12\n        /* \"#utility.yul\":4136:4137   */\n      0x04\n        /* \"#utility.yul\":4129:4144   */\n      mstore\n        /* \"#utility.yul\":4163:4167   */\n      0x24\n        /* \"#utility.yul\":4160:4161   */\n      0x00\n        /* \"#utility.yul\":4153:4168   */\n      revert\n        /* \"#utility.yul\":4180:4365   */\n    tag_39:\n        /* \"#utility.yul\":4220:4221   */\n      0x00\n        /* \"#utility.yul\":4237:4257   */\n      tag_116\n        /* \"#utility.yul\":4255:4256   */\n      dup3\n        /* \"#utility.yul\":4237:4257   */\n      tag_59\n      jump\t// in\n    tag_116:\n        /* \"#utility.yul\":4232:4257   */\n      swap2\n      pop\n        /* \"#utility.yul\":4271:4291   */\n      tag_117\n        /* \"#utility.yul\":4289:4290   */\n      dup4\n        /* \"#utility.yul\":4271:4291   */\n      tag_59\n      jump\t// in\n    tag_117:\n        /* \"#utility.yul\":4266:4291   */\n      swap3\n      pop\n        /* \"#utility.yul\":4310:4311   */\n      dup3\n        /* \"#utility.yul\":4300:4335   */\n      tag_118\n      jumpi\n        /* \"#utility.yul\":4315:4333   */\n      tag_119\n      tag_67\n      jump\t// in\n    tag_119:\n        /* \"#utility.yul\":4300:4335   */\n    tag_118:\n        /* \"#utility.yul\":4357:4358   */\n      dup3\n        /* \"#utility.yul\":4354:4355   */\n      dup3\n        /* \"#utility.yul\":4350:4359   */\n      div\n        /* \"#utility.yul\":4345:4359   */\n      swap1\n      pop\n        /* \"#utility.yul\":4180:4365   */\n      swap3\n      swap2\n      pop\n      pop\n      jump\t// out\n        /* \"#utility.yul\":4371:4489   */\n    tag_68:\n        /* \"#utility.yul\":4458:4482   */\n      tag_121\n        /* \"#utility.yul\":4476:4481   */\n      dup2\n        /* \"#utility.yul\":4458:4482   */\n      tag_56\n      jump\t// in\n    tag_121:\n        /* \"#utility.yul\":4453:4456   */\n      dup3\n        /* \"#utility.yul\":4446:4483   */\n      mstore\n        /* \"#utility.yul\":4371:4489   */\n      pop\n      pop\n      jump\t// out\n        /* \"#utility.yul\":4495:4827   */\n    tag_45:\n        /* \"#utility.yul\":4616:4620   */\n      0x00\n        /* \"#utility.yul\":4654:4656   */\n      0x40\n        /* \"#utility.yul\":4643:4652   */\n      dup3\n        /* \"#utility.yul\":4639:4657   */\n      add\n        /* \"#utility.yul\":4631:4657   */\n      swap1\n      pop\n        /* \"#utility.yul\":4667:4738   */\n      tag_123\n        /* \"#utility.yul\":4735:4736   */\n      0x00\n        /* \"#utility.yul\":4724:4733   */\n      dup4\n        /* \"#utility.yul\":4720:4737   */\n      add\n        /* \"#utility.yul\":4711:4717   */\n      dup6\n        /* \"#utility.yul\":4667:4738   */\n      tag_68\n      jump\t// in\n    tag_123:\n        /* \"#utility.yul\":4748:4820   */\n      tag_124\n        /* \"#utility.yul\":4816:4818   */\n      0x20\n        /* \"#utility.yul\":4805:4814   */\n      dup4\n        /* \"#utility.yul\":4801:4819   */\n      add\n        /* \"#utility.yul\":4792:4798   */\n      dup5\n        /* \"#utility.yul\":4748:4820   */\n      tag_60\n      jump\t// in\n    tag_124:\n        /* \"#utility.yul\":4495:4827   */\n      swap4\n      swap3\n      pop\n      pop\n      pop\n      jump\t// out\n        /* \"#utility.yul\":4833:5024   */\n    tag_51:\n        /* \"#utility.yul\":4873:4876   */\n      0x00\n        /* \"#utility.yul\":4892:4912   */\n      tag_126\n        /* \"#utility.yul\":4910:4911   */\n      dup3\n        /* \"#utility.yul\":4892:4912   */\n      tag_59\n      jump\t// in\n    tag_126:\n        /* \"#utility.yul\":4887:4912   */\n      swap2\n      pop\n        /* \"#utility.yul\":4926:4946   */\n      tag_127\n        /* \"#utility.yul\":4944:4945   */\n      dup4\n        /* \"#utility.yul\":4926:4946   */\n      tag_59\n      jump\t// in\n    tag_127:\n        /* \"#utility.yul\":4921:4946   */\n      swap3\n      pop\n        /* \"#utility.yul\":4969:4970   */\n      dup3\n        /* \"#utility.yul\":4966:4967   */\n      dup3\n        /* \"#utility.yul\":4962:4971   */\n      add\n        /* \"#utility.yul\":4955:4971   */\n      swap1\n      pop\n        /* \"#utility.yul\":4990:4993   */\n      dup1\n        /* \"#utility.yul\":4987:4988   */\n      dup3\n        /* \"#utility.yul\":4984:4994   */\n      gt\n        /* \"#utility.yul\":4981:5017   */\n      iszero\n      tag_128\n      jumpi\n        /* \"#utility.yul\":4997:5015   */\n      tag_129\n      tag_66\n      jump\t// in\n    tag_129:\n        /* \"#utility.yul\":4981:5017   */\n    tag_128:\n        /* \"#utility.yul\":4833:5024   */\n      swap3\n      swap2\n      pop\n      pop\n      jump\t// out\n\n    auxdata: 0xa2646970667358221220eeded91580045f8da646499df3c0ce33ef08095eec88e8f6ccae37700b3304e364736f6c634300081a0033\n}\n",
				"bytecode": {
					"linkReferences": {},
					"object": "608060405234801561000f575f80fd5b506040516109e83803806109e8833981810160405281019061003191906100e5565b805f806101000a81548173ffffffffffffffffffffffffffffffffffffffff021916908373ffffffffffffffffffffffffffffffffffffffff16021790555050610110565b5f80fd5b5f73ffffffffffffffffffffffffffffffffffffffff82169050919050565b5f6100a38261007a565b9050919050565b5f6100b482610099565b9050919050565b6100c4816100aa565b81146100ce575f80fd5b50565b5f815190506100df816100bb565b92915050565b5f602082840312156100fa576100f9610076565b5b5f610107848285016100d1565b91505092915050565b6108cb8061011d5f395ff3fe608060405260043610610049575f3560e01c8063249ee9e11461004d5780633ccfd60b14610089578063737320241461009f578063d0e30db0146100db578063dff05f82146100e5575b5f80fd5b348015610058575f80fd5b50610073600480360381019061006e9190610627565b610121565b604051610080919061066a565b60405180910390f35b348015610094575f80fd5b5061009d610136565b005b3480156100aa575f80fd5b506100c560048036038101906100c09190610627565b610474565b6040516100d2919061069d565b60405180910390f35b6100e3610491565b005b3480156100f0575f80fd5b5061010b60048036038101906101069190610627565b6105b4565b604051610118919061066a565b60405180910390f35b6001602052805f5260405f205f915090505481565b6001151560035f3373ffffffffffffffffffffffffffffffffffffffff1673ffffffffffffffffffffffffffffffffffffffff1681526020019081526020015f205f9054906101000a900460ff161515146101c6576040517f08c379a00000000000000000000000000000000000000000000000000000000081526004016101bd90610710565b60405180910390fd5b5f60025f3373ffffffffffffffffffffffffffffffffffffffff1673ffffffffffffffffffffffffffffffffffffffff1681526020019081526020015f205442610210919061075b565b90505f6301e3373160015f3373ffffffffffffffffffffffffffffffffffffffff1673ffffffffffffffffffffffffffffffffffffffff1681526020019081526020015f20546064610262919061078e565b61026c91906107fc565b90505f828261027b919061078e565b90503373ffffffffffffffffffffffffffffffffffffffff166108fc661c6bf52634000060015f3373ffffffffffffffffffffffffffffffffffffffff1673ffffffffffffffffffffffffffffffffffffffff1681526020019081526020015f20546102e7919061075b565b90811502906040515f60405180830381858888f1935050505015801561030f573d5f803e3d5ffd5b505f60015f3373ffffffffffffffffffffffffffffffffffffffff1673ffffffffffffffffffffffffffffffffffffffff1681526020019081526020015f20819055505f8054906101000a900473ffffffffffffffffffffffffffffffffffffffff1673ffffffffffffffffffffffffffffffffffffffff166340c10f1933836040518363ffffffff1660e01b81526004016103ac92919061083b565b5f604051808303815f87803b1580156103c3575f80fd5b505af11580156103d5573d5f803e3d5ffd5b505050505f60025f3373ffffffffffffffffffffffffffffffffffffffff1673ffffffffffffffffffffffffffffffffffffffff1681526020019081526020015f20819055505f60035f3373ffffffffffffffffffffffffffffffffffffffff1673ffffffffffffffffffffffffffffffffffffffff1681526020019081526020015f205f6101000a81548160ff021916908315150217905550505050565b6003602052805f5260405f205f915054906101000a900460ff1681565b3460015f3373ffffffffffffffffffffffffffffffffffffffff1673ffffffffffffffffffffffffffffffffffffffff1681526020019081526020015f20546104da9190610862565b60015f3373ffffffffffffffffffffffffffffffffffffffff1673ffffffffffffffffffffffffffffffffffffffff1681526020019081526020015f20819055504260025f3373ffffffffffffffffffffffffffffffffffffffff1673ffffffffffffffffffffffffffffffffffffffff1681526020019081526020015f2081905550600160035f3373ffffffffffffffffffffffffffffffffffffffff1673ffffffffffffffffffffffffffffffffffffffff1681526020019081526020015f205f6101000a81548160ff021916908315150217905550565b6002602052805f5260405f205f915090505481565b5f80fd5b5f73ffffffffffffffffffffffffffffffffffffffff82169050919050565b5f6105f6826105cd565b9050919050565b610606816105ec565b8114610610575f80fd5b50565b5f81359050610621816105fd565b92915050565b5f6020828403121561063c5761063b6105c9565b5b5f61064984828501610613565b91505092915050565b5f819050919050565b61066481610652565b82525050565b5f60208201905061067d5f83018461065b565b92915050565b5f8115159050919050565b61069781610683565b82525050565b5f6020820190506106b05f83018461068e565b92915050565b5f82825260208201905092915050565b7f4572726f722c206e6f2070726576696f7573206465706f7369740000000000005f82015250565b5f6106fa601a836106b6565b9150610705826106c6565b602082019050919050565b5f6020820190508181035f830152610727816106ee565b9050919050565b7f4e487b71000000000000000000000000000000000000000000000000000000005f52601160045260245ffd5b5f61076582610652565b915061077083610652565b92508282039050818111156107885761078761072e565b5b92915050565b5f61079882610652565b91506107a383610652565b92508282026107b181610652565b915082820484148315176107c8576107c761072e565b5b5092915050565b7f4e487b71000000000000000000000000000000000000000000000000000000005f52601260045260245ffd5b5f61080682610652565b915061081183610652565b925082610821576108206107cf565b5b828204905092915050565b610835816105ec565b82525050565b5f60408201905061084e5f83018561082c565b61085b602083018461065b565b9392505050565b5f61086c82610652565b915061087783610652565b925082820190508082111561088f5761088e61072e565b5b9291505056fea2646970667358221220eeded91580045f8da646499df3c0ce33ef08095eec88e8f6ccae37700b3304e364736f6c634300081a0033",
					"opcodes": "PUSH1 0x80 PUSH1 0x40 MSTORE CALLVALUE DUP1 ISZERO PUSH2 0xF JUMPI PUSH0 DUP1 REVERT JUMPDEST POP PUSH1 0x40 MLOAD PUSH2 0x9E8 CODESIZE SUB DUP1 PUSH2 0x9E8 DUP4 CODECOPY DUP2 DUP2 ADD PUSH1 0x40 MSTORE DUP2 ADD SWAP1 PUSH2 0x31 SWAP2 SWAP1 PUSH2 0xE5 JUMP JUMPDEST DUP1 PUSH0 DUP1 PUSH2 0x100 EXP DUP2 SLOAD DUP2 PUSH20 0xFFFFFFFFFFFFFFFFFFFFFFFFFFFFFFFFFFFFFFFF MUL NOT AND SWAP1 DUP4 PUSH20 0xFFFFFFFFFFFFFFFFFFFFFFFFFFFFFFFFFFFFFFFF AND MUL OR SWAP1 SSTORE POP POP PUSH2 0x110 JUMP JUMPDEST PUSH0 DUP1 REVERT JUMPDEST PUSH0 PUSH20 0xFFFFFFFFFFFFFFFFFFFFFFFFFFFFFFFFFFFFFFFF DUP3 AND SWAP1 POP SWAP2 SWAP1 POP JUMP JUMPDEST PUSH0 PUSH2 0xA3 DUP3 PUSH2 0x7A JUMP JUMPDEST SWAP1 POP SWAP2 SWAP1 POP JUMP JUMPDEST PUSH0 PUSH2 0xB4 DUP3 PUSH2 0x99 JUMP JUMPDEST SWAP1 POP SWAP2 SWAP1 POP JUMP JUMPDEST PUSH2 0xC4 DUP2 PUSH2 0xAA JUMP JUMPDEST DUP2 EQ PUSH2 0xCE JUMPI PUSH0 DUP1 REVERT JUMPDEST POP JUMP JUMPDEST PUSH0 DUP2 MLOAD SWAP1 POP PUSH2 0xDF DUP2 PUSH2 0xBB JUMP JUMPDEST SWAP3 SWAP2 POP POP JUMP JUMPDEST PUSH0 PUSH1 0x20 DUP3 DUP5 SUB SLT ISZERO PUSH2 0xFA JUMPI PUSH2 0xF9 PUSH2 0x76 JUMP JUMPDEST JUMPDEST PUSH0 PUSH2 0x107 DUP5 DUP3 DUP6 ADD PUSH2 0xD1 JUMP JUMPDEST SWAP2 POP POP SWAP3 SWAP2 POP POP JUMP JUMPDEST PUSH2 0x8CB DUP1 PUSH2 0x11D PUSH0 CODECOPY PUSH0 RETURN INVALID PUSH1 0x80 PUSH1 0x40 MSTORE PUSH1 0x4 CALLDATASIZE LT PUSH2 0x49 JUMPI PUSH0 CALLDATALOAD PUSH1 0xE0 SHR DUP1 PUSH4 0x249EE9E1 EQ PUSH2 0x4D JUMPI DUP1 PUSH4 0x3CCFD60B EQ PUSH2 0x89 JUMPI DUP1 PUSH4 0x73732024 EQ PUSH2 0x9F JUMPI DUP1 PUSH4 0xD0E30DB0 EQ PUSH2 0xDB JUMPI DUP1 PUSH4 0xDFF05F82 EQ PUSH2 0xE5 JUMPI JUMPDEST PUSH0 DUP1 REVERT JUMPDEST CALLVALUE DUP1 ISZERO PUSH2 0x58 JUMPI PUSH0 DUP1 REVERT JUMPDEST POP PUSH2 0x73 PUSH1 0x4 DUP1 CALLDATASIZE SUB DUP2 ADD SWAP1 PUSH2 0x6E SWAP2 SWAP1 PUSH2 0x627 JUMP JUMPDEST PUSH2 0x121 JUMP JUMPDEST PUSH1 0x40 MLOAD PUSH2 0x80 SWAP2 SWAP1 PUSH2 0x66A JUMP JUMPDEST PUSH1 0x40 MLOAD DUP1 SWAP2 SUB SWAP1 RETURN JUMPDEST CALLVALUE DUP1 ISZERO PUSH2 0x94 JUMPI PUSH0 DUP1 REVERT JUMPDEST POP PUSH2 0x9D PUSH2 0x136 JUMP JUMPDEST STOP JUMPDEST CALLVALUE DUP1 ISZERO PUSH2 0xAA JUMPI PUSH0 DUP1 REVERT JUMPDEST POP PUSH2 0xC5 PUSH1 0x4 DUP1 CALLDATASIZE SUB DUP2 ADD SWAP1 PUSH2 0xC0 SWAP2 SWAP1 PUSH2 0x627 JUMP JUMPDEST PUSH2 0x474 JUMP JUMPDEST PUSH1 0x40 MLOAD PUSH2 0xD2 SWAP2 SWAP1 PUSH2 0x69D JUMP JUMPDEST PUSH1 0x40 MLOAD DUP1 SWAP2 SUB SWAP1 RETURN JUMPDEST PUSH2 0xE3 PUSH2 0x491 JUMP JUMPDEST STOP JUMPDEST CALLVALUE DUP1 ISZERO PUSH2 0xF0 JUMPI PUSH0 DUP1 REVERT JUMPDEST POP PUSH2 0x10B PUSH1 0x4 DUP1 CALLDATASIZE SUB DUP2 ADD SWAP1 PUSH2 0x106 SWAP2 SWAP1 PUSH2 0x627 JUMP JUMPDEST PUSH2 0x5B4 JUMP JUMPDEST PUSH1 0x40 MLOAD PUSH2 0x118 SWAP2 SWAP1 PUSH2 0x66A JUMP JUMPDEST PUSH1 0x40 MLOAD DUP1 SWAP2 SUB SWAP1 RETURN JUMPDEST PUSH1 0x1 PUSH1 0x20 MSTORE DUP1 PUSH0 MSTORE PUSH1 0x40 PUSH0 KECCAK256 PUSH0 SWAP2 POP SWAP1 POP SLOAD DUP2 JUMP JUMPDEST PUSH1 0x1 ISZERO ISZERO PUSH1 0x3 PUSH0 CALLER PUSH20 0xFFFFFFFFFFFFFFFFFFFFFFFFFFFFFFFFFFFFFFFF AND PUSH20 0xFFFFFFFFFFFFFFFFFFFFFFFFFFFFFFFFFFFFFFFF AND DUP2 MSTORE PUSH1 0x20 ADD SWAP1 DUP2 MSTORE PUSH1 0x20 ADD PUSH0 KECCAK256 PUSH0 SWAP1 SLOAD SWAP1 PUSH2 0x100 EXP SWAP1 DIV PUSH1 0xFF AND ISZERO ISZERO EQ PUSH2 0x1C6 JUMPI PUSH1 0x40 MLOAD PUSH32 0x8C379A000000000000000000000000000000000000000000000000000000000 DUP2 MSTORE PUSH1 0x4 ADD PUSH2 0x1BD SWAP1 PUSH2 0x710 JUMP JUMPDEST PUSH1 0x40 MLOAD DUP1 SWAP2 SUB SWAP1 REVERT JUMPDEST PUSH0 PUSH1 0x2 PUSH0 CALLER PUSH20 0xFFFFFFFFFFFFFFFFFFFFFFFFFFFFFFFFFFFFFFFF AND PUSH20 0xFFFFFFFFFFFFFFFFFFFFFFFFFFFFFFFFFFFFFFFF AND DUP2 MSTORE PUSH1 0x20 ADD SWAP1 DUP2 MSTORE PUSH1 0x20 ADD PUSH0 KECCAK256 SLOAD TIMESTAMP PUSH2 0x210 SWAP2 SWAP1 PUSH2 0x75B JUMP JUMPDEST SWAP1 POP PUSH0 PUSH4 0x1E33731 PUSH1 0x1 PUSH0 CALLER PUSH20 0xFFFFFFFFFFFFFFFFFFFFFFFFFFFFFFFFFFFFFFFF AND PUSH20 0xFFFFFFFFFFFFFFFFFFFFFFFFFFFFFFFFFFFFFFFF AND DUP2 MSTORE PUSH1 0x20 ADD SWAP1 DUP2 MSTORE PUSH1 0x20 ADD PUSH0 KECCAK256 SLOAD PUSH1 0x64 PUSH2 0x262 SWAP2 SWAP1 PUSH2 0x78E JUMP JUMPDEST PUSH2 0x26C SWAP2 SWAP1 PUSH2 0x7FC JUMP JUMPDEST SWAP1 POP PUSH0 DUP3 DUP3 PUSH2 0x27B SWAP2 SWAP1 PUSH2 0x78E JUMP JUMPDEST SWAP1 POP CALLER PUSH20 0xFFFFFFFFFFFFFFFFFFFFFFFFFFFFFFFFFFFFFFFF AND PUSH2 0x8FC PUSH7 0x1C6BF526340000 PUSH1 0x1 PUSH0 CALLER PUSH20 0xFFFFFFFFFFFFFFFFFFFFFFFFFFFFFFFFFFFFFFFF AND PUSH20 0xFFFFFFFFFFFFFFFFFFFFFFFFFFFFFFFFFFFFFFFF AND DUP2 MSTORE PUSH1 0x20 ADD SWAP1 DUP2 MSTORE PUSH1 0x20 ADD PUSH0 KECCAK256 SLOAD PUSH2 0x2E7 SWAP2 SWAP1 PUSH2 0x75B JUMP JUMPDEST SWAP1 DUP2 ISZERO MUL SWAP1 PUSH1 0x40 MLOAD PUSH0 PUSH1 0x40 MLOAD DUP1 DUP4 SUB DUP2 DUP6 DUP9 DUP9 CALL SWAP4 POP POP POP POP ISZERO DUP1 ISZERO PUSH2 0x30F JUMPI RETURNDATASIZE PUSH0 DUP1 RETURNDATACOPY RETURNDATASIZE PUSH0 REVERT JUMPDEST POP PUSH0 PUSH1 0x1 PUSH0 CALLER PUSH20 0xFFFFFFFFFFFFFFFFFFFFFFFFFFFFFFFFFFFFFFFF AND PUSH20 0xFFFFFFFFFFFFFFFFFFFFFFFFFFFFFFFFFFFFFFFF AND DUP2 MSTORE PUSH1 0x20 ADD SWAP1 DUP2 MSTORE PUSH1 0x20 ADD PUSH0 KECCAK256 DUP2 SWAP1 SSTORE POP PUSH0 DUP1 SLOAD SWAP1 PUSH2 0x100 EXP SWAP1 DIV PUSH20 0xFFFFFFFFFFFFFFFFFFFFFFFFFFFFFFFFFFFFFFFF AND PUSH20 0xFFFFFFFFFFFFFFFFFFFFFFFFFFFFFFFFFFFFFFFF AND PUSH4 0x40C10F19 CALLER DUP4 PUSH1 0x40 MLOAD DUP4 PUSH4 0xFFFFFFFF AND PUSH1 0xE0 SHL DUP2 MSTORE PUSH1 0x4 ADD PUSH2 0x3AC SWAP3 SWAP2 SWAP1 PUSH2 0x83B JUMP JUMPDEST PUSH0 PUSH1 0x40 MLOAD DUP1 DUP4 SUB DUP2 PUSH0 DUP8 DUP1 EXTCODESIZE ISZERO DUP1 ISZERO PUSH2 0x3C3 JUMPI PUSH0 DUP1 REVERT JUMPDEST POP GAS CALL ISZERO DUP1 ISZERO PUSH2 0x3D5 JUMPI RETURNDATASIZE PUSH0 DUP1 RETURNDATACOPY RETURNDATASIZE PUSH0 REVERT JUMPDEST POP POP POP POP PUSH0 PUSH1 0x2 PUSH0 CALLER PUSH20 0xFFFFFFFFFFFFFFFFFFFFFFFFFFFFFFFFFFFFFFFF AND PUSH20 0xFFFFFFFFFFFFFFFFFFFFFFFFFFFFFFFFFFFFFFFF AND DUP2 MSTORE PUSH1 0x20 ADD SWAP1 DUP2 MSTORE PUSH1 0x20 ADD PUSH0 KECCAK256 DUP2 SWAP1 SSTORE POP PUSH0 PUSH1 0x3 PUSH0 CALLER PUSH20 0xFFFFFFFFFFFFFFFFFFFFFFFFFFFFFFFFFFFFFFFF AND PUSH20 0xFFFFFFFFFFFFFFFFFFFFFFFFFFFFFFFFFFFFFFFF AND DUP2 MSTORE PUSH1 0x20 ADD SWAP1 DUP2 MSTORE PUSH1 0x20 ADD PUSH0 KECCAK256 PUSH0 PUSH2 0x100 EXP DUP2 SLOAD DUP2 PUSH1 0xFF MUL NOT AND SWAP1 DUP4 ISZERO ISZERO MUL OR SWAP1 SSTORE POP POP POP POP JUMP JUMPDEST PUSH1 0x3 PUSH1 0x20 MSTORE DUP1 PUSH0 MSTORE PUSH1 0x40 PUSH0 KECCAK256 PUSH0 SWAP2 POP SLOAD SWAP1 PUSH2 0x100 EXP SWAP1 DIV PUSH1 0xFF AND DUP2 JUMP JUMPDEST CALLVALUE PUSH1 0x1 PUSH0 CALLER PUSH20 0xFFFFFFFFFFFFFFFFFFFFFFFFFFFFFFFFFFFFFFFF AND PUSH20 0xFFFFFFFFFFFFFFFFFFFFFFFFFFFFFFFFFFFFFFFF AND DUP2 MSTORE PUSH1 0x20 ADD SWAP1 DUP2 MSTORE PUSH1 0x20 ADD PUSH0 KECCAK256 SLOAD PUSH2 0x4DA SWAP2 SWAP1 PUSH2 0x862 JUMP JUMPDEST PUSH1 0x1 PUSH0 CALLER PUSH20 0xFFFFFFFFFFFFFFFFFFFFFFFFFFFFFFFFFFFFFFFF AND PUSH20 0xFFFFFFFFFFFFFFFFFFFFFFFFFFFFFFFFFFFFFFFF AND DUP2 MSTORE PUSH1 0x20 ADD SWAP1 DUP2 MSTORE PUSH1 0x20 ADD PUSH0 KECCAK256 DUP2 SWAP1 SSTORE POP TIMESTAMP PUSH1 0x2 PUSH0 CALLER PUSH20 0xFFFFFFFFFFFFFFFFFFFFFFFFFFFFFFFFFFFFFFFF AND PUSH20 0xFFFFFFFFFFFFFFFFFFFFFFFFFFFFFFFFFFFFFFFF AND DUP2 MSTORE PUSH1 0x20 ADD SWAP1 DUP2 MSTORE PUSH1 0x20 ADD PUSH0 KECCAK256 DUP2 SWAP1 SSTORE POP PUSH1 0x1 PUSH1 0x3 PUSH0 CALLER PUSH20 0xFFFFFFFFFFFFFFFFFFFFFFFFFFFFFFFFFFFFFFFF AND PUSH20 0xFFFFFFFFFFFFFFFFFFFFFFFFFFFFFFFFFFFFFFFF AND DUP2 MSTORE PUSH1 0x20 ADD SWAP1 DUP2 MSTORE PUSH1 0x20 ADD PUSH0 KECCAK256 PUSH0 PUSH2 0x100 EXP DUP2 SLOAD DUP2 PUSH1 0xFF MUL NOT AND SWAP1 DUP4 ISZERO ISZERO MUL OR SWAP1 SSTORE POP JUMP JUMPDEST PUSH1 0x2 PUSH1 0x20 MSTORE DUP1 PUSH0 MSTORE PUSH1 0x40 PUSH0 KECCAK256 PUSH0 SWAP2 POP SWAP1 POP SLOAD DUP2 JUMP JUMPDEST PUSH0 DUP1 REVERT JUMPDEST PUSH0 PUSH20 0xFFFFFFFFFFFFFFFFFFFFFFFFFFFFFFFFFFFFFFFF DUP3 AND SWAP1 POP SWAP2 SWAP1 POP JUMP JUMPDEST PUSH0 PUSH2 0x5F6 DUP3 PUSH2 0x5CD JUMP JUMPDEST SWAP1 POP SWAP2 SWAP1 POP JUMP JUMPDEST PUSH2 0x606 DUP2 PUSH2 0x5EC JUMP JUMPDEST DUP2 EQ PUSH2 0x610 JUMPI PUSH0 DUP1 REVERT JUMPDEST POP JUMP JUMPDEST PUSH0 DUP2 CALLDATALOAD SWAP1 POP PUSH2 0x621 DUP2 PUSH2 0x5FD JUMP JUMPDEST SWAP3 SWAP2 POP POP JUMP JUMPDEST PUSH0 PUSH1 0x20 DUP3 DUP5 SUB SLT ISZERO PUSH2 0x63C JUMPI PUSH2 0x63B PUSH2 0x5C9 JUMP JUMPDEST JUMPDEST PUSH0 PUSH2 0x649 DUP5 DUP3 DUP6 ADD PUSH2 0x613 JUMP JUMPDEST SWAP2 POP POP SWAP3 SWAP2 POP POP JUMP JUMPDEST PUSH0 DUP2 SWAP1 POP SWAP2 SWAP1 POP JUMP JUMPDEST PUSH2 0x664 DUP2 PUSH2 0x652 JUMP JUMPDEST DUP3 MSTORE POP POP JUMP JUMPDEST PUSH0 PUSH1 0x20 DUP3 ADD SWAP1 POP PUSH2 0x67D PUSH0 DUP4 ADD DUP5 PUSH2 0x65B JUMP JUMPDEST SWAP3 SWAP2 POP POP JUMP JUMPDEST PUSH0 DUP2 ISZERO ISZERO SWAP1 POP SWAP2 SWAP1 POP JUMP JUMPDEST PUSH2 0x697 DUP2 PUSH2 0x683 JUMP JUMPDEST DUP3 MSTORE POP POP JUMP JUMPDEST PUSH0 PUSH1 0x20 DUP3 ADD SWAP1 POP PUSH2 0x6B0 PUSH0 DUP4 ADD DUP5 PUSH2 0x68E JUMP JUMPDEST SWAP3 SWAP2 POP POP JUMP JUMPDEST PUSH0 DUP3 DUP3 MSTORE PUSH1 0x20 DUP3 ADD SWAP1 POP SWAP3 SWAP2 POP POP JUMP JUMPDEST PUSH32 0x4572726F722C206E6F2070726576696F7573206465706F736974000000000000 PUSH0 DUP3 ADD MSTORE POP JUMP JUMPDEST PUSH0 PUSH2 0x6FA PUSH1 0x1A DUP4 PUSH2 0x6B6 JUMP JUMPDEST SWAP2 POP PUSH2 0x705 DUP3 PUSH2 0x6C6 JUMP JUMPDEST PUSH1 0x20 DUP3 ADD SWAP1 POP SWAP2 SWAP1 POP JUMP JUMPDEST PUSH0 PUSH1 0x20 DUP3 ADD SWAP1 POP DUP2 DUP2 SUB PUSH0 DUP4 ADD MSTORE PUSH2 0x727 DUP2 PUSH2 0x6EE JUMP JUMPDEST SWAP1 POP SWAP2 SWAP1 POP JUMP JUMPDEST PUSH32 0x4E487B7100000000000000000000000000000000000000000000000000000000 PUSH0 MSTORE PUSH1 0x11 PUSH1 0x4 MSTORE PUSH1 0x24 PUSH0 REVERT JUMPDEST PUSH0 PUSH2 0x765 DUP3 PUSH2 0x652 JUMP JUMPDEST SWAP2 POP PUSH2 0x770 DUP4 PUSH2 0x652 JUMP JUMPDEST SWAP3 POP DUP3 DUP3 SUB SWAP1 POP DUP2 DUP2 GT ISZERO PUSH2 0x788 JUMPI PUSH2 0x787 PUSH2 0x72E JUMP JUMPDEST JUMPDEST SWAP3 SWAP2 POP POP JUMP JUMPDEST PUSH0 PUSH2 0x798 DUP3 PUSH2 0x652 JUMP JUMPDEST SWAP2 POP PUSH2 0x7A3 DUP4 PUSH2 0x652 JUMP JUMPDEST SWAP3 POP DUP3 DUP3 MUL PUSH2 0x7B1 DUP2 PUSH2 0x652 JUMP JUMPDEST SWAP2 POP DUP3 DUP3 DIV DUP5 EQ DUP4 ISZERO OR PUSH2 0x7C8 JUMPI PUSH2 0x7C7 PUSH2 0x72E JUMP JUMPDEST JUMPDEST POP SWAP3 SWAP2 POP POP JUMP JUMPDEST PUSH32 0x4E487B7100000000000000000000000000000000000000000000000000000000 PUSH0 MSTORE PUSH1 0x12 PUSH1 0x4 MSTORE PUSH1 0x24 PUSH0 REVERT JUMPDEST PUSH0 PUSH2 0x806 DUP3 PUSH2 0x652 JUMP JUMPDEST SWAP2 POP PUSH2 0x811 DUP4 PUSH2 0x652 JUMP JUMPDEST SWAP3 POP DUP3 PUSH2 0x821 JUMPI PUSH2 0x820 PUSH2 0x7CF JUMP JUMPDEST JUMPDEST DUP3 DUP3 DIV SWAP1 POP SWAP3 SWAP2 POP POP JUMP JUMPDEST PUSH2 0x835 DUP2 PUSH2 0x5EC JUMP JUMPDEST DUP3 MSTORE POP POP JUMP JUMPDEST PUSH0 PUSH1 0x40 DUP3 ADD SWAP1 POP PUSH2 0x84E PUSH0 DUP4 ADD DUP6 PUSH2 0x82C JUMP JUMPDEST PUSH2 0x85B PUSH1 0x20 DUP4 ADD DUP5 PUSH2 0x65B JUMP JUMPDEST SWAP4 SWAP3 POP POP POP JUMP JUMPDEST PUSH0 PUSH2 0x86C DUP3 PUSH2 0x652 JUMP JUMPDEST SWAP2 POP PUSH2 0x877 DUP4 PUSH2 0x652 JUMP JUMPDEST SWAP3 POP DUP3 DUP3 ADD SWAP1 POP DUP1 DUP3 GT ISZERO PUSH2 0x88F JUMPI PUSH2 0x88E PUSH2 0x72E JUMP JUMPDEST JUMPDEST SWAP3 SWAP2 POP POP JUMP INVALID LOG2 PUSH5 0x6970667358 0x22 SLT KECCAK256 0xEE 0xDE 0xD9 ISZERO DUP1 DIV PUSH0 DUP14 0xA6 CHAINID BLOBHASH SWAP14 RETURN 0xC0 0xCE CALLER 0xEF ADDMOD MULMOD MCOPY 0xEC DUP9 0xE8 0xF6 0xCC 0xAE CALLDATACOPY PUSH17 0xB3304E364736F6C634300081A00330000 "
				},
				"gasEstimates": {
					"creation": {
						"codeDepositCost": "450200",
						"executionCost": "infinite",
						"totalCost": "infinite"
					},
					"external": {
						"clientsBalanceBNB(address)": "2780",
						"deposit()": "infinite",
						"depositTimeStamp(address)": "2868",
						"isDeposited(address)": "2855",
						"withdraw()": "infinite"
					}
				},
				"methodIdentifiers": {
					"clientsBalanceBNB(address)": "249ee9e1",
					"deposit()": "d0e30db0",
					"depositTimeStamp(address)": "dff05f82",
					"isDeposited(address)": "73732024",
					"withdraw()": "3ccfd60b"
				}
			},
			"storageLayout": {
				"storage": [
					{
						"astId": 791,
						"contract": "contracts/Bank.sol:Bank",
						"label": "token",
						"offset": 0,
						"slot": "0",
						"type": "t_contract(Token)996"
					},
					{
						"astId": 795,
						"contract": "contracts/Bank.sol:Bank",
						"label": "clientsBalanceBNB",
						"offset": 0,
						"slot": "1",
						"type": "t_mapping(t_address,t_uint256)"
					},
					{
						"astId": 799,
						"contract": "contracts/Bank.sol:Bank",
						"label": "depositTimeStamp",
						"offset": 0,
						"slot": "2",
						"type": "t_mapping(t_address,t_uint256)"
					},
					{
						"astId": 803,
						"contract": "contracts/Bank.sol:Bank",
						"label": "isDeposited",
						"offset": 0,
						"slot": "3",
						"type": "t_mapping(t_address,t_bool)"
					}
				],
				"types": {
					"t_address": {
						"encoding": "inplace",
						"label": "address",
						"numberOfBytes": "20"
					},
					"t_bool": {
						"encoding": "inplace",
						"label": "bool",
						"numberOfBytes": "1"
					},
					"t_contract(Token)996": {
						"encoding": "inplace",
						"label": "contract Token",
						"numberOfBytes": "20"
					},
					"t_mapping(t_address,t_bool)": {
						"encoding": "mapping",
						"key": "t_address",
						"label": "mapping(address => bool)",
						"numberOfBytes": "32",
						"value": "t_bool"
					},
					"t_mapping(t_address,t_uint256)": {
						"encoding": "mapping",
						"key": "t_address",
						"label": "mapping(address => uint256)",
						"numberOfBytes": "32",
						"value": "t_uint256"
					},
					"t_uint256": {
						"encoding": "inplace",
						"label": "uint256",
						"numberOfBytes": "32"
					}
				}
			},
			"userdoc": {
				"kind": "user",
				"methods": {},
				"version": 1
			}
		}
	}
}