{
	"contracts/Bank.sol": {
		"Bank": {
			"abi": [
				{
					"inputs": [
						{
							"internalType": "contract Token",
							"name": "_token",
							"type": "address"
						}
					],
					"stateMutability": "nonpayable",
					"type": "constructor"
				},
				{
					"inputs": [],
					"name": "calculateInterest",
					"outputs": [
						{
							"internalType": "uint256",
							"name": "",
							"type": "uint256"
						}
					],
					"stateMutability": "view",
					"type": "function"
				},
				{
					"inputs": [],
					"name": "calculateInterestSpecial",
					"outputs": [
						{
							"internalType": "uint256",
							"name": "",
							"type": "uint256"
						}
					],
					"stateMutability": "view",
					"type": "function"
				},
				{
					"inputs": [
						{
							"internalType": "address",
							"name": "",
							"type": "address"
						}
					],
					"name": "clientsBalanceBNB",
					"outputs": [
						{
							"internalType": "uint256",
							"name": "",
							"type": "uint256"
						}
					],
					"stateMutability": "view",
					"type": "function"
				},
				{
					"inputs": [],
					"name": "deposit",
					"outputs": [],
					"stateMutability": "payable",
					"type": "function"
				},
				{
					"inputs": [
						{
							"internalType": "address",
							"name": "",
							"type": "address"
						}
					],
					"name": "depositTimeStamp",
					"outputs": [
						{
							"internalType": "uint256",
							"name": "",
							"type": "uint256"
						}
					],
					"stateMutability": "view",
					"type": "function"
				},
				{
					"inputs": [],
					"name": "feeReceiver",
					"outputs": [
						{
							"internalType": "address payable",
							"name": "",
							"type": "address"
						}
					],
					"stateMutability": "view",
					"type": "function"
				},
				{
					"inputs": [],
					"name": "getDepositBalance",
					"outputs": [
						{
							"internalType": "uint256",
							"name": "",
							"type": "uint256"
						}
					],
					"stateMutability": "view",
					"type": "function"
				},
				{
					"inputs": [],
					"name": "getDepositBalanceSpecial",
					"outputs": [
						{
							"internalType": "uint256",
							"name": "",
							"type": "uint256"
						}
					],
					"stateMutability": "view",
					"type": "function"
				},
				{
					"inputs": [
						{
							"internalType": "address",
							"name": "",
							"type": "address"
						}
					],
					"name": "isDeposited",
					"outputs": [
						{
							"internalType": "bool",
							"name": "",
							"type": "bool"
						}
					],
					"stateMutability": "view",
					"type": "function"
				},
				{
					"inputs": [
						{
							"internalType": "address",
							"name": "",
							"type": "address"
						}
					],
					"name": "isSpecialDeposited",
					"outputs": [
						{
							"internalType": "bool",
							"name": "",
							"type": "bool"
						}
					],
					"stateMutability": "view",
					"type": "function"
				},
				{
					"inputs": [
						{
							"internalType": "address",
							"name": "",
							"type": "address"
						}
					],
					"name": "specialClientsBalanceBNB",
					"outputs": [
						{
							"internalType": "uint256",
							"name": "",
							"type": "uint256"
						}
					],
					"stateMutability": "view",
					"type": "function"
				},
				{
					"inputs": [],
					"name": "specialDeposit",
					"outputs": [],
					"stateMutability": "payable",
					"type": "function"
				},
				{
					"inputs": [
						{
							"internalType": "address",
							"name": "",
							"type": "address"
						}
					],
					"name": "specialDepositTimeStamp",
					"outputs": [
						{
							"internalType": "uint256",
							"name": "",
							"type": "uint256"
						}
					],
					"stateMutability": "view",
					"type": "function"
				},
				{
					"inputs": [],
					"name": "specialWithdraw",
					"outputs": [],
					"stateMutability": "payable",
					"type": "function"
				},
				{
					"inputs": [],
					"name": "withdraw",
					"outputs": [],
					"stateMutability": "payable",
					"type": "function"
				},
				{
					"inputs": [],
					"name": "withdrawalFee",
					"outputs": [
						{
							"internalType": "uint256",
							"name": "",
							"type": "uint256"
						}
					],
					"stateMutability": "view",
					"type": "function"
				}
			],
			"devdoc": {
				"kind": "dev",
				"methods": {},
				"version": 1
			},
			"evm": {
				"assembly": "    /* \"contracts/Bank.sol\":88:4441  contract Bank {... */\n  mstore(0x40, 0x80)\n    /* \"contracts/Bank.sol\":748:790  0x50d3b84a2b1787b7704DD50c67733b6b5B293629 */\n  0x50d3b84a2b1787b7704dd50c67733b6b5b293629\n    /* \"contracts/Bank.sol\":703:791  address payable public feeReceiver = payable(0x50d3b84a2b1787b7704DD50c67733b6b5B293629) */\n  0x07\n  exp(0x0100, 0x00)\n  dup2\n  sload\n  dup2\n  0xffffffffffffffffffffffffffffffffffffffff\n  mul\n  not\n  and\n  swap1\n  dup4\n  0xffffffffffffffffffffffffffffffffffffffff\n  and\n  mul\n  or\n  swap1\n  sstore\n  pop\n    /* \"contracts/Bank.sol\":831:841  0.05 ether */\n  0xb1a2bc2ec50000\n    /* \"contracts/Bank.sol\":803:841  uint public withdrawalFee = 0.05 ether */\n  0x08\n  sstore\n    /* \"contracts/Bank.sol\":918:1031  constructor(Token _token) {... */\n  callvalue\n  dup1\n  iszero\n  tag_1\n  jumpi\n  0x00\n  dup1\n  revert\ntag_1:\n  pop\n  mload(0x40)\n  sub(codesize, bytecodeSize)\n  dup1\n  bytecodeSize\n  dup4\n  codecopy\n  dup2\n  dup2\n  add\n  0x40\n  mstore\n  dup2\n  add\n  swap1\n  tag_2\n  swap2\n  swap1\n  tag_3\n  jump\t// in\ntag_2:\n    /* \"contracts/Bank.sol\":1017:1023  _token */\n  dup1\n    /* \"contracts/Bank.sol\":1009:1014  token */\n  0x00\n  dup1\n    /* \"contracts/Bank.sol\":1009:1023  token = _token */\n  0x0100\n  exp\n  dup2\n  sload\n  dup2\n  0xffffffffffffffffffffffffffffffffffffffff\n  mul\n  not\n  and\n  swap1\n  dup4\n  0xffffffffffffffffffffffffffffffffffffffff\n  and\n  mul\n  or\n  swap1\n  sstore\n  pop\n    /* \"contracts/Bank.sol\":918:1031  constructor(Token _token) {... */\n  pop\n    /* \"contracts/Bank.sol\":88:4441  contract Bank {... */\n  jump(tag_6)\n    /* \"#utility.yul\":88:205   */\ntag_8:\n    /* \"#utility.yul\":197:198   */\n  0x00\n    /* \"#utility.yul\":194:195   */\n  dup1\n    /* \"#utility.yul\":187:199   */\n  revert\n    /* \"#utility.yul\":334:460   */\ntag_10:\n    /* \"#utility.yul\":371:378   */\n  0x00\n    /* \"#utility.yul\":411:453   */\n  0xffffffffffffffffffffffffffffffffffffffff\n    /* \"#utility.yul\":404:409   */\n  dup3\n    /* \"#utility.yul\":400:454   */\n  and\n    /* \"#utility.yul\":389:454   */\n  swap1\n  pop\n    /* \"#utility.yul\":334:460   */\n  swap2\n  swap1\n  pop\n  jump\t// out\n    /* \"#utility.yul\":466:562   */\ntag_11:\n    /* \"#utility.yul\":503:510   */\n  0x00\n    /* \"#utility.yul\":532:556   */\n  tag_21\n    /* \"#utility.yul\":550:555   */\n  dup3\n    /* \"#utility.yul\":532:556   */\n  tag_10\n  jump\t// in\ntag_21:\n    /* \"#utility.yul\":521:556   */\n  swap1\n  pop\n    /* \"#utility.yul\":466:562   */\n  swap2\n  swap1\n  pop\n  jump\t// out\n    /* \"#utility.yul\":568:678   */\ntag_12:\n    /* \"#utility.yul\":619:626   */\n  0x00\n    /* \"#utility.yul\":648:672   */\n  tag_23\n    /* \"#utility.yul\":666:671   */\n  dup3\n    /* \"#utility.yul\":648:672   */\n  tag_11\n  jump\t// in\ntag_23:\n    /* \"#utility.yul\":637:672   */\n  swap1\n  pop\n    /* \"#utility.yul\":568:678   */\n  swap2\n  swap1\n  pop\n  jump\t// out\n    /* \"#utility.yul\":684:834   */\ntag_13:\n    /* \"#utility.yul\":771:809   */\n  tag_25\n    /* \"#utility.yul\":803:808   */\n  dup2\n    /* \"#utility.yul\":771:809   */\n  tag_12\n  jump\t// in\ntag_25:\n    /* \"#utility.yul\":764:769   */\n  dup2\n    /* \"#utility.yul\":761:810   */\n  eq\n    /* \"#utility.yul\":751:828   */\n  tag_26\n  jumpi\n    /* \"#utility.yul\":824:825   */\n  0x00\n    /* \"#utility.yul\":821:822   */\n  dup1\n    /* \"#utility.yul\":814:826   */\n  revert\n    /* \"#utility.yul\":751:828   */\ntag_26:\n    /* \"#utility.yul\":684:834   */\n  pop\n  jump\t// out\n    /* \"#utility.yul\":840:1011   */\ntag_14:\n    /* \"#utility.yul\":911:916   */\n  0x00\n    /* \"#utility.yul\":942:948   */\n  dup2\n    /* \"#utility.yul\":936:949   */\n  mload\n    /* \"#utility.yul\":927:949   */\n  swap1\n  pop\n    /* \"#utility.yul\":958:1005   */\n  tag_28\n    /* \"#utility.yul\":999:1004   */\n  dup2\n    /* \"#utility.yul\":958:1005   */\n  tag_13\n  jump\t// in\ntag_28:\n    /* \"#utility.yul\":840:1011   */\n  swap3\n  swap2\n  pop\n  pop\n  jump\t// out\n    /* \"#utility.yul\":1017:1396   */\ntag_3:\n    /* \"#utility.yul\":1101:1107   */\n  0x00\n    /* \"#utility.yul\":1150:1152   */\n  0x20\n    /* \"#utility.yul\":1138:1147   */\n  dup3\n    /* \"#utility.yul\":1129:1136   */\n  dup5\n    /* \"#utility.yul\":1125:1148   */\n  sub\n    /* \"#utility.yul\":1121:1153   */\n  slt\n    /* \"#utility.yul\":1118:1237   */\n  iszero\n  tag_30\n  jumpi\n    /* \"#utility.yul\":1156:1235   */\n  tag_31\n  tag_8\n  jump\t// in\ntag_31:\n    /* \"#utility.yul\":1118:1237   */\ntag_30:\n    /* \"#utility.yul\":1276:1277   */\n  0x00\n    /* \"#utility.yul\":1301:1379   */\n  tag_32\n    /* \"#utility.yul\":1371:1378   */\n  dup5\n    /* \"#utility.yul\":1362:1368   */\n  dup3\n    /* \"#utility.yul\":1351:1360   */\n  dup6\n    /* \"#utility.yul\":1347:1369   */\n  add\n    /* \"#utility.yul\":1301:1379   */\n  tag_14\n  jump\t// in\ntag_32:\n    /* \"#utility.yul\":1291:1379   */\n  swap2\n  pop\n    /* \"#utility.yul\":1247:1389   */\n  pop\n    /* \"#utility.yul\":1017:1396   */\n  swap3\n  swap2\n  pop\n  pop\n  jump\t// out\n    /* \"contracts/Bank.sol\":88:4441  contract Bank {... */\ntag_6:\n  dataSize(sub_0)\n  dup1\n  dataOffset(sub_0)\n  0x00\n  codecopy\n  0x00\n  return\nstop\n\nsub_0: assembly {\n        /* \"contracts/Bank.sol\":88:4441  contract Bank {... */\n      mstore(0x40, 0x80)\n      jumpi(tag_1, lt(calldatasize, 0x04))\n      shr(0xe0, calldataload(0x00))\n      dup1\n      0xae6441a3\n      gt\n      tag_18\n      jumpi\n      dup1\n      0xdcc52a48\n      gt\n      tag_19\n      jumpi\n      dup1\n      0xdcc52a48\n      eq\n      tag_14\n      jumpi\n      dup1\n      0xdff05f82\n      eq\n      tag_15\n      jumpi\n      dup1\n      0xeb0c4955\n      eq\n      tag_16\n      jumpi\n      dup1\n      0xed2d7a97\n      eq\n      tag_17\n      jumpi\n      jump(tag_1)\n    tag_19:\n      dup1\n      0xae6441a3\n      eq\n      tag_10\n      jumpi\n      dup1\n      0xb3f00674\n      eq\n      tag_11\n      jumpi\n      dup1\n      0xc8510e4e\n      eq\n      tag_12\n      jumpi\n      dup1\n      0xd0e30db0\n      eq\n      tag_13\n      jumpi\n      jump(tag_1)\n    tag_18:\n      dup1\n      0x726fe82b\n      gt\n      tag_20\n      jumpi\n      dup1\n      0x726fe82b\n      eq\n      tag_6\n      jumpi\n      dup1\n      0x73732024\n      eq\n      tag_7\n      jumpi\n      dup1\n      0x8bc7e8c4\n      eq\n      tag_8\n      jumpi\n      dup1\n      0x8ce5fcc9\n      eq\n      tag_9\n      jumpi\n      jump(tag_1)\n    tag_20:\n      dup1\n      0x0497de4a\n      eq\n      tag_2\n      jumpi\n      dup1\n      0x12fa90a1\n      eq\n      tag_3\n      jumpi\n      dup1\n      0x249ee9e1\n      eq\n      tag_4\n      jumpi\n      dup1\n      0x3ccfd60b\n      eq\n      tag_5\n      jumpi\n    tag_1:\n      0x00\n      dup1\n      revert\n        /* \"contracts/Bank.sol\":3208:3321  function getDepositBalance() external view returns (uint) {... */\n    tag_2:\n      callvalue\n      dup1\n      iszero\n      tag_21\n      jumpi\n      0x00\n      dup1\n      revert\n    tag_21:\n      pop\n      tag_22\n      tag_23\n      jump\t// in\n    tag_22:\n      mload(0x40)\n      tag_24\n      swap2\n      swap1\n      tag_25\n      jump\t// in\n    tag_24:\n      mload(0x40)\n      dup1\n      swap2\n      sub\n      swap1\n      return\n        /* \"contracts/Bank.sol\":3447:3574  function getDepositBalanceSpecial() external view returns (uint) {... */\n    tag_3:\n      callvalue\n      dup1\n      iszero\n      tag_26\n      jumpi\n      0x00\n      dup1\n      revert\n    tag_26:\n      pop\n      tag_27\n      tag_28\n      jump\t// in\n    tag_27:\n      mload(0x40)\n      tag_29\n      swap2\n      swap1\n      tag_25\n      jump\t// in\n    tag_29:\n      mload(0x40)\n      dup1\n      swap2\n      sub\n      swap1\n      return\n        /* \"contracts/Bank.sol\":204:253  mapping(address => uint) public clientsBalanceBNB */\n    tag_4:\n      callvalue\n      dup1\n      iszero\n      tag_30\n      jumpi\n      0x00\n      dup1\n      revert\n    tag_30:\n      pop\n      tag_31\n      0x04\n      dup1\n      calldatasize\n      sub\n      dup2\n      add\n      swap1\n      tag_32\n      swap2\n      swap1\n      tag_33\n      jump\t// in\n    tag_32:\n      tag_34\n      jump\t// in\n    tag_31:\n      mload(0x40)\n      tag_35\n      swap2\n      swap1\n      tag_25\n      jump\t// in\n    tag_35:\n      mload(0x40)\n      dup1\n      swap2\n      sub\n      swap1\n      return\n        /* \"contracts/Bank.sol\":1578:2408  function withdraw() payable public  {... */\n    tag_5:\n      tag_36\n      tag_37\n      jump\t// in\n    tag_36:\n      stop\n        /* \"contracts/Bank.sol\":380:435  mapping(address => uint) public specialDepositTimeStamp */\n    tag_6:\n      callvalue\n      dup1\n      iszero\n      tag_38\n      jumpi\n      0x00\n      dup1\n      revert\n    tag_38:\n      pop\n      tag_39\n      0x04\n      dup1\n      calldatasize\n      sub\n      dup2\n      add\n      swap1\n      tag_40\n      swap2\n      swap1\n      tag_33\n      jump\t// in\n    tag_40:\n      tag_41\n      jump\t// in\n    tag_39:\n      mload(0x40)\n      tag_42\n      swap2\n      swap1\n      tag_25\n      jump\t// in\n    tag_42:\n      mload(0x40)\n      dup1\n      swap2\n      sub\n      swap1\n      return\n        /* \"contracts/Bank.sol\":444:487  mapping(address => bool) public isDeposited */\n    tag_7:\n      callvalue\n      dup1\n      iszero\n      tag_43\n      jumpi\n      0x00\n      dup1\n      revert\n    tag_43:\n      pop\n      tag_44\n      0x04\n      dup1\n      calldatasize\n      sub\n      dup2\n      add\n      swap1\n      tag_45\n      swap2\n      swap1\n      tag_33\n      jump\t// in\n    tag_45:\n      tag_46\n      jump\t// in\n    tag_44:\n      mload(0x40)\n      tag_47\n      swap2\n      swap1\n      tag_48\n      jump\t// in\n    tag_47:\n      mload(0x40)\n      dup1\n      swap2\n      sub\n      swap1\n      return\n        /* \"contracts/Bank.sol\":803:841  uint public withdrawalFee = 0.05 ether */\n    tag_8:\n      callvalue\n      dup1\n      iszero\n      tag_49\n      jumpi\n      0x00\n      dup1\n      revert\n    tag_49:\n      pop\n      tag_50\n      tag_51\n      jump\t// in\n    tag_50:\n      mload(0x40)\n      tag_52\n      swap2\n      swap1\n      tag_25\n      jump\t// in\n    tag_52:\n      mload(0x40)\n      dup1\n      swap2\n      sub\n      swap1\n      return\n        /* \"contracts/Bank.sol\":494:544  mapping(address => bool) public isSpecialDeposited */\n    tag_9:\n      callvalue\n      dup1\n      iszero\n      tag_53\n      jumpi\n      0x00\n      dup1\n      revert\n    tag_53:\n      pop\n      tag_54\n      0x04\n      dup1\n      calldatasize\n      sub\n      dup2\n      add\n      swap1\n      tag_55\n      swap2\n      swap1\n      tag_33\n      jump\t// in\n    tag_55:\n      tag_56\n      jump\t// in\n    tag_54:\n      mload(0x40)\n      tag_57\n      swap2\n      swap1\n      tag_48\n      jump\t// in\n    tag_57:\n      mload(0x40)\n      dup1\n      swap2\n      sub\n      swap1\n      return\n        /* \"contracts/Bank.sol\":3580:3708  function calculateInterestSpecial() external view returns (uint) {... */\n    tag_10:\n      callvalue\n      dup1\n      iszero\n      tag_58\n      jumpi\n      0x00\n      dup1\n      revert\n    tag_58:\n      pop\n      tag_59\n      tag_60\n      jump\t// in\n    tag_59:\n      mload(0x40)\n      tag_61\n      swap2\n      swap1\n      tag_25\n      jump\t// in\n    tag_61:\n      mload(0x40)\n      dup1\n      swap2\n      sub\n      swap1\n      return\n        /* \"contracts/Bank.sol\":703:791  address payable public feeReceiver = payable(0x50d3b84a2b1787b7704DD50c67733b6b5B293629) */\n    tag_11:\n      callvalue\n      dup1\n      iszero\n      tag_62\n      jumpi\n      0x00\n      dup1\n      revert\n    tag_62:\n      pop\n      tag_63\n      tag_64\n      jump\t// in\n    tag_63:\n      mload(0x40)\n      tag_65\n      swap2\n      swap1\n      tag_66\n      jump\t// in\n    tag_65:\n      mload(0x40)\n      dup1\n      swap2\n      sub\n      swap1\n      return\n        /* \"contracts/Bank.sol\":1270:1572  function specialDeposit() public payable {... */\n    tag_12:\n      tag_67\n      tag_68\n      jump\t// in\n    tag_67:\n      stop\n        /* \"contracts/Bank.sol\":1037:1264  function deposit() payable public {... */\n    tag_13:\n      tag_69\n      tag_70\n      jump\t// in\n    tag_69:\n      stop\n        /* \"contracts/Bank.sol\":260:316  mapping(address => uint) public specialClientsBalanceBNB */\n    tag_14:\n      callvalue\n      dup1\n      iszero\n      tag_71\n      jumpi\n      0x00\n      dup1\n      revert\n    tag_71:\n      pop\n      tag_72\n      0x04\n      dup1\n      calldatasize\n      sub\n      dup2\n      add\n      swap1\n      tag_73\n      swap2\n      swap1\n      tag_33\n      jump\t// in\n    tag_73:\n      tag_74\n      jump\t// in\n    tag_72:\n      mload(0x40)\n      tag_75\n      swap2\n      swap1\n      tag_25\n      jump\t// in\n    tag_75:\n      mload(0x40)\n      dup1\n      swap2\n      sub\n      swap1\n      return\n        /* \"contracts/Bank.sol\":325:373  mapping(address => uint) public depositTimeStamp */\n    tag_15:\n      callvalue\n      dup1\n      iszero\n      tag_76\n      jumpi\n      0x00\n      dup1\n      revert\n    tag_76:\n      pop\n      tag_77\n      0x04\n      dup1\n      calldatasize\n      sub\n      dup2\n      add\n      swap1\n      tag_78\n      swap2\n      swap1\n      tag_33\n      jump\t// in\n    tag_78:\n      tag_79\n      jump\t// in\n    tag_77:\n      mload(0x40)\n      tag_80\n      swap2\n      swap1\n      tag_25\n      jump\t// in\n    tag_80:\n      mload(0x40)\n      dup1\n      swap2\n      sub\n      swap1\n      return\n        /* \"contracts/Bank.sol\":3327:3441  function calculateInterest() external view returns (uint) {... */\n    tag_16:\n      callvalue\n      dup1\n      iszero\n      tag_81\n      jumpi\n      0x00\n      dup1\n      revert\n    tag_81:\n      pop\n      tag_82\n      tag_83\n      jump\t// in\n    tag_82:\n      mload(0x40)\n      tag_84\n      swap2\n      swap1\n      tag_25\n      jump\t// in\n    tag_84:\n      mload(0x40)\n      dup1\n      swap2\n      sub\n      swap1\n      return\n        /* \"contracts/Bank.sol\":2413:3142  function specialWithdraw() public payable {... */\n    tag_17:\n      tag_85\n      tag_86\n      jump\t// in\n    tag_85:\n      stop\n        /* \"contracts/Bank.sol\":3208:3321  function getDepositBalance() external view returns (uint) {... */\n    tag_23:\n        /* \"contracts/Bank.sol\":3260:3264  uint */\n      0x00\n        /* \"contracts/Bank.sol\":3284:3301  clientsBalanceBNB */\n      0x01\n        /* \"contracts/Bank.sol\":3284:3313  clientsBalanceBNB[msg.sender] */\n      0x00\n        /* \"contracts/Bank.sol\":3302:3312  msg.sender */\n      caller\n        /* \"contracts/Bank.sol\":3284:3313  clientsBalanceBNB[msg.sender] */\n      0xffffffffffffffffffffffffffffffffffffffff\n      and\n      0xffffffffffffffffffffffffffffffffffffffff\n      and\n      dup2\n      mstore\n      0x20\n      add\n      swap1\n      dup2\n      mstore\n      0x20\n      add\n      0x00\n      keccak256\n      sload\n        /* \"contracts/Bank.sol\":3277:3313  return clientsBalanceBNB[msg.sender] */\n      swap1\n      pop\n        /* \"contracts/Bank.sol\":3208:3321  function getDepositBalance() external view returns (uint) {... */\n      swap1\n      jump\t// out\n        /* \"contracts/Bank.sol\":3447:3574  function getDepositBalanceSpecial() external view returns (uint) {... */\n    tag_28:\n        /* \"contracts/Bank.sol\":3506:3510  uint */\n      0x00\n        /* \"contracts/Bank.sol\":3530:3554  specialClientsBalanceBNB */\n      0x02\n        /* \"contracts/Bank.sol\":3530:3566  specialClientsBalanceBNB[msg.sender] */\n      0x00\n        /* \"contracts/Bank.sol\":3555:3565  msg.sender */\n      caller\n        /* \"contracts/Bank.sol\":3530:3566  specialClientsBalanceBNB[msg.sender] */\n      0xffffffffffffffffffffffffffffffffffffffff\n      and\n      0xffffffffffffffffffffffffffffffffffffffff\n      and\n      dup2\n      mstore\n      0x20\n      add\n      swap1\n      dup2\n      mstore\n      0x20\n      add\n      0x00\n      keccak256\n      sload\n        /* \"contracts/Bank.sol\":3523:3566  return specialClientsBalanceBNB[msg.sender] */\n      swap1\n      pop\n        /* \"contracts/Bank.sol\":3447:3574  function getDepositBalanceSpecial() external view returns (uint) {... */\n      swap1\n      jump\t// out\n        /* \"contracts/Bank.sol\":204:253  mapping(address => uint) public clientsBalanceBNB */\n    tag_34:\n      mstore(0x20, 0x01)\n      dup1\n      0x00\n      mstore\n      keccak256(0x00, 0x40)\n      0x00\n      swap2\n      pop\n      swap1\n      pop\n      sload\n      dup2\n      jump\t// out\n        /* \"contracts/Bank.sol\":1578:2408  function withdraw() payable public  {... */\n    tag_37:\n        /* \"contracts/Bank.sol\":1660:1664  true */\n      0x01\n        /* \"contracts/Bank.sol\":1633:1664  isDeposited[msg.sender] == true */\n      iszero\n      iszero\n        /* \"contracts/Bank.sol\":1633:1644  isDeposited */\n      0x05\n        /* \"contracts/Bank.sol\":1633:1656  isDeposited[msg.sender] */\n      0x00\n        /* \"contracts/Bank.sol\":1645:1655  msg.sender */\n      caller\n        /* \"contracts/Bank.sol\":1633:1656  isDeposited[msg.sender] */\n      0xffffffffffffffffffffffffffffffffffffffff\n      and\n      0xffffffffffffffffffffffffffffffffffffffff\n      and\n      dup2\n      mstore\n      0x20\n      add\n      swap1\n      dup2\n      mstore\n      0x20\n      add\n      0x00\n      keccak256\n      0x00\n      swap1\n      sload\n      swap1\n      0x0100\n      exp\n      swap1\n      div\n      0xff\n      and\n        /* \"contracts/Bank.sol\":1633:1664  isDeposited[msg.sender] == true */\n      iszero\n      iszero\n      eq\n        /* \"contracts/Bank.sol\":1625:1695  require(isDeposited[msg.sender] == true, 'Error, no previous deposit') */\n      tag_90\n      jumpi\n      mload(0x40)\n      0x08c379a000000000000000000000000000000000000000000000000000000000\n      dup2\n      mstore\n      0x04\n      add\n      tag_91\n      swap1\n      tag_92\n      jump\t// in\n    tag_91:\n      mload(0x40)\n      dup1\n      swap2\n      sub\n      swap1\n      revert\n    tag_90:\n        /* \"contracts/Bank.sol\":1795:1808  withdrawalFee */\n      sload(0x08)\n        /* \"contracts/Bank.sol\":1782:1791  msg.value */\n      callvalue\n        /* \"contracts/Bank.sol\":1782:1808  msg.value >= withdrawalFee */\n      lt\n      iszero\n        /* \"contracts/Bank.sol\":1774:1865  require(msg.value >= withdrawalFee, \"Se debe enviar al menos 0.05 BNB como tasa de retiro\") */\n      tag_93\n      jumpi\n      mload(0x40)\n      0x08c379a000000000000000000000000000000000000000000000000000000000\n      dup2\n      mstore\n      0x04\n      add\n      tag_94\n      swap1\n      tag_95\n      jump\t// in\n    tag_94:\n      mload(0x40)\n      dup1\n      swap2\n      sub\n      swap1\n      revert\n    tag_93:\n        /* \"contracts/Bank.sol\":1904:1917  uint interest */\n      0x00\n        /* \"contracts/Bank.sol\":1920:1950  _calculateInterest(msg.sender) */\n      tag_96\n        /* \"contracts/Bank.sol\":1939:1949  msg.sender */\n      caller\n        /* \"contracts/Bank.sol\":1920:1938  _calculateInterest */\n      tag_97\n        /* \"contracts/Bank.sol\":1920:1950  _calculateInterest(msg.sender) */\n      jump\t// in\n    tag_96:\n        /* \"contracts/Bank.sol\":1904:1950  uint interest = _calculateInterest(msg.sender) */\n      swap1\n      pop\n        /* \"contracts/Bank.sol\":2017:2027  msg.sender */\n      caller\n        /* \"contracts/Bank.sol\":2009:2037  payable(msg.sender).transfer */\n      0xffffffffffffffffffffffffffffffffffffffff\n      and\n        /* \"contracts/Bank.sol\":2009:2082  payable(msg.sender).transfer(clientsBalanceBNB[msg.sender]- 0.008 ether ) */\n      0x08fc\n        /* \"contracts/Bank.sol\":2069:2080  0.008 ether */\n      0x1c6bf526340000\n        /* \"contracts/Bank.sol\":2038:2055  clientsBalanceBNB */\n      0x01\n        /* \"contracts/Bank.sol\":2038:2067  clientsBalanceBNB[msg.sender] */\n      0x00\n        /* \"contracts/Bank.sol\":2056:2066  msg.sender */\n      caller\n        /* \"contracts/Bank.sol\":2038:2067  clientsBalanceBNB[msg.sender] */\n      0xffffffffffffffffffffffffffffffffffffffff\n      and\n      0xffffffffffffffffffffffffffffffffffffffff\n      and\n      dup2\n      mstore\n      0x20\n      add\n      swap1\n      dup2\n      mstore\n      0x20\n      add\n      0x00\n      keccak256\n      sload\n        /* \"contracts/Bank.sol\":2038:2080  clientsBalanceBNB[msg.sender]- 0.008 ether */\n      tag_98\n      swap2\n      swap1\n      tag_99\n      jump\t// in\n    tag_98:\n        /* \"contracts/Bank.sol\":2009:2082  payable(msg.sender).transfer(clientsBalanceBNB[msg.sender]- 0.008 ether ) */\n      swap1\n      dup2\n      iszero\n      mul\n      swap1\n      mload(0x40)\n      0x00\n      mload(0x40)\n      dup1\n      dup4\n      sub\n      dup2\n      dup6\n      dup9\n      dup9\n      call\n      swap4\n      pop\n      pop\n      pop\n      pop\n      iszero\n      dup1\n      iszero\n      tag_101\n      jumpi\n      returndatasize\n      0x00\n      dup1\n      returndatacopy\n      revert(0x00, returndatasize)\n    tag_101:\n      pop\n        /* \"contracts/Bank.sol\":2125:2126  0 */\n      0x00\n        /* \"contracts/Bank.sol\":2093:2110  clientsBalanceBNB */\n      0x01\n        /* \"contracts/Bank.sol\":2093:2122  clientsBalanceBNB[msg.sender] */\n      0x00\n        /* \"contracts/Bank.sol\":2111:2121  msg.sender */\n      caller\n        /* \"contracts/Bank.sol\":2093:2122  clientsBalanceBNB[msg.sender] */\n      0xffffffffffffffffffffffffffffffffffffffff\n      and\n      0xffffffffffffffffffffffffffffffffffffffff\n      and\n      dup2\n      mstore\n      0x20\n      add\n      swap1\n      dup2\n      mstore\n      0x20\n      add\n      0x00\n      keccak256\n        /* \"contracts/Bank.sol\":2093:2126  clientsBalanceBNB[msg.sender] = 0 */\n      dup2\n      swap1\n      sstore\n      pop\n        /* \"contracts/Bank.sol\":2204:2209  token */\n      0x00\n      dup1\n      sload\n      swap1\n      0x0100\n      exp\n      swap1\n      div\n      0xffffffffffffffffffffffffffffffffffffffff\n      and\n        /* \"contracts/Bank.sol\":2204:2214  token.mint */\n      0xffffffffffffffffffffffffffffffffffffffff\n      and\n      0x40c10f19\n        /* \"contracts/Bank.sol\":2215:2225  msg.sender */\n      caller\n        /* \"contracts/Bank.sol\":2227:2235  interest */\n      dup4\n        /* \"contracts/Bank.sol\":2204:2236  token.mint(msg.sender, interest) */\n      mload(0x40)\n      dup4\n      0xffffffff\n      and\n      0xe0\n      shl\n      dup2\n      mstore\n      0x04\n      add\n      tag_102\n      swap3\n      swap2\n      swap1\n      tag_103\n      jump\t// in\n    tag_102:\n      0x00\n      mload(0x40)\n      dup1\n      dup4\n      sub\n      dup2\n      0x00\n      dup8\n      dup1\n      extcodesize\n      iszero\n      dup1\n      iszero\n      tag_104\n      jumpi\n      0x00\n      dup1\n      revert\n    tag_104:\n      pop\n      gas\n      call\n      iszero\n      dup1\n      iszero\n      tag_106\n      jumpi\n      returndatasize\n      0x00\n      dup1\n      returndatacopy\n      revert(0x00, returndatasize)\n    tag_106:\n      pop\n      pop\n      pop\n      pop\n        /* \"contracts/Bank.sol\":2309:2310  0 */\n      0x00\n        /* \"contracts/Bank.sol\":2278:2294  depositTimeStamp */\n      0x03\n        /* \"contracts/Bank.sol\":2278:2306  depositTimeStamp[msg.sender] */\n      0x00\n        /* \"contracts/Bank.sol\":2295:2305  msg.sender */\n      caller\n        /* \"contracts/Bank.sol\":2278:2306  depositTimeStamp[msg.sender] */\n      0xffffffffffffffffffffffffffffffffffffffff\n      and\n      0xffffffffffffffffffffffffffffffffffffffff\n      and\n      dup2\n      mstore\n      0x20\n      add\n      swap1\n      dup2\n      mstore\n      0x20\n      add\n      0x00\n      keccak256\n        /* \"contracts/Bank.sol\":2278:2310  depositTimeStamp[msg.sender] = 0 */\n      dup2\n      swap1\n      sstore\n      pop\n        /* \"contracts/Bank.sol\":2347:2352  false */\n      0x00\n        /* \"contracts/Bank.sol\":2321:2332  isDeposited */\n      0x05\n        /* \"contracts/Bank.sol\":2321:2344  isDeposited[msg.sender] */\n      0x00\n        /* \"contracts/Bank.sol\":2333:2343  msg.sender */\n      caller\n        /* \"contracts/Bank.sol\":2321:2344  isDeposited[msg.sender] */\n      0xffffffffffffffffffffffffffffffffffffffff\n      and\n      0xffffffffffffffffffffffffffffffffffffffff\n      and\n      dup2\n      mstore\n      0x20\n      add\n      swap1\n      dup2\n      mstore\n      0x20\n      add\n      0x00\n      keccak256\n      0x00\n        /* \"contracts/Bank.sol\":2321:2352  isDeposited[msg.sender] = false */\n      0x0100\n      exp\n      dup2\n      sload\n      dup2\n      0xff\n      mul\n      not\n      and\n      swap1\n      dup4\n      iszero\n      iszero\n      mul\n      or\n      swap1\n      sstore\n      pop\n        /* \"contracts/Bank.sol\":2365:2376  feeReceiver */\n      0x07\n      0x00\n      swap1\n      sload\n      swap1\n      0x0100\n      exp\n      swap1\n      div\n      0xffffffffffffffffffffffffffffffffffffffff\n      and\n        /* \"contracts/Bank.sol\":2365:2385  feeReceiver.transfer */\n      0xffffffffffffffffffffffffffffffffffffffff\n      and\n        /* \"contracts/Bank.sol\":2365:2400  feeReceiver.transfer(withdrawalFee) */\n      0x08fc\n        /* \"contracts/Bank.sol\":2386:2399  withdrawalFee */\n      sload(0x08)\n        /* \"contracts/Bank.sol\":2365:2400  feeReceiver.transfer(withdrawalFee) */\n      swap1\n      dup2\n      iszero\n      mul\n      swap1\n      mload(0x40)\n      0x00\n      mload(0x40)\n      dup1\n      dup4\n      sub\n      dup2\n      dup6\n      dup9\n      dup9\n      call\n      swap4\n      pop\n      pop\n      pop\n      pop\n      iszero\n      dup1\n      iszero\n      tag_108\n      jumpi\n      returndatasize\n      0x00\n      dup1\n      returndatacopy\n      revert(0x00, returndatasize)\n    tag_108:\n      pop\n        /* \"contracts/Bank.sol\":1614:2408  {... */\n      pop\n        /* \"contracts/Bank.sol\":1578:2408  function withdraw() payable public  {... */\n      jump\t// out\n        /* \"contracts/Bank.sol\":380:435  mapping(address => uint) public specialDepositTimeStamp */\n    tag_41:\n      mstore(0x20, 0x04)\n      dup1\n      0x00\n      mstore\n      keccak256(0x00, 0x40)\n      0x00\n      swap2\n      pop\n      swap1\n      pop\n      sload\n      dup2\n      jump\t// out\n        /* \"contracts/Bank.sol\":444:487  mapping(address => bool) public isDeposited */\n    tag_46:\n      mstore(0x20, 0x05)\n      dup1\n      0x00\n      mstore\n      keccak256(0x00, 0x40)\n      0x00\n      swap2\n      pop\n      sload\n      swap1\n      0x0100\n      exp\n      swap1\n      div\n      0xff\n      and\n      dup2\n      jump\t// out\n        /* \"contracts/Bank.sol\":803:841  uint public withdrawalFee = 0.05 ether */\n    tag_51:\n      sload(0x08)\n      dup2\n      jump\t// out\n        /* \"contracts/Bank.sol\":494:544  mapping(address => bool) public isSpecialDeposited */\n    tag_56:\n      mstore(0x20, 0x06)\n      dup1\n      0x00\n      mstore\n      keccak256(0x00, 0x40)\n      0x00\n      swap2\n      pop\n      sload\n      swap1\n      0x0100\n      exp\n      swap1\n      div\n      0xff\n      and\n      dup2\n      jump\t// out\n        /* \"contracts/Bank.sol\":3580:3708  function calculateInterestSpecial() external view returns (uint) {... */\n    tag_60:\n        /* \"contracts/Bank.sol\":3639:3643  uint */\n      0x00\n        /* \"contracts/Bank.sol\":3663:3700  _calculateSpecialInterest(msg.sender) */\n      tag_110\n        /* \"contracts/Bank.sol\":3689:3699  msg.sender */\n      caller\n        /* \"contracts/Bank.sol\":3663:3688  _calculateSpecialInterest */\n      tag_111\n        /* \"contracts/Bank.sol\":3663:3700  _calculateSpecialInterest(msg.sender) */\n      jump\t// in\n    tag_110:\n        /* \"contracts/Bank.sol\":3656:3700  return _calculateSpecialInterest(msg.sender) */\n      swap1\n      pop\n        /* \"contracts/Bank.sol\":3580:3708  function calculateInterestSpecial() external view returns (uint) {... */\n      swap1\n      jump\t// out\n        /* \"contracts/Bank.sol\":703:791  address payable public feeReceiver = payable(0x50d3b84a2b1787b7704DD50c67733b6b5B293629) */\n    tag_64:\n      0x07\n      0x00\n      swap1\n      sload\n      swap1\n      0x0100\n      exp\n      swap1\n      div\n      0xffffffffffffffffffffffffffffffffffffffff\n      and\n      dup2\n      jump\t// out\n        /* \"contracts/Bank.sol\":1270:1572  function specialDeposit() public payable {... */\n    tag_68:\n        /* \"contracts/Bank.sol\":1342:1343  0 */\n      0x00\n        /* \"contracts/Bank.sol\":1330:1339  msg.value */\n      callvalue\n        /* \"contracts/Bank.sol\":1330:1343  msg.value > 0 */\n      gt\n        /* \"contracts/Bank.sol\":1322:1390  require(msg.value > 0, \"El monto del deposito debe ser mayor que 0\") */\n      tag_113\n      jumpi\n      mload(0x40)\n      0x08c379a000000000000000000000000000000000000000000000000000000000\n      dup2\n      mstore\n      0x04\n      add\n      tag_114\n      swap1\n      tag_115\n      jump\t// in\n    tag_114:\n      mload(0x40)\n      dup1\n      swap2\n      sub\n      swap1\n      revert\n    tag_113:\n        /* \"contracts/Bank.sol\":1443:1452  msg.value */\n      callvalue\n        /* \"contracts/Bank.sol\":1403:1427  specialClientsBalanceBNB */\n      0x02\n        /* \"contracts/Bank.sol\":1403:1439  specialClientsBalanceBNB[msg.sender] */\n      0x00\n        /* \"contracts/Bank.sol\":1428:1438  msg.sender */\n      caller\n        /* \"contracts/Bank.sol\":1403:1439  specialClientsBalanceBNB[msg.sender] */\n      0xffffffffffffffffffffffffffffffffffffffff\n      and\n      0xffffffffffffffffffffffffffffffffffffffff\n      and\n      dup2\n      mstore\n      0x20\n      add\n      swap1\n      dup2\n      mstore\n      0x20\n      add\n      0x00\n      keccak256\n      0x00\n        /* \"contracts/Bank.sol\":1403:1452  specialClientsBalanceBNB[msg.sender] += msg.value */\n      dup3\n      dup3\n      sload\n      tag_116\n      swap2\n      swap1\n      tag_117\n      jump\t// in\n    tag_116:\n      swap3\n      pop\n      pop\n      dup2\n      swap1\n      sstore\n      pop\n        /* \"contracts/Bank.sol\":1501:1516  block.timestamp */\n      timestamp\n        /* \"contracts/Bank.sol\":1463:1486  specialDepositTimeStamp */\n      0x04\n        /* \"contracts/Bank.sol\":1463:1498  specialDepositTimeStamp[msg.sender] */\n      0x00\n        /* \"contracts/Bank.sol\":1487:1497  msg.sender */\n      caller\n        /* \"contracts/Bank.sol\":1463:1498  specialDepositTimeStamp[msg.sender] */\n      0xffffffffffffffffffffffffffffffffffffffff\n      and\n      0xffffffffffffffffffffffffffffffffffffffff\n      and\n      dup2\n      mstore\n      0x20\n      add\n      swap1\n      dup2\n      mstore\n      0x20\n      add\n      0x00\n      keccak256\n        /* \"contracts/Bank.sol\":1463:1516  specialDepositTimeStamp[msg.sender] = block.timestamp */\n      dup2\n      swap1\n      sstore\n      pop\n        /* \"contracts/Bank.sol\":1560:1564  true */\n      0x01\n        /* \"contracts/Bank.sol\":1527:1545  isSpecialDeposited */\n      0x06\n        /* \"contracts/Bank.sol\":1527:1557  isSpecialDeposited[msg.sender] */\n      0x00\n        /* \"contracts/Bank.sol\":1546:1556  msg.sender */\n      caller\n        /* \"contracts/Bank.sol\":1527:1557  isSpecialDeposited[msg.sender] */\n      0xffffffffffffffffffffffffffffffffffffffff\n      and\n      0xffffffffffffffffffffffffffffffffffffffff\n      and\n      dup2\n      mstore\n      0x20\n      add\n      swap1\n      dup2\n      mstore\n      0x20\n      add\n      0x00\n      keccak256\n      0x00\n        /* \"contracts/Bank.sol\":1527:1564  isSpecialDeposited[msg.sender] = true */\n      0x0100\n      exp\n      dup2\n      sload\n      dup2\n      0xff\n      mul\n      not\n      and\n      swap1\n      dup4\n      iszero\n      iszero\n      mul\n      or\n      swap1\n      sstore\n      pop\n        /* \"contracts/Bank.sol\":1270:1572  function specialDeposit() public payable {... */\n      jump\t// out\n        /* \"contracts/Bank.sol\":1037:1264  function deposit() payable public {... */\n    tag_70:\n        /* \"contracts/Bank.sol\":1146:1155  msg.value */\n      callvalue\n        /* \"contracts/Bank.sol\":1114:1131  clientsBalanceBNB */\n      0x01\n        /* \"contracts/Bank.sol\":1114:1143  clientsBalanceBNB[msg.sender] */\n      0x00\n        /* \"contracts/Bank.sol\":1132:1142  msg.sender */\n      caller\n        /* \"contracts/Bank.sol\":1114:1143  clientsBalanceBNB[msg.sender] */\n      0xffffffffffffffffffffffffffffffffffffffff\n      and\n      0xffffffffffffffffffffffffffffffffffffffff\n      and\n      dup2\n      mstore\n      0x20\n      add\n      swap1\n      dup2\n      mstore\n      0x20\n      add\n      0x00\n      keccak256\n      sload\n        /* \"contracts/Bank.sol\":1114:1155  clientsBalanceBNB[msg.sender] + msg.value */\n      tag_119\n      swap2\n      swap1\n      tag_117\n      jump\t// in\n    tag_119:\n        /* \"contracts/Bank.sol\":1082:1099  clientsBalanceBNB */\n      0x01\n        /* \"contracts/Bank.sol\":1082:1111  clientsBalanceBNB[msg.sender] */\n      0x00\n        /* \"contracts/Bank.sol\":1100:1110  msg.sender */\n      caller\n        /* \"contracts/Bank.sol\":1082:1111  clientsBalanceBNB[msg.sender] */\n      0xffffffffffffffffffffffffffffffffffffffff\n      and\n      0xffffffffffffffffffffffffffffffffffffffff\n      and\n      dup2\n      mstore\n      0x20\n      add\n      swap1\n      dup2\n      mstore\n      0x20\n      add\n      0x00\n      keccak256\n        /* \"contracts/Bank.sol\":1082:1155  clientsBalanceBNB[msg.sender] = clientsBalanceBNB[msg.sender] + msg.value */\n      dup2\n      swap1\n      sstore\n      pop\n        /* \"contracts/Bank.sol\":1197:1212  block.timestamp */\n      timestamp\n        /* \"contracts/Bank.sol\":1166:1182  depositTimeStamp */\n      0x03\n        /* \"contracts/Bank.sol\":1166:1194  depositTimeStamp[msg.sender] */\n      0x00\n        /* \"contracts/Bank.sol\":1183:1193  msg.sender */\n      caller\n        /* \"contracts/Bank.sol\":1166:1194  depositTimeStamp[msg.sender] */\n      0xffffffffffffffffffffffffffffffffffffffff\n      and\n      0xffffffffffffffffffffffffffffffffffffffff\n      and\n      dup2\n      mstore\n      0x20\n      add\n      swap1\n      dup2\n      mstore\n      0x20\n      add\n      0x00\n      keccak256\n        /* \"contracts/Bank.sol\":1166:1212  depositTimeStamp[msg.sender] = block.timestamp */\n      dup2\n      swap1\n      sstore\n      pop\n        /* \"contracts/Bank.sol\":1249:1253  true */\n      0x01\n        /* \"contracts/Bank.sol\":1223:1234  isDeposited */\n      0x05\n        /* \"contracts/Bank.sol\":1223:1246  isDeposited[msg.sender] */\n      0x00\n        /* \"contracts/Bank.sol\":1235:1245  msg.sender */\n      caller\n        /* \"contracts/Bank.sol\":1223:1246  isDeposited[msg.sender] */\n      0xffffffffffffffffffffffffffffffffffffffff\n      and\n      0xffffffffffffffffffffffffffffffffffffffff\n      and\n      dup2\n      mstore\n      0x20\n      add\n      swap1\n      dup2\n      mstore\n      0x20\n      add\n      0x00\n      keccak256\n      0x00\n        /* \"contracts/Bank.sol\":1223:1253  isDeposited[msg.sender] = true */\n      0x0100\n      exp\n      dup2\n      sload\n      dup2\n      0xff\n      mul\n      not\n      and\n      swap1\n      dup4\n      iszero\n      iszero\n      mul\n      or\n      swap1\n      sstore\n      pop\n        /* \"contracts/Bank.sol\":1037:1264  function deposit() payable public {... */\n      jump\t// out\n        /* \"contracts/Bank.sol\":260:316  mapping(address => uint) public specialClientsBalanceBNB */\n    tag_74:\n      mstore(0x20, 0x02)\n      dup1\n      0x00\n      mstore\n      keccak256(0x00, 0x40)\n      0x00\n      swap2\n      pop\n      swap1\n      pop\n      sload\n      dup2\n      jump\t// out\n        /* \"contracts/Bank.sol\":325:373  mapping(address => uint) public depositTimeStamp */\n    tag_79:\n      mstore(0x20, 0x03)\n      dup1\n      0x00\n      mstore\n      keccak256(0x00, 0x40)\n      0x00\n      swap2\n      pop\n      swap1\n      pop\n      sload\n      dup2\n      jump\t// out\n        /* \"contracts/Bank.sol\":3327:3441  function calculateInterest() external view returns (uint) {... */\n    tag_83:\n        /* \"contracts/Bank.sol\":3379:3383  uint */\n      0x00\n        /* \"contracts/Bank.sol\":3403:3433  _calculateInterest(msg.sender) */\n      tag_121\n        /* \"contracts/Bank.sol\":3422:3432  msg.sender */\n      caller\n        /* \"contracts/Bank.sol\":3403:3421  _calculateInterest */\n      tag_97\n        /* \"contracts/Bank.sol\":3403:3433  _calculateInterest(msg.sender) */\n      jump\t// in\n    tag_121:\n        /* \"contracts/Bank.sol\":3396:3433  return _calculateInterest(msg.sender) */\n      swap1\n      pop\n        /* \"contracts/Bank.sol\":3327:3441  function calculateInterest() external view returns (uint) {... */\n      swap1\n      jump\t// out\n        /* \"contracts/Bank.sol\":2413:3142  function specialWithdraw() public payable {... */\n    tag_86:\n        /* \"contracts/Bank.sol\":2474:2492  isSpecialDeposited */\n      0x06\n        /* \"contracts/Bank.sol\":2474:2504  isSpecialDeposited[msg.sender] */\n      0x00\n        /* \"contracts/Bank.sol\":2493:2503  msg.sender */\n      caller\n        /* \"contracts/Bank.sol\":2474:2504  isSpecialDeposited[msg.sender] */\n      0xffffffffffffffffffffffffffffffffffffffff\n      and\n      0xffffffffffffffffffffffffffffffffffffffff\n      and\n      dup2\n      mstore\n      0x20\n      add\n      swap1\n      dup2\n      mstore\n      0x20\n      add\n      0x00\n      keccak256\n      0x00\n      swap1\n      sload\n      swap1\n      0x0100\n      exp\n      swap1\n      div\n      0xff\n      and\n        /* \"contracts/Bank.sol\":2466:2546  require(isSpecialDeposited[msg.sender], \"No tienes un deposito especial activo\") */\n      tag_123\n      jumpi\n      mload(0x40)\n      0x08c379a000000000000000000000000000000000000000000000000000000000\n      dup2\n      mstore\n      0x04\n      add\n      tag_124\n      swap1\n      tag_125\n      jump\t// in\n    tag_124:\n      mload(0x40)\n      dup1\n      swap2\n      sub\n      swap1\n      revert\n    tag_123:\n        /* \"contracts/Bank.sol\":2622:2632  10 minutes */\n      0x0258\n        /* \"contracts/Bank.sol\":2584:2607  specialDepositTimeStamp */\n      0x04\n        /* \"contracts/Bank.sol\":2584:2619  specialDepositTimeStamp[msg.sender] */\n      0x00\n        /* \"contracts/Bank.sol\":2608:2618  msg.sender */\n      caller\n        /* \"contracts/Bank.sol\":2584:2619  specialDepositTimeStamp[msg.sender] */\n      0xffffffffffffffffffffffffffffffffffffffff\n      and\n      0xffffffffffffffffffffffffffffffffffffffff\n      and\n      dup2\n      mstore\n      0x20\n      add\n      swap1\n      dup2\n      mstore\n      0x20\n      add\n      0x00\n      keccak256\n      sload\n        /* \"contracts/Bank.sol\":2584:2632  specialDepositTimeStamp[msg.sender] + 10 minutes */\n      tag_126\n      swap2\n      swap1\n      tag_117\n      jump\t// in\n    tag_126:\n        /* \"contracts/Bank.sol\":2565:2580  block.timestamp */\n      timestamp\n        /* \"contracts/Bank.sol\":2565:2632  block.timestamp >= specialDepositTimeStamp[msg.sender] + 10 minutes */\n      lt\n      iszero\n        /* \"contracts/Bank.sol\":2557:2698  require(block.timestamp >= specialDepositTimeStamp[msg.sender] + 10 minutes, \"El retiro especial solo esta disponible despues de 10 minutos\") */\n      tag_127\n      jumpi\n      mload(0x40)\n      0x08c379a000000000000000000000000000000000000000000000000000000000\n      dup2\n      mstore\n      0x04\n      add\n      tag_128\n      swap1\n      tag_129\n      jump\t// in\n    tag_128:\n      mload(0x40)\n      dup1\n      swap2\n      sub\n      swap1\n      revert\n    tag_127:\n        /* \"contracts/Bank.sol\":2730:2743  withdrawalFee */\n      sload(0x08)\n        /* \"contracts/Bank.sol\":2717:2726  msg.value */\n      callvalue\n        /* \"contracts/Bank.sol\":2717:2743  msg.value >= withdrawalFee */\n      lt\n      iszero\n        /* \"contracts/Bank.sol\":2709:2800  require(msg.value >= withdrawalFee, \"Se debe enviar al menos 0.05 BNB como tasa de retiro\") */\n      tag_130\n      jumpi\n      mload(0x40)\n      0x08c379a000000000000000000000000000000000000000000000000000000000\n      dup2\n      mstore\n      0x04\n      add\n      tag_131\n      swap1\n      tag_95\n      jump\t// in\n    tag_131:\n      mload(0x40)\n      dup1\n      swap2\n      sub\n      swap1\n      revert\n    tag_130:\n        /* \"contracts/Bank.sol\":2813:2826  uint interest */\n      0x00\n        /* \"contracts/Bank.sol\":2829:2866  _calculateSpecialInterest(msg.sender) */\n      tag_132\n        /* \"contracts/Bank.sol\":2855:2865  msg.sender */\n      caller\n        /* \"contracts/Bank.sol\":2829:2854  _calculateSpecialInterest */\n      tag_111\n        /* \"contracts/Bank.sol\":2829:2866  _calculateSpecialInterest(msg.sender) */\n      jump\t// in\n    tag_132:\n        /* \"contracts/Bank.sol\":2813:2866  uint interest = _calculateSpecialInterest(msg.sender) */\n      swap1\n      pop\n        /* \"contracts/Bank.sol\":2877:2888  feeReceiver */\n      0x07\n      0x00\n      swap1\n      sload\n      swap1\n      0x0100\n      exp\n      swap1\n      div\n      0xffffffffffffffffffffffffffffffffffffffff\n      and\n        /* \"contracts/Bank.sol\":2877:2897  feeReceiver.transfer */\n      0xffffffffffffffffffffffffffffffffffffffff\n      and\n        /* \"contracts/Bank.sol\":2877:2912  feeReceiver.transfer(withdrawalFee) */\n      0x08fc\n        /* \"contracts/Bank.sol\":2898:2911  withdrawalFee */\n      sload(0x08)\n        /* \"contracts/Bank.sol\":2877:2912  feeReceiver.transfer(withdrawalFee) */\n      swap1\n      dup2\n      iszero\n      mul\n      swap1\n      mload(0x40)\n      0x00\n      mload(0x40)\n      dup1\n      dup4\n      sub\n      dup2\n      dup6\n      dup9\n      dup9\n      call\n      swap4\n      pop\n      pop\n      pop\n      pop\n      iszero\n      dup1\n      iszero\n      tag_134\n      jumpi\n      returndatasize\n      0x00\n      dup1\n      returndatacopy\n      revert(0x00, returndatasize)\n    tag_134:\n      pop\n        /* \"contracts/Bank.sol\":2931:2941  msg.sender */\n      caller\n        /* \"contracts/Bank.sol\":2923:2951  payable(msg.sender).transfer */\n      0xffffffffffffffffffffffffffffffffffffffff\n      and\n        /* \"contracts/Bank.sol\":2923:2989  payable(msg.sender).transfer(specialClientsBalanceBNB[msg.sender]) */\n      0x08fc\n        /* \"contracts/Bank.sol\":2952:2976  specialClientsBalanceBNB */\n      0x02\n        /* \"contracts/Bank.sol\":2952:2988  specialClientsBalanceBNB[msg.sender] */\n      0x00\n        /* \"contracts/Bank.sol\":2977:2987  msg.sender */\n      caller\n        /* \"contracts/Bank.sol\":2952:2988  specialClientsBalanceBNB[msg.sender] */\n      0xffffffffffffffffffffffffffffffffffffffff\n      and\n      0xffffffffffffffffffffffffffffffffffffffff\n      and\n      dup2\n      mstore\n      0x20\n      add\n      swap1\n      dup2\n      mstore\n      0x20\n      add\n      0x00\n      keccak256\n      sload\n        /* \"contracts/Bank.sol\":2923:2989  payable(msg.sender).transfer(specialClientsBalanceBNB[msg.sender]) */\n      swap1\n      dup2\n      iszero\n      mul\n      swap1\n      mload(0x40)\n      0x00\n      mload(0x40)\n      dup1\n      dup4\n      sub\n      dup2\n      dup6\n      dup9\n      dup9\n      call\n      swap4\n      pop\n      pop\n      pop\n      pop\n      iszero\n      dup1\n      iszero\n      tag_136\n      jumpi\n      returndatasize\n      0x00\n      dup1\n      returndatacopy\n      revert(0x00, returndatasize)\n    tag_136:\n      pop\n        /* \"contracts/Bank.sol\":3041:3042  0 */\n      0x00\n        /* \"contracts/Bank.sol\":3002:3026  specialClientsBalanceBNB */\n      0x02\n        /* \"contracts/Bank.sol\":3002:3038  specialClientsBalanceBNB[msg.sender] */\n      0x00\n        /* \"contracts/Bank.sol\":3027:3037  msg.sender */\n      caller\n        /* \"contracts/Bank.sol\":3002:3038  specialClientsBalanceBNB[msg.sender] */\n      0xffffffffffffffffffffffffffffffffffffffff\n      and\n      0xffffffffffffffffffffffffffffffffffffffff\n      and\n      dup2\n      mstore\n      0x20\n      add\n      swap1\n      dup2\n      mstore\n      0x20\n      add\n      0x00\n      keccak256\n        /* \"contracts/Bank.sol\":3002:3042  specialClientsBalanceBNB[msg.sender] = 0 */\n      dup2\n      swap1\n      sstore\n      pop\n        /* \"contracts/Bank.sol\":3086:3091  false */\n      0x00\n        /* \"contracts/Bank.sol\":3053:3071  isSpecialDeposited */\n      0x06\n        /* \"contracts/Bank.sol\":3053:3083  isSpecialDeposited[msg.sender] */\n      0x00\n        /* \"contracts/Bank.sol\":3072:3082  msg.sender */\n      caller\n        /* \"contracts/Bank.sol\":3053:3083  isSpecialDeposited[msg.sender] */\n      0xffffffffffffffffffffffffffffffffffffffff\n      and\n      0xffffffffffffffffffffffffffffffffffffffff\n      and\n      dup2\n      mstore\n      0x20\n      add\n      swap1\n      dup2\n      mstore\n      0x20\n      add\n      0x00\n      keccak256\n      0x00\n        /* \"contracts/Bank.sol\":3053:3091  isSpecialDeposited[msg.sender] = false */\n      0x0100\n      exp\n      dup2\n      sload\n      dup2\n      0xff\n      mul\n      not\n      and\n      swap1\n      dup4\n      iszero\n      iszero\n      mul\n      or\n      swap1\n      sstore\n      pop\n        /* \"contracts/Bank.sol\":3102:3107  token */\n      0x00\n      dup1\n      sload\n      swap1\n      0x0100\n      exp\n      swap1\n      div\n      0xffffffffffffffffffffffffffffffffffffffff\n      and\n        /* \"contracts/Bank.sol\":3102:3112  token.mint */\n      0xffffffffffffffffffffffffffffffffffffffff\n      and\n      0x40c10f19\n        /* \"contracts/Bank.sol\":3113:3123  msg.sender */\n      caller\n        /* \"contracts/Bank.sol\":3125:3133  interest */\n      dup4\n        /* \"contracts/Bank.sol\":3102:3134  token.mint(msg.sender, interest) */\n      mload(0x40)\n      dup4\n      0xffffffff\n      and\n      0xe0\n      shl\n      dup2\n      mstore\n      0x04\n      add\n      tag_137\n      swap3\n      swap2\n      swap1\n      tag_103\n      jump\t// in\n    tag_137:\n      0x00\n      mload(0x40)\n      dup1\n      dup4\n      sub\n      dup2\n      0x00\n      dup8\n      dup1\n      extcodesize\n      iszero\n      dup1\n      iszero\n      tag_138\n      jumpi\n      0x00\n      dup1\n      revert\n    tag_138:\n      pop\n      gas\n      call\n      iszero\n      dup1\n      iszero\n      tag_140\n      jumpi\n      returndatasize\n      0x00\n      dup1\n      returndatacopy\n      revert(0x00, returndatasize)\n    tag_140:\n      pop\n      pop\n      pop\n      pop\n        /* \"contracts/Bank.sol\":2455:3142  {... */\n      pop\n        /* \"contracts/Bank.sol\":2413:3142  function specialWithdraw() public payable {... */\n      jump\t// out\n        /* \"contracts/Bank.sol\":3714:4107  function _calculateInterest(address user) private view returns (uint) {... */\n    tag_97:\n        /* \"contracts/Bank.sol\":3778:3782  uint */\n      0x00\n        /* \"contracts/Bank.sol\":3803:3814  isDeposited */\n      0x05\n        /* \"contracts/Bank.sol\":3803:3820  isDeposited[user] */\n      0x00\n        /* \"contracts/Bank.sol\":3815:3819  user */\n      dup4\n        /* \"contracts/Bank.sol\":3803:3820  isDeposited[user] */\n      0xffffffffffffffffffffffffffffffffffffffff\n      and\n      0xffffffffffffffffffffffffffffffffffffffff\n      and\n      dup2\n      mstore\n      0x20\n      add\n      swap1\n      dup2\n      mstore\n      0x20\n      add\n      0x00\n      keccak256\n      0x00\n      swap1\n      sload\n      swap1\n      0x0100\n      exp\n      swap1\n      div\n      0xff\n      and\n        /* \"contracts/Bank.sol\":3795:3853  require(isDeposited[user], \"No tienes un deposito activo\") */\n      tag_142\n      jumpi\n      mload(0x40)\n      0x08c379a000000000000000000000000000000000000000000000000000000000\n      dup2\n      mstore\n      0x04\n      add\n      tag_143\n      swap1\n      tag_144\n      jump\t// in\n    tag_143:\n      mload(0x40)\n      dup1\n      swap2\n      sub\n      swap1\n      revert\n    tag_142:\n        /* \"contracts/Bank.sol\":3866:3887  uint depositTotalTime */\n      0x00\n        /* \"contracts/Bank.sol\":3908:3924  depositTimeStamp */\n      0x03\n        /* \"contracts/Bank.sol\":3908:3930  depositTimeStamp[user] */\n      0x00\n        /* \"contracts/Bank.sol\":3925:3929  user */\n      dup5\n        /* \"contracts/Bank.sol\":3908:3930  depositTimeStamp[user] */\n      0xffffffffffffffffffffffffffffffffffffffff\n      and\n      0xffffffffffffffffffffffffffffffffffffffff\n      and\n      dup2\n      mstore\n      0x20\n      add\n      swap1\n      dup2\n      mstore\n      0x20\n      add\n      0x00\n      keccak256\n      sload\n        /* \"contracts/Bank.sol\":3890:3905  block.timestamp */\n      timestamp\n        /* \"contracts/Bank.sol\":3890:3930  block.timestamp - depositTimeStamp[user] */\n      tag_145\n      swap2\n      swap1\n      tag_99\n      jump\t// in\n    tag_145:\n        /* \"contracts/Bank.sol\":3866:3930  uint depositTotalTime = block.timestamp - depositTimeStamp[user] */\n      swap1\n      pop\n        /* \"contracts/Bank.sol\":3941:3963  uint interestPerSecond */\n      0x00\n        /* \"contracts/Bank.sol\":4000:4008  31668017 */\n      0x01e33731\n        /* \"contracts/Bank.sol\":3973:3990  clientsBalanceBNB */\n      0x01\n        /* \"contracts/Bank.sol\":3973:3996  clientsBalanceBNB[user] */\n      0x00\n        /* \"contracts/Bank.sol\":3991:3995  user */\n      dup7\n        /* \"contracts/Bank.sol\":3973:3996  clientsBalanceBNB[user] */\n      0xffffffffffffffffffffffffffffffffffffffff\n      and\n      0xffffffffffffffffffffffffffffffffffffffff\n      and\n      dup2\n      mstore\n      0x20\n      add\n      swap1\n      dup2\n      mstore\n      0x20\n      add\n      0x00\n      keccak256\n      sload\n        /* \"contracts/Bank.sol\":3967:3970  100 */\n      0x64\n        /* \"contracts/Bank.sol\":3967:3996  100 * clientsBalanceBNB[user] */\n      tag_146\n      swap2\n      swap1\n      tag_147\n      jump\t// in\n    tag_146:\n        /* \"contracts/Bank.sol\":3966:4008  (100 * clientsBalanceBNB[user]) / 31668017 */\n      tag_148\n      swap2\n      swap1\n      tag_149\n      jump\t// in\n    tag_148:\n        /* \"contracts/Bank.sol\":3941:4008  uint interestPerSecond = (100 * clientsBalanceBNB[user]) / 31668017 */\n      swap1\n      pop\n        /* \"contracts/Bank.sol\":4019:4032  uint interest */\n      0x00\n        /* \"contracts/Bank.sol\":4055:4071  depositTotalTime */\n      dup3\n        /* \"contracts/Bank.sol\":4035:4052  interestPerSecond */\n      dup3\n        /* \"contracts/Bank.sol\":4035:4071  interestPerSecond * depositTotalTime */\n      tag_150\n      swap2\n      swap1\n      tag_147\n      jump\t// in\n    tag_150:\n        /* \"contracts/Bank.sol\":4019:4071  uint interest = interestPerSecond * depositTotalTime */\n      swap1\n      pop\n        /* \"contracts/Bank.sol\":4091:4099  interest */\n      dup1\n        /* \"contracts/Bank.sol\":4084:4099  return interest */\n      swap4\n      pop\n      pop\n      pop\n      pop\n        /* \"contracts/Bank.sol\":3714:4107  function _calculateInterest(address user) private view returns (uint) {... */\n      swap2\n      swap1\n      pop\n      jump\t// out\n        /* \"contracts/Bank.sol\":4113:4438  function _calculateSpecialInterest(address user) internal view returns (uint) {... */\n    tag_111:\n        /* \"contracts/Bank.sol\":4185:4189  uint */\n      0x00\n        /* \"contracts/Bank.sol\":4202:4223  uint depositTotalTime */\n      dup1\n        /* \"contracts/Bank.sol\":4244:4267  specialDepositTimeStamp */\n      0x04\n        /* \"contracts/Bank.sol\":4244:4273  specialDepositTimeStamp[user] */\n      0x00\n        /* \"contracts/Bank.sol\":4268:4272  user */\n      dup5\n        /* \"contracts/Bank.sol\":4244:4273  specialDepositTimeStamp[user] */\n      0xffffffffffffffffffffffffffffffffffffffff\n      and\n      0xffffffffffffffffffffffffffffffffffffffff\n      and\n      dup2\n      mstore\n      0x20\n      add\n      swap1\n      dup2\n      mstore\n      0x20\n      add\n      0x00\n      keccak256\n      sload\n        /* \"contracts/Bank.sol\":4226:4241  block.timestamp */\n      timestamp\n        /* \"contracts/Bank.sol\":4226:4273  block.timestamp - specialDepositTimeStamp[user] */\n      tag_152\n      swap2\n      swap1\n      tag_99\n      jump\t// in\n    tag_152:\n        /* \"contracts/Bank.sol\":4202:4273  uint depositTotalTime = block.timestamp - specialDepositTimeStamp[user] */\n      swap1\n      pop\n        /* \"contracts/Bank.sol\":4284:4306  uint interestPerSecond */\n      0x00\n        /* \"contracts/Bank.sol\":4350:4358  31668017 */\n      0x01e33731\n        /* \"contracts/Bank.sol\":4316:4340  specialClientsBalanceBNB */\n      0x02\n        /* \"contracts/Bank.sol\":4316:4346  specialClientsBalanceBNB[user] */\n      0x00\n        /* \"contracts/Bank.sol\":4341:4345  user */\n      dup7\n        /* \"contracts/Bank.sol\":4316:4346  specialClientsBalanceBNB[user] */\n      0xffffffffffffffffffffffffffffffffffffffff\n      and\n      0xffffffffffffffffffffffffffffffffffffffff\n      and\n      dup2\n      mstore\n      0x20\n      add\n      swap1\n      dup2\n      mstore\n      0x20\n      add\n      0x00\n      keccak256\n      sload\n        /* \"contracts/Bank.sol\":4310:4313  200 */\n      0xc8\n        /* \"contracts/Bank.sol\":4310:4346  200 * specialClientsBalanceBNB[user] */\n      tag_153\n      swap2\n      swap1\n      tag_147\n      jump\t// in\n    tag_153:\n        /* \"contracts/Bank.sol\":4309:4358  (200 * specialClientsBalanceBNB[user]) / 31668017 */\n      tag_154\n      swap2\n      swap1\n      tag_149\n      jump\t// in\n    tag_154:\n        /* \"contracts/Bank.sol\":4284:4358  uint interestPerSecond = (200 * specialClientsBalanceBNB[user]) / 31668017 */\n      swap1\n      pop\n        /* \"contracts/Bank.sol\":4414:4430  depositTotalTime */\n      dup2\n        /* \"contracts/Bank.sol\":4394:4411  interestPerSecond */\n      dup2\n        /* \"contracts/Bank.sol\":4394:4430  interestPerSecond * depositTotalTime */\n      tag_155\n      swap2\n      swap1\n      tag_147\n      jump\t// in\n    tag_155:\n        /* \"contracts/Bank.sol\":4387:4430  return interestPerSecond * depositTotalTime */\n      swap3\n      pop\n      pop\n      pop\n        /* \"contracts/Bank.sol\":4113:4438  function _calculateSpecialInterest(address user) internal view returns (uint) {... */\n      swap2\n      swap1\n      pop\n      jump\t// out\n        /* \"#utility.yul\":7:84   */\n    tag_156:\n        /* \"#utility.yul\":44:51   */\n      0x00\n        /* \"#utility.yul\":73:78   */\n      dup2\n        /* \"#utility.yul\":62:78   */\n      swap1\n      pop\n        /* \"#utility.yul\":7:84   */\n      swap2\n      swap1\n      pop\n      jump\t// out\n        /* \"#utility.yul\":90:208   */\n    tag_157:\n        /* \"#utility.yul\":177:201   */\n      tag_188\n        /* \"#utility.yul\":195:200   */\n      dup2\n        /* \"#utility.yul\":177:201   */\n      tag_156\n      jump\t// in\n    tag_188:\n        /* \"#utility.yul\":172:175   */\n      dup3\n        /* \"#utility.yul\":165:202   */\n      mstore\n        /* \"#utility.yul\":90:208   */\n      pop\n      pop\n      jump\t// out\n        /* \"#utility.yul\":214:436   */\n    tag_25:\n        /* \"#utility.yul\":307:311   */\n      0x00\n        /* \"#utility.yul\":345:347   */\n      0x20\n        /* \"#utility.yul\":334:343   */\n      dup3\n        /* \"#utility.yul\":330:348   */\n      add\n        /* \"#utility.yul\":322:348   */\n      swap1\n      pop\n        /* \"#utility.yul\":358:429   */\n      tag_190\n        /* \"#utility.yul\":426:427   */\n      0x00\n        /* \"#utility.yul\":415:424   */\n      dup4\n        /* \"#utility.yul\":411:428   */\n      add\n        /* \"#utility.yul\":402:408   */\n      dup5\n        /* \"#utility.yul\":358:429   */\n      tag_157\n      jump\t// in\n    tag_190:\n        /* \"#utility.yul\":214:436   */\n      swap3\n      swap2\n      pop\n      pop\n      jump\t// out\n        /* \"#utility.yul\":523:640   */\n    tag_159:\n        /* \"#utility.yul\":632:633   */\n      0x00\n        /* \"#utility.yul\":629:630   */\n      dup1\n        /* \"#utility.yul\":622:634   */\n      revert\n        /* \"#utility.yul\":769:895   */\n    tag_161:\n        /* \"#utility.yul\":806:813   */\n      0x00\n        /* \"#utility.yul\":846:888   */\n      0xffffffffffffffffffffffffffffffffffffffff\n        /* \"#utility.yul\":839:844   */\n      dup3\n        /* \"#utility.yul\":835:889   */\n      and\n        /* \"#utility.yul\":824:889   */\n      swap1\n      pop\n        /* \"#utility.yul\":769:895   */\n      swap2\n      swap1\n      pop\n      jump\t// out\n        /* \"#utility.yul\":901:997   */\n    tag_162:\n        /* \"#utility.yul\":938:945   */\n      0x00\n        /* \"#utility.yul\":967:991   */\n      tag_196\n        /* \"#utility.yul\":985:990   */\n      dup3\n        /* \"#utility.yul\":967:991   */\n      tag_161\n      jump\t// in\n    tag_196:\n        /* \"#utility.yul\":956:991   */\n      swap1\n      pop\n        /* \"#utility.yul\":901:997   */\n      swap2\n      swap1\n      pop\n      jump\t// out\n        /* \"#utility.yul\":1003:1125   */\n    tag_163:\n        /* \"#utility.yul\":1076:1100   */\n      tag_198\n        /* \"#utility.yul\":1094:1099   */\n      dup2\n        /* \"#utility.yul\":1076:1100   */\n      tag_162\n      jump\t// in\n    tag_198:\n        /* \"#utility.yul\":1069:1074   */\n      dup2\n        /* \"#utility.yul\":1066:1101   */\n      eq\n        /* \"#utility.yul\":1056:1119   */\n      tag_199\n      jumpi\n        /* \"#utility.yul\":1115:1116   */\n      0x00\n        /* \"#utility.yul\":1112:1113   */\n      dup1\n        /* \"#utility.yul\":1105:1117   */\n      revert\n        /* \"#utility.yul\":1056:1119   */\n    tag_199:\n        /* \"#utility.yul\":1003:1125   */\n      pop\n      jump\t// out\n        /* \"#utility.yul\":1131:1270   */\n    tag_164:\n        /* \"#utility.yul\":1177:1182   */\n      0x00\n        /* \"#utility.yul\":1215:1221   */\n      dup2\n        /* \"#utility.yul\":1202:1222   */\n      calldataload\n        /* \"#utility.yul\":1193:1222   */\n      swap1\n      pop\n        /* \"#utility.yul\":1231:1264   */\n      tag_201\n        /* \"#utility.yul\":1258:1263   */\n      dup2\n        /* \"#utility.yul\":1231:1264   */\n      tag_163\n      jump\t// in\n    tag_201:\n        /* \"#utility.yul\":1131:1270   */\n      swap3\n      swap2\n      pop\n      pop\n      jump\t// out\n        /* \"#utility.yul\":1276:1605   */\n    tag_33:\n        /* \"#utility.yul\":1335:1341   */\n      0x00\n        /* \"#utility.yul\":1384:1386   */\n      0x20\n        /* \"#utility.yul\":1372:1381   */\n      dup3\n        /* \"#utility.yul\":1363:1370   */\n      dup5\n        /* \"#utility.yul\":1359:1382   */\n      sub\n        /* \"#utility.yul\":1355:1387   */\n      slt\n        /* \"#utility.yul\":1352:1471   */\n      iszero\n      tag_203\n      jumpi\n        /* \"#utility.yul\":1390:1469   */\n      tag_204\n      tag_159\n      jump\t// in\n    tag_204:\n        /* \"#utility.yul\":1352:1471   */\n    tag_203:\n        /* \"#utility.yul\":1510:1511   */\n      0x00\n        /* \"#utility.yul\":1535:1588   */\n      tag_205\n        /* \"#utility.yul\":1580:1587   */\n      dup5\n        /* \"#utility.yul\":1571:1577   */\n      dup3\n        /* \"#utility.yul\":1560:1569   */\n      dup6\n        /* \"#utility.yul\":1556:1578   */\n      add\n        /* \"#utility.yul\":1535:1588   */\n      tag_164\n      jump\t// in\n    tag_205:\n        /* \"#utility.yul\":1525:1588   */\n      swap2\n      pop\n        /* \"#utility.yul\":1481:1598   */\n      pop\n        /* \"#utility.yul\":1276:1605   */\n      swap3\n      swap2\n      pop\n      pop\n      jump\t// out\n        /* \"#utility.yul\":1611:1701   */\n    tag_165:\n        /* \"#utility.yul\":1645:1652   */\n      0x00\n        /* \"#utility.yul\":1688:1693   */\n      dup2\n        /* \"#utility.yul\":1681:1694   */\n      iszero\n        /* \"#utility.yul\":1674:1695   */\n      iszero\n        /* \"#utility.yul\":1663:1695   */\n      swap1\n      pop\n        /* \"#utility.yul\":1611:1701   */\n      swap2\n      swap1\n      pop\n      jump\t// out\n        /* \"#utility.yul\":1707:1816   */\n    tag_166:\n        /* \"#utility.yul\":1788:1809   */\n      tag_208\n        /* \"#utility.yul\":1803:1808   */\n      dup2\n        /* \"#utility.yul\":1788:1809   */\n      tag_165\n      jump\t// in\n    tag_208:\n        /* \"#utility.yul\":1783:1786   */\n      dup3\n        /* \"#utility.yul\":1776:1810   */\n      mstore\n        /* \"#utility.yul\":1707:1816   */\n      pop\n      pop\n      jump\t// out\n        /* \"#utility.yul\":1822:2032   */\n    tag_48:\n        /* \"#utility.yul\":1909:1913   */\n      0x00\n        /* \"#utility.yul\":1947:1949   */\n      0x20\n        /* \"#utility.yul\":1936:1945   */\n      dup3\n        /* \"#utility.yul\":1932:1950   */\n      add\n        /* \"#utility.yul\":1924:1950   */\n      swap1\n      pop\n        /* \"#utility.yul\":1960:2025   */\n      tag_210\n        /* \"#utility.yul\":2022:2023   */\n      0x00\n        /* \"#utility.yul\":2011:2020   */\n      dup4\n        /* \"#utility.yul\":2007:2024   */\n      add\n        /* \"#utility.yul\":1998:2004   */\n      dup5\n        /* \"#utility.yul\":1960:2025   */\n      tag_166\n      jump\t// in\n    tag_210:\n        /* \"#utility.yul\":1822:2032   */\n      swap3\n      swap2\n      pop\n      pop\n      jump\t// out\n        /* \"#utility.yul\":2038:2142   */\n    tag_167:\n        /* \"#utility.yul\":2083:2090   */\n      0x00\n        /* \"#utility.yul\":2112:2136   */\n      tag_212\n        /* \"#utility.yul\":2130:2135   */\n      dup3\n        /* \"#utility.yul\":2112:2136   */\n      tag_161\n      jump\t// in\n    tag_212:\n        /* \"#utility.yul\":2101:2136   */\n      swap1\n      pop\n        /* \"#utility.yul\":2038:2142   */\n      swap2\n      swap1\n      pop\n      jump\t// out\n        /* \"#utility.yul\":2148:2290   */\n    tag_168:\n        /* \"#utility.yul\":2251:2283   */\n      tag_214\n        /* \"#utility.yul\":2277:2282   */\n      dup2\n        /* \"#utility.yul\":2251:2283   */\n      tag_167\n      jump\t// in\n    tag_214:\n        /* \"#utility.yul\":2246:2249   */\n      dup3\n        /* \"#utility.yul\":2239:2284   */\n      mstore\n        /* \"#utility.yul\":2148:2290   */\n      pop\n      pop\n      jump\t// out\n        /* \"#utility.yul\":2296:2550   */\n    tag_66:\n        /* \"#utility.yul\":2405:2409   */\n      0x00\n        /* \"#utility.yul\":2443:2445   */\n      0x20\n        /* \"#utility.yul\":2432:2441   */\n      dup3\n        /* \"#utility.yul\":2428:2446   */\n      add\n        /* \"#utility.yul\":2420:2446   */\n      swap1\n      pop\n        /* \"#utility.yul\":2456:2543   */\n      tag_216\n        /* \"#utility.yul\":2540:2541   */\n      0x00\n        /* \"#utility.yul\":2529:2538   */\n      dup4\n        /* \"#utility.yul\":2525:2542   */\n      add\n        /* \"#utility.yul\":2516:2522   */\n      dup5\n        /* \"#utility.yul\":2456:2543   */\n      tag_168\n      jump\t// in\n    tag_216:\n        /* \"#utility.yul\":2296:2550   */\n      swap3\n      swap2\n      pop\n      pop\n      jump\t// out\n        /* \"#utility.yul\":2556:2725   */\n    tag_169:\n        /* \"#utility.yul\":2640:2651   */\n      0x00\n        /* \"#utility.yul\":2674:2680   */\n      dup3\n        /* \"#utility.yul\":2669:2672   */\n      dup3\n        /* \"#utility.yul\":2662:2681   */\n      mstore\n        /* \"#utility.yul\":2714:2718   */\n      0x20\n        /* \"#utility.yul\":2709:2712   */\n      dup3\n        /* \"#utility.yul\":2705:2719   */\n      add\n        /* \"#utility.yul\":2690:2719   */\n      swap1\n      pop\n        /* \"#utility.yul\":2556:2725   */\n      swap3\n      swap2\n      pop\n      pop\n      jump\t// out\n        /* \"#utility.yul\":2731:2907   */\n    tag_170:\n        /* \"#utility.yul\":2871:2899   */\n      0x4572726f722c206e6f2070726576696f7573206465706f736974000000000000\n        /* \"#utility.yul\":2867:2868   */\n      0x00\n        /* \"#utility.yul\":2859:2865   */\n      dup3\n        /* \"#utility.yul\":2855:2869   */\n      add\n        /* \"#utility.yul\":2848:2900   */\n      mstore\n        /* \"#utility.yul\":2731:2907   */\n      pop\n      jump\t// out\n        /* \"#utility.yul\":2913:3279   */\n    tag_171:\n        /* \"#utility.yul\":3055:3058   */\n      0x00\n        /* \"#utility.yul\":3076:3143   */\n      tag_220\n        /* \"#utility.yul\":3140:3142   */\n      0x1a\n        /* \"#utility.yul\":3135:3138   */\n      dup4\n        /* \"#utility.yul\":3076:3143   */\n      tag_169\n      jump\t// in\n    tag_220:\n        /* \"#utility.yul\":3069:3143   */\n      swap2\n      pop\n        /* \"#utility.yul\":3152:3245   */\n      tag_221\n        /* \"#utility.yul\":3241:3244   */\n      dup3\n        /* \"#utility.yul\":3152:3245   */\n      tag_170\n      jump\t// in\n    tag_221:\n        /* \"#utility.yul\":3270:3272   */\n      0x20\n        /* \"#utility.yul\":3265:3268   */\n      dup3\n        /* \"#utility.yul\":3261:3273   */\n      add\n        /* \"#utility.yul\":3254:3273   */\n      swap1\n      pop\n        /* \"#utility.yul\":2913:3279   */\n      swap2\n      swap1\n      pop\n      jump\t// out\n        /* \"#utility.yul\":3285:3704   */\n    tag_92:\n        /* \"#utility.yul\":3451:3455   */\n      0x00\n        /* \"#utility.yul\":3489:3491   */\n      0x20\n        /* \"#utility.yul\":3478:3487   */\n      dup3\n        /* \"#utility.yul\":3474:3492   */\n      add\n        /* \"#utility.yul\":3466:3492   */\n      swap1\n      pop\n        /* \"#utility.yul\":3538:3547   */\n      dup2\n        /* \"#utility.yul\":3532:3536   */\n      dup2\n        /* \"#utility.yul\":3528:3548   */\n      sub\n        /* \"#utility.yul\":3524:3525   */\n      0x00\n        /* \"#utility.yul\":3513:3522   */\n      dup4\n        /* \"#utility.yul\":3509:3526   */\n      add\n        /* \"#utility.yul\":3502:3549   */\n      mstore\n        /* \"#utility.yul\":3566:3697   */\n      tag_223\n        /* \"#utility.yul\":3692:3696   */\n      dup2\n        /* \"#utility.yul\":3566:3697   */\n      tag_171\n      jump\t// in\n    tag_223:\n        /* \"#utility.yul\":3558:3697   */\n      swap1\n      pop\n        /* \"#utility.yul\":3285:3704   */\n      swap2\n      swap1\n      pop\n      jump\t// out\n        /* \"#utility.yul\":3710:3949   */\n    tag_172:\n        /* \"#utility.yul\":3850:3884   */\n      0x5365206465626520656e7669617220616c206d656e6f7320302e303520424e42\n        /* \"#utility.yul\":3846:3847   */\n      0x00\n        /* \"#utility.yul\":3838:3844   */\n      dup3\n        /* \"#utility.yul\":3834:3848   */\n      add\n        /* \"#utility.yul\":3827:3885   */\n      mstore\n        /* \"#utility.yul\":3919:3941   */\n      0x20636f6d6f20746173612064652072657469726f000000000000000000000000\n        /* \"#utility.yul\":3914:3916   */\n      0x20\n        /* \"#utility.yul\":3906:3912   */\n      dup3\n        /* \"#utility.yul\":3902:3917   */\n      add\n        /* \"#utility.yul\":3895:3942   */\n      mstore\n        /* \"#utility.yul\":3710:3949   */\n      pop\n      jump\t// out\n        /* \"#utility.yul\":3955:4321   */\n    tag_173:\n        /* \"#utility.yul\":4097:4100   */\n      0x00\n        /* \"#utility.yul\":4118:4185   */\n      tag_226\n        /* \"#utility.yul\":4182:4184   */\n      0x34\n        /* \"#utility.yul\":4177:4180   */\n      dup4\n        /* \"#utility.yul\":4118:4185   */\n      tag_169\n      jump\t// in\n    tag_226:\n        /* \"#utility.yul\":4111:4185   */\n      swap2\n      pop\n        /* \"#utility.yul\":4194:4287   */\n      tag_227\n        /* \"#utility.yul\":4283:4286   */\n      dup3\n        /* \"#utility.yul\":4194:4287   */\n      tag_172\n      jump\t// in\n    tag_227:\n        /* \"#utility.yul\":4312:4314   */\n      0x40\n        /* \"#utility.yul\":4307:4310   */\n      dup3\n        /* \"#utility.yul\":4303:4315   */\n      add\n        /* \"#utility.yul\":4296:4315   */\n      swap1\n      pop\n        /* \"#utility.yul\":3955:4321   */\n      swap2\n      swap1\n      pop\n      jump\t// out\n        /* \"#utility.yul\":4327:4746   */\n    tag_95:\n        /* \"#utility.yul\":4493:4497   */\n      0x00\n        /* \"#utility.yul\":4531:4533   */\n      0x20\n        /* \"#utility.yul\":4520:4529   */\n      dup3\n        /* \"#utility.yul\":4516:4534   */\n      add\n        /* \"#utility.yul\":4508:4534   */\n      swap1\n      pop\n        /* \"#utility.yul\":4580:4589   */\n      dup2\n        /* \"#utility.yul\":4574:4578   */\n      dup2\n        /* \"#utility.yul\":4570:4590   */\n      sub\n        /* \"#utility.yul\":4566:4567   */\n      0x00\n        /* \"#utility.yul\":4555:4564   */\n      dup4\n        /* \"#utility.yul\":4551:4568   */\n      add\n        /* \"#utility.yul\":4544:4591   */\n      mstore\n        /* \"#utility.yul\":4608:4739   */\n      tag_229\n        /* \"#utility.yul\":4734:4738   */\n      dup2\n        /* \"#utility.yul\":4608:4739   */\n      tag_173\n      jump\t// in\n    tag_229:\n        /* \"#utility.yul\":4600:4739   */\n      swap1\n      pop\n        /* \"#utility.yul\":4327:4746   */\n      swap2\n      swap1\n      pop\n      jump\t// out\n        /* \"#utility.yul\":4752:4932   */\n    tag_174:\n        /* \"#utility.yul\":4800:4877   */\n      0x4e487b7100000000000000000000000000000000000000000000000000000000\n        /* \"#utility.yul\":4797:4798   */\n      0x00\n        /* \"#utility.yul\":4790:4878   */\n      mstore\n        /* \"#utility.yul\":4897:4901   */\n      0x11\n        /* \"#utility.yul\":4894:4895   */\n      0x04\n        /* \"#utility.yul\":4887:4902   */\n      mstore\n        /* \"#utility.yul\":4921:4925   */\n      0x24\n        /* \"#utility.yul\":4918:4919   */\n      0x00\n        /* \"#utility.yul\":4911:4926   */\n      revert\n        /* \"#utility.yul\":4938:5132   */\n    tag_99:\n        /* \"#utility.yul\":4978:4982   */\n      0x00\n        /* \"#utility.yul\":4998:5018   */\n      tag_232\n        /* \"#utility.yul\":5016:5017   */\n      dup3\n        /* \"#utility.yul\":4998:5018   */\n      tag_156\n      jump\t// in\n    tag_232:\n        /* \"#utility.yul\":4993:5018   */\n      swap2\n      pop\n        /* \"#utility.yul\":5032:5052   */\n      tag_233\n        /* \"#utility.yul\":5050:5051   */\n      dup4\n        /* \"#utility.yul\":5032:5052   */\n      tag_156\n      jump\t// in\n    tag_233:\n        /* \"#utility.yul\":5027:5052   */\n      swap3\n      pop\n        /* \"#utility.yul\":5076:5077   */\n      dup3\n        /* \"#utility.yul\":5073:5074   */\n      dup3\n        /* \"#utility.yul\":5069:5078   */\n      sub\n        /* \"#utility.yul\":5061:5078   */\n      swap1\n      pop\n        /* \"#utility.yul\":5100:5101   */\n      dup2\n        /* \"#utility.yul\":5094:5098   */\n      dup2\n        /* \"#utility.yul\":5091:5102   */\n      gt\n        /* \"#utility.yul\":5088:5125   */\n      iszero\n      tag_234\n      jumpi\n        /* \"#utility.yul\":5105:5123   */\n      tag_235\n      tag_174\n      jump\t// in\n    tag_235:\n        /* \"#utility.yul\":5088:5125   */\n    tag_234:\n        /* \"#utility.yul\":4938:5132   */\n      swap3\n      swap2\n      pop\n      pop\n      jump\t// out\n        /* \"#utility.yul\":5138:5256   */\n    tag_175:\n        /* \"#utility.yul\":5225:5249   */\n      tag_237\n        /* \"#utility.yul\":5243:5248   */\n      dup2\n        /* \"#utility.yul\":5225:5249   */\n      tag_162\n      jump\t// in\n    tag_237:\n        /* \"#utility.yul\":5220:5223   */\n      dup3\n        /* \"#utility.yul\":5213:5250   */\n      mstore\n        /* \"#utility.yul\":5138:5256   */\n      pop\n      pop\n      jump\t// out\n        /* \"#utility.yul\":5262:5594   */\n    tag_103:\n        /* \"#utility.yul\":5383:5387   */\n      0x00\n        /* \"#utility.yul\":5421:5423   */\n      0x40\n        /* \"#utility.yul\":5410:5419   */\n      dup3\n        /* \"#utility.yul\":5406:5424   */\n      add\n        /* \"#utility.yul\":5398:5424   */\n      swap1\n      pop\n        /* \"#utility.yul\":5434:5505   */\n      tag_239\n        /* \"#utility.yul\":5502:5503   */\n      0x00\n        /* \"#utility.yul\":5491:5500   */\n      dup4\n        /* \"#utility.yul\":5487:5504   */\n      add\n        /* \"#utility.yul\":5478:5484   */\n      dup6\n        /* \"#utility.yul\":5434:5505   */\n      tag_175\n      jump\t// in\n    tag_239:\n        /* \"#utility.yul\":5515:5587   */\n      tag_240\n        /* \"#utility.yul\":5583:5585   */\n      0x20\n        /* \"#utility.yul\":5572:5581   */\n      dup4\n        /* \"#utility.yul\":5568:5586   */\n      add\n        /* \"#utility.yul\":5559:5565   */\n      dup5\n        /* \"#utility.yul\":5515:5587   */\n      tag_157\n      jump\t// in\n    tag_240:\n        /* \"#utility.yul\":5262:5594   */\n      swap4\n      swap3\n      pop\n      pop\n      pop\n      jump\t// out\n        /* \"#utility.yul\":5600:5829   */\n    tag_176:\n        /* \"#utility.yul\":5740:5774   */\n      0x456c206d6f6e746f2064656c206465706f7369746f206465626520736572206d\n        /* \"#utility.yul\":5736:5737   */\n      0x00\n        /* \"#utility.yul\":5728:5734   */\n      dup3\n        /* \"#utility.yul\":5724:5738   */\n      add\n        /* \"#utility.yul\":5717:5775   */\n      mstore\n        /* \"#utility.yul\":5809:5821   */\n      0x61796f7220717565203000000000000000000000000000000000000000000000\n        /* \"#utility.yul\":5804:5806   */\n      0x20\n        /* \"#utility.yul\":5796:5802   */\n      dup3\n        /* \"#utility.yul\":5792:5807   */\n      add\n        /* \"#utility.yul\":5785:5822   */\n      mstore\n        /* \"#utility.yul\":5600:5829   */\n      pop\n      jump\t// out\n        /* \"#utility.yul\":5835:6201   */\n    tag_177:\n        /* \"#utility.yul\":5977:5980   */\n      0x00\n        /* \"#utility.yul\":5998:6065   */\n      tag_243\n        /* \"#utility.yul\":6062:6064   */\n      0x2a\n        /* \"#utility.yul\":6057:6060   */\n      dup4\n        /* \"#utility.yul\":5998:6065   */\n      tag_169\n      jump\t// in\n    tag_243:\n        /* \"#utility.yul\":5991:6065   */\n      swap2\n      pop\n        /* \"#utility.yul\":6074:6167   */\n      tag_244\n        /* \"#utility.yul\":6163:6166   */\n      dup3\n        /* \"#utility.yul\":6074:6167   */\n      tag_176\n      jump\t// in\n    tag_244:\n        /* \"#utility.yul\":6192:6194   */\n      0x40\n        /* \"#utility.yul\":6187:6190   */\n      dup3\n        /* \"#utility.yul\":6183:6195   */\n      add\n        /* \"#utility.yul\":6176:6195   */\n      swap1\n      pop\n        /* \"#utility.yul\":5835:6201   */\n      swap2\n      swap1\n      pop\n      jump\t// out\n        /* \"#utility.yul\":6207:6626   */\n    tag_115:\n        /* \"#utility.yul\":6373:6377   */\n      0x00\n        /* \"#utility.yul\":6411:6413   */\n      0x20\n        /* \"#utility.yul\":6400:6409   */\n      dup3\n        /* \"#utility.yul\":6396:6414   */\n      add\n        /* \"#utility.yul\":6388:6414   */\n      swap1\n      pop\n        /* \"#utility.yul\":6460:6469   */\n      dup2\n        /* \"#utility.yul\":6454:6458   */\n      dup2\n        /* \"#utility.yul\":6450:6470   */\n      sub\n        /* \"#utility.yul\":6446:6447   */\n      0x00\n        /* \"#utility.yul\":6435:6444   */\n      dup4\n        /* \"#utility.yul\":6431:6448   */\n      add\n        /* \"#utility.yul\":6424:6471   */\n      mstore\n        /* \"#utility.yul\":6488:6619   */\n      tag_246\n        /* \"#utility.yul\":6614:6618   */\n      dup2\n        /* \"#utility.yul\":6488:6619   */\n      tag_177\n      jump\t// in\n    tag_246:\n        /* \"#utility.yul\":6480:6619   */\n      swap1\n      pop\n        /* \"#utility.yul\":6207:6626   */\n      swap2\n      swap1\n      pop\n      jump\t// out\n        /* \"#utility.yul\":6632:6823   */\n    tag_117:\n        /* \"#utility.yul\":6672:6675   */\n      0x00\n        /* \"#utility.yul\":6691:6711   */\n      tag_248\n        /* \"#utility.yul\":6709:6710   */\n      dup3\n        /* \"#utility.yul\":6691:6711   */\n      tag_156\n      jump\t// in\n    tag_248:\n        /* \"#utility.yul\":6686:6711   */\n      swap2\n      pop\n        /* \"#utility.yul\":6725:6745   */\n      tag_249\n        /* \"#utility.yul\":6743:6744   */\n      dup4\n        /* \"#utility.yul\":6725:6745   */\n      tag_156\n      jump\t// in\n    tag_249:\n        /* \"#utility.yul\":6720:6745   */\n      swap3\n      pop\n        /* \"#utility.yul\":6768:6769   */\n      dup3\n        /* \"#utility.yul\":6765:6766   */\n      dup3\n        /* \"#utility.yul\":6761:6770   */\n      add\n        /* \"#utility.yul\":6754:6770   */\n      swap1\n      pop\n        /* \"#utility.yul\":6789:6792   */\n      dup1\n        /* \"#utility.yul\":6786:6787   */\n      dup3\n        /* \"#utility.yul\":6783:6793   */\n      gt\n        /* \"#utility.yul\":6780:6816   */\n      iszero\n      tag_250\n      jumpi\n        /* \"#utility.yul\":6796:6814   */\n      tag_251\n      tag_174\n      jump\t// in\n    tag_251:\n        /* \"#utility.yul\":6780:6816   */\n    tag_250:\n        /* \"#utility.yul\":6632:6823   */\n      swap3\n      swap2\n      pop\n      pop\n      jump\t// out\n        /* \"#utility.yul\":6829:7053   */\n    tag_178:\n        /* \"#utility.yul\":6969:7003   */\n      0x4e6f207469656e657320756e206465706f7369746f20657370656369616c2061\n        /* \"#utility.yul\":6965:6966   */\n      0x00\n        /* \"#utility.yul\":6957:6963   */\n      dup3\n        /* \"#utility.yul\":6953:6967   */\n      add\n        /* \"#utility.yul\":6946:7004   */\n      mstore\n        /* \"#utility.yul\":7038:7045   */\n      0x637469766f000000000000000000000000000000000000000000000000000000\n        /* \"#utility.yul\":7033:7035   */\n      0x20\n        /* \"#utility.yul\":7025:7031   */\n      dup3\n        /* \"#utility.yul\":7021:7036   */\n      add\n        /* \"#utility.yul\":7014:7046   */\n      mstore\n        /* \"#utility.yul\":6829:7053   */\n      pop\n      jump\t// out\n        /* \"#utility.yul\":7059:7425   */\n    tag_179:\n        /* \"#utility.yul\":7201:7204   */\n      0x00\n        /* \"#utility.yul\":7222:7289   */\n      tag_254\n        /* \"#utility.yul\":7286:7288   */\n      0x25\n        /* \"#utility.yul\":7281:7284   */\n      dup4\n        /* \"#utility.yul\":7222:7289   */\n      tag_169\n      jump\t// in\n    tag_254:\n        /* \"#utility.yul\":7215:7289   */\n      swap2\n      pop\n        /* \"#utility.yul\":7298:7391   */\n      tag_255\n        /* \"#utility.yul\":7387:7390   */\n      dup3\n        /* \"#utility.yul\":7298:7391   */\n      tag_178\n      jump\t// in\n    tag_255:\n        /* \"#utility.yul\":7416:7418   */\n      0x40\n        /* \"#utility.yul\":7411:7414   */\n      dup3\n        /* \"#utility.yul\":7407:7419   */\n      add\n        /* \"#utility.yul\":7400:7419   */\n      swap1\n      pop\n        /* \"#utility.yul\":7059:7425   */\n      swap2\n      swap1\n      pop\n      jump\t// out\n        /* \"#utility.yul\":7431:7850   */\n    tag_125:\n        /* \"#utility.yul\":7597:7601   */\n      0x00\n        /* \"#utility.yul\":7635:7637   */\n      0x20\n        /* \"#utility.yul\":7624:7633   */\n      dup3\n        /* \"#utility.yul\":7620:7638   */\n      add\n        /* \"#utility.yul\":7612:7638   */\n      swap1\n      pop\n        /* \"#utility.yul\":7684:7693   */\n      dup2\n        /* \"#utility.yul\":7678:7682   */\n      dup2\n        /* \"#utility.yul\":7674:7694   */\n      sub\n        /* \"#utility.yul\":7670:7671   */\n      0x00\n        /* \"#utility.yul\":7659:7668   */\n      dup4\n        /* \"#utility.yul\":7655:7672   */\n      add\n        /* \"#utility.yul\":7648:7695   */\n      mstore\n        /* \"#utility.yul\":7712:7843   */\n      tag_257\n        /* \"#utility.yul\":7838:7842   */\n      dup2\n        /* \"#utility.yul\":7712:7843   */\n      tag_179\n      jump\t// in\n    tag_257:\n        /* \"#utility.yul\":7704:7843   */\n      swap1\n      pop\n        /* \"#utility.yul\":7431:7850   */\n      swap2\n      swap1\n      pop\n      jump\t// out\n        /* \"#utility.yul\":7856:8104   */\n    tag_180:\n        /* \"#utility.yul\":7996:8030   */\n      0x456c2072657469726f20657370656369616c20736f6c6f206573746120646973\n        /* \"#utility.yul\":7992:7993   */\n      0x00\n        /* \"#utility.yul\":7984:7990   */\n      dup3\n        /* \"#utility.yul\":7980:7994   */\n      add\n        /* \"#utility.yul\":7973:8031   */\n      mstore\n        /* \"#utility.yul\":8065:8096   */\n      0x706f6e69626c652064657370756573206465203130206d696e75746f73000000\n        /* \"#utility.yul\":8060:8062   */\n      0x20\n        /* \"#utility.yul\":8052:8058   */\n      dup3\n        /* \"#utility.yul\":8048:8063   */\n      add\n        /* \"#utility.yul\":8041:8097   */\n      mstore\n        /* \"#utility.yul\":7856:8104   */\n      pop\n      jump\t// out\n        /* \"#utility.yul\":8110:8476   */\n    tag_181:\n        /* \"#utility.yul\":8252:8255   */\n      0x00\n        /* \"#utility.yul\":8273:8340   */\n      tag_260\n        /* \"#utility.yul\":8337:8339   */\n      0x3d\n        /* \"#utility.yul\":8332:8335   */\n      dup4\n        /* \"#utility.yul\":8273:8340   */\n      tag_169\n      jump\t// in\n    tag_260:\n        /* \"#utility.yul\":8266:8340   */\n      swap2\n      pop\n        /* \"#utility.yul\":8349:8442   */\n      tag_261\n        /* \"#utility.yul\":8438:8441   */\n      dup3\n        /* \"#utility.yul\":8349:8442   */\n      tag_180\n      jump\t// in\n    tag_261:\n        /* \"#utility.yul\":8467:8469   */\n      0x40\n        /* \"#utility.yul\":8462:8465   */\n      dup3\n        /* \"#utility.yul\":8458:8470   */\n      add\n        /* \"#utility.yul\":8451:8470   */\n      swap1\n      pop\n        /* \"#utility.yul\":8110:8476   */\n      swap2\n      swap1\n      pop\n      jump\t// out\n        /* \"#utility.yul\":8482:8901   */\n    tag_129:\n        /* \"#utility.yul\":8648:8652   */\n      0x00\n        /* \"#utility.yul\":8686:8688   */\n      0x20\n        /* \"#utility.yul\":8675:8684   */\n      dup3\n        /* \"#utility.yul\":8671:8689   */\n      add\n        /* \"#utility.yul\":8663:8689   */\n      swap1\n      pop\n        /* \"#utility.yul\":8735:8744   */\n      dup2\n        /* \"#utility.yul\":8729:8733   */\n      dup2\n        /* \"#utility.yul\":8725:8745   */\n      sub\n        /* \"#utility.yul\":8721:8722   */\n      0x00\n        /* \"#utility.yul\":8710:8719   */\n      dup4\n        /* \"#utility.yul\":8706:8723   */\n      add\n        /* \"#utility.yul\":8699:8746   */\n      mstore\n        /* \"#utility.yul\":8763:8894   */\n      tag_263\n        /* \"#utility.yul\":8889:8893   */\n      dup2\n        /* \"#utility.yul\":8763:8894   */\n      tag_181\n      jump\t// in\n    tag_263:\n        /* \"#utility.yul\":8755:8894   */\n      swap1\n      pop\n        /* \"#utility.yul\":8482:8901   */\n      swap2\n      swap1\n      pop\n      jump\t// out\n        /* \"#utility.yul\":8907:9085   */\n    tag_182:\n        /* \"#utility.yul\":9047:9077   */\n      0x4e6f207469656e657320756e206465706f7369746f2061637469766f00000000\n        /* \"#utility.yul\":9043:9044   */\n      0x00\n        /* \"#utility.yul\":9035:9041   */\n      dup3\n        /* \"#utility.yul\":9031:9045   */\n      add\n        /* \"#utility.yul\":9024:9078   */\n      mstore\n        /* \"#utility.yul\":8907:9085   */\n      pop\n      jump\t// out\n        /* \"#utility.yul\":9091:9457   */\n    tag_183:\n        /* \"#utility.yul\":9233:9236   */\n      0x00\n        /* \"#utility.yul\":9254:9321   */\n      tag_266\n        /* \"#utility.yul\":9318:9320   */\n      0x1c\n        /* \"#utility.yul\":9313:9316   */\n      dup4\n        /* \"#utility.yul\":9254:9321   */\n      tag_169\n      jump\t// in\n    tag_266:\n        /* \"#utility.yul\":9247:9321   */\n      swap2\n      pop\n        /* \"#utility.yul\":9330:9423   */\n      tag_267\n        /* \"#utility.yul\":9419:9422   */\n      dup3\n        /* \"#utility.yul\":9330:9423   */\n      tag_182\n      jump\t// in\n    tag_267:\n        /* \"#utility.yul\":9448:9450   */\n      0x20\n        /* \"#utility.yul\":9443:9446   */\n      dup3\n        /* \"#utility.yul\":9439:9451   */\n      add\n        /* \"#utility.yul\":9432:9451   */\n      swap1\n      pop\n        /* \"#utility.yul\":9091:9457   */\n      swap2\n      swap1\n      pop\n      jump\t// out\n        /* \"#utility.yul\":9463:9882   */\n    tag_144:\n        /* \"#utility.yul\":9629:9633   */\n      0x00\n        /* \"#utility.yul\":9667:9669   */\n      0x20\n        /* \"#utility.yul\":9656:9665   */\n      dup3\n        /* \"#utility.yul\":9652:9670   */\n      add\n        /* \"#utility.yul\":9644:9670   */\n      swap1\n      pop\n        /* \"#utility.yul\":9716:9725   */\n      dup2\n        /* \"#utility.yul\":9710:9714   */\n      dup2\n        /* \"#utility.yul\":9706:9726   */\n      sub\n        /* \"#utility.yul\":9702:9703   */\n      0x00\n        /* \"#utility.yul\":9691:9700   */\n      dup4\n        /* \"#utility.yul\":9687:9704   */\n      add\n        /* \"#utility.yul\":9680:9727   */\n      mstore\n        /* \"#utility.yul\":9744:9875   */\n      tag_269\n        /* \"#utility.yul\":9870:9874   */\n      dup2\n        /* \"#utility.yul\":9744:9875   */\n      tag_183\n      jump\t// in\n    tag_269:\n        /* \"#utility.yul\":9736:9875   */\n      swap1\n      pop\n        /* \"#utility.yul\":9463:9882   */\n      swap2\n      swap1\n      pop\n      jump\t// out\n        /* \"#utility.yul\":9888:10298   */\n    tag_147:\n        /* \"#utility.yul\":9928:9935   */\n      0x00\n        /* \"#utility.yul\":9951:9971   */\n      tag_271\n        /* \"#utility.yul\":9969:9970   */\n      dup3\n        /* \"#utility.yul\":9951:9971   */\n      tag_156\n      jump\t// in\n    tag_271:\n        /* \"#utility.yul\":9946:9971   */\n      swap2\n      pop\n        /* \"#utility.yul\":9985:10005   */\n      tag_272\n        /* \"#utility.yul\":10003:10004   */\n      dup4\n        /* \"#utility.yul\":9985:10005   */\n      tag_156\n      jump\t// in\n    tag_272:\n        /* \"#utility.yul\":9980:10005   */\n      swap3\n      pop\n        /* \"#utility.yul\":10040:10041   */\n      dup3\n        /* \"#utility.yul\":10037:10038   */\n      dup3\n        /* \"#utility.yul\":10033:10042   */\n      mul\n        /* \"#utility.yul\":10062:10092   */\n      tag_273\n        /* \"#utility.yul\":10080:10091   */\n      dup2\n        /* \"#utility.yul\":10062:10092   */\n      tag_156\n      jump\t// in\n    tag_273:\n        /* \"#utility.yul\":10051:10092   */\n      swap2\n      pop\n        /* \"#utility.yul\":10241:10242   */\n      dup3\n        /* \"#utility.yul\":10232:10239   */\n      dup3\n        /* \"#utility.yul\":10228:10243   */\n      div\n        /* \"#utility.yul\":10225:10226   */\n      dup5\n        /* \"#utility.yul\":10222:10244   */\n      eq\n        /* \"#utility.yul\":10202:10203   */\n      dup4\n        /* \"#utility.yul\":10195:10204   */\n      iszero\n        /* \"#utility.yul\":10175:10258   */\n      or\n        /* \"#utility.yul\":10152:10291   */\n      tag_274\n      jumpi\n        /* \"#utility.yul\":10271:10289   */\n      tag_275\n      tag_174\n      jump\t// in\n    tag_275:\n        /* \"#utility.yul\":10152:10291   */\n    tag_274:\n        /* \"#utility.yul\":9936:10298   */\n      pop\n        /* \"#utility.yul\":9888:10298   */\n      swap3\n      swap2\n      pop\n      pop\n      jump\t// out\n        /* \"#utility.yul\":10304:10484   */\n    tag_184:\n        /* \"#utility.yul\":10352:10429   */\n      0x4e487b7100000000000000000000000000000000000000000000000000000000\n        /* \"#utility.yul\":10349:10350   */\n      0x00\n        /* \"#utility.yul\":10342:10430   */\n      mstore\n        /* \"#utility.yul\":10449:10453   */\n      0x12\n        /* \"#utility.yul\":10446:10447   */\n      0x04\n        /* \"#utility.yul\":10439:10454   */\n      mstore\n        /* \"#utility.yul\":10473:10477   */\n      0x24\n        /* \"#utility.yul\":10470:10471   */\n      0x00\n        /* \"#utility.yul\":10463:10478   */\n      revert\n        /* \"#utility.yul\":10490:10675   */\n    tag_149:\n        /* \"#utility.yul\":10530:10531   */\n      0x00\n        /* \"#utility.yul\":10547:10567   */\n      tag_278\n        /* \"#utility.yul\":10565:10566   */\n      dup3\n        /* \"#utility.yul\":10547:10567   */\n      tag_156\n      jump\t// in\n    tag_278:\n        /* \"#utility.yul\":10542:10567   */\n      swap2\n      pop\n        /* \"#utility.yul\":10581:10601   */\n      tag_279\n        /* \"#utility.yul\":10599:10600   */\n      dup4\n        /* \"#utility.yul\":10581:10601   */\n      tag_156\n      jump\t// in\n    tag_279:\n        /* \"#utility.yul\":10576:10601   */\n      swap3\n      pop\n        /* \"#utility.yul\":10620:10621   */\n      dup3\n        /* \"#utility.yul\":10610:10645   */\n      tag_280\n      jumpi\n        /* \"#utility.yul\":10625:10643   */\n      tag_281\n      tag_184\n      jump\t// in\n    tag_281:\n        /* \"#utility.yul\":10610:10645   */\n    tag_280:\n        /* \"#utility.yul\":10667:10668   */\n      dup3\n        /* \"#utility.yul\":10664:10665   */\n      dup3\n        /* \"#utility.yul\":10660:10669   */\n      div\n        /* \"#utility.yul\":10655:10669   */\n      swap1\n      pop\n        /* \"#utility.yul\":10490:10675   */\n      swap3\n      swap2\n      pop\n      pop\n      jump\t// out\n\n    auxdata: 0xa2646970667358221220da1e2eb5e02ecd192d199b2fa2e6f96eff34cd16c6acd04db6e8f559f744325e64736f6c634300081a0033\n}\n",
				"bytecode": {
					"linkReferences": {},
					"object": "60806040527350d3b84a2b1787b7704dd50c67733b6b5b29362960075f6101000a81548173ffffffffffffffffffffffffffffffffffffffff021916908373ffffffffffffffffffffffffffffffffffffffff16021790555066b1a2bc2ec5000060085534801561006e575f80fd5b5060405161173f38038061173f83398181016040528101906100909190610144565b805f806101000a81548173ffffffffffffffffffffffffffffffffffffffff021916908373ffffffffffffffffffffffffffffffffffffffff1602179055505061016f565b5f80fd5b5f73ffffffffffffffffffffffffffffffffffffffff82169050919050565b5f610102826100d9565b9050919050565b5f610113826100f8565b9050919050565b61012381610109565b811461012d575f80fd5b50565b5f8151905061013e8161011a565b92915050565b5f60208284031215610159576101586100d5565b5b5f61016684828501610130565b91505092915050565b6115c38061017c5f395ff3fe6080604052600436106100f2575f3560e01c8063ae6441a311610089578063dcc52a4811610058578063dcc52a48146102d6578063dff05f8214610312578063eb0c49551461034e578063ed2d7a9714610378576100f2565b8063ae6441a31461026e578063b3f0067414610298578063c8510e4e146102c2578063d0e30db0146102cc576100f2565b8063726fe82b116100c5578063726fe82b1461019057806373732024146101cc5780638bc7e8c4146102085780638ce5fcc914610232576100f2565b80630497de4a146100f657806312fa90a114610120578063249ee9e11461014a5780633ccfd60b14610186575b5f80fd5b348015610101575f80fd5b5061010a610382565b6040516101179190611000565b60405180910390f35b34801561012b575f80fd5b506101346103c6565b6040516101419190611000565b60405180910390f35b348015610155575f80fd5b50610170600480360381019061016b9190611077565b61040a565b60405161017d9190611000565b60405180910390f35b61018e61041f565b005b34801561019b575f80fd5b506101b660048036038101906101b19190611077565b61075c565b6040516101c39190611000565b60405180910390f35b3480156101d7575f80fd5b506101f260048036038101906101ed9190611077565b610771565b6040516101ff91906110bc565b60405180910390f35b348015610213575f80fd5b5061021c61078e565b6040516102299190611000565b60405180910390f35b34801561023d575f80fd5b5061025860048036038101906102539190611077565b610794565b60405161026591906110bc565b60405180910390f35b348015610279575f80fd5b506102826107b1565b60405161028f9190611000565b60405180910390f35b3480156102a3575f80fd5b506102ac6107c0565b6040516102b991906110f5565b60405180910390f35b6102ca6107e5565b005b6102d4610913565b005b3480156102e1575f80fd5b506102fc60048036038101906102f79190611077565b610a36565b6040516103099190611000565b60405180910390f35b34801561031d575f80fd5b5061033860048036038101906103339190611077565b610a4b565b6040516103459190611000565b60405180910390f35b348015610359575f80fd5b50610362610a60565b60405161036f9190611000565b60405180910390f35b610380610a6f565b005b5f60015f3373ffffffffffffffffffffffffffffffffffffffff1673ffffffffffffffffffffffffffffffffffffffff1681526020019081526020015f2054905090565b5f60025f3373ffffffffffffffffffffffffffffffffffffffff1673ffffffffffffffffffffffffffffffffffffffff1681526020019081526020015f2054905090565b6001602052805f5260405f205f915090505481565b6001151560055f3373ffffffffffffffffffffffffffffffffffffffff1673ffffffffffffffffffffffffffffffffffffffff1681526020019081526020015f205f9054906101000a900460ff161515146104af576040517f08c379a00000000000000000000000000000000000000000000000000000000081526004016104a690611168565b60405180910390fd5b6008543410156104f4576040517f08c379a00000000000000000000000000000000000000000000000000000000081526004016104eb906111f6565b60405180910390fd5b5f6104fe33610dde565b90503373ffffffffffffffffffffffffffffffffffffffff166108fc661c6bf52634000060015f3373ffffffffffffffffffffffffffffffffffffffff1673ffffffffffffffffffffffffffffffffffffffff1681526020019081526020015f205461056a9190611241565b90811502906040515f60405180830381858888f19350505050158015610592573d5f803e3d5ffd5b505f60015f3373ffffffffffffffffffffffffffffffffffffffff1673ffffffffffffffffffffffffffffffffffffffff1681526020019081526020015f20819055505f8054906101000a900473ffffffffffffffffffffffffffffffffffffffff1673ffffffffffffffffffffffffffffffffffffffff166340c10f1933836040518363ffffffff1660e01b815260040161062f929190611283565b5f604051808303815f87803b158015610646575f80fd5b505af1158015610658573d5f803e3d5ffd5b505050505f60035f3373ffffffffffffffffffffffffffffffffffffffff1673ffffffffffffffffffffffffffffffffffffffff1681526020019081526020015f20819055505f60055f3373ffffffffffffffffffffffffffffffffffffffff1673ffffffffffffffffffffffffffffffffffffffff1681526020019081526020015f205f6101000a81548160ff02191690831515021790555060075f9054906101000a900473ffffffffffffffffffffffffffffffffffffffff1673ffffffffffffffffffffffffffffffffffffffff166108fc60085490811502906040515f60405180830381858888f19350505050158015610758573d5f803e3d5ffd5b5050565b6004602052805f5260405f205f915090505481565b6005602052805f5260405f205f915054906101000a900460ff1681565b60085481565b6006602052805f5260405f205f915054906101000a900460ff1681565b5f6107bb33610f2a565b905090565b60075f9054906101000a900473ffffffffffffffffffffffffffffffffffffffff1681565b5f3411610827576040517f08c379a000000000000000000000000000000000000000000000000000000000815260040161081e9061131a565b60405180910390fd5b3460025f3373ffffffffffffffffffffffffffffffffffffffff1673ffffffffffffffffffffffffffffffffffffffff1681526020019081526020015f205f8282546108739190611338565b925050819055504260045f3373ffffffffffffffffffffffffffffffffffffffff1673ffffffffffffffffffffffffffffffffffffffff1681526020019081526020015f2081905550600160065f3373ffffffffffffffffffffffffffffffffffffffff1673ffffffffffffffffffffffffffffffffffffffff1681526020019081526020015f205f6101000a81548160ff021916908315150217905550565b3460015f3373ffffffffffffffffffffffffffffffffffffffff1673ffffffffffffffffffffffffffffffffffffffff1681526020019081526020015f205461095c9190611338565b60015f3373ffffffffffffffffffffffffffffffffffffffff1673ffffffffffffffffffffffffffffffffffffffff1681526020019081526020015f20819055504260035f3373ffffffffffffffffffffffffffffffffffffffff1673ffffffffffffffffffffffffffffffffffffffff1681526020019081526020015f2081905550600160055f3373ffffffffffffffffffffffffffffffffffffffff1673ffffffffffffffffffffffffffffffffffffffff1681526020019081526020015f205f6101000a81548160ff021916908315150217905550565b6002602052805f5260405f205f915090505481565b6003602052805f5260405f205f915090505481565b5f610a6a33610dde565b905090565b60065f3373ffffffffffffffffffffffffffffffffffffffff1673ffffffffffffffffffffffffffffffffffffffff1681526020019081526020015f205f9054906101000a900460ff16610af8576040517f08c379a0000000000000000000000000000000000000000000000000000000008152600401610aef906113db565b60405180910390fd5b61025860045f3373ffffffffffffffffffffffffffffffffffffffff1673ffffffffffffffffffffffffffffffffffffffff1681526020019081526020015f2054610b439190611338565b421015610b85576040517f08c379a0000000000000000000000000000000000000000000000000000000008152600401610b7c90611469565b60405180910390fd5b600854341015610bca576040517f08c379a0000000000000000000000000000000000000000000000000000000008152600401610bc1906111f6565b60405180910390fd5b5f610bd433610f2a565b905060075f9054906101000a900473ffffffffffffffffffffffffffffffffffffffff1673ffffffffffffffffffffffffffffffffffffffff166108fc60085490811502906040515f60405180830381858888f19350505050158015610c3c573d5f803e3d5ffd5b503373ffffffffffffffffffffffffffffffffffffffff166108fc60025f3373ffffffffffffffffffffffffffffffffffffffff1673ffffffffffffffffffffffffffffffffffffffff1681526020019081526020015f205490811502906040515f60405180830381858888f19350505050158015610cbd573d5f803e3d5ffd5b505f60025f3373ffffffffffffffffffffffffffffffffffffffff1673ffffffffffffffffffffffffffffffffffffffff1681526020019081526020015f20819055505f60065f3373ffffffffffffffffffffffffffffffffffffffff1673ffffffffffffffffffffffffffffffffffffffff1681526020019081526020015f205f6101000a81548160ff0219169083151502179055505f8054906101000a900473ffffffffffffffffffffffffffffffffffffffff1673ffffffffffffffffffffffffffffffffffffffff166340c10f1933836040518363ffffffff1660e01b8152600401610dae929190611283565b5f604051808303815f87803b158015610dc5575f80fd5b505af1158015610dd7573d5f803e3d5ffd5b5050505050565b5f60055f8373ffffffffffffffffffffffffffffffffffffffff1673ffffffffffffffffffffffffffffffffffffffff1681526020019081526020015f205f9054906101000a900460ff16610e68576040517f08c379a0000000000000000000000000000000000000000000000000000000008152600401610e5f906114d1565b60405180910390fd5b5f60035f8473ffffffffffffffffffffffffffffffffffffffff1673ffffffffffffffffffffffffffffffffffffffff1681526020019081526020015f205442610eb29190611241565b90505f6301e3373160015f8673ffffffffffffffffffffffffffffffffffffffff1673ffffffffffffffffffffffffffffffffffffffff1681526020019081526020015f20546064610f0491906114ef565b610f0e919061155d565b90505f8282610f1d91906114ef565b9050809350505050919050565b5f8060045f8473ffffffffffffffffffffffffffffffffffffffff1673ffffffffffffffffffffffffffffffffffffffff1681526020019081526020015f205442610f759190611241565b90505f6301e3373160025f8673ffffffffffffffffffffffffffffffffffffffff1673ffffffffffffffffffffffffffffffffffffffff1681526020019081526020015f205460c8610fc791906114ef565b610fd1919061155d565b90508181610fdf91906114ef565b92505050919050565b5f819050919050565b610ffa81610fe8565b82525050565b5f6020820190506110135f830184610ff1565b92915050565b5f80fd5b5f73ffffffffffffffffffffffffffffffffffffffff82169050919050565b5f6110468261101d565b9050919050565b6110568161103c565b8114611060575f80fd5b50565b5f813590506110718161104d565b92915050565b5f6020828403121561108c5761108b611019565b5b5f61109984828501611063565b91505092915050565b5f8115159050919050565b6110b6816110a2565b82525050565b5f6020820190506110cf5f8301846110ad565b92915050565b5f6110df8261101d565b9050919050565b6110ef816110d5565b82525050565b5f6020820190506111085f8301846110e6565b92915050565b5f82825260208201905092915050565b7f4572726f722c206e6f2070726576696f7573206465706f7369740000000000005f82015250565b5f611152601a8361110e565b915061115d8261111e565b602082019050919050565b5f6020820190508181035f83015261117f81611146565b9050919050565b7f5365206465626520656e7669617220616c206d656e6f7320302e303520424e425f8201527f20636f6d6f20746173612064652072657469726f000000000000000000000000602082015250565b5f6111e060348361110e565b91506111eb82611186565b604082019050919050565b5f6020820190508181035f83015261120d816111d4565b9050919050565b7f4e487b71000000000000000000000000000000000000000000000000000000005f52601160045260245ffd5b5f61124b82610fe8565b915061125683610fe8565b925082820390508181111561126e5761126d611214565b5b92915050565b61127d8161103c565b82525050565b5f6040820190506112965f830185611274565b6112a36020830184610ff1565b9392505050565b7f456c206d6f6e746f2064656c206465706f7369746f206465626520736572206d5f8201527f61796f7220717565203000000000000000000000000000000000000000000000602082015250565b5f611304602a8361110e565b915061130f826112aa565b604082019050919050565b5f6020820190508181035f830152611331816112f8565b9050919050565b5f61134282610fe8565b915061134d83610fe8565b925082820190508082111561136557611364611214565b5b92915050565b7f4e6f207469656e657320756e206465706f7369746f20657370656369616c20615f8201527f637469766f000000000000000000000000000000000000000000000000000000602082015250565b5f6113c560258361110e565b91506113d08261136b565b604082019050919050565b5f6020820190508181035f8301526113f2816113b9565b9050919050565b7f456c2072657469726f20657370656369616c20736f6c6f2065737461206469735f8201527f706f6e69626c652064657370756573206465203130206d696e75746f73000000602082015250565b5f611453603d8361110e565b915061145e826113f9565b604082019050919050565b5f6020820190508181035f83015261148081611447565b9050919050565b7f4e6f207469656e657320756e206465706f7369746f2061637469766f000000005f82015250565b5f6114bb601c8361110e565b91506114c682611487565b602082019050919050565b5f6020820190508181035f8301526114e8816114af565b9050919050565b5f6114f982610fe8565b915061150483610fe8565b925082820261151281610fe8565b9150828204841483151761152957611528611214565b5b5092915050565b7f4e487b71000000000000000000000000000000000000000000000000000000005f52601260045260245ffd5b5f61156782610fe8565b915061157283610fe8565b92508261158257611581611530565b5b82820490509291505056fea2646970667358221220da1e2eb5e02ecd192d199b2fa2e6f96eff34cd16c6acd04db6e8f559f744325e64736f6c634300081a0033",
					"opcodes": "PUSH1 0x80 PUSH1 0x40 MSTORE PUSH20 0x50D3B84A2B1787B7704DD50C67733B6B5B293629 PUSH1 0x7 PUSH0 PUSH2 0x100 EXP DUP2 SLOAD DUP2 PUSH20 0xFFFFFFFFFFFFFFFFFFFFFFFFFFFFFFFFFFFFFFFF MUL NOT AND SWAP1 DUP4 PUSH20 0xFFFFFFFFFFFFFFFFFFFFFFFFFFFFFFFFFFFFFFFF AND MUL OR SWAP1 SSTORE POP PUSH7 0xB1A2BC2EC50000 PUSH1 0x8 SSTORE CALLVALUE DUP1 ISZERO PUSH2 0x6E JUMPI PUSH0 DUP1 REVERT JUMPDEST POP PUSH1 0x40 MLOAD PUSH2 0x173F CODESIZE SUB DUP1 PUSH2 0x173F DUP4 CODECOPY DUP2 DUP2 ADD PUSH1 0x40 MSTORE DUP2 ADD SWAP1 PUSH2 0x90 SWAP2 SWAP1 PUSH2 0x144 JUMP JUMPDEST DUP1 PUSH0 DUP1 PUSH2 0x100 EXP DUP2 SLOAD DUP2 PUSH20 0xFFFFFFFFFFFFFFFFFFFFFFFFFFFFFFFFFFFFFFFF MUL NOT AND SWAP1 DUP4 PUSH20 0xFFFFFFFFFFFFFFFFFFFFFFFFFFFFFFFFFFFFFFFF AND MUL OR SWAP1 SSTORE POP POP PUSH2 0x16F JUMP JUMPDEST PUSH0 DUP1 REVERT JUMPDEST PUSH0 PUSH20 0xFFFFFFFFFFFFFFFFFFFFFFFFFFFFFFFFFFFFFFFF DUP3 AND SWAP1 POP SWAP2 SWAP1 POP JUMP JUMPDEST PUSH0 PUSH2 0x102 DUP3 PUSH2 0xD9 JUMP JUMPDEST SWAP1 POP SWAP2 SWAP1 POP JUMP JUMPDEST PUSH0 PUSH2 0x113 DUP3 PUSH2 0xF8 JUMP JUMPDEST SWAP1 POP SWAP2 SWAP1 POP JUMP JUMPDEST PUSH2 0x123 DUP2 PUSH2 0x109 JUMP JUMPDEST DUP2 EQ PUSH2 0x12D JUMPI PUSH0 DUP1 REVERT JUMPDEST POP JUMP JUMPDEST PUSH0 DUP2 MLOAD SWAP1 POP PUSH2 0x13E DUP2 PUSH2 0x11A JUMP JUMPDEST SWAP3 SWAP2 POP POP JUMP JUMPDEST PUSH0 PUSH1 0x20 DUP3 DUP5 SUB SLT ISZERO PUSH2 0x159 JUMPI PUSH2 0x158 PUSH2 0xD5 JUMP JUMPDEST JUMPDEST PUSH0 PUSH2 0x166 DUP5 DUP3 DUP6 ADD PUSH2 0x130 JUMP JUMPDEST SWAP2 POP POP SWAP3 SWAP2 POP POP JUMP JUMPDEST PUSH2 0x15C3 DUP1 PUSH2 0x17C PUSH0 CODECOPY PUSH0 RETURN INVALID PUSH1 0x80 PUSH1 0x40 MSTORE PUSH1 0x4 CALLDATASIZE LT PUSH2 0xF2 JUMPI PUSH0 CALLDATALOAD PUSH1 0xE0 SHR DUP1 PUSH4 0xAE6441A3 GT PUSH2 0x89 JUMPI DUP1 PUSH4 0xDCC52A48 GT PUSH2 0x58 JUMPI DUP1 PUSH4 0xDCC52A48 EQ PUSH2 0x2D6 JUMPI DUP1 PUSH4 0xDFF05F82 EQ PUSH2 0x312 JUMPI DUP1 PUSH4 0xEB0C4955 EQ PUSH2 0x34E JUMPI DUP1 PUSH4 0xED2D7A97 EQ PUSH2 0x378 JUMPI PUSH2 0xF2 JUMP JUMPDEST DUP1 PUSH4 0xAE6441A3 EQ PUSH2 0x26E JUMPI DUP1 PUSH4 0xB3F00674 EQ PUSH2 0x298 JUMPI DUP1 PUSH4 0xC8510E4E EQ PUSH2 0x2C2 JUMPI DUP1 PUSH4 0xD0E30DB0 EQ PUSH2 0x2CC JUMPI PUSH2 0xF2 JUMP JUMPDEST DUP1 PUSH4 0x726FE82B GT PUSH2 0xC5 JUMPI DUP1 PUSH4 0x726FE82B EQ PUSH2 0x190 JUMPI DUP1 PUSH4 0x73732024 EQ PUSH2 0x1CC JUMPI DUP1 PUSH4 0x8BC7E8C4 EQ PUSH2 0x208 JUMPI DUP1 PUSH4 0x8CE5FCC9 EQ PUSH2 0x232 JUMPI PUSH2 0xF2 JUMP JUMPDEST DUP1 PUSH4 0x497DE4A EQ PUSH2 0xF6 JUMPI DUP1 PUSH4 0x12FA90A1 EQ PUSH2 0x120 JUMPI DUP1 PUSH4 0x249EE9E1 EQ PUSH2 0x14A JUMPI DUP1 PUSH4 0x3CCFD60B EQ PUSH2 0x186 JUMPI JUMPDEST PUSH0 DUP1 REVERT JUMPDEST CALLVALUE DUP1 ISZERO PUSH2 0x101 JUMPI PUSH0 DUP1 REVERT JUMPDEST POP PUSH2 0x10A PUSH2 0x382 JUMP JUMPDEST PUSH1 0x40 MLOAD PUSH2 0x117 SWAP2 SWAP1 PUSH2 0x1000 JUMP JUMPDEST PUSH1 0x40 MLOAD DUP1 SWAP2 SUB SWAP1 RETURN JUMPDEST CALLVALUE DUP1 ISZERO PUSH2 0x12B JUMPI PUSH0 DUP1 REVERT JUMPDEST POP PUSH2 0x134 PUSH2 0x3C6 JUMP JUMPDEST PUSH1 0x40 MLOAD PUSH2 0x141 SWAP2 SWAP1 PUSH2 0x1000 JUMP JUMPDEST PUSH1 0x40 MLOAD DUP1 SWAP2 SUB SWAP1 RETURN JUMPDEST CALLVALUE DUP1 ISZERO PUSH2 0x155 JUMPI PUSH0 DUP1 REVERT JUMPDEST POP PUSH2 0x170 PUSH1 0x4 DUP1 CALLDATASIZE SUB DUP2 ADD SWAP1 PUSH2 0x16B SWAP2 SWAP1 PUSH2 0x1077 JUMP JUMPDEST PUSH2 0x40A JUMP JUMPDEST PUSH1 0x40 MLOAD PUSH2 0x17D SWAP2 SWAP1 PUSH2 0x1000 JUMP JUMPDEST PUSH1 0x40 MLOAD DUP1 SWAP2 SUB SWAP1 RETURN JUMPDEST PUSH2 0x18E PUSH2 0x41F JUMP JUMPDEST STOP JUMPDEST CALLVALUE DUP1 ISZERO PUSH2 0x19B JUMPI PUSH0 DUP1 REVERT JUMPDEST POP PUSH2 0x1B6 PUSH1 0x4 DUP1 CALLDATASIZE SUB DUP2 ADD SWAP1 PUSH2 0x1B1 SWAP2 SWAP1 PUSH2 0x1077 JUMP JUMPDEST PUSH2 0x75C JUMP JUMPDEST PUSH1 0x40 MLOAD PUSH2 0x1C3 SWAP2 SWAP1 PUSH2 0x1000 JUMP JUMPDEST PUSH1 0x40 MLOAD DUP1 SWAP2 SUB SWAP1 RETURN JUMPDEST CALLVALUE DUP1 ISZERO PUSH2 0x1D7 JUMPI PUSH0 DUP1 REVERT JUMPDEST POP PUSH2 0x1F2 PUSH1 0x4 DUP1 CALLDATASIZE SUB DUP2 ADD SWAP1 PUSH2 0x1ED SWAP2 SWAP1 PUSH2 0x1077 JUMP JUMPDEST PUSH2 0x771 JUMP JUMPDEST PUSH1 0x40 MLOAD PUSH2 0x1FF SWAP2 SWAP1 PUSH2 0x10BC JUMP JUMPDEST PUSH1 0x40 MLOAD DUP1 SWAP2 SUB SWAP1 RETURN JUMPDEST CALLVALUE DUP1 ISZERO PUSH2 0x213 JUMPI PUSH0 DUP1 REVERT JUMPDEST POP PUSH2 0x21C PUSH2 0x78E JUMP JUMPDEST PUSH1 0x40 MLOAD PUSH2 0x229 SWAP2 SWAP1 PUSH2 0x1000 JUMP JUMPDEST PUSH1 0x40 MLOAD DUP1 SWAP2 SUB SWAP1 RETURN JUMPDEST CALLVALUE DUP1 ISZERO PUSH2 0x23D JUMPI PUSH0 DUP1 REVERT JUMPDEST POP PUSH2 0x258 PUSH1 0x4 DUP1 CALLDATASIZE SUB DUP2 ADD SWAP1 PUSH2 0x253 SWAP2 SWAP1 PUSH2 0x1077 JUMP JUMPDEST PUSH2 0x794 JUMP JUMPDEST PUSH1 0x40 MLOAD PUSH2 0x265 SWAP2 SWAP1 PUSH2 0x10BC JUMP JUMPDEST PUSH1 0x40 MLOAD DUP1 SWAP2 SUB SWAP1 RETURN JUMPDEST CALLVALUE DUP1 ISZERO PUSH2 0x279 JUMPI PUSH0 DUP1 REVERT JUMPDEST POP PUSH2 0x282 PUSH2 0x7B1 JUMP JUMPDEST PUSH1 0x40 MLOAD PUSH2 0x28F SWAP2 SWAP1 PUSH2 0x1000 JUMP JUMPDEST PUSH1 0x40 MLOAD DUP1 SWAP2 SUB SWAP1 RETURN JUMPDEST CALLVALUE DUP1 ISZERO PUSH2 0x2A3 JUMPI PUSH0 DUP1 REVERT JUMPDEST POP PUSH2 0x2AC PUSH2 0x7C0 JUMP JUMPDEST PUSH1 0x40 MLOAD PUSH2 0x2B9 SWAP2 SWAP1 PUSH2 0x10F5 JUMP JUMPDEST PUSH1 0x40 MLOAD DUP1 SWAP2 SUB SWAP1 RETURN JUMPDEST PUSH2 0x2CA PUSH2 0x7E5 JUMP JUMPDEST STOP JUMPDEST PUSH2 0x2D4 PUSH2 0x913 JUMP JUMPDEST STOP JUMPDEST CALLVALUE DUP1 ISZERO PUSH2 0x2E1 JUMPI PUSH0 DUP1 REVERT JUMPDEST POP PUSH2 0x2FC PUSH1 0x4 DUP1 CALLDATASIZE SUB DUP2 ADD SWAP1 PUSH2 0x2F7 SWAP2 SWAP1 PUSH2 0x1077 JUMP JUMPDEST PUSH2 0xA36 JUMP JUMPDEST PUSH1 0x40 MLOAD PUSH2 0x309 SWAP2 SWAP1 PUSH2 0x1000 JUMP JUMPDEST PUSH1 0x40 MLOAD DUP1 SWAP2 SUB SWAP1 RETURN JUMPDEST CALLVALUE DUP1 ISZERO PUSH2 0x31D JUMPI PUSH0 DUP1 REVERT JUMPDEST POP PUSH2 0x338 PUSH1 0x4 DUP1 CALLDATASIZE SUB DUP2 ADD SWAP1 PUSH2 0x333 SWAP2 SWAP1 PUSH2 0x1077 JUMP JUMPDEST PUSH2 0xA4B JUMP JUMPDEST PUSH1 0x40 MLOAD PUSH2 0x345 SWAP2 SWAP1 PUSH2 0x1000 JUMP JUMPDEST PUSH1 0x40 MLOAD DUP1 SWAP2 SUB SWAP1 RETURN JUMPDEST CALLVALUE DUP1 ISZERO PUSH2 0x359 JUMPI PUSH0 DUP1 REVERT JUMPDEST POP PUSH2 0x362 PUSH2 0xA60 JUMP JUMPDEST PUSH1 0x40 MLOAD PUSH2 0x36F SWAP2 SWAP1 PUSH2 0x1000 JUMP JUMPDEST PUSH1 0x40 MLOAD DUP1 SWAP2 SUB SWAP1 RETURN JUMPDEST PUSH2 0x380 PUSH2 0xA6F JUMP JUMPDEST STOP JUMPDEST PUSH0 PUSH1 0x1 PUSH0 CALLER PUSH20 0xFFFFFFFFFFFFFFFFFFFFFFFFFFFFFFFFFFFFFFFF AND PUSH20 0xFFFFFFFFFFFFFFFFFFFFFFFFFFFFFFFFFFFFFFFF AND DUP2 MSTORE PUSH1 0x20 ADD SWAP1 DUP2 MSTORE PUSH1 0x20 ADD PUSH0 KECCAK256 SLOAD SWAP1 POP SWAP1 JUMP JUMPDEST PUSH0 PUSH1 0x2 PUSH0 CALLER PUSH20 0xFFFFFFFFFFFFFFFFFFFFFFFFFFFFFFFFFFFFFFFF AND PUSH20 0xFFFFFFFFFFFFFFFFFFFFFFFFFFFFFFFFFFFFFFFF AND DUP2 MSTORE PUSH1 0x20 ADD SWAP1 DUP2 MSTORE PUSH1 0x20 ADD PUSH0 KECCAK256 SLOAD SWAP1 POP SWAP1 JUMP JUMPDEST PUSH1 0x1 PUSH1 0x20 MSTORE DUP1 PUSH0 MSTORE PUSH1 0x40 PUSH0 KECCAK256 PUSH0 SWAP2 POP SWAP1 POP SLOAD DUP2 JUMP JUMPDEST PUSH1 0x1 ISZERO ISZERO PUSH1 0x5 PUSH0 CALLER PUSH20 0xFFFFFFFFFFFFFFFFFFFFFFFFFFFFFFFFFFFFFFFF AND PUSH20 0xFFFFFFFFFFFFFFFFFFFFFFFFFFFFFFFFFFFFFFFF AND DUP2 MSTORE PUSH1 0x20 ADD SWAP1 DUP2 MSTORE PUSH1 0x20 ADD PUSH0 KECCAK256 PUSH0 SWAP1 SLOAD SWAP1 PUSH2 0x100 EXP SWAP1 DIV PUSH1 0xFF AND ISZERO ISZERO EQ PUSH2 0x4AF JUMPI PUSH1 0x40 MLOAD PUSH32 0x8C379A000000000000000000000000000000000000000000000000000000000 DUP2 MSTORE PUSH1 0x4 ADD PUSH2 0x4A6 SWAP1 PUSH2 0x1168 JUMP JUMPDEST PUSH1 0x40 MLOAD DUP1 SWAP2 SUB SWAP1 REVERT JUMPDEST PUSH1 0x8 SLOAD CALLVALUE LT ISZERO PUSH2 0x4F4 JUMPI PUSH1 0x40 MLOAD PUSH32 0x8C379A000000000000000000000000000000000000000000000000000000000 DUP2 MSTORE PUSH1 0x4 ADD PUSH2 0x4EB SWAP1 PUSH2 0x11F6 JUMP JUMPDEST PUSH1 0x40 MLOAD DUP1 SWAP2 SUB SWAP1 REVERT JUMPDEST PUSH0 PUSH2 0x4FE CALLER PUSH2 0xDDE JUMP JUMPDEST SWAP1 POP CALLER PUSH20 0xFFFFFFFFFFFFFFFFFFFFFFFFFFFFFFFFFFFFFFFF AND PUSH2 0x8FC PUSH7 0x1C6BF526340000 PUSH1 0x1 PUSH0 CALLER PUSH20 0xFFFFFFFFFFFFFFFFFFFFFFFFFFFFFFFFFFFFFFFF AND PUSH20 0xFFFFFFFFFFFFFFFFFFFFFFFFFFFFFFFFFFFFFFFF AND DUP2 MSTORE PUSH1 0x20 ADD SWAP1 DUP2 MSTORE PUSH1 0x20 ADD PUSH0 KECCAK256 SLOAD PUSH2 0x56A SWAP2 SWAP1 PUSH2 0x1241 JUMP JUMPDEST SWAP1 DUP2 ISZERO MUL SWAP1 PUSH1 0x40 MLOAD PUSH0 PUSH1 0x40 MLOAD DUP1 DUP4 SUB DUP2 DUP6 DUP9 DUP9 CALL SWAP4 POP POP POP POP ISZERO DUP1 ISZERO PUSH2 0x592 JUMPI RETURNDATASIZE PUSH0 DUP1 RETURNDATACOPY RETURNDATASIZE PUSH0 REVERT JUMPDEST POP PUSH0 PUSH1 0x1 PUSH0 CALLER PUSH20 0xFFFFFFFFFFFFFFFFFFFFFFFFFFFFFFFFFFFFFFFF AND PUSH20 0xFFFFFFFFFFFFFFFFFFFFFFFFFFFFFFFFFFFFFFFF AND DUP2 MSTORE PUSH1 0x20 ADD SWAP1 DUP2 MSTORE PUSH1 0x20 ADD PUSH0 KECCAK256 DUP2 SWAP1 SSTORE POP PUSH0 DUP1 SLOAD SWAP1 PUSH2 0x100 EXP SWAP1 DIV PUSH20 0xFFFFFFFFFFFFFFFFFFFFFFFFFFFFFFFFFFFFFFFF AND PUSH20 0xFFFFFFFFFFFFFFFFFFFFFFFFFFFFFFFFFFFFFFFF AND PUSH4 0x40C10F19 CALLER DUP4 PUSH1 0x40 MLOAD DUP4 PUSH4 0xFFFFFFFF AND PUSH1 0xE0 SHL DUP2 MSTORE PUSH1 0x4 ADD PUSH2 0x62F SWAP3 SWAP2 SWAP1 PUSH2 0x1283 JUMP JUMPDEST PUSH0 PUSH1 0x40 MLOAD DUP1 DUP4 SUB DUP2 PUSH0 DUP8 DUP1 EXTCODESIZE ISZERO DUP1 ISZERO PUSH2 0x646 JUMPI PUSH0 DUP1 REVERT JUMPDEST POP GAS CALL ISZERO DUP1 ISZERO PUSH2 0x658 JUMPI RETURNDATASIZE PUSH0 DUP1 RETURNDATACOPY RETURNDATASIZE PUSH0 REVERT JUMPDEST POP POP POP POP PUSH0 PUSH1 0x3 PUSH0 CALLER PUSH20 0xFFFFFFFFFFFFFFFFFFFFFFFFFFFFFFFFFFFFFFFF AND PUSH20 0xFFFFFFFFFFFFFFFFFFFFFFFFFFFFFFFFFFFFFFFF AND DUP2 MSTORE PUSH1 0x20 ADD SWAP1 DUP2 MSTORE PUSH1 0x20 ADD PUSH0 KECCAK256 DUP2 SWAP1 SSTORE POP PUSH0 PUSH1 0x5 PUSH0 CALLER PUSH20 0xFFFFFFFFFFFFFFFFFFFFFFFFFFFFFFFFFFFFFFFF AND PUSH20 0xFFFFFFFFFFFFFFFFFFFFFFFFFFFFFFFFFFFFFFFF AND DUP2 MSTORE PUSH1 0x20 ADD SWAP1 DUP2 MSTORE PUSH1 0x20 ADD PUSH0 KECCAK256 PUSH0 PUSH2 0x100 EXP DUP2 SLOAD DUP2 PUSH1 0xFF MUL NOT AND SWAP1 DUP4 ISZERO ISZERO MUL OR SWAP1 SSTORE POP PUSH1 0x7 PUSH0 SWAP1 SLOAD SWAP1 PUSH2 0x100 EXP SWAP1 DIV PUSH20 0xFFFFFFFFFFFFFFFFFFFFFFFFFFFFFFFFFFFFFFFF AND PUSH20 0xFFFFFFFFFFFFFFFFFFFFFFFFFFFFFFFFFFFFFFFF AND PUSH2 0x8FC PUSH1 0x8 SLOAD SWAP1 DUP2 ISZERO MUL SWAP1 PUSH1 0x40 MLOAD PUSH0 PUSH1 0x40 MLOAD DUP1 DUP4 SUB DUP2 DUP6 DUP9 DUP9 CALL SWAP4 POP POP POP POP ISZERO DUP1 ISZERO PUSH2 0x758 JUMPI RETURNDATASIZE PUSH0 DUP1 RETURNDATACOPY RETURNDATASIZE PUSH0 REVERT JUMPDEST POP POP JUMP JUMPDEST PUSH1 0x4 PUSH1 0x20 MSTORE DUP1 PUSH0 MSTORE PUSH1 0x40 PUSH0 KECCAK256 PUSH0 SWAP2 POP SWAP1 POP SLOAD DUP2 JUMP JUMPDEST PUSH1 0x5 PUSH1 0x20 MSTORE DUP1 PUSH0 MSTORE PUSH1 0x40 PUSH0 KECCAK256 PUSH0 SWAP2 POP SLOAD SWAP1 PUSH2 0x100 EXP SWAP1 DIV PUSH1 0xFF AND DUP2 JUMP JUMPDEST PUSH1 0x8 SLOAD DUP2 JUMP JUMPDEST PUSH1 0x6 PUSH1 0x20 MSTORE DUP1 PUSH0 MSTORE PUSH1 0x40 PUSH0 KECCAK256 PUSH0 SWAP2 POP SLOAD SWAP1 PUSH2 0x100 EXP SWAP1 DIV PUSH1 0xFF AND DUP2 JUMP JUMPDEST PUSH0 PUSH2 0x7BB CALLER PUSH2 0xF2A JUMP JUMPDEST SWAP1 POP SWAP1 JUMP JUMPDEST PUSH1 0x7 PUSH0 SWAP1 SLOAD SWAP1 PUSH2 0x100 EXP SWAP1 DIV PUSH20 0xFFFFFFFFFFFFFFFFFFFFFFFFFFFFFFFFFFFFFFFF AND DUP2 JUMP JUMPDEST PUSH0 CALLVALUE GT PUSH2 0x827 JUMPI PUSH1 0x40 MLOAD PUSH32 0x8C379A000000000000000000000000000000000000000000000000000000000 DUP2 MSTORE PUSH1 0x4 ADD PUSH2 0x81E SWAP1 PUSH2 0x131A JUMP JUMPDEST PUSH1 0x40 MLOAD DUP1 SWAP2 SUB SWAP1 REVERT JUMPDEST CALLVALUE PUSH1 0x2 PUSH0 CALLER PUSH20 0xFFFFFFFFFFFFFFFFFFFFFFFFFFFFFFFFFFFFFFFF AND PUSH20 0xFFFFFFFFFFFFFFFFFFFFFFFFFFFFFFFFFFFFFFFF AND DUP2 MSTORE PUSH1 0x20 ADD SWAP1 DUP2 MSTORE PUSH1 0x20 ADD PUSH0 KECCAK256 PUSH0 DUP3 DUP3 SLOAD PUSH2 0x873 SWAP2 SWAP1 PUSH2 0x1338 JUMP JUMPDEST SWAP3 POP POP DUP2 SWAP1 SSTORE POP TIMESTAMP PUSH1 0x4 PUSH0 CALLER PUSH20 0xFFFFFFFFFFFFFFFFFFFFFFFFFFFFFFFFFFFFFFFF AND PUSH20 0xFFFFFFFFFFFFFFFFFFFFFFFFFFFFFFFFFFFFFFFF AND DUP2 MSTORE PUSH1 0x20 ADD SWAP1 DUP2 MSTORE PUSH1 0x20 ADD PUSH0 KECCAK256 DUP2 SWAP1 SSTORE POP PUSH1 0x1 PUSH1 0x6 PUSH0 CALLER PUSH20 0xFFFFFFFFFFFFFFFFFFFFFFFFFFFFFFFFFFFFFFFF AND PUSH20 0xFFFFFFFFFFFFFFFFFFFFFFFFFFFFFFFFFFFFFFFF AND DUP2 MSTORE PUSH1 0x20 ADD SWAP1 DUP2 MSTORE PUSH1 0x20 ADD PUSH0 KECCAK256 PUSH0 PUSH2 0x100 EXP DUP2 SLOAD DUP2 PUSH1 0xFF MUL NOT AND SWAP1 DUP4 ISZERO ISZERO MUL OR SWAP1 SSTORE POP JUMP JUMPDEST CALLVALUE PUSH1 0x1 PUSH0 CALLER PUSH20 0xFFFFFFFFFFFFFFFFFFFFFFFFFFFFFFFFFFFFFFFF AND PUSH20 0xFFFFFFFFFFFFFFFFFFFFFFFFFFFFFFFFFFFFFFFF AND DUP2 MSTORE PUSH1 0x20 ADD SWAP1 DUP2 MSTORE PUSH1 0x20 ADD PUSH0 KECCAK256 SLOAD PUSH2 0x95C SWAP2 SWAP1 PUSH2 0x1338 JUMP JUMPDEST PUSH1 0x1 PUSH0 CALLER PUSH20 0xFFFFFFFFFFFFFFFFFFFFFFFFFFFFFFFFFFFFFFFF AND PUSH20 0xFFFFFFFFFFFFFFFFFFFFFFFFFFFFFFFFFFFFFFFF AND DUP2 MSTORE PUSH1 0x20 ADD SWAP1 DUP2 MSTORE PUSH1 0x20 ADD PUSH0 KECCAK256 DUP2 SWAP1 SSTORE POP TIMESTAMP PUSH1 0x3 PUSH0 CALLER PUSH20 0xFFFFFFFFFFFFFFFFFFFFFFFFFFFFFFFFFFFFFFFF AND PUSH20 0xFFFFFFFFFFFFFFFFFFFFFFFFFFFFFFFFFFFFFFFF AND DUP2 MSTORE PUSH1 0x20 ADD SWAP1 DUP2 MSTORE PUSH1 0x20 ADD PUSH0 KECCAK256 DUP2 SWAP1 SSTORE POP PUSH1 0x1 PUSH1 0x5 PUSH0 CALLER PUSH20 0xFFFFFFFFFFFFFFFFFFFFFFFFFFFFFFFFFFFFFFFF AND PUSH20 0xFFFFFFFFFFFFFFFFFFFFFFFFFFFFFFFFFFFFFFFF AND DUP2 MSTORE PUSH1 0x20 ADD SWAP1 DUP2 MSTORE PUSH1 0x20 ADD PUSH0 KECCAK256 PUSH0 PUSH2 0x100 EXP DUP2 SLOAD DUP2 PUSH1 0xFF MUL NOT AND SWAP1 DUP4 ISZERO ISZERO MUL OR SWAP1 SSTORE POP JUMP JUMPDEST PUSH1 0x2 PUSH1 0x20 MSTORE DUP1 PUSH0 MSTORE PUSH1 0x40 PUSH0 KECCAK256 PUSH0 SWAP2 POP SWAP1 POP SLOAD DUP2 JUMP JUMPDEST PUSH1 0x3 PUSH1 0x20 MSTORE DUP1 PUSH0 MSTORE PUSH1 0x40 PUSH0 KECCAK256 PUSH0 SWAP2 POP SWAP1 POP SLOAD DUP2 JUMP JUMPDEST PUSH0 PUSH2 0xA6A CALLER PUSH2 0xDDE JUMP JUMPDEST SWAP1 POP SWAP1 JUMP JUMPDEST PUSH1 0x6 PUSH0 CALLER PUSH20 0xFFFFFFFFFFFFFFFFFFFFFFFFFFFFFFFFFFFFFFFF AND PUSH20 0xFFFFFFFFFFFFFFFFFFFFFFFFFFFFFFFFFFFFFFFF AND DUP2 MSTORE PUSH1 0x20 ADD SWAP1 DUP2 MSTORE PUSH1 0x20 ADD PUSH0 KECCAK256 PUSH0 SWAP1 SLOAD SWAP1 PUSH2 0x100 EXP SWAP1 DIV PUSH1 0xFF AND PUSH2 0xAF8 JUMPI PUSH1 0x40 MLOAD PUSH32 0x8C379A000000000000000000000000000000000000000000000000000000000 DUP2 MSTORE PUSH1 0x4 ADD PUSH2 0xAEF SWAP1 PUSH2 0x13DB JUMP JUMPDEST PUSH1 0x40 MLOAD DUP1 SWAP2 SUB SWAP1 REVERT JUMPDEST PUSH2 0x258 PUSH1 0x4 PUSH0 CALLER PUSH20 0xFFFFFFFFFFFFFFFFFFFFFFFFFFFFFFFFFFFFFFFF AND PUSH20 0xFFFFFFFFFFFFFFFFFFFFFFFFFFFFFFFFFFFFFFFF AND DUP2 MSTORE PUSH1 0x20 ADD SWAP1 DUP2 MSTORE PUSH1 0x20 ADD PUSH0 KECCAK256 SLOAD PUSH2 0xB43 SWAP2 SWAP1 PUSH2 0x1338 JUMP JUMPDEST TIMESTAMP LT ISZERO PUSH2 0xB85 JUMPI PUSH1 0x40 MLOAD PUSH32 0x8C379A000000000000000000000000000000000000000000000000000000000 DUP2 MSTORE PUSH1 0x4 ADD PUSH2 0xB7C SWAP1 PUSH2 0x1469 JUMP JUMPDEST PUSH1 0x40 MLOAD DUP1 SWAP2 SUB SWAP1 REVERT JUMPDEST PUSH1 0x8 SLOAD CALLVALUE LT ISZERO PUSH2 0xBCA JUMPI PUSH1 0x40 MLOAD PUSH32 0x8C379A000000000000000000000000000000000000000000000000000000000 DUP2 MSTORE PUSH1 0x4 ADD PUSH2 0xBC1 SWAP1 PUSH2 0x11F6 JUMP JUMPDEST PUSH1 0x40 MLOAD DUP1 SWAP2 SUB SWAP1 REVERT JUMPDEST PUSH0 PUSH2 0xBD4 CALLER PUSH2 0xF2A JUMP JUMPDEST SWAP1 POP PUSH1 0x7 PUSH0 SWAP1 SLOAD SWAP1 PUSH2 0x100 EXP SWAP1 DIV PUSH20 0xFFFFFFFFFFFFFFFFFFFFFFFFFFFFFFFFFFFFFFFF AND PUSH20 0xFFFFFFFFFFFFFFFFFFFFFFFFFFFFFFFFFFFFFFFF AND PUSH2 0x8FC PUSH1 0x8 SLOAD SWAP1 DUP2 ISZERO MUL SWAP1 PUSH1 0x40 MLOAD PUSH0 PUSH1 0x40 MLOAD DUP1 DUP4 SUB DUP2 DUP6 DUP9 DUP9 CALL SWAP4 POP POP POP POP ISZERO DUP1 ISZERO PUSH2 0xC3C JUMPI RETURNDATASIZE PUSH0 DUP1 RETURNDATACOPY RETURNDATASIZE PUSH0 REVERT JUMPDEST POP CALLER PUSH20 0xFFFFFFFFFFFFFFFFFFFFFFFFFFFFFFFFFFFFFFFF AND PUSH2 0x8FC PUSH1 0x2 PUSH0 CALLER PUSH20 0xFFFFFFFFFFFFFFFFFFFFFFFFFFFFFFFFFFFFFFFF AND PUSH20 0xFFFFFFFFFFFFFFFFFFFFFFFFFFFFFFFFFFFFFFFF AND DUP2 MSTORE PUSH1 0x20 ADD SWAP1 DUP2 MSTORE PUSH1 0x20 ADD PUSH0 KECCAK256 SLOAD SWAP1 DUP2 ISZERO MUL SWAP1 PUSH1 0x40 MLOAD PUSH0 PUSH1 0x40 MLOAD DUP1 DUP4 SUB DUP2 DUP6 DUP9 DUP9 CALL SWAP4 POP POP POP POP ISZERO DUP1 ISZERO PUSH2 0xCBD JUMPI RETURNDATASIZE PUSH0 DUP1 RETURNDATACOPY RETURNDATASIZE PUSH0 REVERT JUMPDEST POP PUSH0 PUSH1 0x2 PUSH0 CALLER PUSH20 0xFFFFFFFFFFFFFFFFFFFFFFFFFFFFFFFFFFFFFFFF AND PUSH20 0xFFFFFFFFFFFFFFFFFFFFFFFFFFFFFFFFFFFFFFFF AND DUP2 MSTORE PUSH1 0x20 ADD SWAP1 DUP2 MSTORE PUSH1 0x20 ADD PUSH0 KECCAK256 DUP2 SWAP1 SSTORE POP PUSH0 PUSH1 0x6 PUSH0 CALLER PUSH20 0xFFFFFFFFFFFFFFFFFFFFFFFFFFFFFFFFFFFFFFFF AND PUSH20 0xFFFFFFFFFFFFFFFFFFFFFFFFFFFFFFFFFFFFFFFF AND DUP2 MSTORE PUSH1 0x20 ADD SWAP1 DUP2 MSTORE PUSH1 0x20 ADD PUSH0 KECCAK256 PUSH0 PUSH2 0x100 EXP DUP2 SLOAD DUP2 PUSH1 0xFF MUL NOT AND SWAP1 DUP4 ISZERO ISZERO MUL OR SWAP1 SSTORE POP PUSH0 DUP1 SLOAD SWAP1 PUSH2 0x100 EXP SWAP1 DIV PUSH20 0xFFFFFFFFFFFFFFFFFFFFFFFFFFFFFFFFFFFFFFFF AND PUSH20 0xFFFFFFFFFFFFFFFFFFFFFFFFFFFFFFFFFFFFFFFF AND PUSH4 0x40C10F19 CALLER DUP4 PUSH1 0x40 MLOAD DUP4 PUSH4 0xFFFFFFFF AND PUSH1 0xE0 SHL DUP2 MSTORE PUSH1 0x4 ADD PUSH2 0xDAE SWAP3 SWAP2 SWAP1 PUSH2 0x1283 JUMP JUMPDEST PUSH0 PUSH1 0x40 MLOAD DUP1 DUP4 SUB DUP2 PUSH0 DUP8 DUP1 EXTCODESIZE ISZERO DUP1 ISZERO PUSH2 0xDC5 JUMPI PUSH0 DUP1 REVERT JUMPDEST POP GAS CALL ISZERO DUP1 ISZERO PUSH2 0xDD7 JUMPI RETURNDATASIZE PUSH0 DUP1 RETURNDATACOPY RETURNDATASIZE PUSH0 REVERT JUMPDEST POP POP POP POP POP JUMP JUMPDEST PUSH0 PUSH1 0x5 PUSH0 DUP4 PUSH20 0xFFFFFFFFFFFFFFFFFFFFFFFFFFFFFFFFFFFFFFFF AND PUSH20 0xFFFFFFFFFFFFFFFFFFFFFFFFFFFFFFFFFFFFFFFF AND DUP2 MSTORE PUSH1 0x20 ADD SWAP1 DUP2 MSTORE PUSH1 0x20 ADD PUSH0 KECCAK256 PUSH0 SWAP1 SLOAD SWAP1 PUSH2 0x100 EXP SWAP1 DIV PUSH1 0xFF AND PUSH2 0xE68 JUMPI PUSH1 0x40 MLOAD PUSH32 0x8C379A000000000000000000000000000000000000000000000000000000000 DUP2 MSTORE PUSH1 0x4 ADD PUSH2 0xE5F SWAP1 PUSH2 0x14D1 JUMP JUMPDEST PUSH1 0x40 MLOAD DUP1 SWAP2 SUB SWAP1 REVERT JUMPDEST PUSH0 PUSH1 0x3 PUSH0 DUP5 PUSH20 0xFFFFFFFFFFFFFFFFFFFFFFFFFFFFFFFFFFFFFFFF AND PUSH20 0xFFFFFFFFFFFFFFFFFFFFFFFFFFFFFFFFFFFFFFFF AND DUP2 MSTORE PUSH1 0x20 ADD SWAP1 DUP2 MSTORE PUSH1 0x20 ADD PUSH0 KECCAK256 SLOAD TIMESTAMP PUSH2 0xEB2 SWAP2 SWAP1 PUSH2 0x1241 JUMP JUMPDEST SWAP1 POP PUSH0 PUSH4 0x1E33731 PUSH1 0x1 PUSH0 DUP7 PUSH20 0xFFFFFFFFFFFFFFFFFFFFFFFFFFFFFFFFFFFFFFFF AND PUSH20 0xFFFFFFFFFFFFFFFFFFFFFFFFFFFFFFFFFFFFFFFF AND DUP2 MSTORE PUSH1 0x20 ADD SWAP1 DUP2 MSTORE PUSH1 0x20 ADD PUSH0 KECCAK256 SLOAD PUSH1 0x64 PUSH2 0xF04 SWAP2 SWAP1 PUSH2 0x14EF JUMP JUMPDEST PUSH2 0xF0E SWAP2 SWAP1 PUSH2 0x155D JUMP JUMPDEST SWAP1 POP PUSH0 DUP3 DUP3 PUSH2 0xF1D SWAP2 SWAP1 PUSH2 0x14EF JUMP JUMPDEST SWAP1 POP DUP1 SWAP4 POP POP POP POP SWAP2 SWAP1 POP JUMP JUMPDEST PUSH0 DUP1 PUSH1 0x4 PUSH0 DUP5 PUSH20 0xFFFFFFFFFFFFFFFFFFFFFFFFFFFFFFFFFFFFFFFF AND PUSH20 0xFFFFFFFFFFFFFFFFFFFFFFFFFFFFFFFFFFFFFFFF AND DUP2 MSTORE PUSH1 0x20 ADD SWAP1 DUP2 MSTORE PUSH1 0x20 ADD PUSH0 KECCAK256 SLOAD TIMESTAMP PUSH2 0xF75 SWAP2 SWAP1 PUSH2 0x1241 JUMP JUMPDEST SWAP1 POP PUSH0 PUSH4 0x1E33731 PUSH1 0x2 PUSH0 DUP7 PUSH20 0xFFFFFFFFFFFFFFFFFFFFFFFFFFFFFFFFFFFFFFFF AND PUSH20 0xFFFFFFFFFFFFFFFFFFFFFFFFFFFFFFFFFFFFFFFF AND DUP2 MSTORE PUSH1 0x20 ADD SWAP1 DUP2 MSTORE PUSH1 0x20 ADD PUSH0 KECCAK256 SLOAD PUSH1 0xC8 PUSH2 0xFC7 SWAP2 SWAP1 PUSH2 0x14EF JUMP JUMPDEST PUSH2 0xFD1 SWAP2 SWAP1 PUSH2 0x155D JUMP JUMPDEST SWAP1 POP DUP2 DUP2 PUSH2 0xFDF SWAP2 SWAP1 PUSH2 0x14EF JUMP JUMPDEST SWAP3 POP POP POP SWAP2 SWAP1 POP JUMP JUMPDEST PUSH0 DUP2 SWAP1 POP SWAP2 SWAP1 POP JUMP JUMPDEST PUSH2 0xFFA DUP2 PUSH2 0xFE8 JUMP JUMPDEST DUP3 MSTORE POP POP JUMP JUMPDEST PUSH0 PUSH1 0x20 DUP3 ADD SWAP1 POP PUSH2 0x1013 PUSH0 DUP4 ADD DUP5 PUSH2 0xFF1 JUMP JUMPDEST SWAP3 SWAP2 POP POP JUMP JUMPDEST PUSH0 DUP1 REVERT JUMPDEST PUSH0 PUSH20 0xFFFFFFFFFFFFFFFFFFFFFFFFFFFFFFFFFFFFFFFF DUP3 AND SWAP1 POP SWAP2 SWAP1 POP JUMP JUMPDEST PUSH0 PUSH2 0x1046 DUP3 PUSH2 0x101D JUMP JUMPDEST SWAP1 POP SWAP2 SWAP1 POP JUMP JUMPDEST PUSH2 0x1056 DUP2 PUSH2 0x103C JUMP JUMPDEST DUP2 EQ PUSH2 0x1060 JUMPI PUSH0 DUP1 REVERT JUMPDEST POP JUMP JUMPDEST PUSH0 DUP2 CALLDATALOAD SWAP1 POP PUSH2 0x1071 DUP2 PUSH2 0x104D JUMP JUMPDEST SWAP3 SWAP2 POP POP JUMP JUMPDEST PUSH0 PUSH1 0x20 DUP3 DUP5 SUB SLT ISZERO PUSH2 0x108C JUMPI PUSH2 0x108B PUSH2 0x1019 JUMP JUMPDEST JUMPDEST PUSH0 PUSH2 0x1099 DUP5 DUP3 DUP6 ADD PUSH2 0x1063 JUMP JUMPDEST SWAP2 POP POP SWAP3 SWAP2 POP POP JUMP JUMPDEST PUSH0 DUP2 ISZERO ISZERO SWAP1 POP SWAP2 SWAP1 POP JUMP JUMPDEST PUSH2 0x10B6 DUP2 PUSH2 0x10A2 JUMP JUMPDEST DUP3 MSTORE POP POP JUMP JUMPDEST PUSH0 PUSH1 0x20 DUP3 ADD SWAP1 POP PUSH2 0x10CF PUSH0 DUP4 ADD DUP5 PUSH2 0x10AD JUMP JUMPDEST SWAP3 SWAP2 POP POP JUMP JUMPDEST PUSH0 PUSH2 0x10DF DUP3 PUSH2 0x101D JUMP JUMPDEST SWAP1 POP SWAP2 SWAP1 POP JUMP JUMPDEST PUSH2 0x10EF DUP2 PUSH2 0x10D5 JUMP JUMPDEST DUP3 MSTORE POP POP JUMP JUMPDEST PUSH0 PUSH1 0x20 DUP3 ADD SWAP1 POP PUSH2 0x1108 PUSH0 DUP4 ADD DUP5 PUSH2 0x10E6 JUMP JUMPDEST SWAP3 SWAP2 POP POP JUMP JUMPDEST PUSH0 DUP3 DUP3 MSTORE PUSH1 0x20 DUP3 ADD SWAP1 POP SWAP3 SWAP2 POP POP JUMP JUMPDEST PUSH32 0x4572726F722C206E6F2070726576696F7573206465706F736974000000000000 PUSH0 DUP3 ADD MSTORE POP JUMP JUMPDEST PUSH0 PUSH2 0x1152 PUSH1 0x1A DUP4 PUSH2 0x110E JUMP JUMPDEST SWAP2 POP PUSH2 0x115D DUP3 PUSH2 0x111E JUMP JUMPDEST PUSH1 0x20 DUP3 ADD SWAP1 POP SWAP2 SWAP1 POP JUMP JUMPDEST PUSH0 PUSH1 0x20 DUP3 ADD SWAP1 POP DUP2 DUP2 SUB PUSH0 DUP4 ADD MSTORE PUSH2 0x117F DUP2 PUSH2 0x1146 JUMP JUMPDEST SWAP1 POP SWAP2 SWAP1 POP JUMP JUMPDEST PUSH32 0x5365206465626520656E7669617220616C206D656E6F7320302E303520424E42 PUSH0 DUP3 ADD MSTORE PUSH32 0x20636F6D6F20746173612064652072657469726F000000000000000000000000 PUSH1 0x20 DUP3 ADD MSTORE POP JUMP JUMPDEST PUSH0 PUSH2 0x11E0 PUSH1 0x34 DUP4 PUSH2 0x110E JUMP JUMPDEST SWAP2 POP PUSH2 0x11EB DUP3 PUSH2 0x1186 JUMP JUMPDEST PUSH1 0x40 DUP3 ADD SWAP1 POP SWAP2 SWAP1 POP JUMP JUMPDEST PUSH0 PUSH1 0x20 DUP3 ADD SWAP1 POP DUP2 DUP2 SUB PUSH0 DUP4 ADD MSTORE PUSH2 0x120D DUP2 PUSH2 0x11D4 JUMP JUMPDEST SWAP1 POP SWAP2 SWAP1 POP JUMP JUMPDEST PUSH32 0x4E487B7100000000000000000000000000000000000000000000000000000000 PUSH0 MSTORE PUSH1 0x11 PUSH1 0x4 MSTORE PUSH1 0x24 PUSH0 REVERT JUMPDEST PUSH0 PUSH2 0x124B DUP3 PUSH2 0xFE8 JUMP JUMPDEST SWAP2 POP PUSH2 0x1256 DUP4 PUSH2 0xFE8 JUMP JUMPDEST SWAP3 POP DUP3 DUP3 SUB SWAP1 POP DUP2 DUP2 GT ISZERO PUSH2 0x126E JUMPI PUSH2 0x126D PUSH2 0x1214 JUMP JUMPDEST JUMPDEST SWAP3 SWAP2 POP POP JUMP JUMPDEST PUSH2 0x127D DUP2 PUSH2 0x103C JUMP JUMPDEST DUP3 MSTORE POP POP JUMP JUMPDEST PUSH0 PUSH1 0x40 DUP3 ADD SWAP1 POP PUSH2 0x1296 PUSH0 DUP4 ADD DUP6 PUSH2 0x1274 JUMP JUMPDEST PUSH2 0x12A3 PUSH1 0x20 DUP4 ADD DUP5 PUSH2 0xFF1 JUMP JUMPDEST SWAP4 SWAP3 POP POP POP JUMP JUMPDEST PUSH32 0x456C206D6F6E746F2064656C206465706F7369746F206465626520736572206D PUSH0 DUP3 ADD MSTORE PUSH32 0x61796F7220717565203000000000000000000000000000000000000000000000 PUSH1 0x20 DUP3 ADD MSTORE POP JUMP JUMPDEST PUSH0 PUSH2 0x1304 PUSH1 0x2A DUP4 PUSH2 0x110E JUMP JUMPDEST SWAP2 POP PUSH2 0x130F DUP3 PUSH2 0x12AA JUMP JUMPDEST PUSH1 0x40 DUP3 ADD SWAP1 POP SWAP2 SWAP1 POP JUMP JUMPDEST PUSH0 PUSH1 0x20 DUP3 ADD SWAP1 POP DUP2 DUP2 SUB PUSH0 DUP4 ADD MSTORE PUSH2 0x1331 DUP2 PUSH2 0x12F8 JUMP JUMPDEST SWAP1 POP SWAP2 SWAP1 POP JUMP JUMPDEST PUSH0 PUSH2 0x1342 DUP3 PUSH2 0xFE8 JUMP JUMPDEST SWAP2 POP PUSH2 0x134D DUP4 PUSH2 0xFE8 JUMP JUMPDEST SWAP3 POP DUP3 DUP3 ADD SWAP1 POP DUP1 DUP3 GT ISZERO PUSH2 0x1365 JUMPI PUSH2 0x1364 PUSH2 0x1214 JUMP JUMPDEST JUMPDEST SWAP3 SWAP2 POP POP JUMP JUMPDEST PUSH32 0x4E6F207469656E657320756E206465706F7369746F20657370656369616C2061 PUSH0 DUP3 ADD MSTORE PUSH32 0x637469766F000000000000000000000000000000000000000000000000000000 PUSH1 0x20 DUP3 ADD MSTORE POP JUMP JUMPDEST PUSH0 PUSH2 0x13C5 PUSH1 0x25 DUP4 PUSH2 0x110E JUMP JUMPDEST SWAP2 POP PUSH2 0x13D0 DUP3 PUSH2 0x136B JUMP JUMPDEST PUSH1 0x40 DUP3 ADD SWAP1 POP SWAP2 SWAP1 POP JUMP JUMPDEST PUSH0 PUSH1 0x20 DUP3 ADD SWAP1 POP DUP2 DUP2 SUB PUSH0 DUP4 ADD MSTORE PUSH2 0x13F2 DUP2 PUSH2 0x13B9 JUMP JUMPDEST SWAP1 POP SWAP2 SWAP1 POP JUMP JUMPDEST PUSH32 0x456C2072657469726F20657370656369616C20736F6C6F206573746120646973 PUSH0 DUP3 ADD MSTORE PUSH32 0x706F6E69626C652064657370756573206465203130206D696E75746F73000000 PUSH1 0x20 DUP3 ADD MSTORE POP JUMP JUMPDEST PUSH0 PUSH2 0x1453 PUSH1 0x3D DUP4 PUSH2 0x110E JUMP JUMPDEST SWAP2 POP PUSH2 0x145E DUP3 PUSH2 0x13F9 JUMP JUMPDEST PUSH1 0x40 DUP3 ADD SWAP1 POP SWAP2 SWAP1 POP JUMP JUMPDEST PUSH0 PUSH1 0x20 DUP3 ADD SWAP1 POP DUP2 DUP2 SUB PUSH0 DUP4 ADD MSTORE PUSH2 0x1480 DUP2 PUSH2 0x1447 JUMP JUMPDEST SWAP1 POP SWAP2 SWAP1 POP JUMP JUMPDEST PUSH32 0x4E6F207469656E657320756E206465706F7369746F2061637469766F00000000 PUSH0 DUP3 ADD MSTORE POP JUMP JUMPDEST PUSH0 PUSH2 0x14BB PUSH1 0x1C DUP4 PUSH2 0x110E JUMP JUMPDEST SWAP2 POP PUSH2 0x14C6 DUP3 PUSH2 0x1487 JUMP JUMPDEST PUSH1 0x20 DUP3 ADD SWAP1 POP SWAP2 SWAP1 POP JUMP JUMPDEST PUSH0 PUSH1 0x20 DUP3 ADD SWAP1 POP DUP2 DUP2 SUB PUSH0 DUP4 ADD MSTORE PUSH2 0x14E8 DUP2 PUSH2 0x14AF JUMP JUMPDEST SWAP1 POP SWAP2 SWAP1 POP JUMP JUMPDEST PUSH0 PUSH2 0x14F9 DUP3 PUSH2 0xFE8 JUMP JUMPDEST SWAP2 POP PUSH2 0x1504 DUP4 PUSH2 0xFE8 JUMP JUMPDEST SWAP3 POP DUP3 DUP3 MUL PUSH2 0x1512 DUP2 PUSH2 0xFE8 JUMP JUMPDEST SWAP2 POP DUP3 DUP3 DIV DUP5 EQ DUP4 ISZERO OR PUSH2 0x1529 JUMPI PUSH2 0x1528 PUSH2 0x1214 JUMP JUMPDEST JUMPDEST POP SWAP3 SWAP2 POP POP JUMP JUMPDEST PUSH32 0x4E487B7100000000000000000000000000000000000000000000000000000000 PUSH0 MSTORE PUSH1 0x12 PUSH1 0x4 MSTORE PUSH1 0x24 PUSH0 REVERT JUMPDEST PUSH0 PUSH2 0x1567 DUP3 PUSH2 0xFE8 JUMP JUMPDEST SWAP2 POP PUSH2 0x1572 DUP4 PUSH2 0xFE8 JUMP JUMPDEST SWAP3 POP DUP3 PUSH2 0x1582 JUMPI PUSH2 0x1581 PUSH2 0x1530 JUMP JUMPDEST JUMPDEST DUP3 DUP3 DIV SWAP1 POP SWAP3 SWAP2 POP POP JUMP INVALID LOG2 PUSH5 0x6970667358 0x22 SLT KECCAK256 0xDA 0x1E 0x2E 0xB5 0xE0 0x2E 0xCD NOT 0x2D NOT SWAP12 0x2F LOG2 0xE6 0xF9 PUSH15 0xFF34CD16C6ACD04DB6E8F559F74432 MCOPY PUSH5 0x736F6C6343 STOP ADDMOD BYTE STOP CALLER "
				},
				"gasEstimates": {
					"creation": {
						"codeDepositCost": "1114200",
						"executionCost": "infinite",
						"totalCost": "infinite"
					},
					"external": {
						"calculateInterest()": "infinite",
						"calculateInterestSpecial()": "infinite",
						"clientsBalanceBNB(address)": "2870",
						"deposit()": "infinite",
						"depositTimeStamp(address)": "2846",
						"feeReceiver()": "2553",
						"getDepositBalance()": "2543",
						"getDepositBalanceSpecial()": "2565",
						"isDeposited(address)": "2878",
						"isSpecialDeposited(address)": "2922",
						"specialClientsBalanceBNB(address)": "2824",
						"specialDeposit()": "infinite",
						"specialDepositTimeStamp(address)": "2825",
						"specialWithdraw()": "infinite",
						"withdraw()": "infinite",
						"withdrawalFee()": "2492"
					},
					"internal": {
						"_calculateInterest(address)": "infinite",
						"_calculateSpecialInterest(address)": "infinite"
					}
				},
				"methodIdentifiers": {
					"calculateInterest()": "eb0c4955",
					"calculateInterestSpecial()": "ae6441a3",
					"clientsBalanceBNB(address)": "249ee9e1",
					"deposit()": "d0e30db0",
					"depositTimeStamp(address)": "dff05f82",
					"feeReceiver()": "b3f00674",
					"getDepositBalance()": "0497de4a",
					"getDepositBalanceSpecial()": "12fa90a1",
					"isDeposited(address)": "73732024",
					"isSpecialDeposited(address)": "8ce5fcc9",
					"specialClientsBalanceBNB(address)": "dcc52a48",
					"specialDeposit()": "c8510e4e",
					"specialDepositTimeStamp(address)": "726fe82b",
					"specialWithdraw()": "ed2d7a97",
					"withdraw()": "3ccfd60b",
					"withdrawalFee()": "8bc7e8c4"
				}
			},
			"storageLayout": {
				"storage": [
					{
						"astId": 791,
						"contract": "contracts/Bank.sol:Bank",
						"label": "token",
						"offset": 0,
						"slot": "0",
						"type": "t_contract(Token)1244"
					},
					{
						"astId": 795,
						"contract": "contracts/Bank.sol:Bank",
						"label": "clientsBalanceBNB",
						"offset": 0,
						"slot": "1",
						"type": "t_mapping(t_address,t_uint256)"
					},
					{
						"astId": 799,
						"contract": "contracts/Bank.sol:Bank",
						"label": "specialClientsBalanceBNB",
						"offset": 0,
						"slot": "2",
						"type": "t_mapping(t_address,t_uint256)"
					},
					{
						"astId": 803,
						"contract": "contracts/Bank.sol:Bank",
						"label": "depositTimeStamp",
						"offset": 0,
						"slot": "3",
						"type": "t_mapping(t_address,t_uint256)"
					},
					{
						"astId": 807,
						"contract": "contracts/Bank.sol:Bank",
						"label": "specialDepositTimeStamp",
						"offset": 0,
						"slot": "4",
						"type": "t_mapping(t_address,t_uint256)"
					},
					{
						"astId": 811,
						"contract": "contracts/Bank.sol:Bank",
						"label": "isDeposited",
						"offset": 0,
						"slot": "5",
						"type": "t_mapping(t_address,t_bool)"
					},
					{
						"astId": 815,
						"contract": "contracts/Bank.sol:Bank",
						"label": "isSpecialDeposited",
						"offset": 0,
						"slot": "6",
						"type": "t_mapping(t_address,t_bool)"
					},
					{
						"astId": 821,
						"contract": "contracts/Bank.sol:Bank",
						"label": "feeReceiver",
						"offset": 0,
						"slot": "7",
						"type": "t_address_payable"
					},
					{
						"astId": 824,
						"contract": "contracts/Bank.sol:Bank",
						"label": "withdrawalFee",
						"offset": 0,
						"slot": "8",
						"type": "t_uint256"
					}
				],
				"types": {
					"t_address": {
						"encoding": "inplace",
						"label": "address",
						"numberOfBytes": "20"
					},
					"t_address_payable": {
						"encoding": "inplace",
						"label": "address payable",
						"numberOfBytes": "20"
					},
					"t_bool": {
						"encoding": "inplace",
						"label": "bool",
						"numberOfBytes": "1"
					},
					"t_contract(Token)1244": {
						"encoding": "inplace",
						"label": "contract Token",
						"numberOfBytes": "20"
					},
					"t_mapping(t_address,t_bool)": {
						"encoding": "mapping",
						"key": "t_address",
						"label": "mapping(address => bool)",
						"numberOfBytes": "32",
						"value": "t_bool"
					},
					"t_mapping(t_address,t_uint256)": {
						"encoding": "mapping",
						"key": "t_address",
						"label": "mapping(address => uint256)",
						"numberOfBytes": "32",
						"value": "t_uint256"
					},
					"t_uint256": {
						"encoding": "inplace",
						"label": "uint256",
						"numberOfBytes": "32"
					}
				}
			},
			"userdoc": {
				"kind": "user",
				"methods": {},
				"version": 1
			}
		}
	}
}