{
	"contracts/RealStateContract.sol": {
		"RealStateContractRegistrations": {
			"abi": [
				{
					"inputs": [
						{
							"components": [
								{
									"internalType": "string",
									"name": "city",
									"type": "string"
								},
								{
									"internalType": "string",
									"name": "street",
									"type": "string"
								},
								{
									"internalType": "uint256",
									"name": "number",
									"type": "uint256"
								},
								{
									"internalType": "uint256",
									"name": "meters",
									"type": "uint256"
								},
								{
									"internalType": "uint256",
									"name": "registration",
									"type": "uint256"
								},
								{
									"internalType": "string",
									"name": "owner",
									"type": "string"
								}
							],
							"internalType": "struct Shared.RealState",
							"name": "realState",
							"type": "tuple"
						}
					],
					"name": "addRealState",
					"outputs": [],
					"stateMutability": "nonpayable",
					"type": "function"
				},
				{
					"inputs": [
						{
							"internalType": "uint256",
							"name": "_registration",
							"type": "uint256"
						}
					],
					"name": "deleteRealStateByRegistration",
					"outputs": [],
					"stateMutability": "nonpayable",
					"type": "function"
				},
				{
					"inputs": [
						{
							"internalType": "uint256",
							"name": "_registration",
							"type": "uint256"
						}
					],
					"name": "getRealStateByRegistration",
					"outputs": [
						{
							"components": [
								{
									"internalType": "string",
									"name": "city",
									"type": "string"
								},
								{
									"internalType": "string",
									"name": "street",
									"type": "string"
								},
								{
									"internalType": "uint256",
									"name": "number",
									"type": "uint256"
								},
								{
									"internalType": "uint256",
									"name": "meters",
									"type": "uint256"
								},
								{
									"internalType": "uint256",
									"name": "registration",
									"type": "uint256"
								},
								{
									"internalType": "string",
									"name": "owner",
									"type": "string"
								}
							],
							"internalType": "struct Shared.RealState",
							"name": "",
							"type": "tuple"
						}
					],
					"stateMutability": "view",
					"type": "function"
				},
				{
					"inputs": [
						{
							"internalType": "uint256",
							"name": "",
							"type": "uint256"
						}
					],
					"name": "realStateMap",
					"outputs": [
						{
							"internalType": "string",
							"name": "city",
							"type": "string"
						},
						{
							"internalType": "string",
							"name": "street",
							"type": "string"
						},
						{
							"internalType": "uint256",
							"name": "number",
							"type": "uint256"
						},
						{
							"internalType": "uint256",
							"name": "meters",
							"type": "uint256"
						},
						{
							"internalType": "uint256",
							"name": "registration",
							"type": "uint256"
						},
						{
							"internalType": "string",
							"name": "owner",
							"type": "string"
						}
					],
					"stateMutability": "view",
					"type": "function"
				}
			],
			"devdoc": {
				"kind": "dev",
				"methods": {},
				"version": 1
			},
			"evm": {
				"assembly": "    /* \"contracts/RealStateContract.sol\":260:1184  contract RealStateContractRegistrations {... */\n  mstore(0x40, 0x80)\n  callvalue\n  dup1\n  iszero\n  tag_1\n  jumpi\n  0x00\n  dup1\n  revert\ntag_1:\n  pop\n  dataSize(sub_0)\n  dup1\n  dataOffset(sub_0)\n  0x00\n  codecopy\n  0x00\n  return\nstop\n\nsub_0: assembly {\n        /* \"contracts/RealStateContract.sol\":260:1184  contract RealStateContractRegistrations {... */\n      mstore(0x40, 0x80)\n      callvalue\n      dup1\n      iszero\n      tag_1\n      jumpi\n      0x00\n      dup1\n      revert\n    tag_1:\n      pop\n      jumpi(tag_2, lt(calldatasize, 0x04))\n      shr(0xe0, calldataload(0x00))\n      dup1\n      0x12e6c943\n      eq\n      tag_3\n      jumpi\n      dup1\n      0x2c233de6\n      eq\n      tag_4\n      jumpi\n      dup1\n      0x82e27eab\n      eq\n      tag_5\n      jumpi\n      dup1\n      0x8324aa5b\n      eq\n      tag_6\n      jumpi\n    tag_2:\n      0x00\n      dup1\n      revert\n        /* \"contracts/RealStateContract.sol\":307:360  mapping(uint => Shared.RealState) public realStateMap */\n    tag_3:\n      tag_7\n      0x04\n      dup1\n      calldatasize\n      sub\n      dup2\n      add\n      swap1\n      tag_8\n      swap2\n      swap1\n      tag_9\n      jump\t// in\n    tag_8:\n      tag_10\n      jump\t// in\n    tag_7:\n      mload(0x40)\n      tag_11\n      swap7\n      swap6\n      swap5\n      swap4\n      swap3\n      swap2\n      swap1\n      tag_12\n      jump\t// in\n    tag_11:\n      mload(0x40)\n      dup1\n      swap2\n      sub\n      swap1\n      return\n        /* \"contracts/RealStateContract.sol\":681:941  function addRealState(Shared.RealState calldata realState) public {... */\n    tag_4:\n      tag_13\n      0x04\n      dup1\n      calldatasize\n      sub\n      dup2\n      add\n      swap1\n      tag_14\n      swap2\n      swap1\n      tag_15\n      jump\t// in\n    tag_14:\n      tag_16\n      jump\t// in\n    tag_13:\n      stop\n        /* \"contracts/RealStateContract.sol\":369:673  function getRealStateByRegistration(uint _registration) public view returns (Shared.RealState memory) {... */\n    tag_5:\n      tag_17\n      0x04\n      dup1\n      calldatasize\n      sub\n      dup2\n      add\n      swap1\n      tag_18\n      swap2\n      swap1\n      tag_9\n      jump\t// in\n    tag_18:\n      tag_19\n      jump\t// in\n    tag_17:\n      mload(0x40)\n      tag_20\n      swap2\n      swap1\n      tag_21\n      jump\t// in\n    tag_20:\n      mload(0x40)\n      dup1\n      swap2\n      sub\n      swap1\n      return\n        /* \"contracts/RealStateContract.sol\":949:1179  function deleteRealStateByRegistration(uint _registration) public {... */\n    tag_6:\n      tag_22\n      0x04\n      dup1\n      calldatasize\n      sub\n      dup2\n      add\n      swap1\n      tag_23\n      swap2\n      swap1\n      tag_9\n      jump\t// in\n    tag_23:\n      tag_24\n      jump\t// in\n    tag_22:\n      stop\n        /* \"contracts/RealStateContract.sol\":307:360  mapping(uint => Shared.RealState) public realStateMap */\n    tag_10:\n      mstore(0x20, 0x00)\n      dup1\n      0x00\n      mstore\n      keccak256(0x00, 0x40)\n      0x00\n      swap2\n      pop\n      swap1\n      pop\n      dup1\n      0x00\n      add\n      dup1\n      sload\n      tag_25\n      swap1\n      tag_26\n      jump\t// in\n    tag_25:\n      dup1\n      0x1f\n      add\n      0x20\n      dup1\n      swap2\n      div\n      mul\n      0x20\n      add\n      mload(0x40)\n      swap1\n      dup2\n      add\n      0x40\n      mstore\n      dup1\n      swap3\n      swap2\n      swap1\n      dup2\n      dup2\n      mstore\n      0x20\n      add\n      dup3\n      dup1\n      sload\n      tag_27\n      swap1\n      tag_26\n      jump\t// in\n    tag_27:\n      dup1\n      iszero\n      tag_28\n      jumpi\n      dup1\n      0x1f\n      lt\n      tag_29\n      jumpi\n      0x0100\n      dup1\n      dup4\n      sload\n      div\n      mul\n      dup4\n      mstore\n      swap2\n      0x20\n      add\n      swap2\n      jump(tag_28)\n    tag_29:\n      dup3\n      add\n      swap2\n      swap1\n      0x00\n      mstore\n      keccak256(0x00, 0x20)\n      swap1\n    tag_30:\n      dup2\n      sload\n      dup2\n      mstore\n      swap1\n      0x01\n      add\n      swap1\n      0x20\n      add\n      dup1\n      dup4\n      gt\n      tag_30\n      jumpi\n      dup3\n      swap1\n      sub\n      0x1f\n      and\n      dup3\n      add\n      swap2\n    tag_28:\n      pop\n      pop\n      pop\n      pop\n      pop\n      swap1\n      dup1\n      0x01\n      add\n      dup1\n      sload\n      tag_31\n      swap1\n      tag_26\n      jump\t// in\n    tag_31:\n      dup1\n      0x1f\n      add\n      0x20\n      dup1\n      swap2\n      div\n      mul\n      0x20\n      add\n      mload(0x40)\n      swap1\n      dup2\n      add\n      0x40\n      mstore\n      dup1\n      swap3\n      swap2\n      swap1\n      dup2\n      dup2\n      mstore\n      0x20\n      add\n      dup3\n      dup1\n      sload\n      tag_32\n      swap1\n      tag_26\n      jump\t// in\n    tag_32:\n      dup1\n      iszero\n      tag_33\n      jumpi\n      dup1\n      0x1f\n      lt\n      tag_34\n      jumpi\n      0x0100\n      dup1\n      dup4\n      sload\n      div\n      mul\n      dup4\n      mstore\n      swap2\n      0x20\n      add\n      swap2\n      jump(tag_33)\n    tag_34:\n      dup3\n      add\n      swap2\n      swap1\n      0x00\n      mstore\n      keccak256(0x00, 0x20)\n      swap1\n    tag_35:\n      dup2\n      sload\n      dup2\n      mstore\n      swap1\n      0x01\n      add\n      swap1\n      0x20\n      add\n      dup1\n      dup4\n      gt\n      tag_35\n      jumpi\n      dup3\n      swap1\n      sub\n      0x1f\n      and\n      dup3\n      add\n      swap2\n    tag_33:\n      pop\n      pop\n      pop\n      pop\n      pop\n      swap1\n      dup1\n      0x02\n      add\n      sload\n      swap1\n      dup1\n      0x03\n      add\n      sload\n      swap1\n      dup1\n      0x04\n      add\n      sload\n      swap1\n      dup1\n      0x05\n      add\n      dup1\n      sload\n      tag_36\n      swap1\n      tag_26\n      jump\t// in\n    tag_36:\n      dup1\n      0x1f\n      add\n      0x20\n      dup1\n      swap2\n      div\n      mul\n      0x20\n      add\n      mload(0x40)\n      swap1\n      dup2\n      add\n      0x40\n      mstore\n      dup1\n      swap3\n      swap2\n      swap1\n      dup2\n      dup2\n      mstore\n      0x20\n      add\n      dup3\n      dup1\n      sload\n      tag_37\n      swap1\n      tag_26\n      jump\t// in\n    tag_37:\n      dup1\n      iszero\n      tag_38\n      jumpi\n      dup1\n      0x1f\n      lt\n      tag_39\n      jumpi\n      0x0100\n      dup1\n      dup4\n      sload\n      div\n      mul\n      dup4\n      mstore\n      swap2\n      0x20\n      add\n      swap2\n      jump(tag_38)\n    tag_39:\n      dup3\n      add\n      swap2\n      swap1\n      0x00\n      mstore\n      keccak256(0x00, 0x20)\n      swap1\n    tag_40:\n      dup2\n      sload\n      dup2\n      mstore\n      swap1\n      0x01\n      add\n      swap1\n      0x20\n      add\n      dup1\n      dup4\n      gt\n      tag_40\n      jumpi\n      dup3\n      swap1\n      sub\n      0x1f\n      and\n      dup3\n      add\n      swap2\n    tag_38:\n      pop\n      pop\n      pop\n      pop\n      pop\n      swap1\n      pop\n      dup7\n      jump\t// out\n        /* \"contracts/RealStateContract.sol\":681:941  function addRealState(Shared.RealState calldata realState) public {... */\n    tag_16:\n        /* \"contracts/RealStateContract.sol\":924:933  realState */\n      dup1\n        /* \"contracts/RealStateContract.sol\":885:897  realStateMap */\n      0x00\n        /* \"contracts/RealStateContract.sol\":885:921  realStateMap[realState.registration] */\n      dup1\n        /* \"contracts/RealStateContract.sol\":898:907  realState */\n      dup4\n        /* \"contracts/RealStateContract.sol\":898:920  realState.registration */\n      0x80\n      add\n      calldataload\n        /* \"contracts/RealStateContract.sol\":885:921  realStateMap[realState.registration] */\n      dup2\n      mstore\n      0x20\n      add\n      swap1\n      dup2\n      mstore\n      0x20\n      add\n      0x00\n      keccak256\n        /* \"contracts/RealStateContract.sol\":885:933  realStateMap[realState.registration] = realState */\n      dup2\n      dup2\n      tag_42\n      swap2\n      swap1\n      tag_43\n      jump\t// in\n    tag_42:\n      swap1\n      pop\n      pop\n        /* \"contracts/RealStateContract.sol\":681:941  function addRealState(Shared.RealState calldata realState) public {... */\n      pop\n      jump\t// out\n        /* \"contracts/RealStateContract.sol\":369:673  function getRealStateByRegistration(uint _registration) public view returns (Shared.RealState memory) {... */\n    tag_19:\n        /* \"contracts/RealStateContract.sol\":446:469  Shared.RealState memory */\n      tag_44\n      tag_45\n      jump\t// in\n    tag_44:\n        /* \"contracts/RealStateContract.sol\":482:515  Shared.RealState memory realState */\n      0x00\n        /* \"contracts/RealStateContract.sol\":518:530  realStateMap */\n      dup1\n        /* \"contracts/RealStateContract.sol\":518:545  realStateMap[_registration] */\n      0x00\n        /* \"contracts/RealStateContract.sol\":531:544  _registration */\n      dup5\n        /* \"contracts/RealStateContract.sol\":518:545  realStateMap[_registration] */\n      dup2\n      mstore\n      0x20\n      add\n      swap1\n      dup2\n      mstore\n      0x20\n      add\n      0x00\n      keccak256\n        /* \"contracts/RealStateContract.sol\":482:545  Shared.RealState memory realState = realStateMap[_registration] */\n      mload(0x40)\n      dup1\n      0xc0\n      add\n      0x40\n      mstore\n      swap1\n      dup2\n      0x00\n      dup3\n      add\n      dup1\n      sload\n      tag_47\n      swap1\n      tag_26\n      jump\t// in\n    tag_47:\n      dup1\n      0x1f\n      add\n      0x20\n      dup1\n      swap2\n      div\n      mul\n      0x20\n      add\n      mload(0x40)\n      swap1\n      dup2\n      add\n      0x40\n      mstore\n      dup1\n      swap3\n      swap2\n      swap1\n      dup2\n      dup2\n      mstore\n      0x20\n      add\n      dup3\n      dup1\n      sload\n      tag_48\n      swap1\n      tag_26\n      jump\t// in\n    tag_48:\n      dup1\n      iszero\n      tag_49\n      jumpi\n      dup1\n      0x1f\n      lt\n      tag_50\n      jumpi\n      0x0100\n      dup1\n      dup4\n      sload\n      div\n      mul\n      dup4\n      mstore\n      swap2\n      0x20\n      add\n      swap2\n      jump(tag_49)\n    tag_50:\n      dup3\n      add\n      swap2\n      swap1\n      0x00\n      mstore\n      keccak256(0x00, 0x20)\n      swap1\n    tag_51:\n      dup2\n      sload\n      dup2\n      mstore\n      swap1\n      0x01\n      add\n      swap1\n      0x20\n      add\n      dup1\n      dup4\n      gt\n      tag_51\n      jumpi\n      dup3\n      swap1\n      sub\n      0x1f\n      and\n      dup3\n      add\n      swap2\n    tag_49:\n      pop\n      pop\n      pop\n      pop\n      pop\n      dup2\n      mstore\n      0x20\n      add\n      0x01\n      dup3\n      add\n      dup1\n      sload\n      tag_52\n      swap1\n      tag_26\n      jump\t// in\n    tag_52:\n      dup1\n      0x1f\n      add\n      0x20\n      dup1\n      swap2\n      div\n      mul\n      0x20\n      add\n      mload(0x40)\n      swap1\n      dup2\n      add\n      0x40\n      mstore\n      dup1\n      swap3\n      swap2\n      swap1\n      dup2\n      dup2\n      mstore\n      0x20\n      add\n      dup3\n      dup1\n      sload\n      tag_53\n      swap1\n      tag_26\n      jump\t// in\n    tag_53:\n      dup1\n      iszero\n      tag_54\n      jumpi\n      dup1\n      0x1f\n      lt\n      tag_55\n      jumpi\n      0x0100\n      dup1\n      dup4\n      sload\n      div\n      mul\n      dup4\n      mstore\n      swap2\n      0x20\n      add\n      swap2\n      jump(tag_54)\n    tag_55:\n      dup3\n      add\n      swap2\n      swap1\n      0x00\n      mstore\n      keccak256(0x00, 0x20)\n      swap1\n    tag_56:\n      dup2\n      sload\n      dup2\n      mstore\n      swap1\n      0x01\n      add\n      swap1\n      0x20\n      add\n      dup1\n      dup4\n      gt\n      tag_56\n      jumpi\n      dup3\n      swap1\n      sub\n      0x1f\n      and\n      dup3\n      add\n      swap2\n    tag_54:\n      pop\n      pop\n      pop\n      pop\n      pop\n      dup2\n      mstore\n      0x20\n      add\n      0x02\n      dup3\n      add\n      sload\n      dup2\n      mstore\n      0x20\n      add\n      0x03\n      dup3\n      add\n      sload\n      dup2\n      mstore\n      0x20\n      add\n      0x04\n      dup3\n      add\n      sload\n      dup2\n      mstore\n      0x20\n      add\n      0x05\n      dup3\n      add\n      dup1\n      sload\n      tag_57\n      swap1\n      tag_26\n      jump\t// in\n    tag_57:\n      dup1\n      0x1f\n      add\n      0x20\n      dup1\n      swap2\n      div\n      mul\n      0x20\n      add\n      mload(0x40)\n      swap1\n      dup2\n      add\n      0x40\n      mstore\n      dup1\n      swap3\n      swap2\n      swap1\n      dup2\n      dup2\n      mstore\n      0x20\n      add\n      dup3\n      dup1\n      sload\n      tag_58\n      swap1\n      tag_26\n      jump\t// in\n    tag_58:\n      dup1\n      iszero\n      tag_59\n      jumpi\n      dup1\n      0x1f\n      lt\n      tag_60\n      jumpi\n      0x0100\n      dup1\n      dup4\n      sload\n      div\n      mul\n      dup4\n      mstore\n      swap2\n      0x20\n      add\n      swap2\n      jump(tag_59)\n    tag_60:\n      dup3\n      add\n      swap2\n      swap1\n      0x00\n      mstore\n      keccak256(0x00, 0x20)\n      swap1\n    tag_61:\n      dup2\n      sload\n      dup2\n      mstore\n      swap1\n      0x01\n      add\n      swap1\n      0x20\n      add\n      dup1\n      dup4\n      gt\n      tag_61\n      jumpi\n      dup3\n      swap1\n      sub\n      0x1f\n      and\n      dup3\n      add\n      swap2\n    tag_59:\n      pop\n      pop\n      pop\n      pop\n      pop\n      dup2\n      mstore\n      pop\n      pop\n      swap1\n      pop\n        /* \"contracts/RealStateContract.sol\":590:591  0 */\n      0x00\n        /* \"contracts/RealStateContract.sol\":564:573  realState */\n      dup2\n        /* \"contracts/RealStateContract.sol\":564:586  realState.registration */\n      0x80\n      add\n      mload\n        /* \"contracts/RealStateContract.sol\":564:591  realState.registration != 0 */\n      sub\n        /* \"contracts/RealStateContract.sol\":556:638  require(realState.registration != 0, \"Not found RealState with this registration\") */\n      tag_62\n      jumpi\n      mload(0x40)\n      0x08c379a000000000000000000000000000000000000000000000000000000000\n      dup2\n      mstore\n      0x04\n      add\n      tag_63\n      swap1\n      tag_64\n      jump\t// in\n    tag_63:\n      mload(0x40)\n      dup1\n      swap2\n      sub\n      swap1\n      revert\n    tag_62:\n        /* \"contracts/RealStateContract.sol\":656:665  realState */\n      dup1\n        /* \"contracts/RealStateContract.sol\":649:665  return realState */\n      swap2\n      pop\n      pop\n        /* \"contracts/RealStateContract.sol\":369:673  function getRealStateByRegistration(uint _registration) public view returns (Shared.RealState memory) {... */\n      swap2\n      swap1\n      pop\n      jump\t// out\n        /* \"contracts/RealStateContract.sol\":949:1179  function deleteRealStateByRegistration(uint _registration) public {... */\n    tag_24:\n        /* \"contracts/RealStateContract.sol\":1078:1079  0 */\n      0x00\n        /* \"contracts/RealStateContract.sol\":1034:1046  realStateMap */\n      dup1\n        /* \"contracts/RealStateContract.sol\":1034:1061  realStateMap[_registration] */\n      0x00\n        /* \"contracts/RealStateContract.sol\":1047:1060  _registration */\n      dup4\n        /* \"contracts/RealStateContract.sol\":1034:1061  realStateMap[_registration] */\n      dup2\n      mstore\n      0x20\n      add\n      swap1\n      dup2\n      mstore\n      0x20\n      add\n      0x00\n      keccak256\n        /* \"contracts/RealStateContract.sol\":1034:1074  realStateMap[_registration].registration */\n      0x04\n      add\n      sload\n        /* \"contracts/RealStateContract.sol\":1034:1079  realStateMap[_registration].registration != 0 */\n      sub\n        /* \"contracts/RealStateContract.sol\":1026:1126  require(realStateMap[_registration].registration != 0, \"Not found RealState with this registration\") */\n      tag_66\n      jumpi\n      mload(0x40)\n      0x08c379a000000000000000000000000000000000000000000000000000000000\n      dup2\n      mstore\n      0x04\n      add\n      tag_67\n      swap1\n      tag_64\n      jump\t// in\n    tag_67:\n      mload(0x40)\n      dup1\n      swap2\n      sub\n      swap1\n      revert\n    tag_66:\n        /* \"contracts/RealStateContract.sol\":1144:1156  realStateMap */\n      0x00\n        /* \"contracts/RealStateContract.sol\":1144:1171  realStateMap[_registration] */\n      dup1\n        /* \"contracts/RealStateContract.sol\":1157:1170  _registration */\n      dup3\n        /* \"contracts/RealStateContract.sol\":1144:1171  realStateMap[_registration] */\n      dup2\n      mstore\n      0x20\n      add\n      swap1\n      dup2\n      mstore\n      0x20\n      add\n      0x00\n      keccak256\n      0x00\n        /* \"contracts/RealStateContract.sol\":1137:1171  delete realStateMap[_registration] */\n      dup1\n      dup3\n      add\n      0x00\n      tag_68\n      swap2\n      swap1\n      tag_69\n      jump\t// in\n    tag_68:\n      0x01\n      dup3\n      add\n      0x00\n      tag_70\n      swap2\n      swap1\n      tag_69\n      jump\t// in\n    tag_70:\n      0x02\n      dup3\n      add\n      0x00\n      swap1\n      sstore\n      0x03\n      dup3\n      add\n      0x00\n      swap1\n      sstore\n      0x04\n      dup3\n      add\n      0x00\n      swap1\n      sstore\n      0x05\n      dup3\n      add\n      0x00\n      tag_71\n      swap2\n      swap1\n      tag_69\n      jump\t// in\n    tag_71:\n      pop\n      pop\n        /* \"contracts/RealStateContract.sol\":949:1179  function deleteRealStateByRegistration(uint _registration) public {... */\n      pop\n      jump\t// out\n    tag_45:\n      mload(0x40)\n      dup1\n      0xc0\n      add\n      0x40\n      mstore\n      dup1\n      0x60\n      dup2\n      mstore\n      0x20\n      add\n      0x60\n      dup2\n      mstore\n      0x20\n      add\n      0x00\n      dup2\n      mstore\n      0x20\n      add\n      0x00\n      dup2\n      mstore\n      0x20\n      add\n      0x00\n      dup2\n      mstore\n      0x20\n      add\n      0x60\n      dup2\n      mstore\n      pop\n      swap1\n      jump\t// out\n    tag_69:\n      pop\n      dup1\n      sload\n      tag_72\n      swap1\n      tag_26\n      jump\t// in\n    tag_72:\n      0x00\n      dup3\n      sstore\n      dup1\n      0x1f\n      lt\n      tag_74\n      jumpi\n      pop\n      jump(tag_73)\n    tag_74:\n      0x1f\n      add\n      0x20\n      swap1\n      div\n      swap1\n      0x00\n      mstore\n      keccak256(0x00, 0x20)\n      swap1\n      dup2\n      add\n      swap1\n      tag_75\n      swap2\n      swap1\n      tag_76\n      jump\t// in\n    tag_75:\n    tag_73:\n      pop\n      jump\t// out\n    tag_76:\n    tag_77:\n      dup1\n      dup3\n      gt\n      iszero\n      tag_78\n      jumpi\n      0x00\n      dup2\n      0x00\n      swap1\n      sstore\n      pop\n      0x01\n      add\n      jump(tag_77)\n    tag_78:\n      pop\n      swap1\n      jump\t// out\n        /* \"#utility.yul\":88:205   */\n    tag_80:\n        /* \"#utility.yul\":197:198   */\n      0x00\n        /* \"#utility.yul\":194:195   */\n      dup1\n        /* \"#utility.yul\":187:199   */\n      revert\n        /* \"#utility.yul\":211:328   */\n    tag_81:\n        /* \"#utility.yul\":320:321   */\n      0x00\n        /* \"#utility.yul\":317:318   */\n      dup1\n        /* \"#utility.yul\":310:322   */\n      revert\n        /* \"#utility.yul\":334:411   */\n    tag_82:\n        /* \"#utility.yul\":371:378   */\n      0x00\n        /* \"#utility.yul\":400:405   */\n      dup2\n        /* \"#utility.yul\":389:405   */\n      swap1\n      pop\n        /* \"#utility.yul\":334:411   */\n      swap2\n      swap1\n      pop\n      jump\t// out\n        /* \"#utility.yul\":417:539   */\n    tag_83:\n        /* \"#utility.yul\":490:514   */\n      tag_135\n        /* \"#utility.yul\":508:513   */\n      dup2\n        /* \"#utility.yul\":490:514   */\n      tag_82\n      jump\t// in\n    tag_135:\n        /* \"#utility.yul\":483:488   */\n      dup2\n        /* \"#utility.yul\":480:515   */\n      eq\n        /* \"#utility.yul\":470:533   */\n      tag_136\n      jumpi\n        /* \"#utility.yul\":529:530   */\n      0x00\n        /* \"#utility.yul\":526:527   */\n      dup1\n        /* \"#utility.yul\":519:531   */\n      revert\n        /* \"#utility.yul\":470:533   */\n    tag_136:\n        /* \"#utility.yul\":417:539   */\n      pop\n      jump\t// out\n        /* \"#utility.yul\":545:684   */\n    tag_84:\n        /* \"#utility.yul\":591:596   */\n      0x00\n        /* \"#utility.yul\":629:635   */\n      dup2\n        /* \"#utility.yul\":616:636   */\n      calldataload\n        /* \"#utility.yul\":607:636   */\n      swap1\n      pop\n        /* \"#utility.yul\":645:678   */\n      tag_138\n        /* \"#utility.yul\":672:677   */\n      dup2\n        /* \"#utility.yul\":645:678   */\n      tag_83\n      jump\t// in\n    tag_138:\n        /* \"#utility.yul\":545:684   */\n      swap3\n      swap2\n      pop\n      pop\n      jump\t// out\n        /* \"#utility.yul\":690:1019   */\n    tag_9:\n        /* \"#utility.yul\":749:755   */\n      0x00\n        /* \"#utility.yul\":798:800   */\n      0x20\n        /* \"#utility.yul\":786:795   */\n      dup3\n        /* \"#utility.yul\":777:784   */\n      dup5\n        /* \"#utility.yul\":773:796   */\n      sub\n        /* \"#utility.yul\":769:801   */\n      slt\n        /* \"#utility.yul\":766:885   */\n      iszero\n      tag_140\n      jumpi\n        /* \"#utility.yul\":804:883   */\n      tag_141\n      tag_80\n      jump\t// in\n    tag_141:\n        /* \"#utility.yul\":766:885   */\n    tag_140:\n        /* \"#utility.yul\":924:925   */\n      0x00\n        /* \"#utility.yul\":949:1002   */\n      tag_142\n        /* \"#utility.yul\":994:1001   */\n      dup5\n        /* \"#utility.yul\":985:991   */\n      dup3\n        /* \"#utility.yul\":974:983   */\n      dup6\n        /* \"#utility.yul\":970:992   */\n      add\n        /* \"#utility.yul\":949:1002   */\n      tag_84\n      jump\t// in\n    tag_142:\n        /* \"#utility.yul\":939:1002   */\n      swap2\n      pop\n        /* \"#utility.yul\":895:1012   */\n      pop\n        /* \"#utility.yul\":690:1019   */\n      swap3\n      swap2\n      pop\n      pop\n      jump\t// out\n        /* \"#utility.yul\":1025:1124   */\n    tag_85:\n        /* \"#utility.yul\":1077:1083   */\n      0x00\n        /* \"#utility.yul\":1111:1116   */\n      dup2\n        /* \"#utility.yul\":1105:1117   */\n      mload\n        /* \"#utility.yul\":1095:1117   */\n      swap1\n      pop\n        /* \"#utility.yul\":1025:1124   */\n      swap2\n      swap1\n      pop\n      jump\t// out\n        /* \"#utility.yul\":1130:1299   */\n    tag_86:\n        /* \"#utility.yul\":1214:1225   */\n      0x00\n        /* \"#utility.yul\":1248:1254   */\n      dup3\n        /* \"#utility.yul\":1243:1246   */\n      dup3\n        /* \"#utility.yul\":1236:1255   */\n      mstore\n        /* \"#utility.yul\":1288:1292   */\n      0x20\n        /* \"#utility.yul\":1283:1286   */\n      dup3\n        /* \"#utility.yul\":1279:1293   */\n      add\n        /* \"#utility.yul\":1264:1293   */\n      swap1\n      pop\n        /* \"#utility.yul\":1130:1299   */\n      swap3\n      swap2\n      pop\n      pop\n      jump\t// out\n        /* \"#utility.yul\":1305:1444   */\n    tag_87:\n        /* \"#utility.yul\":1394:1400   */\n      dup3\n        /* \"#utility.yul\":1389:1392   */\n      dup2\n        /* \"#utility.yul\":1384:1387   */\n      dup4\n        /* \"#utility.yul\":1378:1401   */\n      mcopy\n        /* \"#utility.yul\":1435:1436   */\n      0x00\n        /* \"#utility.yul\":1426:1432   */\n      dup4\n        /* \"#utility.yul\":1421:1424   */\n      dup4\n        /* \"#utility.yul\":1417:1433   */\n      add\n        /* \"#utility.yul\":1410:1437   */\n      mstore\n        /* \"#utility.yul\":1305:1444   */\n      pop\n      pop\n      pop\n      jump\t// out\n        /* \"#utility.yul\":1450:1552   */\n    tag_88:\n        /* \"#utility.yul\":1491:1497   */\n      0x00\n        /* \"#utility.yul\":1542:1544   */\n      0x1f\n        /* \"#utility.yul\":1538:1545   */\n      not\n        /* \"#utility.yul\":1533:1535   */\n      0x1f\n        /* \"#utility.yul\":1526:1531   */\n      dup4\n        /* \"#utility.yul\":1522:1536   */\n      add\n        /* \"#utility.yul\":1518:1546   */\n      and\n        /* \"#utility.yul\":1508:1546   */\n      swap1\n      pop\n        /* \"#utility.yul\":1450:1552   */\n      swap2\n      swap1\n      pop\n      jump\t// out\n        /* \"#utility.yul\":1558:1935   */\n    tag_89:\n        /* \"#utility.yul\":1646:1649   */\n      0x00\n        /* \"#utility.yul\":1674:1713   */\n      tag_148\n        /* \"#utility.yul\":1707:1712   */\n      dup3\n        /* \"#utility.yul\":1674:1713   */\n      tag_85\n      jump\t// in\n    tag_148:\n        /* \"#utility.yul\":1729:1800   */\n      tag_149\n        /* \"#utility.yul\":1793:1799   */\n      dup2\n        /* \"#utility.yul\":1788:1791   */\n      dup6\n        /* \"#utility.yul\":1729:1800   */\n      tag_86\n      jump\t// in\n    tag_149:\n        /* \"#utility.yul\":1722:1800   */\n      swap4\n      pop\n        /* \"#utility.yul\":1809:1874   */\n      tag_150\n        /* \"#utility.yul\":1867:1873   */\n      dup2\n        /* \"#utility.yul\":1862:1865   */\n      dup6\n        /* \"#utility.yul\":1855:1859   */\n      0x20\n        /* \"#utility.yul\":1848:1853   */\n      dup7\n        /* \"#utility.yul\":1844:1860   */\n      add\n        /* \"#utility.yul\":1809:1874   */\n      tag_87\n      jump\t// in\n    tag_150:\n        /* \"#utility.yul\":1899:1928   */\n      tag_151\n        /* \"#utility.yul\":1921:1927   */\n      dup2\n        /* \"#utility.yul\":1899:1928   */\n      tag_88\n      jump\t// in\n    tag_151:\n        /* \"#utility.yul\":1894:1897   */\n      dup5\n        /* \"#utility.yul\":1890:1929   */\n      add\n        /* \"#utility.yul\":1883:1929   */\n      swap2\n      pop\n        /* \"#utility.yul\":1650:1935   */\n      pop\n        /* \"#utility.yul\":1558:1935   */\n      swap3\n      swap2\n      pop\n      pop\n      jump\t// out\n        /* \"#utility.yul\":1941:2059   */\n    tag_90:\n        /* \"#utility.yul\":2028:2052   */\n      tag_153\n        /* \"#utility.yul\":2046:2051   */\n      dup2\n        /* \"#utility.yul\":2028:2052   */\n      tag_82\n      jump\t// in\n    tag_153:\n        /* \"#utility.yul\":2023:2026   */\n      dup3\n        /* \"#utility.yul\":2016:2053   */\n      mstore\n        /* \"#utility.yul\":1941:2059   */\n      pop\n      pop\n      jump\t// out\n        /* \"#utility.yul\":2065:3113   */\n    tag_12:\n        /* \"#utility.yul\":2358:2362   */\n      0x00\n        /* \"#utility.yul\":2396:2399   */\n      0xc0\n        /* \"#utility.yul\":2385:2394   */\n      dup3\n        /* \"#utility.yul\":2381:2400   */\n      add\n        /* \"#utility.yul\":2373:2400   */\n      swap1\n      pop\n        /* \"#utility.yul\":2446:2455   */\n      dup2\n        /* \"#utility.yul\":2440:2444   */\n      dup2\n        /* \"#utility.yul\":2436:2456   */\n      sub\n        /* \"#utility.yul\":2432:2433   */\n      0x00\n        /* \"#utility.yul\":2421:2430   */\n      dup4\n        /* \"#utility.yul\":2417:2434   */\n      add\n        /* \"#utility.yul\":2410:2457   */\n      mstore\n        /* \"#utility.yul\":2474:2552   */\n      tag_155\n        /* \"#utility.yul\":2547:2551   */\n      dup2\n        /* \"#utility.yul\":2538:2544   */\n      dup10\n        /* \"#utility.yul\":2474:2552   */\n      tag_89\n      jump\t// in\n    tag_155:\n        /* \"#utility.yul\":2466:2552   */\n      swap1\n      pop\n        /* \"#utility.yul\":2599:2608   */\n      dup2\n        /* \"#utility.yul\":2593:2597   */\n      dup2\n        /* \"#utility.yul\":2589:2609   */\n      sub\n        /* \"#utility.yul\":2584:2586   */\n      0x20\n        /* \"#utility.yul\":2573:2582   */\n      dup4\n        /* \"#utility.yul\":2569:2587   */\n      add\n        /* \"#utility.yul\":2562:2610   */\n      mstore\n        /* \"#utility.yul\":2627:2705   */\n      tag_156\n        /* \"#utility.yul\":2700:2704   */\n      dup2\n        /* \"#utility.yul\":2691:2697   */\n      dup9\n        /* \"#utility.yul\":2627:2705   */\n      tag_89\n      jump\t// in\n    tag_156:\n        /* \"#utility.yul\":2619:2705   */\n      swap1\n      pop\n        /* \"#utility.yul\":2715:2787   */\n      tag_157\n        /* \"#utility.yul\":2783:2785   */\n      0x40\n        /* \"#utility.yul\":2772:2781   */\n      dup4\n        /* \"#utility.yul\":2768:2786   */\n      add\n        /* \"#utility.yul\":2759:2765   */\n      dup8\n        /* \"#utility.yul\":2715:2787   */\n      tag_90\n      jump\t// in\n    tag_157:\n        /* \"#utility.yul\":2797:2869   */\n      tag_158\n        /* \"#utility.yul\":2865:2867   */\n      0x60\n        /* \"#utility.yul\":2854:2863   */\n      dup4\n        /* \"#utility.yul\":2850:2868   */\n      add\n        /* \"#utility.yul\":2841:2847   */\n      dup7\n        /* \"#utility.yul\":2797:2869   */\n      tag_90\n      jump\t// in\n    tag_158:\n        /* \"#utility.yul\":2879:2952   */\n      tag_159\n        /* \"#utility.yul\":2947:2950   */\n      0x80\n        /* \"#utility.yul\":2936:2945   */\n      dup4\n        /* \"#utility.yul\":2932:2951   */\n      add\n        /* \"#utility.yul\":2923:2929   */\n      dup6\n        /* \"#utility.yul\":2879:2952   */\n      tag_90\n      jump\t// in\n    tag_159:\n        /* \"#utility.yul\":3000:3009   */\n      dup2\n        /* \"#utility.yul\":2994:2998   */\n      dup2\n        /* \"#utility.yul\":2990:3010   */\n      sub\n        /* \"#utility.yul\":2984:2987   */\n      0xa0\n        /* \"#utility.yul\":2973:2982   */\n      dup4\n        /* \"#utility.yul\":2969:2988   */\n      add\n        /* \"#utility.yul\":2962:3011   */\n      mstore\n        /* \"#utility.yul\":3028:3106   */\n      tag_160\n        /* \"#utility.yul\":3101:3105   */\n      dup2\n        /* \"#utility.yul\":3092:3098   */\n      dup5\n        /* \"#utility.yul\":3028:3106   */\n      tag_89\n      jump\t// in\n    tag_160:\n        /* \"#utility.yul\":3020:3106   */\n      swap1\n      pop\n        /* \"#utility.yul\":2065:3113   */\n      swap8\n      swap7\n      pop\n      pop\n      pop\n      pop\n      pop\n      pop\n      pop\n      jump\t// out\n        /* \"#utility.yul\":3119:3236   */\n    tag_91:\n        /* \"#utility.yul\":3228:3229   */\n      0x00\n        /* \"#utility.yul\":3225:3226   */\n      dup1\n        /* \"#utility.yul\":3218:3230   */\n      revert\n        /* \"#utility.yul\":3273:3505   */\n    tag_92:\n        /* \"#utility.yul\":3346:3351   */\n      0x00\n        /* \"#utility.yul\":3387:3390   */\n      0xc0\n        /* \"#utility.yul\":3378:3384   */\n      dup3\n        /* \"#utility.yul\":3373:3376   */\n      dup5\n        /* \"#utility.yul\":3369:3385   */\n      sub\n        /* \"#utility.yul\":3365:3391   */\n      slt\n        /* \"#utility.yul\":3362:3475   */\n      iszero\n      tag_163\n      jumpi\n        /* \"#utility.yul\":3394:3473   */\n      tag_164\n      tag_91\n      jump\t// in\n    tag_164:\n        /* \"#utility.yul\":3362:3475   */\n    tag_163:\n        /* \"#utility.yul\":3493:3499   */\n      dup2\n        /* \"#utility.yul\":3484:3499   */\n      swap1\n      pop\n        /* \"#utility.yul\":3273:3505   */\n      swap3\n      swap2\n      pop\n      pop\n      jump\t// out\n        /* \"#utility.yul\":3511:4054   */\n    tag_15:\n        /* \"#utility.yul\":3597:3603   */\n      0x00\n        /* \"#utility.yul\":3646:3648   */\n      0x20\n        /* \"#utility.yul\":3634:3643   */\n      dup3\n        /* \"#utility.yul\":3625:3632   */\n      dup5\n        /* \"#utility.yul\":3621:3644   */\n      sub\n        /* \"#utility.yul\":3617:3649   */\n      slt\n        /* \"#utility.yul\":3614:3733   */\n      iszero\n      tag_166\n      jumpi\n        /* \"#utility.yul\":3652:3731   */\n      tag_167\n      tag_80\n      jump\t// in\n    tag_167:\n        /* \"#utility.yul\":3614:3733   */\n    tag_166:\n        /* \"#utility.yul\":3800:3801   */\n      0x00\n        /* \"#utility.yul\":3789:3798   */\n      dup3\n        /* \"#utility.yul\":3785:3802   */\n      add\n        /* \"#utility.yul\":3772:3803   */\n      calldataload\n        /* \"#utility.yul\":3830:3848   */\n      0xffffffffffffffff\n        /* \"#utility.yul\":3822:3828   */\n      dup2\n        /* \"#utility.yul\":3819:3849   */\n      gt\n        /* \"#utility.yul\":3816:3933   */\n      iszero\n      tag_168\n      jumpi\n        /* \"#utility.yul\":3852:3931   */\n      tag_169\n      tag_81\n      jump\t// in\n    tag_169:\n        /* \"#utility.yul\":3816:3933   */\n    tag_168:\n        /* \"#utility.yul\":3957:4037   */\n      tag_170\n        /* \"#utility.yul\":4029:4036   */\n      dup5\n        /* \"#utility.yul\":4020:4026   */\n      dup3\n        /* \"#utility.yul\":4009:4018   */\n      dup6\n        /* \"#utility.yul\":4005:4027   */\n      add\n        /* \"#utility.yul\":3957:4037   */\n      tag_92\n      jump\t// in\n    tag_170:\n        /* \"#utility.yul\":3947:4037   */\n      swap2\n      pop\n        /* \"#utility.yul\":3743:4047   */\n      pop\n        /* \"#utility.yul\":3511:4054   */\n      swap3\n      swap2\n      pop\n      pop\n      jump\t// out\n        /* \"#utility.yul\":4060:4219   */\n    tag_93:\n        /* \"#utility.yul\":4134:4145   */\n      0x00\n        /* \"#utility.yul\":4168:4174   */\n      dup3\n        /* \"#utility.yul\":4163:4166   */\n      dup3\n        /* \"#utility.yul\":4156:4175   */\n      mstore\n        /* \"#utility.yul\":4208:4212   */\n      0x20\n        /* \"#utility.yul\":4203:4206   */\n      dup3\n        /* \"#utility.yul\":4199:4213   */\n      add\n        /* \"#utility.yul\":4184:4213   */\n      swap1\n      pop\n        /* \"#utility.yul\":4060:4219   */\n      swap3\n      swap2\n      pop\n      pop\n      jump\t// out\n        /* \"#utility.yul\":4225:4582   */\n    tag_94:\n        /* \"#utility.yul\":4303:4306   */\n      0x00\n        /* \"#utility.yul\":4331:4370   */\n      tag_173\n        /* \"#utility.yul\":4364:4369   */\n      dup3\n        /* \"#utility.yul\":4331:4370   */\n      tag_85\n      jump\t// in\n    tag_173:\n        /* \"#utility.yul\":4386:4447   */\n      tag_174\n        /* \"#utility.yul\":4440:4446   */\n      dup2\n        /* \"#utility.yul\":4435:4438   */\n      dup6\n        /* \"#utility.yul\":4386:4447   */\n      tag_93\n      jump\t// in\n    tag_174:\n        /* \"#utility.yul\":4379:4447   */\n      swap4\n      pop\n        /* \"#utility.yul\":4456:4521   */\n      tag_175\n        /* \"#utility.yul\":4514:4520   */\n      dup2\n        /* \"#utility.yul\":4509:4512   */\n      dup6\n        /* \"#utility.yul\":4502:4506   */\n      0x20\n        /* \"#utility.yul\":4495:4500   */\n      dup7\n        /* \"#utility.yul\":4491:4507   */\n      add\n        /* \"#utility.yul\":4456:4521   */\n      tag_87\n      jump\t// in\n    tag_175:\n        /* \"#utility.yul\":4546:4575   */\n      tag_176\n        /* \"#utility.yul\":4568:4574   */\n      dup2\n        /* \"#utility.yul\":4546:4575   */\n      tag_88\n      jump\t// in\n    tag_176:\n        /* \"#utility.yul\":4541:4544   */\n      dup5\n        /* \"#utility.yul\":4537:4576   */\n      add\n        /* \"#utility.yul\":4530:4576   */\n      swap2\n      pop\n        /* \"#utility.yul\":4307:4582   */\n      pop\n        /* \"#utility.yul\":4225:4582   */\n      swap3\n      swap2\n      pop\n      pop\n      jump\t// out\n        /* \"#utility.yul\":4588:4696   */\n    tag_95:\n        /* \"#utility.yul\":4665:4689   */\n      tag_178\n        /* \"#utility.yul\":4683:4688   */\n      dup2\n        /* \"#utility.yul\":4665:4689   */\n      tag_82\n      jump\t// in\n    tag_178:\n        /* \"#utility.yul\":4660:4663   */\n      dup3\n        /* \"#utility.yul\":4653:4690   */\n      mstore\n        /* \"#utility.yul\":4588:4696   */\n      pop\n      pop\n      jump\t// out\n        /* \"#utility.yul\":4760:6219   */\n    tag_96:\n        /* \"#utility.yul\":4879:4882   */\n      0x00\n        /* \"#utility.yul\":4915:4919   */\n      0xc0\n        /* \"#utility.yul\":4910:4913   */\n      dup4\n        /* \"#utility.yul\":4906:4920   */\n      add\n        /* \"#utility.yul\":5002:5006   */\n      0x00\n        /* \"#utility.yul\":4995:5000   */\n      dup4\n        /* \"#utility.yul\":4991:5007   */\n      add\n        /* \"#utility.yul\":4985:5008   */\n      mload\n        /* \"#utility.yul\":5055:5058   */\n      dup5\n        /* \"#utility.yul\":5049:5053   */\n      dup3\n        /* \"#utility.yul\":5045:5059   */\n      sub\n        /* \"#utility.yul\":5038:5042   */\n      0x00\n        /* \"#utility.yul\":5033:5036   */\n      dup7\n        /* \"#utility.yul\":5029:5043   */\n      add\n        /* \"#utility.yul\":5022:5060   */\n      mstore\n        /* \"#utility.yul\":5081:5154   */\n      tag_180\n        /* \"#utility.yul\":5149:5153   */\n      dup3\n        /* \"#utility.yul\":5135:5147   */\n      dup3\n        /* \"#utility.yul\":5081:5154   */\n      tag_94\n      jump\t// in\n    tag_180:\n        /* \"#utility.yul\":5073:5154   */\n      swap2\n      pop\n        /* \"#utility.yul\":4930:5165   */\n      pop\n        /* \"#utility.yul\":5249:5253   */\n      0x20\n        /* \"#utility.yul\":5242:5247   */\n      dup4\n        /* \"#utility.yul\":5238:5254   */\n      add\n        /* \"#utility.yul\":5232:5255   */\n      mload\n        /* \"#utility.yul\":5302:5305   */\n      dup5\n        /* \"#utility.yul\":5296:5300   */\n      dup3\n        /* \"#utility.yul\":5292:5306   */\n      sub\n        /* \"#utility.yul\":5285:5289   */\n      0x20\n        /* \"#utility.yul\":5280:5283   */\n      dup7\n        /* \"#utility.yul\":5276:5290   */\n      add\n        /* \"#utility.yul\":5269:5307   */\n      mstore\n        /* \"#utility.yul\":5328:5401   */\n      tag_181\n        /* \"#utility.yul\":5396:5400   */\n      dup3\n        /* \"#utility.yul\":5382:5394   */\n      dup3\n        /* \"#utility.yul\":5328:5401   */\n      tag_94\n      jump\t// in\n    tag_181:\n        /* \"#utility.yul\":5320:5401   */\n      swap2\n      pop\n        /* \"#utility.yul\":5175:5412   */\n      pop\n        /* \"#utility.yul\":5496:5500   */\n      0x40\n        /* \"#utility.yul\":5489:5494   */\n      dup4\n        /* \"#utility.yul\":5485:5501   */\n      add\n        /* \"#utility.yul\":5479:5502   */\n      mload\n        /* \"#utility.yul\":5515:5578   */\n      tag_182\n        /* \"#utility.yul\":5572:5576   */\n      0x40\n        /* \"#utility.yul\":5567:5570   */\n      dup7\n        /* \"#utility.yul\":5563:5577   */\n      add\n        /* \"#utility.yul\":5549:5561   */\n      dup3\n        /* \"#utility.yul\":5515:5578   */\n      tag_95\n      jump\t// in\n    tag_182:\n        /* \"#utility.yul\":5422:5588   */\n      pop\n        /* \"#utility.yul\":5672:5676   */\n      0x60\n        /* \"#utility.yul\":5665:5670   */\n      dup4\n        /* \"#utility.yul\":5661:5677   */\n      add\n        /* \"#utility.yul\":5655:5678   */\n      mload\n        /* \"#utility.yul\":5691:5754   */\n      tag_183\n        /* \"#utility.yul\":5748:5752   */\n      0x60\n        /* \"#utility.yul\":5743:5746   */\n      dup7\n        /* \"#utility.yul\":5739:5753   */\n      add\n        /* \"#utility.yul\":5725:5737   */\n      dup3\n        /* \"#utility.yul\":5691:5754   */\n      tag_95\n      jump\t// in\n    tag_183:\n        /* \"#utility.yul\":5598:5764   */\n      pop\n        /* \"#utility.yul\":5854:5858   */\n      0x80\n        /* \"#utility.yul\":5847:5852   */\n      dup4\n        /* \"#utility.yul\":5843:5859   */\n      add\n        /* \"#utility.yul\":5837:5860   */\n      mload\n        /* \"#utility.yul\":5873:5936   */\n      tag_184\n        /* \"#utility.yul\":5930:5934   */\n      0x80\n        /* \"#utility.yul\":5925:5928   */\n      dup7\n        /* \"#utility.yul\":5921:5935   */\n      add\n        /* \"#utility.yul\":5907:5919   */\n      dup3\n        /* \"#utility.yul\":5873:5936   */\n      tag_95\n      jump\t// in\n    tag_184:\n        /* \"#utility.yul\":5774:5946   */\n      pop\n        /* \"#utility.yul\":6029:6033   */\n      0xa0\n        /* \"#utility.yul\":6022:6027   */\n      dup4\n        /* \"#utility.yul\":6018:6034   */\n      add\n        /* \"#utility.yul\":6012:6035   */\n      mload\n        /* \"#utility.yul\":6082:6085   */\n      dup5\n        /* \"#utility.yul\":6076:6080   */\n      dup3\n        /* \"#utility.yul\":6072:6086   */\n      sub\n        /* \"#utility.yul\":6065:6069   */\n      0xa0\n        /* \"#utility.yul\":6060:6063   */\n      dup7\n        /* \"#utility.yul\":6056:6070   */\n      add\n        /* \"#utility.yul\":6049:6087   */\n      mstore\n        /* \"#utility.yul\":6108:6181   */\n      tag_185\n        /* \"#utility.yul\":6176:6180   */\n      dup3\n        /* \"#utility.yul\":6162:6174   */\n      dup3\n        /* \"#utility.yul\":6108:6181   */\n      tag_94\n      jump\t// in\n    tag_185:\n        /* \"#utility.yul\":6100:6181   */\n      swap2\n      pop\n        /* \"#utility.yul\":5956:6192   */\n      pop\n        /* \"#utility.yul\":6209:6213   */\n      dup1\n        /* \"#utility.yul\":6202:6213   */\n      swap2\n      pop\n        /* \"#utility.yul\":4884:6219   */\n      pop\n        /* \"#utility.yul\":4760:6219   */\n      swap3\n      swap2\n      pop\n      pop\n      jump\t// out\n        /* \"#utility.yul\":6225:6598   */\n    tag_21:\n        /* \"#utility.yul\":6368:6372   */\n      0x00\n        /* \"#utility.yul\":6406:6408   */\n      0x20\n        /* \"#utility.yul\":6395:6404   */\n      dup3\n        /* \"#utility.yul\":6391:6409   */\n      add\n        /* \"#utility.yul\":6383:6409   */\n      swap1\n      pop\n        /* \"#utility.yul\":6455:6464   */\n      dup2\n        /* \"#utility.yul\":6449:6453   */\n      dup2\n        /* \"#utility.yul\":6445:6465   */\n      sub\n        /* \"#utility.yul\":6441:6442   */\n      0x00\n        /* \"#utility.yul\":6430:6439   */\n      dup4\n        /* \"#utility.yul\":6426:6443   */\n      add\n        /* \"#utility.yul\":6419:6466   */\n      mstore\n        /* \"#utility.yul\":6483:6591   */\n      tag_187\n        /* \"#utility.yul\":6586:6590   */\n      dup2\n        /* \"#utility.yul\":6577:6583   */\n      dup5\n        /* \"#utility.yul\":6483:6591   */\n      tag_96\n      jump\t// in\n    tag_187:\n        /* \"#utility.yul\":6475:6591   */\n      swap1\n      pop\n        /* \"#utility.yul\":6225:6598   */\n      swap3\n      swap2\n      pop\n      pop\n      jump\t// out\n        /* \"#utility.yul\":6604:6784   */\n    tag_97:\n        /* \"#utility.yul\":6652:6729   */\n      0x4e487b7100000000000000000000000000000000000000000000000000000000\n        /* \"#utility.yul\":6649:6650   */\n      0x00\n        /* \"#utility.yul\":6642:6730   */\n      mstore\n        /* \"#utility.yul\":6749:6753   */\n      0x22\n        /* \"#utility.yul\":6746:6747   */\n      0x04\n        /* \"#utility.yul\":6739:6754   */\n      mstore\n        /* \"#utility.yul\":6773:6777   */\n      0x24\n        /* \"#utility.yul\":6770:6771   */\n      0x00\n        /* \"#utility.yul\":6763:6778   */\n      revert\n        /* \"#utility.yul\":6790:7110   */\n    tag_26:\n        /* \"#utility.yul\":6834:6840   */\n      0x00\n        /* \"#utility.yul\":6871:6872   */\n      0x02\n        /* \"#utility.yul\":6865:6869   */\n      dup3\n        /* \"#utility.yul\":6861:6873   */\n      div\n        /* \"#utility.yul\":6851:6873   */\n      swap1\n      pop\n        /* \"#utility.yul\":6918:6919   */\n      0x01\n        /* \"#utility.yul\":6912:6916   */\n      dup3\n        /* \"#utility.yul\":6908:6920   */\n      and\n        /* \"#utility.yul\":6939:6957   */\n      dup1\n        /* \"#utility.yul\":6929:7010   */\n      tag_190\n      jumpi\n        /* \"#utility.yul\":6995:6999   */\n      0x7f\n        /* \"#utility.yul\":6987:6993   */\n      dup3\n        /* \"#utility.yul\":6983:7000   */\n      and\n        /* \"#utility.yul\":6973:7000   */\n      swap2\n      pop\n        /* \"#utility.yul\":6929:7010   */\n    tag_190:\n        /* \"#utility.yul\":7057:7059   */\n      0x20\n        /* \"#utility.yul\":7049:7055   */\n      dup3\n        /* \"#utility.yul\":7046:7060   */\n      lt\n        /* \"#utility.yul\":7026:7044   */\n      dup2\n        /* \"#utility.yul\":7023:7061   */\n      sub\n        /* \"#utility.yul\":7020:7104   */\n      tag_191\n      jumpi\n        /* \"#utility.yul\":7076:7094   */\n      tag_192\n      tag_97\n      jump\t// in\n    tag_192:\n        /* \"#utility.yul\":7020:7104   */\n    tag_191:\n        /* \"#utility.yul\":6841:7110   */\n      pop\n        /* \"#utility.yul\":6790:7110   */\n      swap2\n      swap1\n      pop\n      jump\t// out\n        /* \"#utility.yul\":7302:7419   */\n    tag_99:\n        /* \"#utility.yul\":7411:7412   */\n      0x00\n        /* \"#utility.yul\":7408:7409   */\n      dup1\n        /* \"#utility.yul\":7401:7413   */\n      revert\n        /* \"#utility.yul\":7425:7542   */\n    tag_100:\n        /* \"#utility.yul\":7534:7535   */\n      0x00\n        /* \"#utility.yul\":7531:7532   */\n      dup1\n        /* \"#utility.yul\":7524:7536   */\n      revert\n        /* \"#utility.yul\":7548:7665   */\n    tag_101:\n        /* \"#utility.yul\":7657:7658   */\n      0x00\n        /* \"#utility.yul\":7654:7655   */\n      dup1\n        /* \"#utility.yul\":7647:7659   */\n      revert\n        /* \"#utility.yul\":7671:8396   */\n    tag_102:\n        /* \"#utility.yul\":7749:7753   */\n      0x00\n        /* \"#utility.yul\":7755:7761   */\n      dup1\n        /* \"#utility.yul\":7811:7822   */\n      dup4\n        /* \"#utility.yul\":7798:7823   */\n      calldataload\n        /* \"#utility.yul\":7911:7912   */\n      0x01\n        /* \"#utility.yul\":7905:7909   */\n      0x20\n        /* \"#utility.yul\":7901:7913   */\n      sub\n        /* \"#utility.yul\":7890:7898   */\n      dup5\n        /* \"#utility.yul\":7874:7888   */\n      calldatasize\n        /* \"#utility.yul\":7870:7899   */\n      sub\n        /* \"#utility.yul\":7866:7914   */\n      sub\n        /* \"#utility.yul\":7846:7864   */\n      dup2\n        /* \"#utility.yul\":7842:7915   */\n      slt\n        /* \"#utility.yul\":7832:8000   */\n      tag_198\n      jumpi\n        /* \"#utility.yul\":7919:7998   */\n      tag_199\n      tag_99\n      jump\t// in\n    tag_199:\n        /* \"#utility.yul\":7832:8000   */\n    tag_198:\n        /* \"#utility.yul\":8031:8049   */\n      dup1\n        /* \"#utility.yul\":8021:8029   */\n      dup5\n        /* \"#utility.yul\":8017:8050   */\n      add\n        /* \"#utility.yul\":8009:8050   */\n      swap3\n      pop\n        /* \"#utility.yul\":8083:8087   */\n      dup3\n        /* \"#utility.yul\":8070:8088   */\n      calldataload\n        /* \"#utility.yul\":8060:8088   */\n      swap2\n      pop\n        /* \"#utility.yul\":8111:8129   */\n      0xffffffffffffffff\n        /* \"#utility.yul\":8103:8109   */\n      dup3\n        /* \"#utility.yul\":8100:8130   */\n      gt\n        /* \"#utility.yul\":8097:8214   */\n      iszero\n      tag_200\n      jumpi\n        /* \"#utility.yul\":8133:8212   */\n      tag_201\n      tag_100\n      jump\t// in\n    tag_201:\n        /* \"#utility.yul\":8097:8214   */\n    tag_200:\n        /* \"#utility.yul\":8241:8243   */\n      0x20\n        /* \"#utility.yul\":8235:8239   */\n      dup4\n        /* \"#utility.yul\":8231:8244   */\n      add\n        /* \"#utility.yul\":8223:8244   */\n      swap3\n      pop\n        /* \"#utility.yul\":8298:8302   */\n      0x01\n        /* \"#utility.yul\":8290:8296   */\n      dup3\n        /* \"#utility.yul\":8286:8303   */\n      mul\n        /* \"#utility.yul\":8270:8284   */\n      calldatasize\n        /* \"#utility.yul\":8266:8304   */\n      sub\n        /* \"#utility.yul\":8260:8264   */\n      dup4\n        /* \"#utility.yul\":8256:8305   */\n      sgt\n        /* \"#utility.yul\":8253:8389   */\n      iszero\n      tag_202\n      jumpi\n        /* \"#utility.yul\":8308:8387   */\n      tag_203\n      tag_101\n      jump\t// in\n    tag_203:\n        /* \"#utility.yul\":8253:8389   */\n    tag_202:\n        /* \"#utility.yul\":7762:8396   */\n      pop\n        /* \"#utility.yul\":7671:8396   */\n      swap3\n      pop\n      swap3\n      swap1\n      pop\n      jump\t// out\n        /* \"#utility.yul\":8402:8499   */\n    tag_103:\n        /* \"#utility.yul\":8461:8467   */\n      0x00\n        /* \"#utility.yul\":8489:8492   */\n      dup3\n        /* \"#utility.yul\":8479:8492   */\n      swap1\n      pop\n        /* \"#utility.yul\":8402:8499   */\n      swap3\n      swap2\n      pop\n      pop\n      jump\t// out\n        /* \"#utility.yul\":8505:8685   */\n    tag_104:\n        /* \"#utility.yul\":8553:8630   */\n      0x4e487b7100000000000000000000000000000000000000000000000000000000\n        /* \"#utility.yul\":8550:8551   */\n      0x00\n        /* \"#utility.yul\":8543:8631   */\n      mstore\n        /* \"#utility.yul\":8650:8654   */\n      0x41\n        /* \"#utility.yul\":8647:8648   */\n      0x04\n        /* \"#utility.yul\":8640:8655   */\n      mstore\n        /* \"#utility.yul\":8674:8678   */\n      0x24\n        /* \"#utility.yul\":8671:8672   */\n      0x00\n        /* \"#utility.yul\":8664:8679   */\n      revert\n        /* \"#utility.yul\":8691:8832   */\n    tag_105:\n        /* \"#utility.yul\":8740:8744   */\n      0x00\n        /* \"#utility.yul\":8763:8766   */\n      dup2\n        /* \"#utility.yul\":8755:8766   */\n      swap1\n      pop\n        /* \"#utility.yul\":8786:8789   */\n      dup2\n        /* \"#utility.yul\":8783:8784   */\n      0x00\n        /* \"#utility.yul\":8776:8790   */\n      mstore\n        /* \"#utility.yul\":8820:8824   */\n      0x20\n        /* \"#utility.yul\":8817:8818   */\n      0x00\n        /* \"#utility.yul\":8807:8825   */\n      keccak256\n        /* \"#utility.yul\":8799:8825   */\n      swap1\n      pop\n        /* \"#utility.yul\":8691:8832   */\n      swap2\n      swap1\n      pop\n      jump\t// out\n        /* \"#utility.yul\":8838:8931   */\n    tag_106:\n        /* \"#utility.yul\":8875:8881   */\n      0x00\n        /* \"#utility.yul\":8922:8924   */\n      0x20\n        /* \"#utility.yul\":8917:8919   */\n      0x1f\n        /* \"#utility.yul\":8910:8915   */\n      dup4\n        /* \"#utility.yul\":8906:8920   */\n      add\n        /* \"#utility.yul\":8902:8925   */\n      div\n        /* \"#utility.yul\":8892:8925   */\n      swap1\n      pop\n        /* \"#utility.yul\":8838:8931   */\n      swap2\n      swap1\n      pop\n      jump\t// out\n        /* \"#utility.yul\":8937:9044   */\n    tag_107:\n        /* \"#utility.yul\":8981:8989   */\n      0x00\n        /* \"#utility.yul\":9031:9036   */\n      dup3\n        /* \"#utility.yul\":9025:9029   */\n      dup3\n        /* \"#utility.yul\":9021:9037   */\n      shl\n        /* \"#utility.yul\":9000:9037   */\n      swap1\n      pop\n        /* \"#utility.yul\":8937:9044   */\n      swap3\n      swap2\n      pop\n      pop\n      jump\t// out\n        /* \"#utility.yul\":9050:9443   */\n    tag_108:\n        /* \"#utility.yul\":9119:9125   */\n      0x00\n        /* \"#utility.yul\":9169:9170   */\n      0x08\n        /* \"#utility.yul\":9157:9167   */\n      dup4\n        /* \"#utility.yul\":9153:9171   */\n      mul\n        /* \"#utility.yul\":9192:9289   */\n      tag_210\n        /* \"#utility.yul\":9222:9288   */\n      0xffffffffffffffffffffffffffffffffffffffffffffffffffffffffffffffff\n        /* \"#utility.yul\":9211:9220   */\n      dup3\n        /* \"#utility.yul\":9192:9289   */\n      tag_107\n      jump\t// in\n    tag_210:\n        /* \"#utility.yul\":9310:9349   */\n      tag_211\n        /* \"#utility.yul\":9340:9348   */\n      dup7\n        /* \"#utility.yul\":9329:9338   */\n      dup4\n        /* \"#utility.yul\":9310:9349   */\n      tag_107\n      jump\t// in\n    tag_211:\n        /* \"#utility.yul\":9298:9349   */\n      swap6\n      pop\n        /* \"#utility.yul\":9382:9386   */\n      dup1\n        /* \"#utility.yul\":9378:9387   */\n      not\n        /* \"#utility.yul\":9371:9376   */\n      dup5\n        /* \"#utility.yul\":9367:9388   */\n      and\n        /* \"#utility.yul\":9358:9388   */\n      swap4\n      pop\n        /* \"#utility.yul\":9431:9435   */\n      dup1\n        /* \"#utility.yul\":9421:9429   */\n      dup7\n        /* \"#utility.yul\":9417:9436   */\n      and\n        /* \"#utility.yul\":9410:9415   */\n      dup5\n        /* \"#utility.yul\":9407:9437   */\n      or\n        /* \"#utility.yul\":9397:9437   */\n      swap3\n      pop\n        /* \"#utility.yul\":9126:9443   */\n      pop\n      pop\n        /* \"#utility.yul\":9050:9443   */\n      swap4\n      swap3\n      pop\n      pop\n      pop\n      jump\t// out\n        /* \"#utility.yul\":9449:9509   */\n    tag_109:\n        /* \"#utility.yul\":9477:9480   */\n      0x00\n        /* \"#utility.yul\":9498:9503   */\n      dup2\n        /* \"#utility.yul\":9491:9503   */\n      swap1\n      pop\n        /* \"#utility.yul\":9449:9509   */\n      swap2\n      swap1\n      pop\n      jump\t// out\n        /* \"#utility.yul\":9515:9657   */\n    tag_110:\n        /* \"#utility.yul\":9565:9574   */\n      0x00\n        /* \"#utility.yul\":9598:9651   */\n      tag_214\n        /* \"#utility.yul\":9616:9650   */\n      tag_215\n        /* \"#utility.yul\":9625:9649   */\n      tag_216\n        /* \"#utility.yul\":9643:9648   */\n      dup5\n        /* \"#utility.yul\":9625:9649   */\n      tag_82\n      jump\t// in\n    tag_216:\n        /* \"#utility.yul\":9616:9650   */\n      tag_109\n      jump\t// in\n    tag_215:\n        /* \"#utility.yul\":9598:9651   */\n      tag_82\n      jump\t// in\n    tag_214:\n        /* \"#utility.yul\":9585:9651   */\n      swap1\n      pop\n        /* \"#utility.yul\":9515:9657   */\n      swap2\n      swap1\n      pop\n      jump\t// out\n        /* \"#utility.yul\":9663:9738   */\n    tag_111:\n        /* \"#utility.yul\":9706:9709   */\n      0x00\n        /* \"#utility.yul\":9727:9732   */\n      dup2\n        /* \"#utility.yul\":9720:9732   */\n      swap1\n      pop\n        /* \"#utility.yul\":9663:9738   */\n      swap2\n      swap1\n      pop\n      jump\t// out\n        /* \"#utility.yul\":9744:10013   */\n    tag_112:\n        /* \"#utility.yul\":9854:9893   */\n      tag_219\n        /* \"#utility.yul\":9885:9892   */\n      dup4\n        /* \"#utility.yul\":9854:9893   */\n      tag_110\n      jump\t// in\n    tag_219:\n        /* \"#utility.yul\":9915:10006   */\n      tag_220\n        /* \"#utility.yul\":9964:10005   */\n      tag_221\n        /* \"#utility.yul\":9988:10004   */\n      dup3\n        /* \"#utility.yul\":9964:10005   */\n      tag_111\n      jump\t// in\n    tag_221:\n        /* \"#utility.yul\":9956:9962   */\n      dup5\n        /* \"#utility.yul\":9949:9953   */\n      dup5\n        /* \"#utility.yul\":9943:9954   */\n      sload\n        /* \"#utility.yul\":9915:10006   */\n      tag_108\n      jump\t// in\n    tag_220:\n        /* \"#utility.yul\":9909:9913   */\n      dup3\n        /* \"#utility.yul\":9902:10007   */\n      sstore\n        /* \"#utility.yul\":9820:10013   */\n      pop\n        /* \"#utility.yul\":9744:10013   */\n      pop\n      pop\n      pop\n      jump\t// out\n        /* \"#utility.yul\":10019:10092   */\n    tag_113:\n        /* \"#utility.yul\":10064:10067   */\n      0x00\n        /* \"#utility.yul\":10019:10092   */\n      swap1\n      jump\t// out\n        /* \"#utility.yul\":10098:10287   */\n    tag_114:\n        /* \"#utility.yul\":10175:10207   */\n      tag_224\n      tag_113\n      jump\t// in\n    tag_224:\n        /* \"#utility.yul\":10216:10281   */\n      tag_225\n        /* \"#utility.yul\":10274:10280   */\n      dup2\n        /* \"#utility.yul\":10266:10272   */\n      dup5\n        /* \"#utility.yul\":10260:10264   */\n      dup5\n        /* \"#utility.yul\":10216:10281   */\n      tag_112\n      jump\t// in\n    tag_225:\n        /* \"#utility.yul\":10151:10287   */\n      pop\n        /* \"#utility.yul\":10098:10287   */\n      pop\n      pop\n      jump\t// out\n        /* \"#utility.yul\":10293:10479   */\n    tag_115:\n        /* \"#utility.yul\":10353:10473   */\n    tag_227:\n        /* \"#utility.yul\":10370:10373   */\n      dup2\n        /* \"#utility.yul\":10363:10368   */\n      dup2\n        /* \"#utility.yul\":10360:10374   */\n      lt\n        /* \"#utility.yul\":10353:10473   */\n      iszero\n      tag_229\n      jumpi\n        /* \"#utility.yul\":10424:10463   */\n      tag_230\n        /* \"#utility.yul\":10461:10462   */\n      0x00\n        /* \"#utility.yul\":10454:10459   */\n      dup3\n        /* \"#utility.yul\":10424:10463   */\n      tag_114\n      jump\t// in\n    tag_230:\n        /* \"#utility.yul\":10397:10398   */\n      0x01\n        /* \"#utility.yul\":10390:10395   */\n      dup2\n        /* \"#utility.yul\":10386:10399   */\n      add\n        /* \"#utility.yul\":10377:10399   */\n      swap1\n      pop\n        /* \"#utility.yul\":10353:10473   */\n      jump(tag_227)\n    tag_229:\n        /* \"#utility.yul\":10293:10479   */\n      pop\n      pop\n      jump\t// out\n        /* \"#utility.yul\":10485:11028   */\n    tag_116:\n        /* \"#utility.yul\":10586:10588   */\n      0x1f\n        /* \"#utility.yul\":10581:10584   */\n      dup3\n        /* \"#utility.yul\":10578:10589   */\n      gt\n        /* \"#utility.yul\":10575:11021   */\n      iszero\n      tag_232\n      jumpi\n        /* \"#utility.yul\":10620:10658   */\n      tag_233\n        /* \"#utility.yul\":10652:10657   */\n      dup2\n        /* \"#utility.yul\":10620:10658   */\n      tag_105\n      jump\t// in\n    tag_233:\n        /* \"#utility.yul\":10704:10733   */\n      tag_234\n        /* \"#utility.yul\":10722:10732   */\n      dup5\n        /* \"#utility.yul\":10704:10733   */\n      tag_106\n      jump\t// in\n    tag_234:\n        /* \"#utility.yul\":10694:10702   */\n      dup2\n        /* \"#utility.yul\":10690:10734   */\n      add\n        /* \"#utility.yul\":10887:10889   */\n      0x20\n        /* \"#utility.yul\":10875:10885   */\n      dup6\n        /* \"#utility.yul\":10872:10890   */\n      lt\n        /* \"#utility.yul\":10869:10918   */\n      iszero\n      tag_235\n      jumpi\n        /* \"#utility.yul\":10908:10916   */\n      dup2\n        /* \"#utility.yul\":10893:10916   */\n      swap1\n      pop\n        /* \"#utility.yul\":10869:10918   */\n    tag_235:\n        /* \"#utility.yul\":10931:11011   */\n      tag_236\n        /* \"#utility.yul\":10987:11009   */\n      tag_237\n        /* \"#utility.yul\":11005:11008   */\n      dup6\n        /* \"#utility.yul\":10987:11009   */\n      tag_106\n      jump\t// in\n    tag_237:\n        /* \"#utility.yul\":10977:10985   */\n      dup4\n        /* \"#utility.yul\":10973:11010   */\n      add\n        /* \"#utility.yul\":10960:10971   */\n      dup3\n        /* \"#utility.yul\":10931:11011   */\n      tag_115\n      jump\t// in\n    tag_236:\n        /* \"#utility.yul\":10590:11021   */\n      pop\n      pop\n        /* \"#utility.yul\":10575:11021   */\n    tag_232:\n        /* \"#utility.yul\":10485:11028   */\n      pop\n      pop\n      pop\n      jump\t// out\n        /* \"#utility.yul\":11034:11151   */\n    tag_117:\n        /* \"#utility.yul\":11088:11096   */\n      0x00\n        /* \"#utility.yul\":11138:11143   */\n      dup3\n        /* \"#utility.yul\":11132:11136   */\n      dup3\n        /* \"#utility.yul\":11128:11144   */\n      shr\n        /* \"#utility.yul\":11107:11144   */\n      swap1\n      pop\n        /* \"#utility.yul\":11034:11151   */\n      swap3\n      swap2\n      pop\n      pop\n      jump\t// out\n        /* \"#utility.yul\":11157:11326   */\n    tag_118:\n        /* \"#utility.yul\":11201:11207   */\n      0x00\n        /* \"#utility.yul\":11234:11285   */\n      tag_240\n        /* \"#utility.yul\":11282:11283   */\n      0x00\n        /* \"#utility.yul\":11278:11284   */\n      not\n        /* \"#utility.yul\":11270:11275   */\n      dup5\n        /* \"#utility.yul\":11267:11268   */\n      0x08\n        /* \"#utility.yul\":11263:11276   */\n      mul\n        /* \"#utility.yul\":11234:11285   */\n      tag_117\n      jump\t// in\n    tag_240:\n        /* \"#utility.yul\":11230:11286   */\n      not\n        /* \"#utility.yul\":11315:11319   */\n      dup1\n        /* \"#utility.yul\":11309:11313   */\n      dup4\n        /* \"#utility.yul\":11305:11320   */\n      and\n        /* \"#utility.yul\":11295:11320   */\n      swap2\n      pop\n        /* \"#utility.yul\":11208:11326   */\n      pop\n        /* \"#utility.yul\":11157:11326   */\n      swap3\n      swap2\n      pop\n      pop\n      jump\t// out\n        /* \"#utility.yul\":11331:11626   */\n    tag_119:\n        /* \"#utility.yul\":11407:11411   */\n      0x00\n        /* \"#utility.yul\":11553:11582   */\n      tag_242\n        /* \"#utility.yul\":11578:11581   */\n      dup4\n        /* \"#utility.yul\":11572:11576   */\n      dup4\n        /* \"#utility.yul\":11553:11582   */\n      tag_118\n      jump\t// in\n    tag_242:\n        /* \"#utility.yul\":11545:11582   */\n      swap2\n      pop\n        /* \"#utility.yul\":11615:11618   */\n      dup3\n        /* \"#utility.yul\":11612:11613   */\n      0x02\n        /* \"#utility.yul\":11608:11619   */\n      mul\n        /* \"#utility.yul\":11602:11606   */\n      dup3\n        /* \"#utility.yul\":11599:11620   */\n      or\n        /* \"#utility.yul\":11591:11620   */\n      swap1\n      pop\n        /* \"#utility.yul\":11331:11626   */\n      swap3\n      swap2\n      pop\n      pop\n      jump\t// out\n        /* \"#utility.yul\":11631:13034   */\n    tag_120:\n        /* \"#utility.yul\":11755:11799   */\n      tag_244\n        /* \"#utility.yul\":11795:11798   */\n      dup4\n        /* \"#utility.yul\":11790:11793   */\n      dup4\n        /* \"#utility.yul\":11755:11799   */\n      tag_103\n      jump\t// in\n    tag_244:\n        /* \"#utility.yul\":11864:11882   */\n      0xffffffffffffffff\n        /* \"#utility.yul\":11856:11862   */\n      dup2\n        /* \"#utility.yul\":11853:11883   */\n      gt\n        /* \"#utility.yul\":11850:11906   */\n      iszero\n      tag_245\n      jumpi\n        /* \"#utility.yul\":11886:11904   */\n      tag_246\n      tag_104\n      jump\t// in\n    tag_246:\n        /* \"#utility.yul\":11850:11906   */\n    tag_245:\n        /* \"#utility.yul\":11930:11968   */\n      tag_247\n        /* \"#utility.yul\":11962:11966   */\n      dup3\n        /* \"#utility.yul\":11956:11967   */\n      sload\n        /* \"#utility.yul\":11930:11968   */\n      tag_26\n      jump\t// in\n    tag_247:\n        /* \"#utility.yul\":12015:12082   */\n      tag_248\n        /* \"#utility.yul\":12075:12081   */\n      dup3\n        /* \"#utility.yul\":12067:12073   */\n      dup3\n        /* \"#utility.yul\":12061:12065   */\n      dup6\n        /* \"#utility.yul\":12015:12082   */\n      tag_116\n      jump\t// in\n    tag_248:\n        /* \"#utility.yul\":12109:12110   */\n      0x00\n        /* \"#utility.yul\":12138:12140   */\n      0x1f\n        /* \"#utility.yul\":12130:12136   */\n      dup4\n        /* \"#utility.yul\":12127:12141   */\n      gt\n        /* \"#utility.yul\":12155:12156   */\n      0x01\n        /* \"#utility.yul\":12150:12782   */\n      dup2\n      eq\n      tag_250\n      jumpi\n        /* \"#utility.yul\":12826:12827   */\n      0x00\n        /* \"#utility.yul\":12843:12849   */\n      dup5\n        /* \"#utility.yul\":12840:12924   */\n      iszero\n      tag_251\n      jumpi\n        /* \"#utility.yul\":12899:12908   */\n      dup3\n        /* \"#utility.yul\":12894:12897   */\n      dup8\n        /* \"#utility.yul\":12890:12909   */\n      add\n        /* \"#utility.yul\":12877:12910   */\n      calldataload\n        /* \"#utility.yul\":12868:12910   */\n      swap1\n      pop\n        /* \"#utility.yul\":12840:12924   */\n    tag_251:\n        /* \"#utility.yul\":12950:13017   */\n      tag_252\n        /* \"#utility.yul\":13010:13016   */\n      dup6\n        /* \"#utility.yul\":13003:13008   */\n      dup3\n        /* \"#utility.yul\":12950:13017   */\n      tag_119\n      jump\t// in\n    tag_252:\n        /* \"#utility.yul\":12944:12948   */\n      dup7\n        /* \"#utility.yul\":12937:13018   */\n      sstore\n        /* \"#utility.yul\":12799:13028   */\n      pop\n        /* \"#utility.yul\":12120:13028   */\n      jump(tag_249)\n        /* \"#utility.yul\":12150:12782   */\n    tag_250:\n        /* \"#utility.yul\":12202:12206   */\n      0x1f\n        /* \"#utility.yul\":12198:12207   */\n      not\n        /* \"#utility.yul\":12190:12196   */\n      dup5\n        /* \"#utility.yul\":12186:12208   */\n      and\n        /* \"#utility.yul\":12236:12273   */\n      tag_253\n        /* \"#utility.yul\":12268:12272   */\n      dup7\n        /* \"#utility.yul\":12236:12273   */\n      tag_105\n      jump\t// in\n    tag_253:\n        /* \"#utility.yul\":12295:12296   */\n      0x00\n        /* \"#utility.yul\":12309:12524   */\n    tag_254:\n        /* \"#utility.yul\":12323:12330   */\n      dup3\n        /* \"#utility.yul\":12320:12321   */\n      dup2\n        /* \"#utility.yul\":12317:12331   */\n      lt\n        /* \"#utility.yul\":12309:12524   */\n      iszero\n      tag_256\n      jumpi\n        /* \"#utility.yul\":12409:12418   */\n      dup5\n        /* \"#utility.yul\":12404:12407   */\n      dup10\n        /* \"#utility.yul\":12400:12419   */\n      add\n        /* \"#utility.yul\":12387:12420   */\n      calldataload\n        /* \"#utility.yul\":12379:12385   */\n      dup3\n        /* \"#utility.yul\":12372:12421   */\n      sstore\n        /* \"#utility.yul\":12460:12461   */\n      0x01\n        /* \"#utility.yul\":12452:12458   */\n      dup3\n        /* \"#utility.yul\":12448:12462   */\n      add\n        /* \"#utility.yul\":12438:12462   */\n      swap2\n      pop\n        /* \"#utility.yul\":12507:12509   */\n      0x20\n        /* \"#utility.yul\":12496:12505   */\n      dup6\n        /* \"#utility.yul\":12492:12510   */\n      add\n        /* \"#utility.yul\":12479:12510   */\n      swap5\n      pop\n        /* \"#utility.yul\":12346:12350   */\n      0x20\n        /* \"#utility.yul\":12343:12344   */\n      dup2\n        /* \"#utility.yul\":12339:12351   */\n      add\n        /* \"#utility.yul\":12334:12351   */\n      swap1\n      pop\n        /* \"#utility.yul\":12309:12524   */\n      jump(tag_254)\n    tag_256:\n        /* \"#utility.yul\":12552:12558   */\n      dup7\n        /* \"#utility.yul\":12543:12550   */\n      dup4\n        /* \"#utility.yul\":12540:12559   */\n      lt\n        /* \"#utility.yul\":12537:12723   */\n      iszero\n      tag_257\n      jumpi\n        /* \"#utility.yul\":12617:12626   */\n      dup5\n        /* \"#utility.yul\":12612:12615   */\n      dup10\n        /* \"#utility.yul\":12608:12627   */\n      add\n        /* \"#utility.yul\":12595:12628   */\n      calldataload\n        /* \"#utility.yul\":12660:12708   */\n      tag_258\n        /* \"#utility.yul\":12702:12706   */\n      0x1f\n        /* \"#utility.yul\":12694:12700   */\n      dup10\n        /* \"#utility.yul\":12690:12707   */\n      and\n        /* \"#utility.yul\":12679:12688   */\n      dup3\n        /* \"#utility.yul\":12660:12708   */\n      tag_118\n      jump\t// in\n    tag_258:\n        /* \"#utility.yul\":12652:12658   */\n      dup4\n        /* \"#utility.yul\":12645:12709   */\n      sstore\n        /* \"#utility.yul\":12560:12723   */\n      pop\n        /* \"#utility.yul\":12537:12723   */\n    tag_257:\n        /* \"#utility.yul\":12769:12770   */\n      0x01\n        /* \"#utility.yul\":12765:12766   */\n      0x02\n        /* \"#utility.yul\":12757:12763   */\n      dup9\n        /* \"#utility.yul\":12753:12767   */\n      mul\n        /* \"#utility.yul\":12749:12771   */\n      add\n        /* \"#utility.yul\":12743:12747   */\n      dup9\n        /* \"#utility.yul\":12736:12772   */\n      sstore\n        /* \"#utility.yul\":12157:12782   */\n      pop\n      pop\n      pop\n        /* \"#utility.yul\":12120:13028   */\n    tag_249:\n      pop\n        /* \"#utility.yul\":11730:13034   */\n      pop\n      pop\n      pop\n        /* \"#utility.yul\":11631:13034   */\n      pop\n      pop\n      pop\n      jump\t// out\n        /* \"#utility.yul\":13040:13258   */\n    tag_121:\n        /* \"#utility.yul\":13155:13252   */\n      tag_260\n        /* \"#utility.yul\":13244:13251   */\n      dup4\n        /* \"#utility.yul\":13235:13242   */\n      dup4\n        /* \"#utility.yul\":13229:13233   */\n      dup4\n        /* \"#utility.yul\":13155:13252   */\n      tag_120\n      jump\t// in\n    tag_260:\n        /* \"#utility.yul\":13040:13258   */\n      pop\n      pop\n      pop\n      jump\t// out\n        /* \"#utility.yul\":13264:13450   */\n    tag_122:\n        /* \"#utility.yul\":13309:13320   */\n      0x00\n        /* \"#utility.yul\":13358:13361   */\n      dup2\n        /* \"#utility.yul\":13345:13362   */\n      calldataload\n        /* \"#utility.yul\":13371:13404   */\n      tag_262\n        /* \"#utility.yul\":13398:13403   */\n      dup2\n        /* \"#utility.yul\":13371:13404   */\n      tag_83\n      jump\t// in\n    tag_262:\n        /* \"#utility.yul\":13438:13443   */\n      dup1\n        /* \"#utility.yul\":13414:13443   */\n      swap2\n      pop\n        /* \"#utility.yul\":13321:13450   */\n      pop\n        /* \"#utility.yul\":13264:13450   */\n      swap2\n      swap1\n      pop\n      jump\t// out\n        /* \"#utility.yul\":13456:13548   */\n    tag_123:\n        /* \"#utility.yul\":13488:13496   */\n      0x00\n        /* \"#utility.yul\":13535:13540   */\n      dup2\n        /* \"#utility.yul\":13532:13533   */\n      0x00\n        /* \"#utility.yul\":13528:13541   */\n      shl\n        /* \"#utility.yul\":13507:13541   */\n      swap1\n      pop\n        /* \"#utility.yul\":13456:13548   */\n      swap2\n      swap1\n      pop\n      jump\t// out\n        /* \"#utility.yul\":13554:13844   */\n    tag_124:\n        /* \"#utility.yul\":13612:13618   */\n      0x00\n        /* \"#utility.yul\":13641:13707   */\n      0xffffffffffffffffffffffffffffffffffffffffffffffffffffffffffffffff\n        /* \"#utility.yul\":13728:13750   */\n      tag_265\n        /* \"#utility.yul\":13741:13749   */\n      dup5\n        /* \"#utility.yul\":13728:13750   */\n      tag_123\n      jump\t// in\n    tag_265:\n        /* \"#utility.yul\":13716:13750   */\n      swap4\n      pop\n        /* \"#utility.yul\":13783:13787   */\n      dup1\n        /* \"#utility.yul\":13779:13788   */\n      not\n        /* \"#utility.yul\":13772:13777   */\n      dup4\n        /* \"#utility.yul\":13768:13789   */\n      and\n        /* \"#utility.yul\":13759:13789   */\n      swap3\n      pop\n        /* \"#utility.yul\":13832:13836   */\n      dup1\n        /* \"#utility.yul\":13822:13830   */\n      dup5\n        /* \"#utility.yul\":13818:13837   */\n      and\n        /* \"#utility.yul\":13811:13816   */\n      dup4\n        /* \"#utility.yul\":13808:13838   */\n      or\n        /* \"#utility.yul\":13798:13838   */\n      swap2\n      pop\n        /* \"#utility.yul\":13619:13844   */\n      pop\n        /* \"#utility.yul\":13554:13844   */\n      swap3\n      swap2\n      pop\n      pop\n      jump\t// out\n        /* \"#utility.yul\":13850:14112   */\n    tag_125:\n        /* \"#utility.yul\":13960:13999   */\n      tag_267\n        /* \"#utility.yul\":13991:13998   */\n      dup3\n        /* \"#utility.yul\":13960:13999   */\n      tag_110\n      jump\t// in\n    tag_267:\n        /* \"#utility.yul\":14021:14105   */\n      tag_268\n        /* \"#utility.yul\":14063:14104   */\n      tag_269\n        /* \"#utility.yul\":14087:14103   */\n      dup3\n        /* \"#utility.yul\":14063:14104   */\n      tag_111\n      jump\t// in\n    tag_269:\n        /* \"#utility.yul\":14056:14060   */\n      dup4\n        /* \"#utility.yul\":14050:14061   */\n      sload\n        /* \"#utility.yul\":14021:14105   */\n      tag_124\n      jump\t// in\n    tag_268:\n        /* \"#utility.yul\":14015:14019   */\n      dup3\n        /* \"#utility.yul\":14008:14106   */\n      sstore\n        /* \"#utility.yul\":13926:14112   */\n      pop\n        /* \"#utility.yul\":13850:14112   */\n      pop\n      pop\n      jump\t// out\n        /* \"#utility.yul\":14118:16358   */\n    tag_126:\n        /* \"#utility.yul\":14294:14295   */\n      0x00\n        /* \"#utility.yul\":14288:14292   */\n      dup2\n        /* \"#utility.yul\":14284:14296   */\n      add\n        /* \"#utility.yul\":14340:14341   */\n      0x00\n        /* \"#utility.yul\":14333:14338   */\n      dup4\n        /* \"#utility.yul\":14329:14342   */\n      add\n        /* \"#utility.yul\":14405:14468   */\n      tag_271\n        /* \"#utility.yul\":14455:14467   */\n      dup2\n        /* \"#utility.yul\":14448:14453   */\n      dup6\n        /* \"#utility.yul\":14405:14468   */\n      tag_102\n      jump\t// in\n    tag_271:\n        /* \"#utility.yul\":14482:14594   */\n      tag_272\n        /* \"#utility.yul\":14580:14593   */\n      dup2\n        /* \"#utility.yul\":14565:14578   */\n      dup4\n        /* \"#utility.yul\":14553:14563   */\n      dup7\n        /* \"#utility.yul\":14482:14594   */\n      tag_121\n      jump\t// in\n    tag_272:\n        /* \"#utility.yul\":14251:14605   */\n      pop\n      pop\n      pop\n      pop\n        /* \"#utility.yul\":14658:14659   */\n      0x01\n        /* \"#utility.yul\":14652:14656   */\n      dup2\n        /* \"#utility.yul\":14648:14660   */\n      add\n        /* \"#utility.yul\":14704:14706   */\n      0x20\n        /* \"#utility.yul\":14697:14702   */\n      dup4\n        /* \"#utility.yul\":14693:14707   */\n      add\n        /* \"#utility.yul\":14770:14833   */\n      tag_273\n        /* \"#utility.yul\":14820:14832   */\n      dup2\n        /* \"#utility.yul\":14813:14818   */\n      dup6\n        /* \"#utility.yul\":14770:14833   */\n      tag_102\n      jump\t// in\n    tag_273:\n        /* \"#utility.yul\":14847:14959   */\n      tag_274\n        /* \"#utility.yul\":14945:14958   */\n      dup2\n        /* \"#utility.yul\":14930:14943   */\n      dup4\n        /* \"#utility.yul\":14918:14928   */\n      dup7\n        /* \"#utility.yul\":14847:14959   */\n      tag_121\n      jump\t// in\n    tag_274:\n        /* \"#utility.yul\":14615:14970   */\n      pop\n      pop\n      pop\n      pop\n        /* \"#utility.yul\":15023:15024   */\n      0x02\n        /* \"#utility.yul\":15017:15021   */\n      dup2\n        /* \"#utility.yul\":15013:15025   */\n      add\n        /* \"#utility.yul\":15069:15071   */\n      0x40\n        /* \"#utility.yul\":15062:15067   */\n      dup4\n        /* \"#utility.yul\":15058:15072   */\n      add\n        /* \"#utility.yul\":15120:15132   */\n      dup1\n        /* \"#utility.yul\":15163:15205   */\n      tag_275\n        /* \"#utility.yul\":15191:15204   */\n      dup2\n        /* \"#utility.yul\":15163:15205   */\n      tag_122\n      jump\t// in\n    tag_275:\n        /* \"#utility.yul\":15146:15205   */\n      swap1\n      pop\n        /* \"#utility.yul\":15219:15297   */\n      tag_276\n        /* \"#utility.yul\":15283:15296   */\n      dup2\n        /* \"#utility.yul\":15271:15281   */\n      dup5\n        /* \"#utility.yul\":15219:15297   */\n      tag_125\n      jump\t// in\n    tag_276:\n        /* \"#utility.yul\":14980:15308   */\n      pop\n      pop\n      pop\n        /* \"#utility.yul\":15361:15362   */\n      0x03\n        /* \"#utility.yul\":15355:15359   */\n      dup2\n        /* \"#utility.yul\":15351:15363   */\n      add\n        /* \"#utility.yul\":15407:15409   */\n      0x60\n        /* \"#utility.yul\":15400:15405   */\n      dup4\n        /* \"#utility.yul\":15396:15410   */\n      add\n        /* \"#utility.yul\":15458:15470   */\n      dup1\n        /* \"#utility.yul\":15501:15543   */\n      tag_277\n        /* \"#utility.yul\":15529:15542   */\n      dup2\n        /* \"#utility.yul\":15501:15543   */\n      tag_122\n      jump\t// in\n    tag_277:\n        /* \"#utility.yul\":15484:15543   */\n      swap1\n      pop\n        /* \"#utility.yul\":15557:15635   */\n      tag_278\n        /* \"#utility.yul\":15621:15634   */\n      dup2\n        /* \"#utility.yul\":15609:15619   */\n      dup5\n        /* \"#utility.yul\":15557:15635   */\n      tag_125\n      jump\t// in\n    tag_278:\n        /* \"#utility.yul\":15318:15646   */\n      pop\n      pop\n      pop\n        /* \"#utility.yul\":15699:15700   */\n      0x04\n        /* \"#utility.yul\":15693:15697   */\n      dup2\n        /* \"#utility.yul\":15689:15701   */\n      add\n        /* \"#utility.yul\":15745:15748   */\n      0x80\n        /* \"#utility.yul\":15738:15743   */\n      dup4\n        /* \"#utility.yul\":15734:15749   */\n      add\n        /* \"#utility.yul\":15797:15809   */\n      dup1\n        /* \"#utility.yul\":15840:15882   */\n      tag_279\n        /* \"#utility.yul\":15868:15881   */\n      dup2\n        /* \"#utility.yul\":15840:15882   */\n      tag_122\n      jump\t// in\n    tag_279:\n        /* \"#utility.yul\":15823:15882   */\n      swap1\n      pop\n        /* \"#utility.yul\":15896:15974   */\n      tag_280\n        /* \"#utility.yul\":15960:15973   */\n      dup2\n        /* \"#utility.yul\":15948:15958   */\n      dup5\n        /* \"#utility.yul\":15896:15974   */\n      tag_125\n      jump\t// in\n    tag_280:\n        /* \"#utility.yul\":15656:15985   */\n      pop\n      pop\n      pop\n        /* \"#utility.yul\":16038:16039   */\n      0x05\n        /* \"#utility.yul\":16032:16036   */\n      dup2\n        /* \"#utility.yul\":16028:16040   */\n      add\n        /* \"#utility.yul\":16084:16087   */\n      0xa0\n        /* \"#utility.yul\":16077:16082   */\n      dup4\n        /* \"#utility.yul\":16073:16088   */\n      add\n        /* \"#utility.yul\":16151:16214   */\n      tag_281\n        /* \"#utility.yul\":16201:16213   */\n      dup2\n        /* \"#utility.yul\":16194:16199   */\n      dup6\n        /* \"#utility.yul\":16151:16214   */\n      tag_102\n      jump\t// in\n    tag_281:\n        /* \"#utility.yul\":16228:16340   */\n      tag_282\n        /* \"#utility.yul\":16326:16339   */\n      dup2\n        /* \"#utility.yul\":16311:16324   */\n      dup4\n        /* \"#utility.yul\":16299:16309   */\n      dup7\n        /* \"#utility.yul\":16228:16340   */\n      tag_121\n      jump\t// in\n    tag_282:\n        /* \"#utility.yul\":15995:16351   */\n      pop\n      pop\n      pop\n      pop\n        /* \"#utility.yul\":14118:16358   */\n      pop\n      pop\n      jump\t// out\n        /* \"#utility.yul\":16364:16620   */\n    tag_43:\n        /* \"#utility.yul\":16500:16614   */\n      tag_284\n        /* \"#utility.yul\":16606:16613   */\n      dup3\n        /* \"#utility.yul\":16600:16604   */\n      dup3\n        /* \"#utility.yul\":16500:16614   */\n      tag_126\n      jump\t// in\n    tag_284:\n        /* \"#utility.yul\":16364:16620   */\n      pop\n      pop\n      jump\t// out\n        /* \"#utility.yul\":16626:16855   */\n    tag_127:\n        /* \"#utility.yul\":16766:16800   */\n      0x4e6f7420666f756e64205265616c537461746520776974682074686973207265\n        /* \"#utility.yul\":16762:16763   */\n      0x00\n        /* \"#utility.yul\":16754:16760   */\n      dup3\n        /* \"#utility.yul\":16750:16764   */\n      add\n        /* \"#utility.yul\":16743:16801   */\n      mstore\n        /* \"#utility.yul\":16835:16847   */\n      0x67697374726174696f6e00000000000000000000000000000000000000000000\n        /* \"#utility.yul\":16830:16832   */\n      0x20\n        /* \"#utility.yul\":16822:16828   */\n      dup3\n        /* \"#utility.yul\":16818:16833   */\n      add\n        /* \"#utility.yul\":16811:16848   */\n      mstore\n        /* \"#utility.yul\":16626:16855   */\n      pop\n      jump\t// out\n        /* \"#utility.yul\":16861:17227   */\n    tag_128:\n        /* \"#utility.yul\":17003:17006   */\n      0x00\n        /* \"#utility.yul\":17024:17091   */\n      tag_287\n        /* \"#utility.yul\":17088:17090   */\n      0x2a\n        /* \"#utility.yul\":17083:17086   */\n      dup4\n        /* \"#utility.yul\":17024:17091   */\n      tag_86\n      jump\t// in\n    tag_287:\n        /* \"#utility.yul\":17017:17091   */\n      swap2\n      pop\n        /* \"#utility.yul\":17100:17193   */\n      tag_288\n        /* \"#utility.yul\":17189:17192   */\n      dup3\n        /* \"#utility.yul\":17100:17193   */\n      tag_127\n      jump\t// in\n    tag_288:\n        /* \"#utility.yul\":17218:17220   */\n      0x40\n        /* \"#utility.yul\":17213:17216   */\n      dup3\n        /* \"#utility.yul\":17209:17221   */\n      add\n        /* \"#utility.yul\":17202:17221   */\n      swap1\n      pop\n        /* \"#utility.yul\":16861:17227   */\n      swap2\n      swap1\n      pop\n      jump\t// out\n        /* \"#utility.yul\":17233:17652   */\n    tag_64:\n        /* \"#utility.yul\":17399:17403   */\n      0x00\n        /* \"#utility.yul\":17437:17439   */\n      0x20\n        /* \"#utility.yul\":17426:17435   */\n      dup3\n        /* \"#utility.yul\":17422:17440   */\n      add\n        /* \"#utility.yul\":17414:17440   */\n      swap1\n      pop\n        /* \"#utility.yul\":17486:17495   */\n      dup2\n        /* \"#utility.yul\":17480:17484   */\n      dup2\n        /* \"#utility.yul\":17476:17496   */\n      sub\n        /* \"#utility.yul\":17472:17473   */\n      0x00\n        /* \"#utility.yul\":17461:17470   */\n      dup4\n        /* \"#utility.yul\":17457:17474   */\n      add\n        /* \"#utility.yul\":17450:17497   */\n      mstore\n        /* \"#utility.yul\":17514:17645   */\n      tag_290\n        /* \"#utility.yul\":17640:17644   */\n      dup2\n        /* \"#utility.yul\":17514:17645   */\n      tag_128\n      jump\t// in\n    tag_290:\n        /* \"#utility.yul\":17506:17645   */\n      swap1\n      pop\n        /* \"#utility.yul\":17233:17652   */\n      swap2\n      swap1\n      pop\n      jump\t// out\n\n    auxdata: 0xa26469706673582212209185b740afa2d34fb8cde1207a48deb9395b84f481bb5e642b37bde034dabeaa64736f6c634300081a0033\n}\n",
				"bytecode": {
					"linkReferences": {},
					"object": "6080604052348015600e575f80fd5b50610ebb8061001c5f395ff3fe608060405234801561000f575f80fd5b506004361061004a575f3560e01c806312e6c9431461004e5780632c233de61461008357806382e27eab1461009f5780638324aa5b146100cf575b5f80fd5b6100686004803603810190610063919061068f565b6100eb565b60405161007a96959493929190610739565b60405180910390f35b61009d600480360381019061009891906107cf565b6102b4565b005b6100b960048036038101906100b4919061068f565b6102db565b6040516100c69190610901565b60405180910390f35b6100e960048036038101906100e4919061068f565b61051d565b005b5f602052805f5260405f205f91509050805f0180546101099061094e565b80601f01602080910402602001604051908101604052809291908181526020018280546101359061094e565b80156101805780601f1061015757610100808354040283529160200191610180565b820191905f5260205f20905b81548152906001019060200180831161016357829003601f168201915b5050505050908060010180546101959061094e565b80601f01602080910402602001604051908101604052809291908181526020018280546101c19061094e565b801561020c5780601f106101e35761010080835404028352916020019161020c565b820191905f5260205f20905b8154815290600101906020018083116101ef57829003601f168201915b5050505050908060020154908060030154908060040154908060050180546102339061094e565b80601f016020809104026020016040519081016040528092919081815260200182805461025f9061094e565b80156102aa5780601f10610281576101008083540402835291602001916102aa565b820191905f5260205f20905b81548152906001019060200180831161028d57829003601f168201915b5050505050905086565b805f80836080013581526020019081526020015f2081816102d59190610de9565b90505050565b6102e36105c9565b5f805f8481526020019081526020015f206040518060c00160405290815f8201805461030e9061094e565b80601f016020809104026020016040519081016040528092919081815260200182805461033a9061094e565b80156103855780601f1061035c57610100808354040283529160200191610385565b820191905f5260205f20905b81548152906001019060200180831161036857829003601f168201915b5050505050815260200160018201805461039e9061094e565b80601f01602080910402602001604051908101604052809291908181526020018280546103ca9061094e565b80156104155780601f106103ec57610100808354040283529160200191610415565b820191905f5260205f20905b8154815290600101906020018083116103f857829003601f168201915b5050505050815260200160028201548152602001600382015481526020016004820154815260200160058201805461044c9061094e565b80601f01602080910402602001604051908101604052809291908181526020018280546104789061094e565b80156104c35780601f1061049a576101008083540402835291602001916104c3565b820191905f5260205f20905b8154815290600101906020018083116104a657829003601f168201915b50505050508152505090505f816080015103610514576040517f08c379a000000000000000000000000000000000000000000000000000000000815260040161050b90610e67565b60405180910390fd5b80915050919050565b5f805f8381526020019081526020015f206004015403610572576040517f08c379a000000000000000000000000000000000000000000000000000000000815260040161056990610e67565b60405180910390fd5b5f808281526020019081526020015f205f8082015f61059191906105fc565b600182015f6105a091906105fc565b600282015f9055600382015f9055600482015f9055600582015f6105c491906105fc565b505050565b6040518060c0016040528060608152602001606081526020015f81526020015f81526020015f8152602001606081525090565b5080546106089061094e565b5f825580601f106106195750610636565b601f0160209004905f5260205f20908101906106359190610639565b5b50565b5b80821115610650575f815f90555060010161063a565b5090565b5f80fd5b5f80fd5b5f819050919050565b61066e8161065c565b8114610678575f80fd5b50565b5f8135905061068981610665565b92915050565b5f602082840312156106a4576106a3610654565b5b5f6106b18482850161067b565b91505092915050565b5f81519050919050565b5f82825260208201905092915050565b8281835e5f83830152505050565b5f601f19601f8301169050919050565b5f6106fc826106ba565b61070681856106c4565b93506107168185602086016106d4565b61071f816106e2565b840191505092915050565b6107338161065c565b82525050565b5f60c0820190508181035f83015261075181896106f2565b9050818103602083015261076581886106f2565b9050610774604083018761072a565b610781606083018661072a565b61078e608083018561072a565b81810360a08301526107a081846106f2565b9050979650505050505050565b5f80fd5b5f60c082840312156107c6576107c56107ad565b5b81905092915050565b5f602082840312156107e4576107e3610654565b5b5f82013567ffffffffffffffff81111561080157610800610658565b5b61080d848285016107b1565b91505092915050565b5f82825260208201905092915050565b5f610830826106ba565b61083a8185610816565b935061084a8185602086016106d4565b610853816106e2565b840191505092915050565b6108678161065c565b82525050565b5f60c083015f8301518482035f8601526108878282610826565b915050602083015184820360208601526108a18282610826565b91505060408301516108b6604086018261085e565b5060608301516108c9606086018261085e565b5060808301516108dc608086018261085e565b5060a083015184820360a08601526108f48282610826565b9150508091505092915050565b5f6020820190508181035f830152610919818461086d565b905092915050565b7f4e487b71000000000000000000000000000000000000000000000000000000005f52602260045260245ffd5b5f600282049050600182168061096557607f821691505b60208210810361097857610977610921565b5b50919050565b5f80fd5b5f80fd5b5f80fd5b5f80833560016020038436030381126109a6576109a561097e565b5b80840192508235915067ffffffffffffffff8211156109c8576109c7610982565b5b6020830192506001820236038313156109e4576109e3610986565b5b509250929050565b5f82905092915050565b7f4e487b71000000000000000000000000000000000000000000000000000000005f52604160045260245ffd5b5f819050815f5260205f209050919050565b5f6020601f8301049050919050565b5f82821b905092915050565b5f60088302610a7f7fffffffffffffffffffffffffffffffffffffffffffffffffffffffffffffffff82610a44565b610a898683610a44565b95508019841693508086168417925050509392505050565b5f819050919050565b5f610ac4610abf610aba8461065c565b610aa1565b61065c565b9050919050565b5f819050919050565b610add83610aaa565b610af1610ae982610acb565b848454610a50565b825550505050565b5f90565b610b05610af9565b610b10818484610ad4565b505050565b5b81811015610b3357610b285f82610afd565b600181019050610b16565b5050565b601f821115610b7857610b4981610a23565b610b5284610a35565b81016020851015610b61578190505b610b75610b6d85610a35565b830182610b15565b50505b505050565b5f82821c905092915050565b5f610b985f1984600802610b7d565b1980831691505092915050565b5f610bb08383610b89565b9150826002028217905092915050565b610bca83836109ec565b67ffffffffffffffff811115610be357610be26109f6565b5b610bed825461094e565b610bf8828285610b37565b5f601f831160018114610c25575f8415610c13578287013590505b610c1d8582610ba5565b865550610c84565b601f198416610c3386610a23565b5f5b82811015610c5a57848901358255600182019150602085019450602081019050610c35565b86831015610c775784890135610c73601f891682610b89565b8355505b6001600288020188555050505b50505050505050565b610c98838383610bc0565b505050565b5f8135610ca981610665565b80915050919050565b5f815f1b9050919050565b5f7fffffffffffffffffffffffffffffffffffffffffffffffffffffffffffffffff610ce884610cb2565b9350801983169250808416831791505092915050565b610d0782610aaa565b610d1a610d1382610acb565b8354610cbd565b8255505050565b5f81015f8301610d31818561098a565b610d3c818386610c8d565b505050506001810160208301610d52818561098a565b610d5d818386610c8d565b50505050600281016040830180610d7381610c9d565b9050610d7f8184610cfe565b505050600381016060830180610d9481610c9d565b9050610da08184610cfe565b505050600481016080830180610db581610c9d565b9050610dc18184610cfe565b5050506005810160a08301610dd6818561098a565b610de1818386610c8d565b505050505050565b610df38282610d21565b5050565b7f4e6f7420666f756e64205265616c5374617465207769746820746869732072655f8201527f67697374726174696f6e00000000000000000000000000000000000000000000602082015250565b5f610e51602a836106c4565b9150610e5c82610df7565b604082019050919050565b5f6020820190508181035f830152610e7e81610e45565b905091905056fea26469706673582212209185b740afa2d34fb8cde1207a48deb9395b84f481bb5e642b37bde034dabeaa64736f6c634300081a0033",
					"opcodes": "PUSH1 0x80 PUSH1 0x40 MSTORE CALLVALUE DUP1 ISZERO PUSH1 0xE JUMPI PUSH0 DUP1 REVERT JUMPDEST POP PUSH2 0xEBB DUP1 PUSH2 0x1C PUSH0 CODECOPY PUSH0 RETURN INVALID PUSH1 0x80 PUSH1 0x40 MSTORE CALLVALUE DUP1 ISZERO PUSH2 0xF JUMPI PUSH0 DUP1 REVERT JUMPDEST POP PUSH1 0x4 CALLDATASIZE LT PUSH2 0x4A JUMPI PUSH0 CALLDATALOAD PUSH1 0xE0 SHR DUP1 PUSH4 0x12E6C943 EQ PUSH2 0x4E JUMPI DUP1 PUSH4 0x2C233DE6 EQ PUSH2 0x83 JUMPI DUP1 PUSH4 0x82E27EAB EQ PUSH2 0x9F JUMPI DUP1 PUSH4 0x8324AA5B EQ PUSH2 0xCF JUMPI JUMPDEST PUSH0 DUP1 REVERT JUMPDEST PUSH2 0x68 PUSH1 0x4 DUP1 CALLDATASIZE SUB DUP2 ADD SWAP1 PUSH2 0x63 SWAP2 SWAP1 PUSH2 0x68F JUMP JUMPDEST PUSH2 0xEB JUMP JUMPDEST PUSH1 0x40 MLOAD PUSH2 0x7A SWAP7 SWAP6 SWAP5 SWAP4 SWAP3 SWAP2 SWAP1 PUSH2 0x739 JUMP JUMPDEST PUSH1 0x40 MLOAD DUP1 SWAP2 SUB SWAP1 RETURN JUMPDEST PUSH2 0x9D PUSH1 0x4 DUP1 CALLDATASIZE SUB DUP2 ADD SWAP1 PUSH2 0x98 SWAP2 SWAP1 PUSH2 0x7CF JUMP JUMPDEST PUSH2 0x2B4 JUMP JUMPDEST STOP JUMPDEST PUSH2 0xB9 PUSH1 0x4 DUP1 CALLDATASIZE SUB DUP2 ADD SWAP1 PUSH2 0xB4 SWAP2 SWAP1 PUSH2 0x68F JUMP JUMPDEST PUSH2 0x2DB JUMP JUMPDEST PUSH1 0x40 MLOAD PUSH2 0xC6 SWAP2 SWAP1 PUSH2 0x901 JUMP JUMPDEST PUSH1 0x40 MLOAD DUP1 SWAP2 SUB SWAP1 RETURN JUMPDEST PUSH2 0xE9 PUSH1 0x4 DUP1 CALLDATASIZE SUB DUP2 ADD SWAP1 PUSH2 0xE4 SWAP2 SWAP1 PUSH2 0x68F JUMP JUMPDEST PUSH2 0x51D JUMP JUMPDEST STOP JUMPDEST PUSH0 PUSH1 0x20 MSTORE DUP1 PUSH0 MSTORE PUSH1 0x40 PUSH0 KECCAK256 PUSH0 SWAP2 POP SWAP1 POP DUP1 PUSH0 ADD DUP1 SLOAD PUSH2 0x109 SWAP1 PUSH2 0x94E JUMP JUMPDEST DUP1 PUSH1 0x1F ADD PUSH1 0x20 DUP1 SWAP2 DIV MUL PUSH1 0x20 ADD PUSH1 0x40 MLOAD SWAP1 DUP2 ADD PUSH1 0x40 MSTORE DUP1 SWAP3 SWAP2 SWAP1 DUP2 DUP2 MSTORE PUSH1 0x20 ADD DUP3 DUP1 SLOAD PUSH2 0x135 SWAP1 PUSH2 0x94E JUMP JUMPDEST DUP1 ISZERO PUSH2 0x180 JUMPI DUP1 PUSH1 0x1F LT PUSH2 0x157 JUMPI PUSH2 0x100 DUP1 DUP4 SLOAD DIV MUL DUP4 MSTORE SWAP2 PUSH1 0x20 ADD SWAP2 PUSH2 0x180 JUMP JUMPDEST DUP3 ADD SWAP2 SWAP1 PUSH0 MSTORE PUSH1 0x20 PUSH0 KECCAK256 SWAP1 JUMPDEST DUP2 SLOAD DUP2 MSTORE SWAP1 PUSH1 0x1 ADD SWAP1 PUSH1 0x20 ADD DUP1 DUP4 GT PUSH2 0x163 JUMPI DUP3 SWAP1 SUB PUSH1 0x1F AND DUP3 ADD SWAP2 JUMPDEST POP POP POP POP POP SWAP1 DUP1 PUSH1 0x1 ADD DUP1 SLOAD PUSH2 0x195 SWAP1 PUSH2 0x94E JUMP JUMPDEST DUP1 PUSH1 0x1F ADD PUSH1 0x20 DUP1 SWAP2 DIV MUL PUSH1 0x20 ADD PUSH1 0x40 MLOAD SWAP1 DUP2 ADD PUSH1 0x40 MSTORE DUP1 SWAP3 SWAP2 SWAP1 DUP2 DUP2 MSTORE PUSH1 0x20 ADD DUP3 DUP1 SLOAD PUSH2 0x1C1 SWAP1 PUSH2 0x94E JUMP JUMPDEST DUP1 ISZERO PUSH2 0x20C JUMPI DUP1 PUSH1 0x1F LT PUSH2 0x1E3 JUMPI PUSH2 0x100 DUP1 DUP4 SLOAD DIV MUL DUP4 MSTORE SWAP2 PUSH1 0x20 ADD SWAP2 PUSH2 0x20C JUMP JUMPDEST DUP3 ADD SWAP2 SWAP1 PUSH0 MSTORE PUSH1 0x20 PUSH0 KECCAK256 SWAP1 JUMPDEST DUP2 SLOAD DUP2 MSTORE SWAP1 PUSH1 0x1 ADD SWAP1 PUSH1 0x20 ADD DUP1 DUP4 GT PUSH2 0x1EF JUMPI DUP3 SWAP1 SUB PUSH1 0x1F AND DUP3 ADD SWAP2 JUMPDEST POP POP POP POP POP SWAP1 DUP1 PUSH1 0x2 ADD SLOAD SWAP1 DUP1 PUSH1 0x3 ADD SLOAD SWAP1 DUP1 PUSH1 0x4 ADD SLOAD SWAP1 DUP1 PUSH1 0x5 ADD DUP1 SLOAD PUSH2 0x233 SWAP1 PUSH2 0x94E JUMP JUMPDEST DUP1 PUSH1 0x1F ADD PUSH1 0x20 DUP1 SWAP2 DIV MUL PUSH1 0x20 ADD PUSH1 0x40 MLOAD SWAP1 DUP2 ADD PUSH1 0x40 MSTORE DUP1 SWAP3 SWAP2 SWAP1 DUP2 DUP2 MSTORE PUSH1 0x20 ADD DUP3 DUP1 SLOAD PUSH2 0x25F SWAP1 PUSH2 0x94E JUMP JUMPDEST DUP1 ISZERO PUSH2 0x2AA JUMPI DUP1 PUSH1 0x1F LT PUSH2 0x281 JUMPI PUSH2 0x100 DUP1 DUP4 SLOAD DIV MUL DUP4 MSTORE SWAP2 PUSH1 0x20 ADD SWAP2 PUSH2 0x2AA JUMP JUMPDEST DUP3 ADD SWAP2 SWAP1 PUSH0 MSTORE PUSH1 0x20 PUSH0 KECCAK256 SWAP1 JUMPDEST DUP2 SLOAD DUP2 MSTORE SWAP1 PUSH1 0x1 ADD SWAP1 PUSH1 0x20 ADD DUP1 DUP4 GT PUSH2 0x28D JUMPI DUP3 SWAP1 SUB PUSH1 0x1F AND DUP3 ADD SWAP2 JUMPDEST POP POP POP POP POP SWAP1 POP DUP7 JUMP JUMPDEST DUP1 PUSH0 DUP1 DUP4 PUSH1 0x80 ADD CALLDATALOAD DUP2 MSTORE PUSH1 0x20 ADD SWAP1 DUP2 MSTORE PUSH1 0x20 ADD PUSH0 KECCAK256 DUP2 DUP2 PUSH2 0x2D5 SWAP2 SWAP1 PUSH2 0xDE9 JUMP JUMPDEST SWAP1 POP POP POP JUMP JUMPDEST PUSH2 0x2E3 PUSH2 0x5C9 JUMP JUMPDEST PUSH0 DUP1 PUSH0 DUP5 DUP2 MSTORE PUSH1 0x20 ADD SWAP1 DUP2 MSTORE PUSH1 0x20 ADD PUSH0 KECCAK256 PUSH1 0x40 MLOAD DUP1 PUSH1 0xC0 ADD PUSH1 0x40 MSTORE SWAP1 DUP2 PUSH0 DUP3 ADD DUP1 SLOAD PUSH2 0x30E SWAP1 PUSH2 0x94E JUMP JUMPDEST DUP1 PUSH1 0x1F ADD PUSH1 0x20 DUP1 SWAP2 DIV MUL PUSH1 0x20 ADD PUSH1 0x40 MLOAD SWAP1 DUP2 ADD PUSH1 0x40 MSTORE DUP1 SWAP3 SWAP2 SWAP1 DUP2 DUP2 MSTORE PUSH1 0x20 ADD DUP3 DUP1 SLOAD PUSH2 0x33A SWAP1 PUSH2 0x94E JUMP JUMPDEST DUP1 ISZERO PUSH2 0x385 JUMPI DUP1 PUSH1 0x1F LT PUSH2 0x35C JUMPI PUSH2 0x100 DUP1 DUP4 SLOAD DIV MUL DUP4 MSTORE SWAP2 PUSH1 0x20 ADD SWAP2 PUSH2 0x385 JUMP JUMPDEST DUP3 ADD SWAP2 SWAP1 PUSH0 MSTORE PUSH1 0x20 PUSH0 KECCAK256 SWAP1 JUMPDEST DUP2 SLOAD DUP2 MSTORE SWAP1 PUSH1 0x1 ADD SWAP1 PUSH1 0x20 ADD DUP1 DUP4 GT PUSH2 0x368 JUMPI DUP3 SWAP1 SUB PUSH1 0x1F AND DUP3 ADD SWAP2 JUMPDEST POP POP POP POP POP DUP2 MSTORE PUSH1 0x20 ADD PUSH1 0x1 DUP3 ADD DUP1 SLOAD PUSH2 0x39E SWAP1 PUSH2 0x94E JUMP JUMPDEST DUP1 PUSH1 0x1F ADD PUSH1 0x20 DUP1 SWAP2 DIV MUL PUSH1 0x20 ADD PUSH1 0x40 MLOAD SWAP1 DUP2 ADD PUSH1 0x40 MSTORE DUP1 SWAP3 SWAP2 SWAP1 DUP2 DUP2 MSTORE PUSH1 0x20 ADD DUP3 DUP1 SLOAD PUSH2 0x3CA SWAP1 PUSH2 0x94E JUMP JUMPDEST DUP1 ISZERO PUSH2 0x415 JUMPI DUP1 PUSH1 0x1F LT PUSH2 0x3EC JUMPI PUSH2 0x100 DUP1 DUP4 SLOAD DIV MUL DUP4 MSTORE SWAP2 PUSH1 0x20 ADD SWAP2 PUSH2 0x415 JUMP JUMPDEST DUP3 ADD SWAP2 SWAP1 PUSH0 MSTORE PUSH1 0x20 PUSH0 KECCAK256 SWAP1 JUMPDEST DUP2 SLOAD DUP2 MSTORE SWAP1 PUSH1 0x1 ADD SWAP1 PUSH1 0x20 ADD DUP1 DUP4 GT PUSH2 0x3F8 JUMPI DUP3 SWAP1 SUB PUSH1 0x1F AND DUP3 ADD SWAP2 JUMPDEST POP POP POP POP POP DUP2 MSTORE PUSH1 0x20 ADD PUSH1 0x2 DUP3 ADD SLOAD DUP2 MSTORE PUSH1 0x20 ADD PUSH1 0x3 DUP3 ADD SLOAD DUP2 MSTORE PUSH1 0x20 ADD PUSH1 0x4 DUP3 ADD SLOAD DUP2 MSTORE PUSH1 0x20 ADD PUSH1 0x5 DUP3 ADD DUP1 SLOAD PUSH2 0x44C SWAP1 PUSH2 0x94E JUMP JUMPDEST DUP1 PUSH1 0x1F ADD PUSH1 0x20 DUP1 SWAP2 DIV MUL PUSH1 0x20 ADD PUSH1 0x40 MLOAD SWAP1 DUP2 ADD PUSH1 0x40 MSTORE DUP1 SWAP3 SWAP2 SWAP1 DUP2 DUP2 MSTORE PUSH1 0x20 ADD DUP3 DUP1 SLOAD PUSH2 0x478 SWAP1 PUSH2 0x94E JUMP JUMPDEST DUP1 ISZERO PUSH2 0x4C3 JUMPI DUP1 PUSH1 0x1F LT PUSH2 0x49A JUMPI PUSH2 0x100 DUP1 DUP4 SLOAD DIV MUL DUP4 MSTORE SWAP2 PUSH1 0x20 ADD SWAP2 PUSH2 0x4C3 JUMP JUMPDEST DUP3 ADD SWAP2 SWAP1 PUSH0 MSTORE PUSH1 0x20 PUSH0 KECCAK256 SWAP1 JUMPDEST DUP2 SLOAD DUP2 MSTORE SWAP1 PUSH1 0x1 ADD SWAP1 PUSH1 0x20 ADD DUP1 DUP4 GT PUSH2 0x4A6 JUMPI DUP3 SWAP1 SUB PUSH1 0x1F AND DUP3 ADD SWAP2 JUMPDEST POP POP POP POP POP DUP2 MSTORE POP POP SWAP1 POP PUSH0 DUP2 PUSH1 0x80 ADD MLOAD SUB PUSH2 0x514 JUMPI PUSH1 0x40 MLOAD PUSH32 0x8C379A000000000000000000000000000000000000000000000000000000000 DUP2 MSTORE PUSH1 0x4 ADD PUSH2 0x50B SWAP1 PUSH2 0xE67 JUMP JUMPDEST PUSH1 0x40 MLOAD DUP1 SWAP2 SUB SWAP1 REVERT JUMPDEST DUP1 SWAP2 POP POP SWAP2 SWAP1 POP JUMP JUMPDEST PUSH0 DUP1 PUSH0 DUP4 DUP2 MSTORE PUSH1 0x20 ADD SWAP1 DUP2 MSTORE PUSH1 0x20 ADD PUSH0 KECCAK256 PUSH1 0x4 ADD SLOAD SUB PUSH2 0x572 JUMPI PUSH1 0x40 MLOAD PUSH32 0x8C379A000000000000000000000000000000000000000000000000000000000 DUP2 MSTORE PUSH1 0x4 ADD PUSH2 0x569 SWAP1 PUSH2 0xE67 JUMP JUMPDEST PUSH1 0x40 MLOAD DUP1 SWAP2 SUB SWAP1 REVERT JUMPDEST PUSH0 DUP1 DUP3 DUP2 MSTORE PUSH1 0x20 ADD SWAP1 DUP2 MSTORE PUSH1 0x20 ADD PUSH0 KECCAK256 PUSH0 DUP1 DUP3 ADD PUSH0 PUSH2 0x591 SWAP2 SWAP1 PUSH2 0x5FC JUMP JUMPDEST PUSH1 0x1 DUP3 ADD PUSH0 PUSH2 0x5A0 SWAP2 SWAP1 PUSH2 0x5FC JUMP JUMPDEST PUSH1 0x2 DUP3 ADD PUSH0 SWAP1 SSTORE PUSH1 0x3 DUP3 ADD PUSH0 SWAP1 SSTORE PUSH1 0x4 DUP3 ADD PUSH0 SWAP1 SSTORE PUSH1 0x5 DUP3 ADD PUSH0 PUSH2 0x5C4 SWAP2 SWAP1 PUSH2 0x5FC JUMP JUMPDEST POP POP POP JUMP JUMPDEST PUSH1 0x40 MLOAD DUP1 PUSH1 0xC0 ADD PUSH1 0x40 MSTORE DUP1 PUSH1 0x60 DUP2 MSTORE PUSH1 0x20 ADD PUSH1 0x60 DUP2 MSTORE PUSH1 0x20 ADD PUSH0 DUP2 MSTORE PUSH1 0x20 ADD PUSH0 DUP2 MSTORE PUSH1 0x20 ADD PUSH0 DUP2 MSTORE PUSH1 0x20 ADD PUSH1 0x60 DUP2 MSTORE POP SWAP1 JUMP JUMPDEST POP DUP1 SLOAD PUSH2 0x608 SWAP1 PUSH2 0x94E JUMP JUMPDEST PUSH0 DUP3 SSTORE DUP1 PUSH1 0x1F LT PUSH2 0x619 JUMPI POP PUSH2 0x636 JUMP JUMPDEST PUSH1 0x1F ADD PUSH1 0x20 SWAP1 DIV SWAP1 PUSH0 MSTORE PUSH1 0x20 PUSH0 KECCAK256 SWAP1 DUP2 ADD SWAP1 PUSH2 0x635 SWAP2 SWAP1 PUSH2 0x639 JUMP JUMPDEST JUMPDEST POP JUMP JUMPDEST JUMPDEST DUP1 DUP3 GT ISZERO PUSH2 0x650 JUMPI PUSH0 DUP2 PUSH0 SWAP1 SSTORE POP PUSH1 0x1 ADD PUSH2 0x63A JUMP JUMPDEST POP SWAP1 JUMP JUMPDEST PUSH0 DUP1 REVERT JUMPDEST PUSH0 DUP1 REVERT JUMPDEST PUSH0 DUP2 SWAP1 POP SWAP2 SWAP1 POP JUMP JUMPDEST PUSH2 0x66E DUP2 PUSH2 0x65C JUMP JUMPDEST DUP2 EQ PUSH2 0x678 JUMPI PUSH0 DUP1 REVERT JUMPDEST POP JUMP JUMPDEST PUSH0 DUP2 CALLDATALOAD SWAP1 POP PUSH2 0x689 DUP2 PUSH2 0x665 JUMP JUMPDEST SWAP3 SWAP2 POP POP JUMP JUMPDEST PUSH0 PUSH1 0x20 DUP3 DUP5 SUB SLT ISZERO PUSH2 0x6A4 JUMPI PUSH2 0x6A3 PUSH2 0x654 JUMP JUMPDEST JUMPDEST PUSH0 PUSH2 0x6B1 DUP5 DUP3 DUP6 ADD PUSH2 0x67B JUMP JUMPDEST SWAP2 POP POP SWAP3 SWAP2 POP POP JUMP JUMPDEST PUSH0 DUP2 MLOAD SWAP1 POP SWAP2 SWAP1 POP JUMP JUMPDEST PUSH0 DUP3 DUP3 MSTORE PUSH1 0x20 DUP3 ADD SWAP1 POP SWAP3 SWAP2 POP POP JUMP JUMPDEST DUP3 DUP2 DUP4 MCOPY PUSH0 DUP4 DUP4 ADD MSTORE POP POP POP JUMP JUMPDEST PUSH0 PUSH1 0x1F NOT PUSH1 0x1F DUP4 ADD AND SWAP1 POP SWAP2 SWAP1 POP JUMP JUMPDEST PUSH0 PUSH2 0x6FC DUP3 PUSH2 0x6BA JUMP JUMPDEST PUSH2 0x706 DUP2 DUP6 PUSH2 0x6C4 JUMP JUMPDEST SWAP4 POP PUSH2 0x716 DUP2 DUP6 PUSH1 0x20 DUP7 ADD PUSH2 0x6D4 JUMP JUMPDEST PUSH2 0x71F DUP2 PUSH2 0x6E2 JUMP JUMPDEST DUP5 ADD SWAP2 POP POP SWAP3 SWAP2 POP POP JUMP JUMPDEST PUSH2 0x733 DUP2 PUSH2 0x65C JUMP JUMPDEST DUP3 MSTORE POP POP JUMP JUMPDEST PUSH0 PUSH1 0xC0 DUP3 ADD SWAP1 POP DUP2 DUP2 SUB PUSH0 DUP4 ADD MSTORE PUSH2 0x751 DUP2 DUP10 PUSH2 0x6F2 JUMP JUMPDEST SWAP1 POP DUP2 DUP2 SUB PUSH1 0x20 DUP4 ADD MSTORE PUSH2 0x765 DUP2 DUP9 PUSH2 0x6F2 JUMP JUMPDEST SWAP1 POP PUSH2 0x774 PUSH1 0x40 DUP4 ADD DUP8 PUSH2 0x72A JUMP JUMPDEST PUSH2 0x781 PUSH1 0x60 DUP4 ADD DUP7 PUSH2 0x72A JUMP JUMPDEST PUSH2 0x78E PUSH1 0x80 DUP4 ADD DUP6 PUSH2 0x72A JUMP JUMPDEST DUP2 DUP2 SUB PUSH1 0xA0 DUP4 ADD MSTORE PUSH2 0x7A0 DUP2 DUP5 PUSH2 0x6F2 JUMP JUMPDEST SWAP1 POP SWAP8 SWAP7 POP POP POP POP POP POP POP JUMP JUMPDEST PUSH0 DUP1 REVERT JUMPDEST PUSH0 PUSH1 0xC0 DUP3 DUP5 SUB SLT ISZERO PUSH2 0x7C6 JUMPI PUSH2 0x7C5 PUSH2 0x7AD JUMP JUMPDEST JUMPDEST DUP2 SWAP1 POP SWAP3 SWAP2 POP POP JUMP JUMPDEST PUSH0 PUSH1 0x20 DUP3 DUP5 SUB SLT ISZERO PUSH2 0x7E4 JUMPI PUSH2 0x7E3 PUSH2 0x654 JUMP JUMPDEST JUMPDEST PUSH0 DUP3 ADD CALLDATALOAD PUSH8 0xFFFFFFFFFFFFFFFF DUP2 GT ISZERO PUSH2 0x801 JUMPI PUSH2 0x800 PUSH2 0x658 JUMP JUMPDEST JUMPDEST PUSH2 0x80D DUP5 DUP3 DUP6 ADD PUSH2 0x7B1 JUMP JUMPDEST SWAP2 POP POP SWAP3 SWAP2 POP POP JUMP JUMPDEST PUSH0 DUP3 DUP3 MSTORE PUSH1 0x20 DUP3 ADD SWAP1 POP SWAP3 SWAP2 POP POP JUMP JUMPDEST PUSH0 PUSH2 0x830 DUP3 PUSH2 0x6BA JUMP JUMPDEST PUSH2 0x83A DUP2 DUP6 PUSH2 0x816 JUMP JUMPDEST SWAP4 POP PUSH2 0x84A DUP2 DUP6 PUSH1 0x20 DUP7 ADD PUSH2 0x6D4 JUMP JUMPDEST PUSH2 0x853 DUP2 PUSH2 0x6E2 JUMP JUMPDEST DUP5 ADD SWAP2 POP POP SWAP3 SWAP2 POP POP JUMP JUMPDEST PUSH2 0x867 DUP2 PUSH2 0x65C JUMP JUMPDEST DUP3 MSTORE POP POP JUMP JUMPDEST PUSH0 PUSH1 0xC0 DUP4 ADD PUSH0 DUP4 ADD MLOAD DUP5 DUP3 SUB PUSH0 DUP7 ADD MSTORE PUSH2 0x887 DUP3 DUP3 PUSH2 0x826 JUMP JUMPDEST SWAP2 POP POP PUSH1 0x20 DUP4 ADD MLOAD DUP5 DUP3 SUB PUSH1 0x20 DUP7 ADD MSTORE PUSH2 0x8A1 DUP3 DUP3 PUSH2 0x826 JUMP JUMPDEST SWAP2 POP POP PUSH1 0x40 DUP4 ADD MLOAD PUSH2 0x8B6 PUSH1 0x40 DUP7 ADD DUP3 PUSH2 0x85E JUMP JUMPDEST POP PUSH1 0x60 DUP4 ADD MLOAD PUSH2 0x8C9 PUSH1 0x60 DUP7 ADD DUP3 PUSH2 0x85E JUMP JUMPDEST POP PUSH1 0x80 DUP4 ADD MLOAD PUSH2 0x8DC PUSH1 0x80 DUP7 ADD DUP3 PUSH2 0x85E JUMP JUMPDEST POP PUSH1 0xA0 DUP4 ADD MLOAD DUP5 DUP3 SUB PUSH1 0xA0 DUP7 ADD MSTORE PUSH2 0x8F4 DUP3 DUP3 PUSH2 0x826 JUMP JUMPDEST SWAP2 POP POP DUP1 SWAP2 POP POP SWAP3 SWAP2 POP POP JUMP JUMPDEST PUSH0 PUSH1 0x20 DUP3 ADD SWAP1 POP DUP2 DUP2 SUB PUSH0 DUP4 ADD MSTORE PUSH2 0x919 DUP2 DUP5 PUSH2 0x86D JUMP JUMPDEST SWAP1 POP SWAP3 SWAP2 POP POP JUMP JUMPDEST PUSH32 0x4E487B7100000000000000000000000000000000000000000000000000000000 PUSH0 MSTORE PUSH1 0x22 PUSH1 0x4 MSTORE PUSH1 0x24 PUSH0 REVERT JUMPDEST PUSH0 PUSH1 0x2 DUP3 DIV SWAP1 POP PUSH1 0x1 DUP3 AND DUP1 PUSH2 0x965 JUMPI PUSH1 0x7F DUP3 AND SWAP2 POP JUMPDEST PUSH1 0x20 DUP3 LT DUP2 SUB PUSH2 0x978 JUMPI PUSH2 0x977 PUSH2 0x921 JUMP JUMPDEST JUMPDEST POP SWAP2 SWAP1 POP JUMP JUMPDEST PUSH0 DUP1 REVERT JUMPDEST PUSH0 DUP1 REVERT JUMPDEST PUSH0 DUP1 REVERT JUMPDEST PUSH0 DUP1 DUP4 CALLDATALOAD PUSH1 0x1 PUSH1 0x20 SUB DUP5 CALLDATASIZE SUB SUB DUP2 SLT PUSH2 0x9A6 JUMPI PUSH2 0x9A5 PUSH2 0x97E JUMP JUMPDEST JUMPDEST DUP1 DUP5 ADD SWAP3 POP DUP3 CALLDATALOAD SWAP2 POP PUSH8 0xFFFFFFFFFFFFFFFF DUP3 GT ISZERO PUSH2 0x9C8 JUMPI PUSH2 0x9C7 PUSH2 0x982 JUMP JUMPDEST JUMPDEST PUSH1 0x20 DUP4 ADD SWAP3 POP PUSH1 0x1 DUP3 MUL CALLDATASIZE SUB DUP4 SGT ISZERO PUSH2 0x9E4 JUMPI PUSH2 0x9E3 PUSH2 0x986 JUMP JUMPDEST JUMPDEST POP SWAP3 POP SWAP3 SWAP1 POP JUMP JUMPDEST PUSH0 DUP3 SWAP1 POP SWAP3 SWAP2 POP POP JUMP JUMPDEST PUSH32 0x4E487B7100000000000000000000000000000000000000000000000000000000 PUSH0 MSTORE PUSH1 0x41 PUSH1 0x4 MSTORE PUSH1 0x24 PUSH0 REVERT JUMPDEST PUSH0 DUP2 SWAP1 POP DUP2 PUSH0 MSTORE PUSH1 0x20 PUSH0 KECCAK256 SWAP1 POP SWAP2 SWAP1 POP JUMP JUMPDEST PUSH0 PUSH1 0x20 PUSH1 0x1F DUP4 ADD DIV SWAP1 POP SWAP2 SWAP1 POP JUMP JUMPDEST PUSH0 DUP3 DUP3 SHL SWAP1 POP SWAP3 SWAP2 POP POP JUMP JUMPDEST PUSH0 PUSH1 0x8 DUP4 MUL PUSH2 0xA7F PUSH32 0xFFFFFFFFFFFFFFFFFFFFFFFFFFFFFFFFFFFFFFFFFFFFFFFFFFFFFFFFFFFFFFFF DUP3 PUSH2 0xA44 JUMP JUMPDEST PUSH2 0xA89 DUP7 DUP4 PUSH2 0xA44 JUMP JUMPDEST SWAP6 POP DUP1 NOT DUP5 AND SWAP4 POP DUP1 DUP7 AND DUP5 OR SWAP3 POP POP POP SWAP4 SWAP3 POP POP POP JUMP JUMPDEST PUSH0 DUP2 SWAP1 POP SWAP2 SWAP1 POP JUMP JUMPDEST PUSH0 PUSH2 0xAC4 PUSH2 0xABF PUSH2 0xABA DUP5 PUSH2 0x65C JUMP JUMPDEST PUSH2 0xAA1 JUMP JUMPDEST PUSH2 0x65C JUMP JUMPDEST SWAP1 POP SWAP2 SWAP1 POP JUMP JUMPDEST PUSH0 DUP2 SWAP1 POP SWAP2 SWAP1 POP JUMP JUMPDEST PUSH2 0xADD DUP4 PUSH2 0xAAA JUMP JUMPDEST PUSH2 0xAF1 PUSH2 0xAE9 DUP3 PUSH2 0xACB JUMP JUMPDEST DUP5 DUP5 SLOAD PUSH2 0xA50 JUMP JUMPDEST DUP3 SSTORE POP POP POP POP JUMP JUMPDEST PUSH0 SWAP1 JUMP JUMPDEST PUSH2 0xB05 PUSH2 0xAF9 JUMP JUMPDEST PUSH2 0xB10 DUP2 DUP5 DUP5 PUSH2 0xAD4 JUMP JUMPDEST POP POP POP JUMP JUMPDEST JUMPDEST DUP2 DUP2 LT ISZERO PUSH2 0xB33 JUMPI PUSH2 0xB28 PUSH0 DUP3 PUSH2 0xAFD JUMP JUMPDEST PUSH1 0x1 DUP2 ADD SWAP1 POP PUSH2 0xB16 JUMP JUMPDEST POP POP JUMP JUMPDEST PUSH1 0x1F DUP3 GT ISZERO PUSH2 0xB78 JUMPI PUSH2 0xB49 DUP2 PUSH2 0xA23 JUMP JUMPDEST PUSH2 0xB52 DUP5 PUSH2 0xA35 JUMP JUMPDEST DUP2 ADD PUSH1 0x20 DUP6 LT ISZERO PUSH2 0xB61 JUMPI DUP2 SWAP1 POP JUMPDEST PUSH2 0xB75 PUSH2 0xB6D DUP6 PUSH2 0xA35 JUMP JUMPDEST DUP4 ADD DUP3 PUSH2 0xB15 JUMP JUMPDEST POP POP JUMPDEST POP POP POP JUMP JUMPDEST PUSH0 DUP3 DUP3 SHR SWAP1 POP SWAP3 SWAP2 POP POP JUMP JUMPDEST PUSH0 PUSH2 0xB98 PUSH0 NOT DUP5 PUSH1 0x8 MUL PUSH2 0xB7D JUMP JUMPDEST NOT DUP1 DUP4 AND SWAP2 POP POP SWAP3 SWAP2 POP POP JUMP JUMPDEST PUSH0 PUSH2 0xBB0 DUP4 DUP4 PUSH2 0xB89 JUMP JUMPDEST SWAP2 POP DUP3 PUSH1 0x2 MUL DUP3 OR SWAP1 POP SWAP3 SWAP2 POP POP JUMP JUMPDEST PUSH2 0xBCA DUP4 DUP4 PUSH2 0x9EC JUMP JUMPDEST PUSH8 0xFFFFFFFFFFFFFFFF DUP2 GT ISZERO PUSH2 0xBE3 JUMPI PUSH2 0xBE2 PUSH2 0x9F6 JUMP JUMPDEST JUMPDEST PUSH2 0xBED DUP3 SLOAD PUSH2 0x94E JUMP JUMPDEST PUSH2 0xBF8 DUP3 DUP3 DUP6 PUSH2 0xB37 JUMP JUMPDEST PUSH0 PUSH1 0x1F DUP4 GT PUSH1 0x1 DUP2 EQ PUSH2 0xC25 JUMPI PUSH0 DUP5 ISZERO PUSH2 0xC13 JUMPI DUP3 DUP8 ADD CALLDATALOAD SWAP1 POP JUMPDEST PUSH2 0xC1D DUP6 DUP3 PUSH2 0xBA5 JUMP JUMPDEST DUP7 SSTORE POP PUSH2 0xC84 JUMP JUMPDEST PUSH1 0x1F NOT DUP5 AND PUSH2 0xC33 DUP7 PUSH2 0xA23 JUMP JUMPDEST PUSH0 JUMPDEST DUP3 DUP2 LT ISZERO PUSH2 0xC5A JUMPI DUP5 DUP10 ADD CALLDATALOAD DUP3 SSTORE PUSH1 0x1 DUP3 ADD SWAP2 POP PUSH1 0x20 DUP6 ADD SWAP5 POP PUSH1 0x20 DUP2 ADD SWAP1 POP PUSH2 0xC35 JUMP JUMPDEST DUP7 DUP4 LT ISZERO PUSH2 0xC77 JUMPI DUP5 DUP10 ADD CALLDATALOAD PUSH2 0xC73 PUSH1 0x1F DUP10 AND DUP3 PUSH2 0xB89 JUMP JUMPDEST DUP4 SSTORE POP JUMPDEST PUSH1 0x1 PUSH1 0x2 DUP9 MUL ADD DUP9 SSTORE POP POP POP JUMPDEST POP POP POP POP POP POP POP JUMP JUMPDEST PUSH2 0xC98 DUP4 DUP4 DUP4 PUSH2 0xBC0 JUMP JUMPDEST POP POP POP JUMP JUMPDEST PUSH0 DUP2 CALLDATALOAD PUSH2 0xCA9 DUP2 PUSH2 0x665 JUMP JUMPDEST DUP1 SWAP2 POP POP SWAP2 SWAP1 POP JUMP JUMPDEST PUSH0 DUP2 PUSH0 SHL SWAP1 POP SWAP2 SWAP1 POP JUMP JUMPDEST PUSH0 PUSH32 0xFFFFFFFFFFFFFFFFFFFFFFFFFFFFFFFFFFFFFFFFFFFFFFFFFFFFFFFFFFFFFFFF PUSH2 0xCE8 DUP5 PUSH2 0xCB2 JUMP JUMPDEST SWAP4 POP DUP1 NOT DUP4 AND SWAP3 POP DUP1 DUP5 AND DUP4 OR SWAP2 POP POP SWAP3 SWAP2 POP POP JUMP JUMPDEST PUSH2 0xD07 DUP3 PUSH2 0xAAA JUMP JUMPDEST PUSH2 0xD1A PUSH2 0xD13 DUP3 PUSH2 0xACB JUMP JUMPDEST DUP4 SLOAD PUSH2 0xCBD JUMP JUMPDEST DUP3 SSTORE POP POP POP JUMP JUMPDEST PUSH0 DUP2 ADD PUSH0 DUP4 ADD PUSH2 0xD31 DUP2 DUP6 PUSH2 0x98A JUMP JUMPDEST PUSH2 0xD3C DUP2 DUP4 DUP7 PUSH2 0xC8D JUMP JUMPDEST POP POP POP POP PUSH1 0x1 DUP2 ADD PUSH1 0x20 DUP4 ADD PUSH2 0xD52 DUP2 DUP6 PUSH2 0x98A JUMP JUMPDEST PUSH2 0xD5D DUP2 DUP4 DUP7 PUSH2 0xC8D JUMP JUMPDEST POP POP POP POP PUSH1 0x2 DUP2 ADD PUSH1 0x40 DUP4 ADD DUP1 PUSH2 0xD73 DUP2 PUSH2 0xC9D JUMP JUMPDEST SWAP1 POP PUSH2 0xD7F DUP2 DUP5 PUSH2 0xCFE JUMP JUMPDEST POP POP POP PUSH1 0x3 DUP2 ADD PUSH1 0x60 DUP4 ADD DUP1 PUSH2 0xD94 DUP2 PUSH2 0xC9D JUMP JUMPDEST SWAP1 POP PUSH2 0xDA0 DUP2 DUP5 PUSH2 0xCFE JUMP JUMPDEST POP POP POP PUSH1 0x4 DUP2 ADD PUSH1 0x80 DUP4 ADD DUP1 PUSH2 0xDB5 DUP2 PUSH2 0xC9D JUMP JUMPDEST SWAP1 POP PUSH2 0xDC1 DUP2 DUP5 PUSH2 0xCFE JUMP JUMPDEST POP POP POP PUSH1 0x5 DUP2 ADD PUSH1 0xA0 DUP4 ADD PUSH2 0xDD6 DUP2 DUP6 PUSH2 0x98A JUMP JUMPDEST PUSH2 0xDE1 DUP2 DUP4 DUP7 PUSH2 0xC8D JUMP JUMPDEST POP POP POP POP POP POP JUMP JUMPDEST PUSH2 0xDF3 DUP3 DUP3 PUSH2 0xD21 JUMP JUMPDEST POP POP JUMP JUMPDEST PUSH32 0x4E6F7420666F756E64205265616C537461746520776974682074686973207265 PUSH0 DUP3 ADD MSTORE PUSH32 0x67697374726174696F6E00000000000000000000000000000000000000000000 PUSH1 0x20 DUP3 ADD MSTORE POP JUMP JUMPDEST PUSH0 PUSH2 0xE51 PUSH1 0x2A DUP4 PUSH2 0x6C4 JUMP JUMPDEST SWAP2 POP PUSH2 0xE5C DUP3 PUSH2 0xDF7 JUMP JUMPDEST PUSH1 0x40 DUP3 ADD SWAP1 POP SWAP2 SWAP1 POP JUMP JUMPDEST PUSH0 PUSH1 0x20 DUP3 ADD SWAP1 POP DUP2 DUP2 SUB PUSH0 DUP4 ADD MSTORE PUSH2 0xE7E DUP2 PUSH2 0xE45 JUMP JUMPDEST SWAP1 POP SWAP2 SWAP1 POP JUMP INVALID LOG2 PUSH5 0x6970667358 0x22 SLT KECCAK256 SWAP2 DUP6 0xB7 BLOCKHASH 0xAF LOG2 0xD3 0x4F 0xB8 0xCD 0xE1 KECCAK256 PUSH27 0x48DEB9395B84F481BB5E642B37BDE034DABEAA64736F6C63430008 BYTE STOP CALLER "
				},
				"gasEstimates": {
					"creation": {
						"codeDepositCost": "754200",
						"executionCost": "784",
						"totalCost": "754984"
					},
					"external": {
						"addRealState((string,string,uint256,uint256,uint256,string))": "infinite",
						"deleteRealStateByRegistration(uint256)": "infinite",
						"getRealStateByRegistration(uint256)": "infinite",
						"realStateMap(uint256)": "infinite"
					}
				},
				"methodIdentifiers": {
					"addRealState((string,string,uint256,uint256,uint256,string))": "2c233de6",
					"deleteRealStateByRegistration(uint256)": "8324aa5b",
					"getRealStateByRegistration(uint256)": "82e27eab",
					"realStateMap(uint256)": "12e6c943"
				}
			},
			"storageLayout": {
				"storage": [
					{
						"astId": 20,
						"contract": "contracts/RealStateContract.sol:RealStateContractRegistrations",
						"label": "realStateMap",
						"offset": 0,
						"slot": "0",
						"type": "t_mapping(t_uint256,t_struct(RealState)14_storage)"
					}
				],
				"types": {
					"t_mapping(t_uint256,t_struct(RealState)14_storage)": {
						"encoding": "mapping",
						"key": "t_uint256",
						"label": "mapping(uint256 => struct Shared.RealState)",
						"numberOfBytes": "32",
						"value": "t_struct(RealState)14_storage"
					},
					"t_string_storage": {
						"encoding": "bytes",
						"label": "string",
						"numberOfBytes": "32"
					},
					"t_struct(RealState)14_storage": {
						"encoding": "inplace",
						"label": "struct Shared.RealState",
						"members": [
							{
								"astId": 3,
								"contract": "contracts/RealStateContract.sol:RealStateContractRegistrations",
								"label": "city",
								"offset": 0,
								"slot": "0",
								"type": "t_string_storage"
							},
							{
								"astId": 5,
								"contract": "contracts/RealStateContract.sol:RealStateContractRegistrations",
								"label": "street",
								"offset": 0,
								"slot": "1",
								"type": "t_string_storage"
							},
							{
								"astId": 7,
								"contract": "contracts/RealStateContract.sol:RealStateContractRegistrations",
								"label": "number",
								"offset": 0,
								"slot": "2",
								"type": "t_uint256"
							},
							{
								"astId": 9,
								"contract": "contracts/RealStateContract.sol:RealStateContractRegistrations",
								"label": "meters",
								"offset": 0,
								"slot": "3",
								"type": "t_uint256"
							},
							{
								"astId": 11,
								"contract": "contracts/RealStateContract.sol:RealStateContractRegistrations",
								"label": "registration",
								"offset": 0,
								"slot": "4",
								"type": "t_uint256"
							},
							{
								"astId": 13,
								"contract": "contracts/RealStateContract.sol:RealStateContractRegistrations",
								"label": "owner",
								"offset": 0,
								"slot": "5",
								"type": "t_string_storage"
							}
						],
						"numberOfBytes": "192"
					},
					"t_uint256": {
						"encoding": "inplace",
						"label": "uint256",
						"numberOfBytes": "32"
					}
				}
			},
			"userdoc": {
				"kind": "user",
				"methods": {},
				"version": 1
			}
		}
	}
}