{
	"contracts/RealStateContract.sol": {
		"RealStateContractCities": {
			"abi": [
				{
					"inputs": [
						{
							"components": [
								{
									"internalType": "string",
									"name": "city",
									"type": "string"
								},
								{
									"internalType": "string",
									"name": "street",
									"type": "string"
								},
								{
									"internalType": "uint256",
									"name": "number",
									"type": "uint256"
								},
								{
									"internalType": "uint256",
									"name": "meters",
									"type": "uint256"
								},
								{
									"internalType": "uint256",
									"name": "registration",
									"type": "uint256"
								},
								{
									"internalType": "string",
									"name": "owner",
									"type": "string"
								}
							],
							"internalType": "struct Shared.RealState",
							"name": "realState",
							"type": "tuple"
						}
					],
					"name": "addRealState",
					"outputs": [],
					"stateMutability": "nonpayable",
					"type": "function"
				},
				{
					"inputs": [
						{
							"internalType": "string",
							"name": "_city",
							"type": "string"
						}
					],
					"name": "getRealStateByCity",
					"outputs": [
						{
							"components": [
								{
									"internalType": "string",
									"name": "city",
									"type": "string"
								},
								{
									"internalType": "string",
									"name": "street",
									"type": "string"
								},
								{
									"internalType": "uint256",
									"name": "number",
									"type": "uint256"
								},
								{
									"internalType": "uint256",
									"name": "meters",
									"type": "uint256"
								},
								{
									"internalType": "uint256",
									"name": "registration",
									"type": "uint256"
								},
								{
									"internalType": "string",
									"name": "owner",
									"type": "string"
								}
							],
							"internalType": "struct Shared.RealState[]",
							"name": "",
							"type": "tuple[]"
						}
					],
					"stateMutability": "view",
					"type": "function"
				},
				{
					"inputs": [
						{
							"internalType": "string",
							"name": "",
							"type": "string"
						},
						{
							"internalType": "uint256",
							"name": "",
							"type": "uint256"
						}
					],
					"name": "realStateMap",
					"outputs": [
						{
							"internalType": "string",
							"name": "city",
							"type": "string"
						},
						{
							"internalType": "string",
							"name": "street",
							"type": "string"
						},
						{
							"internalType": "uint256",
							"name": "number",
							"type": "uint256"
						},
						{
							"internalType": "uint256",
							"name": "meters",
							"type": "uint256"
						},
						{
							"internalType": "uint256",
							"name": "registration",
							"type": "uint256"
						},
						{
							"internalType": "string",
							"name": "owner",
							"type": "string"
						}
					],
					"stateMutability": "view",
					"type": "function"
				}
			],
			"devdoc": {
				"kind": "dev",
				"methods": {},
				"version": 1
			},
			"evm": {
				"assembly": "    /* \"contracts/RealStateContract.sol\":258:648  contract RealStateContractCities {... */\n  mstore(0x40, 0x80)\n  callvalue\n  dup1\n  iszero\n  tag_1\n  jumpi\n  0x00\n  dup1\n  revert\ntag_1:\n  pop\n  dataSize(sub_0)\n  dup1\n  dataOffset(sub_0)\n  0x00\n  codecopy\n  0x00\n  return\nstop\n\nsub_0: assembly {\n        /* \"contracts/RealStateContract.sol\":258:648  contract RealStateContractCities {... */\n      mstore(0x40, 0x80)\n      callvalue\n      dup1\n      iszero\n      tag_1\n      jumpi\n      0x00\n      dup1\n      revert\n    tag_1:\n      pop\n      jumpi(tag_2, lt(calldatasize, 0x04))\n      shr(0xe0, calldataload(0x00))\n      dup1\n      0x0de06237\n      eq\n      tag_3\n      jumpi\n      dup1\n      0x2c233de6\n      eq\n      tag_4\n      jumpi\n      dup1\n      0x7946bcf4\n      eq\n      tag_5\n      jumpi\n    tag_2:\n      0x00\n      dup1\n      revert\n        /* \"contracts/RealStateContract.sol\":363:507  function getRealStateByCity (string calldata _city) public view returns(Shared.RealState[] memory) {... */\n    tag_3:\n      tag_6\n      0x04\n      dup1\n      calldatasize\n      sub\n      dup2\n      add\n      swap1\n      tag_7\n      swap2\n      swap1\n      tag_8\n      jump\t// in\n    tag_7:\n      tag_9\n      jump\t// in\n    tag_6:\n      mload(0x40)\n      tag_10\n      swap2\n      swap1\n      tag_11\n      jump\t// in\n    tag_10:\n      mload(0x40)\n      dup1\n      swap2\n      sub\n      swap1\n      return\n        /* \"contracts/RealStateContract.sol\":513:643  function addRealState (Shared.RealState calldata realState) public {... */\n    tag_4:\n      tag_12\n      0x04\n      dup1\n      calldatasize\n      sub\n      dup2\n      add\n      swap1\n      tag_13\n      swap2\n      swap1\n      tag_14\n      jump\t// in\n    tag_13:\n      tag_15\n      jump\t// in\n    tag_12:\n      stop\n        /* \"contracts/RealStateContract.sol\":298:356  mapping( string => Shared.RealState[]) public realStateMap */\n    tag_5:\n      tag_16\n      0x04\n      dup1\n      calldatasize\n      sub\n      dup2\n      add\n      swap1\n      tag_17\n      swap2\n      swap1\n      tag_18\n      jump\t// in\n    tag_17:\n      tag_19\n      jump\t// in\n    tag_16:\n      mload(0x40)\n      tag_20\n      swap7\n      swap6\n      swap5\n      swap4\n      swap3\n      swap2\n      swap1\n      tag_21\n      jump\t// in\n    tag_20:\n      mload(0x40)\n      dup1\n      swap2\n      sub\n      swap1\n      return\n        /* \"contracts/RealStateContract.sol\":363:507  function getRealStateByCity (string calldata _city) public view returns(Shared.RealState[] memory) {... */\n    tag_9:\n        /* \"contracts/RealStateContract.sol\":435:460  Shared.RealState[] memory */\n      0x60\n        /* \"contracts/RealStateContract.sol\":480:492  realStateMap */\n      0x00\n        /* \"contracts/RealStateContract.sol\":493:498  _city */\n      dup4\n      dup4\n        /* \"contracts/RealStateContract.sol\":480:499  realStateMap[_city] */\n      mload(0x40)\n      tag_23\n      swap3\n      swap2\n      swap1\n      tag_24\n      jump\t// in\n    tag_23:\n      swap1\n      dup2\n      mstore\n      0x20\n      add\n      mload(0x40)\n      dup1\n      swap2\n      sub\n      swap1\n      keccak256\n        /* \"contracts/RealStateContract.sol\":473:499  return realStateMap[_city] */\n      dup1\n      sload\n      dup1\n      0x20\n      mul\n      0x20\n      add\n      mload(0x40)\n      swap1\n      dup2\n      add\n      0x40\n      mstore\n      dup1\n      swap3\n      swap2\n      swap1\n      dup2\n      dup2\n      mstore\n      0x20\n      add\n      0x00\n      swap1\n    tag_25:\n      dup3\n      dup3\n      lt\n      iszero\n      tag_26\n      jumpi\n      dup4\n      dup3\n      swap1\n      0x00\n      mstore\n      keccak256(0x00, 0x20)\n      swap1\n      0x06\n      mul\n      add\n      mload(0x40)\n      dup1\n      0xc0\n      add\n      0x40\n      mstore\n      swap1\n      dup2\n      0x00\n      dup3\n      add\n      dup1\n      sload\n      tag_28\n      swap1\n      tag_29\n      jump\t// in\n    tag_28:\n      dup1\n      0x1f\n      add\n      0x20\n      dup1\n      swap2\n      div\n      mul\n      0x20\n      add\n      mload(0x40)\n      swap1\n      dup2\n      add\n      0x40\n      mstore\n      dup1\n      swap3\n      swap2\n      swap1\n      dup2\n      dup2\n      mstore\n      0x20\n      add\n      dup3\n      dup1\n      sload\n      tag_30\n      swap1\n      tag_29\n      jump\t// in\n    tag_30:\n      dup1\n      iszero\n      tag_31\n      jumpi\n      dup1\n      0x1f\n      lt\n      tag_32\n      jumpi\n      0x0100\n      dup1\n      dup4\n      sload\n      div\n      mul\n      dup4\n      mstore\n      swap2\n      0x20\n      add\n      swap2\n      jump(tag_31)\n    tag_32:\n      dup3\n      add\n      swap2\n      swap1\n      0x00\n      mstore\n      keccak256(0x00, 0x20)\n      swap1\n    tag_33:\n      dup2\n      sload\n      dup2\n      mstore\n      swap1\n      0x01\n      add\n      swap1\n      0x20\n      add\n      dup1\n      dup4\n      gt\n      tag_33\n      jumpi\n      dup3\n      swap1\n      sub\n      0x1f\n      and\n      dup3\n      add\n      swap2\n    tag_31:\n      pop\n      pop\n      pop\n      pop\n      pop\n      dup2\n      mstore\n      0x20\n      add\n      0x01\n      dup3\n      add\n      dup1\n      sload\n      tag_34\n      swap1\n      tag_29\n      jump\t// in\n    tag_34:\n      dup1\n      0x1f\n      add\n      0x20\n      dup1\n      swap2\n      div\n      mul\n      0x20\n      add\n      mload(0x40)\n      swap1\n      dup2\n      add\n      0x40\n      mstore\n      dup1\n      swap3\n      swap2\n      swap1\n      dup2\n      dup2\n      mstore\n      0x20\n      add\n      dup3\n      dup1\n      sload\n      tag_35\n      swap1\n      tag_29\n      jump\t// in\n    tag_35:\n      dup1\n      iszero\n      tag_36\n      jumpi\n      dup1\n      0x1f\n      lt\n      tag_37\n      jumpi\n      0x0100\n      dup1\n      dup4\n      sload\n      div\n      mul\n      dup4\n      mstore\n      swap2\n      0x20\n      add\n      swap2\n      jump(tag_36)\n    tag_37:\n      dup3\n      add\n      swap2\n      swap1\n      0x00\n      mstore\n      keccak256(0x00, 0x20)\n      swap1\n    tag_38:\n      dup2\n      sload\n      dup2\n      mstore\n      swap1\n      0x01\n      add\n      swap1\n      0x20\n      add\n      dup1\n      dup4\n      gt\n      tag_38\n      jumpi\n      dup3\n      swap1\n      sub\n      0x1f\n      and\n      dup3\n      add\n      swap2\n    tag_36:\n      pop\n      pop\n      pop\n      pop\n      pop\n      dup2\n      mstore\n      0x20\n      add\n      0x02\n      dup3\n      add\n      sload\n      dup2\n      mstore\n      0x20\n      add\n      0x03\n      dup3\n      add\n      sload\n      dup2\n      mstore\n      0x20\n      add\n      0x04\n      dup3\n      add\n      sload\n      dup2\n      mstore\n      0x20\n      add\n      0x05\n      dup3\n      add\n      dup1\n      sload\n      tag_39\n      swap1\n      tag_29\n      jump\t// in\n    tag_39:\n      dup1\n      0x1f\n      add\n      0x20\n      dup1\n      swap2\n      div\n      mul\n      0x20\n      add\n      mload(0x40)\n      swap1\n      dup2\n      add\n      0x40\n      mstore\n      dup1\n      swap3\n      swap2\n      swap1\n      dup2\n      dup2\n      mstore\n      0x20\n      add\n      dup3\n      dup1\n      sload\n      tag_40\n      swap1\n      tag_29\n      jump\t// in\n    tag_40:\n      dup1\n      iszero\n      tag_41\n      jumpi\n      dup1\n      0x1f\n      lt\n      tag_42\n      jumpi\n      0x0100\n      dup1\n      dup4\n      sload\n      div\n      mul\n      dup4\n      mstore\n      swap2\n      0x20\n      add\n      swap2\n      jump(tag_41)\n    tag_42:\n      dup3\n      add\n      swap2\n      swap1\n      0x00\n      mstore\n      keccak256(0x00, 0x20)\n      swap1\n    tag_43:\n      dup2\n      sload\n      dup2\n      mstore\n      swap1\n      0x01\n      add\n      swap1\n      0x20\n      add\n      dup1\n      dup4\n      gt\n      tag_43\n      jumpi\n      dup3\n      swap1\n      sub\n      0x1f\n      and\n      dup3\n      add\n      swap2\n    tag_41:\n      pop\n      pop\n      pop\n      pop\n      pop\n      dup2\n      mstore\n      pop\n      pop\n      dup2\n      mstore\n      0x20\n      add\n      swap1\n      0x01\n      add\n      swap1\n      jump(tag_25)\n    tag_26:\n      pop\n      pop\n      pop\n      pop\n      swap1\n      pop\n        /* \"contracts/RealStateContract.sol\":363:507  function getRealStateByCity (string calldata _city) public view returns(Shared.RealState[] memory) {... */\n      swap3\n      swap2\n      pop\n      pop\n      jump\t// out\n        /* \"contracts/RealStateContract.sol\":513:643  function addRealState (Shared.RealState calldata realState) public {... */\n    tag_15:\n        /* \"contracts/RealStateContract.sol\":591:603  realStateMap */\n      0x00\n        /* \"contracts/RealStateContract.sol\":604:613  realState */\n      dup2\n        /* \"contracts/RealStateContract.sol\":604:618  realState.city */\n      dup1\n      0x00\n      add\n      swap1\n      tag_45\n      swap2\n      swap1\n      tag_46\n      jump\t// in\n    tag_45:\n        /* \"contracts/RealStateContract.sol\":591:619  realStateMap[realState.city] */\n      mload(0x40)\n      tag_47\n      swap3\n      swap2\n      swap1\n      tag_24\n      jump\t// in\n    tag_47:\n      swap1\n      dup2\n      mstore\n      0x20\n      add\n      mload(0x40)\n      dup1\n      swap2\n      sub\n      swap1\n      keccak256\n        /* \"contracts/RealStateContract.sol\":625:634  realState */\n      dup2\n        /* \"contracts/RealStateContract.sol\":591:635  realStateMap[realState.city].push(realState) */\n      swap1\n      dup1\n      0x01\n      dup2\n      sload\n      add\n      dup1\n      dup3\n      sstore\n      dup1\n      swap2\n      pop\n      pop\n      0x01\n      swap1\n      sub\n      swap1\n      0x00\n      mstore\n      keccak256(0x00, 0x20)\n      swap1\n      0x06\n      mul\n      add\n      0x00\n      swap1\n      swap2\n      swap1\n      swap2\n      swap1\n      swap2\n      pop\n      dup2\n      dup2\n      tag_49\n      swap2\n      swap1\n      tag_50\n      jump\t// in\n    tag_49:\n      pop\n      pop\n        /* \"contracts/RealStateContract.sol\":513:643  function addRealState (Shared.RealState calldata realState) public {... */\n      pop\n      jump\t// out\n        /* \"contracts/RealStateContract.sol\":298:356  mapping( string => Shared.RealState[]) public realStateMap */\n    tag_19:\n      0x00\n      dup3\n      dup1\n      mload\n      0x20\n      dup2\n      add\n      dup3\n      add\n      dup1\n      mload\n      dup5\n      dup3\n      mstore\n      0x20\n      dup4\n      add\n      0x20\n      dup6\n      add\n      keccak256\n      dup2\n      dup4\n      mstore\n      dup1\n      swap6\n      pop\n      pop\n      pop\n      pop\n      pop\n      pop\n      dup2\n      dup2\n      sload\n      dup2\n      lt\n      tag_51\n      jumpi\n      0x00\n      dup1\n      revert\n    tag_51:\n      swap1\n      0x00\n      mstore\n      keccak256(0x00, 0x20)\n      swap1\n      0x06\n      mul\n      add\n      0x00\n      swap2\n      pop\n      swap2\n      pop\n      pop\n      dup1\n      0x00\n      add\n      dup1\n      sload\n      tag_53\n      swap1\n      tag_29\n      jump\t// in\n    tag_53:\n      dup1\n      0x1f\n      add\n      0x20\n      dup1\n      swap2\n      div\n      mul\n      0x20\n      add\n      mload(0x40)\n      swap1\n      dup2\n      add\n      0x40\n      mstore\n      dup1\n      swap3\n      swap2\n      swap1\n      dup2\n      dup2\n      mstore\n      0x20\n      add\n      dup3\n      dup1\n      sload\n      tag_54\n      swap1\n      tag_29\n      jump\t// in\n    tag_54:\n      dup1\n      iszero\n      tag_55\n      jumpi\n      dup1\n      0x1f\n      lt\n      tag_56\n      jumpi\n      0x0100\n      dup1\n      dup4\n      sload\n      div\n      mul\n      dup4\n      mstore\n      swap2\n      0x20\n      add\n      swap2\n      jump(tag_55)\n    tag_56:\n      dup3\n      add\n      swap2\n      swap1\n      0x00\n      mstore\n      keccak256(0x00, 0x20)\n      swap1\n    tag_57:\n      dup2\n      sload\n      dup2\n      mstore\n      swap1\n      0x01\n      add\n      swap1\n      0x20\n      add\n      dup1\n      dup4\n      gt\n      tag_57\n      jumpi\n      dup3\n      swap1\n      sub\n      0x1f\n      and\n      dup3\n      add\n      swap2\n    tag_55:\n      pop\n      pop\n      pop\n      pop\n      pop\n      swap1\n      dup1\n      0x01\n      add\n      dup1\n      sload\n      tag_58\n      swap1\n      tag_29\n      jump\t// in\n    tag_58:\n      dup1\n      0x1f\n      add\n      0x20\n      dup1\n      swap2\n      div\n      mul\n      0x20\n      add\n      mload(0x40)\n      swap1\n      dup2\n      add\n      0x40\n      mstore\n      dup1\n      swap3\n      swap2\n      swap1\n      dup2\n      dup2\n      mstore\n      0x20\n      add\n      dup3\n      dup1\n      sload\n      tag_59\n      swap1\n      tag_29\n      jump\t// in\n    tag_59:\n      dup1\n      iszero\n      tag_60\n      jumpi\n      dup1\n      0x1f\n      lt\n      tag_61\n      jumpi\n      0x0100\n      dup1\n      dup4\n      sload\n      div\n      mul\n      dup4\n      mstore\n      swap2\n      0x20\n      add\n      swap2\n      jump(tag_60)\n    tag_61:\n      dup3\n      add\n      swap2\n      swap1\n      0x00\n      mstore\n      keccak256(0x00, 0x20)\n      swap1\n    tag_62:\n      dup2\n      sload\n      dup2\n      mstore\n      swap1\n      0x01\n      add\n      swap1\n      0x20\n      add\n      dup1\n      dup4\n      gt\n      tag_62\n      jumpi\n      dup3\n      swap1\n      sub\n      0x1f\n      and\n      dup3\n      add\n      swap2\n    tag_60:\n      pop\n      pop\n      pop\n      pop\n      pop\n      swap1\n      dup1\n      0x02\n      add\n      sload\n      swap1\n      dup1\n      0x03\n      add\n      sload\n      swap1\n      dup1\n      0x04\n      add\n      sload\n      swap1\n      dup1\n      0x05\n      add\n      dup1\n      sload\n      tag_63\n      swap1\n      tag_29\n      jump\t// in\n    tag_63:\n      dup1\n      0x1f\n      add\n      0x20\n      dup1\n      swap2\n      div\n      mul\n      0x20\n      add\n      mload(0x40)\n      swap1\n      dup2\n      add\n      0x40\n      mstore\n      dup1\n      swap3\n      swap2\n      swap1\n      dup2\n      dup2\n      mstore\n      0x20\n      add\n      dup3\n      dup1\n      sload\n      tag_64\n      swap1\n      tag_29\n      jump\t// in\n    tag_64:\n      dup1\n      iszero\n      tag_65\n      jumpi\n      dup1\n      0x1f\n      lt\n      tag_66\n      jumpi\n      0x0100\n      dup1\n      dup4\n      sload\n      div\n      mul\n      dup4\n      mstore\n      swap2\n      0x20\n      add\n      swap2\n      jump(tag_65)\n    tag_66:\n      dup3\n      add\n      swap2\n      swap1\n      0x00\n      mstore\n      keccak256(0x00, 0x20)\n      swap1\n    tag_67:\n      dup2\n      sload\n      dup2\n      mstore\n      swap1\n      0x01\n      add\n      swap1\n      0x20\n      add\n      dup1\n      dup4\n      gt\n      tag_67\n      jumpi\n      dup3\n      swap1\n      sub\n      0x1f\n      and\n      dup3\n      add\n      swap2\n    tag_65:\n      pop\n      pop\n      pop\n      pop\n      pop\n      swap1\n      pop\n      dup7\n      jump\t// out\n        /* \"#utility.yul\":7:82   */\n    tag_68:\n        /* \"#utility.yul\":40:46   */\n      0x00\n        /* \"#utility.yul\":73:75   */\n      0x40\n        /* \"#utility.yul\":67:76   */\n      mload\n        /* \"#utility.yul\":57:76   */\n      swap1\n      pop\n        /* \"#utility.yul\":7:82   */\n      swap1\n      jump\t// out\n        /* \"#utility.yul\":88:205   */\n    tag_69:\n        /* \"#utility.yul\":197:198   */\n      0x00\n        /* \"#utility.yul\":194:195   */\n      dup1\n        /* \"#utility.yul\":187:199   */\n      revert\n        /* \"#utility.yul\":211:328   */\n    tag_70:\n        /* \"#utility.yul\":320:321   */\n      0x00\n        /* \"#utility.yul\":317:318   */\n      dup1\n        /* \"#utility.yul\":310:322   */\n      revert\n        /* \"#utility.yul\":334:451   */\n    tag_71:\n        /* \"#utility.yul\":443:444   */\n      0x00\n        /* \"#utility.yul\":440:441   */\n      dup1\n        /* \"#utility.yul\":433:445   */\n      revert\n        /* \"#utility.yul\":457:574   */\n    tag_72:\n        /* \"#utility.yul\":566:567   */\n      0x00\n        /* \"#utility.yul\":563:564   */\n      dup1\n        /* \"#utility.yul\":556:568   */\n      revert\n        /* \"#utility.yul\":580:697   */\n    tag_73:\n        /* \"#utility.yul\":689:690   */\n      0x00\n        /* \"#utility.yul\":686:687   */\n      dup1\n        /* \"#utility.yul\":679:691   */\n      revert\n        /* \"#utility.yul\":717:1270   */\n    tag_74:\n        /* \"#utility.yul\":775:783   */\n      0x00\n        /* \"#utility.yul\":785:791   */\n      dup1\n        /* \"#utility.yul\":835:838   */\n      dup4\n        /* \"#utility.yul\":828:832   */\n      0x1f\n        /* \"#utility.yul\":820:826   */\n      dup5\n        /* \"#utility.yul\":816:833   */\n      add\n        /* \"#utility.yul\":812:839   */\n      slt\n        /* \"#utility.yul\":802:924   */\n      tag_142\n      jumpi\n        /* \"#utility.yul\":843:922   */\n      tag_143\n      tag_71\n      jump\t// in\n    tag_143:\n        /* \"#utility.yul\":802:924   */\n    tag_142:\n        /* \"#utility.yul\":956:962   */\n      dup3\n        /* \"#utility.yul\":943:963   */\n      calldataload\n        /* \"#utility.yul\":933:963   */\n      swap1\n      pop\n        /* \"#utility.yul\":986:1004   */\n      0xffffffffffffffff\n        /* \"#utility.yul\":978:984   */\n      dup2\n        /* \"#utility.yul\":975:1005   */\n      gt\n        /* \"#utility.yul\":972:1089   */\n      iszero\n      tag_144\n      jumpi\n        /* \"#utility.yul\":1008:1087   */\n      tag_145\n      tag_72\n      jump\t// in\n    tag_145:\n        /* \"#utility.yul\":972:1089   */\n    tag_144:\n        /* \"#utility.yul\":1122:1126   */\n      0x20\n        /* \"#utility.yul\":1114:1120   */\n      dup4\n        /* \"#utility.yul\":1110:1127   */\n      add\n        /* \"#utility.yul\":1098:1127   */\n      swap2\n      pop\n        /* \"#utility.yul\":1176:1179   */\n      dup4\n        /* \"#utility.yul\":1168:1172   */\n      0x01\n        /* \"#utility.yul\":1160:1166   */\n      dup3\n        /* \"#utility.yul\":1156:1173   */\n      mul\n        /* \"#utility.yul\":1146:1154   */\n      dup4\n        /* \"#utility.yul\":1142:1174   */\n      add\n        /* \"#utility.yul\":1139:1180   */\n      gt\n        /* \"#utility.yul\":1136:1264   */\n      iszero\n      tag_146\n      jumpi\n        /* \"#utility.yul\":1183:1262   */\n      tag_147\n      tag_73\n      jump\t// in\n    tag_147:\n        /* \"#utility.yul\":1136:1264   */\n    tag_146:\n        /* \"#utility.yul\":717:1270   */\n      swap3\n      pop\n      swap3\n      swap1\n      pop\n      jump\t// out\n        /* \"#utility.yul\":1276:1805   */\n    tag_8:\n        /* \"#utility.yul\":1347:1353   */\n      0x00\n        /* \"#utility.yul\":1355:1361   */\n      dup1\n        /* \"#utility.yul\":1404:1406   */\n      0x20\n        /* \"#utility.yul\":1392:1401   */\n      dup4\n        /* \"#utility.yul\":1383:1390   */\n      dup6\n        /* \"#utility.yul\":1379:1402   */\n      sub\n        /* \"#utility.yul\":1375:1407   */\n      slt\n        /* \"#utility.yul\":1372:1491   */\n      iszero\n      tag_149\n      jumpi\n        /* \"#utility.yul\":1410:1489   */\n      tag_150\n      tag_69\n      jump\t// in\n    tag_150:\n        /* \"#utility.yul\":1372:1491   */\n    tag_149:\n        /* \"#utility.yul\":1558:1559   */\n      0x00\n        /* \"#utility.yul\":1547:1556   */\n      dup4\n        /* \"#utility.yul\":1543:1560   */\n      add\n        /* \"#utility.yul\":1530:1561   */\n      calldataload\n        /* \"#utility.yul\":1588:1606   */\n      0xffffffffffffffff\n        /* \"#utility.yul\":1580:1586   */\n      dup2\n        /* \"#utility.yul\":1577:1607   */\n      gt\n        /* \"#utility.yul\":1574:1691   */\n      iszero\n      tag_151\n      jumpi\n        /* \"#utility.yul\":1610:1689   */\n      tag_152\n      tag_70\n      jump\t// in\n    tag_152:\n        /* \"#utility.yul\":1574:1691   */\n    tag_151:\n        /* \"#utility.yul\":1723:1788   */\n      tag_153\n        /* \"#utility.yul\":1780:1787   */\n      dup6\n        /* \"#utility.yul\":1771:1777   */\n      dup3\n        /* \"#utility.yul\":1760:1769   */\n      dup7\n        /* \"#utility.yul\":1756:1778   */\n      add\n        /* \"#utility.yul\":1723:1788   */\n      tag_74\n      jump\t// in\n    tag_153:\n        /* \"#utility.yul\":1705:1788   */\n      swap3\n      pop\n      swap3\n      pop\n        /* \"#utility.yul\":1501:1798   */\n      pop\n        /* \"#utility.yul\":1276:1805   */\n      swap3\n      pop\n      swap3\n      swap1\n      pop\n      jump\t// out\n        /* \"#utility.yul\":1811:1950   */\n    tag_75:\n        /* \"#utility.yul\":1903:1909   */\n      0x00\n        /* \"#utility.yul\":1937:1942   */\n      dup2\n        /* \"#utility.yul\":1931:1943   */\n      mload\n        /* \"#utility.yul\":1921:1943   */\n      swap1\n      pop\n        /* \"#utility.yul\":1811:1950   */\n      swap2\n      swap1\n      pop\n      jump\t// out\n        /* \"#utility.yul\":1956:2165   */\n    tag_76:\n        /* \"#utility.yul\":2080:2091   */\n      0x00\n        /* \"#utility.yul\":2114:2120   */\n      dup3\n        /* \"#utility.yul\":2109:2112   */\n      dup3\n        /* \"#utility.yul\":2102:2121   */\n      mstore\n        /* \"#utility.yul\":2154:2158   */\n      0x20\n        /* \"#utility.yul\":2149:2152   */\n      dup3\n        /* \"#utility.yul\":2145:2159   */\n      add\n        /* \"#utility.yul\":2130:2159   */\n      swap1\n      pop\n        /* \"#utility.yul\":1956:2165   */\n      swap3\n      swap2\n      pop\n      pop\n      jump\t// out\n        /* \"#utility.yul\":2171:2328   */\n    tag_77:\n        /* \"#utility.yul\":2263:2267   */\n      0x00\n        /* \"#utility.yul\":2286:2289   */\n      dup2\n        /* \"#utility.yul\":2278:2289   */\n      swap1\n      pop\n        /* \"#utility.yul\":2316:2320   */\n      0x20\n        /* \"#utility.yul\":2311:2314   */\n      dup3\n        /* \"#utility.yul\":2307:2321   */\n      add\n        /* \"#utility.yul\":2299:2321   */\n      swap1\n      pop\n        /* \"#utility.yul\":2171:2328   */\n      swap2\n      swap1\n      pop\n      jump\t// out\n        /* \"#utility.yul\":2334:2433   */\n    tag_78:\n        /* \"#utility.yul\":2386:2392   */\n      0x00\n        /* \"#utility.yul\":2420:2425   */\n      dup2\n        /* \"#utility.yul\":2414:2426   */\n      mload\n        /* \"#utility.yul\":2404:2426   */\n      swap1\n      pop\n        /* \"#utility.yul\":2334:2433   */\n      swap2\n      swap1\n      pop\n      jump\t// out\n        /* \"#utility.yul\":2439:2598   */\n    tag_79:\n        /* \"#utility.yul\":2513:2524   */\n      0x00\n        /* \"#utility.yul\":2547:2553   */\n      dup3\n        /* \"#utility.yul\":2542:2545   */\n      dup3\n        /* \"#utility.yul\":2535:2554   */\n      mstore\n        /* \"#utility.yul\":2587:2591   */\n      0x20\n        /* \"#utility.yul\":2582:2585   */\n      dup3\n        /* \"#utility.yul\":2578:2592   */\n      add\n        /* \"#utility.yul\":2563:2592   */\n      swap1\n      pop\n        /* \"#utility.yul\":2439:2598   */\n      swap3\n      swap2\n      pop\n      pop\n      jump\t// out\n        /* \"#utility.yul\":2604:2743   */\n    tag_80:\n        /* \"#utility.yul\":2693:2699   */\n      dup3\n        /* \"#utility.yul\":2688:2691   */\n      dup2\n        /* \"#utility.yul\":2683:2686   */\n      dup4\n        /* \"#utility.yul\":2677:2700   */\n      mcopy\n        /* \"#utility.yul\":2734:2735   */\n      0x00\n        /* \"#utility.yul\":2725:2731   */\n      dup4\n        /* \"#utility.yul\":2720:2723   */\n      dup4\n        /* \"#utility.yul\":2716:2732   */\n      add\n        /* \"#utility.yul\":2709:2736   */\n      mstore\n        /* \"#utility.yul\":2604:2743   */\n      pop\n      pop\n      pop\n      jump\t// out\n        /* \"#utility.yul\":2749:2851   */\n    tag_81:\n        /* \"#utility.yul\":2790:2796   */\n      0x00\n        /* \"#utility.yul\":2841:2843   */\n      0x1f\n        /* \"#utility.yul\":2837:2844   */\n      not\n        /* \"#utility.yul\":2832:2834   */\n      0x1f\n        /* \"#utility.yul\":2825:2830   */\n      dup4\n        /* \"#utility.yul\":2821:2835   */\n      add\n        /* \"#utility.yul\":2817:2845   */\n      and\n        /* \"#utility.yul\":2807:2845   */\n      swap1\n      pop\n        /* \"#utility.yul\":2749:2851   */\n      swap2\n      swap1\n      pop\n      jump\t// out\n        /* \"#utility.yul\":2857:3214   */\n    tag_82:\n        /* \"#utility.yul\":2935:2938   */\n      0x00\n        /* \"#utility.yul\":2963:3002   */\n      tag_162\n        /* \"#utility.yul\":2996:3001   */\n      dup3\n        /* \"#utility.yul\":2963:3002   */\n      tag_78\n      jump\t// in\n    tag_162:\n        /* \"#utility.yul\":3018:3079   */\n      tag_163\n        /* \"#utility.yul\":3072:3078   */\n      dup2\n        /* \"#utility.yul\":3067:3070   */\n      dup6\n        /* \"#utility.yul\":3018:3079   */\n      tag_79\n      jump\t// in\n    tag_163:\n        /* \"#utility.yul\":3011:3079   */\n      swap4\n      pop\n        /* \"#utility.yul\":3088:3153   */\n      tag_164\n        /* \"#utility.yul\":3146:3152   */\n      dup2\n        /* \"#utility.yul\":3141:3144   */\n      dup6\n        /* \"#utility.yul\":3134:3138   */\n      0x20\n        /* \"#utility.yul\":3127:3132   */\n      dup7\n        /* \"#utility.yul\":3123:3139   */\n      add\n        /* \"#utility.yul\":3088:3153   */\n      tag_80\n      jump\t// in\n    tag_164:\n        /* \"#utility.yul\":3178:3207   */\n      tag_165\n        /* \"#utility.yul\":3200:3206   */\n      dup2\n        /* \"#utility.yul\":3178:3207   */\n      tag_81\n      jump\t// in\n    tag_165:\n        /* \"#utility.yul\":3173:3176   */\n      dup5\n        /* \"#utility.yul\":3169:3208   */\n      add\n        /* \"#utility.yul\":3162:3208   */\n      swap2\n      pop\n        /* \"#utility.yul\":2939:3214   */\n      pop\n        /* \"#utility.yul\":2857:3214   */\n      swap3\n      swap2\n      pop\n      pop\n      jump\t// out\n        /* \"#utility.yul\":3220:3297   */\n    tag_83:\n        /* \"#utility.yul\":3257:3264   */\n      0x00\n        /* \"#utility.yul\":3286:3291   */\n      dup2\n        /* \"#utility.yul\":3275:3291   */\n      swap1\n      pop\n        /* \"#utility.yul\":3220:3297   */\n      swap2\n      swap1\n      pop\n      jump\t// out\n        /* \"#utility.yul\":3303:3411   */\n    tag_84:\n        /* \"#utility.yul\":3380:3404   */\n      tag_168\n        /* \"#utility.yul\":3398:3403   */\n      dup2\n        /* \"#utility.yul\":3380:3404   */\n      tag_83\n      jump\t// in\n    tag_168:\n        /* \"#utility.yul\":3375:3378   */\n      dup3\n        /* \"#utility.yul\":3368:3405   */\n      mstore\n        /* \"#utility.yul\":3303:3411   */\n      pop\n      pop\n      jump\t// out\n        /* \"#utility.yul\":3475:4924   */\n    tag_85:\n        /* \"#utility.yul\":3584:3587   */\n      0x00\n        /* \"#utility.yul\":3620:3624   */\n      0xc0\n        /* \"#utility.yul\":3615:3618   */\n      dup4\n        /* \"#utility.yul\":3611:3625   */\n      add\n        /* \"#utility.yul\":3707:3711   */\n      0x00\n        /* \"#utility.yul\":3700:3705   */\n      dup4\n        /* \"#utility.yul\":3696:3712   */\n      add\n        /* \"#utility.yul\":3690:3713   */\n      mload\n        /* \"#utility.yul\":3760:3763   */\n      dup5\n        /* \"#utility.yul\":3754:3758   */\n      dup3\n        /* \"#utility.yul\":3750:3764   */\n      sub\n        /* \"#utility.yul\":3743:3747   */\n      0x00\n        /* \"#utility.yul\":3738:3741   */\n      dup7\n        /* \"#utility.yul\":3734:3748   */\n      add\n        /* \"#utility.yul\":3727:3765   */\n      mstore\n        /* \"#utility.yul\":3786:3859   */\n      tag_170\n        /* \"#utility.yul\":3854:3858   */\n      dup3\n        /* \"#utility.yul\":3840:3852   */\n      dup3\n        /* \"#utility.yul\":3786:3859   */\n      tag_82\n      jump\t// in\n    tag_170:\n        /* \"#utility.yul\":3778:3859   */\n      swap2\n      pop\n        /* \"#utility.yul\":3635:3870   */\n      pop\n        /* \"#utility.yul\":3954:3958   */\n      0x20\n        /* \"#utility.yul\":3947:3952   */\n      dup4\n        /* \"#utility.yul\":3943:3959   */\n      add\n        /* \"#utility.yul\":3937:3960   */\n      mload\n        /* \"#utility.yul\":4007:4010   */\n      dup5\n        /* \"#utility.yul\":4001:4005   */\n      dup3\n        /* \"#utility.yul\":3997:4011   */\n      sub\n        /* \"#utility.yul\":3990:3994   */\n      0x20\n        /* \"#utility.yul\":3985:3988   */\n      dup7\n        /* \"#utility.yul\":3981:3995   */\n      add\n        /* \"#utility.yul\":3974:4012   */\n      mstore\n        /* \"#utility.yul\":4033:4106   */\n      tag_171\n        /* \"#utility.yul\":4101:4105   */\n      dup3\n        /* \"#utility.yul\":4087:4099   */\n      dup3\n        /* \"#utility.yul\":4033:4106   */\n      tag_82\n      jump\t// in\n    tag_171:\n        /* \"#utility.yul\":4025:4106   */\n      swap2\n      pop\n        /* \"#utility.yul\":3880:4117   */\n      pop\n        /* \"#utility.yul\":4201:4205   */\n      0x40\n        /* \"#utility.yul\":4194:4199   */\n      dup4\n        /* \"#utility.yul\":4190:4206   */\n      add\n        /* \"#utility.yul\":4184:4207   */\n      mload\n        /* \"#utility.yul\":4220:4283   */\n      tag_172\n        /* \"#utility.yul\":4277:4281   */\n      0x40\n        /* \"#utility.yul\":4272:4275   */\n      dup7\n        /* \"#utility.yul\":4268:4282   */\n      add\n        /* \"#utility.yul\":4254:4266   */\n      dup3\n        /* \"#utility.yul\":4220:4283   */\n      tag_84\n      jump\t// in\n    tag_172:\n        /* \"#utility.yul\":4127:4293   */\n      pop\n        /* \"#utility.yul\":4377:4381   */\n      0x60\n        /* \"#utility.yul\":4370:4375   */\n      dup4\n        /* \"#utility.yul\":4366:4382   */\n      add\n        /* \"#utility.yul\":4360:4383   */\n      mload\n        /* \"#utility.yul\":4396:4459   */\n      tag_173\n        /* \"#utility.yul\":4453:4457   */\n      0x60\n        /* \"#utility.yul\":4448:4451   */\n      dup7\n        /* \"#utility.yul\":4444:4458   */\n      add\n        /* \"#utility.yul\":4430:4442   */\n      dup3\n        /* \"#utility.yul\":4396:4459   */\n      tag_84\n      jump\t// in\n    tag_173:\n        /* \"#utility.yul\":4303:4469   */\n      pop\n        /* \"#utility.yul\":4559:4563   */\n      0x80\n        /* \"#utility.yul\":4552:4557   */\n      dup4\n        /* \"#utility.yul\":4548:4564   */\n      add\n        /* \"#utility.yul\":4542:4565   */\n      mload\n        /* \"#utility.yul\":4578:4641   */\n      tag_174\n        /* \"#utility.yul\":4635:4639   */\n      0x80\n        /* \"#utility.yul\":4630:4633   */\n      dup7\n        /* \"#utility.yul\":4626:4640   */\n      add\n        /* \"#utility.yul\":4612:4624   */\n      dup3\n        /* \"#utility.yul\":4578:4641   */\n      tag_84\n      jump\t// in\n    tag_174:\n        /* \"#utility.yul\":4479:4651   */\n      pop\n        /* \"#utility.yul\":4734:4738   */\n      0xa0\n        /* \"#utility.yul\":4727:4732   */\n      dup4\n        /* \"#utility.yul\":4723:4739   */\n      add\n        /* \"#utility.yul\":4717:4740   */\n      mload\n        /* \"#utility.yul\":4787:4790   */\n      dup5\n        /* \"#utility.yul\":4781:4785   */\n      dup3\n        /* \"#utility.yul\":4777:4791   */\n      sub\n        /* \"#utility.yul\":4770:4774   */\n      0xa0\n        /* \"#utility.yul\":4765:4768   */\n      dup7\n        /* \"#utility.yul\":4761:4775   */\n      add\n        /* \"#utility.yul\":4754:4792   */\n      mstore\n        /* \"#utility.yul\":4813:4886   */\n      tag_175\n        /* \"#utility.yul\":4881:4885   */\n      dup3\n        /* \"#utility.yul\":4867:4879   */\n      dup3\n        /* \"#utility.yul\":4813:4886   */\n      tag_82\n      jump\t// in\n    tag_175:\n        /* \"#utility.yul\":4805:4886   */\n      swap2\n      pop\n        /* \"#utility.yul\":4661:4897   */\n      pop\n        /* \"#utility.yul\":4914:4918   */\n      dup1\n        /* \"#utility.yul\":4907:4918   */\n      swap2\n      pop\n        /* \"#utility.yul\":3589:4924   */\n      pop\n        /* \"#utility.yul\":3475:4924   */\n      swap3\n      swap2\n      pop\n      pop\n      jump\t// out\n        /* \"#utility.yul\":4930:5186   */\n    tag_86:\n        /* \"#utility.yul\":5049:5059   */\n      0x00\n        /* \"#utility.yul\":5084:5180   */\n      tag_177\n        /* \"#utility.yul\":5176:5179   */\n      dup4\n        /* \"#utility.yul\":5168:5174   */\n      dup4\n        /* \"#utility.yul\":5084:5180   */\n      tag_85\n      jump\t// in\n    tag_177:\n        /* \"#utility.yul\":5070:5180   */\n      swap1\n      pop\n        /* \"#utility.yul\":4930:5186   */\n      swap3\n      swap2\n      pop\n      pop\n      jump\t// out\n        /* \"#utility.yul\":5192:5330   */\n    tag_87:\n        /* \"#utility.yul\":5287:5291   */\n      0x00\n        /* \"#utility.yul\":5319:5323   */\n      0x20\n        /* \"#utility.yul\":5314:5317   */\n      dup3\n        /* \"#utility.yul\":5310:5324   */\n      add\n        /* \"#utility.yul\":5302:5324   */\n      swap1\n      pop\n        /* \"#utility.yul\":5192:5330   */\n      swap2\n      swap1\n      pop\n      jump\t// out\n        /* \"#utility.yul\":5398:6509   */\n    tag_88:\n        /* \"#utility.yul\":5567:5570   */\n      0x00\n        /* \"#utility.yul\":5596:5675   */\n      tag_180\n        /* \"#utility.yul\":5669:5674   */\n      dup3\n        /* \"#utility.yul\":5596:5675   */\n      tag_75\n      jump\t// in\n    tag_180:\n        /* \"#utility.yul\":5691:5802   */\n      tag_181\n        /* \"#utility.yul\":5795:5801   */\n      dup2\n        /* \"#utility.yul\":5790:5793   */\n      dup6\n        /* \"#utility.yul\":5691:5802   */\n      tag_76\n      jump\t// in\n    tag_181:\n        /* \"#utility.yul\":5684:5802   */\n      swap4\n      pop\n        /* \"#utility.yul\":5828:5831   */\n      dup4\n        /* \"#utility.yul\":5873:5877   */\n      0x20\n        /* \"#utility.yul\":5865:5871   */\n      dup3\n        /* \"#utility.yul\":5861:5878   */\n      mul\n        /* \"#utility.yul\":5856:5859   */\n      dup6\n        /* \"#utility.yul\":5852:5879   */\n      add\n        /* \"#utility.yul\":5903:5984   */\n      tag_182\n        /* \"#utility.yul\":5978:5983   */\n      dup6\n        /* \"#utility.yul\":5903:5984   */\n      tag_77\n      jump\t// in\n    tag_182:\n        /* \"#utility.yul\":6007:6014   */\n      dup1\n        /* \"#utility.yul\":6038:6039   */\n      0x00\n        /* \"#utility.yul\":6023:6464   */\n    tag_183:\n        /* \"#utility.yul\":6048:6054   */\n      dup6\n        /* \"#utility.yul\":6045:6046   */\n      dup2\n        /* \"#utility.yul\":6042:6055   */\n      lt\n        /* \"#utility.yul\":6023:6464   */\n      iszero\n      tag_185\n      jumpi\n        /* \"#utility.yul\":6119:6128   */\n      dup5\n        /* \"#utility.yul\":6113:6117   */\n      dup5\n        /* \"#utility.yul\":6109:6129   */\n      sub\n        /* \"#utility.yul\":6104:6107   */\n      dup10\n        /* \"#utility.yul\":6097:6130   */\n      mstore\n        /* \"#utility.yul\":6170:6176   */\n      dup2\n        /* \"#utility.yul\":6164:6177   */\n      mload\n        /* \"#utility.yul\":6198:6312   */\n      tag_186\n        /* \"#utility.yul\":6307:6311   */\n      dup6\n        /* \"#utility.yul\":6292:6305   */\n      dup3\n        /* \"#utility.yul\":6198:6312   */\n      tag_86\n      jump\t// in\n    tag_186:\n        /* \"#utility.yul\":6190:6312   */\n      swap5\n      pop\n        /* \"#utility.yul\":6335:6420   */\n      tag_187\n        /* \"#utility.yul\":6413:6419   */\n      dup4\n        /* \"#utility.yul\":6335:6420   */\n      tag_87\n      jump\t// in\n    tag_187:\n        /* \"#utility.yul\":6325:6420   */\n      swap3\n      pop\n        /* \"#utility.yul\":6449:6453   */\n      0x20\n        /* \"#utility.yul\":6444:6447   */\n      dup11\n        /* \"#utility.yul\":6440:6454   */\n      add\n        /* \"#utility.yul\":6433:6454   */\n      swap10\n      pop\n        /* \"#utility.yul\":6083:6464   */\n      pop\n        /* \"#utility.yul\":6070:6071   */\n      0x01\n        /* \"#utility.yul\":6067:6068   */\n      dup2\n        /* \"#utility.yul\":6063:6072   */\n      add\n        /* \"#utility.yul\":6058:6072   */\n      swap1\n      pop\n        /* \"#utility.yul\":6023:6464   */\n      jump(tag_183)\n    tag_185:\n        /* \"#utility.yul\":6027:6041   */\n      pop\n        /* \"#utility.yul\":6480:6484   */\n      dup3\n        /* \"#utility.yul\":6473:6484   */\n      swap8\n      pop\n        /* \"#utility.yul\":6500:6503   */\n      dup8\n        /* \"#utility.yul\":6493:6503   */\n      swap6\n      pop\n        /* \"#utility.yul\":5572:6509   */\n      pop\n      pop\n      pop\n      pop\n      pop\n        /* \"#utility.yul\":5398:6509   */\n      swap3\n      swap2\n      pop\n      pop\n      jump\t// out\n        /* \"#utility.yul\":6515:6988   */\n    tag_11:\n        /* \"#utility.yul\":6708:6712   */\n      0x00\n        /* \"#utility.yul\":6746:6748   */\n      0x20\n        /* \"#utility.yul\":6735:6744   */\n      dup3\n        /* \"#utility.yul\":6731:6749   */\n      add\n        /* \"#utility.yul\":6723:6749   */\n      swap1\n      pop\n        /* \"#utility.yul\":6795:6804   */\n      dup2\n        /* \"#utility.yul\":6789:6793   */\n      dup2\n        /* \"#utility.yul\":6785:6805   */\n      sub\n        /* \"#utility.yul\":6781:6782   */\n      0x00\n        /* \"#utility.yul\":6770:6779   */\n      dup4\n        /* \"#utility.yul\":6766:6783   */\n      add\n        /* \"#utility.yul\":6759:6806   */\n      mstore\n        /* \"#utility.yul\":6823:6981   */\n      tag_189\n        /* \"#utility.yul\":6976:6980   */\n      dup2\n        /* \"#utility.yul\":6967:6973   */\n      dup5\n        /* \"#utility.yul\":6823:6981   */\n      tag_88\n      jump\t// in\n    tag_189:\n        /* \"#utility.yul\":6815:6981   */\n      swap1\n      pop\n        /* \"#utility.yul\":6515:6988   */\n      swap3\n      swap2\n      pop\n      pop\n      jump\t// out\n        /* \"#utility.yul\":6994:7111   */\n    tag_89:\n        /* \"#utility.yul\":7103:7104   */\n      0x00\n        /* \"#utility.yul\":7100:7101   */\n      dup1\n        /* \"#utility.yul\":7093:7105   */\n      revert\n        /* \"#utility.yul\":7148:7380   */\n    tag_90:\n        /* \"#utility.yul\":7221:7226   */\n      0x00\n        /* \"#utility.yul\":7262:7265   */\n      0xc0\n        /* \"#utility.yul\":7253:7259   */\n      dup3\n        /* \"#utility.yul\":7248:7251   */\n      dup5\n        /* \"#utility.yul\":7244:7260   */\n      sub\n        /* \"#utility.yul\":7240:7266   */\n      slt\n        /* \"#utility.yul\":7237:7350   */\n      iszero\n      tag_192\n      jumpi\n        /* \"#utility.yul\":7269:7348   */\n      tag_193\n      tag_89\n      jump\t// in\n    tag_193:\n        /* \"#utility.yul\":7237:7350   */\n    tag_192:\n        /* \"#utility.yul\":7368:7374   */\n      dup2\n        /* \"#utility.yul\":7359:7374   */\n      swap1\n      pop\n        /* \"#utility.yul\":7148:7380   */\n      swap3\n      swap2\n      pop\n      pop\n      jump\t// out\n        /* \"#utility.yul\":7386:7929   */\n    tag_14:\n        /* \"#utility.yul\":7472:7478   */\n      0x00\n        /* \"#utility.yul\":7521:7523   */\n      0x20\n        /* \"#utility.yul\":7509:7518   */\n      dup3\n        /* \"#utility.yul\":7500:7507   */\n      dup5\n        /* \"#utility.yul\":7496:7519   */\n      sub\n        /* \"#utility.yul\":7492:7524   */\n      slt\n        /* \"#utility.yul\":7489:7608   */\n      iszero\n      tag_195\n      jumpi\n        /* \"#utility.yul\":7527:7606   */\n      tag_196\n      tag_69\n      jump\t// in\n    tag_196:\n        /* \"#utility.yul\":7489:7608   */\n    tag_195:\n        /* \"#utility.yul\":7675:7676   */\n      0x00\n        /* \"#utility.yul\":7664:7673   */\n      dup3\n        /* \"#utility.yul\":7660:7677   */\n      add\n        /* \"#utility.yul\":7647:7678   */\n      calldataload\n        /* \"#utility.yul\":7705:7723   */\n      0xffffffffffffffff\n        /* \"#utility.yul\":7697:7703   */\n      dup2\n        /* \"#utility.yul\":7694:7724   */\n      gt\n        /* \"#utility.yul\":7691:7808   */\n      iszero\n      tag_197\n      jumpi\n        /* \"#utility.yul\":7727:7806   */\n      tag_198\n      tag_70\n      jump\t// in\n    tag_198:\n        /* \"#utility.yul\":7691:7808   */\n    tag_197:\n        /* \"#utility.yul\":7832:7912   */\n      tag_199\n        /* \"#utility.yul\":7904:7911   */\n      dup5\n        /* \"#utility.yul\":7895:7901   */\n      dup3\n        /* \"#utility.yul\":7884:7893   */\n      dup6\n        /* \"#utility.yul\":7880:7902   */\n      add\n        /* \"#utility.yul\":7832:7912   */\n      tag_90\n      jump\t// in\n    tag_199:\n        /* \"#utility.yul\":7822:7912   */\n      swap2\n      pop\n        /* \"#utility.yul\":7618:7922   */\n      pop\n        /* \"#utility.yul\":7386:7929   */\n      swap3\n      swap2\n      pop\n      pop\n      jump\t// out\n        /* \"#utility.yul\":7935:8052   */\n    tag_91:\n        /* \"#utility.yul\":8044:8045   */\n      0x00\n        /* \"#utility.yul\":8041:8042   */\n      dup1\n        /* \"#utility.yul\":8034:8046   */\n      revert\n        /* \"#utility.yul\":8058:8238   */\n    tag_92:\n        /* \"#utility.yul\":8106:8183   */\n      0x4e487b7100000000000000000000000000000000000000000000000000000000\n        /* \"#utility.yul\":8103:8104   */\n      0x00\n        /* \"#utility.yul\":8096:8184   */\n      mstore\n        /* \"#utility.yul\":8203:8207   */\n      0x41\n        /* \"#utility.yul\":8200:8201   */\n      0x04\n        /* \"#utility.yul\":8193:8208   */\n      mstore\n        /* \"#utility.yul\":8227:8231   */\n      0x24\n        /* \"#utility.yul\":8224:8225   */\n      0x00\n        /* \"#utility.yul\":8217:8232   */\n      revert\n        /* \"#utility.yul\":8244:8525   */\n    tag_93:\n        /* \"#utility.yul\":8327:8354   */\n      tag_203\n        /* \"#utility.yul\":8349:8353   */\n      dup3\n        /* \"#utility.yul\":8327:8354   */\n      tag_81\n      jump\t// in\n    tag_203:\n        /* \"#utility.yul\":8319:8325   */\n      dup2\n        /* \"#utility.yul\":8315:8355   */\n      add\n        /* \"#utility.yul\":8457:8463   */\n      dup2\n        /* \"#utility.yul\":8445:8455   */\n      dup2\n        /* \"#utility.yul\":8442:8464   */\n      lt\n        /* \"#utility.yul\":8421:8439   */\n      0xffffffffffffffff\n        /* \"#utility.yul\":8409:8419   */\n      dup3\n        /* \"#utility.yul\":8406:8440   */\n      gt\n        /* \"#utility.yul\":8403:8465   */\n      or\n        /* \"#utility.yul\":8400:8488   */\n      iszero\n      tag_204\n      jumpi\n        /* \"#utility.yul\":8468:8486   */\n      tag_205\n      tag_92\n      jump\t// in\n    tag_205:\n        /* \"#utility.yul\":8400:8488   */\n    tag_204:\n        /* \"#utility.yul\":8508:8518   */\n      dup1\n        /* \"#utility.yul\":8504:8506   */\n      0x40\n        /* \"#utility.yul\":8497:8519   */\n      mstore\n        /* \"#utility.yul\":8287:8525   */\n      pop\n        /* \"#utility.yul\":8244:8525   */\n      pop\n      pop\n      jump\t// out\n        /* \"#utility.yul\":8531:8660   */\n    tag_94:\n        /* \"#utility.yul\":8565:8571   */\n      0x00\n        /* \"#utility.yul\":8592:8612   */\n      tag_207\n      tag_68\n      jump\t// in\n    tag_207:\n        /* \"#utility.yul\":8582:8612   */\n      swap1\n      pop\n        /* \"#utility.yul\":8621:8654   */\n      tag_208\n        /* \"#utility.yul\":8649:8653   */\n      dup3\n        /* \"#utility.yul\":8641:8647   */\n      dup3\n        /* \"#utility.yul\":8621:8654   */\n      tag_93\n      jump\t// in\n    tag_208:\n        /* \"#utility.yul\":8531:8660   */\n      swap2\n      swap1\n      pop\n      jump\t// out\n        /* \"#utility.yul\":8666:8974   */\n    tag_95:\n        /* \"#utility.yul\":8728:8732   */\n      0x00\n        /* \"#utility.yul\":8818:8836   */\n      0xffffffffffffffff\n        /* \"#utility.yul\":8810:8816   */\n      dup3\n        /* \"#utility.yul\":8807:8837   */\n      gt\n        /* \"#utility.yul\":8804:8860   */\n      iszero\n      tag_210\n      jumpi\n        /* \"#utility.yul\":8840:8858   */\n      tag_211\n      tag_92\n      jump\t// in\n    tag_211:\n        /* \"#utility.yul\":8804:8860   */\n    tag_210:\n        /* \"#utility.yul\":8878:8907   */\n      tag_212\n        /* \"#utility.yul\":8900:8906   */\n      dup3\n        /* \"#utility.yul\":8878:8907   */\n      tag_81\n      jump\t// in\n    tag_212:\n        /* \"#utility.yul\":8870:8907   */\n      swap1\n      pop\n        /* \"#utility.yul\":8962:8966   */\n      0x20\n        /* \"#utility.yul\":8956:8960   */\n      dup2\n        /* \"#utility.yul\":8952:8967   */\n      add\n        /* \"#utility.yul\":8944:8967   */\n      swap1\n      pop\n        /* \"#utility.yul\":8666:8974   */\n      swap2\n      swap1\n      pop\n      jump\t// out\n        /* \"#utility.yul\":8980:9128   */\n    tag_96:\n        /* \"#utility.yul\":9078:9084   */\n      dup3\n        /* \"#utility.yul\":9073:9076   */\n      dup2\n        /* \"#utility.yul\":9068:9071   */\n      dup4\n        /* \"#utility.yul\":9055:9085   */\n      calldatacopy\n        /* \"#utility.yul\":9119:9120   */\n      0x00\n        /* \"#utility.yul\":9110:9116   */\n      dup4\n        /* \"#utility.yul\":9105:9108   */\n      dup4\n        /* \"#utility.yul\":9101:9117   */\n      add\n        /* \"#utility.yul\":9094:9121   */\n      mstore\n        /* \"#utility.yul\":8980:9128   */\n      pop\n      pop\n      pop\n      jump\t// out\n        /* \"#utility.yul\":9134:9559   */\n    tag_97:\n        /* \"#utility.yul\":9212:9217   */\n      0x00\n        /* \"#utility.yul\":9237:9303   */\n      tag_215\n        /* \"#utility.yul\":9253:9302   */\n      tag_216\n        /* \"#utility.yul\":9295:9301   */\n      dup5\n        /* \"#utility.yul\":9253:9302   */\n      tag_95\n      jump\t// in\n    tag_216:\n        /* \"#utility.yul\":9237:9303   */\n      tag_94\n      jump\t// in\n    tag_215:\n        /* \"#utility.yul\":9228:9303   */\n      swap1\n      pop\n        /* \"#utility.yul\":9326:9332   */\n      dup3\n        /* \"#utility.yul\":9319:9324   */\n      dup2\n        /* \"#utility.yul\":9312:9333   */\n      mstore\n        /* \"#utility.yul\":9364:9368   */\n      0x20\n        /* \"#utility.yul\":9357:9362   */\n      dup2\n        /* \"#utility.yul\":9353:9369   */\n      add\n        /* \"#utility.yul\":9402:9405   */\n      dup5\n        /* \"#utility.yul\":9393:9399   */\n      dup5\n        /* \"#utility.yul\":9388:9391   */\n      dup5\n        /* \"#utility.yul\":9384:9400   */\n      add\n        /* \"#utility.yul\":9381:9406   */\n      gt\n        /* \"#utility.yul\":9378:9490   */\n      iszero\n      tag_217\n      jumpi\n        /* \"#utility.yul\":9409:9488   */\n      tag_218\n      tag_91\n      jump\t// in\n    tag_218:\n        /* \"#utility.yul\":9378:9490   */\n    tag_217:\n        /* \"#utility.yul\":9499:9553   */\n      tag_219\n        /* \"#utility.yul\":9546:9552   */\n      dup5\n        /* \"#utility.yul\":9541:9544   */\n      dup3\n        /* \"#utility.yul\":9536:9539   */\n      dup6\n        /* \"#utility.yul\":9499:9553   */\n      tag_96\n      jump\t// in\n    tag_219:\n        /* \"#utility.yul\":9218:9559   */\n      pop\n        /* \"#utility.yul\":9134:9559   */\n      swap4\n      swap3\n      pop\n      pop\n      pop\n      jump\t// out\n        /* \"#utility.yul\":9579:9919   */\n    tag_98:\n        /* \"#utility.yul\":9635:9640   */\n      0x00\n        /* \"#utility.yul\":9684:9687   */\n      dup3\n        /* \"#utility.yul\":9677:9681   */\n      0x1f\n        /* \"#utility.yul\":9669:9675   */\n      dup4\n        /* \"#utility.yul\":9665:9682   */\n      add\n        /* \"#utility.yul\":9661:9688   */\n      slt\n        /* \"#utility.yul\":9651:9773   */\n      tag_221\n      jumpi\n        /* \"#utility.yul\":9692:9771   */\n      tag_222\n      tag_71\n      jump\t// in\n    tag_222:\n        /* \"#utility.yul\":9651:9773   */\n    tag_221:\n        /* \"#utility.yul\":9809:9815   */\n      dup2\n        /* \"#utility.yul\":9796:9816   */\n      calldataload\n        /* \"#utility.yul\":9834:9913   */\n      tag_223\n        /* \"#utility.yul\":9909:9912   */\n      dup5\n        /* \"#utility.yul\":9901:9907   */\n      dup3\n        /* \"#utility.yul\":9894:9898   */\n      0x20\n        /* \"#utility.yul\":9886:9892   */\n      dup7\n        /* \"#utility.yul\":9882:9899   */\n      add\n        /* \"#utility.yul\":9834:9913   */\n      tag_97\n      jump\t// in\n    tag_223:\n        /* \"#utility.yul\":9825:9913   */\n      swap2\n      pop\n        /* \"#utility.yul\":9641:9919   */\n      pop\n        /* \"#utility.yul\":9579:9919   */\n      swap3\n      swap2\n      pop\n      pop\n      jump\t// out\n        /* \"#utility.yul\":9925:10047   */\n    tag_99:\n        /* \"#utility.yul\":9998:10022   */\n      tag_225\n        /* \"#utility.yul\":10016:10021   */\n      dup2\n        /* \"#utility.yul\":9998:10022   */\n      tag_83\n      jump\t// in\n    tag_225:\n        /* \"#utility.yul\":9991:9996   */\n      dup2\n        /* \"#utility.yul\":9988:10023   */\n      eq\n        /* \"#utility.yul\":9978:10041   */\n      tag_226\n      jumpi\n        /* \"#utility.yul\":10037:10038   */\n      0x00\n        /* \"#utility.yul\":10034:10035   */\n      dup1\n        /* \"#utility.yul\":10027:10039   */\n      revert\n        /* \"#utility.yul\":9978:10041   */\n    tag_226:\n        /* \"#utility.yul\":9925:10047   */\n      pop\n      jump\t// out\n        /* \"#utility.yul\":10053:10192   */\n    tag_100:\n        /* \"#utility.yul\":10099:10104   */\n      0x00\n        /* \"#utility.yul\":10137:10143   */\n      dup2\n        /* \"#utility.yul\":10124:10144   */\n      calldataload\n        /* \"#utility.yul\":10115:10144   */\n      swap1\n      pop\n        /* \"#utility.yul\":10153:10186   */\n      tag_228\n        /* \"#utility.yul\":10180:10185   */\n      dup2\n        /* \"#utility.yul\":10153:10186   */\n      tag_99\n      jump\t// in\n    tag_228:\n        /* \"#utility.yul\":10053:10192   */\n      swap3\n      swap2\n      pop\n      pop\n      jump\t// out\n        /* \"#utility.yul\":10198:10852   */\n    tag_18:\n        /* \"#utility.yul\":10276:10282   */\n      0x00\n        /* \"#utility.yul\":10284:10290   */\n      dup1\n        /* \"#utility.yul\":10333:10335   */\n      0x40\n        /* \"#utility.yul\":10321:10330   */\n      dup4\n        /* \"#utility.yul\":10312:10319   */\n      dup6\n        /* \"#utility.yul\":10308:10331   */\n      sub\n        /* \"#utility.yul\":10304:10336   */\n      slt\n        /* \"#utility.yul\":10301:10420   */\n      iszero\n      tag_230\n      jumpi\n        /* \"#utility.yul\":10339:10418   */\n      tag_231\n      tag_69\n      jump\t// in\n    tag_231:\n        /* \"#utility.yul\":10301:10420   */\n    tag_230:\n        /* \"#utility.yul\":10487:10488   */\n      0x00\n        /* \"#utility.yul\":10476:10485   */\n      dup4\n        /* \"#utility.yul\":10472:10489   */\n      add\n        /* \"#utility.yul\":10459:10490   */\n      calldataload\n        /* \"#utility.yul\":10517:10535   */\n      0xffffffffffffffff\n        /* \"#utility.yul\":10509:10515   */\n      dup2\n        /* \"#utility.yul\":10506:10536   */\n      gt\n        /* \"#utility.yul\":10503:10620   */\n      iszero\n      tag_232\n      jumpi\n        /* \"#utility.yul\":10539:10618   */\n      tag_233\n      tag_70\n      jump\t// in\n    tag_233:\n        /* \"#utility.yul\":10503:10620   */\n    tag_232:\n        /* \"#utility.yul\":10644:10707   */\n      tag_234\n        /* \"#utility.yul\":10699:10706   */\n      dup6\n        /* \"#utility.yul\":10690:10696   */\n      dup3\n        /* \"#utility.yul\":10679:10688   */\n      dup7\n        /* \"#utility.yul\":10675:10697   */\n      add\n        /* \"#utility.yul\":10644:10707   */\n      tag_98\n      jump\t// in\n    tag_234:\n        /* \"#utility.yul\":10634:10707   */\n      swap3\n      pop\n        /* \"#utility.yul\":10430:10717   */\n      pop\n        /* \"#utility.yul\":10756:10758   */\n      0x20\n        /* \"#utility.yul\":10782:10835   */\n      tag_235\n        /* \"#utility.yul\":10827:10834   */\n      dup6\n        /* \"#utility.yul\":10818:10824   */\n      dup3\n        /* \"#utility.yul\":10807:10816   */\n      dup7\n        /* \"#utility.yul\":10803:10825   */\n      add\n        /* \"#utility.yul\":10782:10835   */\n      tag_100\n      jump\t// in\n    tag_235:\n        /* \"#utility.yul\":10772:10835   */\n      swap2\n      pop\n        /* \"#utility.yul\":10727:10845   */\n      pop\n        /* \"#utility.yul\":10198:10852   */\n      swap3\n      pop\n      swap3\n      swap1\n      pop\n      jump\t// out\n        /* \"#utility.yul\":10858:11027   */\n    tag_101:\n        /* \"#utility.yul\":10942:10953   */\n      0x00\n        /* \"#utility.yul\":10976:10982   */\n      dup3\n        /* \"#utility.yul\":10971:10974   */\n      dup3\n        /* \"#utility.yul\":10964:10983   */\n      mstore\n        /* \"#utility.yul\":11016:11020   */\n      0x20\n        /* \"#utility.yul\":11011:11014   */\n      dup3\n        /* \"#utility.yul\":11007:11021   */\n      add\n        /* \"#utility.yul\":10992:11021   */\n      swap1\n      pop\n        /* \"#utility.yul\":10858:11027   */\n      swap3\n      swap2\n      pop\n      pop\n      jump\t// out\n        /* \"#utility.yul\":11033:11410   */\n    tag_102:\n        /* \"#utility.yul\":11121:11124   */\n      0x00\n        /* \"#utility.yul\":11149:11188   */\n      tag_238\n        /* \"#utility.yul\":11182:11187   */\n      dup3\n        /* \"#utility.yul\":11149:11188   */\n      tag_78\n      jump\t// in\n    tag_238:\n        /* \"#utility.yul\":11204:11275   */\n      tag_239\n        /* \"#utility.yul\":11268:11274   */\n      dup2\n        /* \"#utility.yul\":11263:11266   */\n      dup6\n        /* \"#utility.yul\":11204:11275   */\n      tag_101\n      jump\t// in\n    tag_239:\n        /* \"#utility.yul\":11197:11275   */\n      swap4\n      pop\n        /* \"#utility.yul\":11284:11349   */\n      tag_240\n        /* \"#utility.yul\":11342:11348   */\n      dup2\n        /* \"#utility.yul\":11337:11340   */\n      dup6\n        /* \"#utility.yul\":11330:11334   */\n      0x20\n        /* \"#utility.yul\":11323:11328   */\n      dup7\n        /* \"#utility.yul\":11319:11335   */\n      add\n        /* \"#utility.yul\":11284:11349   */\n      tag_80\n      jump\t// in\n    tag_240:\n        /* \"#utility.yul\":11374:11403   */\n      tag_241\n        /* \"#utility.yul\":11396:11402   */\n      dup2\n        /* \"#utility.yul\":11374:11403   */\n      tag_81\n      jump\t// in\n    tag_241:\n        /* \"#utility.yul\":11369:11372   */\n      dup5\n        /* \"#utility.yul\":11365:11404   */\n      add\n        /* \"#utility.yul\":11358:11404   */\n      swap2\n      pop\n        /* \"#utility.yul\":11125:11410   */\n      pop\n        /* \"#utility.yul\":11033:11410   */\n      swap3\n      swap2\n      pop\n      pop\n      jump\t// out\n        /* \"#utility.yul\":11416:11534   */\n    tag_103:\n        /* \"#utility.yul\":11503:11527   */\n      tag_243\n        /* \"#utility.yul\":11521:11526   */\n      dup2\n        /* \"#utility.yul\":11503:11527   */\n      tag_83\n      jump\t// in\n    tag_243:\n        /* \"#utility.yul\":11498:11501   */\n      dup3\n        /* \"#utility.yul\":11491:11528   */\n      mstore\n        /* \"#utility.yul\":11416:11534   */\n      pop\n      pop\n      jump\t// out\n        /* \"#utility.yul\":11540:12588   */\n    tag_21:\n        /* \"#utility.yul\":11833:11837   */\n      0x00\n        /* \"#utility.yul\":11871:11874   */\n      0xc0\n        /* \"#utility.yul\":11860:11869   */\n      dup3\n        /* \"#utility.yul\":11856:11875   */\n      add\n        /* \"#utility.yul\":11848:11875   */\n      swap1\n      pop\n        /* \"#utility.yul\":11921:11930   */\n      dup2\n        /* \"#utility.yul\":11915:11919   */\n      dup2\n        /* \"#utility.yul\":11911:11931   */\n      sub\n        /* \"#utility.yul\":11907:11908   */\n      0x00\n        /* \"#utility.yul\":11896:11905   */\n      dup4\n        /* \"#utility.yul\":11892:11909   */\n      add\n        /* \"#utility.yul\":11885:11932   */\n      mstore\n        /* \"#utility.yul\":11949:12027   */\n      tag_245\n        /* \"#utility.yul\":12022:12026   */\n      dup2\n        /* \"#utility.yul\":12013:12019   */\n      dup10\n        /* \"#utility.yul\":11949:12027   */\n      tag_102\n      jump\t// in\n    tag_245:\n        /* \"#utility.yul\":11941:12027   */\n      swap1\n      pop\n        /* \"#utility.yul\":12074:12083   */\n      dup2\n        /* \"#utility.yul\":12068:12072   */\n      dup2\n        /* \"#utility.yul\":12064:12084   */\n      sub\n        /* \"#utility.yul\":12059:12061   */\n      0x20\n        /* \"#utility.yul\":12048:12057   */\n      dup4\n        /* \"#utility.yul\":12044:12062   */\n      add\n        /* \"#utility.yul\":12037:12085   */\n      mstore\n        /* \"#utility.yul\":12102:12180   */\n      tag_246\n        /* \"#utility.yul\":12175:12179   */\n      dup2\n        /* \"#utility.yul\":12166:12172   */\n      dup9\n        /* \"#utility.yul\":12102:12180   */\n      tag_102\n      jump\t// in\n    tag_246:\n        /* \"#utility.yul\":12094:12180   */\n      swap1\n      pop\n        /* \"#utility.yul\":12190:12262   */\n      tag_247\n        /* \"#utility.yul\":12258:12260   */\n      0x40\n        /* \"#utility.yul\":12247:12256   */\n      dup4\n        /* \"#utility.yul\":12243:12261   */\n      add\n        /* \"#utility.yul\":12234:12240   */\n      dup8\n        /* \"#utility.yul\":12190:12262   */\n      tag_103\n      jump\t// in\n    tag_247:\n        /* \"#utility.yul\":12272:12344   */\n      tag_248\n        /* \"#utility.yul\":12340:12342   */\n      0x60\n        /* \"#utility.yul\":12329:12338   */\n      dup4\n        /* \"#utility.yul\":12325:12343   */\n      add\n        /* \"#utility.yul\":12316:12322   */\n      dup7\n        /* \"#utility.yul\":12272:12344   */\n      tag_103\n      jump\t// in\n    tag_248:\n        /* \"#utility.yul\":12354:12427   */\n      tag_249\n        /* \"#utility.yul\":12422:12425   */\n      0x80\n        /* \"#utility.yul\":12411:12420   */\n      dup4\n        /* \"#utility.yul\":12407:12426   */\n      add\n        /* \"#utility.yul\":12398:12404   */\n      dup6\n        /* \"#utility.yul\":12354:12427   */\n      tag_103\n      jump\t// in\n    tag_249:\n        /* \"#utility.yul\":12475:12484   */\n      dup2\n        /* \"#utility.yul\":12469:12473   */\n      dup2\n        /* \"#utility.yul\":12465:12485   */\n      sub\n        /* \"#utility.yul\":12459:12462   */\n      0xa0\n        /* \"#utility.yul\":12448:12457   */\n      dup4\n        /* \"#utility.yul\":12444:12463   */\n      add\n        /* \"#utility.yul\":12437:12486   */\n      mstore\n        /* \"#utility.yul\":12503:12581   */\n      tag_250\n        /* \"#utility.yul\":12576:12580   */\n      dup2\n        /* \"#utility.yul\":12567:12573   */\n      dup5\n        /* \"#utility.yul\":12503:12581   */\n      tag_102\n      jump\t// in\n    tag_250:\n        /* \"#utility.yul\":12495:12581   */\n      swap1\n      pop\n        /* \"#utility.yul\":11540:12588   */\n      swap8\n      swap7\n      pop\n      pop\n      pop\n      pop\n      pop\n      pop\n      pop\n      jump\t// out\n        /* \"#utility.yul\":12594:12742   */\n    tag_104:\n        /* \"#utility.yul\":12696:12707   */\n      0x00\n        /* \"#utility.yul\":12733:12736   */\n      dup2\n        /* \"#utility.yul\":12718:12736   */\n      swap1\n      pop\n        /* \"#utility.yul\":12594:12742   */\n      swap3\n      swap2\n      pop\n      pop\n      jump\t// out\n        /* \"#utility.yul\":12772:13102   */\n    tag_105:\n        /* \"#utility.yul\":12888:12891   */\n      0x00\n        /* \"#utility.yul\":12909:12998   */\n      tag_253\n        /* \"#utility.yul\":12991:12997   */\n      dup4\n        /* \"#utility.yul\":12986:12989   */\n      dup6\n        /* \"#utility.yul\":12909:12998   */\n      tag_104\n      jump\t// in\n    tag_253:\n        /* \"#utility.yul\":12902:12998   */\n      swap4\n      pop\n        /* \"#utility.yul\":13008:13064   */\n      tag_254\n        /* \"#utility.yul\":13057:13063   */\n      dup4\n        /* \"#utility.yul\":13052:13055   */\n      dup6\n        /* \"#utility.yul\":13045:13050   */\n      dup5\n        /* \"#utility.yul\":13008:13064   */\n      tag_96\n      jump\t// in\n    tag_254:\n        /* \"#utility.yul\":13089:13095   */\n      dup3\n        /* \"#utility.yul\":13084:13087   */\n      dup5\n        /* \"#utility.yul\":13080:13096   */\n      add\n        /* \"#utility.yul\":13073:13096   */\n      swap1\n      pop\n        /* \"#utility.yul\":12772:13102   */\n      swap4\n      swap3\n      pop\n      pop\n      pop\n      jump\t// out\n        /* \"#utility.yul\":13108:13403   */\n    tag_24:\n        /* \"#utility.yul\":13250:13253   */\n      0x00\n        /* \"#utility.yul\":13272:13377   */\n      tag_256\n        /* \"#utility.yul\":13373:13376   */\n      dup3\n        /* \"#utility.yul\":13364:13370   */\n      dup5\n        /* \"#utility.yul\":13356:13362   */\n      dup7\n        /* \"#utility.yul\":13272:13377   */\n      tag_105\n      jump\t// in\n    tag_256:\n        /* \"#utility.yul\":13265:13377   */\n      swap2\n      pop\n        /* \"#utility.yul\":13394:13397   */\n      dup2\n        /* \"#utility.yul\":13387:13397   */\n      swap1\n      pop\n        /* \"#utility.yul\":13108:13403   */\n      swap4\n      swap3\n      pop\n      pop\n      pop\n      jump\t// out\n        /* \"#utility.yul\":13409:13589   */\n    tag_106:\n        /* \"#utility.yul\":13457:13534   */\n      0x4e487b7100000000000000000000000000000000000000000000000000000000\n        /* \"#utility.yul\":13454:13455   */\n      0x00\n        /* \"#utility.yul\":13447:13535   */\n      mstore\n        /* \"#utility.yul\":13554:13558   */\n      0x22\n        /* \"#utility.yul\":13551:13552   */\n      0x04\n        /* \"#utility.yul\":13544:13559   */\n      mstore\n        /* \"#utility.yul\":13578:13582   */\n      0x24\n        /* \"#utility.yul\":13575:13576   */\n      0x00\n        /* \"#utility.yul\":13568:13583   */\n      revert\n        /* \"#utility.yul\":13595:13915   */\n    tag_29:\n        /* \"#utility.yul\":13639:13645   */\n      0x00\n        /* \"#utility.yul\":13676:13677   */\n      0x02\n        /* \"#utility.yul\":13670:13674   */\n      dup3\n        /* \"#utility.yul\":13666:13678   */\n      div\n        /* \"#utility.yul\":13656:13678   */\n      swap1\n      pop\n        /* \"#utility.yul\":13723:13724   */\n      0x01\n        /* \"#utility.yul\":13717:13721   */\n      dup3\n        /* \"#utility.yul\":13713:13725   */\n      and\n        /* \"#utility.yul\":13744:13762   */\n      dup1\n        /* \"#utility.yul\":13734:13815   */\n      tag_259\n      jumpi\n        /* \"#utility.yul\":13800:13804   */\n      0x7f\n        /* \"#utility.yul\":13792:13798   */\n      dup3\n        /* \"#utility.yul\":13788:13805   */\n      and\n        /* \"#utility.yul\":13778:13805   */\n      swap2\n      pop\n        /* \"#utility.yul\":13734:13815   */\n    tag_259:\n        /* \"#utility.yul\":13862:13864   */\n      0x20\n        /* \"#utility.yul\":13854:13860   */\n      dup3\n        /* \"#utility.yul\":13851:13865   */\n      lt\n        /* \"#utility.yul\":13831:13849   */\n      dup2\n        /* \"#utility.yul\":13828:13866   */\n      sub\n        /* \"#utility.yul\":13825:13909   */\n      tag_260\n      jumpi\n        /* \"#utility.yul\":13881:13899   */\n      tag_261\n      tag_106\n      jump\t// in\n    tag_261:\n        /* \"#utility.yul\":13825:13909   */\n    tag_260:\n        /* \"#utility.yul\":13646:13915   */\n      pop\n        /* \"#utility.yul\":13595:13915   */\n      swap2\n      swap1\n      pop\n      jump\t// out\n        /* \"#utility.yul\":13921:14038   */\n    tag_107:\n        /* \"#utility.yul\":14030:14031   */\n      0x00\n        /* \"#utility.yul\":14027:14028   */\n      dup1\n        /* \"#utility.yul\":14020:14032   */\n      revert\n        /* \"#utility.yul\":14044:14161   */\n    tag_108:\n        /* \"#utility.yul\":14153:14154   */\n      0x00\n        /* \"#utility.yul\":14150:14151   */\n      dup1\n        /* \"#utility.yul\":14143:14155   */\n      revert\n        /* \"#utility.yul\":14167:14284   */\n    tag_109:\n        /* \"#utility.yul\":14276:14277   */\n      0x00\n        /* \"#utility.yul\":14273:14274   */\n      dup1\n        /* \"#utility.yul\":14266:14278   */\n      revert\n        /* \"#utility.yul\":14290:15015   */\n    tag_46:\n        /* \"#utility.yul\":14368:14372   */\n      0x00\n        /* \"#utility.yul\":14374:14380   */\n      dup1\n        /* \"#utility.yul\":14430:14441   */\n      dup4\n        /* \"#utility.yul\":14417:14442   */\n      calldataload\n        /* \"#utility.yul\":14530:14531   */\n      0x01\n        /* \"#utility.yul\":14524:14528   */\n      0x20\n        /* \"#utility.yul\":14520:14532   */\n      sub\n        /* \"#utility.yul\":14509:14517   */\n      dup5\n        /* \"#utility.yul\":14493:14507   */\n      calldatasize\n        /* \"#utility.yul\":14489:14518   */\n      sub\n        /* \"#utility.yul\":14485:14533   */\n      sub\n        /* \"#utility.yul\":14465:14483   */\n      dup2\n        /* \"#utility.yul\":14461:14534   */\n      slt\n        /* \"#utility.yul\":14451:14619   */\n      tag_266\n      jumpi\n        /* \"#utility.yul\":14538:14617   */\n      tag_267\n      tag_107\n      jump\t// in\n    tag_267:\n        /* \"#utility.yul\":14451:14619   */\n    tag_266:\n        /* \"#utility.yul\":14650:14668   */\n      dup1\n        /* \"#utility.yul\":14640:14648   */\n      dup5\n        /* \"#utility.yul\":14636:14669   */\n      add\n        /* \"#utility.yul\":14628:14669   */\n      swap3\n      pop\n        /* \"#utility.yul\":14702:14706   */\n      dup3\n        /* \"#utility.yul\":14689:14707   */\n      calldataload\n        /* \"#utility.yul\":14679:14707   */\n      swap2\n      pop\n        /* \"#utility.yul\":14730:14748   */\n      0xffffffffffffffff\n        /* \"#utility.yul\":14722:14728   */\n      dup3\n        /* \"#utility.yul\":14719:14749   */\n      gt\n        /* \"#utility.yul\":14716:14833   */\n      iszero\n      tag_268\n      jumpi\n        /* \"#utility.yul\":14752:14831   */\n      tag_269\n      tag_108\n      jump\t// in\n    tag_269:\n        /* \"#utility.yul\":14716:14833   */\n    tag_268:\n        /* \"#utility.yul\":14860:14862   */\n      0x20\n        /* \"#utility.yul\":14854:14858   */\n      dup4\n        /* \"#utility.yul\":14850:14863   */\n      add\n        /* \"#utility.yul\":14842:14863   */\n      swap3\n      pop\n        /* \"#utility.yul\":14917:14921   */\n      0x01\n        /* \"#utility.yul\":14909:14915   */\n      dup3\n        /* \"#utility.yul\":14905:14922   */\n      mul\n        /* \"#utility.yul\":14889:14903   */\n      calldatasize\n        /* \"#utility.yul\":14885:14923   */\n      sub\n        /* \"#utility.yul\":14879:14883   */\n      dup4\n        /* \"#utility.yul\":14875:14924   */\n      sgt\n        /* \"#utility.yul\":14872:15008   */\n      iszero\n      tag_270\n      jumpi\n        /* \"#utility.yul\":14927:15006   */\n      tag_271\n      tag_109\n      jump\t// in\n    tag_271:\n        /* \"#utility.yul\":14872:15008   */\n    tag_270:\n        /* \"#utility.yul\":14381:15015   */\n      pop\n        /* \"#utility.yul\":14290:15015   */\n      swap3\n      pop\n      swap3\n      swap1\n      pop\n      jump\t// out\n        /* \"#utility.yul\":15207:15304   */\n    tag_111:\n        /* \"#utility.yul\":15266:15272   */\n      0x00\n        /* \"#utility.yul\":15294:15297   */\n      dup3\n        /* \"#utility.yul\":15284:15297   */\n      swap1\n      pop\n        /* \"#utility.yul\":15207:15304   */\n      swap3\n      swap2\n      pop\n      pop\n      jump\t// out\n        /* \"#utility.yul\":15310:15451   */\n    tag_112:\n        /* \"#utility.yul\":15359:15363   */\n      0x00\n        /* \"#utility.yul\":15382:15385   */\n      dup2\n        /* \"#utility.yul\":15374:15385   */\n      swap1\n      pop\n        /* \"#utility.yul\":15405:15408   */\n      dup2\n        /* \"#utility.yul\":15402:15403   */\n      0x00\n        /* \"#utility.yul\":15395:15409   */\n      mstore\n        /* \"#utility.yul\":15439:15443   */\n      0x20\n        /* \"#utility.yul\":15436:15437   */\n      0x00\n        /* \"#utility.yul\":15426:15444   */\n      keccak256\n        /* \"#utility.yul\":15418:15444   */\n      swap1\n      pop\n        /* \"#utility.yul\":15310:15451   */\n      swap2\n      swap1\n      pop\n      jump\t// out\n        /* \"#utility.yul\":15457:15550   */\n    tag_113:\n        /* \"#utility.yul\":15494:15500   */\n      0x00\n        /* \"#utility.yul\":15541:15543   */\n      0x20\n        /* \"#utility.yul\":15536:15538   */\n      0x1f\n        /* \"#utility.yul\":15529:15534   */\n      dup4\n        /* \"#utility.yul\":15525:15539   */\n      add\n        /* \"#utility.yul\":15521:15544   */\n      div\n        /* \"#utility.yul\":15511:15544   */\n      swap1\n      pop\n        /* \"#utility.yul\":15457:15550   */\n      swap2\n      swap1\n      pop\n      jump\t// out\n        /* \"#utility.yul\":15556:15663   */\n    tag_114:\n        /* \"#utility.yul\":15600:15608   */\n      0x00\n        /* \"#utility.yul\":15650:15655   */\n      dup3\n        /* \"#utility.yul\":15644:15648   */\n      dup3\n        /* \"#utility.yul\":15640:15656   */\n      shl\n        /* \"#utility.yul\":15619:15656   */\n      swap1\n      pop\n        /* \"#utility.yul\":15556:15663   */\n      swap3\n      swap2\n      pop\n      pop\n      jump\t// out\n        /* \"#utility.yul\":15669:16062   */\n    tag_115:\n        /* \"#utility.yul\":15738:15744   */\n      0x00\n        /* \"#utility.yul\":15788:15789   */\n      0x08\n        /* \"#utility.yul\":15776:15786   */\n      dup4\n        /* \"#utility.yul\":15772:15790   */\n      mul\n        /* \"#utility.yul\":15811:15908   */\n      tag_278\n        /* \"#utility.yul\":15841:15907   */\n      0xffffffffffffffffffffffffffffffffffffffffffffffffffffffffffffffff\n        /* \"#utility.yul\":15830:15839   */\n      dup3\n        /* \"#utility.yul\":15811:15908   */\n      tag_114\n      jump\t// in\n    tag_278:\n        /* \"#utility.yul\":15929:15968   */\n      tag_279\n        /* \"#utility.yul\":15959:15967   */\n      dup7\n        /* \"#utility.yul\":15948:15957   */\n      dup4\n        /* \"#utility.yul\":15929:15968   */\n      tag_114\n      jump\t// in\n    tag_279:\n        /* \"#utility.yul\":15917:15968   */\n      swap6\n      pop\n        /* \"#utility.yul\":16001:16005   */\n      dup1\n        /* \"#utility.yul\":15997:16006   */\n      not\n        /* \"#utility.yul\":15990:15995   */\n      dup5\n        /* \"#utility.yul\":15986:16007   */\n      and\n        /* \"#utility.yul\":15977:16007   */\n      swap4\n      pop\n        /* \"#utility.yul\":16050:16054   */\n      dup1\n        /* \"#utility.yul\":16040:16048   */\n      dup7\n        /* \"#utility.yul\":16036:16055   */\n      and\n        /* \"#utility.yul\":16029:16034   */\n      dup5\n        /* \"#utility.yul\":16026:16056   */\n      or\n        /* \"#utility.yul\":16016:16056   */\n      swap3\n      pop\n        /* \"#utility.yul\":15745:16062   */\n      pop\n      pop\n        /* \"#utility.yul\":15669:16062   */\n      swap4\n      swap3\n      pop\n      pop\n      pop\n      jump\t// out\n        /* \"#utility.yul\":16068:16128   */\n    tag_116:\n        /* \"#utility.yul\":16096:16099   */\n      0x00\n        /* \"#utility.yul\":16117:16122   */\n      dup2\n        /* \"#utility.yul\":16110:16122   */\n      swap1\n      pop\n        /* \"#utility.yul\":16068:16128   */\n      swap2\n      swap1\n      pop\n      jump\t// out\n        /* \"#utility.yul\":16134:16276   */\n    tag_117:\n        /* \"#utility.yul\":16184:16193   */\n      0x00\n        /* \"#utility.yul\":16217:16270   */\n      tag_282\n        /* \"#utility.yul\":16235:16269   */\n      tag_283\n        /* \"#utility.yul\":16244:16268   */\n      tag_284\n        /* \"#utility.yul\":16262:16267   */\n      dup5\n        /* \"#utility.yul\":16244:16268   */\n      tag_83\n      jump\t// in\n    tag_284:\n        /* \"#utility.yul\":16235:16269   */\n      tag_116\n      jump\t// in\n    tag_283:\n        /* \"#utility.yul\":16217:16270   */\n      tag_83\n      jump\t// in\n    tag_282:\n        /* \"#utility.yul\":16204:16270   */\n      swap1\n      pop\n        /* \"#utility.yul\":16134:16276   */\n      swap2\n      swap1\n      pop\n      jump\t// out\n        /* \"#utility.yul\":16282:16357   */\n    tag_118:\n        /* \"#utility.yul\":16325:16328   */\n      0x00\n        /* \"#utility.yul\":16346:16351   */\n      dup2\n        /* \"#utility.yul\":16339:16351   */\n      swap1\n      pop\n        /* \"#utility.yul\":16282:16357   */\n      swap2\n      swap1\n      pop\n      jump\t// out\n        /* \"#utility.yul\":16363:16632   */\n    tag_119:\n        /* \"#utility.yul\":16473:16512   */\n      tag_287\n        /* \"#utility.yul\":16504:16511   */\n      dup4\n        /* \"#utility.yul\":16473:16512   */\n      tag_117\n      jump\t// in\n    tag_287:\n        /* \"#utility.yul\":16534:16625   */\n      tag_288\n        /* \"#utility.yul\":16583:16624   */\n      tag_289\n        /* \"#utility.yul\":16607:16623   */\n      dup3\n        /* \"#utility.yul\":16583:16624   */\n      tag_118\n      jump\t// in\n    tag_289:\n        /* \"#utility.yul\":16575:16581   */\n      dup5\n        /* \"#utility.yul\":16568:16572   */\n      dup5\n        /* \"#utility.yul\":16562:16573   */\n      sload\n        /* \"#utility.yul\":16534:16625   */\n      tag_115\n      jump\t// in\n    tag_288:\n        /* \"#utility.yul\":16528:16532   */\n      dup3\n        /* \"#utility.yul\":16521:16626   */\n      sstore\n        /* \"#utility.yul\":16439:16632   */\n      pop\n        /* \"#utility.yul\":16363:16632   */\n      pop\n      pop\n      pop\n      jump\t// out\n        /* \"#utility.yul\":16638:16711   */\n    tag_120:\n        /* \"#utility.yul\":16683:16686   */\n      0x00\n        /* \"#utility.yul\":16638:16711   */\n      swap1\n      jump\t// out\n        /* \"#utility.yul\":16717:16906   */\n    tag_121:\n        /* \"#utility.yul\":16794:16826   */\n      tag_292\n      tag_120\n      jump\t// in\n    tag_292:\n        /* \"#utility.yul\":16835:16900   */\n      tag_293\n        /* \"#utility.yul\":16893:16899   */\n      dup2\n        /* \"#utility.yul\":16885:16891   */\n      dup5\n        /* \"#utility.yul\":16879:16883   */\n      dup5\n        /* \"#utility.yul\":16835:16900   */\n      tag_119\n      jump\t// in\n    tag_293:\n        /* \"#utility.yul\":16770:16906   */\n      pop\n        /* \"#utility.yul\":16717:16906   */\n      pop\n      pop\n      jump\t// out\n        /* \"#utility.yul\":16912:17098   */\n    tag_122:\n        /* \"#utility.yul\":16972:17092   */\n    tag_295:\n        /* \"#utility.yul\":16989:16992   */\n      dup2\n        /* \"#utility.yul\":16982:16987   */\n      dup2\n        /* \"#utility.yul\":16979:16993   */\n      lt\n        /* \"#utility.yul\":16972:17092   */\n      iszero\n      tag_297\n      jumpi\n        /* \"#utility.yul\":17043:17082   */\n      tag_298\n        /* \"#utility.yul\":17080:17081   */\n      0x00\n        /* \"#utility.yul\":17073:17078   */\n      dup3\n        /* \"#utility.yul\":17043:17082   */\n      tag_121\n      jump\t// in\n    tag_298:\n        /* \"#utility.yul\":17016:17017   */\n      0x01\n        /* \"#utility.yul\":17009:17014   */\n      dup2\n        /* \"#utility.yul\":17005:17018   */\n      add\n        /* \"#utility.yul\":16996:17018   */\n      swap1\n      pop\n        /* \"#utility.yul\":16972:17092   */\n      jump(tag_295)\n    tag_297:\n        /* \"#utility.yul\":16912:17098   */\n      pop\n      pop\n      jump\t// out\n        /* \"#utility.yul\":17104:17647   */\n    tag_123:\n        /* \"#utility.yul\":17205:17207   */\n      0x1f\n        /* \"#utility.yul\":17200:17203   */\n      dup3\n        /* \"#utility.yul\":17197:17208   */\n      gt\n        /* \"#utility.yul\":17194:17640   */\n      iszero\n      tag_300\n      jumpi\n        /* \"#utility.yul\":17239:17277   */\n      tag_301\n        /* \"#utility.yul\":17271:17276   */\n      dup2\n        /* \"#utility.yul\":17239:17277   */\n      tag_112\n      jump\t// in\n    tag_301:\n        /* \"#utility.yul\":17323:17352   */\n      tag_302\n        /* \"#utility.yul\":17341:17351   */\n      dup5\n        /* \"#utility.yul\":17323:17352   */\n      tag_113\n      jump\t// in\n    tag_302:\n        /* \"#utility.yul\":17313:17321   */\n      dup2\n        /* \"#utility.yul\":17309:17353   */\n      add\n        /* \"#utility.yul\":17506:17508   */\n      0x20\n        /* \"#utility.yul\":17494:17504   */\n      dup6\n        /* \"#utility.yul\":17491:17509   */\n      lt\n        /* \"#utility.yul\":17488:17537   */\n      iszero\n      tag_303\n      jumpi\n        /* \"#utility.yul\":17527:17535   */\n      dup2\n        /* \"#utility.yul\":17512:17535   */\n      swap1\n      pop\n        /* \"#utility.yul\":17488:17537   */\n    tag_303:\n        /* \"#utility.yul\":17550:17630   */\n      tag_304\n        /* \"#utility.yul\":17606:17628   */\n      tag_305\n        /* \"#utility.yul\":17624:17627   */\n      dup6\n        /* \"#utility.yul\":17606:17628   */\n      tag_113\n      jump\t// in\n    tag_305:\n        /* \"#utility.yul\":17596:17604   */\n      dup4\n        /* \"#utility.yul\":17592:17629   */\n      add\n        /* \"#utility.yul\":17579:17590   */\n      dup3\n        /* \"#utility.yul\":17550:17630   */\n      tag_122\n      jump\t// in\n    tag_304:\n        /* \"#utility.yul\":17209:17640   */\n      pop\n      pop\n        /* \"#utility.yul\":17194:17640   */\n    tag_300:\n        /* \"#utility.yul\":17104:17647   */\n      pop\n      pop\n      pop\n      jump\t// out\n        /* \"#utility.yul\":17653:17770   */\n    tag_124:\n        /* \"#utility.yul\":17707:17715   */\n      0x00\n        /* \"#utility.yul\":17757:17762   */\n      dup3\n        /* \"#utility.yul\":17751:17755   */\n      dup3\n        /* \"#utility.yul\":17747:17763   */\n      shr\n        /* \"#utility.yul\":17726:17763   */\n      swap1\n      pop\n        /* \"#utility.yul\":17653:17770   */\n      swap3\n      swap2\n      pop\n      pop\n      jump\t// out\n        /* \"#utility.yul\":17776:17945   */\n    tag_125:\n        /* \"#utility.yul\":17820:17826   */\n      0x00\n        /* \"#utility.yul\":17853:17904   */\n      tag_308\n        /* \"#utility.yul\":17901:17902   */\n      0x00\n        /* \"#utility.yul\":17897:17903   */\n      not\n        /* \"#utility.yul\":17889:17894   */\n      dup5\n        /* \"#utility.yul\":17886:17887   */\n      0x08\n        /* \"#utility.yul\":17882:17895   */\n      mul\n        /* \"#utility.yul\":17853:17904   */\n      tag_124\n      jump\t// in\n    tag_308:\n        /* \"#utility.yul\":17849:17905   */\n      not\n        /* \"#utility.yul\":17934:17938   */\n      dup1\n        /* \"#utility.yul\":17928:17932   */\n      dup4\n        /* \"#utility.yul\":17924:17939   */\n      and\n        /* \"#utility.yul\":17914:17939   */\n      swap2\n      pop\n        /* \"#utility.yul\":17827:17945   */\n      pop\n        /* \"#utility.yul\":17776:17945   */\n      swap3\n      swap2\n      pop\n      pop\n      jump\t// out\n        /* \"#utility.yul\":17950:18245   */\n    tag_126:\n        /* \"#utility.yul\":18026:18030   */\n      0x00\n        /* \"#utility.yul\":18172:18201   */\n      tag_310\n        /* \"#utility.yul\":18197:18200   */\n      dup4\n        /* \"#utility.yul\":18191:18195   */\n      dup4\n        /* \"#utility.yul\":18172:18201   */\n      tag_125\n      jump\t// in\n    tag_310:\n        /* \"#utility.yul\":18164:18201   */\n      swap2\n      pop\n        /* \"#utility.yul\":18234:18237   */\n      dup3\n        /* \"#utility.yul\":18231:18232   */\n      0x02\n        /* \"#utility.yul\":18227:18238   */\n      mul\n        /* \"#utility.yul\":18221:18225   */\n      dup3\n        /* \"#utility.yul\":18218:18239   */\n      or\n        /* \"#utility.yul\":18210:18239   */\n      swap1\n      pop\n        /* \"#utility.yul\":17950:18245   */\n      swap3\n      swap2\n      pop\n      pop\n      jump\t// out\n        /* \"#utility.yul\":18250:19653   */\n    tag_127:\n        /* \"#utility.yul\":18374:18418   */\n      tag_312\n        /* \"#utility.yul\":18414:18417   */\n      dup4\n        /* \"#utility.yul\":18409:18412   */\n      dup4\n        /* \"#utility.yul\":18374:18418   */\n      tag_111\n      jump\t// in\n    tag_312:\n        /* \"#utility.yul\":18483:18501   */\n      0xffffffffffffffff\n        /* \"#utility.yul\":18475:18481   */\n      dup2\n        /* \"#utility.yul\":18472:18502   */\n      gt\n        /* \"#utility.yul\":18469:18525   */\n      iszero\n      tag_313\n      jumpi\n        /* \"#utility.yul\":18505:18523   */\n      tag_314\n      tag_92\n      jump\t// in\n    tag_314:\n        /* \"#utility.yul\":18469:18525   */\n    tag_313:\n        /* \"#utility.yul\":18549:18587   */\n      tag_315\n        /* \"#utility.yul\":18581:18585   */\n      dup3\n        /* \"#utility.yul\":18575:18586   */\n      sload\n        /* \"#utility.yul\":18549:18587   */\n      tag_29\n      jump\t// in\n    tag_315:\n        /* \"#utility.yul\":18634:18701   */\n      tag_316\n        /* \"#utility.yul\":18694:18700   */\n      dup3\n        /* \"#utility.yul\":18686:18692   */\n      dup3\n        /* \"#utility.yul\":18680:18684   */\n      dup6\n        /* \"#utility.yul\":18634:18701   */\n      tag_123\n      jump\t// in\n    tag_316:\n        /* \"#utility.yul\":18728:18729   */\n      0x00\n        /* \"#utility.yul\":18757:18759   */\n      0x1f\n        /* \"#utility.yul\":18749:18755   */\n      dup4\n        /* \"#utility.yul\":18746:18760   */\n      gt\n        /* \"#utility.yul\":18774:18775   */\n      0x01\n        /* \"#utility.yul\":18769:19401   */\n      dup2\n      eq\n      tag_318\n      jumpi\n        /* \"#utility.yul\":19445:19446   */\n      0x00\n        /* \"#utility.yul\":19462:19468   */\n      dup5\n        /* \"#utility.yul\":19459:19543   */\n      iszero\n      tag_319\n      jumpi\n        /* \"#utility.yul\":19518:19527   */\n      dup3\n        /* \"#utility.yul\":19513:19516   */\n      dup8\n        /* \"#utility.yul\":19509:19528   */\n      add\n        /* \"#utility.yul\":19496:19529   */\n      calldataload\n        /* \"#utility.yul\":19487:19529   */\n      swap1\n      pop\n        /* \"#utility.yul\":19459:19543   */\n    tag_319:\n        /* \"#utility.yul\":19569:19636   */\n      tag_320\n        /* \"#utility.yul\":19629:19635   */\n      dup6\n        /* \"#utility.yul\":19622:19627   */\n      dup3\n        /* \"#utility.yul\":19569:19636   */\n      tag_126\n      jump\t// in\n    tag_320:\n        /* \"#utility.yul\":19563:19567   */\n      dup7\n        /* \"#utility.yul\":19556:19637   */\n      sstore\n        /* \"#utility.yul\":19418:19647   */\n      pop\n        /* \"#utility.yul\":18739:19647   */\n      jump(tag_317)\n        /* \"#utility.yul\":18769:19401   */\n    tag_318:\n        /* \"#utility.yul\":18821:18825   */\n      0x1f\n        /* \"#utility.yul\":18817:18826   */\n      not\n        /* \"#utility.yul\":18809:18815   */\n      dup5\n        /* \"#utility.yul\":18805:18827   */\n      and\n        /* \"#utility.yul\":18855:18892   */\n      tag_321\n        /* \"#utility.yul\":18887:18891   */\n      dup7\n        /* \"#utility.yul\":18855:18892   */\n      tag_112\n      jump\t// in\n    tag_321:\n        /* \"#utility.yul\":18914:18915   */\n      0x00\n        /* \"#utility.yul\":18928:19143   */\n    tag_322:\n        /* \"#utility.yul\":18942:18949   */\n      dup3\n        /* \"#utility.yul\":18939:18940   */\n      dup2\n        /* \"#utility.yul\":18936:18950   */\n      lt\n        /* \"#utility.yul\":18928:19143   */\n      iszero\n      tag_324\n      jumpi\n        /* \"#utility.yul\":19028:19037   */\n      dup5\n        /* \"#utility.yul\":19023:19026   */\n      dup10\n        /* \"#utility.yul\":19019:19038   */\n      add\n        /* \"#utility.yul\":19006:19039   */\n      calldataload\n        /* \"#utility.yul\":18998:19004   */\n      dup3\n        /* \"#utility.yul\":18991:19040   */\n      sstore\n        /* \"#utility.yul\":19079:19080   */\n      0x01\n        /* \"#utility.yul\":19071:19077   */\n      dup3\n        /* \"#utility.yul\":19067:19081   */\n      add\n        /* \"#utility.yul\":19057:19081   */\n      swap2\n      pop\n        /* \"#utility.yul\":19126:19128   */\n      0x20\n        /* \"#utility.yul\":19115:19124   */\n      dup6\n        /* \"#utility.yul\":19111:19129   */\n      add\n        /* \"#utility.yul\":19098:19129   */\n      swap5\n      pop\n        /* \"#utility.yul\":18965:18969   */\n      0x20\n        /* \"#utility.yul\":18962:18963   */\n      dup2\n        /* \"#utility.yul\":18958:18970   */\n      add\n        /* \"#utility.yul\":18953:18970   */\n      swap1\n      pop\n        /* \"#utility.yul\":18928:19143   */\n      jump(tag_322)\n    tag_324:\n        /* \"#utility.yul\":19171:19177   */\n      dup7\n        /* \"#utility.yul\":19162:19169   */\n      dup4\n        /* \"#utility.yul\":19159:19178   */\n      lt\n        /* \"#utility.yul\":19156:19342   */\n      iszero\n      tag_325\n      jumpi\n        /* \"#utility.yul\":19236:19245   */\n      dup5\n        /* \"#utility.yul\":19231:19234   */\n      dup10\n        /* \"#utility.yul\":19227:19246   */\n      add\n        /* \"#utility.yul\":19214:19247   */\n      calldataload\n        /* \"#utility.yul\":19279:19327   */\n      tag_326\n        /* \"#utility.yul\":19321:19325   */\n      0x1f\n        /* \"#utility.yul\":19313:19319   */\n      dup10\n        /* \"#utility.yul\":19309:19326   */\n      and\n        /* \"#utility.yul\":19298:19307   */\n      dup3\n        /* \"#utility.yul\":19279:19327   */\n      tag_125\n      jump\t// in\n    tag_326:\n        /* \"#utility.yul\":19271:19277   */\n      dup4\n        /* \"#utility.yul\":19264:19328   */\n      sstore\n        /* \"#utility.yul\":19179:19342   */\n      pop\n        /* \"#utility.yul\":19156:19342   */\n    tag_325:\n        /* \"#utility.yul\":19388:19389   */\n      0x01\n        /* \"#utility.yul\":19384:19385   */\n      0x02\n        /* \"#utility.yul\":19376:19382   */\n      dup9\n        /* \"#utility.yul\":19372:19386   */\n      mul\n        /* \"#utility.yul\":19368:19390   */\n      add\n        /* \"#utility.yul\":19362:19366   */\n      dup9\n        /* \"#utility.yul\":19355:19391   */\n      sstore\n        /* \"#utility.yul\":18776:19401   */\n      pop\n      pop\n      pop\n        /* \"#utility.yul\":18739:19647   */\n    tag_317:\n      pop\n        /* \"#utility.yul\":18349:19653   */\n      pop\n      pop\n      pop\n        /* \"#utility.yul\":18250:19653   */\n      pop\n      pop\n      pop\n      jump\t// out\n        /* \"#utility.yul\":19659:19877   */\n    tag_128:\n        /* \"#utility.yul\":19774:19871   */\n      tag_328\n        /* \"#utility.yul\":19863:19870   */\n      dup4\n        /* \"#utility.yul\":19854:19861   */\n      dup4\n        /* \"#utility.yul\":19848:19852   */\n      dup4\n        /* \"#utility.yul\":19774:19871   */\n      tag_127\n      jump\t// in\n    tag_328:\n        /* \"#utility.yul\":19659:19877   */\n      pop\n      pop\n      pop\n      jump\t// out\n        /* \"#utility.yul\":19883:20069   */\n    tag_129:\n        /* \"#utility.yul\":19928:19939   */\n      0x00\n        /* \"#utility.yul\":19977:19980   */\n      dup2\n        /* \"#utility.yul\":19964:19981   */\n      calldataload\n        /* \"#utility.yul\":19990:20023   */\n      tag_330\n        /* \"#utility.yul\":20017:20022   */\n      dup2\n        /* \"#utility.yul\":19990:20023   */\n      tag_99\n      jump\t// in\n    tag_330:\n        /* \"#utility.yul\":20057:20062   */\n      dup1\n        /* \"#utility.yul\":20033:20062   */\n      swap2\n      pop\n        /* \"#utility.yul\":19940:20069   */\n      pop\n        /* \"#utility.yul\":19883:20069   */\n      swap2\n      swap1\n      pop\n      jump\t// out\n        /* \"#utility.yul\":20075:20167   */\n    tag_130:\n        /* \"#utility.yul\":20107:20115   */\n      0x00\n        /* \"#utility.yul\":20154:20159   */\n      dup2\n        /* \"#utility.yul\":20151:20152   */\n      0x00\n        /* \"#utility.yul\":20147:20160   */\n      shl\n        /* \"#utility.yul\":20126:20160   */\n      swap1\n      pop\n        /* \"#utility.yul\":20075:20167   */\n      swap2\n      swap1\n      pop\n      jump\t// out\n        /* \"#utility.yul\":20173:20463   */\n    tag_131:\n        /* \"#utility.yul\":20231:20237   */\n      0x00\n        /* \"#utility.yul\":20260:20326   */\n      0xffffffffffffffffffffffffffffffffffffffffffffffffffffffffffffffff\n        /* \"#utility.yul\":20347:20369   */\n      tag_333\n        /* \"#utility.yul\":20360:20368   */\n      dup5\n        /* \"#utility.yul\":20347:20369   */\n      tag_130\n      jump\t// in\n    tag_333:\n        /* \"#utility.yul\":20335:20369   */\n      swap4\n      pop\n        /* \"#utility.yul\":20402:20406   */\n      dup1\n        /* \"#utility.yul\":20398:20407   */\n      not\n        /* \"#utility.yul\":20391:20396   */\n      dup4\n        /* \"#utility.yul\":20387:20408   */\n      and\n        /* \"#utility.yul\":20378:20408   */\n      swap3\n      pop\n        /* \"#utility.yul\":20451:20455   */\n      dup1\n        /* \"#utility.yul\":20441:20449   */\n      dup5\n        /* \"#utility.yul\":20437:20456   */\n      and\n        /* \"#utility.yul\":20430:20435   */\n      dup4\n        /* \"#utility.yul\":20427:20457   */\n      or\n        /* \"#utility.yul\":20417:20457   */\n      swap2\n      pop\n        /* \"#utility.yul\":20238:20463   */\n      pop\n        /* \"#utility.yul\":20173:20463   */\n      swap3\n      swap2\n      pop\n      pop\n      jump\t// out\n        /* \"#utility.yul\":20469:20731   */\n    tag_132:\n        /* \"#utility.yul\":20579:20618   */\n      tag_335\n        /* \"#utility.yul\":20610:20617   */\n      dup3\n        /* \"#utility.yul\":20579:20618   */\n      tag_117\n      jump\t// in\n    tag_335:\n        /* \"#utility.yul\":20640:20724   */\n      tag_336\n        /* \"#utility.yul\":20682:20723   */\n      tag_337\n        /* \"#utility.yul\":20706:20722   */\n      dup3\n        /* \"#utility.yul\":20682:20723   */\n      tag_118\n      jump\t// in\n    tag_337:\n        /* \"#utility.yul\":20675:20679   */\n      dup4\n        /* \"#utility.yul\":20669:20680   */\n      sload\n        /* \"#utility.yul\":20640:20724   */\n      tag_131\n      jump\t// in\n    tag_336:\n        /* \"#utility.yul\":20634:20638   */\n      dup3\n        /* \"#utility.yul\":20627:20725   */\n      sstore\n        /* \"#utility.yul\":20545:20731   */\n      pop\n        /* \"#utility.yul\":20469:20731   */\n      pop\n      pop\n      jump\t// out\n        /* \"#utility.yul\":20737:22977   */\n    tag_133:\n        /* \"#utility.yul\":20913:20914   */\n      0x00\n        /* \"#utility.yul\":20907:20911   */\n      dup2\n        /* \"#utility.yul\":20903:20915   */\n      add\n        /* \"#utility.yul\":20959:20960   */\n      0x00\n        /* \"#utility.yul\":20952:20957   */\n      dup4\n        /* \"#utility.yul\":20948:20961   */\n      add\n        /* \"#utility.yul\":21024:21087   */\n      tag_339\n        /* \"#utility.yul\":21074:21086   */\n      dup2\n        /* \"#utility.yul\":21067:21072   */\n      dup6\n        /* \"#utility.yul\":21024:21087   */\n      tag_46\n      jump\t// in\n    tag_339:\n        /* \"#utility.yul\":21101:21213   */\n      tag_340\n        /* \"#utility.yul\":21199:21212   */\n      dup2\n        /* \"#utility.yul\":21184:21197   */\n      dup4\n        /* \"#utility.yul\":21172:21182   */\n      dup7\n        /* \"#utility.yul\":21101:21213   */\n      tag_128\n      jump\t// in\n    tag_340:\n        /* \"#utility.yul\":20870:21224   */\n      pop\n      pop\n      pop\n      pop\n        /* \"#utility.yul\":21277:21278   */\n      0x01\n        /* \"#utility.yul\":21271:21275   */\n      dup2\n        /* \"#utility.yul\":21267:21279   */\n      add\n        /* \"#utility.yul\":21323:21325   */\n      0x20\n        /* \"#utility.yul\":21316:21321   */\n      dup4\n        /* \"#utility.yul\":21312:21326   */\n      add\n        /* \"#utility.yul\":21389:21452   */\n      tag_341\n        /* \"#utility.yul\":21439:21451   */\n      dup2\n        /* \"#utility.yul\":21432:21437   */\n      dup6\n        /* \"#utility.yul\":21389:21452   */\n      tag_46\n      jump\t// in\n    tag_341:\n        /* \"#utility.yul\":21466:21578   */\n      tag_342\n        /* \"#utility.yul\":21564:21577   */\n      dup2\n        /* \"#utility.yul\":21549:21562   */\n      dup4\n        /* \"#utility.yul\":21537:21547   */\n      dup7\n        /* \"#utility.yul\":21466:21578   */\n      tag_128\n      jump\t// in\n    tag_342:\n        /* \"#utility.yul\":21234:21589   */\n      pop\n      pop\n      pop\n      pop\n        /* \"#utility.yul\":21642:21643   */\n      0x02\n        /* \"#utility.yul\":21636:21640   */\n      dup2\n        /* \"#utility.yul\":21632:21644   */\n      add\n        /* \"#utility.yul\":21688:21690   */\n      0x40\n        /* \"#utility.yul\":21681:21686   */\n      dup4\n        /* \"#utility.yul\":21677:21691   */\n      add\n        /* \"#utility.yul\":21739:21751   */\n      dup1\n        /* \"#utility.yul\":21782:21824   */\n      tag_343\n        /* \"#utility.yul\":21810:21823   */\n      dup2\n        /* \"#utility.yul\":21782:21824   */\n      tag_129\n      jump\t// in\n    tag_343:\n        /* \"#utility.yul\":21765:21824   */\n      swap1\n      pop\n        /* \"#utility.yul\":21838:21916   */\n      tag_344\n        /* \"#utility.yul\":21902:21915   */\n      dup2\n        /* \"#utility.yul\":21890:21900   */\n      dup5\n        /* \"#utility.yul\":21838:21916   */\n      tag_132\n      jump\t// in\n    tag_344:\n        /* \"#utility.yul\":21599:21927   */\n      pop\n      pop\n      pop\n        /* \"#utility.yul\":21980:21981   */\n      0x03\n        /* \"#utility.yul\":21974:21978   */\n      dup2\n        /* \"#utility.yul\":21970:21982   */\n      add\n        /* \"#utility.yul\":22026:22028   */\n      0x60\n        /* \"#utility.yul\":22019:22024   */\n      dup4\n        /* \"#utility.yul\":22015:22029   */\n      add\n        /* \"#utility.yul\":22077:22089   */\n      dup1\n        /* \"#utility.yul\":22120:22162   */\n      tag_345\n        /* \"#utility.yul\":22148:22161   */\n      dup2\n        /* \"#utility.yul\":22120:22162   */\n      tag_129\n      jump\t// in\n    tag_345:\n        /* \"#utility.yul\":22103:22162   */\n      swap1\n      pop\n        /* \"#utility.yul\":22176:22254   */\n      tag_346\n        /* \"#utility.yul\":22240:22253   */\n      dup2\n        /* \"#utility.yul\":22228:22238   */\n      dup5\n        /* \"#utility.yul\":22176:22254   */\n      tag_132\n      jump\t// in\n    tag_346:\n        /* \"#utility.yul\":21937:22265   */\n      pop\n      pop\n      pop\n        /* \"#utility.yul\":22318:22319   */\n      0x04\n        /* \"#utility.yul\":22312:22316   */\n      dup2\n        /* \"#utility.yul\":22308:22320   */\n      add\n        /* \"#utility.yul\":22364:22367   */\n      0x80\n        /* \"#utility.yul\":22357:22362   */\n      dup4\n        /* \"#utility.yul\":22353:22368   */\n      add\n        /* \"#utility.yul\":22416:22428   */\n      dup1\n        /* \"#utility.yul\":22459:22501   */\n      tag_347\n        /* \"#utility.yul\":22487:22500   */\n      dup2\n        /* \"#utility.yul\":22459:22501   */\n      tag_129\n      jump\t// in\n    tag_347:\n        /* \"#utility.yul\":22442:22501   */\n      swap1\n      pop\n        /* \"#utility.yul\":22515:22593   */\n      tag_348\n        /* \"#utility.yul\":22579:22592   */\n      dup2\n        /* \"#utility.yul\":22567:22577   */\n      dup5\n        /* \"#utility.yul\":22515:22593   */\n      tag_132\n      jump\t// in\n    tag_348:\n        /* \"#utility.yul\":22275:22604   */\n      pop\n      pop\n      pop\n        /* \"#utility.yul\":22657:22658   */\n      0x05\n        /* \"#utility.yul\":22651:22655   */\n      dup2\n        /* \"#utility.yul\":22647:22659   */\n      add\n        /* \"#utility.yul\":22703:22706   */\n      0xa0\n        /* \"#utility.yul\":22696:22701   */\n      dup4\n        /* \"#utility.yul\":22692:22707   */\n      add\n        /* \"#utility.yul\":22770:22833   */\n      tag_349\n        /* \"#utility.yul\":22820:22832   */\n      dup2\n        /* \"#utility.yul\":22813:22818   */\n      dup6\n        /* \"#utility.yul\":22770:22833   */\n      tag_46\n      jump\t// in\n    tag_349:\n        /* \"#utility.yul\":22847:22959   */\n      tag_350\n        /* \"#utility.yul\":22945:22958   */\n      dup2\n        /* \"#utility.yul\":22930:22943   */\n      dup4\n        /* \"#utility.yul\":22918:22928   */\n      dup7\n        /* \"#utility.yul\":22847:22959   */\n      tag_128\n      jump\t// in\n    tag_350:\n        /* \"#utility.yul\":22614:22970   */\n      pop\n      pop\n      pop\n      pop\n        /* \"#utility.yul\":20737:22977   */\n      pop\n      pop\n      jump\t// out\n        /* \"#utility.yul\":22983:23239   */\n    tag_50:\n        /* \"#utility.yul\":23119:23233   */\n      tag_352\n        /* \"#utility.yul\":23225:23232   */\n      dup3\n        /* \"#utility.yul\":23219:23223   */\n      dup3\n        /* \"#utility.yul\":23119:23233   */\n      tag_133\n      jump\t// in\n    tag_352:\n        /* \"#utility.yul\":22983:23239   */\n      pop\n      pop\n      jump\t// out\n\n    auxdata: 0xa264697066735822122085b25ca7e0eaeca80bf00399806c5a62e13b1af459548c3bf765d1e59956d7f664736f6c634300081a0033\n}\n",
				"bytecode": {
					"linkReferences": {},
					"object": "6080604052348015600e575f80fd5b506110258061001c5f395ff3fe608060405234801561000f575f80fd5b506004361061003f575f3560e01c80630de06237146100435780632c233de6146100735780637946bcf41461008f575b5f80fd5b61005d600480360381019061005891906105de565b6100c4565b60405161006a9190610800565b60405180910390f35b61008d60048036038101906100889190610842565b61030d565b005b6100a960048036038101906100a491906109db565b610371565b6040516100bb96959493929190610a8c565b60405180910390f35b60605f83836040516100d7929190610b2e565b9081526020016040518091039020805480602002602001604051908101604052809291908181526020015f905b82821015610301578382905f5260205f2090600602016040518060c00160405290815f8201805461013490610b73565b80601f016020809104026020016040519081016040528092919081815260200182805461016090610b73565b80156101ab5780601f10610182576101008083540402835291602001916101ab565b820191905f5260205f20905b81548152906001019060200180831161018e57829003601f168201915b505050505081526020016001820180546101c490610b73565b80601f01602080910402602001604051908101604052809291908181526020018280546101f090610b73565b801561023b5780601f106102125761010080835404028352916020019161023b565b820191905f5260205f20905b81548152906001019060200180831161021e57829003601f168201915b5050505050815260200160028201548152602001600382015481526020016004820154815260200160058201805461027290610b73565b80601f016020809104026020016040519081016040528092919081815260200182805461029e90610b73565b80156102e95780601f106102c0576101008083540402835291602001916102e9565b820191905f5260205f20905b8154815290600101906020018083116102cc57829003601f168201915b50505050508152505081526020019060010190610104565b50505050905092915050565b5f81805f019061031d9190610baf565b60405161032b929190610b2e565b908152602001604051809103902081908060018154018082558091505060019003905f5260205f2090600602015f90919091909150818161036c9190610fe1565b505050565b5f8280516020810182018051848252602083016020850120818352809550505050505081815481106103a1575f80fd5b905f5260205f2090600602015f9150915050805f0180546103c190610b73565b80601f01602080910402602001604051908101604052809291908181526020018280546103ed90610b73565b80156104385780601f1061040f57610100808354040283529160200191610438565b820191905f5260205f20905b81548152906001019060200180831161041b57829003601f168201915b50505050509080600101805461044d90610b73565b80601f016020809104026020016040519081016040528092919081815260200182805461047990610b73565b80156104c45780601f1061049b576101008083540402835291602001916104c4565b820191905f5260205f20905b8154815290600101906020018083116104a757829003601f168201915b5050505050908060020154908060030154908060040154908060050180546104eb90610b73565b80601f016020809104026020016040519081016040528092919081815260200182805461051790610b73565b80156105625780601f1061053957610100808354040283529160200191610562565b820191905f5260205f20905b81548152906001019060200180831161054557829003601f168201915b5050505050905086565b5f604051905090565b5f80fd5b5f80fd5b5f80fd5b5f80fd5b5f80fd5b5f8083601f84011261059e5761059d61057d565b5b8235905067ffffffffffffffff8111156105bb576105ba610581565b5b6020830191508360018202830111156105d7576105d6610585565b5b9250929050565b5f80602083850312156105f4576105f3610575565b5b5f83013567ffffffffffffffff81111561061157610610610579565b5b61061d85828601610589565b92509250509250929050565b5f81519050919050565b5f82825260208201905092915050565b5f819050602082019050919050565b5f81519050919050565b5f82825260208201905092915050565b8281835e5f83830152505050565b5f601f19601f8301169050919050565b5f61069482610652565b61069e818561065c565b93506106ae81856020860161066c565b6106b78161067a565b840191505092915050565b5f819050919050565b6106d4816106c2565b82525050565b5f60c083015f8301518482035f8601526106f4828261068a565b9150506020830151848203602086015261070e828261068a565b915050604083015161072360408601826106cb565b50606083015161073660608601826106cb565b50608083015161074960808601826106cb565b5060a083015184820360a0860152610761828261068a565b9150508091505092915050565b5f61077983836106da565b905092915050565b5f602082019050919050565b5f61079782610629565b6107a18185610633565b9350836020820285016107b385610643565b805f5b858110156107ee57848403895281516107cf858261076e565b94506107da83610781565b925060208a019950506001810190506107b6565b50829750879550505050505092915050565b5f6020820190508181035f830152610818818461078d565b905092915050565b5f80fd5b5f60c0828403121561083957610838610820565b5b81905092915050565b5f6020828403121561085757610856610575565b5b5f82013567ffffffffffffffff81111561087457610873610579565b5b61088084828501610824565b91505092915050565b5f80fd5b7f4e487b71000000000000000000000000000000000000000000000000000000005f52604160045260245ffd5b6108c38261067a565b810181811067ffffffffffffffff821117156108e2576108e161088d565b5b80604052505050565b5f6108f461056c565b905061090082826108ba565b919050565b5f67ffffffffffffffff82111561091f5761091e61088d565b5b6109288261067a565b9050602081019050919050565b828183375f83830152505050565b5f61095561095084610905565b6108eb565b90508281526020810184848401111561097157610970610889565b5b61097c848285610935565b509392505050565b5f82601f8301126109985761099761057d565b5b81356109a8848260208601610943565b91505092915050565b6109ba816106c2565b81146109c4575f80fd5b50565b5f813590506109d5816109b1565b92915050565b5f80604083850312156109f1576109f0610575565b5b5f83013567ffffffffffffffff811115610a0e57610a0d610579565b5b610a1a85828601610984565b9250506020610a2b858286016109c7565b9150509250929050565b5f82825260208201905092915050565b5f610a4f82610652565b610a598185610a35565b9350610a6981856020860161066c565b610a728161067a565b840191505092915050565b610a86816106c2565b82525050565b5f60c0820190508181035f830152610aa48189610a45565b90508181036020830152610ab88188610a45565b9050610ac76040830187610a7d565b610ad46060830186610a7d565b610ae16080830185610a7d565b81810360a0830152610af38184610a45565b9050979650505050505050565b5f81905092915050565b5f610b158385610b00565b9350610b22838584610935565b82840190509392505050565b5f610b3a828486610b0a565b91508190509392505050565b7f4e487b71000000000000000000000000000000000000000000000000000000005f52602260045260245ffd5b5f6002820490506001821680610b8a57607f821691505b602082108103610b9d57610b9c610b46565b5b50919050565b5f80fd5b5f80fd5b5f80fd5b5f8083356001602003843603038112610bcb57610bca610ba3565b5b80840192508235915067ffffffffffffffff821115610bed57610bec610ba7565b5b602083019250600182023603831315610c0957610c08610bab565b5b509250929050565b5f82905092915050565b5f819050815f5260205f209050919050565b5f6020601f8301049050919050565b5f82821b905092915050565b5f60088302610c777fffffffffffffffffffffffffffffffffffffffffffffffffffffffffffffffff82610c3c565b610c818683610c3c565b95508019841693508086168417925050509392505050565b5f819050919050565b5f610cbc610cb7610cb2846106c2565b610c99565b6106c2565b9050919050565b5f819050919050565b610cd583610ca2565b610ce9610ce182610cc3565b848454610c48565b825550505050565b5f90565b610cfd610cf1565b610d08818484610ccc565b505050565b5b81811015610d2b57610d205f82610cf5565b600181019050610d0e565b5050565b601f821115610d7057610d4181610c1b565b610d4a84610c2d565b81016020851015610d59578190505b610d6d610d6585610c2d565b830182610d0d565b50505b505050565b5f82821c905092915050565b5f610d905f1984600802610d75565b1980831691505092915050565b5f610da88383610d81565b9150826002028217905092915050565b610dc28383610c11565b67ffffffffffffffff811115610ddb57610dda61088d565b5b610de58254610b73565b610df0828285610d2f565b5f601f831160018114610e1d575f8415610e0b578287013590505b610e158582610d9d565b865550610e7c565b601f198416610e2b86610c1b565b5f5b82811015610e5257848901358255600182019150602085019450602081019050610e2d565b86831015610e6f5784890135610e6b601f891682610d81565b8355505b6001600288020188555050505b50505050505050565b610e90838383610db8565b505050565b5f8135610ea1816109b1565b80915050919050565b5f815f1b9050919050565b5f7fffffffffffffffffffffffffffffffffffffffffffffffffffffffffffffffff610ee084610eaa565b9350801983169250808416831791505092915050565b610eff82610ca2565b610f12610f0b82610cc3565b8354610eb5565b8255505050565b5f81015f8301610f298185610baf565b610f34818386610e85565b505050506001810160208301610f4a8185610baf565b610f55818386610e85565b50505050600281016040830180610f6b81610e95565b9050610f778184610ef6565b505050600381016060830180610f8c81610e95565b9050610f988184610ef6565b505050600481016080830180610fad81610e95565b9050610fb98184610ef6565b5050506005810160a08301610fce8185610baf565b610fd9818386610e85565b505050505050565b610feb8282610f19565b505056fea264697066735822122085b25ca7e0eaeca80bf00399806c5a62e13b1af459548c3bf765d1e59956d7f664736f6c634300081a0033",
					"opcodes": "PUSH1 0x80 PUSH1 0x40 MSTORE CALLVALUE DUP1 ISZERO PUSH1 0xE JUMPI PUSH0 DUP1 REVERT JUMPDEST POP PUSH2 0x1025 DUP1 PUSH2 0x1C PUSH0 CODECOPY PUSH0 RETURN INVALID PUSH1 0x80 PUSH1 0x40 MSTORE CALLVALUE DUP1 ISZERO PUSH2 0xF JUMPI PUSH0 DUP1 REVERT JUMPDEST POP PUSH1 0x4 CALLDATASIZE LT PUSH2 0x3F JUMPI PUSH0 CALLDATALOAD PUSH1 0xE0 SHR DUP1 PUSH4 0xDE06237 EQ PUSH2 0x43 JUMPI DUP1 PUSH4 0x2C233DE6 EQ PUSH2 0x73 JUMPI DUP1 PUSH4 0x7946BCF4 EQ PUSH2 0x8F JUMPI JUMPDEST PUSH0 DUP1 REVERT JUMPDEST PUSH2 0x5D PUSH1 0x4 DUP1 CALLDATASIZE SUB DUP2 ADD SWAP1 PUSH2 0x58 SWAP2 SWAP1 PUSH2 0x5DE JUMP JUMPDEST PUSH2 0xC4 JUMP JUMPDEST PUSH1 0x40 MLOAD PUSH2 0x6A SWAP2 SWAP1 PUSH2 0x800 JUMP JUMPDEST PUSH1 0x40 MLOAD DUP1 SWAP2 SUB SWAP1 RETURN JUMPDEST PUSH2 0x8D PUSH1 0x4 DUP1 CALLDATASIZE SUB DUP2 ADD SWAP1 PUSH2 0x88 SWAP2 SWAP1 PUSH2 0x842 JUMP JUMPDEST PUSH2 0x30D JUMP JUMPDEST STOP JUMPDEST PUSH2 0xA9 PUSH1 0x4 DUP1 CALLDATASIZE SUB DUP2 ADD SWAP1 PUSH2 0xA4 SWAP2 SWAP1 PUSH2 0x9DB JUMP JUMPDEST PUSH2 0x371 JUMP JUMPDEST PUSH1 0x40 MLOAD PUSH2 0xBB SWAP7 SWAP6 SWAP5 SWAP4 SWAP3 SWAP2 SWAP1 PUSH2 0xA8C JUMP JUMPDEST PUSH1 0x40 MLOAD DUP1 SWAP2 SUB SWAP1 RETURN JUMPDEST PUSH1 0x60 PUSH0 DUP4 DUP4 PUSH1 0x40 MLOAD PUSH2 0xD7 SWAP3 SWAP2 SWAP1 PUSH2 0xB2E JUMP JUMPDEST SWAP1 DUP2 MSTORE PUSH1 0x20 ADD PUSH1 0x40 MLOAD DUP1 SWAP2 SUB SWAP1 KECCAK256 DUP1 SLOAD DUP1 PUSH1 0x20 MUL PUSH1 0x20 ADD PUSH1 0x40 MLOAD SWAP1 DUP2 ADD PUSH1 0x40 MSTORE DUP1 SWAP3 SWAP2 SWAP1 DUP2 DUP2 MSTORE PUSH1 0x20 ADD PUSH0 SWAP1 JUMPDEST DUP3 DUP3 LT ISZERO PUSH2 0x301 JUMPI DUP4 DUP3 SWAP1 PUSH0 MSTORE PUSH1 0x20 PUSH0 KECCAK256 SWAP1 PUSH1 0x6 MUL ADD PUSH1 0x40 MLOAD DUP1 PUSH1 0xC0 ADD PUSH1 0x40 MSTORE SWAP1 DUP2 PUSH0 DUP3 ADD DUP1 SLOAD PUSH2 0x134 SWAP1 PUSH2 0xB73 JUMP JUMPDEST DUP1 PUSH1 0x1F ADD PUSH1 0x20 DUP1 SWAP2 DIV MUL PUSH1 0x20 ADD PUSH1 0x40 MLOAD SWAP1 DUP2 ADD PUSH1 0x40 MSTORE DUP1 SWAP3 SWAP2 SWAP1 DUP2 DUP2 MSTORE PUSH1 0x20 ADD DUP3 DUP1 SLOAD PUSH2 0x160 SWAP1 PUSH2 0xB73 JUMP JUMPDEST DUP1 ISZERO PUSH2 0x1AB JUMPI DUP1 PUSH1 0x1F LT PUSH2 0x182 JUMPI PUSH2 0x100 DUP1 DUP4 SLOAD DIV MUL DUP4 MSTORE SWAP2 PUSH1 0x20 ADD SWAP2 PUSH2 0x1AB JUMP JUMPDEST DUP3 ADD SWAP2 SWAP1 PUSH0 MSTORE PUSH1 0x20 PUSH0 KECCAK256 SWAP1 JUMPDEST DUP2 SLOAD DUP2 MSTORE SWAP1 PUSH1 0x1 ADD SWAP1 PUSH1 0x20 ADD DUP1 DUP4 GT PUSH2 0x18E JUMPI DUP3 SWAP1 SUB PUSH1 0x1F AND DUP3 ADD SWAP2 JUMPDEST POP POP POP POP POP DUP2 MSTORE PUSH1 0x20 ADD PUSH1 0x1 DUP3 ADD DUP1 SLOAD PUSH2 0x1C4 SWAP1 PUSH2 0xB73 JUMP JUMPDEST DUP1 PUSH1 0x1F ADD PUSH1 0x20 DUP1 SWAP2 DIV MUL PUSH1 0x20 ADD PUSH1 0x40 MLOAD SWAP1 DUP2 ADD PUSH1 0x40 MSTORE DUP1 SWAP3 SWAP2 SWAP1 DUP2 DUP2 MSTORE PUSH1 0x20 ADD DUP3 DUP1 SLOAD PUSH2 0x1F0 SWAP1 PUSH2 0xB73 JUMP JUMPDEST DUP1 ISZERO PUSH2 0x23B JUMPI DUP1 PUSH1 0x1F LT PUSH2 0x212 JUMPI PUSH2 0x100 DUP1 DUP4 SLOAD DIV MUL DUP4 MSTORE SWAP2 PUSH1 0x20 ADD SWAP2 PUSH2 0x23B JUMP JUMPDEST DUP3 ADD SWAP2 SWAP1 PUSH0 MSTORE PUSH1 0x20 PUSH0 KECCAK256 SWAP1 JUMPDEST DUP2 SLOAD DUP2 MSTORE SWAP1 PUSH1 0x1 ADD SWAP1 PUSH1 0x20 ADD DUP1 DUP4 GT PUSH2 0x21E JUMPI DUP3 SWAP1 SUB PUSH1 0x1F AND DUP3 ADD SWAP2 JUMPDEST POP POP POP POP POP DUP2 MSTORE PUSH1 0x20 ADD PUSH1 0x2 DUP3 ADD SLOAD DUP2 MSTORE PUSH1 0x20 ADD PUSH1 0x3 DUP3 ADD SLOAD DUP2 MSTORE PUSH1 0x20 ADD PUSH1 0x4 DUP3 ADD SLOAD DUP2 MSTORE PUSH1 0x20 ADD PUSH1 0x5 DUP3 ADD DUP1 SLOAD PUSH2 0x272 SWAP1 PUSH2 0xB73 JUMP JUMPDEST DUP1 PUSH1 0x1F ADD PUSH1 0x20 DUP1 SWAP2 DIV MUL PUSH1 0x20 ADD PUSH1 0x40 MLOAD SWAP1 DUP2 ADD PUSH1 0x40 MSTORE DUP1 SWAP3 SWAP2 SWAP1 DUP2 DUP2 MSTORE PUSH1 0x20 ADD DUP3 DUP1 SLOAD PUSH2 0x29E SWAP1 PUSH2 0xB73 JUMP JUMPDEST DUP1 ISZERO PUSH2 0x2E9 JUMPI DUP1 PUSH1 0x1F LT PUSH2 0x2C0 JUMPI PUSH2 0x100 DUP1 DUP4 SLOAD DIV MUL DUP4 MSTORE SWAP2 PUSH1 0x20 ADD SWAP2 PUSH2 0x2E9 JUMP JUMPDEST DUP3 ADD SWAP2 SWAP1 PUSH0 MSTORE PUSH1 0x20 PUSH0 KECCAK256 SWAP1 JUMPDEST DUP2 SLOAD DUP2 MSTORE SWAP1 PUSH1 0x1 ADD SWAP1 PUSH1 0x20 ADD DUP1 DUP4 GT PUSH2 0x2CC JUMPI DUP3 SWAP1 SUB PUSH1 0x1F AND DUP3 ADD SWAP2 JUMPDEST POP POP POP POP POP DUP2 MSTORE POP POP DUP2 MSTORE PUSH1 0x20 ADD SWAP1 PUSH1 0x1 ADD SWAP1 PUSH2 0x104 JUMP JUMPDEST POP POP POP POP SWAP1 POP SWAP3 SWAP2 POP POP JUMP JUMPDEST PUSH0 DUP2 DUP1 PUSH0 ADD SWAP1 PUSH2 0x31D SWAP2 SWAP1 PUSH2 0xBAF JUMP JUMPDEST PUSH1 0x40 MLOAD PUSH2 0x32B SWAP3 SWAP2 SWAP1 PUSH2 0xB2E JUMP JUMPDEST SWAP1 DUP2 MSTORE PUSH1 0x20 ADD PUSH1 0x40 MLOAD DUP1 SWAP2 SUB SWAP1 KECCAK256 DUP2 SWAP1 DUP1 PUSH1 0x1 DUP2 SLOAD ADD DUP1 DUP3 SSTORE DUP1 SWAP2 POP POP PUSH1 0x1 SWAP1 SUB SWAP1 PUSH0 MSTORE PUSH1 0x20 PUSH0 KECCAK256 SWAP1 PUSH1 0x6 MUL ADD PUSH0 SWAP1 SWAP2 SWAP1 SWAP2 SWAP1 SWAP2 POP DUP2 DUP2 PUSH2 0x36C SWAP2 SWAP1 PUSH2 0xFE1 JUMP JUMPDEST POP POP POP JUMP JUMPDEST PUSH0 DUP3 DUP1 MLOAD PUSH1 0x20 DUP2 ADD DUP3 ADD DUP1 MLOAD DUP5 DUP3 MSTORE PUSH1 0x20 DUP4 ADD PUSH1 0x20 DUP6 ADD KECCAK256 DUP2 DUP4 MSTORE DUP1 SWAP6 POP POP POP POP POP POP DUP2 DUP2 SLOAD DUP2 LT PUSH2 0x3A1 JUMPI PUSH0 DUP1 REVERT JUMPDEST SWAP1 PUSH0 MSTORE PUSH1 0x20 PUSH0 KECCAK256 SWAP1 PUSH1 0x6 MUL ADD PUSH0 SWAP2 POP SWAP2 POP POP DUP1 PUSH0 ADD DUP1 SLOAD PUSH2 0x3C1 SWAP1 PUSH2 0xB73 JUMP JUMPDEST DUP1 PUSH1 0x1F ADD PUSH1 0x20 DUP1 SWAP2 DIV MUL PUSH1 0x20 ADD PUSH1 0x40 MLOAD SWAP1 DUP2 ADD PUSH1 0x40 MSTORE DUP1 SWAP3 SWAP2 SWAP1 DUP2 DUP2 MSTORE PUSH1 0x20 ADD DUP3 DUP1 SLOAD PUSH2 0x3ED SWAP1 PUSH2 0xB73 JUMP JUMPDEST DUP1 ISZERO PUSH2 0x438 JUMPI DUP1 PUSH1 0x1F LT PUSH2 0x40F JUMPI PUSH2 0x100 DUP1 DUP4 SLOAD DIV MUL DUP4 MSTORE SWAP2 PUSH1 0x20 ADD SWAP2 PUSH2 0x438 JUMP JUMPDEST DUP3 ADD SWAP2 SWAP1 PUSH0 MSTORE PUSH1 0x20 PUSH0 KECCAK256 SWAP1 JUMPDEST DUP2 SLOAD DUP2 MSTORE SWAP1 PUSH1 0x1 ADD SWAP1 PUSH1 0x20 ADD DUP1 DUP4 GT PUSH2 0x41B JUMPI DUP3 SWAP1 SUB PUSH1 0x1F AND DUP3 ADD SWAP2 JUMPDEST POP POP POP POP POP SWAP1 DUP1 PUSH1 0x1 ADD DUP1 SLOAD PUSH2 0x44D SWAP1 PUSH2 0xB73 JUMP JUMPDEST DUP1 PUSH1 0x1F ADD PUSH1 0x20 DUP1 SWAP2 DIV MUL PUSH1 0x20 ADD PUSH1 0x40 MLOAD SWAP1 DUP2 ADD PUSH1 0x40 MSTORE DUP1 SWAP3 SWAP2 SWAP1 DUP2 DUP2 MSTORE PUSH1 0x20 ADD DUP3 DUP1 SLOAD PUSH2 0x479 SWAP1 PUSH2 0xB73 JUMP JUMPDEST DUP1 ISZERO PUSH2 0x4C4 JUMPI DUP1 PUSH1 0x1F LT PUSH2 0x49B JUMPI PUSH2 0x100 DUP1 DUP4 SLOAD DIV MUL DUP4 MSTORE SWAP2 PUSH1 0x20 ADD SWAP2 PUSH2 0x4C4 JUMP JUMPDEST DUP3 ADD SWAP2 SWAP1 PUSH0 MSTORE PUSH1 0x20 PUSH0 KECCAK256 SWAP1 JUMPDEST DUP2 SLOAD DUP2 MSTORE SWAP1 PUSH1 0x1 ADD SWAP1 PUSH1 0x20 ADD DUP1 DUP4 GT PUSH2 0x4A7 JUMPI DUP3 SWAP1 SUB PUSH1 0x1F AND DUP3 ADD SWAP2 JUMPDEST POP POP POP POP POP SWAP1 DUP1 PUSH1 0x2 ADD SLOAD SWAP1 DUP1 PUSH1 0x3 ADD SLOAD SWAP1 DUP1 PUSH1 0x4 ADD SLOAD SWAP1 DUP1 PUSH1 0x5 ADD DUP1 SLOAD PUSH2 0x4EB SWAP1 PUSH2 0xB73 JUMP JUMPDEST DUP1 PUSH1 0x1F ADD PUSH1 0x20 DUP1 SWAP2 DIV MUL PUSH1 0x20 ADD PUSH1 0x40 MLOAD SWAP1 DUP2 ADD PUSH1 0x40 MSTORE DUP1 SWAP3 SWAP2 SWAP1 DUP2 DUP2 MSTORE PUSH1 0x20 ADD DUP3 DUP1 SLOAD PUSH2 0x517 SWAP1 PUSH2 0xB73 JUMP JUMPDEST DUP1 ISZERO PUSH2 0x562 JUMPI DUP1 PUSH1 0x1F LT PUSH2 0x539 JUMPI PUSH2 0x100 DUP1 DUP4 SLOAD DIV MUL DUP4 MSTORE SWAP2 PUSH1 0x20 ADD SWAP2 PUSH2 0x562 JUMP JUMPDEST DUP3 ADD SWAP2 SWAP1 PUSH0 MSTORE PUSH1 0x20 PUSH0 KECCAK256 SWAP1 JUMPDEST DUP2 SLOAD DUP2 MSTORE SWAP1 PUSH1 0x1 ADD SWAP1 PUSH1 0x20 ADD DUP1 DUP4 GT PUSH2 0x545 JUMPI DUP3 SWAP1 SUB PUSH1 0x1F AND DUP3 ADD SWAP2 JUMPDEST POP POP POP POP POP SWAP1 POP DUP7 JUMP JUMPDEST PUSH0 PUSH1 0x40 MLOAD SWAP1 POP SWAP1 JUMP JUMPDEST PUSH0 DUP1 REVERT JUMPDEST PUSH0 DUP1 REVERT JUMPDEST PUSH0 DUP1 REVERT JUMPDEST PUSH0 DUP1 REVERT JUMPDEST PUSH0 DUP1 REVERT JUMPDEST PUSH0 DUP1 DUP4 PUSH1 0x1F DUP5 ADD SLT PUSH2 0x59E JUMPI PUSH2 0x59D PUSH2 0x57D JUMP JUMPDEST JUMPDEST DUP3 CALLDATALOAD SWAP1 POP PUSH8 0xFFFFFFFFFFFFFFFF DUP2 GT ISZERO PUSH2 0x5BB JUMPI PUSH2 0x5BA PUSH2 0x581 JUMP JUMPDEST JUMPDEST PUSH1 0x20 DUP4 ADD SWAP2 POP DUP4 PUSH1 0x1 DUP3 MUL DUP4 ADD GT ISZERO PUSH2 0x5D7 JUMPI PUSH2 0x5D6 PUSH2 0x585 JUMP JUMPDEST JUMPDEST SWAP3 POP SWAP3 SWAP1 POP JUMP JUMPDEST PUSH0 DUP1 PUSH1 0x20 DUP4 DUP6 SUB SLT ISZERO PUSH2 0x5F4 JUMPI PUSH2 0x5F3 PUSH2 0x575 JUMP JUMPDEST JUMPDEST PUSH0 DUP4 ADD CALLDATALOAD PUSH8 0xFFFFFFFFFFFFFFFF DUP2 GT ISZERO PUSH2 0x611 JUMPI PUSH2 0x610 PUSH2 0x579 JUMP JUMPDEST JUMPDEST PUSH2 0x61D DUP6 DUP3 DUP7 ADD PUSH2 0x589 JUMP JUMPDEST SWAP3 POP SWAP3 POP POP SWAP3 POP SWAP3 SWAP1 POP JUMP JUMPDEST PUSH0 DUP2 MLOAD SWAP1 POP SWAP2 SWAP1 POP JUMP JUMPDEST PUSH0 DUP3 DUP3 MSTORE PUSH1 0x20 DUP3 ADD SWAP1 POP SWAP3 SWAP2 POP POP JUMP JUMPDEST PUSH0 DUP2 SWAP1 POP PUSH1 0x20 DUP3 ADD SWAP1 POP SWAP2 SWAP1 POP JUMP JUMPDEST PUSH0 DUP2 MLOAD SWAP1 POP SWAP2 SWAP1 POP JUMP JUMPDEST PUSH0 DUP3 DUP3 MSTORE PUSH1 0x20 DUP3 ADD SWAP1 POP SWAP3 SWAP2 POP POP JUMP JUMPDEST DUP3 DUP2 DUP4 MCOPY PUSH0 DUP4 DUP4 ADD MSTORE POP POP POP JUMP JUMPDEST PUSH0 PUSH1 0x1F NOT PUSH1 0x1F DUP4 ADD AND SWAP1 POP SWAP2 SWAP1 POP JUMP JUMPDEST PUSH0 PUSH2 0x694 DUP3 PUSH2 0x652 JUMP JUMPDEST PUSH2 0x69E DUP2 DUP6 PUSH2 0x65C JUMP JUMPDEST SWAP4 POP PUSH2 0x6AE DUP2 DUP6 PUSH1 0x20 DUP7 ADD PUSH2 0x66C JUMP JUMPDEST PUSH2 0x6B7 DUP2 PUSH2 0x67A JUMP JUMPDEST DUP5 ADD SWAP2 POP POP SWAP3 SWAP2 POP POP JUMP JUMPDEST PUSH0 DUP2 SWAP1 POP SWAP2 SWAP1 POP JUMP JUMPDEST PUSH2 0x6D4 DUP2 PUSH2 0x6C2 JUMP JUMPDEST DUP3 MSTORE POP POP JUMP JUMPDEST PUSH0 PUSH1 0xC0 DUP4 ADD PUSH0 DUP4 ADD MLOAD DUP5 DUP3 SUB PUSH0 DUP7 ADD MSTORE PUSH2 0x6F4 DUP3 DUP3 PUSH2 0x68A JUMP JUMPDEST SWAP2 POP POP PUSH1 0x20 DUP4 ADD MLOAD DUP5 DUP3 SUB PUSH1 0x20 DUP7 ADD MSTORE PUSH2 0x70E DUP3 DUP3 PUSH2 0x68A JUMP JUMPDEST SWAP2 POP POP PUSH1 0x40 DUP4 ADD MLOAD PUSH2 0x723 PUSH1 0x40 DUP7 ADD DUP3 PUSH2 0x6CB JUMP JUMPDEST POP PUSH1 0x60 DUP4 ADD MLOAD PUSH2 0x736 PUSH1 0x60 DUP7 ADD DUP3 PUSH2 0x6CB JUMP JUMPDEST POP PUSH1 0x80 DUP4 ADD MLOAD PUSH2 0x749 PUSH1 0x80 DUP7 ADD DUP3 PUSH2 0x6CB JUMP JUMPDEST POP PUSH1 0xA0 DUP4 ADD MLOAD DUP5 DUP3 SUB PUSH1 0xA0 DUP7 ADD MSTORE PUSH2 0x761 DUP3 DUP3 PUSH2 0x68A JUMP JUMPDEST SWAP2 POP POP DUP1 SWAP2 POP POP SWAP3 SWAP2 POP POP JUMP JUMPDEST PUSH0 PUSH2 0x779 DUP4 DUP4 PUSH2 0x6DA JUMP JUMPDEST SWAP1 POP SWAP3 SWAP2 POP POP JUMP JUMPDEST PUSH0 PUSH1 0x20 DUP3 ADD SWAP1 POP SWAP2 SWAP1 POP JUMP JUMPDEST PUSH0 PUSH2 0x797 DUP3 PUSH2 0x629 JUMP JUMPDEST PUSH2 0x7A1 DUP2 DUP6 PUSH2 0x633 JUMP JUMPDEST SWAP4 POP DUP4 PUSH1 0x20 DUP3 MUL DUP6 ADD PUSH2 0x7B3 DUP6 PUSH2 0x643 JUMP JUMPDEST DUP1 PUSH0 JUMPDEST DUP6 DUP2 LT ISZERO PUSH2 0x7EE JUMPI DUP5 DUP5 SUB DUP10 MSTORE DUP2 MLOAD PUSH2 0x7CF DUP6 DUP3 PUSH2 0x76E JUMP JUMPDEST SWAP5 POP PUSH2 0x7DA DUP4 PUSH2 0x781 JUMP JUMPDEST SWAP3 POP PUSH1 0x20 DUP11 ADD SWAP10 POP POP PUSH1 0x1 DUP2 ADD SWAP1 POP PUSH2 0x7B6 JUMP JUMPDEST POP DUP3 SWAP8 POP DUP8 SWAP6 POP POP POP POP POP POP SWAP3 SWAP2 POP POP JUMP JUMPDEST PUSH0 PUSH1 0x20 DUP3 ADD SWAP1 POP DUP2 DUP2 SUB PUSH0 DUP4 ADD MSTORE PUSH2 0x818 DUP2 DUP5 PUSH2 0x78D JUMP JUMPDEST SWAP1 POP SWAP3 SWAP2 POP POP JUMP JUMPDEST PUSH0 DUP1 REVERT JUMPDEST PUSH0 PUSH1 0xC0 DUP3 DUP5 SUB SLT ISZERO PUSH2 0x839 JUMPI PUSH2 0x838 PUSH2 0x820 JUMP JUMPDEST JUMPDEST DUP2 SWAP1 POP SWAP3 SWAP2 POP POP JUMP JUMPDEST PUSH0 PUSH1 0x20 DUP3 DUP5 SUB SLT ISZERO PUSH2 0x857 JUMPI PUSH2 0x856 PUSH2 0x575 JUMP JUMPDEST JUMPDEST PUSH0 DUP3 ADD CALLDATALOAD PUSH8 0xFFFFFFFFFFFFFFFF DUP2 GT ISZERO PUSH2 0x874 JUMPI PUSH2 0x873 PUSH2 0x579 JUMP JUMPDEST JUMPDEST PUSH2 0x880 DUP5 DUP3 DUP6 ADD PUSH2 0x824 JUMP JUMPDEST SWAP2 POP POP SWAP3 SWAP2 POP POP JUMP JUMPDEST PUSH0 DUP1 REVERT JUMPDEST PUSH32 0x4E487B7100000000000000000000000000000000000000000000000000000000 PUSH0 MSTORE PUSH1 0x41 PUSH1 0x4 MSTORE PUSH1 0x24 PUSH0 REVERT JUMPDEST PUSH2 0x8C3 DUP3 PUSH2 0x67A JUMP JUMPDEST DUP2 ADD DUP2 DUP2 LT PUSH8 0xFFFFFFFFFFFFFFFF DUP3 GT OR ISZERO PUSH2 0x8E2 JUMPI PUSH2 0x8E1 PUSH2 0x88D JUMP JUMPDEST JUMPDEST DUP1 PUSH1 0x40 MSTORE POP POP POP JUMP JUMPDEST PUSH0 PUSH2 0x8F4 PUSH2 0x56C JUMP JUMPDEST SWAP1 POP PUSH2 0x900 DUP3 DUP3 PUSH2 0x8BA JUMP JUMPDEST SWAP2 SWAP1 POP JUMP JUMPDEST PUSH0 PUSH8 0xFFFFFFFFFFFFFFFF DUP3 GT ISZERO PUSH2 0x91F JUMPI PUSH2 0x91E PUSH2 0x88D JUMP JUMPDEST JUMPDEST PUSH2 0x928 DUP3 PUSH2 0x67A JUMP JUMPDEST SWAP1 POP PUSH1 0x20 DUP2 ADD SWAP1 POP SWAP2 SWAP1 POP JUMP JUMPDEST DUP3 DUP2 DUP4 CALLDATACOPY PUSH0 DUP4 DUP4 ADD MSTORE POP POP POP JUMP JUMPDEST PUSH0 PUSH2 0x955 PUSH2 0x950 DUP5 PUSH2 0x905 JUMP JUMPDEST PUSH2 0x8EB JUMP JUMPDEST SWAP1 POP DUP3 DUP2 MSTORE PUSH1 0x20 DUP2 ADD DUP5 DUP5 DUP5 ADD GT ISZERO PUSH2 0x971 JUMPI PUSH2 0x970 PUSH2 0x889 JUMP JUMPDEST JUMPDEST PUSH2 0x97C DUP5 DUP3 DUP6 PUSH2 0x935 JUMP JUMPDEST POP SWAP4 SWAP3 POP POP POP JUMP JUMPDEST PUSH0 DUP3 PUSH1 0x1F DUP4 ADD SLT PUSH2 0x998 JUMPI PUSH2 0x997 PUSH2 0x57D JUMP JUMPDEST JUMPDEST DUP2 CALLDATALOAD PUSH2 0x9A8 DUP5 DUP3 PUSH1 0x20 DUP7 ADD PUSH2 0x943 JUMP JUMPDEST SWAP2 POP POP SWAP3 SWAP2 POP POP JUMP JUMPDEST PUSH2 0x9BA DUP2 PUSH2 0x6C2 JUMP JUMPDEST DUP2 EQ PUSH2 0x9C4 JUMPI PUSH0 DUP1 REVERT JUMPDEST POP JUMP JUMPDEST PUSH0 DUP2 CALLDATALOAD SWAP1 POP PUSH2 0x9D5 DUP2 PUSH2 0x9B1 JUMP JUMPDEST SWAP3 SWAP2 POP POP JUMP JUMPDEST PUSH0 DUP1 PUSH1 0x40 DUP4 DUP6 SUB SLT ISZERO PUSH2 0x9F1 JUMPI PUSH2 0x9F0 PUSH2 0x575 JUMP JUMPDEST JUMPDEST PUSH0 DUP4 ADD CALLDATALOAD PUSH8 0xFFFFFFFFFFFFFFFF DUP2 GT ISZERO PUSH2 0xA0E JUMPI PUSH2 0xA0D PUSH2 0x579 JUMP JUMPDEST JUMPDEST PUSH2 0xA1A DUP6 DUP3 DUP7 ADD PUSH2 0x984 JUMP JUMPDEST SWAP3 POP POP PUSH1 0x20 PUSH2 0xA2B DUP6 DUP3 DUP7 ADD PUSH2 0x9C7 JUMP JUMPDEST SWAP2 POP POP SWAP3 POP SWAP3 SWAP1 POP JUMP JUMPDEST PUSH0 DUP3 DUP3 MSTORE PUSH1 0x20 DUP3 ADD SWAP1 POP SWAP3 SWAP2 POP POP JUMP JUMPDEST PUSH0 PUSH2 0xA4F DUP3 PUSH2 0x652 JUMP JUMPDEST PUSH2 0xA59 DUP2 DUP6 PUSH2 0xA35 JUMP JUMPDEST SWAP4 POP PUSH2 0xA69 DUP2 DUP6 PUSH1 0x20 DUP7 ADD PUSH2 0x66C JUMP JUMPDEST PUSH2 0xA72 DUP2 PUSH2 0x67A JUMP JUMPDEST DUP5 ADD SWAP2 POP POP SWAP3 SWAP2 POP POP JUMP JUMPDEST PUSH2 0xA86 DUP2 PUSH2 0x6C2 JUMP JUMPDEST DUP3 MSTORE POP POP JUMP JUMPDEST PUSH0 PUSH1 0xC0 DUP3 ADD SWAP1 POP DUP2 DUP2 SUB PUSH0 DUP4 ADD MSTORE PUSH2 0xAA4 DUP2 DUP10 PUSH2 0xA45 JUMP JUMPDEST SWAP1 POP DUP2 DUP2 SUB PUSH1 0x20 DUP4 ADD MSTORE PUSH2 0xAB8 DUP2 DUP9 PUSH2 0xA45 JUMP JUMPDEST SWAP1 POP PUSH2 0xAC7 PUSH1 0x40 DUP4 ADD DUP8 PUSH2 0xA7D JUMP JUMPDEST PUSH2 0xAD4 PUSH1 0x60 DUP4 ADD DUP7 PUSH2 0xA7D JUMP JUMPDEST PUSH2 0xAE1 PUSH1 0x80 DUP4 ADD DUP6 PUSH2 0xA7D JUMP JUMPDEST DUP2 DUP2 SUB PUSH1 0xA0 DUP4 ADD MSTORE PUSH2 0xAF3 DUP2 DUP5 PUSH2 0xA45 JUMP JUMPDEST SWAP1 POP SWAP8 SWAP7 POP POP POP POP POP POP POP JUMP JUMPDEST PUSH0 DUP2 SWAP1 POP SWAP3 SWAP2 POP POP JUMP JUMPDEST PUSH0 PUSH2 0xB15 DUP4 DUP6 PUSH2 0xB00 JUMP JUMPDEST SWAP4 POP PUSH2 0xB22 DUP4 DUP6 DUP5 PUSH2 0x935 JUMP JUMPDEST DUP3 DUP5 ADD SWAP1 POP SWAP4 SWAP3 POP POP POP JUMP JUMPDEST PUSH0 PUSH2 0xB3A DUP3 DUP5 DUP7 PUSH2 0xB0A JUMP JUMPDEST SWAP2 POP DUP2 SWAP1 POP SWAP4 SWAP3 POP POP POP JUMP JUMPDEST PUSH32 0x4E487B7100000000000000000000000000000000000000000000000000000000 PUSH0 MSTORE PUSH1 0x22 PUSH1 0x4 MSTORE PUSH1 0x24 PUSH0 REVERT JUMPDEST PUSH0 PUSH1 0x2 DUP3 DIV SWAP1 POP PUSH1 0x1 DUP3 AND DUP1 PUSH2 0xB8A JUMPI PUSH1 0x7F DUP3 AND SWAP2 POP JUMPDEST PUSH1 0x20 DUP3 LT DUP2 SUB PUSH2 0xB9D JUMPI PUSH2 0xB9C PUSH2 0xB46 JUMP JUMPDEST JUMPDEST POP SWAP2 SWAP1 POP JUMP JUMPDEST PUSH0 DUP1 REVERT JUMPDEST PUSH0 DUP1 REVERT JUMPDEST PUSH0 DUP1 REVERT JUMPDEST PUSH0 DUP1 DUP4 CALLDATALOAD PUSH1 0x1 PUSH1 0x20 SUB DUP5 CALLDATASIZE SUB SUB DUP2 SLT PUSH2 0xBCB JUMPI PUSH2 0xBCA PUSH2 0xBA3 JUMP JUMPDEST JUMPDEST DUP1 DUP5 ADD SWAP3 POP DUP3 CALLDATALOAD SWAP2 POP PUSH8 0xFFFFFFFFFFFFFFFF DUP3 GT ISZERO PUSH2 0xBED JUMPI PUSH2 0xBEC PUSH2 0xBA7 JUMP JUMPDEST JUMPDEST PUSH1 0x20 DUP4 ADD SWAP3 POP PUSH1 0x1 DUP3 MUL CALLDATASIZE SUB DUP4 SGT ISZERO PUSH2 0xC09 JUMPI PUSH2 0xC08 PUSH2 0xBAB JUMP JUMPDEST JUMPDEST POP SWAP3 POP SWAP3 SWAP1 POP JUMP JUMPDEST PUSH0 DUP3 SWAP1 POP SWAP3 SWAP2 POP POP JUMP JUMPDEST PUSH0 DUP2 SWAP1 POP DUP2 PUSH0 MSTORE PUSH1 0x20 PUSH0 KECCAK256 SWAP1 POP SWAP2 SWAP1 POP JUMP JUMPDEST PUSH0 PUSH1 0x20 PUSH1 0x1F DUP4 ADD DIV SWAP1 POP SWAP2 SWAP1 POP JUMP JUMPDEST PUSH0 DUP3 DUP3 SHL SWAP1 POP SWAP3 SWAP2 POP POP JUMP JUMPDEST PUSH0 PUSH1 0x8 DUP4 MUL PUSH2 0xC77 PUSH32 0xFFFFFFFFFFFFFFFFFFFFFFFFFFFFFFFFFFFFFFFFFFFFFFFFFFFFFFFFFFFFFFFF DUP3 PUSH2 0xC3C JUMP JUMPDEST PUSH2 0xC81 DUP7 DUP4 PUSH2 0xC3C JUMP JUMPDEST SWAP6 POP DUP1 NOT DUP5 AND SWAP4 POP DUP1 DUP7 AND DUP5 OR SWAP3 POP POP POP SWAP4 SWAP3 POP POP POP JUMP JUMPDEST PUSH0 DUP2 SWAP1 POP SWAP2 SWAP1 POP JUMP JUMPDEST PUSH0 PUSH2 0xCBC PUSH2 0xCB7 PUSH2 0xCB2 DUP5 PUSH2 0x6C2 JUMP JUMPDEST PUSH2 0xC99 JUMP JUMPDEST PUSH2 0x6C2 JUMP JUMPDEST SWAP1 POP SWAP2 SWAP1 POP JUMP JUMPDEST PUSH0 DUP2 SWAP1 POP SWAP2 SWAP1 POP JUMP JUMPDEST PUSH2 0xCD5 DUP4 PUSH2 0xCA2 JUMP JUMPDEST PUSH2 0xCE9 PUSH2 0xCE1 DUP3 PUSH2 0xCC3 JUMP JUMPDEST DUP5 DUP5 SLOAD PUSH2 0xC48 JUMP JUMPDEST DUP3 SSTORE POP POP POP POP JUMP JUMPDEST PUSH0 SWAP1 JUMP JUMPDEST PUSH2 0xCFD PUSH2 0xCF1 JUMP JUMPDEST PUSH2 0xD08 DUP2 DUP5 DUP5 PUSH2 0xCCC JUMP JUMPDEST POP POP POP JUMP JUMPDEST JUMPDEST DUP2 DUP2 LT ISZERO PUSH2 0xD2B JUMPI PUSH2 0xD20 PUSH0 DUP3 PUSH2 0xCF5 JUMP JUMPDEST PUSH1 0x1 DUP2 ADD SWAP1 POP PUSH2 0xD0E JUMP JUMPDEST POP POP JUMP JUMPDEST PUSH1 0x1F DUP3 GT ISZERO PUSH2 0xD70 JUMPI PUSH2 0xD41 DUP2 PUSH2 0xC1B JUMP JUMPDEST PUSH2 0xD4A DUP5 PUSH2 0xC2D JUMP JUMPDEST DUP2 ADD PUSH1 0x20 DUP6 LT ISZERO PUSH2 0xD59 JUMPI DUP2 SWAP1 POP JUMPDEST PUSH2 0xD6D PUSH2 0xD65 DUP6 PUSH2 0xC2D JUMP JUMPDEST DUP4 ADD DUP3 PUSH2 0xD0D JUMP JUMPDEST POP POP JUMPDEST POP POP POP JUMP JUMPDEST PUSH0 DUP3 DUP3 SHR SWAP1 POP SWAP3 SWAP2 POP POP JUMP JUMPDEST PUSH0 PUSH2 0xD90 PUSH0 NOT DUP5 PUSH1 0x8 MUL PUSH2 0xD75 JUMP JUMPDEST NOT DUP1 DUP4 AND SWAP2 POP POP SWAP3 SWAP2 POP POP JUMP JUMPDEST PUSH0 PUSH2 0xDA8 DUP4 DUP4 PUSH2 0xD81 JUMP JUMPDEST SWAP2 POP DUP3 PUSH1 0x2 MUL DUP3 OR SWAP1 POP SWAP3 SWAP2 POP POP JUMP JUMPDEST PUSH2 0xDC2 DUP4 DUP4 PUSH2 0xC11 JUMP JUMPDEST PUSH8 0xFFFFFFFFFFFFFFFF DUP2 GT ISZERO PUSH2 0xDDB JUMPI PUSH2 0xDDA PUSH2 0x88D JUMP JUMPDEST JUMPDEST PUSH2 0xDE5 DUP3 SLOAD PUSH2 0xB73 JUMP JUMPDEST PUSH2 0xDF0 DUP3 DUP3 DUP6 PUSH2 0xD2F JUMP JUMPDEST PUSH0 PUSH1 0x1F DUP4 GT PUSH1 0x1 DUP2 EQ PUSH2 0xE1D JUMPI PUSH0 DUP5 ISZERO PUSH2 0xE0B JUMPI DUP3 DUP8 ADD CALLDATALOAD SWAP1 POP JUMPDEST PUSH2 0xE15 DUP6 DUP3 PUSH2 0xD9D JUMP JUMPDEST DUP7 SSTORE POP PUSH2 0xE7C JUMP JUMPDEST PUSH1 0x1F NOT DUP5 AND PUSH2 0xE2B DUP7 PUSH2 0xC1B JUMP JUMPDEST PUSH0 JUMPDEST DUP3 DUP2 LT ISZERO PUSH2 0xE52 JUMPI DUP5 DUP10 ADD CALLDATALOAD DUP3 SSTORE PUSH1 0x1 DUP3 ADD SWAP2 POP PUSH1 0x20 DUP6 ADD SWAP5 POP PUSH1 0x20 DUP2 ADD SWAP1 POP PUSH2 0xE2D JUMP JUMPDEST DUP7 DUP4 LT ISZERO PUSH2 0xE6F JUMPI DUP5 DUP10 ADD CALLDATALOAD PUSH2 0xE6B PUSH1 0x1F DUP10 AND DUP3 PUSH2 0xD81 JUMP JUMPDEST DUP4 SSTORE POP JUMPDEST PUSH1 0x1 PUSH1 0x2 DUP9 MUL ADD DUP9 SSTORE POP POP POP JUMPDEST POP POP POP POP POP POP POP JUMP JUMPDEST PUSH2 0xE90 DUP4 DUP4 DUP4 PUSH2 0xDB8 JUMP JUMPDEST POP POP POP JUMP JUMPDEST PUSH0 DUP2 CALLDATALOAD PUSH2 0xEA1 DUP2 PUSH2 0x9B1 JUMP JUMPDEST DUP1 SWAP2 POP POP SWAP2 SWAP1 POP JUMP JUMPDEST PUSH0 DUP2 PUSH0 SHL SWAP1 POP SWAP2 SWAP1 POP JUMP JUMPDEST PUSH0 PUSH32 0xFFFFFFFFFFFFFFFFFFFFFFFFFFFFFFFFFFFFFFFFFFFFFFFFFFFFFFFFFFFFFFFF PUSH2 0xEE0 DUP5 PUSH2 0xEAA JUMP JUMPDEST SWAP4 POP DUP1 NOT DUP4 AND SWAP3 POP DUP1 DUP5 AND DUP4 OR SWAP2 POP POP SWAP3 SWAP2 POP POP JUMP JUMPDEST PUSH2 0xEFF DUP3 PUSH2 0xCA2 JUMP JUMPDEST PUSH2 0xF12 PUSH2 0xF0B DUP3 PUSH2 0xCC3 JUMP JUMPDEST DUP4 SLOAD PUSH2 0xEB5 JUMP JUMPDEST DUP3 SSTORE POP POP POP JUMP JUMPDEST PUSH0 DUP2 ADD PUSH0 DUP4 ADD PUSH2 0xF29 DUP2 DUP6 PUSH2 0xBAF JUMP JUMPDEST PUSH2 0xF34 DUP2 DUP4 DUP7 PUSH2 0xE85 JUMP JUMPDEST POP POP POP POP PUSH1 0x1 DUP2 ADD PUSH1 0x20 DUP4 ADD PUSH2 0xF4A DUP2 DUP6 PUSH2 0xBAF JUMP JUMPDEST PUSH2 0xF55 DUP2 DUP4 DUP7 PUSH2 0xE85 JUMP JUMPDEST POP POP POP POP PUSH1 0x2 DUP2 ADD PUSH1 0x40 DUP4 ADD DUP1 PUSH2 0xF6B DUP2 PUSH2 0xE95 JUMP JUMPDEST SWAP1 POP PUSH2 0xF77 DUP2 DUP5 PUSH2 0xEF6 JUMP JUMPDEST POP POP POP PUSH1 0x3 DUP2 ADD PUSH1 0x60 DUP4 ADD DUP1 PUSH2 0xF8C DUP2 PUSH2 0xE95 JUMP JUMPDEST SWAP1 POP PUSH2 0xF98 DUP2 DUP5 PUSH2 0xEF6 JUMP JUMPDEST POP POP POP PUSH1 0x4 DUP2 ADD PUSH1 0x80 DUP4 ADD DUP1 PUSH2 0xFAD DUP2 PUSH2 0xE95 JUMP JUMPDEST SWAP1 POP PUSH2 0xFB9 DUP2 DUP5 PUSH2 0xEF6 JUMP JUMPDEST POP POP POP PUSH1 0x5 DUP2 ADD PUSH1 0xA0 DUP4 ADD PUSH2 0xFCE DUP2 DUP6 PUSH2 0xBAF JUMP JUMPDEST PUSH2 0xFD9 DUP2 DUP4 DUP7 PUSH2 0xE85 JUMP JUMPDEST POP POP POP POP POP POP JUMP JUMPDEST PUSH2 0xFEB DUP3 DUP3 PUSH2 0xF19 JUMP JUMPDEST POP POP JUMP INVALID LOG2 PUSH5 0x6970667358 0x22 SLT KECCAK256 DUP6 0xB2 TLOAD 0xA7 0xE0 0xEA 0xEC 0xA8 SIGNEXTEND CREATE SUB SWAP10 DUP1 PUSH13 0x5A62E13B1AF459548C3BF765D1 0xE5 SWAP10 JUMP 0xD7 0xF6 PUSH5 0x736F6C6343 STOP ADDMOD BYTE STOP CALLER "
				},
				"gasEstimates": {
					"creation": {
						"codeDepositCost": "826600",
						"executionCost": "862",
						"totalCost": "827462"
					},
					"external": {
						"addRealState((string,string,uint256,uint256,uint256,string))": "infinite",
						"getRealStateByCity(string)": "infinite",
						"realStateMap(string,uint256)": "infinite"
					}
				},
				"methodIdentifiers": {
					"addRealState((string,string,uint256,uint256,uint256,string))": "2c233de6",
					"getRealStateByCity(string)": "0de06237",
					"realStateMap(string,uint256)": "7946bcf4"
				}
			},
			"storageLayout": {
				"storage": [
					{
						"astId": 21,
						"contract": "contracts/RealStateContract.sol:RealStateContractCities",
						"label": "realStateMap",
						"offset": 0,
						"slot": "0",
						"type": "t_mapping(t_string_memory_ptr,t_array(t_struct(RealState)14_storage)dyn_storage)"
					}
				],
				"types": {
					"t_array(t_struct(RealState)14_storage)dyn_storage": {
						"base": "t_struct(RealState)14_storage",
						"encoding": "dynamic_array",
						"label": "struct Shared.RealState[]",
						"numberOfBytes": "32"
					},
					"t_mapping(t_string_memory_ptr,t_array(t_struct(RealState)14_storage)dyn_storage)": {
						"encoding": "mapping",
						"key": "t_string_memory_ptr",
						"label": "mapping(string => struct Shared.RealState[])",
						"numberOfBytes": "32",
						"value": "t_array(t_struct(RealState)14_storage)dyn_storage"
					},
					"t_string_memory_ptr": {
						"encoding": "bytes",
						"label": "string",
						"numberOfBytes": "32"
					},
					"t_string_storage": {
						"encoding": "bytes",
						"label": "string",
						"numberOfBytes": "32"
					},
					"t_struct(RealState)14_storage": {
						"encoding": "inplace",
						"label": "struct Shared.RealState",
						"members": [
							{
								"astId": 3,
								"contract": "contracts/RealStateContract.sol:RealStateContractCities",
								"label": "city",
								"offset": 0,
								"slot": "0",
								"type": "t_string_storage"
							},
							{
								"astId": 5,
								"contract": "contracts/RealStateContract.sol:RealStateContractCities",
								"label": "street",
								"offset": 0,
								"slot": "1",
								"type": "t_string_storage"
							},
							{
								"astId": 7,
								"contract": "contracts/RealStateContract.sol:RealStateContractCities",
								"label": "number",
								"offset": 0,
								"slot": "2",
								"type": "t_uint256"
							},
							{
								"astId": 9,
								"contract": "contracts/RealStateContract.sol:RealStateContractCities",
								"label": "meters",
								"offset": 0,
								"slot": "3",
								"type": "t_uint256"
							},
							{
								"astId": 11,
								"contract": "contracts/RealStateContract.sol:RealStateContractCities",
								"label": "registration",
								"offset": 0,
								"slot": "4",
								"type": "t_uint256"
							},
							{
								"astId": 13,
								"contract": "contracts/RealStateContract.sol:RealStateContractCities",
								"label": "owner",
								"offset": 0,
								"slot": "5",
								"type": "t_string_storage"
							}
						],
						"numberOfBytes": "192"
					},
					"t_uint256": {
						"encoding": "inplace",
						"label": "uint256",
						"numberOfBytes": "32"
					}
				}
			},
			"userdoc": {
				"kind": "user",
				"methods": {},
				"version": 1
			}
		}
	}
}