{
	"contracts/RealStateContract.sol": {
		"RealStateContractRegistrations": {
			"abi": [
				{
					"inputs": [
						{
							"internalType": "address",
							"name": "newAddress",
							"type": "address"
						}
					],
					"name": "addAuthorizedAddress",
					"outputs": [],
					"stateMutability": "nonpayable",
					"type": "function"
				},
				{
					"inputs": [
						{
							"components": [
								{
									"internalType": "string",
									"name": "city",
									"type": "string"
								},
								{
									"internalType": "string",
									"name": "street",
									"type": "string"
								},
								{
									"internalType": "uint256",
									"name": "number",
									"type": "uint256"
								},
								{
									"internalType": "uint256",
									"name": "meters",
									"type": "uint256"
								},
								{
									"internalType": "uint256",
									"name": "registration",
									"type": "uint256"
								},
								{
									"internalType": "string",
									"name": "owner",
									"type": "string"
								}
							],
							"internalType": "struct Shared.RealState",
							"name": "realState",
							"type": "tuple"
						}
					],
					"name": "addRealState",
					"outputs": [],
					"stateMutability": "nonpayable",
					"type": "function"
				},
				{
					"inputs": [],
					"name": "admin",
					"outputs": [
						{
							"internalType": "address payable",
							"name": "",
							"type": "address"
						}
					],
					"stateMutability": "view",
					"type": "function"
				},
				{
					"inputs": [
						{
							"internalType": "address",
							"name": "",
							"type": "address"
						}
					],
					"name": "authorizedAddresses",
					"outputs": [
						{
							"internalType": "bool",
							"name": "",
							"type": "bool"
						}
					],
					"stateMutability": "view",
					"type": "function"
				},
				{
					"inputs": [
						{
							"internalType": "uint256",
							"name": "_registration",
							"type": "uint256"
						}
					],
					"name": "deleteRealStateByRegistration",
					"outputs": [],
					"stateMutability": "nonpayable",
					"type": "function"
				},
				{
					"inputs": [
						{
							"internalType": "uint256",
							"name": "_registration",
							"type": "uint256"
						}
					],
					"name": "getRealStateByRegistration",
					"outputs": [
						{
							"components": [
								{
									"internalType": "string",
									"name": "city",
									"type": "string"
								},
								{
									"internalType": "string",
									"name": "street",
									"type": "string"
								},
								{
									"internalType": "uint256",
									"name": "number",
									"type": "uint256"
								},
								{
									"internalType": "uint256",
									"name": "meters",
									"type": "uint256"
								},
								{
									"internalType": "uint256",
									"name": "registration",
									"type": "uint256"
								},
								{
									"internalType": "string",
									"name": "owner",
									"type": "string"
								}
							],
							"internalType": "struct Shared.RealState",
							"name": "",
							"type": "tuple"
						}
					],
					"stateMutability": "view",
					"type": "function"
				},
				{
					"inputs": [
						{
							"internalType": "uint256",
							"name": "",
							"type": "uint256"
						}
					],
					"name": "realStateMap",
					"outputs": [
						{
							"internalType": "string",
							"name": "city",
							"type": "string"
						},
						{
							"internalType": "string",
							"name": "street",
							"type": "string"
						},
						{
							"internalType": "uint256",
							"name": "number",
							"type": "uint256"
						},
						{
							"internalType": "uint256",
							"name": "meters",
							"type": "uint256"
						},
						{
							"internalType": "uint256",
							"name": "registration",
							"type": "uint256"
						},
						{
							"internalType": "string",
							"name": "owner",
							"type": "string"
						}
					],
					"stateMutability": "view",
					"type": "function"
				}
			],
			"devdoc": {
				"kind": "dev",
				"methods": {},
				"version": 1
			},
			"evm": {
				"assembly": "    /* \"contracts/RealStateContract.sol\":260:1869  contract RealStateContractRegistrations {... */\n  mstore(0x40, 0x80)\n    /* \"contracts/RealStateContract.sol\":499:541  0x50d3b84a2b1787b7704DD50c67733b6b5B293629 */\n  0x50d3b84a2b1787b7704dd50c67733b6b5b293629\n    /* \"contracts/RealStateContract.sol\":460:542  address payable public admin = payable(0x50d3b84a2b1787b7704DD50c67733b6b5B293629) */\n  0x01\n  exp(0x0100, 0x00)\n  dup2\n  sload\n  dup2\n  0xffffffffffffffffffffffffffffffffffffffff\n  mul\n  not\n  and\n  swap1\n  dup4\n  0xffffffffffffffffffffffffffffffffffffffff\n  and\n  mul\n  or\n  swap1\n  sstore\n  pop\n    /* \"contracts/RealStateContract.sol\":260:1869  contract RealStateContractRegistrations {... */\n  callvalue\n  dup1\n  iszero\n  tag_1\n  jumpi\n  0x00\n  dup1\n  revert\ntag_1:\n  pop\n  dataSize(sub_0)\n  dup1\n  dataOffset(sub_0)\n  0x00\n  codecopy\n  0x00\n  return\nstop\n\nsub_0: assembly {\n        /* \"contracts/RealStateContract.sol\":260:1869  contract RealStateContractRegistrations {... */\n      mstore(0x40, 0x80)\n      callvalue\n      dup1\n      iszero\n      tag_1\n      jumpi\n      0x00\n      dup1\n      revert\n    tag_1:\n      pop\n      jumpi(tag_2, lt(calldatasize, 0x04))\n      shr(0xe0, calldataload(0x00))\n      dup1\n      0x82e27eab\n      gt\n      tag_10\n      jumpi\n      dup1\n      0x82e27eab\n      eq\n      tag_6\n      jumpi\n      dup1\n      0x8324aa5b\n      eq\n      tag_7\n      jumpi\n      dup1\n      0xf19e207e\n      eq\n      tag_8\n      jumpi\n      dup1\n      0xf851a440\n      eq\n      tag_9\n      jumpi\n      jump(tag_2)\n    tag_10:\n      dup1\n      0x12e6c943\n      eq\n      tag_3\n      jumpi\n      dup1\n      0x2c233de6\n      eq\n      tag_4\n      jumpi\n      dup1\n      0x42f1181e\n      eq\n      tag_5\n      jumpi\n    tag_2:\n      0x00\n      dup1\n      revert\n        /* \"contracts/RealStateContract.sol\":307:360  mapping(uint => Shared.RealState) public realStateMap */\n    tag_3:\n      tag_11\n      0x04\n      dup1\n      calldatasize\n      sub\n      dup2\n      add\n      swap1\n      tag_12\n      swap2\n      swap1\n      tag_13\n      jump\t// in\n    tag_12:\n      tag_14\n      jump\t// in\n    tag_11:\n      mload(0x40)\n      tag_15\n      swap7\n      swap6\n      swap5\n      swap4\n      swap3\n      swap2\n      swap1\n      tag_16\n      jump\t// in\n    tag_15:\n      mload(0x40)\n      dup1\n      swap2\n      sub\n      swap1\n      return\n        /* \"contracts/RealStateContract.sol\":1336:1611  function addRealState(Shared.RealState calldata realState) public onlyAuthorized {... */\n    tag_4:\n      tag_17\n      0x04\n      dup1\n      calldatasize\n      sub\n      dup2\n      add\n      swap1\n      tag_18\n      swap2\n      swap1\n      tag_19\n      jump\t// in\n    tag_18:\n      tag_20\n      jump\t// in\n    tag_17:\n      stop\n        /* \"contracts/RealStateContract.sol\":894:1018  function addAuthorizedAddress(address newAddress) public onlyAdmin {... */\n    tag_5:\n      tag_21\n      0x04\n      dup1\n      calldatasize\n      sub\n      dup2\n      add\n      swap1\n      tag_22\n      swap2\n      swap1\n      tag_23\n      jump\t// in\n    tag_22:\n      tag_24\n      jump\t// in\n    tag_21:\n      stop\n        /* \"contracts/RealStateContract.sol\":1024:1328  function getRealStateByRegistration(uint _registration) public view returns (Shared.RealState memory) {... */\n    tag_6:\n      tag_25\n      0x04\n      dup1\n      calldatasize\n      sub\n      dup2\n      add\n      swap1\n      tag_26\n      swap2\n      swap1\n      tag_13\n      jump\t// in\n    tag_26:\n      tag_27\n      jump\t// in\n    tag_25:\n      mload(0x40)\n      tag_28\n      swap2\n      swap1\n      tag_29\n      jump\t// in\n    tag_28:\n      mload(0x40)\n      dup1\n      swap2\n      sub\n      swap1\n      return\n        /* \"contracts/RealStateContract.sol\":1619:1864  function deleteRealStateByRegistration(uint _registration) public onlyAuthorized {... */\n    tag_7:\n      tag_30\n      0x04\n      dup1\n      calldatasize\n      sub\n      dup2\n      add\n      swap1\n      tag_31\n      swap2\n      swap1\n      tag_13\n      jump\t// in\n    tag_31:\n      tag_32\n      jump\t// in\n    tag_30:\n      stop\n        /* \"contracts/RealStateContract.sol\":549:600  mapping(address => bool) public authorizedAddresses */\n    tag_8:\n      tag_33\n      0x04\n      dup1\n      calldatasize\n      sub\n      dup2\n      add\n      swap1\n      tag_34\n      swap2\n      swap1\n      tag_23\n      jump\t// in\n    tag_34:\n      tag_35\n      jump\t// in\n    tag_33:\n      mload(0x40)\n      tag_36\n      swap2\n      swap1\n      tag_37\n      jump\t// in\n    tag_36:\n      mload(0x40)\n      dup1\n      swap2\n      sub\n      swap1\n      return\n        /* \"contracts/RealStateContract.sol\":460:542  address payable public admin = payable(0x50d3b84a2b1787b7704DD50c67733b6b5B293629) */\n    tag_9:\n      tag_38\n      tag_39\n      jump\t// in\n    tag_38:\n      mload(0x40)\n      tag_40\n      swap2\n      swap1\n      tag_41\n      jump\t// in\n    tag_40:\n      mload(0x40)\n      dup1\n      swap2\n      sub\n      swap1\n      return\n        /* \"contracts/RealStateContract.sol\":307:360  mapping(uint => Shared.RealState) public realStateMap */\n    tag_14:\n      mstore(0x20, 0x00)\n      dup1\n      0x00\n      mstore\n      keccak256(0x00, 0x40)\n      0x00\n      swap2\n      pop\n      swap1\n      pop\n      dup1\n      0x00\n      add\n      dup1\n      sload\n      tag_42\n      swap1\n      tag_43\n      jump\t// in\n    tag_42:\n      dup1\n      0x1f\n      add\n      0x20\n      dup1\n      swap2\n      div\n      mul\n      0x20\n      add\n      mload(0x40)\n      swap1\n      dup2\n      add\n      0x40\n      mstore\n      dup1\n      swap3\n      swap2\n      swap1\n      dup2\n      dup2\n      mstore\n      0x20\n      add\n      dup3\n      dup1\n      sload\n      tag_44\n      swap1\n      tag_43\n      jump\t// in\n    tag_44:\n      dup1\n      iszero\n      tag_45\n      jumpi\n      dup1\n      0x1f\n      lt\n      tag_46\n      jumpi\n      0x0100\n      dup1\n      dup4\n      sload\n      div\n      mul\n      dup4\n      mstore\n      swap2\n      0x20\n      add\n      swap2\n      jump(tag_45)\n    tag_46:\n      dup3\n      add\n      swap2\n      swap1\n      0x00\n      mstore\n      keccak256(0x00, 0x20)\n      swap1\n    tag_47:\n      dup2\n      sload\n      dup2\n      mstore\n      swap1\n      0x01\n      add\n      swap1\n      0x20\n      add\n      dup1\n      dup4\n      gt\n      tag_47\n      jumpi\n      dup3\n      swap1\n      sub\n      0x1f\n      and\n      dup3\n      add\n      swap2\n    tag_45:\n      pop\n      pop\n      pop\n      pop\n      pop\n      swap1\n      dup1\n      0x01\n      add\n      dup1\n      sload\n      tag_48\n      swap1\n      tag_43\n      jump\t// in\n    tag_48:\n      dup1\n      0x1f\n      add\n      0x20\n      dup1\n      swap2\n      div\n      mul\n      0x20\n      add\n      mload(0x40)\n      swap1\n      dup2\n      add\n      0x40\n      mstore\n      dup1\n      swap3\n      swap2\n      swap1\n      dup2\n      dup2\n      mstore\n      0x20\n      add\n      dup3\n      dup1\n      sload\n      tag_49\n      swap1\n      tag_43\n      jump\t// in\n    tag_49:\n      dup1\n      iszero\n      tag_50\n      jumpi\n      dup1\n      0x1f\n      lt\n      tag_51\n      jumpi\n      0x0100\n      dup1\n      dup4\n      sload\n      div\n      mul\n      dup4\n      mstore\n      swap2\n      0x20\n      add\n      swap2\n      jump(tag_50)\n    tag_51:\n      dup3\n      add\n      swap2\n      swap1\n      0x00\n      mstore\n      keccak256(0x00, 0x20)\n      swap1\n    tag_52:\n      dup2\n      sload\n      dup2\n      mstore\n      swap1\n      0x01\n      add\n      swap1\n      0x20\n      add\n      dup1\n      dup4\n      gt\n      tag_52\n      jumpi\n      dup3\n      swap1\n      sub\n      0x1f\n      and\n      dup3\n      add\n      swap2\n    tag_50:\n      pop\n      pop\n      pop\n      pop\n      pop\n      swap1\n      dup1\n      0x02\n      add\n      sload\n      swap1\n      dup1\n      0x03\n      add\n      sload\n      swap1\n      dup1\n      0x04\n      add\n      sload\n      swap1\n      dup1\n      0x05\n      add\n      dup1\n      sload\n      tag_53\n      swap1\n      tag_43\n      jump\t// in\n    tag_53:\n      dup1\n      0x1f\n      add\n      0x20\n      dup1\n      swap2\n      div\n      mul\n      0x20\n      add\n      mload(0x40)\n      swap1\n      dup2\n      add\n      0x40\n      mstore\n      dup1\n      swap3\n      swap2\n      swap1\n      dup2\n      dup2\n      mstore\n      0x20\n      add\n      dup3\n      dup1\n      sload\n      tag_54\n      swap1\n      tag_43\n      jump\t// in\n    tag_54:\n      dup1\n      iszero\n      tag_55\n      jumpi\n      dup1\n      0x1f\n      lt\n      tag_56\n      jumpi\n      0x0100\n      dup1\n      dup4\n      sload\n      div\n      mul\n      dup4\n      mstore\n      swap2\n      0x20\n      add\n      swap2\n      jump(tag_55)\n    tag_56:\n      dup3\n      add\n      swap2\n      swap1\n      0x00\n      mstore\n      keccak256(0x00, 0x20)\n      swap1\n    tag_57:\n      dup2\n      sload\n      dup2\n      mstore\n      swap1\n      0x01\n      add\n      swap1\n      0x20\n      add\n      dup1\n      dup4\n      gt\n      tag_57\n      jumpi\n      dup3\n      swap1\n      sub\n      0x1f\n      and\n      dup3\n      add\n      swap2\n    tag_55:\n      pop\n      pop\n      pop\n      pop\n      pop\n      swap1\n      pop\n      dup7\n      jump\t// out\n        /* \"contracts/RealStateContract.sol\":1336:1611  function addRealState(Shared.RealState calldata realState) public onlyAuthorized {... */\n    tag_20:\n        /* \"contracts/RealStateContract.sol\":783:802  authorizedAddresses */\n      0x02\n        /* \"contracts/RealStateContract.sol\":783:814  authorizedAddresses[msg.sender] */\n      0x00\n        /* \"contracts/RealStateContract.sol\":803:813  msg.sender */\n      caller\n        /* \"contracts/RealStateContract.sol\":783:814  authorizedAddresses[msg.sender] */\n      0xffffffffffffffffffffffffffffffffffffffff\n      and\n      0xffffffffffffffffffffffffffffffffffffffff\n      and\n      dup2\n      mstore\n      0x20\n      add\n      swap1\n      dup2\n      mstore\n      0x20\n      add\n      0x00\n      keccak256\n      0x00\n      swap1\n      sload\n      swap1\n      0x0100\n      exp\n      swap1\n      div\n      0xff\n      and\n        /* \"contracts/RealStateContract.sol\":775:868  require(authorizedAddresses[msg.sender], \"Only authorized addresses can perform this action\") */\n      tag_59\n      jumpi\n      mload(0x40)\n      0x08c379a000000000000000000000000000000000000000000000000000000000\n      dup2\n      mstore\n      0x04\n      add\n      tag_60\n      swap1\n      tag_61\n      jump\t// in\n    tag_60:\n      mload(0x40)\n      dup1\n      swap2\n      sub\n      swap1\n      revert\n    tag_59:\n        /* \"contracts/RealStateContract.sol\":1594:1603  realState */\n      dup1\n        /* \"contracts/RealStateContract.sol\":1555:1567  realStateMap */\n      0x00\n        /* \"contracts/RealStateContract.sol\":1555:1591  realStateMap[realState.registration] */\n      dup1\n        /* \"contracts/RealStateContract.sol\":1568:1577  realState */\n      dup4\n        /* \"contracts/RealStateContract.sol\":1568:1590  realState.registration */\n      0x80\n      add\n      calldataload\n        /* \"contracts/RealStateContract.sol\":1555:1591  realStateMap[realState.registration] */\n      dup2\n      mstore\n      0x20\n      add\n      swap1\n      dup2\n      mstore\n      0x20\n      add\n      0x00\n      keccak256\n        /* \"contracts/RealStateContract.sol\":1555:1603  realStateMap[realState.registration] = realState */\n      dup2\n      dup2\n      tag_63\n      swap2\n      swap1\n      tag_64\n      jump\t// in\n    tag_63:\n      swap1\n      pop\n      pop\n        /* \"contracts/RealStateContract.sol\":1336:1611  function addRealState(Shared.RealState calldata realState) public onlyAuthorized {... */\n      pop\n      jump\t// out\n        /* \"contracts/RealStateContract.sol\":894:1018  function addAuthorizedAddress(address newAddress) public onlyAdmin {... */\n    tag_24:\n        /* \"contracts/RealStateContract.sol\":662:667  admin */\n      0x01\n      0x00\n      swap1\n      sload\n      swap1\n      0x0100\n      exp\n      swap1\n      div\n      0xffffffffffffffffffffffffffffffffffffffff\n      and\n        /* \"contracts/RealStateContract.sol\":648:667  msg.sender == admin */\n      0xffffffffffffffffffffffffffffffffffffffff\n      and\n        /* \"contracts/RealStateContract.sol\":648:658  msg.sender */\n      caller\n        /* \"contracts/RealStateContract.sol\":648:667  msg.sender == admin */\n      0xffffffffffffffffffffffffffffffffffffffff\n      and\n      eq\n        /* \"contracts/RealStateContract.sol\":640:710  require(msg.sender == admin, \"Only the admin can perform this action\") */\n      tag_66\n      jumpi\n      mload(0x40)\n      0x08c379a000000000000000000000000000000000000000000000000000000000\n      dup2\n      mstore\n      0x04\n      add\n      tag_67\n      swap1\n      tag_68\n      jump\t// in\n    tag_67:\n      mload(0x40)\n      dup1\n      swap2\n      sub\n      swap1\n      revert\n    tag_66:\n        /* \"contracts/RealStateContract.sol\":1006:1010  true */\n      0x01\n        /* \"contracts/RealStateContract.sol\":972:991  authorizedAddresses */\n      0x02\n        /* \"contracts/RealStateContract.sol\":972:1003  authorizedAddresses[newAddress] */\n      0x00\n        /* \"contracts/RealStateContract.sol\":992:1002  newAddress */\n      dup4\n        /* \"contracts/RealStateContract.sol\":972:1003  authorizedAddresses[newAddress] */\n      0xffffffffffffffffffffffffffffffffffffffff\n      and\n      0xffffffffffffffffffffffffffffffffffffffff\n      and\n      dup2\n      mstore\n      0x20\n      add\n      swap1\n      dup2\n      mstore\n      0x20\n      add\n      0x00\n      keccak256\n      0x00\n        /* \"contracts/RealStateContract.sol\":972:1010  authorizedAddresses[newAddress] = true */\n      0x0100\n      exp\n      dup2\n      sload\n      dup2\n      0xff\n      mul\n      not\n      and\n      swap1\n      dup4\n      iszero\n      iszero\n      mul\n      or\n      swap1\n      sstore\n      pop\n        /* \"contracts/RealStateContract.sol\":894:1018  function addAuthorizedAddress(address newAddress) public onlyAdmin {... */\n      pop\n      jump\t// out\n        /* \"contracts/RealStateContract.sol\":1024:1328  function getRealStateByRegistration(uint _registration) public view returns (Shared.RealState memory) {... */\n    tag_27:\n        /* \"contracts/RealStateContract.sol\":1101:1124  Shared.RealState memory */\n      tag_70\n      tag_71\n      jump\t// in\n    tag_70:\n        /* \"contracts/RealStateContract.sol\":1137:1170  Shared.RealState memory realState */\n      0x00\n        /* \"contracts/RealStateContract.sol\":1173:1185  realStateMap */\n      dup1\n        /* \"contracts/RealStateContract.sol\":1173:1200  realStateMap[_registration] */\n      0x00\n        /* \"contracts/RealStateContract.sol\":1186:1199  _registration */\n      dup5\n        /* \"contracts/RealStateContract.sol\":1173:1200  realStateMap[_registration] */\n      dup2\n      mstore\n      0x20\n      add\n      swap1\n      dup2\n      mstore\n      0x20\n      add\n      0x00\n      keccak256\n        /* \"contracts/RealStateContract.sol\":1137:1200  Shared.RealState memory realState = realStateMap[_registration] */\n      mload(0x40)\n      dup1\n      0xc0\n      add\n      0x40\n      mstore\n      swap1\n      dup2\n      0x00\n      dup3\n      add\n      dup1\n      sload\n      tag_73\n      swap1\n      tag_43\n      jump\t// in\n    tag_73:\n      dup1\n      0x1f\n      add\n      0x20\n      dup1\n      swap2\n      div\n      mul\n      0x20\n      add\n      mload(0x40)\n      swap1\n      dup2\n      add\n      0x40\n      mstore\n      dup1\n      swap3\n      swap2\n      swap1\n      dup2\n      dup2\n      mstore\n      0x20\n      add\n      dup3\n      dup1\n      sload\n      tag_74\n      swap1\n      tag_43\n      jump\t// in\n    tag_74:\n      dup1\n      iszero\n      tag_75\n      jumpi\n      dup1\n      0x1f\n      lt\n      tag_76\n      jumpi\n      0x0100\n      dup1\n      dup4\n      sload\n      div\n      mul\n      dup4\n      mstore\n      swap2\n      0x20\n      add\n      swap2\n      jump(tag_75)\n    tag_76:\n      dup3\n      add\n      swap2\n      swap1\n      0x00\n      mstore\n      keccak256(0x00, 0x20)\n      swap1\n    tag_77:\n      dup2\n      sload\n      dup2\n      mstore\n      swap1\n      0x01\n      add\n      swap1\n      0x20\n      add\n      dup1\n      dup4\n      gt\n      tag_77\n      jumpi\n      dup3\n      swap1\n      sub\n      0x1f\n      and\n      dup3\n      add\n      swap2\n    tag_75:\n      pop\n      pop\n      pop\n      pop\n      pop\n      dup2\n      mstore\n      0x20\n      add\n      0x01\n      dup3\n      add\n      dup1\n      sload\n      tag_78\n      swap1\n      tag_43\n      jump\t// in\n    tag_78:\n      dup1\n      0x1f\n      add\n      0x20\n      dup1\n      swap2\n      div\n      mul\n      0x20\n      add\n      mload(0x40)\n      swap1\n      dup2\n      add\n      0x40\n      mstore\n      dup1\n      swap3\n      swap2\n      swap1\n      dup2\n      dup2\n      mstore\n      0x20\n      add\n      dup3\n      dup1\n      sload\n      tag_79\n      swap1\n      tag_43\n      jump\t// in\n    tag_79:\n      dup1\n      iszero\n      tag_80\n      jumpi\n      dup1\n      0x1f\n      lt\n      tag_81\n      jumpi\n      0x0100\n      dup1\n      dup4\n      sload\n      div\n      mul\n      dup4\n      mstore\n      swap2\n      0x20\n      add\n      swap2\n      jump(tag_80)\n    tag_81:\n      dup3\n      add\n      swap2\n      swap1\n      0x00\n      mstore\n      keccak256(0x00, 0x20)\n      swap1\n    tag_82:\n      dup2\n      sload\n      dup2\n      mstore\n      swap1\n      0x01\n      add\n      swap1\n      0x20\n      add\n      dup1\n      dup4\n      gt\n      tag_82\n      jumpi\n      dup3\n      swap1\n      sub\n      0x1f\n      and\n      dup3\n      add\n      swap2\n    tag_80:\n      pop\n      pop\n      pop\n      pop\n      pop\n      dup2\n      mstore\n      0x20\n      add\n      0x02\n      dup3\n      add\n      sload\n      dup2\n      mstore\n      0x20\n      add\n      0x03\n      dup3\n      add\n      sload\n      dup2\n      mstore\n      0x20\n      add\n      0x04\n      dup3\n      add\n      sload\n      dup2\n      mstore\n      0x20\n      add\n      0x05\n      dup3\n      add\n      dup1\n      sload\n      tag_83\n      swap1\n      tag_43\n      jump\t// in\n    tag_83:\n      dup1\n      0x1f\n      add\n      0x20\n      dup1\n      swap2\n      div\n      mul\n      0x20\n      add\n      mload(0x40)\n      swap1\n      dup2\n      add\n      0x40\n      mstore\n      dup1\n      swap3\n      swap2\n      swap1\n      dup2\n      dup2\n      mstore\n      0x20\n      add\n      dup3\n      dup1\n      sload\n      tag_84\n      swap1\n      tag_43\n      jump\t// in\n    tag_84:\n      dup1\n      iszero\n      tag_85\n      jumpi\n      dup1\n      0x1f\n      lt\n      tag_86\n      jumpi\n      0x0100\n      dup1\n      dup4\n      sload\n      div\n      mul\n      dup4\n      mstore\n      swap2\n      0x20\n      add\n      swap2\n      jump(tag_85)\n    tag_86:\n      dup3\n      add\n      swap2\n      swap1\n      0x00\n      mstore\n      keccak256(0x00, 0x20)\n      swap1\n    tag_87:\n      dup2\n      sload\n      dup2\n      mstore\n      swap1\n      0x01\n      add\n      swap1\n      0x20\n      add\n      dup1\n      dup4\n      gt\n      tag_87\n      jumpi\n      dup3\n      swap1\n      sub\n      0x1f\n      and\n      dup3\n      add\n      swap2\n    tag_85:\n      pop\n      pop\n      pop\n      pop\n      pop\n      dup2\n      mstore\n      pop\n      pop\n      swap1\n      pop\n        /* \"contracts/RealStateContract.sol\":1245:1246  0 */\n      0x00\n        /* \"contracts/RealStateContract.sol\":1219:1228  realState */\n      dup2\n        /* \"contracts/RealStateContract.sol\":1219:1241  realState.registration */\n      0x80\n      add\n      mload\n        /* \"contracts/RealStateContract.sol\":1219:1246  realState.registration != 0 */\n      sub\n        /* \"contracts/RealStateContract.sol\":1211:1293  require(realState.registration != 0, \"Not found RealState with this registration\") */\n      tag_88\n      jumpi\n      mload(0x40)\n      0x08c379a000000000000000000000000000000000000000000000000000000000\n      dup2\n      mstore\n      0x04\n      add\n      tag_89\n      swap1\n      tag_90\n      jump\t// in\n    tag_89:\n      mload(0x40)\n      dup1\n      swap2\n      sub\n      swap1\n      revert\n    tag_88:\n        /* \"contracts/RealStateContract.sol\":1311:1320  realState */\n      dup1\n        /* \"contracts/RealStateContract.sol\":1304:1320  return realState */\n      swap2\n      pop\n      pop\n        /* \"contracts/RealStateContract.sol\":1024:1328  function getRealStateByRegistration(uint _registration) public view returns (Shared.RealState memory) {... */\n      swap2\n      swap1\n      pop\n      jump\t// out\n        /* \"contracts/RealStateContract.sol\":1619:1864  function deleteRealStateByRegistration(uint _registration) public onlyAuthorized {... */\n    tag_32:\n        /* \"contracts/RealStateContract.sol\":783:802  authorizedAddresses */\n      0x02\n        /* \"contracts/RealStateContract.sol\":783:814  authorizedAddresses[msg.sender] */\n      0x00\n        /* \"contracts/RealStateContract.sol\":803:813  msg.sender */\n      caller\n        /* \"contracts/RealStateContract.sol\":783:814  authorizedAddresses[msg.sender] */\n      0xffffffffffffffffffffffffffffffffffffffff\n      and\n      0xffffffffffffffffffffffffffffffffffffffff\n      and\n      dup2\n      mstore\n      0x20\n      add\n      swap1\n      dup2\n      mstore\n      0x20\n      add\n      0x00\n      keccak256\n      0x00\n      swap1\n      sload\n      swap1\n      0x0100\n      exp\n      swap1\n      div\n      0xff\n      and\n        /* \"contracts/RealStateContract.sol\":775:868  require(authorizedAddresses[msg.sender], \"Only authorized addresses can perform this action\") */\n      tag_92\n      jumpi\n      mload(0x40)\n      0x08c379a000000000000000000000000000000000000000000000000000000000\n      dup2\n      mstore\n      0x04\n      add\n      tag_93\n      swap1\n      tag_61\n      jump\t// in\n    tag_93:\n      mload(0x40)\n      dup1\n      swap2\n      sub\n      swap1\n      revert\n    tag_92:\n        /* \"contracts/RealStateContract.sol\":1763:1764  0 */\n      0x00\n        /* \"contracts/RealStateContract.sol\":1719:1731  realStateMap */\n      dup1\n        /* \"contracts/RealStateContract.sol\":1719:1746  realStateMap[_registration] */\n      0x00\n        /* \"contracts/RealStateContract.sol\":1732:1745  _registration */\n      dup4\n        /* \"contracts/RealStateContract.sol\":1719:1746  realStateMap[_registration] */\n      dup2\n      mstore\n      0x20\n      add\n      swap1\n      dup2\n      mstore\n      0x20\n      add\n      0x00\n      keccak256\n        /* \"contracts/RealStateContract.sol\":1719:1759  realStateMap[_registration].registration */\n      0x04\n      add\n      sload\n        /* \"contracts/RealStateContract.sol\":1719:1764  realStateMap[_registration].registration != 0 */\n      sub\n        /* \"contracts/RealStateContract.sol\":1711:1811  require(realStateMap[_registration].registration != 0, \"Not found RealState with this registration\") */\n      tag_95\n      jumpi\n      mload(0x40)\n      0x08c379a000000000000000000000000000000000000000000000000000000000\n      dup2\n      mstore\n      0x04\n      add\n      tag_96\n      swap1\n      tag_90\n      jump\t// in\n    tag_96:\n      mload(0x40)\n      dup1\n      swap2\n      sub\n      swap1\n      revert\n    tag_95:\n        /* \"contracts/RealStateContract.sol\":1829:1841  realStateMap */\n      0x00\n        /* \"contracts/RealStateContract.sol\":1829:1856  realStateMap[_registration] */\n      dup1\n        /* \"contracts/RealStateContract.sol\":1842:1855  _registration */\n      dup3\n        /* \"contracts/RealStateContract.sol\":1829:1856  realStateMap[_registration] */\n      dup2\n      mstore\n      0x20\n      add\n      swap1\n      dup2\n      mstore\n      0x20\n      add\n      0x00\n      keccak256\n      0x00\n        /* \"contracts/RealStateContract.sol\":1822:1856  delete realStateMap[_registration] */\n      dup1\n      dup3\n      add\n      0x00\n      tag_97\n      swap2\n      swap1\n      tag_98\n      jump\t// in\n    tag_97:\n      0x01\n      dup3\n      add\n      0x00\n      tag_99\n      swap2\n      swap1\n      tag_98\n      jump\t// in\n    tag_99:\n      0x02\n      dup3\n      add\n      0x00\n      swap1\n      sstore\n      0x03\n      dup3\n      add\n      0x00\n      swap1\n      sstore\n      0x04\n      dup3\n      add\n      0x00\n      swap1\n      sstore\n      0x05\n      dup3\n      add\n      0x00\n      tag_100\n      swap2\n      swap1\n      tag_98\n      jump\t// in\n    tag_100:\n      pop\n      pop\n        /* \"contracts/RealStateContract.sol\":1619:1864  function deleteRealStateByRegistration(uint _registration) public onlyAuthorized {... */\n      pop\n      jump\t// out\n        /* \"contracts/RealStateContract.sol\":549:600  mapping(address => bool) public authorizedAddresses */\n    tag_35:\n      mstore(0x20, 0x02)\n      dup1\n      0x00\n      mstore\n      keccak256(0x00, 0x40)\n      0x00\n      swap2\n      pop\n      sload\n      swap1\n      0x0100\n      exp\n      swap1\n      div\n      0xff\n      and\n      dup2\n      jump\t// out\n        /* \"contracts/RealStateContract.sol\":460:542  address payable public admin = payable(0x50d3b84a2b1787b7704DD50c67733b6b5B293629) */\n    tag_39:\n      0x01\n      0x00\n      swap1\n      sload\n      swap1\n      0x0100\n      exp\n      swap1\n      div\n      0xffffffffffffffffffffffffffffffffffffffff\n      and\n      dup2\n      jump\t// out\n    tag_71:\n      mload(0x40)\n      dup1\n      0xc0\n      add\n      0x40\n      mstore\n      dup1\n      0x60\n      dup2\n      mstore\n      0x20\n      add\n      0x60\n      dup2\n      mstore\n      0x20\n      add\n      0x00\n      dup2\n      mstore\n      0x20\n      add\n      0x00\n      dup2\n      mstore\n      0x20\n      add\n      0x00\n      dup2\n      mstore\n      0x20\n      add\n      0x60\n      dup2\n      mstore\n      pop\n      swap1\n      jump\t// out\n    tag_98:\n      pop\n      dup1\n      sload\n      tag_101\n      swap1\n      tag_43\n      jump\t// in\n    tag_101:\n      0x00\n      dup3\n      sstore\n      dup1\n      0x1f\n      lt\n      tag_103\n      jumpi\n      pop\n      jump(tag_102)\n    tag_103:\n      0x1f\n      add\n      0x20\n      swap1\n      div\n      swap1\n      0x00\n      mstore\n      keccak256(0x00, 0x20)\n      swap1\n      dup2\n      add\n      swap1\n      tag_104\n      swap2\n      swap1\n      tag_105\n      jump\t// in\n    tag_104:\n    tag_102:\n      pop\n      jump\t// out\n    tag_105:\n    tag_106:\n      dup1\n      dup3\n      gt\n      iszero\n      tag_107\n      jumpi\n      0x00\n      dup2\n      0x00\n      swap1\n      sstore\n      pop\n      0x01\n      add\n      jump(tag_106)\n    tag_107:\n      pop\n      swap1\n      jump\t// out\n        /* \"#utility.yul\":88:205   */\n    tag_109:\n        /* \"#utility.yul\":197:198   */\n      0x00\n        /* \"#utility.yul\":194:195   */\n      dup1\n        /* \"#utility.yul\":187:199   */\n      revert\n        /* \"#utility.yul\":211:328   */\n    tag_110:\n        /* \"#utility.yul\":320:321   */\n      0x00\n        /* \"#utility.yul\":317:318   */\n      dup1\n        /* \"#utility.yul\":310:322   */\n      revert\n        /* \"#utility.yul\":334:411   */\n    tag_111:\n        /* \"#utility.yul\":371:378   */\n      0x00\n        /* \"#utility.yul\":400:405   */\n      dup2\n        /* \"#utility.yul\":389:405   */\n      swap1\n      pop\n        /* \"#utility.yul\":334:411   */\n      swap2\n      swap1\n      pop\n      jump\t// out\n        /* \"#utility.yul\":417:539   */\n    tag_112:\n        /* \"#utility.yul\":490:514   */\n      tag_176\n        /* \"#utility.yul\":508:513   */\n      dup2\n        /* \"#utility.yul\":490:514   */\n      tag_111\n      jump\t// in\n    tag_176:\n        /* \"#utility.yul\":483:488   */\n      dup2\n        /* \"#utility.yul\":480:515   */\n      eq\n        /* \"#utility.yul\":470:533   */\n      tag_177\n      jumpi\n        /* \"#utility.yul\":529:530   */\n      0x00\n        /* \"#utility.yul\":526:527   */\n      dup1\n        /* \"#utility.yul\":519:531   */\n      revert\n        /* \"#utility.yul\":470:533   */\n    tag_177:\n        /* \"#utility.yul\":417:539   */\n      pop\n      jump\t// out\n        /* \"#utility.yul\":545:684   */\n    tag_113:\n        /* \"#utility.yul\":591:596   */\n      0x00\n        /* \"#utility.yul\":629:635   */\n      dup2\n        /* \"#utility.yul\":616:636   */\n      calldataload\n        /* \"#utility.yul\":607:636   */\n      swap1\n      pop\n        /* \"#utility.yul\":645:678   */\n      tag_179\n        /* \"#utility.yul\":672:677   */\n      dup2\n        /* \"#utility.yul\":645:678   */\n      tag_112\n      jump\t// in\n    tag_179:\n        /* \"#utility.yul\":545:684   */\n      swap3\n      swap2\n      pop\n      pop\n      jump\t// out\n        /* \"#utility.yul\":690:1019   */\n    tag_13:\n        /* \"#utility.yul\":749:755   */\n      0x00\n        /* \"#utility.yul\":798:800   */\n      0x20\n        /* \"#utility.yul\":786:795   */\n      dup3\n        /* \"#utility.yul\":777:784   */\n      dup5\n        /* \"#utility.yul\":773:796   */\n      sub\n        /* \"#utility.yul\":769:801   */\n      slt\n        /* \"#utility.yul\":766:885   */\n      iszero\n      tag_181\n      jumpi\n        /* \"#utility.yul\":804:883   */\n      tag_182\n      tag_109\n      jump\t// in\n    tag_182:\n        /* \"#utility.yul\":766:885   */\n    tag_181:\n        /* \"#utility.yul\":924:925   */\n      0x00\n        /* \"#utility.yul\":949:1002   */\n      tag_183\n        /* \"#utility.yul\":994:1001   */\n      dup5\n        /* \"#utility.yul\":985:991   */\n      dup3\n        /* \"#utility.yul\":974:983   */\n      dup6\n        /* \"#utility.yul\":970:992   */\n      add\n        /* \"#utility.yul\":949:1002   */\n      tag_113\n      jump\t// in\n    tag_183:\n        /* \"#utility.yul\":939:1002   */\n      swap2\n      pop\n        /* \"#utility.yul\":895:1012   */\n      pop\n        /* \"#utility.yul\":690:1019   */\n      swap3\n      swap2\n      pop\n      pop\n      jump\t// out\n        /* \"#utility.yul\":1025:1124   */\n    tag_114:\n        /* \"#utility.yul\":1077:1083   */\n      0x00\n        /* \"#utility.yul\":1111:1116   */\n      dup2\n        /* \"#utility.yul\":1105:1117   */\n      mload\n        /* \"#utility.yul\":1095:1117   */\n      swap1\n      pop\n        /* \"#utility.yul\":1025:1124   */\n      swap2\n      swap1\n      pop\n      jump\t// out\n        /* \"#utility.yul\":1130:1299   */\n    tag_115:\n        /* \"#utility.yul\":1214:1225   */\n      0x00\n        /* \"#utility.yul\":1248:1254   */\n      dup3\n        /* \"#utility.yul\":1243:1246   */\n      dup3\n        /* \"#utility.yul\":1236:1255   */\n      mstore\n        /* \"#utility.yul\":1288:1292   */\n      0x20\n        /* \"#utility.yul\":1283:1286   */\n      dup3\n        /* \"#utility.yul\":1279:1293   */\n      add\n        /* \"#utility.yul\":1264:1293   */\n      swap1\n      pop\n        /* \"#utility.yul\":1130:1299   */\n      swap3\n      swap2\n      pop\n      pop\n      jump\t// out\n        /* \"#utility.yul\":1305:1444   */\n    tag_116:\n        /* \"#utility.yul\":1394:1400   */\n      dup3\n        /* \"#utility.yul\":1389:1392   */\n      dup2\n        /* \"#utility.yul\":1384:1387   */\n      dup4\n        /* \"#utility.yul\":1378:1401   */\n      mcopy\n        /* \"#utility.yul\":1435:1436   */\n      0x00\n        /* \"#utility.yul\":1426:1432   */\n      dup4\n        /* \"#utility.yul\":1421:1424   */\n      dup4\n        /* \"#utility.yul\":1417:1433   */\n      add\n        /* \"#utility.yul\":1410:1437   */\n      mstore\n        /* \"#utility.yul\":1305:1444   */\n      pop\n      pop\n      pop\n      jump\t// out\n        /* \"#utility.yul\":1450:1552   */\n    tag_117:\n        /* \"#utility.yul\":1491:1497   */\n      0x00\n        /* \"#utility.yul\":1542:1544   */\n      0x1f\n        /* \"#utility.yul\":1538:1545   */\n      not\n        /* \"#utility.yul\":1533:1535   */\n      0x1f\n        /* \"#utility.yul\":1526:1531   */\n      dup4\n        /* \"#utility.yul\":1522:1536   */\n      add\n        /* \"#utility.yul\":1518:1546   */\n      and\n        /* \"#utility.yul\":1508:1546   */\n      swap1\n      pop\n        /* \"#utility.yul\":1450:1552   */\n      swap2\n      swap1\n      pop\n      jump\t// out\n        /* \"#utility.yul\":1558:1935   */\n    tag_118:\n        /* \"#utility.yul\":1646:1649   */\n      0x00\n        /* \"#utility.yul\":1674:1713   */\n      tag_189\n        /* \"#utility.yul\":1707:1712   */\n      dup3\n        /* \"#utility.yul\":1674:1713   */\n      tag_114\n      jump\t// in\n    tag_189:\n        /* \"#utility.yul\":1729:1800   */\n      tag_190\n        /* \"#utility.yul\":1793:1799   */\n      dup2\n        /* \"#utility.yul\":1788:1791   */\n      dup6\n        /* \"#utility.yul\":1729:1800   */\n      tag_115\n      jump\t// in\n    tag_190:\n        /* \"#utility.yul\":1722:1800   */\n      swap4\n      pop\n        /* \"#utility.yul\":1809:1874   */\n      tag_191\n        /* \"#utility.yul\":1867:1873   */\n      dup2\n        /* \"#utility.yul\":1862:1865   */\n      dup6\n        /* \"#utility.yul\":1855:1859   */\n      0x20\n        /* \"#utility.yul\":1848:1853   */\n      dup7\n        /* \"#utility.yul\":1844:1860   */\n      add\n        /* \"#utility.yul\":1809:1874   */\n      tag_116\n      jump\t// in\n    tag_191:\n        /* \"#utility.yul\":1899:1928   */\n      tag_192\n        /* \"#utility.yul\":1921:1927   */\n      dup2\n        /* \"#utility.yul\":1899:1928   */\n      tag_117\n      jump\t// in\n    tag_192:\n        /* \"#utility.yul\":1894:1897   */\n      dup5\n        /* \"#utility.yul\":1890:1929   */\n      add\n        /* \"#utility.yul\":1883:1929   */\n      swap2\n      pop\n        /* \"#utility.yul\":1650:1935   */\n      pop\n        /* \"#utility.yul\":1558:1935   */\n      swap3\n      swap2\n      pop\n      pop\n      jump\t// out\n        /* \"#utility.yul\":1941:2059   */\n    tag_119:\n        /* \"#utility.yul\":2028:2052   */\n      tag_194\n        /* \"#utility.yul\":2046:2051   */\n      dup2\n        /* \"#utility.yul\":2028:2052   */\n      tag_111\n      jump\t// in\n    tag_194:\n        /* \"#utility.yul\":2023:2026   */\n      dup3\n        /* \"#utility.yul\":2016:2053   */\n      mstore\n        /* \"#utility.yul\":1941:2059   */\n      pop\n      pop\n      jump\t// out\n        /* \"#utility.yul\":2065:3113   */\n    tag_16:\n        /* \"#utility.yul\":2358:2362   */\n      0x00\n        /* \"#utility.yul\":2396:2399   */\n      0xc0\n        /* \"#utility.yul\":2385:2394   */\n      dup3\n        /* \"#utility.yul\":2381:2400   */\n      add\n        /* \"#utility.yul\":2373:2400   */\n      swap1\n      pop\n        /* \"#utility.yul\":2446:2455   */\n      dup2\n        /* \"#utility.yul\":2440:2444   */\n      dup2\n        /* \"#utility.yul\":2436:2456   */\n      sub\n        /* \"#utility.yul\":2432:2433   */\n      0x00\n        /* \"#utility.yul\":2421:2430   */\n      dup4\n        /* \"#utility.yul\":2417:2434   */\n      add\n        /* \"#utility.yul\":2410:2457   */\n      mstore\n        /* \"#utility.yul\":2474:2552   */\n      tag_196\n        /* \"#utility.yul\":2547:2551   */\n      dup2\n        /* \"#utility.yul\":2538:2544   */\n      dup10\n        /* \"#utility.yul\":2474:2552   */\n      tag_118\n      jump\t// in\n    tag_196:\n        /* \"#utility.yul\":2466:2552   */\n      swap1\n      pop\n        /* \"#utility.yul\":2599:2608   */\n      dup2\n        /* \"#utility.yul\":2593:2597   */\n      dup2\n        /* \"#utility.yul\":2589:2609   */\n      sub\n        /* \"#utility.yul\":2584:2586   */\n      0x20\n        /* \"#utility.yul\":2573:2582   */\n      dup4\n        /* \"#utility.yul\":2569:2587   */\n      add\n        /* \"#utility.yul\":2562:2610   */\n      mstore\n        /* \"#utility.yul\":2627:2705   */\n      tag_197\n        /* \"#utility.yul\":2700:2704   */\n      dup2\n        /* \"#utility.yul\":2691:2697   */\n      dup9\n        /* \"#utility.yul\":2627:2705   */\n      tag_118\n      jump\t// in\n    tag_197:\n        /* \"#utility.yul\":2619:2705   */\n      swap1\n      pop\n        /* \"#utility.yul\":2715:2787   */\n      tag_198\n        /* \"#utility.yul\":2783:2785   */\n      0x40\n        /* \"#utility.yul\":2772:2781   */\n      dup4\n        /* \"#utility.yul\":2768:2786   */\n      add\n        /* \"#utility.yul\":2759:2765   */\n      dup8\n        /* \"#utility.yul\":2715:2787   */\n      tag_119\n      jump\t// in\n    tag_198:\n        /* \"#utility.yul\":2797:2869   */\n      tag_199\n        /* \"#utility.yul\":2865:2867   */\n      0x60\n        /* \"#utility.yul\":2854:2863   */\n      dup4\n        /* \"#utility.yul\":2850:2868   */\n      add\n        /* \"#utility.yul\":2841:2847   */\n      dup7\n        /* \"#utility.yul\":2797:2869   */\n      tag_119\n      jump\t// in\n    tag_199:\n        /* \"#utility.yul\":2879:2952   */\n      tag_200\n        /* \"#utility.yul\":2947:2950   */\n      0x80\n        /* \"#utility.yul\":2936:2945   */\n      dup4\n        /* \"#utility.yul\":2932:2951   */\n      add\n        /* \"#utility.yul\":2923:2929   */\n      dup6\n        /* \"#utility.yul\":2879:2952   */\n      tag_119\n      jump\t// in\n    tag_200:\n        /* \"#utility.yul\":3000:3009   */\n      dup2\n        /* \"#utility.yul\":2994:2998   */\n      dup2\n        /* \"#utility.yul\":2990:3010   */\n      sub\n        /* \"#utility.yul\":2984:2987   */\n      0xa0\n        /* \"#utility.yul\":2973:2982   */\n      dup4\n        /* \"#utility.yul\":2969:2988   */\n      add\n        /* \"#utility.yul\":2962:3011   */\n      mstore\n        /* \"#utility.yul\":3028:3106   */\n      tag_201\n        /* \"#utility.yul\":3101:3105   */\n      dup2\n        /* \"#utility.yul\":3092:3098   */\n      dup5\n        /* \"#utility.yul\":3028:3106   */\n      tag_118\n      jump\t// in\n    tag_201:\n        /* \"#utility.yul\":3020:3106   */\n      swap1\n      pop\n        /* \"#utility.yul\":2065:3113   */\n      swap8\n      swap7\n      pop\n      pop\n      pop\n      pop\n      pop\n      pop\n      pop\n      jump\t// out\n        /* \"#utility.yul\":3119:3236   */\n    tag_120:\n        /* \"#utility.yul\":3228:3229   */\n      0x00\n        /* \"#utility.yul\":3225:3226   */\n      dup1\n        /* \"#utility.yul\":3218:3230   */\n      revert\n        /* \"#utility.yul\":3273:3505   */\n    tag_121:\n        /* \"#utility.yul\":3346:3351   */\n      0x00\n        /* \"#utility.yul\":3387:3390   */\n      0xc0\n        /* \"#utility.yul\":3378:3384   */\n      dup3\n        /* \"#utility.yul\":3373:3376   */\n      dup5\n        /* \"#utility.yul\":3369:3385   */\n      sub\n        /* \"#utility.yul\":3365:3391   */\n      slt\n        /* \"#utility.yul\":3362:3475   */\n      iszero\n      tag_204\n      jumpi\n        /* \"#utility.yul\":3394:3473   */\n      tag_205\n      tag_120\n      jump\t// in\n    tag_205:\n        /* \"#utility.yul\":3362:3475   */\n    tag_204:\n        /* \"#utility.yul\":3493:3499   */\n      dup2\n        /* \"#utility.yul\":3484:3499   */\n      swap1\n      pop\n        /* \"#utility.yul\":3273:3505   */\n      swap3\n      swap2\n      pop\n      pop\n      jump\t// out\n        /* \"#utility.yul\":3511:4054   */\n    tag_19:\n        /* \"#utility.yul\":3597:3603   */\n      0x00\n        /* \"#utility.yul\":3646:3648   */\n      0x20\n        /* \"#utility.yul\":3634:3643   */\n      dup3\n        /* \"#utility.yul\":3625:3632   */\n      dup5\n        /* \"#utility.yul\":3621:3644   */\n      sub\n        /* \"#utility.yul\":3617:3649   */\n      slt\n        /* \"#utility.yul\":3614:3733   */\n      iszero\n      tag_207\n      jumpi\n        /* \"#utility.yul\":3652:3731   */\n      tag_208\n      tag_109\n      jump\t// in\n    tag_208:\n        /* \"#utility.yul\":3614:3733   */\n    tag_207:\n        /* \"#utility.yul\":3800:3801   */\n      0x00\n        /* \"#utility.yul\":3789:3798   */\n      dup3\n        /* \"#utility.yul\":3785:3802   */\n      add\n        /* \"#utility.yul\":3772:3803   */\n      calldataload\n        /* \"#utility.yul\":3830:3848   */\n      0xffffffffffffffff\n        /* \"#utility.yul\":3822:3828   */\n      dup2\n        /* \"#utility.yul\":3819:3849   */\n      gt\n        /* \"#utility.yul\":3816:3933   */\n      iszero\n      tag_209\n      jumpi\n        /* \"#utility.yul\":3852:3931   */\n      tag_210\n      tag_110\n      jump\t// in\n    tag_210:\n        /* \"#utility.yul\":3816:3933   */\n    tag_209:\n        /* \"#utility.yul\":3957:4037   */\n      tag_211\n        /* \"#utility.yul\":4029:4036   */\n      dup5\n        /* \"#utility.yul\":4020:4026   */\n      dup3\n        /* \"#utility.yul\":4009:4018   */\n      dup6\n        /* \"#utility.yul\":4005:4027   */\n      add\n        /* \"#utility.yul\":3957:4037   */\n      tag_121\n      jump\t// in\n    tag_211:\n        /* \"#utility.yul\":3947:4037   */\n      swap2\n      pop\n        /* \"#utility.yul\":3743:4047   */\n      pop\n        /* \"#utility.yul\":3511:4054   */\n      swap3\n      swap2\n      pop\n      pop\n      jump\t// out\n        /* \"#utility.yul\":4060:4186   */\n    tag_122:\n        /* \"#utility.yul\":4097:4104   */\n      0x00\n        /* \"#utility.yul\":4137:4179   */\n      0xffffffffffffffffffffffffffffffffffffffff\n        /* \"#utility.yul\":4130:4135   */\n      dup3\n        /* \"#utility.yul\":4126:4180   */\n      and\n        /* \"#utility.yul\":4115:4180   */\n      swap1\n      pop\n        /* \"#utility.yul\":4060:4186   */\n      swap2\n      swap1\n      pop\n      jump\t// out\n        /* \"#utility.yul\":4192:4288   */\n    tag_123:\n        /* \"#utility.yul\":4229:4236   */\n      0x00\n        /* \"#utility.yul\":4258:4282   */\n      tag_214\n        /* \"#utility.yul\":4276:4281   */\n      dup3\n        /* \"#utility.yul\":4258:4282   */\n      tag_122\n      jump\t// in\n    tag_214:\n        /* \"#utility.yul\":4247:4282   */\n      swap1\n      pop\n        /* \"#utility.yul\":4192:4288   */\n      swap2\n      swap1\n      pop\n      jump\t// out\n        /* \"#utility.yul\":4294:4416   */\n    tag_124:\n        /* \"#utility.yul\":4367:4391   */\n      tag_216\n        /* \"#utility.yul\":4385:4390   */\n      dup2\n        /* \"#utility.yul\":4367:4391   */\n      tag_123\n      jump\t// in\n    tag_216:\n        /* \"#utility.yul\":4360:4365   */\n      dup2\n        /* \"#utility.yul\":4357:4392   */\n      eq\n        /* \"#utility.yul\":4347:4410   */\n      tag_217\n      jumpi\n        /* \"#utility.yul\":4406:4407   */\n      0x00\n        /* \"#utility.yul\":4403:4404   */\n      dup1\n        /* \"#utility.yul\":4396:4408   */\n      revert\n        /* \"#utility.yul\":4347:4410   */\n    tag_217:\n        /* \"#utility.yul\":4294:4416   */\n      pop\n      jump\t// out\n        /* \"#utility.yul\":4422:4561   */\n    tag_125:\n        /* \"#utility.yul\":4468:4473   */\n      0x00\n        /* \"#utility.yul\":4506:4512   */\n      dup2\n        /* \"#utility.yul\":4493:4513   */\n      calldataload\n        /* \"#utility.yul\":4484:4513   */\n      swap1\n      pop\n        /* \"#utility.yul\":4522:4555   */\n      tag_219\n        /* \"#utility.yul\":4549:4554   */\n      dup2\n        /* \"#utility.yul\":4522:4555   */\n      tag_124\n      jump\t// in\n    tag_219:\n        /* \"#utility.yul\":4422:4561   */\n      swap3\n      swap2\n      pop\n      pop\n      jump\t// out\n        /* \"#utility.yul\":4567:4896   */\n    tag_23:\n        /* \"#utility.yul\":4626:4632   */\n      0x00\n        /* \"#utility.yul\":4675:4677   */\n      0x20\n        /* \"#utility.yul\":4663:4672   */\n      dup3\n        /* \"#utility.yul\":4654:4661   */\n      dup5\n        /* \"#utility.yul\":4650:4673   */\n      sub\n        /* \"#utility.yul\":4646:4678   */\n      slt\n        /* \"#utility.yul\":4643:4762   */\n      iszero\n      tag_221\n      jumpi\n        /* \"#utility.yul\":4681:4760   */\n      tag_222\n      tag_109\n      jump\t// in\n    tag_222:\n        /* \"#utility.yul\":4643:4762   */\n    tag_221:\n        /* \"#utility.yul\":4801:4802   */\n      0x00\n        /* \"#utility.yul\":4826:4879   */\n      tag_223\n        /* \"#utility.yul\":4871:4878   */\n      dup5\n        /* \"#utility.yul\":4862:4868   */\n      dup3\n        /* \"#utility.yul\":4851:4860   */\n      dup6\n        /* \"#utility.yul\":4847:4869   */\n      add\n        /* \"#utility.yul\":4826:4879   */\n      tag_125\n      jump\t// in\n    tag_223:\n        /* \"#utility.yul\":4816:4879   */\n      swap2\n      pop\n        /* \"#utility.yul\":4772:4889   */\n      pop\n        /* \"#utility.yul\":4567:4896   */\n      swap3\n      swap2\n      pop\n      pop\n      jump\t// out\n        /* \"#utility.yul\":4902:5061   */\n    tag_126:\n        /* \"#utility.yul\":4976:4987   */\n      0x00\n        /* \"#utility.yul\":5010:5016   */\n      dup3\n        /* \"#utility.yul\":5005:5008   */\n      dup3\n        /* \"#utility.yul\":4998:5017   */\n      mstore\n        /* \"#utility.yul\":5050:5054   */\n      0x20\n        /* \"#utility.yul\":5045:5048   */\n      dup3\n        /* \"#utility.yul\":5041:5055   */\n      add\n        /* \"#utility.yul\":5026:5055   */\n      swap1\n      pop\n        /* \"#utility.yul\":4902:5061   */\n      swap3\n      swap2\n      pop\n      pop\n      jump\t// out\n        /* \"#utility.yul\":5067:5424   */\n    tag_127:\n        /* \"#utility.yul\":5145:5148   */\n      0x00\n        /* \"#utility.yul\":5173:5212   */\n      tag_226\n        /* \"#utility.yul\":5206:5211   */\n      dup3\n        /* \"#utility.yul\":5173:5212   */\n      tag_114\n      jump\t// in\n    tag_226:\n        /* \"#utility.yul\":5228:5289   */\n      tag_227\n        /* \"#utility.yul\":5282:5288   */\n      dup2\n        /* \"#utility.yul\":5277:5280   */\n      dup6\n        /* \"#utility.yul\":5228:5289   */\n      tag_126\n      jump\t// in\n    tag_227:\n        /* \"#utility.yul\":5221:5289   */\n      swap4\n      pop\n        /* \"#utility.yul\":5298:5363   */\n      tag_228\n        /* \"#utility.yul\":5356:5362   */\n      dup2\n        /* \"#utility.yul\":5351:5354   */\n      dup6\n        /* \"#utility.yul\":5344:5348   */\n      0x20\n        /* \"#utility.yul\":5337:5342   */\n      dup7\n        /* \"#utility.yul\":5333:5349   */\n      add\n        /* \"#utility.yul\":5298:5363   */\n      tag_116\n      jump\t// in\n    tag_228:\n        /* \"#utility.yul\":5388:5417   */\n      tag_229\n        /* \"#utility.yul\":5410:5416   */\n      dup2\n        /* \"#utility.yul\":5388:5417   */\n      tag_117\n      jump\t// in\n    tag_229:\n        /* \"#utility.yul\":5383:5386   */\n      dup5\n        /* \"#utility.yul\":5379:5418   */\n      add\n        /* \"#utility.yul\":5372:5418   */\n      swap2\n      pop\n        /* \"#utility.yul\":5149:5424   */\n      pop\n        /* \"#utility.yul\":5067:5424   */\n      swap3\n      swap2\n      pop\n      pop\n      jump\t// out\n        /* \"#utility.yul\":5430:5538   */\n    tag_128:\n        /* \"#utility.yul\":5507:5531   */\n      tag_231\n        /* \"#utility.yul\":5525:5530   */\n      dup2\n        /* \"#utility.yul\":5507:5531   */\n      tag_111\n      jump\t// in\n    tag_231:\n        /* \"#utility.yul\":5502:5505   */\n      dup3\n        /* \"#utility.yul\":5495:5532   */\n      mstore\n        /* \"#utility.yul\":5430:5538   */\n      pop\n      pop\n      jump\t// out\n        /* \"#utility.yul\":5602:7061   */\n    tag_129:\n        /* \"#utility.yul\":5721:5724   */\n      0x00\n        /* \"#utility.yul\":5757:5761   */\n      0xc0\n        /* \"#utility.yul\":5752:5755   */\n      dup4\n        /* \"#utility.yul\":5748:5762   */\n      add\n        /* \"#utility.yul\":5844:5848   */\n      0x00\n        /* \"#utility.yul\":5837:5842   */\n      dup4\n        /* \"#utility.yul\":5833:5849   */\n      add\n        /* \"#utility.yul\":5827:5850   */\n      mload\n        /* \"#utility.yul\":5897:5900   */\n      dup5\n        /* \"#utility.yul\":5891:5895   */\n      dup3\n        /* \"#utility.yul\":5887:5901   */\n      sub\n        /* \"#utility.yul\":5880:5884   */\n      0x00\n        /* \"#utility.yul\":5875:5878   */\n      dup7\n        /* \"#utility.yul\":5871:5885   */\n      add\n        /* \"#utility.yul\":5864:5902   */\n      mstore\n        /* \"#utility.yul\":5923:5996   */\n      tag_233\n        /* \"#utility.yul\":5991:5995   */\n      dup3\n        /* \"#utility.yul\":5977:5989   */\n      dup3\n        /* \"#utility.yul\":5923:5996   */\n      tag_127\n      jump\t// in\n    tag_233:\n        /* \"#utility.yul\":5915:5996   */\n      swap2\n      pop\n        /* \"#utility.yul\":5772:6007   */\n      pop\n        /* \"#utility.yul\":6091:6095   */\n      0x20\n        /* \"#utility.yul\":6084:6089   */\n      dup4\n        /* \"#utility.yul\":6080:6096   */\n      add\n        /* \"#utility.yul\":6074:6097   */\n      mload\n        /* \"#utility.yul\":6144:6147   */\n      dup5\n        /* \"#utility.yul\":6138:6142   */\n      dup3\n        /* \"#utility.yul\":6134:6148   */\n      sub\n        /* \"#utility.yul\":6127:6131   */\n      0x20\n        /* \"#utility.yul\":6122:6125   */\n      dup7\n        /* \"#utility.yul\":6118:6132   */\n      add\n        /* \"#utility.yul\":6111:6149   */\n      mstore\n        /* \"#utility.yul\":6170:6243   */\n      tag_234\n        /* \"#utility.yul\":6238:6242   */\n      dup3\n        /* \"#utility.yul\":6224:6236   */\n      dup3\n        /* \"#utility.yul\":6170:6243   */\n      tag_127\n      jump\t// in\n    tag_234:\n        /* \"#utility.yul\":6162:6243   */\n      swap2\n      pop\n        /* \"#utility.yul\":6017:6254   */\n      pop\n        /* \"#utility.yul\":6338:6342   */\n      0x40\n        /* \"#utility.yul\":6331:6336   */\n      dup4\n        /* \"#utility.yul\":6327:6343   */\n      add\n        /* \"#utility.yul\":6321:6344   */\n      mload\n        /* \"#utility.yul\":6357:6420   */\n      tag_235\n        /* \"#utility.yul\":6414:6418   */\n      0x40\n        /* \"#utility.yul\":6409:6412   */\n      dup7\n        /* \"#utility.yul\":6405:6419   */\n      add\n        /* \"#utility.yul\":6391:6403   */\n      dup3\n        /* \"#utility.yul\":6357:6420   */\n      tag_128\n      jump\t// in\n    tag_235:\n        /* \"#utility.yul\":6264:6430   */\n      pop\n        /* \"#utility.yul\":6514:6518   */\n      0x60\n        /* \"#utility.yul\":6507:6512   */\n      dup4\n        /* \"#utility.yul\":6503:6519   */\n      add\n        /* \"#utility.yul\":6497:6520   */\n      mload\n        /* \"#utility.yul\":6533:6596   */\n      tag_236\n        /* \"#utility.yul\":6590:6594   */\n      0x60\n        /* \"#utility.yul\":6585:6588   */\n      dup7\n        /* \"#utility.yul\":6581:6595   */\n      add\n        /* \"#utility.yul\":6567:6579   */\n      dup3\n        /* \"#utility.yul\":6533:6596   */\n      tag_128\n      jump\t// in\n    tag_236:\n        /* \"#utility.yul\":6440:6606   */\n      pop\n        /* \"#utility.yul\":6696:6700   */\n      0x80\n        /* \"#utility.yul\":6689:6694   */\n      dup4\n        /* \"#utility.yul\":6685:6701   */\n      add\n        /* \"#utility.yul\":6679:6702   */\n      mload\n        /* \"#utility.yul\":6715:6778   */\n      tag_237\n        /* \"#utility.yul\":6772:6776   */\n      0x80\n        /* \"#utility.yul\":6767:6770   */\n      dup7\n        /* \"#utility.yul\":6763:6777   */\n      add\n        /* \"#utility.yul\":6749:6761   */\n      dup3\n        /* \"#utility.yul\":6715:6778   */\n      tag_128\n      jump\t// in\n    tag_237:\n        /* \"#utility.yul\":6616:6788   */\n      pop\n        /* \"#utility.yul\":6871:6875   */\n      0xa0\n        /* \"#utility.yul\":6864:6869   */\n      dup4\n        /* \"#utility.yul\":6860:6876   */\n      add\n        /* \"#utility.yul\":6854:6877   */\n      mload\n        /* \"#utility.yul\":6924:6927   */\n      dup5\n        /* \"#utility.yul\":6918:6922   */\n      dup3\n        /* \"#utility.yul\":6914:6928   */\n      sub\n        /* \"#utility.yul\":6907:6911   */\n      0xa0\n        /* \"#utility.yul\":6902:6905   */\n      dup7\n        /* \"#utility.yul\":6898:6912   */\n      add\n        /* \"#utility.yul\":6891:6929   */\n      mstore\n        /* \"#utility.yul\":6950:7023   */\n      tag_238\n        /* \"#utility.yul\":7018:7022   */\n      dup3\n        /* \"#utility.yul\":7004:7016   */\n      dup3\n        /* \"#utility.yul\":6950:7023   */\n      tag_127\n      jump\t// in\n    tag_238:\n        /* \"#utility.yul\":6942:7023   */\n      swap2\n      pop\n        /* \"#utility.yul\":6798:7034   */\n      pop\n        /* \"#utility.yul\":7051:7055   */\n      dup1\n        /* \"#utility.yul\":7044:7055   */\n      swap2\n      pop\n        /* \"#utility.yul\":5726:7061   */\n      pop\n        /* \"#utility.yul\":5602:7061   */\n      swap3\n      swap2\n      pop\n      pop\n      jump\t// out\n        /* \"#utility.yul\":7067:7440   */\n    tag_29:\n        /* \"#utility.yul\":7210:7214   */\n      0x00\n        /* \"#utility.yul\":7248:7250   */\n      0x20\n        /* \"#utility.yul\":7237:7246   */\n      dup3\n        /* \"#utility.yul\":7233:7251   */\n      add\n        /* \"#utility.yul\":7225:7251   */\n      swap1\n      pop\n        /* \"#utility.yul\":7297:7306   */\n      dup2\n        /* \"#utility.yul\":7291:7295   */\n      dup2\n        /* \"#utility.yul\":7287:7307   */\n      sub\n        /* \"#utility.yul\":7283:7284   */\n      0x00\n        /* \"#utility.yul\":7272:7281   */\n      dup4\n        /* \"#utility.yul\":7268:7285   */\n      add\n        /* \"#utility.yul\":7261:7308   */\n      mstore\n        /* \"#utility.yul\":7325:7433   */\n      tag_240\n        /* \"#utility.yul\":7428:7432   */\n      dup2\n        /* \"#utility.yul\":7419:7425   */\n      dup5\n        /* \"#utility.yul\":7325:7433   */\n      tag_129\n      jump\t// in\n    tag_240:\n        /* \"#utility.yul\":7317:7433   */\n      swap1\n      pop\n        /* \"#utility.yul\":7067:7440   */\n      swap3\n      swap2\n      pop\n      pop\n      jump\t// out\n        /* \"#utility.yul\":7446:7536   */\n    tag_130:\n        /* \"#utility.yul\":7480:7487   */\n      0x00\n        /* \"#utility.yul\":7523:7528   */\n      dup2\n        /* \"#utility.yul\":7516:7529   */\n      iszero\n        /* \"#utility.yul\":7509:7530   */\n      iszero\n        /* \"#utility.yul\":7498:7530   */\n      swap1\n      pop\n        /* \"#utility.yul\":7446:7536   */\n      swap2\n      swap1\n      pop\n      jump\t// out\n        /* \"#utility.yul\":7542:7651   */\n    tag_131:\n        /* \"#utility.yul\":7623:7644   */\n      tag_243\n        /* \"#utility.yul\":7638:7643   */\n      dup2\n        /* \"#utility.yul\":7623:7644   */\n      tag_130\n      jump\t// in\n    tag_243:\n        /* \"#utility.yul\":7618:7621   */\n      dup3\n        /* \"#utility.yul\":7611:7645   */\n      mstore\n        /* \"#utility.yul\":7542:7651   */\n      pop\n      pop\n      jump\t// out\n        /* \"#utility.yul\":7657:7867   */\n    tag_37:\n        /* \"#utility.yul\":7744:7748   */\n      0x00\n        /* \"#utility.yul\":7782:7784   */\n      0x20\n        /* \"#utility.yul\":7771:7780   */\n      dup3\n        /* \"#utility.yul\":7767:7785   */\n      add\n        /* \"#utility.yul\":7759:7785   */\n      swap1\n      pop\n        /* \"#utility.yul\":7795:7860   */\n      tag_245\n        /* \"#utility.yul\":7857:7858   */\n      0x00\n        /* \"#utility.yul\":7846:7855   */\n      dup4\n        /* \"#utility.yul\":7842:7859   */\n      add\n        /* \"#utility.yul\":7833:7839   */\n      dup5\n        /* \"#utility.yul\":7795:7860   */\n      tag_131\n      jump\t// in\n    tag_245:\n        /* \"#utility.yul\":7657:7867   */\n      swap3\n      swap2\n      pop\n      pop\n      jump\t// out\n        /* \"#utility.yul\":7873:7977   */\n    tag_132:\n        /* \"#utility.yul\":7918:7925   */\n      0x00\n        /* \"#utility.yul\":7947:7971   */\n      tag_247\n        /* \"#utility.yul\":7965:7970   */\n      dup3\n        /* \"#utility.yul\":7947:7971   */\n      tag_122\n      jump\t// in\n    tag_247:\n        /* \"#utility.yul\":7936:7971   */\n      swap1\n      pop\n        /* \"#utility.yul\":7873:7977   */\n      swap2\n      swap1\n      pop\n      jump\t// out\n        /* \"#utility.yul\":7983:8125   */\n    tag_133:\n        /* \"#utility.yul\":8086:8118   */\n      tag_249\n        /* \"#utility.yul\":8112:8117   */\n      dup2\n        /* \"#utility.yul\":8086:8118   */\n      tag_132\n      jump\t// in\n    tag_249:\n        /* \"#utility.yul\":8081:8084   */\n      dup3\n        /* \"#utility.yul\":8074:8119   */\n      mstore\n        /* \"#utility.yul\":7983:8125   */\n      pop\n      pop\n      jump\t// out\n        /* \"#utility.yul\":8131:8385   */\n    tag_41:\n        /* \"#utility.yul\":8240:8244   */\n      0x00\n        /* \"#utility.yul\":8278:8280   */\n      0x20\n        /* \"#utility.yul\":8267:8276   */\n      dup3\n        /* \"#utility.yul\":8263:8281   */\n      add\n        /* \"#utility.yul\":8255:8281   */\n      swap1\n      pop\n        /* \"#utility.yul\":8291:8378   */\n      tag_251\n        /* \"#utility.yul\":8375:8376   */\n      0x00\n        /* \"#utility.yul\":8364:8373   */\n      dup4\n        /* \"#utility.yul\":8360:8377   */\n      add\n        /* \"#utility.yul\":8351:8357   */\n      dup5\n        /* \"#utility.yul\":8291:8378   */\n      tag_133\n      jump\t// in\n    tag_251:\n        /* \"#utility.yul\":8131:8385   */\n      swap3\n      swap2\n      pop\n      pop\n      jump\t// out\n        /* \"#utility.yul\":8391:8571   */\n    tag_134:\n        /* \"#utility.yul\":8439:8516   */\n      0x4e487b7100000000000000000000000000000000000000000000000000000000\n        /* \"#utility.yul\":8436:8437   */\n      0x00\n        /* \"#utility.yul\":8429:8517   */\n      mstore\n        /* \"#utility.yul\":8536:8540   */\n      0x22\n        /* \"#utility.yul\":8533:8534   */\n      0x04\n        /* \"#utility.yul\":8526:8541   */\n      mstore\n        /* \"#utility.yul\":8560:8564   */\n      0x24\n        /* \"#utility.yul\":8557:8558   */\n      0x00\n        /* \"#utility.yul\":8550:8565   */\n      revert\n        /* \"#utility.yul\":8577:8897   */\n    tag_43:\n        /* \"#utility.yul\":8621:8627   */\n      0x00\n        /* \"#utility.yul\":8658:8659   */\n      0x02\n        /* \"#utility.yul\":8652:8656   */\n      dup3\n        /* \"#utility.yul\":8648:8660   */\n      div\n        /* \"#utility.yul\":8638:8660   */\n      swap1\n      pop\n        /* \"#utility.yul\":8705:8706   */\n      0x01\n        /* \"#utility.yul\":8699:8703   */\n      dup3\n        /* \"#utility.yul\":8695:8707   */\n      and\n        /* \"#utility.yul\":8726:8744   */\n      dup1\n        /* \"#utility.yul\":8716:8797   */\n      tag_254\n      jumpi\n        /* \"#utility.yul\":8782:8786   */\n      0x7f\n        /* \"#utility.yul\":8774:8780   */\n      dup3\n        /* \"#utility.yul\":8770:8787   */\n      and\n        /* \"#utility.yul\":8760:8787   */\n      swap2\n      pop\n        /* \"#utility.yul\":8716:8797   */\n    tag_254:\n        /* \"#utility.yul\":8844:8846   */\n      0x20\n        /* \"#utility.yul\":8836:8842   */\n      dup3\n        /* \"#utility.yul\":8833:8847   */\n      lt\n        /* \"#utility.yul\":8813:8831   */\n      dup2\n        /* \"#utility.yul\":8810:8848   */\n      sub\n        /* \"#utility.yul\":8807:8891   */\n      tag_255\n      jumpi\n        /* \"#utility.yul\":8863:8881   */\n      tag_256\n      tag_134\n      jump\t// in\n    tag_256:\n        /* \"#utility.yul\":8807:8891   */\n    tag_255:\n        /* \"#utility.yul\":8628:8897   */\n      pop\n        /* \"#utility.yul\":8577:8897   */\n      swap2\n      swap1\n      pop\n      jump\t// out\n        /* \"#utility.yul\":8903:9139   */\n    tag_135:\n        /* \"#utility.yul\":9043:9077   */\n      0x4f6e6c7920617574686f72697a6564206164647265737365732063616e207065\n        /* \"#utility.yul\":9039:9040   */\n      0x00\n        /* \"#utility.yul\":9031:9037   */\n      dup3\n        /* \"#utility.yul\":9027:9041   */\n      add\n        /* \"#utility.yul\":9020:9078   */\n      mstore\n        /* \"#utility.yul\":9112:9131   */\n      0x72666f726d207468697320616374696f6e000000000000000000000000000000\n        /* \"#utility.yul\":9107:9109   */\n      0x20\n        /* \"#utility.yul\":9099:9105   */\n      dup3\n        /* \"#utility.yul\":9095:9110   */\n      add\n        /* \"#utility.yul\":9088:9132   */\n      mstore\n        /* \"#utility.yul\":8903:9139   */\n      pop\n      jump\t// out\n        /* \"#utility.yul\":9145:9511   */\n    tag_136:\n        /* \"#utility.yul\":9287:9290   */\n      0x00\n        /* \"#utility.yul\":9308:9375   */\n      tag_259\n        /* \"#utility.yul\":9372:9374   */\n      0x31\n        /* \"#utility.yul\":9367:9370   */\n      dup4\n        /* \"#utility.yul\":9308:9375   */\n      tag_115\n      jump\t// in\n    tag_259:\n        /* \"#utility.yul\":9301:9375   */\n      swap2\n      pop\n        /* \"#utility.yul\":9384:9477   */\n      tag_260\n        /* \"#utility.yul\":9473:9476   */\n      dup3\n        /* \"#utility.yul\":9384:9477   */\n      tag_135\n      jump\t// in\n    tag_260:\n        /* \"#utility.yul\":9502:9504   */\n      0x40\n        /* \"#utility.yul\":9497:9500   */\n      dup3\n        /* \"#utility.yul\":9493:9505   */\n      add\n        /* \"#utility.yul\":9486:9505   */\n      swap1\n      pop\n        /* \"#utility.yul\":9145:9511   */\n      swap2\n      swap1\n      pop\n      jump\t// out\n        /* \"#utility.yul\":9517:9936   */\n    tag_61:\n        /* \"#utility.yul\":9683:9687   */\n      0x00\n        /* \"#utility.yul\":9721:9723   */\n      0x20\n        /* \"#utility.yul\":9710:9719   */\n      dup3\n        /* \"#utility.yul\":9706:9724   */\n      add\n        /* \"#utility.yul\":9698:9724   */\n      swap1\n      pop\n        /* \"#utility.yul\":9770:9779   */\n      dup2\n        /* \"#utility.yul\":9764:9768   */\n      dup2\n        /* \"#utility.yul\":9760:9780   */\n      sub\n        /* \"#utility.yul\":9756:9757   */\n      0x00\n        /* \"#utility.yul\":9745:9754   */\n      dup4\n        /* \"#utility.yul\":9741:9758   */\n      add\n        /* \"#utility.yul\":9734:9781   */\n      mstore\n        /* \"#utility.yul\":9798:9929   */\n      tag_262\n        /* \"#utility.yul\":9924:9928   */\n      dup2\n        /* \"#utility.yul\":9798:9929   */\n      tag_136\n      jump\t// in\n    tag_262:\n        /* \"#utility.yul\":9790:9929   */\n      swap1\n      pop\n        /* \"#utility.yul\":9517:9936   */\n      swap2\n      swap1\n      pop\n      jump\t// out\n        /* \"#utility.yul\":10128:10245   */\n    tag_138:\n        /* \"#utility.yul\":10237:10238   */\n      0x00\n        /* \"#utility.yul\":10234:10235   */\n      dup1\n        /* \"#utility.yul\":10227:10239   */\n      revert\n        /* \"#utility.yul\":10251:10368   */\n    tag_139:\n        /* \"#utility.yul\":10360:10361   */\n      0x00\n        /* \"#utility.yul\":10357:10358   */\n      dup1\n        /* \"#utility.yul\":10350:10362   */\n      revert\n        /* \"#utility.yul\":10374:10491   */\n    tag_140:\n        /* \"#utility.yul\":10483:10484   */\n      0x00\n        /* \"#utility.yul\":10480:10481   */\n      dup1\n        /* \"#utility.yul\":10473:10485   */\n      revert\n        /* \"#utility.yul\":10497:11222   */\n    tag_141:\n        /* \"#utility.yul\":10575:10579   */\n      0x00\n        /* \"#utility.yul\":10581:10587   */\n      dup1\n        /* \"#utility.yul\":10637:10648   */\n      dup4\n        /* \"#utility.yul\":10624:10649   */\n      calldataload\n        /* \"#utility.yul\":10737:10738   */\n      0x01\n        /* \"#utility.yul\":10731:10735   */\n      0x20\n        /* \"#utility.yul\":10727:10739   */\n      sub\n        /* \"#utility.yul\":10716:10724   */\n      dup5\n        /* \"#utility.yul\":10700:10714   */\n      calldatasize\n        /* \"#utility.yul\":10696:10725   */\n      sub\n        /* \"#utility.yul\":10692:10740   */\n      sub\n        /* \"#utility.yul\":10672:10690   */\n      dup2\n        /* \"#utility.yul\":10668:10741   */\n      slt\n        /* \"#utility.yul\":10658:10826   */\n      tag_268\n      jumpi\n        /* \"#utility.yul\":10745:10824   */\n      tag_269\n      tag_138\n      jump\t// in\n    tag_269:\n        /* \"#utility.yul\":10658:10826   */\n    tag_268:\n        /* \"#utility.yul\":10857:10875   */\n      dup1\n        /* \"#utility.yul\":10847:10855   */\n      dup5\n        /* \"#utility.yul\":10843:10876   */\n      add\n        /* \"#utility.yul\":10835:10876   */\n      swap3\n      pop\n        /* \"#utility.yul\":10909:10913   */\n      dup3\n        /* \"#utility.yul\":10896:10914   */\n      calldataload\n        /* \"#utility.yul\":10886:10914   */\n      swap2\n      pop\n        /* \"#utility.yul\":10937:10955   */\n      0xffffffffffffffff\n        /* \"#utility.yul\":10929:10935   */\n      dup3\n        /* \"#utility.yul\":10926:10956   */\n      gt\n        /* \"#utility.yul\":10923:11040   */\n      iszero\n      tag_270\n      jumpi\n        /* \"#utility.yul\":10959:11038   */\n      tag_271\n      tag_139\n      jump\t// in\n    tag_271:\n        /* \"#utility.yul\":10923:11040   */\n    tag_270:\n        /* \"#utility.yul\":11067:11069   */\n      0x20\n        /* \"#utility.yul\":11061:11065   */\n      dup4\n        /* \"#utility.yul\":11057:11070   */\n      add\n        /* \"#utility.yul\":11049:11070   */\n      swap3\n      pop\n        /* \"#utility.yul\":11124:11128   */\n      0x01\n        /* \"#utility.yul\":11116:11122   */\n      dup3\n        /* \"#utility.yul\":11112:11129   */\n      mul\n        /* \"#utility.yul\":11096:11110   */\n      calldatasize\n        /* \"#utility.yul\":11092:11130   */\n      sub\n        /* \"#utility.yul\":11086:11090   */\n      dup4\n        /* \"#utility.yul\":11082:11131   */\n      sgt\n        /* \"#utility.yul\":11079:11215   */\n      iszero\n      tag_272\n      jumpi\n        /* \"#utility.yul\":11134:11213   */\n      tag_273\n      tag_140\n      jump\t// in\n    tag_273:\n        /* \"#utility.yul\":11079:11215   */\n    tag_272:\n        /* \"#utility.yul\":10588:11222   */\n      pop\n        /* \"#utility.yul\":10497:11222   */\n      swap3\n      pop\n      swap3\n      swap1\n      pop\n      jump\t// out\n        /* \"#utility.yul\":11228:11325   */\n    tag_142:\n        /* \"#utility.yul\":11287:11293   */\n      0x00\n        /* \"#utility.yul\":11315:11318   */\n      dup3\n        /* \"#utility.yul\":11305:11318   */\n      swap1\n      pop\n        /* \"#utility.yul\":11228:11325   */\n      swap3\n      swap2\n      pop\n      pop\n      jump\t// out\n        /* \"#utility.yul\":11331:11511   */\n    tag_143:\n        /* \"#utility.yul\":11379:11456   */\n      0x4e487b7100000000000000000000000000000000000000000000000000000000\n        /* \"#utility.yul\":11376:11377   */\n      0x00\n        /* \"#utility.yul\":11369:11457   */\n      mstore\n        /* \"#utility.yul\":11476:11480   */\n      0x41\n        /* \"#utility.yul\":11473:11474   */\n      0x04\n        /* \"#utility.yul\":11466:11481   */\n      mstore\n        /* \"#utility.yul\":11500:11504   */\n      0x24\n        /* \"#utility.yul\":11497:11498   */\n      0x00\n        /* \"#utility.yul\":11490:11505   */\n      revert\n        /* \"#utility.yul\":11517:11658   */\n    tag_144:\n        /* \"#utility.yul\":11566:11570   */\n      0x00\n        /* \"#utility.yul\":11589:11592   */\n      dup2\n        /* \"#utility.yul\":11581:11592   */\n      swap1\n      pop\n        /* \"#utility.yul\":11612:11615   */\n      dup2\n        /* \"#utility.yul\":11609:11610   */\n      0x00\n        /* \"#utility.yul\":11602:11616   */\n      mstore\n        /* \"#utility.yul\":11646:11650   */\n      0x20\n        /* \"#utility.yul\":11643:11644   */\n      0x00\n        /* \"#utility.yul\":11633:11651   */\n      keccak256\n        /* \"#utility.yul\":11625:11651   */\n      swap1\n      pop\n        /* \"#utility.yul\":11517:11658   */\n      swap2\n      swap1\n      pop\n      jump\t// out\n        /* \"#utility.yul\":11664:11757   */\n    tag_145:\n        /* \"#utility.yul\":11701:11707   */\n      0x00\n        /* \"#utility.yul\":11748:11750   */\n      0x20\n        /* \"#utility.yul\":11743:11745   */\n      0x1f\n        /* \"#utility.yul\":11736:11741   */\n      dup4\n        /* \"#utility.yul\":11732:11746   */\n      add\n        /* \"#utility.yul\":11728:11751   */\n      div\n        /* \"#utility.yul\":11718:11751   */\n      swap1\n      pop\n        /* \"#utility.yul\":11664:11757   */\n      swap2\n      swap1\n      pop\n      jump\t// out\n        /* \"#utility.yul\":11763:11870   */\n    tag_146:\n        /* \"#utility.yul\":11807:11815   */\n      0x00\n        /* \"#utility.yul\":11857:11862   */\n      dup3\n        /* \"#utility.yul\":11851:11855   */\n      dup3\n        /* \"#utility.yul\":11847:11863   */\n      shl\n        /* \"#utility.yul\":11826:11863   */\n      swap1\n      pop\n        /* \"#utility.yul\":11763:11870   */\n      swap3\n      swap2\n      pop\n      pop\n      jump\t// out\n        /* \"#utility.yul\":11876:12269   */\n    tag_147:\n        /* \"#utility.yul\":11945:11951   */\n      0x00\n        /* \"#utility.yul\":11995:11996   */\n      0x08\n        /* \"#utility.yul\":11983:11993   */\n      dup4\n        /* \"#utility.yul\":11979:11997   */\n      mul\n        /* \"#utility.yul\":12018:12115   */\n      tag_280\n        /* \"#utility.yul\":12048:12114   */\n      0xffffffffffffffffffffffffffffffffffffffffffffffffffffffffffffffff\n        /* \"#utility.yul\":12037:12046   */\n      dup3\n        /* \"#utility.yul\":12018:12115   */\n      tag_146\n      jump\t// in\n    tag_280:\n        /* \"#utility.yul\":12136:12175   */\n      tag_281\n        /* \"#utility.yul\":12166:12174   */\n      dup7\n        /* \"#utility.yul\":12155:12164   */\n      dup4\n        /* \"#utility.yul\":12136:12175   */\n      tag_146\n      jump\t// in\n    tag_281:\n        /* \"#utility.yul\":12124:12175   */\n      swap6\n      pop\n        /* \"#utility.yul\":12208:12212   */\n      dup1\n        /* \"#utility.yul\":12204:12213   */\n      not\n        /* \"#utility.yul\":12197:12202   */\n      dup5\n        /* \"#utility.yul\":12193:12214   */\n      and\n        /* \"#utility.yul\":12184:12214   */\n      swap4\n      pop\n        /* \"#utility.yul\":12257:12261   */\n      dup1\n        /* \"#utility.yul\":12247:12255   */\n      dup7\n        /* \"#utility.yul\":12243:12262   */\n      and\n        /* \"#utility.yul\":12236:12241   */\n      dup5\n        /* \"#utility.yul\":12233:12263   */\n      or\n        /* \"#utility.yul\":12223:12263   */\n      swap3\n      pop\n        /* \"#utility.yul\":11952:12269   */\n      pop\n      pop\n        /* \"#utility.yul\":11876:12269   */\n      swap4\n      swap3\n      pop\n      pop\n      pop\n      jump\t// out\n        /* \"#utility.yul\":12275:12335   */\n    tag_148:\n        /* \"#utility.yul\":12303:12306   */\n      0x00\n        /* \"#utility.yul\":12324:12329   */\n      dup2\n        /* \"#utility.yul\":12317:12329   */\n      swap1\n      pop\n        /* \"#utility.yul\":12275:12335   */\n      swap2\n      swap1\n      pop\n      jump\t// out\n        /* \"#utility.yul\":12341:12483   */\n    tag_149:\n        /* \"#utility.yul\":12391:12400   */\n      0x00\n        /* \"#utility.yul\":12424:12477   */\n      tag_284\n        /* \"#utility.yul\":12442:12476   */\n      tag_285\n        /* \"#utility.yul\":12451:12475   */\n      tag_286\n        /* \"#utility.yul\":12469:12474   */\n      dup5\n        /* \"#utility.yul\":12451:12475   */\n      tag_111\n      jump\t// in\n    tag_286:\n        /* \"#utility.yul\":12442:12476   */\n      tag_148\n      jump\t// in\n    tag_285:\n        /* \"#utility.yul\":12424:12477   */\n      tag_111\n      jump\t// in\n    tag_284:\n        /* \"#utility.yul\":12411:12477   */\n      swap1\n      pop\n        /* \"#utility.yul\":12341:12483   */\n      swap2\n      swap1\n      pop\n      jump\t// out\n        /* \"#utility.yul\":12489:12564   */\n    tag_150:\n        /* \"#utility.yul\":12532:12535   */\n      0x00\n        /* \"#utility.yul\":12553:12558   */\n      dup2\n        /* \"#utility.yul\":12546:12558   */\n      swap1\n      pop\n        /* \"#utility.yul\":12489:12564   */\n      swap2\n      swap1\n      pop\n      jump\t// out\n        /* \"#utility.yul\":12570:12839   */\n    tag_151:\n        /* \"#utility.yul\":12680:12719   */\n      tag_289\n        /* \"#utility.yul\":12711:12718   */\n      dup4\n        /* \"#utility.yul\":12680:12719   */\n      tag_149\n      jump\t// in\n    tag_289:\n        /* \"#utility.yul\":12741:12832   */\n      tag_290\n        /* \"#utility.yul\":12790:12831   */\n      tag_291\n        /* \"#utility.yul\":12814:12830   */\n      dup3\n        /* \"#utility.yul\":12790:12831   */\n      tag_150\n      jump\t// in\n    tag_291:\n        /* \"#utility.yul\":12782:12788   */\n      dup5\n        /* \"#utility.yul\":12775:12779   */\n      dup5\n        /* \"#utility.yul\":12769:12780   */\n      sload\n        /* \"#utility.yul\":12741:12832   */\n      tag_147\n      jump\t// in\n    tag_290:\n        /* \"#utility.yul\":12735:12739   */\n      dup3\n        /* \"#utility.yul\":12728:12833   */\n      sstore\n        /* \"#utility.yul\":12646:12839   */\n      pop\n        /* \"#utility.yul\":12570:12839   */\n      pop\n      pop\n      pop\n      jump\t// out\n        /* \"#utility.yul\":12845:12918   */\n    tag_152:\n        /* \"#utility.yul\":12890:12893   */\n      0x00\n        /* \"#utility.yul\":12845:12918   */\n      swap1\n      jump\t// out\n        /* \"#utility.yul\":12924:13113   */\n    tag_153:\n        /* \"#utility.yul\":13001:13033   */\n      tag_294\n      tag_152\n      jump\t// in\n    tag_294:\n        /* \"#utility.yul\":13042:13107   */\n      tag_295\n        /* \"#utility.yul\":13100:13106   */\n      dup2\n        /* \"#utility.yul\":13092:13098   */\n      dup5\n        /* \"#utility.yul\":13086:13090   */\n      dup5\n        /* \"#utility.yul\":13042:13107   */\n      tag_151\n      jump\t// in\n    tag_295:\n        /* \"#utility.yul\":12977:13113   */\n      pop\n        /* \"#utility.yul\":12924:13113   */\n      pop\n      pop\n      jump\t// out\n        /* \"#utility.yul\":13119:13305   */\n    tag_154:\n        /* \"#utility.yul\":13179:13299   */\n    tag_297:\n        /* \"#utility.yul\":13196:13199   */\n      dup2\n        /* \"#utility.yul\":13189:13194   */\n      dup2\n        /* \"#utility.yul\":13186:13200   */\n      lt\n        /* \"#utility.yul\":13179:13299   */\n      iszero\n      tag_299\n      jumpi\n        /* \"#utility.yul\":13250:13289   */\n      tag_300\n        /* \"#utility.yul\":13287:13288   */\n      0x00\n        /* \"#utility.yul\":13280:13285   */\n      dup3\n        /* \"#utility.yul\":13250:13289   */\n      tag_153\n      jump\t// in\n    tag_300:\n        /* \"#utility.yul\":13223:13224   */\n      0x01\n        /* \"#utility.yul\":13216:13221   */\n      dup2\n        /* \"#utility.yul\":13212:13225   */\n      add\n        /* \"#utility.yul\":13203:13225   */\n      swap1\n      pop\n        /* \"#utility.yul\":13179:13299   */\n      jump(tag_297)\n    tag_299:\n        /* \"#utility.yul\":13119:13305   */\n      pop\n      pop\n      jump\t// out\n        /* \"#utility.yul\":13311:13854   */\n    tag_155:\n        /* \"#utility.yul\":13412:13414   */\n      0x1f\n        /* \"#utility.yul\":13407:13410   */\n      dup3\n        /* \"#utility.yul\":13404:13415   */\n      gt\n        /* \"#utility.yul\":13401:13847   */\n      iszero\n      tag_302\n      jumpi\n        /* \"#utility.yul\":13446:13484   */\n      tag_303\n        /* \"#utility.yul\":13478:13483   */\n      dup2\n        /* \"#utility.yul\":13446:13484   */\n      tag_144\n      jump\t// in\n    tag_303:\n        /* \"#utility.yul\":13530:13559   */\n      tag_304\n        /* \"#utility.yul\":13548:13558   */\n      dup5\n        /* \"#utility.yul\":13530:13559   */\n      tag_145\n      jump\t// in\n    tag_304:\n        /* \"#utility.yul\":13520:13528   */\n      dup2\n        /* \"#utility.yul\":13516:13560   */\n      add\n        /* \"#utility.yul\":13713:13715   */\n      0x20\n        /* \"#utility.yul\":13701:13711   */\n      dup6\n        /* \"#utility.yul\":13698:13716   */\n      lt\n        /* \"#utility.yul\":13695:13744   */\n      iszero\n      tag_305\n      jumpi\n        /* \"#utility.yul\":13734:13742   */\n      dup2\n        /* \"#utility.yul\":13719:13742   */\n      swap1\n      pop\n        /* \"#utility.yul\":13695:13744   */\n    tag_305:\n        /* \"#utility.yul\":13757:13837   */\n      tag_306\n        /* \"#utility.yul\":13813:13835   */\n      tag_307\n        /* \"#utility.yul\":13831:13834   */\n      dup6\n        /* \"#utility.yul\":13813:13835   */\n      tag_145\n      jump\t// in\n    tag_307:\n        /* \"#utility.yul\":13803:13811   */\n      dup4\n        /* \"#utility.yul\":13799:13836   */\n      add\n        /* \"#utility.yul\":13786:13797   */\n      dup3\n        /* \"#utility.yul\":13757:13837   */\n      tag_154\n      jump\t// in\n    tag_306:\n        /* \"#utility.yul\":13416:13847   */\n      pop\n      pop\n        /* \"#utility.yul\":13401:13847   */\n    tag_302:\n        /* \"#utility.yul\":13311:13854   */\n      pop\n      pop\n      pop\n      jump\t// out\n        /* \"#utility.yul\":13860:13977   */\n    tag_156:\n        /* \"#utility.yul\":13914:13922   */\n      0x00\n        /* \"#utility.yul\":13964:13969   */\n      dup3\n        /* \"#utility.yul\":13958:13962   */\n      dup3\n        /* \"#utility.yul\":13954:13970   */\n      shr\n        /* \"#utility.yul\":13933:13970   */\n      swap1\n      pop\n        /* \"#utility.yul\":13860:13977   */\n      swap3\n      swap2\n      pop\n      pop\n      jump\t// out\n        /* \"#utility.yul\":13983:14152   */\n    tag_157:\n        /* \"#utility.yul\":14027:14033   */\n      0x00\n        /* \"#utility.yul\":14060:14111   */\n      tag_310\n        /* \"#utility.yul\":14108:14109   */\n      0x00\n        /* \"#utility.yul\":14104:14110   */\n      not\n        /* \"#utility.yul\":14096:14101   */\n      dup5\n        /* \"#utility.yul\":14093:14094   */\n      0x08\n        /* \"#utility.yul\":14089:14102   */\n      mul\n        /* \"#utility.yul\":14060:14111   */\n      tag_156\n      jump\t// in\n    tag_310:\n        /* \"#utility.yul\":14056:14112   */\n      not\n        /* \"#utility.yul\":14141:14145   */\n      dup1\n        /* \"#utility.yul\":14135:14139   */\n      dup4\n        /* \"#utility.yul\":14131:14146   */\n      and\n        /* \"#utility.yul\":14121:14146   */\n      swap2\n      pop\n        /* \"#utility.yul\":14034:14152   */\n      pop\n        /* \"#utility.yul\":13983:14152   */\n      swap3\n      swap2\n      pop\n      pop\n      jump\t// out\n        /* \"#utility.yul\":14157:14452   */\n    tag_158:\n        /* \"#utility.yul\":14233:14237   */\n      0x00\n        /* \"#utility.yul\":14379:14408   */\n      tag_312\n        /* \"#utility.yul\":14404:14407   */\n      dup4\n        /* \"#utility.yul\":14398:14402   */\n      dup4\n        /* \"#utility.yul\":14379:14408   */\n      tag_157\n      jump\t// in\n    tag_312:\n        /* \"#utility.yul\":14371:14408   */\n      swap2\n      pop\n        /* \"#utility.yul\":14441:14444   */\n      dup3\n        /* \"#utility.yul\":14438:14439   */\n      0x02\n        /* \"#utility.yul\":14434:14445   */\n      mul\n        /* \"#utility.yul\":14428:14432   */\n      dup3\n        /* \"#utility.yul\":14425:14446   */\n      or\n        /* \"#utility.yul\":14417:14446   */\n      swap1\n      pop\n        /* \"#utility.yul\":14157:14452   */\n      swap3\n      swap2\n      pop\n      pop\n      jump\t// out\n        /* \"#utility.yul\":14457:15860   */\n    tag_159:\n        /* \"#utility.yul\":14581:14625   */\n      tag_314\n        /* \"#utility.yul\":14621:14624   */\n      dup4\n        /* \"#utility.yul\":14616:14619   */\n      dup4\n        /* \"#utility.yul\":14581:14625   */\n      tag_142\n      jump\t// in\n    tag_314:\n        /* \"#utility.yul\":14690:14708   */\n      0xffffffffffffffff\n        /* \"#utility.yul\":14682:14688   */\n      dup2\n        /* \"#utility.yul\":14679:14709   */\n      gt\n        /* \"#utility.yul\":14676:14732   */\n      iszero\n      tag_315\n      jumpi\n        /* \"#utility.yul\":14712:14730   */\n      tag_316\n      tag_143\n      jump\t// in\n    tag_316:\n        /* \"#utility.yul\":14676:14732   */\n    tag_315:\n        /* \"#utility.yul\":14756:14794   */\n      tag_317\n        /* \"#utility.yul\":14788:14792   */\n      dup3\n        /* \"#utility.yul\":14782:14793   */\n      sload\n        /* \"#utility.yul\":14756:14794   */\n      tag_43\n      jump\t// in\n    tag_317:\n        /* \"#utility.yul\":14841:14908   */\n      tag_318\n        /* \"#utility.yul\":14901:14907   */\n      dup3\n        /* \"#utility.yul\":14893:14899   */\n      dup3\n        /* \"#utility.yul\":14887:14891   */\n      dup6\n        /* \"#utility.yul\":14841:14908   */\n      tag_155\n      jump\t// in\n    tag_318:\n        /* \"#utility.yul\":14935:14936   */\n      0x00\n        /* \"#utility.yul\":14964:14966   */\n      0x1f\n        /* \"#utility.yul\":14956:14962   */\n      dup4\n        /* \"#utility.yul\":14953:14967   */\n      gt\n        /* \"#utility.yul\":14981:14982   */\n      0x01\n        /* \"#utility.yul\":14976:15608   */\n      dup2\n      eq\n      tag_320\n      jumpi\n        /* \"#utility.yul\":15652:15653   */\n      0x00\n        /* \"#utility.yul\":15669:15675   */\n      dup5\n        /* \"#utility.yul\":15666:15750   */\n      iszero\n      tag_321\n      jumpi\n        /* \"#utility.yul\":15725:15734   */\n      dup3\n        /* \"#utility.yul\":15720:15723   */\n      dup8\n        /* \"#utility.yul\":15716:15735   */\n      add\n        /* \"#utility.yul\":15703:15736   */\n      calldataload\n        /* \"#utility.yul\":15694:15736   */\n      swap1\n      pop\n        /* \"#utility.yul\":15666:15750   */\n    tag_321:\n        /* \"#utility.yul\":15776:15843   */\n      tag_322\n        /* \"#utility.yul\":15836:15842   */\n      dup6\n        /* \"#utility.yul\":15829:15834   */\n      dup3\n        /* \"#utility.yul\":15776:15843   */\n      tag_158\n      jump\t// in\n    tag_322:\n        /* \"#utility.yul\":15770:15774   */\n      dup7\n        /* \"#utility.yul\":15763:15844   */\n      sstore\n        /* \"#utility.yul\":15625:15854   */\n      pop\n        /* \"#utility.yul\":14946:15854   */\n      jump(tag_319)\n        /* \"#utility.yul\":14976:15608   */\n    tag_320:\n        /* \"#utility.yul\":15028:15032   */\n      0x1f\n        /* \"#utility.yul\":15024:15033   */\n      not\n        /* \"#utility.yul\":15016:15022   */\n      dup5\n        /* \"#utility.yul\":15012:15034   */\n      and\n        /* \"#utility.yul\":15062:15099   */\n      tag_323\n        /* \"#utility.yul\":15094:15098   */\n      dup7\n        /* \"#utility.yul\":15062:15099   */\n      tag_144\n      jump\t// in\n    tag_323:\n        /* \"#utility.yul\":15121:15122   */\n      0x00\n        /* \"#utility.yul\":15135:15350   */\n    tag_324:\n        /* \"#utility.yul\":15149:15156   */\n      dup3\n        /* \"#utility.yul\":15146:15147   */\n      dup2\n        /* \"#utility.yul\":15143:15157   */\n      lt\n        /* \"#utility.yul\":15135:15350   */\n      iszero\n      tag_326\n      jumpi\n        /* \"#utility.yul\":15235:15244   */\n      dup5\n        /* \"#utility.yul\":15230:15233   */\n      dup10\n        /* \"#utility.yul\":15226:15245   */\n      add\n        /* \"#utility.yul\":15213:15246   */\n      calldataload\n        /* \"#utility.yul\":15205:15211   */\n      dup3\n        /* \"#utility.yul\":15198:15247   */\n      sstore\n        /* \"#utility.yul\":15286:15287   */\n      0x01\n        /* \"#utility.yul\":15278:15284   */\n      dup3\n        /* \"#utility.yul\":15274:15288   */\n      add\n        /* \"#utility.yul\":15264:15288   */\n      swap2\n      pop\n        /* \"#utility.yul\":15333:15335   */\n      0x20\n        /* \"#utility.yul\":15322:15331   */\n      dup6\n        /* \"#utility.yul\":15318:15336   */\n      add\n        /* \"#utility.yul\":15305:15336   */\n      swap5\n      pop\n        /* \"#utility.yul\":15172:15176   */\n      0x20\n        /* \"#utility.yul\":15169:15170   */\n      dup2\n        /* \"#utility.yul\":15165:15177   */\n      add\n        /* \"#utility.yul\":15160:15177   */\n      swap1\n      pop\n        /* \"#utility.yul\":15135:15350   */\n      jump(tag_324)\n    tag_326:\n        /* \"#utility.yul\":15378:15384   */\n      dup7\n        /* \"#utility.yul\":15369:15376   */\n      dup4\n        /* \"#utility.yul\":15366:15385   */\n      lt\n        /* \"#utility.yul\":15363:15549   */\n      iszero\n      tag_327\n      jumpi\n        /* \"#utility.yul\":15443:15452   */\n      dup5\n        /* \"#utility.yul\":15438:15441   */\n      dup10\n        /* \"#utility.yul\":15434:15453   */\n      add\n        /* \"#utility.yul\":15421:15454   */\n      calldataload\n        /* \"#utility.yul\":15486:15534   */\n      tag_328\n        /* \"#utility.yul\":15528:15532   */\n      0x1f\n        /* \"#utility.yul\":15520:15526   */\n      dup10\n        /* \"#utility.yul\":15516:15533   */\n      and\n        /* \"#utility.yul\":15505:15514   */\n      dup3\n        /* \"#utility.yul\":15486:15534   */\n      tag_157\n      jump\t// in\n    tag_328:\n        /* \"#utility.yul\":15478:15484   */\n      dup4\n        /* \"#utility.yul\":15471:15535   */\n      sstore\n        /* \"#utility.yul\":15386:15549   */\n      pop\n        /* \"#utility.yul\":15363:15549   */\n    tag_327:\n        /* \"#utility.yul\":15595:15596   */\n      0x01\n        /* \"#utility.yul\":15591:15592   */\n      0x02\n        /* \"#utility.yul\":15583:15589   */\n      dup9\n        /* \"#utility.yul\":15579:15593   */\n      mul\n        /* \"#utility.yul\":15575:15597   */\n      add\n        /* \"#utility.yul\":15569:15573   */\n      dup9\n        /* \"#utility.yul\":15562:15598   */\n      sstore\n        /* \"#utility.yul\":14983:15608   */\n      pop\n      pop\n      pop\n        /* \"#utility.yul\":14946:15854   */\n    tag_319:\n      pop\n        /* \"#utility.yul\":14556:15860   */\n      pop\n      pop\n      pop\n        /* \"#utility.yul\":14457:15860   */\n      pop\n      pop\n      pop\n      jump\t// out\n        /* \"#utility.yul\":15866:16084   */\n    tag_160:\n        /* \"#utility.yul\":15981:16078   */\n      tag_330\n        /* \"#utility.yul\":16070:16077   */\n      dup4\n        /* \"#utility.yul\":16061:16068   */\n      dup4\n        /* \"#utility.yul\":16055:16059   */\n      dup4\n        /* \"#utility.yul\":15981:16078   */\n      tag_159\n      jump\t// in\n    tag_330:\n        /* \"#utility.yul\":15866:16084   */\n      pop\n      pop\n      pop\n      jump\t// out\n        /* \"#utility.yul\":16090:16276   */\n    tag_161:\n        /* \"#utility.yul\":16135:16146   */\n      0x00\n        /* \"#utility.yul\":16184:16187   */\n      dup2\n        /* \"#utility.yul\":16171:16188   */\n      calldataload\n        /* \"#utility.yul\":16197:16230   */\n      tag_332\n        /* \"#utility.yul\":16224:16229   */\n      dup2\n        /* \"#utility.yul\":16197:16230   */\n      tag_112\n      jump\t// in\n    tag_332:\n        /* \"#utility.yul\":16264:16269   */\n      dup1\n        /* \"#utility.yul\":16240:16269   */\n      swap2\n      pop\n        /* \"#utility.yul\":16147:16276   */\n      pop\n        /* \"#utility.yul\":16090:16276   */\n      swap2\n      swap1\n      pop\n      jump\t// out\n        /* \"#utility.yul\":16282:16374   */\n    tag_162:\n        /* \"#utility.yul\":16314:16322   */\n      0x00\n        /* \"#utility.yul\":16361:16366   */\n      dup2\n        /* \"#utility.yul\":16358:16359   */\n      0x00\n        /* \"#utility.yul\":16354:16367   */\n      shl\n        /* \"#utility.yul\":16333:16367   */\n      swap1\n      pop\n        /* \"#utility.yul\":16282:16374   */\n      swap2\n      swap1\n      pop\n      jump\t// out\n        /* \"#utility.yul\":16380:16670   */\n    tag_163:\n        /* \"#utility.yul\":16438:16444   */\n      0x00\n        /* \"#utility.yul\":16467:16533   */\n      0xffffffffffffffffffffffffffffffffffffffffffffffffffffffffffffffff\n        /* \"#utility.yul\":16554:16576   */\n      tag_335\n        /* \"#utility.yul\":16567:16575   */\n      dup5\n        /* \"#utility.yul\":16554:16576   */\n      tag_162\n      jump\t// in\n    tag_335:\n        /* \"#utility.yul\":16542:16576   */\n      swap4\n      pop\n        /* \"#utility.yul\":16609:16613   */\n      dup1\n        /* \"#utility.yul\":16605:16614   */\n      not\n        /* \"#utility.yul\":16598:16603   */\n      dup4\n        /* \"#utility.yul\":16594:16615   */\n      and\n        /* \"#utility.yul\":16585:16615   */\n      swap3\n      pop\n        /* \"#utility.yul\":16658:16662   */\n      dup1\n        /* \"#utility.yul\":16648:16656   */\n      dup5\n        /* \"#utility.yul\":16644:16663   */\n      and\n        /* \"#utility.yul\":16637:16642   */\n      dup4\n        /* \"#utility.yul\":16634:16664   */\n      or\n        /* \"#utility.yul\":16624:16664   */\n      swap2\n      pop\n        /* \"#utility.yul\":16445:16670   */\n      pop\n        /* \"#utility.yul\":16380:16670   */\n      swap3\n      swap2\n      pop\n      pop\n      jump\t// out\n        /* \"#utility.yul\":16676:16938   */\n    tag_164:\n        /* \"#utility.yul\":16786:16825   */\n      tag_337\n        /* \"#utility.yul\":16817:16824   */\n      dup3\n        /* \"#utility.yul\":16786:16825   */\n      tag_149\n      jump\t// in\n    tag_337:\n        /* \"#utility.yul\":16847:16931   */\n      tag_338\n        /* \"#utility.yul\":16889:16930   */\n      tag_339\n        /* \"#utility.yul\":16913:16929   */\n      dup3\n        /* \"#utility.yul\":16889:16930   */\n      tag_150\n      jump\t// in\n    tag_339:\n        /* \"#utility.yul\":16882:16886   */\n      dup4\n        /* \"#utility.yul\":16876:16887   */\n      sload\n        /* \"#utility.yul\":16847:16931   */\n      tag_163\n      jump\t// in\n    tag_338:\n        /* \"#utility.yul\":16841:16845   */\n      dup3\n        /* \"#utility.yul\":16834:16932   */\n      sstore\n        /* \"#utility.yul\":16752:16938   */\n      pop\n        /* \"#utility.yul\":16676:16938   */\n      pop\n      pop\n      jump\t// out\n        /* \"#utility.yul\":16944:19184   */\n    tag_165:\n        /* \"#utility.yul\":17120:17121   */\n      0x00\n        /* \"#utility.yul\":17114:17118   */\n      dup2\n        /* \"#utility.yul\":17110:17122   */\n      add\n        /* \"#utility.yul\":17166:17167   */\n      0x00\n        /* \"#utility.yul\":17159:17164   */\n      dup4\n        /* \"#utility.yul\":17155:17168   */\n      add\n        /* \"#utility.yul\":17231:17294   */\n      tag_341\n        /* \"#utility.yul\":17281:17293   */\n      dup2\n        /* \"#utility.yul\":17274:17279   */\n      dup6\n        /* \"#utility.yul\":17231:17294   */\n      tag_141\n      jump\t// in\n    tag_341:\n        /* \"#utility.yul\":17308:17420   */\n      tag_342\n        /* \"#utility.yul\":17406:17419   */\n      dup2\n        /* \"#utility.yul\":17391:17404   */\n      dup4\n        /* \"#utility.yul\":17379:17389   */\n      dup7\n        /* \"#utility.yul\":17308:17420   */\n      tag_160\n      jump\t// in\n    tag_342:\n        /* \"#utility.yul\":17077:17431   */\n      pop\n      pop\n      pop\n      pop\n        /* \"#utility.yul\":17484:17485   */\n      0x01\n        /* \"#utility.yul\":17478:17482   */\n      dup2\n        /* \"#utility.yul\":17474:17486   */\n      add\n        /* \"#utility.yul\":17530:17532   */\n      0x20\n        /* \"#utility.yul\":17523:17528   */\n      dup4\n        /* \"#utility.yul\":17519:17533   */\n      add\n        /* \"#utility.yul\":17596:17659   */\n      tag_343\n        /* \"#utility.yul\":17646:17658   */\n      dup2\n        /* \"#utility.yul\":17639:17644   */\n      dup6\n        /* \"#utility.yul\":17596:17659   */\n      tag_141\n      jump\t// in\n    tag_343:\n        /* \"#utility.yul\":17673:17785   */\n      tag_344\n        /* \"#utility.yul\":17771:17784   */\n      dup2\n        /* \"#utility.yul\":17756:17769   */\n      dup4\n        /* \"#utility.yul\":17744:17754   */\n      dup7\n        /* \"#utility.yul\":17673:17785   */\n      tag_160\n      jump\t// in\n    tag_344:\n        /* \"#utility.yul\":17441:17796   */\n      pop\n      pop\n      pop\n      pop\n        /* \"#utility.yul\":17849:17850   */\n      0x02\n        /* \"#utility.yul\":17843:17847   */\n      dup2\n        /* \"#utility.yul\":17839:17851   */\n      add\n        /* \"#utility.yul\":17895:17897   */\n      0x40\n        /* \"#utility.yul\":17888:17893   */\n      dup4\n        /* \"#utility.yul\":17884:17898   */\n      add\n        /* \"#utility.yul\":17946:17958   */\n      dup1\n        /* \"#utility.yul\":17989:18031   */\n      tag_345\n        /* \"#utility.yul\":18017:18030   */\n      dup2\n        /* \"#utility.yul\":17989:18031   */\n      tag_161\n      jump\t// in\n    tag_345:\n        /* \"#utility.yul\":17972:18031   */\n      swap1\n      pop\n        /* \"#utility.yul\":18045:18123   */\n      tag_346\n        /* \"#utility.yul\":18109:18122   */\n      dup2\n        /* \"#utility.yul\":18097:18107   */\n      dup5\n        /* \"#utility.yul\":18045:18123   */\n      tag_164\n      jump\t// in\n    tag_346:\n        /* \"#utility.yul\":17806:18134   */\n      pop\n      pop\n      pop\n        /* \"#utility.yul\":18187:18188   */\n      0x03\n        /* \"#utility.yul\":18181:18185   */\n      dup2\n        /* \"#utility.yul\":18177:18189   */\n      add\n        /* \"#utility.yul\":18233:18235   */\n      0x60\n        /* \"#utility.yul\":18226:18231   */\n      dup4\n        /* \"#utility.yul\":18222:18236   */\n      add\n        /* \"#utility.yul\":18284:18296   */\n      dup1\n        /* \"#utility.yul\":18327:18369   */\n      tag_347\n        /* \"#utility.yul\":18355:18368   */\n      dup2\n        /* \"#utility.yul\":18327:18369   */\n      tag_161\n      jump\t// in\n    tag_347:\n        /* \"#utility.yul\":18310:18369   */\n      swap1\n      pop\n        /* \"#utility.yul\":18383:18461   */\n      tag_348\n        /* \"#utility.yul\":18447:18460   */\n      dup2\n        /* \"#utility.yul\":18435:18445   */\n      dup5\n        /* \"#utility.yul\":18383:18461   */\n      tag_164\n      jump\t// in\n    tag_348:\n        /* \"#utility.yul\":18144:18472   */\n      pop\n      pop\n      pop\n        /* \"#utility.yul\":18525:18526   */\n      0x04\n        /* \"#utility.yul\":18519:18523   */\n      dup2\n        /* \"#utility.yul\":18515:18527   */\n      add\n        /* \"#utility.yul\":18571:18574   */\n      0x80\n        /* \"#utility.yul\":18564:18569   */\n      dup4\n        /* \"#utility.yul\":18560:18575   */\n      add\n        /* \"#utility.yul\":18623:18635   */\n      dup1\n        /* \"#utility.yul\":18666:18708   */\n      tag_349\n        /* \"#utility.yul\":18694:18707   */\n      dup2\n        /* \"#utility.yul\":18666:18708   */\n      tag_161\n      jump\t// in\n    tag_349:\n        /* \"#utility.yul\":18649:18708   */\n      swap1\n      pop\n        /* \"#utility.yul\":18722:18800   */\n      tag_350\n        /* \"#utility.yul\":18786:18799   */\n      dup2\n        /* \"#utility.yul\":18774:18784   */\n      dup5\n        /* \"#utility.yul\":18722:18800   */\n      tag_164\n      jump\t// in\n    tag_350:\n        /* \"#utility.yul\":18482:18811   */\n      pop\n      pop\n      pop\n        /* \"#utility.yul\":18864:18865   */\n      0x05\n        /* \"#utility.yul\":18858:18862   */\n      dup2\n        /* \"#utility.yul\":18854:18866   */\n      add\n        /* \"#utility.yul\":18910:18913   */\n      0xa0\n        /* \"#utility.yul\":18903:18908   */\n      dup4\n        /* \"#utility.yul\":18899:18914   */\n      add\n        /* \"#utility.yul\":18977:19040   */\n      tag_351\n        /* \"#utility.yul\":19027:19039   */\n      dup2\n        /* \"#utility.yul\":19020:19025   */\n      dup6\n        /* \"#utility.yul\":18977:19040   */\n      tag_141\n      jump\t// in\n    tag_351:\n        /* \"#utility.yul\":19054:19166   */\n      tag_352\n        /* \"#utility.yul\":19152:19165   */\n      dup2\n        /* \"#utility.yul\":19137:19150   */\n      dup4\n        /* \"#utility.yul\":19125:19135   */\n      dup7\n        /* \"#utility.yul\":19054:19166   */\n      tag_160\n      jump\t// in\n    tag_352:\n        /* \"#utility.yul\":18821:19177   */\n      pop\n      pop\n      pop\n      pop\n        /* \"#utility.yul\":16944:19184   */\n      pop\n      pop\n      jump\t// out\n        /* \"#utility.yul\":19190:19446   */\n    tag_64:\n        /* \"#utility.yul\":19326:19440   */\n      tag_354\n        /* \"#utility.yul\":19432:19439   */\n      dup3\n        /* \"#utility.yul\":19426:19430   */\n      dup3\n        /* \"#utility.yul\":19326:19440   */\n      tag_165\n      jump\t// in\n    tag_354:\n        /* \"#utility.yul\":19190:19446   */\n      pop\n      pop\n      jump\t// out\n        /* \"#utility.yul\":19452:19677   */\n    tag_166:\n        /* \"#utility.yul\":19592:19626   */\n      0x4f6e6c79207468652061646d696e2063616e20706572666f726d207468697320\n        /* \"#utility.yul\":19588:19589   */\n      0x00\n        /* \"#utility.yul\":19580:19586   */\n      dup3\n        /* \"#utility.yul\":19576:19590   */\n      add\n        /* \"#utility.yul\":19569:19627   */\n      mstore\n        /* \"#utility.yul\":19661:19669   */\n      0x616374696f6e0000000000000000000000000000000000000000000000000000\n        /* \"#utility.yul\":19656:19658   */\n      0x20\n        /* \"#utility.yul\":19648:19654   */\n      dup3\n        /* \"#utility.yul\":19644:19659   */\n      add\n        /* \"#utility.yul\":19637:19670   */\n      mstore\n        /* \"#utility.yul\":19452:19677   */\n      pop\n      jump\t// out\n        /* \"#utility.yul\":19683:20049   */\n    tag_167:\n        /* \"#utility.yul\":19825:19828   */\n      0x00\n        /* \"#utility.yul\":19846:19913   */\n      tag_357\n        /* \"#utility.yul\":19910:19912   */\n      0x26\n        /* \"#utility.yul\":19905:19908   */\n      dup4\n        /* \"#utility.yul\":19846:19913   */\n      tag_115\n      jump\t// in\n    tag_357:\n        /* \"#utility.yul\":19839:19913   */\n      swap2\n      pop\n        /* \"#utility.yul\":19922:20015   */\n      tag_358\n        /* \"#utility.yul\":20011:20014   */\n      dup3\n        /* \"#utility.yul\":19922:20015   */\n      tag_166\n      jump\t// in\n    tag_358:\n        /* \"#utility.yul\":20040:20042   */\n      0x40\n        /* \"#utility.yul\":20035:20038   */\n      dup3\n        /* \"#utility.yul\":20031:20043   */\n      add\n        /* \"#utility.yul\":20024:20043   */\n      swap1\n      pop\n        /* \"#utility.yul\":19683:20049   */\n      swap2\n      swap1\n      pop\n      jump\t// out\n        /* \"#utility.yul\":20055:20474   */\n    tag_68:\n        /* \"#utility.yul\":20221:20225   */\n      0x00\n        /* \"#utility.yul\":20259:20261   */\n      0x20\n        /* \"#utility.yul\":20248:20257   */\n      dup3\n        /* \"#utility.yul\":20244:20262   */\n      add\n        /* \"#utility.yul\":20236:20262   */\n      swap1\n      pop\n        /* \"#utility.yul\":20308:20317   */\n      dup2\n        /* \"#utility.yul\":20302:20306   */\n      dup2\n        /* \"#utility.yul\":20298:20318   */\n      sub\n        /* \"#utility.yul\":20294:20295   */\n      0x00\n        /* \"#utility.yul\":20283:20292   */\n      dup4\n        /* \"#utility.yul\":20279:20296   */\n      add\n        /* \"#utility.yul\":20272:20319   */\n      mstore\n        /* \"#utility.yul\":20336:20467   */\n      tag_360\n        /* \"#utility.yul\":20462:20466   */\n      dup2\n        /* \"#utility.yul\":20336:20467   */\n      tag_167\n      jump\t// in\n    tag_360:\n        /* \"#utility.yul\":20328:20467   */\n      swap1\n      pop\n        /* \"#utility.yul\":20055:20474   */\n      swap2\n      swap1\n      pop\n      jump\t// out\n        /* \"#utility.yul\":20480:20709   */\n    tag_168:\n        /* \"#utility.yul\":20620:20654   */\n      0x4e6f7420666f756e64205265616c537461746520776974682074686973207265\n        /* \"#utility.yul\":20616:20617   */\n      0x00\n        /* \"#utility.yul\":20608:20614   */\n      dup3\n        /* \"#utility.yul\":20604:20618   */\n      add\n        /* \"#utility.yul\":20597:20655   */\n      mstore\n        /* \"#utility.yul\":20689:20701   */\n      0x67697374726174696f6e00000000000000000000000000000000000000000000\n        /* \"#utility.yul\":20684:20686   */\n      0x20\n        /* \"#utility.yul\":20676:20682   */\n      dup3\n        /* \"#utility.yul\":20672:20687   */\n      add\n        /* \"#utility.yul\":20665:20702   */\n      mstore\n        /* \"#utility.yul\":20480:20709   */\n      pop\n      jump\t// out\n        /* \"#utility.yul\":20715:21081   */\n    tag_169:\n        /* \"#utility.yul\":20857:20860   */\n      0x00\n        /* \"#utility.yul\":20878:20945   */\n      tag_363\n        /* \"#utility.yul\":20942:20944   */\n      0x2a\n        /* \"#utility.yul\":20937:20940   */\n      dup4\n        /* \"#utility.yul\":20878:20945   */\n      tag_115\n      jump\t// in\n    tag_363:\n        /* \"#utility.yul\":20871:20945   */\n      swap2\n      pop\n        /* \"#utility.yul\":20954:21047   */\n      tag_364\n        /* \"#utility.yul\":21043:21046   */\n      dup3\n        /* \"#utility.yul\":20954:21047   */\n      tag_168\n      jump\t// in\n    tag_364:\n        /* \"#utility.yul\":21072:21074   */\n      0x40\n        /* \"#utility.yul\":21067:21070   */\n      dup3\n        /* \"#utility.yul\":21063:21075   */\n      add\n        /* \"#utility.yul\":21056:21075   */\n      swap1\n      pop\n        /* \"#utility.yul\":20715:21081   */\n      swap2\n      swap1\n      pop\n      jump\t// out\n        /* \"#utility.yul\":21087:21506   */\n    tag_90:\n        /* \"#utility.yul\":21253:21257   */\n      0x00\n        /* \"#utility.yul\":21291:21293   */\n      0x20\n        /* \"#utility.yul\":21280:21289   */\n      dup3\n        /* \"#utility.yul\":21276:21294   */\n      add\n        /* \"#utility.yul\":21268:21294   */\n      swap1\n      pop\n        /* \"#utility.yul\":21340:21349   */\n      dup2\n        /* \"#utility.yul\":21334:21338   */\n      dup2\n        /* \"#utility.yul\":21330:21350   */\n      sub\n        /* \"#utility.yul\":21326:21327   */\n      0x00\n        /* \"#utility.yul\":21315:21324   */\n      dup4\n        /* \"#utility.yul\":21311:21328   */\n      add\n        /* \"#utility.yul\":21304:21351   */\n      mstore\n        /* \"#utility.yul\":21368:21499   */\n      tag_366\n        /* \"#utility.yul\":21494:21498   */\n      dup2\n        /* \"#utility.yul\":21368:21499   */\n      tag_169\n      jump\t// in\n    tag_366:\n        /* \"#utility.yul\":21360:21499   */\n      swap1\n      pop\n        /* \"#utility.yul\":21087:21506   */\n      swap2\n      swap1\n      pop\n      jump\t// out\n\n    auxdata: 0xa26469706673582212202d9ab2653ed2ee112ea1debe8084274ebbbd30d1f944d34889ff6471c93d28ed64736f6c634300081a0033\n}\n",
				"bytecode": {
					"linkReferences": {},
					"object": "60806040527350d3b84a2b1787b7704dd50c67733b6b5b29362960015f6101000a81548173ffffffffffffffffffffffffffffffffffffffff021916908373ffffffffffffffffffffffffffffffffffffffff1602179055503480156062575f80fd5b5061139e806100705f395ff3fe608060405234801561000f575f80fd5b506004361061007b575f3560e01c806382e27eab1161005957806382e27eab146100ec5780638324aa5b1461011c578063f19e207e14610138578063f851a440146101685761007b565b806312e6c9431461007f5780632c233de6146100b457806342f1181e146100d0575b5f80fd5b61009960048036038101906100949190610965565b610186565b6040516100ab96959493929190610a0f565b60405180910390f35b6100ce60048036038101906100c99190610aa5565b61034f565b005b6100ea60048036038101906100e59190610b46565b6103ff565b005b61010660048036038101906101019190610965565b6104e6565b6040516101139190610c5c565b60405180910390f35b61013660048036038101906101319190610965565b610728565b005b610152600480360381019061014d9190610b46565b61085d565b60405161015f9190610c96565b60405180910390f35b61017061087a565b60405161017d9190610ccf565b60405180910390f35b5f602052805f5260405f205f91509050805f0180546101a490610d15565b80601f01602080910402602001604051908101604052809291908181526020018280546101d090610d15565b801561021b5780601f106101f25761010080835404028352916020019161021b565b820191905f5260205f20905b8154815290600101906020018083116101fe57829003601f168201915b50505050509080600101805461023090610d15565b80601f016020809104026020016040519081016040528092919081815260200182805461025c90610d15565b80156102a75780601f1061027e576101008083540402835291602001916102a7565b820191905f5260205f20905b81548152906001019060200180831161028a57829003601f168201915b5050505050908060020154908060030154908060040154908060050180546102ce90610d15565b80601f01602080910402602001604051908101604052809291908181526020018280546102fa90610d15565b80156103455780601f1061031c57610100808354040283529160200191610345565b820191905f5260205f20905b81548152906001019060200180831161032857829003601f168201915b5050505050905086565b60025f3373ffffffffffffffffffffffffffffffffffffffff1673ffffffffffffffffffffffffffffffffffffffff1681526020019081526020015f205f9054906101000a900460ff166103d8576040517f08c379a00000000000000000000000000000000000000000000000000000000081526004016103cf90610db5565b60405180910390fd5b805f80836080013581526020019081526020015f2081816103f9919061123e565b90505050565b60015f9054906101000a900473ffffffffffffffffffffffffffffffffffffffff1673ffffffffffffffffffffffffffffffffffffffff163373ffffffffffffffffffffffffffffffffffffffff161461048e576040517f08c379a0000000000000000000000000000000000000000000000000000000008152600401610485906112bc565b60405180910390fd5b600160025f8373ffffffffffffffffffffffffffffffffffffffff1673ffffffffffffffffffffffffffffffffffffffff1681526020019081526020015f205f6101000a81548160ff02191690831515021790555050565b6104ee61089f565b5f805f8481526020019081526020015f206040518060c00160405290815f8201805461051990610d15565b80601f016020809104026020016040519081016040528092919081815260200182805461054590610d15565b80156105905780601f1061056757610100808354040283529160200191610590565b820191905f5260205f20905b81548152906001019060200180831161057357829003601f168201915b505050505081526020016001820180546105a990610d15565b80601f01602080910402602001604051908101604052809291908181526020018280546105d590610d15565b80156106205780601f106105f757610100808354040283529160200191610620565b820191905f5260205f20905b81548152906001019060200180831161060357829003601f168201915b5050505050815260200160028201548152602001600382015481526020016004820154815260200160058201805461065790610d15565b80601f016020809104026020016040519081016040528092919081815260200182805461068390610d15565b80156106ce5780601f106106a5576101008083540402835291602001916106ce565b820191905f5260205f20905b8154815290600101906020018083116106b157829003601f168201915b50505050508152505090505f81608001510361071f576040517f08c379a00000000000000000000000000000000000000000000000000000000081526004016107169061134a565b60405180910390fd5b80915050919050565b60025f3373ffffffffffffffffffffffffffffffffffffffff1673ffffffffffffffffffffffffffffffffffffffff1681526020019081526020015f205f9054906101000a900460ff166107b1576040517f08c379a00000000000000000000000000000000000000000000000000000000081526004016107a890610db5565b60405180910390fd5b5f805f8381526020019081526020015f206004015403610806576040517f08c379a00000000000000000000000000000000000000000000000000000000081526004016107fd9061134a565b60405180910390fd5b5f808281526020019081526020015f205f8082015f61082591906108d2565b600182015f61083491906108d2565b600282015f9055600382015f9055600482015f9055600582015f61085891906108d2565b505050565b6002602052805f5260405f205f915054906101000a900460ff1681565b60015f9054906101000a900473ffffffffffffffffffffffffffffffffffffffff1681565b6040518060c0016040528060608152602001606081526020015f81526020015f81526020015f8152602001606081525090565b5080546108de90610d15565b5f825580601f106108ef575061090c565b601f0160209004905f5260205f209081019061090b919061090f565b5b50565b5b80821115610926575f815f905550600101610910565b5090565b5f80fd5b5f80fd5b5f819050919050565b61094481610932565b811461094e575f80fd5b50565b5f8135905061095f8161093b565b92915050565b5f6020828403121561097a5761097961092a565b5b5f61098784828501610951565b91505092915050565b5f81519050919050565b5f82825260208201905092915050565b8281835e5f83830152505050565b5f601f19601f8301169050919050565b5f6109d282610990565b6109dc818561099a565b93506109ec8185602086016109aa565b6109f5816109b8565b840191505092915050565b610a0981610932565b82525050565b5f60c0820190508181035f830152610a2781896109c8565b90508181036020830152610a3b81886109c8565b9050610a4a6040830187610a00565b610a576060830186610a00565b610a646080830185610a00565b81810360a0830152610a7681846109c8565b9050979650505050505050565b5f80fd5b5f60c08284031215610a9c57610a9b610a83565b5b81905092915050565b5f60208284031215610aba57610ab961092a565b5b5f82013567ffffffffffffffff811115610ad757610ad661092e565b5b610ae384828501610a87565b91505092915050565b5f73ffffffffffffffffffffffffffffffffffffffff82169050919050565b5f610b1582610aec565b9050919050565b610b2581610b0b565b8114610b2f575f80fd5b50565b5f81359050610b4081610b1c565b92915050565b5f60208284031215610b5b57610b5a61092a565b5b5f610b6884828501610b32565b91505092915050565b5f82825260208201905092915050565b5f610b8b82610990565b610b958185610b71565b9350610ba58185602086016109aa565b610bae816109b8565b840191505092915050565b610bc281610932565b82525050565b5f60c083015f8301518482035f860152610be28282610b81565b91505060208301518482036020860152610bfc8282610b81565b9150506040830151610c116040860182610bb9565b506060830151610c246060860182610bb9565b506080830151610c376080860182610bb9565b5060a083015184820360a0860152610c4f8282610b81565b9150508091505092915050565b5f6020820190508181035f830152610c748184610bc8565b905092915050565b5f8115159050919050565b610c9081610c7c565b82525050565b5f602082019050610ca95f830184610c87565b92915050565b5f610cb982610aec565b9050919050565b610cc981610caf565b82525050565b5f602082019050610ce25f830184610cc0565b92915050565b7f4e487b71000000000000000000000000000000000000000000000000000000005f52602260045260245ffd5b5f6002820490506001821680610d2c57607f821691505b602082108103610d3f57610d3e610ce8565b5b50919050565b7f4f6e6c7920617574686f72697a6564206164647265737365732063616e2070655f8201527f72666f726d207468697320616374696f6e000000000000000000000000000000602082015250565b5f610d9f60318361099a565b9150610daa82610d45565b604082019050919050565b5f6020820190508181035f830152610dcc81610d93565b9050919050565b5f80fd5b5f80fd5b5f80fd5b5f8083356001602003843603038112610dfb57610dfa610dd3565b5b80840192508235915067ffffffffffffffff821115610e1d57610e1c610dd7565b5b602083019250600182023603831315610e3957610e38610ddb565b5b509250929050565b5f82905092915050565b7f4e487b71000000000000000000000000000000000000000000000000000000005f52604160045260245ffd5b5f819050815f5260205f209050919050565b5f6020601f8301049050919050565b5f82821b905092915050565b5f60088302610ed47fffffffffffffffffffffffffffffffffffffffffffffffffffffffffffffffff82610e99565b610ede8683610e99565b95508019841693508086168417925050509392505050565b5f819050919050565b5f610f19610f14610f0f84610932565b610ef6565b610932565b9050919050565b5f819050919050565b610f3283610eff565b610f46610f3e82610f20565b848454610ea5565b825550505050565b5f90565b610f5a610f4e565b610f65818484610f29565b505050565b5b81811015610f8857610f7d5f82610f52565b600181019050610f6b565b5050565b601f821115610fcd57610f9e81610e78565b610fa784610e8a565b81016020851015610fb6578190505b610fca610fc285610e8a565b830182610f6a565b50505b505050565b5f82821c905092915050565b5f610fed5f1984600802610fd2565b1980831691505092915050565b5f6110058383610fde565b9150826002028217905092915050565b61101f8383610e41565b67ffffffffffffffff81111561103857611037610e4b565b5b6110428254610d15565b61104d828285610f8c565b5f601f83116001811461107a575f8415611068578287013590505b6110728582610ffa565b8655506110d9565b601f19841661108886610e78565b5f5b828110156110af5784890135825560018201915060208501945060208101905061108a565b868310156110cc57848901356110c8601f891682610fde565b8355505b6001600288020188555050505b50505050505050565b6110ed838383611015565b505050565b5f81356110fe8161093b565b80915050919050565b5f815f1b9050919050565b5f7fffffffffffffffffffffffffffffffffffffffffffffffffffffffffffffffff61113d84611107565b9350801983169250808416831791505092915050565b61115c82610eff565b61116f61116882610f20565b8354611112565b8255505050565b5f81015f83016111868185610ddf565b6111918183866110e2565b5050505060018101602083016111a78185610ddf565b6111b28183866110e2565b505050506002810160408301806111c8816110f2565b90506111d48184611153565b5050506003810160608301806111e9816110f2565b90506111f58184611153565b50505060048101608083018061120a816110f2565b90506112168184611153565b5050506005810160a0830161122b8185610ddf565b6112368183866110e2565b505050505050565b6112488282611176565b5050565b7f4f6e6c79207468652061646d696e2063616e20706572666f726d2074686973205f8201527f616374696f6e0000000000000000000000000000000000000000000000000000602082015250565b5f6112a660268361099a565b91506112b18261124c565b604082019050919050565b5f6020820190508181035f8301526112d38161129a565b9050919050565b7f4e6f7420666f756e64205265616c5374617465207769746820746869732072655f8201527f67697374726174696f6e00000000000000000000000000000000000000000000602082015250565b5f611334602a8361099a565b915061133f826112da565b604082019050919050565b5f6020820190508181035f83015261136181611328565b905091905056fea26469706673582212202d9ab2653ed2ee112ea1debe8084274ebbbd30d1f944d34889ff6471c93d28ed64736f6c634300081a0033",
					"opcodes": "PUSH1 0x80 PUSH1 0x40 MSTORE PUSH20 0x50D3B84A2B1787B7704DD50C67733B6B5B293629 PUSH1 0x1 PUSH0 PUSH2 0x100 EXP DUP2 SLOAD DUP2 PUSH20 0xFFFFFFFFFFFFFFFFFFFFFFFFFFFFFFFFFFFFFFFF MUL NOT AND SWAP1 DUP4 PUSH20 0xFFFFFFFFFFFFFFFFFFFFFFFFFFFFFFFFFFFFFFFF AND MUL OR SWAP1 SSTORE POP CALLVALUE DUP1 ISZERO PUSH1 0x62 JUMPI PUSH0 DUP1 REVERT JUMPDEST POP PUSH2 0x139E DUP1 PUSH2 0x70 PUSH0 CODECOPY PUSH0 RETURN INVALID PUSH1 0x80 PUSH1 0x40 MSTORE CALLVALUE DUP1 ISZERO PUSH2 0xF JUMPI PUSH0 DUP1 REVERT JUMPDEST POP PUSH1 0x4 CALLDATASIZE LT PUSH2 0x7B JUMPI PUSH0 CALLDATALOAD PUSH1 0xE0 SHR DUP1 PUSH4 0x82E27EAB GT PUSH2 0x59 JUMPI DUP1 PUSH4 0x82E27EAB EQ PUSH2 0xEC JUMPI DUP1 PUSH4 0x8324AA5B EQ PUSH2 0x11C JUMPI DUP1 PUSH4 0xF19E207E EQ PUSH2 0x138 JUMPI DUP1 PUSH4 0xF851A440 EQ PUSH2 0x168 JUMPI PUSH2 0x7B JUMP JUMPDEST DUP1 PUSH4 0x12E6C943 EQ PUSH2 0x7F JUMPI DUP1 PUSH4 0x2C233DE6 EQ PUSH2 0xB4 JUMPI DUP1 PUSH4 0x42F1181E EQ PUSH2 0xD0 JUMPI JUMPDEST PUSH0 DUP1 REVERT JUMPDEST PUSH2 0x99 PUSH1 0x4 DUP1 CALLDATASIZE SUB DUP2 ADD SWAP1 PUSH2 0x94 SWAP2 SWAP1 PUSH2 0x965 JUMP JUMPDEST PUSH2 0x186 JUMP JUMPDEST PUSH1 0x40 MLOAD PUSH2 0xAB SWAP7 SWAP6 SWAP5 SWAP4 SWAP3 SWAP2 SWAP1 PUSH2 0xA0F JUMP JUMPDEST PUSH1 0x40 MLOAD DUP1 SWAP2 SUB SWAP1 RETURN JUMPDEST PUSH2 0xCE PUSH1 0x4 DUP1 CALLDATASIZE SUB DUP2 ADD SWAP1 PUSH2 0xC9 SWAP2 SWAP1 PUSH2 0xAA5 JUMP JUMPDEST PUSH2 0x34F JUMP JUMPDEST STOP JUMPDEST PUSH2 0xEA PUSH1 0x4 DUP1 CALLDATASIZE SUB DUP2 ADD SWAP1 PUSH2 0xE5 SWAP2 SWAP1 PUSH2 0xB46 JUMP JUMPDEST PUSH2 0x3FF JUMP JUMPDEST STOP JUMPDEST PUSH2 0x106 PUSH1 0x4 DUP1 CALLDATASIZE SUB DUP2 ADD SWAP1 PUSH2 0x101 SWAP2 SWAP1 PUSH2 0x965 JUMP JUMPDEST PUSH2 0x4E6 JUMP JUMPDEST PUSH1 0x40 MLOAD PUSH2 0x113 SWAP2 SWAP1 PUSH2 0xC5C JUMP JUMPDEST PUSH1 0x40 MLOAD DUP1 SWAP2 SUB SWAP1 RETURN JUMPDEST PUSH2 0x136 PUSH1 0x4 DUP1 CALLDATASIZE SUB DUP2 ADD SWAP1 PUSH2 0x131 SWAP2 SWAP1 PUSH2 0x965 JUMP JUMPDEST PUSH2 0x728 JUMP JUMPDEST STOP JUMPDEST PUSH2 0x152 PUSH1 0x4 DUP1 CALLDATASIZE SUB DUP2 ADD SWAP1 PUSH2 0x14D SWAP2 SWAP1 PUSH2 0xB46 JUMP JUMPDEST PUSH2 0x85D JUMP JUMPDEST PUSH1 0x40 MLOAD PUSH2 0x15F SWAP2 SWAP1 PUSH2 0xC96 JUMP JUMPDEST PUSH1 0x40 MLOAD DUP1 SWAP2 SUB SWAP1 RETURN JUMPDEST PUSH2 0x170 PUSH2 0x87A JUMP JUMPDEST PUSH1 0x40 MLOAD PUSH2 0x17D SWAP2 SWAP1 PUSH2 0xCCF JUMP JUMPDEST PUSH1 0x40 MLOAD DUP1 SWAP2 SUB SWAP1 RETURN JUMPDEST PUSH0 PUSH1 0x20 MSTORE DUP1 PUSH0 MSTORE PUSH1 0x40 PUSH0 KECCAK256 PUSH0 SWAP2 POP SWAP1 POP DUP1 PUSH0 ADD DUP1 SLOAD PUSH2 0x1A4 SWAP1 PUSH2 0xD15 JUMP JUMPDEST DUP1 PUSH1 0x1F ADD PUSH1 0x20 DUP1 SWAP2 DIV MUL PUSH1 0x20 ADD PUSH1 0x40 MLOAD SWAP1 DUP2 ADD PUSH1 0x40 MSTORE DUP1 SWAP3 SWAP2 SWAP1 DUP2 DUP2 MSTORE PUSH1 0x20 ADD DUP3 DUP1 SLOAD PUSH2 0x1D0 SWAP1 PUSH2 0xD15 JUMP JUMPDEST DUP1 ISZERO PUSH2 0x21B JUMPI DUP1 PUSH1 0x1F LT PUSH2 0x1F2 JUMPI PUSH2 0x100 DUP1 DUP4 SLOAD DIV MUL DUP4 MSTORE SWAP2 PUSH1 0x20 ADD SWAP2 PUSH2 0x21B JUMP JUMPDEST DUP3 ADD SWAP2 SWAP1 PUSH0 MSTORE PUSH1 0x20 PUSH0 KECCAK256 SWAP1 JUMPDEST DUP2 SLOAD DUP2 MSTORE SWAP1 PUSH1 0x1 ADD SWAP1 PUSH1 0x20 ADD DUP1 DUP4 GT PUSH2 0x1FE JUMPI DUP3 SWAP1 SUB PUSH1 0x1F AND DUP3 ADD SWAP2 JUMPDEST POP POP POP POP POP SWAP1 DUP1 PUSH1 0x1 ADD DUP1 SLOAD PUSH2 0x230 SWAP1 PUSH2 0xD15 JUMP JUMPDEST DUP1 PUSH1 0x1F ADD PUSH1 0x20 DUP1 SWAP2 DIV MUL PUSH1 0x20 ADD PUSH1 0x40 MLOAD SWAP1 DUP2 ADD PUSH1 0x40 MSTORE DUP1 SWAP3 SWAP2 SWAP1 DUP2 DUP2 MSTORE PUSH1 0x20 ADD DUP3 DUP1 SLOAD PUSH2 0x25C SWAP1 PUSH2 0xD15 JUMP JUMPDEST DUP1 ISZERO PUSH2 0x2A7 JUMPI DUP1 PUSH1 0x1F LT PUSH2 0x27E JUMPI PUSH2 0x100 DUP1 DUP4 SLOAD DIV MUL DUP4 MSTORE SWAP2 PUSH1 0x20 ADD SWAP2 PUSH2 0x2A7 JUMP JUMPDEST DUP3 ADD SWAP2 SWAP1 PUSH0 MSTORE PUSH1 0x20 PUSH0 KECCAK256 SWAP1 JUMPDEST DUP2 SLOAD DUP2 MSTORE SWAP1 PUSH1 0x1 ADD SWAP1 PUSH1 0x20 ADD DUP1 DUP4 GT PUSH2 0x28A JUMPI DUP3 SWAP1 SUB PUSH1 0x1F AND DUP3 ADD SWAP2 JUMPDEST POP POP POP POP POP SWAP1 DUP1 PUSH1 0x2 ADD SLOAD SWAP1 DUP1 PUSH1 0x3 ADD SLOAD SWAP1 DUP1 PUSH1 0x4 ADD SLOAD SWAP1 DUP1 PUSH1 0x5 ADD DUP1 SLOAD PUSH2 0x2CE SWAP1 PUSH2 0xD15 JUMP JUMPDEST DUP1 PUSH1 0x1F ADD PUSH1 0x20 DUP1 SWAP2 DIV MUL PUSH1 0x20 ADD PUSH1 0x40 MLOAD SWAP1 DUP2 ADD PUSH1 0x40 MSTORE DUP1 SWAP3 SWAP2 SWAP1 DUP2 DUP2 MSTORE PUSH1 0x20 ADD DUP3 DUP1 SLOAD PUSH2 0x2FA SWAP1 PUSH2 0xD15 JUMP JUMPDEST DUP1 ISZERO PUSH2 0x345 JUMPI DUP1 PUSH1 0x1F LT PUSH2 0x31C JUMPI PUSH2 0x100 DUP1 DUP4 SLOAD DIV MUL DUP4 MSTORE SWAP2 PUSH1 0x20 ADD SWAP2 PUSH2 0x345 JUMP JUMPDEST DUP3 ADD SWAP2 SWAP1 PUSH0 MSTORE PUSH1 0x20 PUSH0 KECCAK256 SWAP1 JUMPDEST DUP2 SLOAD DUP2 MSTORE SWAP1 PUSH1 0x1 ADD SWAP1 PUSH1 0x20 ADD DUP1 DUP4 GT PUSH2 0x328 JUMPI DUP3 SWAP1 SUB PUSH1 0x1F AND DUP3 ADD SWAP2 JUMPDEST POP POP POP POP POP SWAP1 POP DUP7 JUMP JUMPDEST PUSH1 0x2 PUSH0 CALLER PUSH20 0xFFFFFFFFFFFFFFFFFFFFFFFFFFFFFFFFFFFFFFFF AND PUSH20 0xFFFFFFFFFFFFFFFFFFFFFFFFFFFFFFFFFFFFFFFF AND DUP2 MSTORE PUSH1 0x20 ADD SWAP1 DUP2 MSTORE PUSH1 0x20 ADD PUSH0 KECCAK256 PUSH0 SWAP1 SLOAD SWAP1 PUSH2 0x100 EXP SWAP1 DIV PUSH1 0xFF AND PUSH2 0x3D8 JUMPI PUSH1 0x40 MLOAD PUSH32 0x8C379A000000000000000000000000000000000000000000000000000000000 DUP2 MSTORE PUSH1 0x4 ADD PUSH2 0x3CF SWAP1 PUSH2 0xDB5 JUMP JUMPDEST PUSH1 0x40 MLOAD DUP1 SWAP2 SUB SWAP1 REVERT JUMPDEST DUP1 PUSH0 DUP1 DUP4 PUSH1 0x80 ADD CALLDATALOAD DUP2 MSTORE PUSH1 0x20 ADD SWAP1 DUP2 MSTORE PUSH1 0x20 ADD PUSH0 KECCAK256 DUP2 DUP2 PUSH2 0x3F9 SWAP2 SWAP1 PUSH2 0x123E JUMP JUMPDEST SWAP1 POP POP POP JUMP JUMPDEST PUSH1 0x1 PUSH0 SWAP1 SLOAD SWAP1 PUSH2 0x100 EXP SWAP1 DIV PUSH20 0xFFFFFFFFFFFFFFFFFFFFFFFFFFFFFFFFFFFFFFFF AND PUSH20 0xFFFFFFFFFFFFFFFFFFFFFFFFFFFFFFFFFFFFFFFF AND CALLER PUSH20 0xFFFFFFFFFFFFFFFFFFFFFFFFFFFFFFFFFFFFFFFF AND EQ PUSH2 0x48E JUMPI PUSH1 0x40 MLOAD PUSH32 0x8C379A000000000000000000000000000000000000000000000000000000000 DUP2 MSTORE PUSH1 0x4 ADD PUSH2 0x485 SWAP1 PUSH2 0x12BC JUMP JUMPDEST PUSH1 0x40 MLOAD DUP1 SWAP2 SUB SWAP1 REVERT JUMPDEST PUSH1 0x1 PUSH1 0x2 PUSH0 DUP4 PUSH20 0xFFFFFFFFFFFFFFFFFFFFFFFFFFFFFFFFFFFFFFFF AND PUSH20 0xFFFFFFFFFFFFFFFFFFFFFFFFFFFFFFFFFFFFFFFF AND DUP2 MSTORE PUSH1 0x20 ADD SWAP1 DUP2 MSTORE PUSH1 0x20 ADD PUSH0 KECCAK256 PUSH0 PUSH2 0x100 EXP DUP2 SLOAD DUP2 PUSH1 0xFF MUL NOT AND SWAP1 DUP4 ISZERO ISZERO MUL OR SWAP1 SSTORE POP POP JUMP JUMPDEST PUSH2 0x4EE PUSH2 0x89F JUMP JUMPDEST PUSH0 DUP1 PUSH0 DUP5 DUP2 MSTORE PUSH1 0x20 ADD SWAP1 DUP2 MSTORE PUSH1 0x20 ADD PUSH0 KECCAK256 PUSH1 0x40 MLOAD DUP1 PUSH1 0xC0 ADD PUSH1 0x40 MSTORE SWAP1 DUP2 PUSH0 DUP3 ADD DUP1 SLOAD PUSH2 0x519 SWAP1 PUSH2 0xD15 JUMP JUMPDEST DUP1 PUSH1 0x1F ADD PUSH1 0x20 DUP1 SWAP2 DIV MUL PUSH1 0x20 ADD PUSH1 0x40 MLOAD SWAP1 DUP2 ADD PUSH1 0x40 MSTORE DUP1 SWAP3 SWAP2 SWAP1 DUP2 DUP2 MSTORE PUSH1 0x20 ADD DUP3 DUP1 SLOAD PUSH2 0x545 SWAP1 PUSH2 0xD15 JUMP JUMPDEST DUP1 ISZERO PUSH2 0x590 JUMPI DUP1 PUSH1 0x1F LT PUSH2 0x567 JUMPI PUSH2 0x100 DUP1 DUP4 SLOAD DIV MUL DUP4 MSTORE SWAP2 PUSH1 0x20 ADD SWAP2 PUSH2 0x590 JUMP JUMPDEST DUP3 ADD SWAP2 SWAP1 PUSH0 MSTORE PUSH1 0x20 PUSH0 KECCAK256 SWAP1 JUMPDEST DUP2 SLOAD DUP2 MSTORE SWAP1 PUSH1 0x1 ADD SWAP1 PUSH1 0x20 ADD DUP1 DUP4 GT PUSH2 0x573 JUMPI DUP3 SWAP1 SUB PUSH1 0x1F AND DUP3 ADD SWAP2 JUMPDEST POP POP POP POP POP DUP2 MSTORE PUSH1 0x20 ADD PUSH1 0x1 DUP3 ADD DUP1 SLOAD PUSH2 0x5A9 SWAP1 PUSH2 0xD15 JUMP JUMPDEST DUP1 PUSH1 0x1F ADD PUSH1 0x20 DUP1 SWAP2 DIV MUL PUSH1 0x20 ADD PUSH1 0x40 MLOAD SWAP1 DUP2 ADD PUSH1 0x40 MSTORE DUP1 SWAP3 SWAP2 SWAP1 DUP2 DUP2 MSTORE PUSH1 0x20 ADD DUP3 DUP1 SLOAD PUSH2 0x5D5 SWAP1 PUSH2 0xD15 JUMP JUMPDEST DUP1 ISZERO PUSH2 0x620 JUMPI DUP1 PUSH1 0x1F LT PUSH2 0x5F7 JUMPI PUSH2 0x100 DUP1 DUP4 SLOAD DIV MUL DUP4 MSTORE SWAP2 PUSH1 0x20 ADD SWAP2 PUSH2 0x620 JUMP JUMPDEST DUP3 ADD SWAP2 SWAP1 PUSH0 MSTORE PUSH1 0x20 PUSH0 KECCAK256 SWAP1 JUMPDEST DUP2 SLOAD DUP2 MSTORE SWAP1 PUSH1 0x1 ADD SWAP1 PUSH1 0x20 ADD DUP1 DUP4 GT PUSH2 0x603 JUMPI DUP3 SWAP1 SUB PUSH1 0x1F AND DUP3 ADD SWAP2 JUMPDEST POP POP POP POP POP DUP2 MSTORE PUSH1 0x20 ADD PUSH1 0x2 DUP3 ADD SLOAD DUP2 MSTORE PUSH1 0x20 ADD PUSH1 0x3 DUP3 ADD SLOAD DUP2 MSTORE PUSH1 0x20 ADD PUSH1 0x4 DUP3 ADD SLOAD DUP2 MSTORE PUSH1 0x20 ADD PUSH1 0x5 DUP3 ADD DUP1 SLOAD PUSH2 0x657 SWAP1 PUSH2 0xD15 JUMP JUMPDEST DUP1 PUSH1 0x1F ADD PUSH1 0x20 DUP1 SWAP2 DIV MUL PUSH1 0x20 ADD PUSH1 0x40 MLOAD SWAP1 DUP2 ADD PUSH1 0x40 MSTORE DUP1 SWAP3 SWAP2 SWAP1 DUP2 DUP2 MSTORE PUSH1 0x20 ADD DUP3 DUP1 SLOAD PUSH2 0x683 SWAP1 PUSH2 0xD15 JUMP JUMPDEST DUP1 ISZERO PUSH2 0x6CE JUMPI DUP1 PUSH1 0x1F LT PUSH2 0x6A5 JUMPI PUSH2 0x100 DUP1 DUP4 SLOAD DIV MUL DUP4 MSTORE SWAP2 PUSH1 0x20 ADD SWAP2 PUSH2 0x6CE JUMP JUMPDEST DUP3 ADD SWAP2 SWAP1 PUSH0 MSTORE PUSH1 0x20 PUSH0 KECCAK256 SWAP1 JUMPDEST DUP2 SLOAD DUP2 MSTORE SWAP1 PUSH1 0x1 ADD SWAP1 PUSH1 0x20 ADD DUP1 DUP4 GT PUSH2 0x6B1 JUMPI DUP3 SWAP1 SUB PUSH1 0x1F AND DUP3 ADD SWAP2 JUMPDEST POP POP POP POP POP DUP2 MSTORE POP POP SWAP1 POP PUSH0 DUP2 PUSH1 0x80 ADD MLOAD SUB PUSH2 0x71F JUMPI PUSH1 0x40 MLOAD PUSH32 0x8C379A000000000000000000000000000000000000000000000000000000000 DUP2 MSTORE PUSH1 0x4 ADD PUSH2 0x716 SWAP1 PUSH2 0x134A JUMP JUMPDEST PUSH1 0x40 MLOAD DUP1 SWAP2 SUB SWAP1 REVERT JUMPDEST DUP1 SWAP2 POP POP SWAP2 SWAP1 POP JUMP JUMPDEST PUSH1 0x2 PUSH0 CALLER PUSH20 0xFFFFFFFFFFFFFFFFFFFFFFFFFFFFFFFFFFFFFFFF AND PUSH20 0xFFFFFFFFFFFFFFFFFFFFFFFFFFFFFFFFFFFFFFFF AND DUP2 MSTORE PUSH1 0x20 ADD SWAP1 DUP2 MSTORE PUSH1 0x20 ADD PUSH0 KECCAK256 PUSH0 SWAP1 SLOAD SWAP1 PUSH2 0x100 EXP SWAP1 DIV PUSH1 0xFF AND PUSH2 0x7B1 JUMPI PUSH1 0x40 MLOAD PUSH32 0x8C379A000000000000000000000000000000000000000000000000000000000 DUP2 MSTORE PUSH1 0x4 ADD PUSH2 0x7A8 SWAP1 PUSH2 0xDB5 JUMP JUMPDEST PUSH1 0x40 MLOAD DUP1 SWAP2 SUB SWAP1 REVERT JUMPDEST PUSH0 DUP1 PUSH0 DUP4 DUP2 MSTORE PUSH1 0x20 ADD SWAP1 DUP2 MSTORE PUSH1 0x20 ADD PUSH0 KECCAK256 PUSH1 0x4 ADD SLOAD SUB PUSH2 0x806 JUMPI PUSH1 0x40 MLOAD PUSH32 0x8C379A000000000000000000000000000000000000000000000000000000000 DUP2 MSTORE PUSH1 0x4 ADD PUSH2 0x7FD SWAP1 PUSH2 0x134A JUMP JUMPDEST PUSH1 0x40 MLOAD DUP1 SWAP2 SUB SWAP1 REVERT JUMPDEST PUSH0 DUP1 DUP3 DUP2 MSTORE PUSH1 0x20 ADD SWAP1 DUP2 MSTORE PUSH1 0x20 ADD PUSH0 KECCAK256 PUSH0 DUP1 DUP3 ADD PUSH0 PUSH2 0x825 SWAP2 SWAP1 PUSH2 0x8D2 JUMP JUMPDEST PUSH1 0x1 DUP3 ADD PUSH0 PUSH2 0x834 SWAP2 SWAP1 PUSH2 0x8D2 JUMP JUMPDEST PUSH1 0x2 DUP3 ADD PUSH0 SWAP1 SSTORE PUSH1 0x3 DUP3 ADD PUSH0 SWAP1 SSTORE PUSH1 0x4 DUP3 ADD PUSH0 SWAP1 SSTORE PUSH1 0x5 DUP3 ADD PUSH0 PUSH2 0x858 SWAP2 SWAP1 PUSH2 0x8D2 JUMP JUMPDEST POP POP POP JUMP JUMPDEST PUSH1 0x2 PUSH1 0x20 MSTORE DUP1 PUSH0 MSTORE PUSH1 0x40 PUSH0 KECCAK256 PUSH0 SWAP2 POP SLOAD SWAP1 PUSH2 0x100 EXP SWAP1 DIV PUSH1 0xFF AND DUP2 JUMP JUMPDEST PUSH1 0x1 PUSH0 SWAP1 SLOAD SWAP1 PUSH2 0x100 EXP SWAP1 DIV PUSH20 0xFFFFFFFFFFFFFFFFFFFFFFFFFFFFFFFFFFFFFFFF AND DUP2 JUMP JUMPDEST PUSH1 0x40 MLOAD DUP1 PUSH1 0xC0 ADD PUSH1 0x40 MSTORE DUP1 PUSH1 0x60 DUP2 MSTORE PUSH1 0x20 ADD PUSH1 0x60 DUP2 MSTORE PUSH1 0x20 ADD PUSH0 DUP2 MSTORE PUSH1 0x20 ADD PUSH0 DUP2 MSTORE PUSH1 0x20 ADD PUSH0 DUP2 MSTORE PUSH1 0x20 ADD PUSH1 0x60 DUP2 MSTORE POP SWAP1 JUMP JUMPDEST POP DUP1 SLOAD PUSH2 0x8DE SWAP1 PUSH2 0xD15 JUMP JUMPDEST PUSH0 DUP3 SSTORE DUP1 PUSH1 0x1F LT PUSH2 0x8EF JUMPI POP PUSH2 0x90C JUMP JUMPDEST PUSH1 0x1F ADD PUSH1 0x20 SWAP1 DIV SWAP1 PUSH0 MSTORE PUSH1 0x20 PUSH0 KECCAK256 SWAP1 DUP2 ADD SWAP1 PUSH2 0x90B SWAP2 SWAP1 PUSH2 0x90F JUMP JUMPDEST JUMPDEST POP JUMP JUMPDEST JUMPDEST DUP1 DUP3 GT ISZERO PUSH2 0x926 JUMPI PUSH0 DUP2 PUSH0 SWAP1 SSTORE POP PUSH1 0x1 ADD PUSH2 0x910 JUMP JUMPDEST POP SWAP1 JUMP JUMPDEST PUSH0 DUP1 REVERT JUMPDEST PUSH0 DUP1 REVERT JUMPDEST PUSH0 DUP2 SWAP1 POP SWAP2 SWAP1 POP JUMP JUMPDEST PUSH2 0x944 DUP2 PUSH2 0x932 JUMP JUMPDEST DUP2 EQ PUSH2 0x94E JUMPI PUSH0 DUP1 REVERT JUMPDEST POP JUMP JUMPDEST PUSH0 DUP2 CALLDATALOAD SWAP1 POP PUSH2 0x95F DUP2 PUSH2 0x93B JUMP JUMPDEST SWAP3 SWAP2 POP POP JUMP JUMPDEST PUSH0 PUSH1 0x20 DUP3 DUP5 SUB SLT ISZERO PUSH2 0x97A JUMPI PUSH2 0x979 PUSH2 0x92A JUMP JUMPDEST JUMPDEST PUSH0 PUSH2 0x987 DUP5 DUP3 DUP6 ADD PUSH2 0x951 JUMP JUMPDEST SWAP2 POP POP SWAP3 SWAP2 POP POP JUMP JUMPDEST PUSH0 DUP2 MLOAD SWAP1 POP SWAP2 SWAP1 POP JUMP JUMPDEST PUSH0 DUP3 DUP3 MSTORE PUSH1 0x20 DUP3 ADD SWAP1 POP SWAP3 SWAP2 POP POP JUMP JUMPDEST DUP3 DUP2 DUP4 MCOPY PUSH0 DUP4 DUP4 ADD MSTORE POP POP POP JUMP JUMPDEST PUSH0 PUSH1 0x1F NOT PUSH1 0x1F DUP4 ADD AND SWAP1 POP SWAP2 SWAP1 POP JUMP JUMPDEST PUSH0 PUSH2 0x9D2 DUP3 PUSH2 0x990 JUMP JUMPDEST PUSH2 0x9DC DUP2 DUP6 PUSH2 0x99A JUMP JUMPDEST SWAP4 POP PUSH2 0x9EC DUP2 DUP6 PUSH1 0x20 DUP7 ADD PUSH2 0x9AA JUMP JUMPDEST PUSH2 0x9F5 DUP2 PUSH2 0x9B8 JUMP JUMPDEST DUP5 ADD SWAP2 POP POP SWAP3 SWAP2 POP POP JUMP JUMPDEST PUSH2 0xA09 DUP2 PUSH2 0x932 JUMP JUMPDEST DUP3 MSTORE POP POP JUMP JUMPDEST PUSH0 PUSH1 0xC0 DUP3 ADD SWAP1 POP DUP2 DUP2 SUB PUSH0 DUP4 ADD MSTORE PUSH2 0xA27 DUP2 DUP10 PUSH2 0x9C8 JUMP JUMPDEST SWAP1 POP DUP2 DUP2 SUB PUSH1 0x20 DUP4 ADD MSTORE PUSH2 0xA3B DUP2 DUP9 PUSH2 0x9C8 JUMP JUMPDEST SWAP1 POP PUSH2 0xA4A PUSH1 0x40 DUP4 ADD DUP8 PUSH2 0xA00 JUMP JUMPDEST PUSH2 0xA57 PUSH1 0x60 DUP4 ADD DUP7 PUSH2 0xA00 JUMP JUMPDEST PUSH2 0xA64 PUSH1 0x80 DUP4 ADD DUP6 PUSH2 0xA00 JUMP JUMPDEST DUP2 DUP2 SUB PUSH1 0xA0 DUP4 ADD MSTORE PUSH2 0xA76 DUP2 DUP5 PUSH2 0x9C8 JUMP JUMPDEST SWAP1 POP SWAP8 SWAP7 POP POP POP POP POP POP POP JUMP JUMPDEST PUSH0 DUP1 REVERT JUMPDEST PUSH0 PUSH1 0xC0 DUP3 DUP5 SUB SLT ISZERO PUSH2 0xA9C JUMPI PUSH2 0xA9B PUSH2 0xA83 JUMP JUMPDEST JUMPDEST DUP2 SWAP1 POP SWAP3 SWAP2 POP POP JUMP JUMPDEST PUSH0 PUSH1 0x20 DUP3 DUP5 SUB SLT ISZERO PUSH2 0xABA JUMPI PUSH2 0xAB9 PUSH2 0x92A JUMP JUMPDEST JUMPDEST PUSH0 DUP3 ADD CALLDATALOAD PUSH8 0xFFFFFFFFFFFFFFFF DUP2 GT ISZERO PUSH2 0xAD7 JUMPI PUSH2 0xAD6 PUSH2 0x92E JUMP JUMPDEST JUMPDEST PUSH2 0xAE3 DUP5 DUP3 DUP6 ADD PUSH2 0xA87 JUMP JUMPDEST SWAP2 POP POP SWAP3 SWAP2 POP POP JUMP JUMPDEST PUSH0 PUSH20 0xFFFFFFFFFFFFFFFFFFFFFFFFFFFFFFFFFFFFFFFF DUP3 AND SWAP1 POP SWAP2 SWAP1 POP JUMP JUMPDEST PUSH0 PUSH2 0xB15 DUP3 PUSH2 0xAEC JUMP JUMPDEST SWAP1 POP SWAP2 SWAP1 POP JUMP JUMPDEST PUSH2 0xB25 DUP2 PUSH2 0xB0B JUMP JUMPDEST DUP2 EQ PUSH2 0xB2F JUMPI PUSH0 DUP1 REVERT JUMPDEST POP JUMP JUMPDEST PUSH0 DUP2 CALLDATALOAD SWAP1 POP PUSH2 0xB40 DUP2 PUSH2 0xB1C JUMP JUMPDEST SWAP3 SWAP2 POP POP JUMP JUMPDEST PUSH0 PUSH1 0x20 DUP3 DUP5 SUB SLT ISZERO PUSH2 0xB5B JUMPI PUSH2 0xB5A PUSH2 0x92A JUMP JUMPDEST JUMPDEST PUSH0 PUSH2 0xB68 DUP5 DUP3 DUP6 ADD PUSH2 0xB32 JUMP JUMPDEST SWAP2 POP POP SWAP3 SWAP2 POP POP JUMP JUMPDEST PUSH0 DUP3 DUP3 MSTORE PUSH1 0x20 DUP3 ADD SWAP1 POP SWAP3 SWAP2 POP POP JUMP JUMPDEST PUSH0 PUSH2 0xB8B DUP3 PUSH2 0x990 JUMP JUMPDEST PUSH2 0xB95 DUP2 DUP6 PUSH2 0xB71 JUMP JUMPDEST SWAP4 POP PUSH2 0xBA5 DUP2 DUP6 PUSH1 0x20 DUP7 ADD PUSH2 0x9AA JUMP JUMPDEST PUSH2 0xBAE DUP2 PUSH2 0x9B8 JUMP JUMPDEST DUP5 ADD SWAP2 POP POP SWAP3 SWAP2 POP POP JUMP JUMPDEST PUSH2 0xBC2 DUP2 PUSH2 0x932 JUMP JUMPDEST DUP3 MSTORE POP POP JUMP JUMPDEST PUSH0 PUSH1 0xC0 DUP4 ADD PUSH0 DUP4 ADD MLOAD DUP5 DUP3 SUB PUSH0 DUP7 ADD MSTORE PUSH2 0xBE2 DUP3 DUP3 PUSH2 0xB81 JUMP JUMPDEST SWAP2 POP POP PUSH1 0x20 DUP4 ADD MLOAD DUP5 DUP3 SUB PUSH1 0x20 DUP7 ADD MSTORE PUSH2 0xBFC DUP3 DUP3 PUSH2 0xB81 JUMP JUMPDEST SWAP2 POP POP PUSH1 0x40 DUP4 ADD MLOAD PUSH2 0xC11 PUSH1 0x40 DUP7 ADD DUP3 PUSH2 0xBB9 JUMP JUMPDEST POP PUSH1 0x60 DUP4 ADD MLOAD PUSH2 0xC24 PUSH1 0x60 DUP7 ADD DUP3 PUSH2 0xBB9 JUMP JUMPDEST POP PUSH1 0x80 DUP4 ADD MLOAD PUSH2 0xC37 PUSH1 0x80 DUP7 ADD DUP3 PUSH2 0xBB9 JUMP JUMPDEST POP PUSH1 0xA0 DUP4 ADD MLOAD DUP5 DUP3 SUB PUSH1 0xA0 DUP7 ADD MSTORE PUSH2 0xC4F DUP3 DUP3 PUSH2 0xB81 JUMP JUMPDEST SWAP2 POP POP DUP1 SWAP2 POP POP SWAP3 SWAP2 POP POP JUMP JUMPDEST PUSH0 PUSH1 0x20 DUP3 ADD SWAP1 POP DUP2 DUP2 SUB PUSH0 DUP4 ADD MSTORE PUSH2 0xC74 DUP2 DUP5 PUSH2 0xBC8 JUMP JUMPDEST SWAP1 POP SWAP3 SWAP2 POP POP JUMP JUMPDEST PUSH0 DUP2 ISZERO ISZERO SWAP1 POP SWAP2 SWAP1 POP JUMP JUMPDEST PUSH2 0xC90 DUP2 PUSH2 0xC7C JUMP JUMPDEST DUP3 MSTORE POP POP JUMP JUMPDEST PUSH0 PUSH1 0x20 DUP3 ADD SWAP1 POP PUSH2 0xCA9 PUSH0 DUP4 ADD DUP5 PUSH2 0xC87 JUMP JUMPDEST SWAP3 SWAP2 POP POP JUMP JUMPDEST PUSH0 PUSH2 0xCB9 DUP3 PUSH2 0xAEC JUMP JUMPDEST SWAP1 POP SWAP2 SWAP1 POP JUMP JUMPDEST PUSH2 0xCC9 DUP2 PUSH2 0xCAF JUMP JUMPDEST DUP3 MSTORE POP POP JUMP JUMPDEST PUSH0 PUSH1 0x20 DUP3 ADD SWAP1 POP PUSH2 0xCE2 PUSH0 DUP4 ADD DUP5 PUSH2 0xCC0 JUMP JUMPDEST SWAP3 SWAP2 POP POP JUMP JUMPDEST PUSH32 0x4E487B7100000000000000000000000000000000000000000000000000000000 PUSH0 MSTORE PUSH1 0x22 PUSH1 0x4 MSTORE PUSH1 0x24 PUSH0 REVERT JUMPDEST PUSH0 PUSH1 0x2 DUP3 DIV SWAP1 POP PUSH1 0x1 DUP3 AND DUP1 PUSH2 0xD2C JUMPI PUSH1 0x7F DUP3 AND SWAP2 POP JUMPDEST PUSH1 0x20 DUP3 LT DUP2 SUB PUSH2 0xD3F JUMPI PUSH2 0xD3E PUSH2 0xCE8 JUMP JUMPDEST JUMPDEST POP SWAP2 SWAP1 POP JUMP JUMPDEST PUSH32 0x4F6E6C7920617574686F72697A6564206164647265737365732063616E207065 PUSH0 DUP3 ADD MSTORE PUSH32 0x72666F726D207468697320616374696F6E000000000000000000000000000000 PUSH1 0x20 DUP3 ADD MSTORE POP JUMP JUMPDEST PUSH0 PUSH2 0xD9F PUSH1 0x31 DUP4 PUSH2 0x99A JUMP JUMPDEST SWAP2 POP PUSH2 0xDAA DUP3 PUSH2 0xD45 JUMP JUMPDEST PUSH1 0x40 DUP3 ADD SWAP1 POP SWAP2 SWAP1 POP JUMP JUMPDEST PUSH0 PUSH1 0x20 DUP3 ADD SWAP1 POP DUP2 DUP2 SUB PUSH0 DUP4 ADD MSTORE PUSH2 0xDCC DUP2 PUSH2 0xD93 JUMP JUMPDEST SWAP1 POP SWAP2 SWAP1 POP JUMP JUMPDEST PUSH0 DUP1 REVERT JUMPDEST PUSH0 DUP1 REVERT JUMPDEST PUSH0 DUP1 REVERT JUMPDEST PUSH0 DUP1 DUP4 CALLDATALOAD PUSH1 0x1 PUSH1 0x20 SUB DUP5 CALLDATASIZE SUB SUB DUP2 SLT PUSH2 0xDFB JUMPI PUSH2 0xDFA PUSH2 0xDD3 JUMP JUMPDEST JUMPDEST DUP1 DUP5 ADD SWAP3 POP DUP3 CALLDATALOAD SWAP2 POP PUSH8 0xFFFFFFFFFFFFFFFF DUP3 GT ISZERO PUSH2 0xE1D JUMPI PUSH2 0xE1C PUSH2 0xDD7 JUMP JUMPDEST JUMPDEST PUSH1 0x20 DUP4 ADD SWAP3 POP PUSH1 0x1 DUP3 MUL CALLDATASIZE SUB DUP4 SGT ISZERO PUSH2 0xE39 JUMPI PUSH2 0xE38 PUSH2 0xDDB JUMP JUMPDEST JUMPDEST POP SWAP3 POP SWAP3 SWAP1 POP JUMP JUMPDEST PUSH0 DUP3 SWAP1 POP SWAP3 SWAP2 POP POP JUMP JUMPDEST PUSH32 0x4E487B7100000000000000000000000000000000000000000000000000000000 PUSH0 MSTORE PUSH1 0x41 PUSH1 0x4 MSTORE PUSH1 0x24 PUSH0 REVERT JUMPDEST PUSH0 DUP2 SWAP1 POP DUP2 PUSH0 MSTORE PUSH1 0x20 PUSH0 KECCAK256 SWAP1 POP SWAP2 SWAP1 POP JUMP JUMPDEST PUSH0 PUSH1 0x20 PUSH1 0x1F DUP4 ADD DIV SWAP1 POP SWAP2 SWAP1 POP JUMP JUMPDEST PUSH0 DUP3 DUP3 SHL SWAP1 POP SWAP3 SWAP2 POP POP JUMP JUMPDEST PUSH0 PUSH1 0x8 DUP4 MUL PUSH2 0xED4 PUSH32 0xFFFFFFFFFFFFFFFFFFFFFFFFFFFFFFFFFFFFFFFFFFFFFFFFFFFFFFFFFFFFFFFF DUP3 PUSH2 0xE99 JUMP JUMPDEST PUSH2 0xEDE DUP7 DUP4 PUSH2 0xE99 JUMP JUMPDEST SWAP6 POP DUP1 NOT DUP5 AND SWAP4 POP DUP1 DUP7 AND DUP5 OR SWAP3 POP POP POP SWAP4 SWAP3 POP POP POP JUMP JUMPDEST PUSH0 DUP2 SWAP1 POP SWAP2 SWAP1 POP JUMP JUMPDEST PUSH0 PUSH2 0xF19 PUSH2 0xF14 PUSH2 0xF0F DUP5 PUSH2 0x932 JUMP JUMPDEST PUSH2 0xEF6 JUMP JUMPDEST PUSH2 0x932 JUMP JUMPDEST SWAP1 POP SWAP2 SWAP1 POP JUMP JUMPDEST PUSH0 DUP2 SWAP1 POP SWAP2 SWAP1 POP JUMP JUMPDEST PUSH2 0xF32 DUP4 PUSH2 0xEFF JUMP JUMPDEST PUSH2 0xF46 PUSH2 0xF3E DUP3 PUSH2 0xF20 JUMP JUMPDEST DUP5 DUP5 SLOAD PUSH2 0xEA5 JUMP JUMPDEST DUP3 SSTORE POP POP POP POP JUMP JUMPDEST PUSH0 SWAP1 JUMP JUMPDEST PUSH2 0xF5A PUSH2 0xF4E JUMP JUMPDEST PUSH2 0xF65 DUP2 DUP5 DUP5 PUSH2 0xF29 JUMP JUMPDEST POP POP POP JUMP JUMPDEST JUMPDEST DUP2 DUP2 LT ISZERO PUSH2 0xF88 JUMPI PUSH2 0xF7D PUSH0 DUP3 PUSH2 0xF52 JUMP JUMPDEST PUSH1 0x1 DUP2 ADD SWAP1 POP PUSH2 0xF6B JUMP JUMPDEST POP POP JUMP JUMPDEST PUSH1 0x1F DUP3 GT ISZERO PUSH2 0xFCD JUMPI PUSH2 0xF9E DUP2 PUSH2 0xE78 JUMP JUMPDEST PUSH2 0xFA7 DUP5 PUSH2 0xE8A JUMP JUMPDEST DUP2 ADD PUSH1 0x20 DUP6 LT ISZERO PUSH2 0xFB6 JUMPI DUP2 SWAP1 POP JUMPDEST PUSH2 0xFCA PUSH2 0xFC2 DUP6 PUSH2 0xE8A JUMP JUMPDEST DUP4 ADD DUP3 PUSH2 0xF6A JUMP JUMPDEST POP POP JUMPDEST POP POP POP JUMP JUMPDEST PUSH0 DUP3 DUP3 SHR SWAP1 POP SWAP3 SWAP2 POP POP JUMP JUMPDEST PUSH0 PUSH2 0xFED PUSH0 NOT DUP5 PUSH1 0x8 MUL PUSH2 0xFD2 JUMP JUMPDEST NOT DUP1 DUP4 AND SWAP2 POP POP SWAP3 SWAP2 POP POP JUMP JUMPDEST PUSH0 PUSH2 0x1005 DUP4 DUP4 PUSH2 0xFDE JUMP JUMPDEST SWAP2 POP DUP3 PUSH1 0x2 MUL DUP3 OR SWAP1 POP SWAP3 SWAP2 POP POP JUMP JUMPDEST PUSH2 0x101F DUP4 DUP4 PUSH2 0xE41 JUMP JUMPDEST PUSH8 0xFFFFFFFFFFFFFFFF DUP2 GT ISZERO PUSH2 0x1038 JUMPI PUSH2 0x1037 PUSH2 0xE4B JUMP JUMPDEST JUMPDEST PUSH2 0x1042 DUP3 SLOAD PUSH2 0xD15 JUMP JUMPDEST PUSH2 0x104D DUP3 DUP3 DUP6 PUSH2 0xF8C JUMP JUMPDEST PUSH0 PUSH1 0x1F DUP4 GT PUSH1 0x1 DUP2 EQ PUSH2 0x107A JUMPI PUSH0 DUP5 ISZERO PUSH2 0x1068 JUMPI DUP3 DUP8 ADD CALLDATALOAD SWAP1 POP JUMPDEST PUSH2 0x1072 DUP6 DUP3 PUSH2 0xFFA JUMP JUMPDEST DUP7 SSTORE POP PUSH2 0x10D9 JUMP JUMPDEST PUSH1 0x1F NOT DUP5 AND PUSH2 0x1088 DUP7 PUSH2 0xE78 JUMP JUMPDEST PUSH0 JUMPDEST DUP3 DUP2 LT ISZERO PUSH2 0x10AF JUMPI DUP5 DUP10 ADD CALLDATALOAD DUP3 SSTORE PUSH1 0x1 DUP3 ADD SWAP2 POP PUSH1 0x20 DUP6 ADD SWAP5 POP PUSH1 0x20 DUP2 ADD SWAP1 POP PUSH2 0x108A JUMP JUMPDEST DUP7 DUP4 LT ISZERO PUSH2 0x10CC JUMPI DUP5 DUP10 ADD CALLDATALOAD PUSH2 0x10C8 PUSH1 0x1F DUP10 AND DUP3 PUSH2 0xFDE JUMP JUMPDEST DUP4 SSTORE POP JUMPDEST PUSH1 0x1 PUSH1 0x2 DUP9 MUL ADD DUP9 SSTORE POP POP POP JUMPDEST POP POP POP POP POP POP POP JUMP JUMPDEST PUSH2 0x10ED DUP4 DUP4 DUP4 PUSH2 0x1015 JUMP JUMPDEST POP POP POP JUMP JUMPDEST PUSH0 DUP2 CALLDATALOAD PUSH2 0x10FE DUP2 PUSH2 0x93B JUMP JUMPDEST DUP1 SWAP2 POP POP SWAP2 SWAP1 POP JUMP JUMPDEST PUSH0 DUP2 PUSH0 SHL SWAP1 POP SWAP2 SWAP1 POP JUMP JUMPDEST PUSH0 PUSH32 0xFFFFFFFFFFFFFFFFFFFFFFFFFFFFFFFFFFFFFFFFFFFFFFFFFFFFFFFFFFFFFFFF PUSH2 0x113D DUP5 PUSH2 0x1107 JUMP JUMPDEST SWAP4 POP DUP1 NOT DUP4 AND SWAP3 POP DUP1 DUP5 AND DUP4 OR SWAP2 POP POP SWAP3 SWAP2 POP POP JUMP JUMPDEST PUSH2 0x115C DUP3 PUSH2 0xEFF JUMP JUMPDEST PUSH2 0x116F PUSH2 0x1168 DUP3 PUSH2 0xF20 JUMP JUMPDEST DUP4 SLOAD PUSH2 0x1112 JUMP JUMPDEST DUP3 SSTORE POP POP POP JUMP JUMPDEST PUSH0 DUP2 ADD PUSH0 DUP4 ADD PUSH2 0x1186 DUP2 DUP6 PUSH2 0xDDF JUMP JUMPDEST PUSH2 0x1191 DUP2 DUP4 DUP7 PUSH2 0x10E2 JUMP JUMPDEST POP POP POP POP PUSH1 0x1 DUP2 ADD PUSH1 0x20 DUP4 ADD PUSH2 0x11A7 DUP2 DUP6 PUSH2 0xDDF JUMP JUMPDEST PUSH2 0x11B2 DUP2 DUP4 DUP7 PUSH2 0x10E2 JUMP JUMPDEST POP POP POP POP PUSH1 0x2 DUP2 ADD PUSH1 0x40 DUP4 ADD DUP1 PUSH2 0x11C8 DUP2 PUSH2 0x10F2 JUMP JUMPDEST SWAP1 POP PUSH2 0x11D4 DUP2 DUP5 PUSH2 0x1153 JUMP JUMPDEST POP POP POP PUSH1 0x3 DUP2 ADD PUSH1 0x60 DUP4 ADD DUP1 PUSH2 0x11E9 DUP2 PUSH2 0x10F2 JUMP JUMPDEST SWAP1 POP PUSH2 0x11F5 DUP2 DUP5 PUSH2 0x1153 JUMP JUMPDEST POP POP POP PUSH1 0x4 DUP2 ADD PUSH1 0x80 DUP4 ADD DUP1 PUSH2 0x120A DUP2 PUSH2 0x10F2 JUMP JUMPDEST SWAP1 POP PUSH2 0x1216 DUP2 DUP5 PUSH2 0x1153 JUMP JUMPDEST POP POP POP PUSH1 0x5 DUP2 ADD PUSH1 0xA0 DUP4 ADD PUSH2 0x122B DUP2 DUP6 PUSH2 0xDDF JUMP JUMPDEST PUSH2 0x1236 DUP2 DUP4 DUP7 PUSH2 0x10E2 JUMP JUMPDEST POP POP POP POP POP POP JUMP JUMPDEST PUSH2 0x1248 DUP3 DUP3 PUSH2 0x1176 JUMP JUMPDEST POP POP JUMP JUMPDEST PUSH32 0x4F6E6C79207468652061646D696E2063616E20706572666F726D207468697320 PUSH0 DUP3 ADD MSTORE PUSH32 0x616374696F6E0000000000000000000000000000000000000000000000000000 PUSH1 0x20 DUP3 ADD MSTORE POP JUMP JUMPDEST PUSH0 PUSH2 0x12A6 PUSH1 0x26 DUP4 PUSH2 0x99A JUMP JUMPDEST SWAP2 POP PUSH2 0x12B1 DUP3 PUSH2 0x124C JUMP JUMPDEST PUSH1 0x40 DUP3 ADD SWAP1 POP SWAP2 SWAP1 POP JUMP JUMPDEST PUSH0 PUSH1 0x20 DUP3 ADD SWAP1 POP DUP2 DUP2 SUB PUSH0 DUP4 ADD MSTORE PUSH2 0x12D3 DUP2 PUSH2 0x129A JUMP JUMPDEST SWAP1 POP SWAP2 SWAP1 POP JUMP JUMPDEST PUSH32 0x4E6F7420666F756E64205265616C537461746520776974682074686973207265 PUSH0 DUP3 ADD MSTORE PUSH32 0x67697374726174696F6E00000000000000000000000000000000000000000000 PUSH1 0x20 DUP3 ADD MSTORE POP JUMP JUMPDEST PUSH0 PUSH2 0x1334 PUSH1 0x2A DUP4 PUSH2 0x99A JUMP JUMPDEST SWAP2 POP PUSH2 0x133F DUP3 PUSH2 0x12DA JUMP JUMPDEST PUSH1 0x40 DUP3 ADD SWAP1 POP SWAP2 SWAP1 POP JUMP JUMPDEST PUSH0 PUSH1 0x20 DUP3 ADD SWAP1 POP DUP2 DUP2 SUB PUSH0 DUP4 ADD MSTORE PUSH2 0x1361 DUP2 PUSH2 0x1328 JUMP JUMPDEST SWAP1 POP SWAP2 SWAP1 POP JUMP INVALID LOG2 PUSH5 0x6970667358 0x22 SLT KECCAK256 0x2D SWAP11 0xB2 PUSH6 0x3ED2EE112EA1 0xDE 0xBE DUP1 DUP5 0x27 0x4E 0xBB 0xBD ADDRESS 0xD1 0xF9 PREVRANDAO 0xD3 BASEFEE DUP10 SELFDESTRUCT PUSH5 0x71C93D28ED PUSH5 0x736F6C6343 STOP ADDMOD BYTE STOP CALLER "
				},
				"gasEstimates": {
					"creation": {
						"codeDepositCost": "1004400",
						"executionCost": "25305",
						"totalCost": "1029705"
					},
					"external": {
						"addAuthorizedAddress(address)": "27017",
						"addRealState((string,string,uint256,uint256,uint256,string))": "infinite",
						"admin()": "2574",
						"authorizedAddresses(address)": "2877",
						"deleteRealStateByRegistration(uint256)": "infinite",
						"getRealStateByRegistration(uint256)": "infinite",
						"realStateMap(uint256)": "infinite"
					}
				},
				"methodIdentifiers": {
					"addAuthorizedAddress(address)": "42f1181e",
					"addRealState((string,string,uint256,uint256,uint256,string))": "2c233de6",
					"admin()": "f851a440",
					"authorizedAddresses(address)": "f19e207e",
					"deleteRealStateByRegistration(uint256)": "8324aa5b",
					"getRealStateByRegistration(uint256)": "82e27eab",
					"realStateMap(uint256)": "12e6c943"
				}
			},
			"storageLayout": {
				"storage": [
					{
						"astId": 20,
						"contract": "contracts/RealStateContract.sol:RealStateContractRegistrations",
						"label": "realStateMap",
						"offset": 0,
						"slot": "0",
						"type": "t_mapping(t_uint256,t_struct(RealState)14_storage)"
					},
					{
						"astId": 26,
						"contract": "contracts/RealStateContract.sol:RealStateContractRegistrations",
						"label": "admin",
						"offset": 0,
						"slot": "1",
						"type": "t_address_payable"
					},
					{
						"astId": 30,
						"contract": "contracts/RealStateContract.sol:RealStateContractRegistrations",
						"label": "authorizedAddresses",
						"offset": 0,
						"slot": "2",
						"type": "t_mapping(t_address,t_bool)"
					}
				],
				"types": {
					"t_address": {
						"encoding": "inplace",
						"label": "address",
						"numberOfBytes": "20"
					},
					"t_address_payable": {
						"encoding": "inplace",
						"label": "address payable",
						"numberOfBytes": "20"
					},
					"t_bool": {
						"encoding": "inplace",
						"label": "bool",
						"numberOfBytes": "1"
					},
					"t_mapping(t_address,t_bool)": {
						"encoding": "mapping",
						"key": "t_address",
						"label": "mapping(address => bool)",
						"numberOfBytes": "32",
						"value": "t_bool"
					},
					"t_mapping(t_uint256,t_struct(RealState)14_storage)": {
						"encoding": "mapping",
						"key": "t_uint256",
						"label": "mapping(uint256 => struct Shared.RealState)",
						"numberOfBytes": "32",
						"value": "t_struct(RealState)14_storage"
					},
					"t_string_storage": {
						"encoding": "bytes",
						"label": "string",
						"numberOfBytes": "32"
					},
					"t_struct(RealState)14_storage": {
						"encoding": "inplace",
						"label": "struct Shared.RealState",
						"members": [
							{
								"astId": 3,
								"contract": "contracts/RealStateContract.sol:RealStateContractRegistrations",
								"label": "city",
								"offset": 0,
								"slot": "0",
								"type": "t_string_storage"
							},
							{
								"astId": 5,
								"contract": "contracts/RealStateContract.sol:RealStateContractRegistrations",
								"label": "street",
								"offset": 0,
								"slot": "1",
								"type": "t_string_storage"
							},
							{
								"astId": 7,
								"contract": "contracts/RealStateContract.sol:RealStateContractRegistrations",
								"label": "number",
								"offset": 0,
								"slot": "2",
								"type": "t_uint256"
							},
							{
								"astId": 9,
								"contract": "contracts/RealStateContract.sol:RealStateContractRegistrations",
								"label": "meters",
								"offset": 0,
								"slot": "3",
								"type": "t_uint256"
							},
							{
								"astId": 11,
								"contract": "contracts/RealStateContract.sol:RealStateContractRegistrations",
								"label": "registration",
								"offset": 0,
								"slot": "4",
								"type": "t_uint256"
							},
							{
								"astId": 13,
								"contract": "contracts/RealStateContract.sol:RealStateContractRegistrations",
								"label": "owner",
								"offset": 0,
								"slot": "5",
								"type": "t_string_storage"
							}
						],
						"numberOfBytes": "192"
					},
					"t_uint256": {
						"encoding": "inplace",
						"label": "uint256",
						"numberOfBytes": "32"
					}
				}
			},
			"userdoc": {
				"kind": "user",
				"methods": {},
				"version": 1
			}
		}
	}
}