{
	"data": {
		"bytecode": {
			"linkReferences": {},
			"object": "60806040525f601055734906bb5c1056d92a436191169a8ad383dc888aeb60115f6101000a81548173ffffffffffffffffffffffffffffffffffffffff021916908373ffffffffffffffffffffffffffffffffffffffff1602179055503480156066575f80fd5b50610c69806100745f395ff3fe60806040526004361061007a575f3560e01c80638f6274441161004d5780638f62744414610128578063be4fb14d14610152578063f851a4401461017c578063fc00e628146101a65761007a565b80634d63e2061461007e57806352ba15e6146100ba5780638aeeae49146100d05780638f28397014610100575b5f80fd5b348015610089575f80fd5b506100a4600480360381019061009f919061073c565b6101d1565b6040516100b191906107a6565b60405180910390f35b3480156100c5575f80fd5b506100ce610204565b005b6100ea60048036038101906100e5919061073c565b610303565b6040516100f791906107d9565b60405180910390f35b34801561010b575f80fd5b506101266004803603810190610121919061081c565b610523565b005b348015610133575f80fd5b5061013c61062a565b60405161014991906108ec565b60405180910390f35b34801561015d575f80fd5b506101666106a9565b6040516101739190610915565b60405180910390f35b348015610187575f80fd5b506101906106af565b60405161019d919061094e565b60405180910390f35b3480156101b1575f80fd5b506101ba6106d4565b6040516101c8929190610967565b60405180910390f35b5f81601081106101df575f80fd5b015f915054906101000a900473ffffffffffffffffffffffffffffffffffffffff1681565b60115f9054906101000a900473ffffffffffffffffffffffffffffffffffffffff1673ffffffffffffffffffffffffffffffffffffffff163373ffffffffffffffffffffffffffffffffffffffff1614610293576040517f08c379a000000000000000000000000000000000000000000000000000000000815260040161028a906109e8565b60405180910390fd5b60115f9054906101000a900473ffffffffffffffffffffffffffffffffffffffff1673ffffffffffffffffffffffffffffffffffffffff166108fc60105490811502906040515f60405180830381858888f193505050501580156102f9573d5f803e3d5ffd5b505f601081905550565b5f8082101580156103155750600f8211155b61031d575f80fd5b5f73ffffffffffffffffffffffffffffffffffffffff165f836010811061034757610346610a06565b5b015f9054906101000a900473ffffffffffffffffffffffffffffffffffffffff1673ffffffffffffffffffffffffffffffffffffffff16146103be576040517f08c379a00000000000000000000000000000000000000000000000000000000081526004016103b590610a7d565b60405180910390fd5b66470de4df8200003414610407576040517f08c379a00000000000000000000000000000000000000000000000000000000081526004016103fe90610ae5565b60405180910390fd5b3460105f8282546104189190610b30565b925050819055505f600190505f73ffffffffffffffffffffffffffffffffffffffff165f846010811061044e5761044d610a06565b5b015f9054906101000a900473ffffffffffffffffffffffffffffffffffffffff1673ffffffffffffffffffffffffffffffffffffffff160361051657335f846010811061049e5761049d610a06565b5b015f6101000a81548173ffffffffffffffffffffffffffffffffffffffff021916908373ffffffffffffffffffffffffffffffffffffffff1602179055507f1b30e0a556ea9ec102edf7e7869684d78efe978a98e6ea23b86dd868b33508cf60405161050990610bad565b60405180910390a161051a565b5f90505b80915050919050565b60115f9054906101000a900473ffffffffffffffffffffffffffffffffffffffff1673ffffffffffffffffffffffffffffffffffffffff163373ffffffffffffffffffffffffffffffffffffffff16146105b2576040517f08c379a00000000000000000000000000000000000000000000000000000000081526004016105a9906109e8565b60405180910390fd5b8060115f6101000a81548173ffffffffffffffffffffffffffffffffffffffff021916908373ffffffffffffffffffffffffffffffffffffffff1602179055507f1b30e0a556ea9ec102edf7e7869684d78efe978a98e6ea23b86dd868b33508cf60405161061f90610c15565b60405180910390a150565b6106326106e2565b5f60108060200260405190810160405280929190826010801561069f576020028201915b815f9054906101000a900473ffffffffffffffffffffffffffffffffffffffff1673ffffffffffffffffffffffffffffffffffffffff1681526020019060010190808311610656575b5050505050905090565b60105481565b60115f9054906101000a900473ffffffffffffffffffffffffffffffffffffffff1681565b5f8047601054915091509091565b604051806102000160405280601090602082028036833780820191505090505090565b5f80fd5b5f819050919050565b61071b81610709565b8114610725575f80fd5b50565b5f8135905061073681610712565b92915050565b5f6020828403121561075157610750610705565b5b5f61075e84828501610728565b91505092915050565b5f73ffffffffffffffffffffffffffffffffffffffff82169050919050565b5f61079082610767565b9050919050565b6107a081610786565b82525050565b5f6020820190506107b95f830184610797565b92915050565b5f8115159050919050565b6107d3816107bf565b82525050565b5f6020820190506107ec5f8301846107ca565b92915050565b6107fb81610786565b8114610805575f80fd5b50565b5f81359050610816816107f2565b92915050565b5f6020828403121561083157610830610705565b5b5f61083e84828501610808565b91505092915050565b5f60109050919050565b5f81905092915050565b5f819050919050565b61086d81610786565b82525050565b5f61087e8383610864565b60208301905092915050565b5f602082019050919050565b61089f81610847565b6108a98184610851565b92506108b48261085b565b805f5b838110156108e45781516108cb8782610873565b96506108d68361088a565b9250506001810190506108b7565b505050505050565b5f610200820190506109005f830184610896565b92915050565b61090f81610709565b82525050565b5f6020820190506109285f830184610906565b92915050565b5f61093882610767565b9050919050565b6109488161092e565b82525050565b5f6020820190506109615f83018461093f565b92915050565b5f60408201905061097a5f830185610906565b6109876020830184610906565b9392505050565b5f82825260208201905092915050565b7f4e6f206572657320656c2061646d696e000000000000000000000000000000005f82015250565b5f6109d260108361098e565b91506109dd8261099e565b602082019050919050565b5f6020820190508181035f8301526109ff816109c6565b9050919050565b7f4e487b71000000000000000000000000000000000000000000000000000000005f52603260045260245ffd5b7f456c2074696b6574207961206861207369646f20636f6d707261646f000000005f82015250565b5f610a67601c8361098e565b9150610a7282610a33565b602082019050919050565b5f6020820190508181035f830152610a9481610a5b565b9050919050565b7f496e737566696369656e7420616d6f756e74206f6620424e42000000000000005f82015250565b5f610acf60198361098e565b9150610ada82610a9b565b602082019050919050565b5f6020820190508181035f830152610afc81610ac3565b9050919050565b7f4e487b71000000000000000000000000000000000000000000000000000000005f52601160045260245ffd5b5f610b3a82610709565b9150610b4583610709565b9250828201905080821115610b5d57610b5c610b03565b5b92915050565b7f54696b657420636f6d707261646f0000000000000000000000000000000000005f82015250565b5f610b97600e8361098e565b9150610ba282610b63565b602082019050919050565b5f6020820190508181035f830152610bc481610b8b565b9050919050565b7f41646d696e2063616d626961646f0000000000000000000000000000000000005f82015250565b5f610bff600e8361098e565b9150610c0a82610bcb565b602082019050919050565b5f6020820190508181035f830152610c2c81610bf3565b905091905056fea26469706673582212207d5c31422bcff6054bb2204dfda7a2291408bd5c610c2df13648bbe984cfd1a964736f6c634300081a0033",
			"opcodes": "PUSH1 0x80 PUSH1 0x40 MSTORE PUSH0 PUSH1 0x10 SSTORE PUSH20 0x4906BB5C1056D92A436191169A8AD383DC888AEB PUSH1 0x11 PUSH0 PUSH2 0x100 EXP DUP2 SLOAD DUP2 PUSH20 0xFFFFFFFFFFFFFFFFFFFFFFFFFFFFFFFFFFFFFFFF MUL NOT AND SWAP1 DUP4 PUSH20 0xFFFFFFFFFFFFFFFFFFFFFFFFFFFFFFFFFFFFFFFF AND MUL OR SWAP1 SSTORE POP CALLVALUE DUP1 ISZERO PUSH1 0x66 JUMPI PUSH0 DUP1 REVERT JUMPDEST POP PUSH2 0xC69 DUP1 PUSH2 0x74 PUSH0 CODECOPY PUSH0 RETURN INVALID PUSH1 0x80 PUSH1 0x40 MSTORE PUSH1 0x4 CALLDATASIZE LT PUSH2 0x7A JUMPI PUSH0 CALLDATALOAD PUSH1 0xE0 SHR DUP1 PUSH4 0x8F627444 GT PUSH2 0x4D JUMPI DUP1 PUSH4 0x8F627444 EQ PUSH2 0x128 JUMPI DUP1 PUSH4 0xBE4FB14D EQ PUSH2 0x152 JUMPI DUP1 PUSH4 0xF851A440 EQ PUSH2 0x17C JUMPI DUP1 PUSH4 0xFC00E628 EQ PUSH2 0x1A6 JUMPI PUSH2 0x7A JUMP JUMPDEST DUP1 PUSH4 0x4D63E206 EQ PUSH2 0x7E JUMPI DUP1 PUSH4 0x52BA15E6 EQ PUSH2 0xBA JUMPI DUP1 PUSH4 0x8AEEAE49 EQ PUSH2 0xD0 JUMPI DUP1 PUSH4 0x8F283970 EQ PUSH2 0x100 JUMPI JUMPDEST PUSH0 DUP1 REVERT JUMPDEST CALLVALUE DUP1 ISZERO PUSH2 0x89 JUMPI PUSH0 DUP1 REVERT JUMPDEST POP PUSH2 0xA4 PUSH1 0x4 DUP1 CALLDATASIZE SUB DUP2 ADD SWAP1 PUSH2 0x9F SWAP2 SWAP1 PUSH2 0x73C JUMP JUMPDEST PUSH2 0x1D1 JUMP JUMPDEST PUSH1 0x40 MLOAD PUSH2 0xB1 SWAP2 SWAP1 PUSH2 0x7A6 JUMP JUMPDEST PUSH1 0x40 MLOAD DUP1 SWAP2 SUB SWAP1 RETURN JUMPDEST CALLVALUE DUP1 ISZERO PUSH2 0xC5 JUMPI PUSH0 DUP1 REVERT JUMPDEST POP PUSH2 0xCE PUSH2 0x204 JUMP JUMPDEST STOP JUMPDEST PUSH2 0xEA PUSH1 0x4 DUP1 CALLDATASIZE SUB DUP2 ADD SWAP1 PUSH2 0xE5 SWAP2 SWAP1 PUSH2 0x73C JUMP JUMPDEST PUSH2 0x303 JUMP JUMPDEST PUSH1 0x40 MLOAD PUSH2 0xF7 SWAP2 SWAP1 PUSH2 0x7D9 JUMP JUMPDEST PUSH1 0x40 MLOAD DUP1 SWAP2 SUB SWAP1 RETURN JUMPDEST CALLVALUE DUP1 ISZERO PUSH2 0x10B JUMPI PUSH0 DUP1 REVERT JUMPDEST POP PUSH2 0x126 PUSH1 0x4 DUP1 CALLDATASIZE SUB DUP2 ADD SWAP1 PUSH2 0x121 SWAP2 SWAP1 PUSH2 0x81C JUMP JUMPDEST PUSH2 0x523 JUMP JUMPDEST STOP JUMPDEST CALLVALUE DUP1 ISZERO PUSH2 0x133 JUMPI PUSH0 DUP1 REVERT JUMPDEST POP PUSH2 0x13C PUSH2 0x62A JUMP JUMPDEST PUSH1 0x40 MLOAD PUSH2 0x149 SWAP2 SWAP1 PUSH2 0x8EC JUMP JUMPDEST PUSH1 0x40 MLOAD DUP1 SWAP2 SUB SWAP1 RETURN JUMPDEST CALLVALUE DUP1 ISZERO PUSH2 0x15D JUMPI PUSH0 DUP1 REVERT JUMPDEST POP PUSH2 0x166 PUSH2 0x6A9 JUMP JUMPDEST PUSH1 0x40 MLOAD PUSH2 0x173 SWAP2 SWAP1 PUSH2 0x915 JUMP JUMPDEST PUSH1 0x40 MLOAD DUP1 SWAP2 SUB SWAP1 RETURN JUMPDEST CALLVALUE DUP1 ISZERO PUSH2 0x187 JUMPI PUSH0 DUP1 REVERT JUMPDEST POP PUSH2 0x190 PUSH2 0x6AF JUMP JUMPDEST PUSH1 0x40 MLOAD PUSH2 0x19D SWAP2 SWAP1 PUSH2 0x94E JUMP JUMPDEST PUSH1 0x40 MLOAD DUP1 SWAP2 SUB SWAP1 RETURN JUMPDEST CALLVALUE DUP1 ISZERO PUSH2 0x1B1 JUMPI PUSH0 DUP1 REVERT JUMPDEST POP PUSH2 0x1BA PUSH2 0x6D4 JUMP JUMPDEST PUSH1 0x40 MLOAD PUSH2 0x1C8 SWAP3 SWAP2 SWAP1 PUSH2 0x967 JUMP JUMPDEST PUSH1 0x40 MLOAD DUP1 SWAP2 SUB SWAP1 RETURN JUMPDEST PUSH0 DUP2 PUSH1 0x10 DUP2 LT PUSH2 0x1DF JUMPI PUSH0 DUP1 REVERT JUMPDEST ADD PUSH0 SWAP2 POP SLOAD SWAP1 PUSH2 0x100 EXP SWAP1 DIV PUSH20 0xFFFFFFFFFFFFFFFFFFFFFFFFFFFFFFFFFFFFFFFF AND DUP2 JUMP JUMPDEST PUSH1 0x11 PUSH0 SWAP1 SLOAD SWAP1 PUSH2 0x100 EXP SWAP1 DIV PUSH20 0xFFFFFFFFFFFFFFFFFFFFFFFFFFFFFFFFFFFFFFFF AND PUSH20 0xFFFFFFFFFFFFFFFFFFFFFFFFFFFFFFFFFFFFFFFF AND CALLER PUSH20 0xFFFFFFFFFFFFFFFFFFFFFFFFFFFFFFFFFFFFFFFF AND EQ PUSH2 0x293 JUMPI PUSH1 0x40 MLOAD PUSH32 0x8C379A000000000000000000000000000000000000000000000000000000000 DUP2 MSTORE PUSH1 0x4 ADD PUSH2 0x28A SWAP1 PUSH2 0x9E8 JUMP JUMPDEST PUSH1 0x40 MLOAD DUP1 SWAP2 SUB SWAP1 REVERT JUMPDEST PUSH1 0x11 PUSH0 SWAP1 SLOAD SWAP1 PUSH2 0x100 EXP SWAP1 DIV PUSH20 0xFFFFFFFFFFFFFFFFFFFFFFFFFFFFFFFFFFFFFFFF AND PUSH20 0xFFFFFFFFFFFFFFFFFFFFFFFFFFFFFFFFFFFFFFFF AND PUSH2 0x8FC PUSH1 0x10 SLOAD SWAP1 DUP2 ISZERO MUL SWAP1 PUSH1 0x40 MLOAD PUSH0 PUSH1 0x40 MLOAD DUP1 DUP4 SUB DUP2 DUP6 DUP9 DUP9 CALL SWAP4 POP POP POP POP ISZERO DUP1 ISZERO PUSH2 0x2F9 JUMPI RETURNDATASIZE PUSH0 DUP1 RETURNDATACOPY RETURNDATASIZE PUSH0 REVERT JUMPDEST POP PUSH0 PUSH1 0x10 DUP2 SWAP1 SSTORE POP JUMP JUMPDEST PUSH0 DUP1 DUP3 LT ISZERO DUP1 ISZERO PUSH2 0x315 JUMPI POP PUSH1 0xF DUP3 GT ISZERO JUMPDEST PUSH2 0x31D JUMPI PUSH0 DUP1 REVERT JUMPDEST PUSH0 PUSH20 0xFFFFFFFFFFFFFFFFFFFFFFFFFFFFFFFFFFFFFFFF AND PUSH0 DUP4 PUSH1 0x10 DUP2 LT PUSH2 0x347 JUMPI PUSH2 0x346 PUSH2 0xA06 JUMP JUMPDEST JUMPDEST ADD PUSH0 SWAP1 SLOAD SWAP1 PUSH2 0x100 EXP SWAP1 DIV PUSH20 0xFFFFFFFFFFFFFFFFFFFFFFFFFFFFFFFFFFFFFFFF AND PUSH20 0xFFFFFFFFFFFFFFFFFFFFFFFFFFFFFFFFFFFFFFFF AND EQ PUSH2 0x3BE JUMPI PUSH1 0x40 MLOAD PUSH32 0x8C379A000000000000000000000000000000000000000000000000000000000 DUP2 MSTORE PUSH1 0x4 ADD PUSH2 0x3B5 SWAP1 PUSH2 0xA7D JUMP JUMPDEST PUSH1 0x40 MLOAD DUP1 SWAP2 SUB SWAP1 REVERT JUMPDEST PUSH7 0x470DE4DF820000 CALLVALUE EQ PUSH2 0x407 JUMPI PUSH1 0x40 MLOAD PUSH32 0x8C379A000000000000000000000000000000000000000000000000000000000 DUP2 MSTORE PUSH1 0x4 ADD PUSH2 0x3FE SWAP1 PUSH2 0xAE5 JUMP JUMPDEST PUSH1 0x40 MLOAD DUP1 SWAP2 SUB SWAP1 REVERT JUMPDEST CALLVALUE PUSH1 0x10 PUSH0 DUP3 DUP3 SLOAD PUSH2 0x418 SWAP2 SWAP1 PUSH2 0xB30 JUMP JUMPDEST SWAP3 POP POP DUP2 SWAP1 SSTORE POP PUSH0 PUSH1 0x1 SWAP1 POP PUSH0 PUSH20 0xFFFFFFFFFFFFFFFFFFFFFFFFFFFFFFFFFFFFFFFF AND PUSH0 DUP5 PUSH1 0x10 DUP2 LT PUSH2 0x44E JUMPI PUSH2 0x44D PUSH2 0xA06 JUMP JUMPDEST JUMPDEST ADD PUSH0 SWAP1 SLOAD SWAP1 PUSH2 0x100 EXP SWAP1 DIV PUSH20 0xFFFFFFFFFFFFFFFFFFFFFFFFFFFFFFFFFFFFFFFF AND PUSH20 0xFFFFFFFFFFFFFFFFFFFFFFFFFFFFFFFFFFFFFFFF AND SUB PUSH2 0x516 JUMPI CALLER PUSH0 DUP5 PUSH1 0x10 DUP2 LT PUSH2 0x49E JUMPI PUSH2 0x49D PUSH2 0xA06 JUMP JUMPDEST JUMPDEST ADD PUSH0 PUSH2 0x100 EXP DUP2 SLOAD DUP2 PUSH20 0xFFFFFFFFFFFFFFFFFFFFFFFFFFFFFFFFFFFFFFFF MUL NOT AND SWAP1 DUP4 PUSH20 0xFFFFFFFFFFFFFFFFFFFFFFFFFFFFFFFFFFFFFFFF AND MUL OR SWAP1 SSTORE POP PUSH32 0x1B30E0A556EA9EC102EDF7E7869684D78EFE978A98E6EA23B86DD868B33508CF PUSH1 0x40 MLOAD PUSH2 0x509 SWAP1 PUSH2 0xBAD JUMP JUMPDEST PUSH1 0x40 MLOAD DUP1 SWAP2 SUB SWAP1 LOG1 PUSH2 0x51A JUMP JUMPDEST PUSH0 SWAP1 POP JUMPDEST DUP1 SWAP2 POP POP SWAP2 SWAP1 POP JUMP JUMPDEST PUSH1 0x11 PUSH0 SWAP1 SLOAD SWAP1 PUSH2 0x100 EXP SWAP1 DIV PUSH20 0xFFFFFFFFFFFFFFFFFFFFFFFFFFFFFFFFFFFFFFFF AND PUSH20 0xFFFFFFFFFFFFFFFFFFFFFFFFFFFFFFFFFFFFFFFF AND CALLER PUSH20 0xFFFFFFFFFFFFFFFFFFFFFFFFFFFFFFFFFFFFFFFF AND EQ PUSH2 0x5B2 JUMPI PUSH1 0x40 MLOAD PUSH32 0x8C379A000000000000000000000000000000000000000000000000000000000 DUP2 MSTORE PUSH1 0x4 ADD PUSH2 0x5A9 SWAP1 PUSH2 0x9E8 JUMP JUMPDEST PUSH1 0x40 MLOAD DUP1 SWAP2 SUB SWAP1 REVERT JUMPDEST DUP1 PUSH1 0x11 PUSH0 PUSH2 0x100 EXP DUP2 SLOAD DUP2 PUSH20 0xFFFFFFFFFFFFFFFFFFFFFFFFFFFFFFFFFFFFFFFF MUL NOT AND SWAP1 DUP4 PUSH20 0xFFFFFFFFFFFFFFFFFFFFFFFFFFFFFFFFFFFFFFFF AND MUL OR SWAP1 SSTORE POP PUSH32 0x1B30E0A556EA9EC102EDF7E7869684D78EFE978A98E6EA23B86DD868B33508CF PUSH1 0x40 MLOAD PUSH2 0x61F SWAP1 PUSH2 0xC15 JUMP JUMPDEST PUSH1 0x40 MLOAD DUP1 SWAP2 SUB SWAP1 LOG1 POP JUMP JUMPDEST PUSH2 0x632 PUSH2 0x6E2 JUMP JUMPDEST PUSH0 PUSH1 0x10 DUP1 PUSH1 0x20 MUL PUSH1 0x40 MLOAD SWAP1 DUP2 ADD PUSH1 0x40 MSTORE DUP1 SWAP3 SWAP2 SWAP1 DUP3 PUSH1 0x10 DUP1 ISZERO PUSH2 0x69F JUMPI PUSH1 0x20 MUL DUP3 ADD SWAP2 JUMPDEST DUP2 PUSH0 SWAP1 SLOAD SWAP1 PUSH2 0x100 EXP SWAP1 DIV PUSH20 0xFFFFFFFFFFFFFFFFFFFFFFFFFFFFFFFFFFFFFFFF AND PUSH20 0xFFFFFFFFFFFFFFFFFFFFFFFFFFFFFFFFFFFFFFFF AND DUP2 MSTORE PUSH1 0x20 ADD SWAP1 PUSH1 0x1 ADD SWAP1 DUP1 DUP4 GT PUSH2 0x656 JUMPI JUMPDEST POP POP POP POP POP SWAP1 POP SWAP1 JUMP JUMPDEST PUSH1 0x10 SLOAD DUP2 JUMP JUMPDEST PUSH1 0x11 PUSH0 SWAP1 SLOAD SWAP1 PUSH2 0x100 EXP SWAP1 DIV PUSH20 0xFFFFFFFFFFFFFFFFFFFFFFFFFFFFFFFFFFFFFFFF AND DUP2 JUMP JUMPDEST PUSH0 DUP1 SELFBALANCE PUSH1 0x10 SLOAD SWAP2 POP SWAP2 POP SWAP1 SWAP2 JUMP JUMPDEST PUSH1 0x40 MLOAD DUP1 PUSH2 0x200 ADD PUSH1 0x40 MSTORE DUP1 PUSH1 0x10 SWAP1 PUSH1 0x20 DUP3 MUL DUP1 CALLDATASIZE DUP4 CALLDATACOPY DUP1 DUP3 ADD SWAP2 POP POP SWAP1 POP POP SWAP1 JUMP JUMPDEST PUSH0 DUP1 REVERT JUMPDEST PUSH0 DUP2 SWAP1 POP SWAP2 SWAP1 POP JUMP JUMPDEST PUSH2 0x71B DUP2 PUSH2 0x709 JUMP JUMPDEST DUP2 EQ PUSH2 0x725 JUMPI PUSH0 DUP1 REVERT JUMPDEST POP JUMP JUMPDEST PUSH0 DUP2 CALLDATALOAD SWAP1 POP PUSH2 0x736 DUP2 PUSH2 0x712 JUMP JUMPDEST SWAP3 SWAP2 POP POP JUMP JUMPDEST PUSH0 PUSH1 0x20 DUP3 DUP5 SUB SLT ISZERO PUSH2 0x751 JUMPI PUSH2 0x750 PUSH2 0x705 JUMP JUMPDEST JUMPDEST PUSH0 PUSH2 0x75E DUP5 DUP3 DUP6 ADD PUSH2 0x728 JUMP JUMPDEST SWAP2 POP POP SWAP3 SWAP2 POP POP JUMP JUMPDEST PUSH0 PUSH20 0xFFFFFFFFFFFFFFFFFFFFFFFFFFFFFFFFFFFFFFFF DUP3 AND SWAP1 POP SWAP2 SWAP1 POP JUMP JUMPDEST PUSH0 PUSH2 0x790 DUP3 PUSH2 0x767 JUMP JUMPDEST SWAP1 POP SWAP2 SWAP1 POP JUMP JUMPDEST PUSH2 0x7A0 DUP2 PUSH2 0x786 JUMP JUMPDEST DUP3 MSTORE POP POP JUMP JUMPDEST PUSH0 PUSH1 0x20 DUP3 ADD SWAP1 POP PUSH2 0x7B9 PUSH0 DUP4 ADD DUP5 PUSH2 0x797 JUMP JUMPDEST SWAP3 SWAP2 POP POP JUMP JUMPDEST PUSH0 DUP2 ISZERO ISZERO SWAP1 POP SWAP2 SWAP1 POP JUMP JUMPDEST PUSH2 0x7D3 DUP2 PUSH2 0x7BF JUMP JUMPDEST DUP3 MSTORE POP POP JUMP JUMPDEST PUSH0 PUSH1 0x20 DUP3 ADD SWAP1 POP PUSH2 0x7EC PUSH0 DUP4 ADD DUP5 PUSH2 0x7CA JUMP JUMPDEST SWAP3 SWAP2 POP POP JUMP JUMPDEST PUSH2 0x7FB DUP2 PUSH2 0x786 JUMP JUMPDEST DUP2 EQ PUSH2 0x805 JUMPI PUSH0 DUP1 REVERT JUMPDEST POP JUMP JUMPDEST PUSH0 DUP2 CALLDATALOAD SWAP1 POP PUSH2 0x816 DUP2 PUSH2 0x7F2 JUMP JUMPDEST SWAP3 SWAP2 POP POP JUMP JUMPDEST PUSH0 PUSH1 0x20 DUP3 DUP5 SUB SLT ISZERO PUSH2 0x831 JUMPI PUSH2 0x830 PUSH2 0x705 JUMP JUMPDEST JUMPDEST PUSH0 PUSH2 0x83E DUP5 DUP3 DUP6 ADD PUSH2 0x808 JUMP JUMPDEST SWAP2 POP POP SWAP3 SWAP2 POP POP JUMP JUMPDEST PUSH0 PUSH1 0x10 SWAP1 POP SWAP2 SWAP1 POP JUMP JUMPDEST PUSH0 DUP2 SWAP1 POP SWAP3 SWAP2 POP POP JUMP JUMPDEST PUSH0 DUP2 SWAP1 POP SWAP2 SWAP1 POP JUMP JUMPDEST PUSH2 0x86D DUP2 PUSH2 0x786 JUMP JUMPDEST DUP3 MSTORE POP POP JUMP JUMPDEST PUSH0 PUSH2 0x87E DUP4 DUP4 PUSH2 0x864 JUMP JUMPDEST PUSH1 0x20 DUP4 ADD SWAP1 POP SWAP3 SWAP2 POP POP JUMP JUMPDEST PUSH0 PUSH1 0x20 DUP3 ADD SWAP1 POP SWAP2 SWAP1 POP JUMP JUMPDEST PUSH2 0x89F DUP2 PUSH2 0x847 JUMP JUMPDEST PUSH2 0x8A9 DUP2 DUP5 PUSH2 0x851 JUMP JUMPDEST SWAP3 POP PUSH2 0x8B4 DUP3 PUSH2 0x85B JUMP JUMPDEST DUP1 PUSH0 JUMPDEST DUP4 DUP2 LT ISZERO PUSH2 0x8E4 JUMPI DUP2 MLOAD PUSH2 0x8CB DUP8 DUP3 PUSH2 0x873 JUMP JUMPDEST SWAP7 POP PUSH2 0x8D6 DUP4 PUSH2 0x88A JUMP JUMPDEST SWAP3 POP POP PUSH1 0x1 DUP2 ADD SWAP1 POP PUSH2 0x8B7 JUMP JUMPDEST POP POP POP POP POP POP JUMP JUMPDEST PUSH0 PUSH2 0x200 DUP3 ADD SWAP1 POP PUSH2 0x900 PUSH0 DUP4 ADD DUP5 PUSH2 0x896 JUMP JUMPDEST SWAP3 SWAP2 POP POP JUMP JUMPDEST PUSH2 0x90F DUP2 PUSH2 0x709 JUMP JUMPDEST DUP3 MSTORE POP POP JUMP JUMPDEST PUSH0 PUSH1 0x20 DUP3 ADD SWAP1 POP PUSH2 0x928 PUSH0 DUP4 ADD DUP5 PUSH2 0x906 JUMP JUMPDEST SWAP3 SWAP2 POP POP JUMP JUMPDEST PUSH0 PUSH2 0x938 DUP3 PUSH2 0x767 JUMP JUMPDEST SWAP1 POP SWAP2 SWAP1 POP JUMP JUMPDEST PUSH2 0x948 DUP2 PUSH2 0x92E JUMP JUMPDEST DUP3 MSTORE POP POP JUMP JUMPDEST PUSH0 PUSH1 0x20 DUP3 ADD SWAP1 POP PUSH2 0x961 PUSH0 DUP4 ADD DUP5 PUSH2 0x93F JUMP JUMPDEST SWAP3 SWAP2 POP POP JUMP JUMPDEST PUSH0 PUSH1 0x40 DUP3 ADD SWAP1 POP PUSH2 0x97A PUSH0 DUP4 ADD DUP6 PUSH2 0x906 JUMP JUMPDEST PUSH2 0x987 PUSH1 0x20 DUP4 ADD DUP5 PUSH2 0x906 JUMP JUMPDEST SWAP4 SWAP3 POP POP POP JUMP JUMPDEST PUSH0 DUP3 DUP3 MSTORE PUSH1 0x20 DUP3 ADD SWAP1 POP SWAP3 SWAP2 POP POP JUMP JUMPDEST PUSH32 0x4E6F206572657320656C2061646D696E00000000000000000000000000000000 PUSH0 DUP3 ADD MSTORE POP JUMP JUMPDEST PUSH0 PUSH2 0x9D2 PUSH1 0x10 DUP4 PUSH2 0x98E JUMP JUMPDEST SWAP2 POP PUSH2 0x9DD DUP3 PUSH2 0x99E JUMP JUMPDEST PUSH1 0x20 DUP3 ADD SWAP1 POP SWAP2 SWAP1 POP JUMP JUMPDEST PUSH0 PUSH1 0x20 DUP3 ADD SWAP1 POP DUP2 DUP2 SUB PUSH0 DUP4 ADD MSTORE PUSH2 0x9FF DUP2 PUSH2 0x9C6 JUMP JUMPDEST SWAP1 POP SWAP2 SWAP1 POP JUMP JUMPDEST PUSH32 0x4E487B7100000000000000000000000000000000000000000000000000000000 PUSH0 MSTORE PUSH1 0x32 PUSH1 0x4 MSTORE PUSH1 0x24 PUSH0 REVERT JUMPDEST PUSH32 0x456C2074696B6574207961206861207369646F20636F6D707261646F00000000 PUSH0 DUP3 ADD MSTORE POP JUMP JUMPDEST PUSH0 PUSH2 0xA67 PUSH1 0x1C DUP4 PUSH2 0x98E JUMP JUMPDEST SWAP2 POP PUSH2 0xA72 DUP3 PUSH2 0xA33 JUMP JUMPDEST PUSH1 0x20 DUP3 ADD SWAP1 POP SWAP2 SWAP1 POP JUMP JUMPDEST PUSH0 PUSH1 0x20 DUP3 ADD SWAP1 POP DUP2 DUP2 SUB PUSH0 DUP4 ADD MSTORE PUSH2 0xA94 DUP2 PUSH2 0xA5B JUMP JUMPDEST SWAP1 POP SWAP2 SWAP1 POP JUMP JUMPDEST PUSH32 0x496E737566696369656E7420616D6F756E74206F6620424E4200000000000000 PUSH0 DUP3 ADD MSTORE POP JUMP JUMPDEST PUSH0 PUSH2 0xACF PUSH1 0x19 DUP4 PUSH2 0x98E JUMP JUMPDEST SWAP2 POP PUSH2 0xADA DUP3 PUSH2 0xA9B JUMP JUMPDEST PUSH1 0x20 DUP3 ADD SWAP1 POP SWAP2 SWAP1 POP JUMP JUMPDEST PUSH0 PUSH1 0x20 DUP3 ADD SWAP1 POP DUP2 DUP2 SUB PUSH0 DUP4 ADD MSTORE PUSH2 0xAFC DUP2 PUSH2 0xAC3 JUMP JUMPDEST SWAP1 POP SWAP2 SWAP1 POP JUMP JUMPDEST PUSH32 0x4E487B7100000000000000000000000000000000000000000000000000000000 PUSH0 MSTORE PUSH1 0x11 PUSH1 0x4 MSTORE PUSH1 0x24 PUSH0 REVERT JUMPDEST PUSH0 PUSH2 0xB3A DUP3 PUSH2 0x709 JUMP JUMPDEST SWAP2 POP PUSH2 0xB45 DUP4 PUSH2 0x709 JUMP JUMPDEST SWAP3 POP DUP3 DUP3 ADD SWAP1 POP DUP1 DUP3 GT ISZERO PUSH2 0xB5D JUMPI PUSH2 0xB5C PUSH2 0xB03 JUMP JUMPDEST JUMPDEST SWAP3 SWAP2 POP POP JUMP JUMPDEST PUSH32 0x54696B657420636F6D707261646F000000000000000000000000000000000000 PUSH0 DUP3 ADD MSTORE POP JUMP JUMPDEST PUSH0 PUSH2 0xB97 PUSH1 0xE DUP4 PUSH2 0x98E JUMP JUMPDEST SWAP2 POP PUSH2 0xBA2 DUP3 PUSH2 0xB63 JUMP JUMPDEST PUSH1 0x20 DUP3 ADD SWAP1 POP SWAP2 SWAP1 POP JUMP JUMPDEST PUSH0 PUSH1 0x20 DUP3 ADD SWAP1 POP DUP2 DUP2 SUB PUSH0 DUP4 ADD MSTORE PUSH2 0xBC4 DUP2 PUSH2 0xB8B JUMP JUMPDEST SWAP1 POP SWAP2 SWAP1 POP JUMP JUMPDEST PUSH32 0x41646D696E2063616D626961646F000000000000000000000000000000000000 PUSH0 DUP3 ADD MSTORE POP JUMP JUMPDEST PUSH0 PUSH2 0xBFF PUSH1 0xE DUP4 PUSH2 0x98E JUMP JUMPDEST SWAP2 POP PUSH2 0xC0A DUP3 PUSH2 0xBCB JUMP JUMPDEST PUSH1 0x20 DUP3 ADD SWAP1 POP SWAP2 SWAP1 POP JUMP JUMPDEST PUSH0 PUSH1 0x20 DUP3 ADD SWAP1 POP DUP2 DUP2 SUB PUSH0 DUP4 ADD MSTORE PUSH2 0xC2C DUP2 PUSH2 0xBF3 JUMP JUMPDEST SWAP1 POP SWAP2 SWAP1 POP JUMP INVALID LOG2 PUSH5 0x6970667358 0x22 SLT KECCAK256 PUSH30 0x5C31422BCFF6054BB2204DFDA7A2291408BD5C610C2DF13648BBE984CFD1 0xA9 PUSH5 0x736F6C6343 STOP ADDMOD BYTE STOP CALLER "
		},
		"gasEstimates": {
			"creation": {
				"codeDepositCost": "635400",
				"executionCost": "29939",
				"totalCost": "665339"
			},
			"external": {
				"admin()": "2552",
				"balanceWei()": "2447",
				"buyTiket(uint256)": "infinite",
				"changeAdmin(address)": "28748",
				"getBalanceInfo()": "infinite",
				"getTikets()": "infinite",
				"tikets(uint256)": "2795",
				"transferBalanceToAdmin()": "infinite"
			}
		},
		"methodIdentifiers": {
			"admin()": "f851a440",
			"balanceWei()": "be4fb14d",
			"buyTiket(uint256)": "8aeeae49",
			"changeAdmin(address)": "8f283970",
			"getBalanceInfo()": "fc00e628",
			"getTikets()": "8f627444",
			"tikets(uint256)": "4d63e206",
			"transferBalanceToAdmin()": "52ba15e6"
		}
	},
	"abi": [
		{
			"anonymous": false,
			"inputs": [
				{
					"indexed": false,
					"internalType": "string",
					"name": "mensaje",
					"type": "string"
				}
			],
			"name": "simpleConsoleLog",
			"type": "event"
		},
		{
			"inputs": [],
			"name": "admin",
			"outputs": [
				{
					"internalType": "address payable",
					"name": "",
					"type": "address"
				}
			],
			"stateMutability": "view",
			"type": "function"
		},
		{
			"inputs": [],
			"name": "balanceWei",
			"outputs": [
				{
					"internalType": "uint256",
					"name": "",
					"type": "uint256"
				}
			],
			"stateMutability": "view",
			"type": "function"
		},
		{
			"inputs": [
				{
					"internalType": "uint256",
					"name": "tiketIndex",
					"type": "uint256"
				}
			],
			"name": "buyTiket",
			"outputs": [
				{
					"internalType": "bool",
					"name": "",
					"type": "bool"
				}
			],
			"stateMutability": "payable",
			"type": "function"
		},
		{
			"inputs": [
				{
					"internalType": "address",
					"name": "adress",
					"type": "address"
				}
			],
			"name": "changeAdmin",
			"outputs": [],
			"stateMutability": "nonpayable",
			"type": "function"
		},
		{
			"inputs": [],
			"name": "getBalanceInfo",
			"outputs": [
				{
					"internalType": "uint256",
					"name": "contractBalance",
					"type": "uint256"
				},
				{
					"internalType": "uint256",
					"name": "balanceWeiStored",
					"type": "uint256"
				}
			],
			"stateMutability": "view",
			"type": "function"
		},
		{
			"inputs": [],
			"name": "getTikets",
			"outputs": [
				{
					"internalType": "address[16]",
					"name": "",
					"type": "address[16]"
				}
			],
			"stateMutability": "view",
			"type": "function"
		},
		{
			"inputs": [
				{
					"internalType": "uint256",
					"name": "",
					"type": "uint256"
				}
			],
			"name": "tikets",
			"outputs": [
				{
					"internalType": "address",
					"name": "",
					"type": "address"
				}
			],
			"stateMutability": "view",
			"type": "function"
		},
		{
			"inputs": [],
			"name": "transferBalanceToAdmin",
			"outputs": [],
			"stateMutability": "nonpayable",
			"type": "function"
		}
	]
}