{
	"data": {
		"bytecode": {
			"linkReferences": {},
			"object": "6080604052348015600e575f80fd5b506116328061001c5f395ff3fe608060405234801561000f575f80fd5b5060043610610055575f3560e01c80630de062371461005957806312e6c9431461008957806318d38110146100be57806382e27eab146100da5780638324aa5b1461010a575b5f80fd5b610073600480360381019061006e9190610bdc565b610126565b6040516100809190610dfe565b60405180910390f35b6100a3600480360381019061009e9190610e48565b6104bf565b6040516100b596959493929190610eca565b60405180910390f35b6100d860048036038101906100d39190610f3e565b610688565b005b6100f460048036038101906100ef9190610e48565b6107fa565b60405161010191906110bb565b60405180910390f35b610124600480360381019061011f9190610e48565b610a3c565b005b60605f8061010067ffffffffffffffff811115610146576101456110db565b5b6040519080825280602002602001820160405280156101745781602001602082028036833780820191505090505b5090505f5b610100811015610223575f805f8381526020019081526020015f2060040154141580156101e2575085856040516101b1929190611144565b60405180910390205f808381526020019081526020015f205f016040516101d8919061124b565b6040518091039020145b1561021657808284815181106101fb576101fa611261565b5b6020026020010181815250508280610212906112bb565b9350505b8080600101915050610179565b505f8267ffffffffffffffff81111561023f5761023e6110db565b5b60405190808252806020026020018201604052801561027857816020015b610265610ae8565b81526020019060019003908161025d5790505b5090505f5b838110156104b2575f8084838151811061029a57610299611261565b5b602002602001015181526020019081526020015f206040518060c00160405290815f820180546102c990611189565b80601f01602080910402602001604051908101604052809291908181526020018280546102f590611189565b80156103405780601f1061031757610100808354040283529160200191610340565b820191905f5260205f20905b81548152906001019060200180831161032357829003601f168201915b5050505050815260200160018201805461035990611189565b80601f016020809104026020016040519081016040528092919081815260200182805461038590611189565b80156103d05780601f106103a7576101008083540402835291602001916103d0565b820191905f5260205f20905b8154815290600101906020018083116103b357829003601f168201915b5050505050815260200160028201548152602001600382015481526020016004820154815260200160058201805461040790611189565b80601f016020809104026020016040519081016040528092919081815260200182805461043390611189565b801561047e5780601f106104555761010080835404028352916020019161047e565b820191905f5260205f20905b81548152906001019060200180831161046157829003601f168201915b50505050508152505082828151811061049a57610499611261565b5b6020026020010181905250808060010191505061027d565b5080935050505092915050565b5f602052805f5260405f205f91509050805f0180546104dd90611189565b80601f016020809104026020016040519081016040528092919081815260200182805461050990611189565b80156105545780601f1061052b57610100808354040283529160200191610554565b820191905f5260205f20905b81548152906001019060200180831161053757829003601f168201915b50505050509080600101805461056990611189565b80601f016020809104026020016040519081016040528092919081815260200182805461059590611189565b80156105e05780601f106105b7576101008083540402835291602001916105e0565b820191905f5260205f20905b8154815290600101906020018083116105c357829003601f168201915b50505050509080600201549080600301549080600401549080600501805461060790611189565b80601f016020809104026020016040519081016040528092919081815260200182805461063390611189565b801561067e5780601f106106555761010080835404028352916020019161067e565b820191905f5260205f20905b81548152906001019060200180831161066157829003601f168201915b5050505050905086565b6040518060c001604052808a8a8080601f0160208091040260200160405190810160405280939291908181526020018383808284375f81840152601f19601f82011690508083019250505050505050815260200188888080601f0160208091040260200160405190810160405280939291908181526020018383808284375f81840152601f19601f82011690508083019250505050505050815260200186815260200185815260200184815260200183838080601f0160208091040260200160405190810160405280939291908181526020018383808284375f81840152601f19601f820116905080830192505050505050508152505f808581526020019081526020015f205f820151815f0190816107a1919061149f565b5060208201518160010190816107b7919061149f565b5060408201518160020155606082015181600301556080820151816004015560a08201518160050190816107eb919061149f565b50905050505050505050505050565b610802610ae8565b5f805f8481526020019081526020015f206040518060c00160405290815f8201805461082d90611189565b80601f016020809104026020016040519081016040528092919081815260200182805461085990611189565b80156108a45780601f1061087b576101008083540402835291602001916108a4565b820191905f5260205f20905b81548152906001019060200180831161088757829003601f168201915b505050505081526020016001820180546108bd90611189565b80601f01602080910402602001604051908101604052809291908181526020018280546108e990611189565b80156109345780601f1061090b57610100808354040283529160200191610934565b820191905f5260205f20905b81548152906001019060200180831161091757829003601f168201915b5050505050815260200160028201548152602001600382015481526020016004820154815260200160058201805461096b90611189565b80601f016020809104026020016040519081016040528092919081815260200182805461099790611189565b80156109e25780601f106109b9576101008083540402835291602001916109e2565b820191905f5260205f20905b8154815290600101906020018083116109c557829003601f168201915b50505050508152505090505f816080015103610a33576040517f08c379a0000000000000000000000000000000000000000000000000000000008152600401610a2a906115de565b60405180910390fd5b80915050919050565b5f805f8381526020019081526020015f206004015403610a91576040517f08c379a0000000000000000000000000000000000000000000000000000000008152600401610a88906115de565b60405180910390fd5b5f808281526020019081526020015f205f8082015f610ab09190610b1b565b600182015f610abf9190610b1b565b600282015f9055600382015f9055600482015f9055600582015f610ae39190610b1b565b505050565b6040518060c0016040528060608152602001606081526020015f81526020015f81526020015f8152602001606081525090565b508054610b2790611189565b5f825580601f10610b385750610b55565b601f0160209004905f5260205f2090810190610b549190610b58565b5b50565b5b80821115610b6f575f815f905550600101610b59565b5090565b5f80fd5b5f80fd5b5f80fd5b5f80fd5b5f80fd5b5f8083601f840112610b9c57610b9b610b7b565b5b8235905067ffffffffffffffff811115610bb957610bb8610b7f565b5b602083019150836001820283011115610bd557610bd4610b83565b5b9250929050565b5f8060208385031215610bf257610bf1610b73565b5b5f83013567ffffffffffffffff811115610c0f57610c0e610b77565b5b610c1b85828601610b87565b92509250509250929050565b5f81519050919050565b5f82825260208201905092915050565b5f819050602082019050919050565b5f81519050919050565b5f82825260208201905092915050565b8281835e5f83830152505050565b5f601f19601f8301169050919050565b5f610c9282610c50565b610c9c8185610c5a565b9350610cac818560208601610c6a565b610cb581610c78565b840191505092915050565b5f819050919050565b610cd281610cc0565b82525050565b5f60c083015f8301518482035f860152610cf28282610c88565b91505060208301518482036020860152610d0c8282610c88565b9150506040830151610d216040860182610cc9565b506060830151610d346060860182610cc9565b506080830151610d476080860182610cc9565b5060a083015184820360a0860152610d5f8282610c88565b9150508091505092915050565b5f610d778383610cd8565b905092915050565b5f602082019050919050565b5f610d9582610c27565b610d9f8185610c31565b935083602082028501610db185610c41565b805f5b85811015610dec5784840389528151610dcd8582610d6c565b9450610dd883610d7f565b925060208a01995050600181019050610db4565b50829750879550505050505092915050565b5f6020820190508181035f830152610e168184610d8b565b905092915050565b610e2781610cc0565b8114610e31575f80fd5b50565b5f81359050610e4281610e1e565b92915050565b5f60208284031215610e5d57610e5c610b73565b5b5f610e6a84828501610e34565b91505092915050565b5f82825260208201905092915050565b5f610e8d82610c50565b610e978185610e73565b9350610ea7818560208601610c6a565b610eb081610c78565b840191505092915050565b610ec481610cc0565b82525050565b5f60c0820190508181035f830152610ee28189610e83565b90508181036020830152610ef68188610e83565b9050610f056040830187610ebb565b610f126060830186610ebb565b610f1f6080830185610ebb565b81810360a0830152610f318184610e83565b9050979650505050505050565b5f805f805f805f805f60c08a8c031215610f5b57610f5a610b73565b5b5f8a013567ffffffffffffffff811115610f7857610f77610b77565b5b610f848c828d01610b87565b995099505060208a013567ffffffffffffffff811115610fa757610fa6610b77565b5b610fb38c828d01610b87565b97509750506040610fc68c828d01610e34565b9550506060610fd78c828d01610e34565b9450506080610fe88c828d01610e34565b93505060a08a013567ffffffffffffffff81111561100957611008610b77565b5b6110158c828d01610b87565b92509250509295985092959850929598565b5f60c083015f8301518482035f8601526110418282610c88565b9150506020830151848203602086015261105b8282610c88565b91505060408301516110706040860182610cc9565b5060608301516110836060860182610cc9565b5060808301516110966080860182610cc9565b5060a083015184820360a08601526110ae8282610c88565b9150508091505092915050565b5f6020820190508181035f8301526110d38184611027565b905092915050565b7f4e487b71000000000000000000000000000000000000000000000000000000005f52604160045260245ffd5b5f81905092915050565b828183375f83830152505050565b5f61112b8385611108565b9350611138838584611112565b82840190509392505050565b5f611150828486611120565b91508190509392505050565b7f4e487b71000000000000000000000000000000000000000000000000000000005f52602260045260245ffd5b5f60028204905060018216806111a057607f821691505b6020821081036111b3576111b261115c565b5b50919050565b5f819050815f5260205f209050919050565b5f81546111d781611189565b6111e18186611108565b9450600182165f81146111fb576001811461121057611242565b60ff1983168652811515820286019350611242565b611219856111b9565b5f5b8381101561123a5781548189015260018201915060208101905061121b565b838801955050505b50505092915050565b5f61125682846111cb565b915081905092915050565b7f4e487b71000000000000000000000000000000000000000000000000000000005f52603260045260245ffd5b7f4e487b71000000000000000000000000000000000000000000000000000000005f52601160045260245ffd5b5f6112c582610cc0565b91507fffffffffffffffffffffffffffffffffffffffffffffffffffffffffffffffff82036112f7576112f661128e565b5b600182019050919050565b5f819050815f5260205f209050919050565b5f6020601f8301049050919050565b5f82821b905092915050565b5f6008830261135e7fffffffffffffffffffffffffffffffffffffffffffffffffffffffffffffffff82611323565b6113688683611323565b95508019841693508086168417925050509392505050565b5f819050919050565b5f6113a361139e61139984610cc0565b611380565b610cc0565b9050919050565b5f819050919050565b6113bc83611389565b6113d06113c8826113aa565b84845461132f565b825550505050565b5f90565b6113e46113d8565b6113ef8184846113b3565b505050565b5b81811015611412576114075f826113dc565b6001810190506113f5565b5050565b601f8211156114575761142881611302565b61143184611314565b81016020851015611440578190505b61145461144c85611314565b8301826113f4565b50505b505050565b5f82821c905092915050565b5f6114775f198460080261145c565b1980831691505092915050565b5f61148f8383611468565b9150826002028217905092915050565b6114a882610c50565b67ffffffffffffffff8111156114c1576114c06110db565b5b6114cb8254611189565b6114d6828285611416565b5f60209050601f831160018114611507575f84156114f5578287015190505b6114ff8582611484565b865550611566565b601f19841661151586611302565b5f5b8281101561153c57848901518255600182019150602085019450602081019050611517565b868310156115595784890151611555601f891682611468565b8355505b6001600288020188555050505b505050505050565b7f4e6f7420666f756e64205265616c5374617465207769746820746869732072655f8201527f67697374726174696f6e00000000000000000000000000000000000000000000602082015250565b5f6115c8602a83610e73565b91506115d38261156e565b604082019050919050565b5f6020820190508181035f8301526115f5816115bc565b905091905056fea26469706673582212208719e3ea983e36e9fd182539a5aea2880d9c879d594b3273742985563ee4b5b164736f6c634300081a0033",
			"opcodes": "PUSH1 0x80 PUSH1 0x40 MSTORE CALLVALUE DUP1 ISZERO PUSH1 0xE JUMPI PUSH0 DUP1 REVERT JUMPDEST POP PUSH2 0x1632 DUP1 PUSH2 0x1C PUSH0 CODECOPY PUSH0 RETURN INVALID PUSH1 0x80 PUSH1 0x40 MSTORE CALLVALUE DUP1 ISZERO PUSH2 0xF JUMPI PUSH0 DUP1 REVERT JUMPDEST POP PUSH1 0x4 CALLDATASIZE LT PUSH2 0x55 JUMPI PUSH0 CALLDATALOAD PUSH1 0xE0 SHR DUP1 PUSH4 0xDE06237 EQ PUSH2 0x59 JUMPI DUP1 PUSH4 0x12E6C943 EQ PUSH2 0x89 JUMPI DUP1 PUSH4 0x18D38110 EQ PUSH2 0xBE JUMPI DUP1 PUSH4 0x82E27EAB EQ PUSH2 0xDA JUMPI DUP1 PUSH4 0x8324AA5B EQ PUSH2 0x10A JUMPI JUMPDEST PUSH0 DUP1 REVERT JUMPDEST PUSH2 0x73 PUSH1 0x4 DUP1 CALLDATASIZE SUB DUP2 ADD SWAP1 PUSH2 0x6E SWAP2 SWAP1 PUSH2 0xBDC JUMP JUMPDEST PUSH2 0x126 JUMP JUMPDEST PUSH1 0x40 MLOAD PUSH2 0x80 SWAP2 SWAP1 PUSH2 0xDFE JUMP JUMPDEST PUSH1 0x40 MLOAD DUP1 SWAP2 SUB SWAP1 RETURN JUMPDEST PUSH2 0xA3 PUSH1 0x4 DUP1 CALLDATASIZE SUB DUP2 ADD SWAP1 PUSH2 0x9E SWAP2 SWAP1 PUSH2 0xE48 JUMP JUMPDEST PUSH2 0x4BF JUMP JUMPDEST PUSH1 0x40 MLOAD PUSH2 0xB5 SWAP7 SWAP6 SWAP5 SWAP4 SWAP3 SWAP2 SWAP1 PUSH2 0xECA JUMP JUMPDEST PUSH1 0x40 MLOAD DUP1 SWAP2 SUB SWAP1 RETURN JUMPDEST PUSH2 0xD8 PUSH1 0x4 DUP1 CALLDATASIZE SUB DUP2 ADD SWAP1 PUSH2 0xD3 SWAP2 SWAP1 PUSH2 0xF3E JUMP JUMPDEST PUSH2 0x688 JUMP JUMPDEST STOP JUMPDEST PUSH2 0xF4 PUSH1 0x4 DUP1 CALLDATASIZE SUB DUP2 ADD SWAP1 PUSH2 0xEF SWAP2 SWAP1 PUSH2 0xE48 JUMP JUMPDEST PUSH2 0x7FA JUMP JUMPDEST PUSH1 0x40 MLOAD PUSH2 0x101 SWAP2 SWAP1 PUSH2 0x10BB JUMP JUMPDEST PUSH1 0x40 MLOAD DUP1 SWAP2 SUB SWAP1 RETURN JUMPDEST PUSH2 0x124 PUSH1 0x4 DUP1 CALLDATASIZE SUB DUP2 ADD SWAP1 PUSH2 0x11F SWAP2 SWAP1 PUSH2 0xE48 JUMP JUMPDEST PUSH2 0xA3C JUMP JUMPDEST STOP JUMPDEST PUSH1 0x60 PUSH0 DUP1 PUSH2 0x100 PUSH8 0xFFFFFFFFFFFFFFFF DUP2 GT ISZERO PUSH2 0x146 JUMPI PUSH2 0x145 PUSH2 0x10DB JUMP JUMPDEST JUMPDEST PUSH1 0x40 MLOAD SWAP1 DUP1 DUP3 MSTORE DUP1 PUSH1 0x20 MUL PUSH1 0x20 ADD DUP3 ADD PUSH1 0x40 MSTORE DUP1 ISZERO PUSH2 0x174 JUMPI DUP2 PUSH1 0x20 ADD PUSH1 0x20 DUP3 MUL DUP1 CALLDATASIZE DUP4 CALLDATACOPY DUP1 DUP3 ADD SWAP2 POP POP SWAP1 POP JUMPDEST POP SWAP1 POP PUSH0 JUMPDEST PUSH2 0x100 DUP2 LT ISZERO PUSH2 0x223 JUMPI PUSH0 DUP1 PUSH0 DUP4 DUP2 MSTORE PUSH1 0x20 ADD SWAP1 DUP2 MSTORE PUSH1 0x20 ADD PUSH0 KECCAK256 PUSH1 0x4 ADD SLOAD EQ ISZERO DUP1 ISZERO PUSH2 0x1E2 JUMPI POP DUP6 DUP6 PUSH1 0x40 MLOAD PUSH2 0x1B1 SWAP3 SWAP2 SWAP1 PUSH2 0x1144 JUMP JUMPDEST PUSH1 0x40 MLOAD DUP1 SWAP2 SUB SWAP1 KECCAK256 PUSH0 DUP1 DUP4 DUP2 MSTORE PUSH1 0x20 ADD SWAP1 DUP2 MSTORE PUSH1 0x20 ADD PUSH0 KECCAK256 PUSH0 ADD PUSH1 0x40 MLOAD PUSH2 0x1D8 SWAP2 SWAP1 PUSH2 0x124B JUMP JUMPDEST PUSH1 0x40 MLOAD DUP1 SWAP2 SUB SWAP1 KECCAK256 EQ JUMPDEST ISZERO PUSH2 0x216 JUMPI DUP1 DUP3 DUP5 DUP2 MLOAD DUP2 LT PUSH2 0x1FB JUMPI PUSH2 0x1FA PUSH2 0x1261 JUMP JUMPDEST JUMPDEST PUSH1 0x20 MUL PUSH1 0x20 ADD ADD DUP2 DUP2 MSTORE POP POP DUP3 DUP1 PUSH2 0x212 SWAP1 PUSH2 0x12BB JUMP JUMPDEST SWAP4 POP POP JUMPDEST DUP1 DUP1 PUSH1 0x1 ADD SWAP2 POP POP PUSH2 0x179 JUMP JUMPDEST POP PUSH0 DUP3 PUSH8 0xFFFFFFFFFFFFFFFF DUP2 GT ISZERO PUSH2 0x23F JUMPI PUSH2 0x23E PUSH2 0x10DB JUMP JUMPDEST JUMPDEST PUSH1 0x40 MLOAD SWAP1 DUP1 DUP3 MSTORE DUP1 PUSH1 0x20 MUL PUSH1 0x20 ADD DUP3 ADD PUSH1 0x40 MSTORE DUP1 ISZERO PUSH2 0x278 JUMPI DUP2 PUSH1 0x20 ADD JUMPDEST PUSH2 0x265 PUSH2 0xAE8 JUMP JUMPDEST DUP2 MSTORE PUSH1 0x20 ADD SWAP1 PUSH1 0x1 SWAP1 SUB SWAP1 DUP2 PUSH2 0x25D JUMPI SWAP1 POP JUMPDEST POP SWAP1 POP PUSH0 JUMPDEST DUP4 DUP2 LT ISZERO PUSH2 0x4B2 JUMPI PUSH0 DUP1 DUP5 DUP4 DUP2 MLOAD DUP2 LT PUSH2 0x29A JUMPI PUSH2 0x299 PUSH2 0x1261 JUMP JUMPDEST JUMPDEST PUSH1 0x20 MUL PUSH1 0x20 ADD ADD MLOAD DUP2 MSTORE PUSH1 0x20 ADD SWAP1 DUP2 MSTORE PUSH1 0x20 ADD PUSH0 KECCAK256 PUSH1 0x40 MLOAD DUP1 PUSH1 0xC0 ADD PUSH1 0x40 MSTORE SWAP1 DUP2 PUSH0 DUP3 ADD DUP1 SLOAD PUSH2 0x2C9 SWAP1 PUSH2 0x1189 JUMP JUMPDEST DUP1 PUSH1 0x1F ADD PUSH1 0x20 DUP1 SWAP2 DIV MUL PUSH1 0x20 ADD PUSH1 0x40 MLOAD SWAP1 DUP2 ADD PUSH1 0x40 MSTORE DUP1 SWAP3 SWAP2 SWAP1 DUP2 DUP2 MSTORE PUSH1 0x20 ADD DUP3 DUP1 SLOAD PUSH2 0x2F5 SWAP1 PUSH2 0x1189 JUMP JUMPDEST DUP1 ISZERO PUSH2 0x340 JUMPI DUP1 PUSH1 0x1F LT PUSH2 0x317 JUMPI PUSH2 0x100 DUP1 DUP4 SLOAD DIV MUL DUP4 MSTORE SWAP2 PUSH1 0x20 ADD SWAP2 PUSH2 0x340 JUMP JUMPDEST DUP3 ADD SWAP2 SWAP1 PUSH0 MSTORE PUSH1 0x20 PUSH0 KECCAK256 SWAP1 JUMPDEST DUP2 SLOAD DUP2 MSTORE SWAP1 PUSH1 0x1 ADD SWAP1 PUSH1 0x20 ADD DUP1 DUP4 GT PUSH2 0x323 JUMPI DUP3 SWAP1 SUB PUSH1 0x1F AND DUP3 ADD SWAP2 JUMPDEST POP POP POP POP POP DUP2 MSTORE PUSH1 0x20 ADD PUSH1 0x1 DUP3 ADD DUP1 SLOAD PUSH2 0x359 SWAP1 PUSH2 0x1189 JUMP JUMPDEST DUP1 PUSH1 0x1F ADD PUSH1 0x20 DUP1 SWAP2 DIV MUL PUSH1 0x20 ADD PUSH1 0x40 MLOAD SWAP1 DUP2 ADD PUSH1 0x40 MSTORE DUP1 SWAP3 SWAP2 SWAP1 DUP2 DUP2 MSTORE PUSH1 0x20 ADD DUP3 DUP1 SLOAD PUSH2 0x385 SWAP1 PUSH2 0x1189 JUMP JUMPDEST DUP1 ISZERO PUSH2 0x3D0 JUMPI DUP1 PUSH1 0x1F LT PUSH2 0x3A7 JUMPI PUSH2 0x100 DUP1 DUP4 SLOAD DIV MUL DUP4 MSTORE SWAP2 PUSH1 0x20 ADD SWAP2 PUSH2 0x3D0 JUMP JUMPDEST DUP3 ADD SWAP2 SWAP1 PUSH0 MSTORE PUSH1 0x20 PUSH0 KECCAK256 SWAP1 JUMPDEST DUP2 SLOAD DUP2 MSTORE SWAP1 PUSH1 0x1 ADD SWAP1 PUSH1 0x20 ADD DUP1 DUP4 GT PUSH2 0x3B3 JUMPI DUP3 SWAP1 SUB PUSH1 0x1F AND DUP3 ADD SWAP2 JUMPDEST POP POP POP POP POP DUP2 MSTORE PUSH1 0x20 ADD PUSH1 0x2 DUP3 ADD SLOAD DUP2 MSTORE PUSH1 0x20 ADD PUSH1 0x3 DUP3 ADD SLOAD DUP2 MSTORE PUSH1 0x20 ADD PUSH1 0x4 DUP3 ADD SLOAD DUP2 MSTORE PUSH1 0x20 ADD PUSH1 0x5 DUP3 ADD DUP1 SLOAD PUSH2 0x407 SWAP1 PUSH2 0x1189 JUMP JUMPDEST DUP1 PUSH1 0x1F ADD PUSH1 0x20 DUP1 SWAP2 DIV MUL PUSH1 0x20 ADD PUSH1 0x40 MLOAD SWAP1 DUP2 ADD PUSH1 0x40 MSTORE DUP1 SWAP3 SWAP2 SWAP1 DUP2 DUP2 MSTORE PUSH1 0x20 ADD DUP3 DUP1 SLOAD PUSH2 0x433 SWAP1 PUSH2 0x1189 JUMP JUMPDEST DUP1 ISZERO PUSH2 0x47E JUMPI DUP1 PUSH1 0x1F LT PUSH2 0x455 JUMPI PUSH2 0x100 DUP1 DUP4 SLOAD DIV MUL DUP4 MSTORE SWAP2 PUSH1 0x20 ADD SWAP2 PUSH2 0x47E JUMP JUMPDEST DUP3 ADD SWAP2 SWAP1 PUSH0 MSTORE PUSH1 0x20 PUSH0 KECCAK256 SWAP1 JUMPDEST DUP2 SLOAD DUP2 MSTORE SWAP1 PUSH1 0x1 ADD SWAP1 PUSH1 0x20 ADD DUP1 DUP4 GT PUSH2 0x461 JUMPI DUP3 SWAP1 SUB PUSH1 0x1F AND DUP3 ADD SWAP2 JUMPDEST POP POP POP POP POP DUP2 MSTORE POP POP DUP3 DUP3 DUP2 MLOAD DUP2 LT PUSH2 0x49A JUMPI PUSH2 0x499 PUSH2 0x1261 JUMP JUMPDEST JUMPDEST PUSH1 0x20 MUL PUSH1 0x20 ADD ADD DUP2 SWAP1 MSTORE POP DUP1 DUP1 PUSH1 0x1 ADD SWAP2 POP POP PUSH2 0x27D JUMP JUMPDEST POP DUP1 SWAP4 POP POP POP POP SWAP3 SWAP2 POP POP JUMP JUMPDEST PUSH0 PUSH1 0x20 MSTORE DUP1 PUSH0 MSTORE PUSH1 0x40 PUSH0 KECCAK256 PUSH0 SWAP2 POP SWAP1 POP DUP1 PUSH0 ADD DUP1 SLOAD PUSH2 0x4DD SWAP1 PUSH2 0x1189 JUMP JUMPDEST DUP1 PUSH1 0x1F ADD PUSH1 0x20 DUP1 SWAP2 DIV MUL PUSH1 0x20 ADD PUSH1 0x40 MLOAD SWAP1 DUP2 ADD PUSH1 0x40 MSTORE DUP1 SWAP3 SWAP2 SWAP1 DUP2 DUP2 MSTORE PUSH1 0x20 ADD DUP3 DUP1 SLOAD PUSH2 0x509 SWAP1 PUSH2 0x1189 JUMP JUMPDEST DUP1 ISZERO PUSH2 0x554 JUMPI DUP1 PUSH1 0x1F LT PUSH2 0x52B JUMPI PUSH2 0x100 DUP1 DUP4 SLOAD DIV MUL DUP4 MSTORE SWAP2 PUSH1 0x20 ADD SWAP2 PUSH2 0x554 JUMP JUMPDEST DUP3 ADD SWAP2 SWAP1 PUSH0 MSTORE PUSH1 0x20 PUSH0 KECCAK256 SWAP1 JUMPDEST DUP2 SLOAD DUP2 MSTORE SWAP1 PUSH1 0x1 ADD SWAP1 PUSH1 0x20 ADD DUP1 DUP4 GT PUSH2 0x537 JUMPI DUP3 SWAP1 SUB PUSH1 0x1F AND DUP3 ADD SWAP2 JUMPDEST POP POP POP POP POP SWAP1 DUP1 PUSH1 0x1 ADD DUP1 SLOAD PUSH2 0x569 SWAP1 PUSH2 0x1189 JUMP JUMPDEST DUP1 PUSH1 0x1F ADD PUSH1 0x20 DUP1 SWAP2 DIV MUL PUSH1 0x20 ADD PUSH1 0x40 MLOAD SWAP1 DUP2 ADD PUSH1 0x40 MSTORE DUP1 SWAP3 SWAP2 SWAP1 DUP2 DUP2 MSTORE PUSH1 0x20 ADD DUP3 DUP1 SLOAD PUSH2 0x595 SWAP1 PUSH2 0x1189 JUMP JUMPDEST DUP1 ISZERO PUSH2 0x5E0 JUMPI DUP1 PUSH1 0x1F LT PUSH2 0x5B7 JUMPI PUSH2 0x100 DUP1 DUP4 SLOAD DIV MUL DUP4 MSTORE SWAP2 PUSH1 0x20 ADD SWAP2 PUSH2 0x5E0 JUMP JUMPDEST DUP3 ADD SWAP2 SWAP1 PUSH0 MSTORE PUSH1 0x20 PUSH0 KECCAK256 SWAP1 JUMPDEST DUP2 SLOAD DUP2 MSTORE SWAP1 PUSH1 0x1 ADD SWAP1 PUSH1 0x20 ADD DUP1 DUP4 GT PUSH2 0x5C3 JUMPI DUP3 SWAP1 SUB PUSH1 0x1F AND DUP3 ADD SWAP2 JUMPDEST POP POP POP POP POP SWAP1 DUP1 PUSH1 0x2 ADD SLOAD SWAP1 DUP1 PUSH1 0x3 ADD SLOAD SWAP1 DUP1 PUSH1 0x4 ADD SLOAD SWAP1 DUP1 PUSH1 0x5 ADD DUP1 SLOAD PUSH2 0x607 SWAP1 PUSH2 0x1189 JUMP JUMPDEST DUP1 PUSH1 0x1F ADD PUSH1 0x20 DUP1 SWAP2 DIV MUL PUSH1 0x20 ADD PUSH1 0x40 MLOAD SWAP1 DUP2 ADD PUSH1 0x40 MSTORE DUP1 SWAP3 SWAP2 SWAP1 DUP2 DUP2 MSTORE PUSH1 0x20 ADD DUP3 DUP1 SLOAD PUSH2 0x633 SWAP1 PUSH2 0x1189 JUMP JUMPDEST DUP1 ISZERO PUSH2 0x67E JUMPI DUP1 PUSH1 0x1F LT PUSH2 0x655 JUMPI PUSH2 0x100 DUP1 DUP4 SLOAD DIV MUL DUP4 MSTORE SWAP2 PUSH1 0x20 ADD SWAP2 PUSH2 0x67E JUMP JUMPDEST DUP3 ADD SWAP2 SWAP1 PUSH0 MSTORE PUSH1 0x20 PUSH0 KECCAK256 SWAP1 JUMPDEST DUP2 SLOAD DUP2 MSTORE SWAP1 PUSH1 0x1 ADD SWAP1 PUSH1 0x20 ADD DUP1 DUP4 GT PUSH2 0x661 JUMPI DUP3 SWAP1 SUB PUSH1 0x1F AND DUP3 ADD SWAP2 JUMPDEST POP POP POP POP POP SWAP1 POP DUP7 JUMP JUMPDEST PUSH1 0x40 MLOAD DUP1 PUSH1 0xC0 ADD PUSH1 0x40 MSTORE DUP1 DUP11 DUP11 DUP1 DUP1 PUSH1 0x1F ADD PUSH1 0x20 DUP1 SWAP2 DIV MUL PUSH1 0x20 ADD PUSH1 0x40 MLOAD SWAP1 DUP2 ADD PUSH1 0x40 MSTORE DUP1 SWAP4 SWAP3 SWAP2 SWAP1 DUP2 DUP2 MSTORE PUSH1 0x20 ADD DUP4 DUP4 DUP1 DUP3 DUP5 CALLDATACOPY PUSH0 DUP2 DUP5 ADD MSTORE PUSH1 0x1F NOT PUSH1 0x1F DUP3 ADD AND SWAP1 POP DUP1 DUP4 ADD SWAP3 POP POP POP POP POP POP POP DUP2 MSTORE PUSH1 0x20 ADD DUP9 DUP9 DUP1 DUP1 PUSH1 0x1F ADD PUSH1 0x20 DUP1 SWAP2 DIV MUL PUSH1 0x20 ADD PUSH1 0x40 MLOAD SWAP1 DUP2 ADD PUSH1 0x40 MSTORE DUP1 SWAP4 SWAP3 SWAP2 SWAP1 DUP2 DUP2 MSTORE PUSH1 0x20 ADD DUP4 DUP4 DUP1 DUP3 DUP5 CALLDATACOPY PUSH0 DUP2 DUP5 ADD MSTORE PUSH1 0x1F NOT PUSH1 0x1F DUP3 ADD AND SWAP1 POP DUP1 DUP4 ADD SWAP3 POP POP POP POP POP POP POP DUP2 MSTORE PUSH1 0x20 ADD DUP7 DUP2 MSTORE PUSH1 0x20 ADD DUP6 DUP2 MSTORE PUSH1 0x20 ADD DUP5 DUP2 MSTORE PUSH1 0x20 ADD DUP4 DUP4 DUP1 DUP1 PUSH1 0x1F ADD PUSH1 0x20 DUP1 SWAP2 DIV MUL PUSH1 0x20 ADD PUSH1 0x40 MLOAD SWAP1 DUP2 ADD PUSH1 0x40 MSTORE DUP1 SWAP4 SWAP3 SWAP2 SWAP1 DUP2 DUP2 MSTORE PUSH1 0x20 ADD DUP4 DUP4 DUP1 DUP3 DUP5 CALLDATACOPY PUSH0 DUP2 DUP5 ADD MSTORE PUSH1 0x1F NOT PUSH1 0x1F DUP3 ADD AND SWAP1 POP DUP1 DUP4 ADD SWAP3 POP POP POP POP POP POP POP DUP2 MSTORE POP PUSH0 DUP1 DUP6 DUP2 MSTORE PUSH1 0x20 ADD SWAP1 DUP2 MSTORE PUSH1 0x20 ADD PUSH0 KECCAK256 PUSH0 DUP3 ADD MLOAD DUP2 PUSH0 ADD SWAP1 DUP2 PUSH2 0x7A1 SWAP2 SWAP1 PUSH2 0x149F JUMP JUMPDEST POP PUSH1 0x20 DUP3 ADD MLOAD DUP2 PUSH1 0x1 ADD SWAP1 DUP2 PUSH2 0x7B7 SWAP2 SWAP1 PUSH2 0x149F JUMP JUMPDEST POP PUSH1 0x40 DUP3 ADD MLOAD DUP2 PUSH1 0x2 ADD SSTORE PUSH1 0x60 DUP3 ADD MLOAD DUP2 PUSH1 0x3 ADD SSTORE PUSH1 0x80 DUP3 ADD MLOAD DUP2 PUSH1 0x4 ADD SSTORE PUSH1 0xA0 DUP3 ADD MLOAD DUP2 PUSH1 0x5 ADD SWAP1 DUP2 PUSH2 0x7EB SWAP2 SWAP1 PUSH2 0x149F JUMP JUMPDEST POP SWAP1 POP POP POP POP POP POP POP POP POP POP POP JUMP JUMPDEST PUSH2 0x802 PUSH2 0xAE8 JUMP JUMPDEST PUSH0 DUP1 PUSH0 DUP5 DUP2 MSTORE PUSH1 0x20 ADD SWAP1 DUP2 MSTORE PUSH1 0x20 ADD PUSH0 KECCAK256 PUSH1 0x40 MLOAD DUP1 PUSH1 0xC0 ADD PUSH1 0x40 MSTORE SWAP1 DUP2 PUSH0 DUP3 ADD DUP1 SLOAD PUSH2 0x82D SWAP1 PUSH2 0x1189 JUMP JUMPDEST DUP1 PUSH1 0x1F ADD PUSH1 0x20 DUP1 SWAP2 DIV MUL PUSH1 0x20 ADD PUSH1 0x40 MLOAD SWAP1 DUP2 ADD PUSH1 0x40 MSTORE DUP1 SWAP3 SWAP2 SWAP1 DUP2 DUP2 MSTORE PUSH1 0x20 ADD DUP3 DUP1 SLOAD PUSH2 0x859 SWAP1 PUSH2 0x1189 JUMP JUMPDEST DUP1 ISZERO PUSH2 0x8A4 JUMPI DUP1 PUSH1 0x1F LT PUSH2 0x87B JUMPI PUSH2 0x100 DUP1 DUP4 SLOAD DIV MUL DUP4 MSTORE SWAP2 PUSH1 0x20 ADD SWAP2 PUSH2 0x8A4 JUMP JUMPDEST DUP3 ADD SWAP2 SWAP1 PUSH0 MSTORE PUSH1 0x20 PUSH0 KECCAK256 SWAP1 JUMPDEST DUP2 SLOAD DUP2 MSTORE SWAP1 PUSH1 0x1 ADD SWAP1 PUSH1 0x20 ADD DUP1 DUP4 GT PUSH2 0x887 JUMPI DUP3 SWAP1 SUB PUSH1 0x1F AND DUP3 ADD SWAP2 JUMPDEST POP POP POP POP POP DUP2 MSTORE PUSH1 0x20 ADD PUSH1 0x1 DUP3 ADD DUP1 SLOAD PUSH2 0x8BD SWAP1 PUSH2 0x1189 JUMP JUMPDEST DUP1 PUSH1 0x1F ADD PUSH1 0x20 DUP1 SWAP2 DIV MUL PUSH1 0x20 ADD PUSH1 0x40 MLOAD SWAP1 DUP2 ADD PUSH1 0x40 MSTORE DUP1 SWAP3 SWAP2 SWAP1 DUP2 DUP2 MSTORE PUSH1 0x20 ADD DUP3 DUP1 SLOAD PUSH2 0x8E9 SWAP1 PUSH2 0x1189 JUMP JUMPDEST DUP1 ISZERO PUSH2 0x934 JUMPI DUP1 PUSH1 0x1F LT PUSH2 0x90B JUMPI PUSH2 0x100 DUP1 DUP4 SLOAD DIV MUL DUP4 MSTORE SWAP2 PUSH1 0x20 ADD SWAP2 PUSH2 0x934 JUMP JUMPDEST DUP3 ADD SWAP2 SWAP1 PUSH0 MSTORE PUSH1 0x20 PUSH0 KECCAK256 SWAP1 JUMPDEST DUP2 SLOAD DUP2 MSTORE SWAP1 PUSH1 0x1 ADD SWAP1 PUSH1 0x20 ADD DUP1 DUP4 GT PUSH2 0x917 JUMPI DUP3 SWAP1 SUB PUSH1 0x1F AND DUP3 ADD SWAP2 JUMPDEST POP POP POP POP POP DUP2 MSTORE PUSH1 0x20 ADD PUSH1 0x2 DUP3 ADD SLOAD DUP2 MSTORE PUSH1 0x20 ADD PUSH1 0x3 DUP3 ADD SLOAD DUP2 MSTORE PUSH1 0x20 ADD PUSH1 0x4 DUP3 ADD SLOAD DUP2 MSTORE PUSH1 0x20 ADD PUSH1 0x5 DUP3 ADD DUP1 SLOAD PUSH2 0x96B SWAP1 PUSH2 0x1189 JUMP JUMPDEST DUP1 PUSH1 0x1F ADD PUSH1 0x20 DUP1 SWAP2 DIV MUL PUSH1 0x20 ADD PUSH1 0x40 MLOAD SWAP1 DUP2 ADD PUSH1 0x40 MSTORE DUP1 SWAP3 SWAP2 SWAP1 DUP2 DUP2 MSTORE PUSH1 0x20 ADD DUP3 DUP1 SLOAD PUSH2 0x997 SWAP1 PUSH2 0x1189 JUMP JUMPDEST DUP1 ISZERO PUSH2 0x9E2 JUMPI DUP1 PUSH1 0x1F LT PUSH2 0x9B9 JUMPI PUSH2 0x100 DUP1 DUP4 SLOAD DIV MUL DUP4 MSTORE SWAP2 PUSH1 0x20 ADD SWAP2 PUSH2 0x9E2 JUMP JUMPDEST DUP3 ADD SWAP2 SWAP1 PUSH0 MSTORE PUSH1 0x20 PUSH0 KECCAK256 SWAP1 JUMPDEST DUP2 SLOAD DUP2 MSTORE SWAP1 PUSH1 0x1 ADD SWAP1 PUSH1 0x20 ADD DUP1 DUP4 GT PUSH2 0x9C5 JUMPI DUP3 SWAP1 SUB PUSH1 0x1F AND DUP3 ADD SWAP2 JUMPDEST POP POP POP POP POP DUP2 MSTORE POP POP SWAP1 POP PUSH0 DUP2 PUSH1 0x80 ADD MLOAD SUB PUSH2 0xA33 JUMPI PUSH1 0x40 MLOAD PUSH32 0x8C379A000000000000000000000000000000000000000000000000000000000 DUP2 MSTORE PUSH1 0x4 ADD PUSH2 0xA2A SWAP1 PUSH2 0x15DE JUMP JUMPDEST PUSH1 0x40 MLOAD DUP1 SWAP2 SUB SWAP1 REVERT JUMPDEST DUP1 SWAP2 POP POP SWAP2 SWAP1 POP JUMP JUMPDEST PUSH0 DUP1 PUSH0 DUP4 DUP2 MSTORE PUSH1 0x20 ADD SWAP1 DUP2 MSTORE PUSH1 0x20 ADD PUSH0 KECCAK256 PUSH1 0x4 ADD SLOAD SUB PUSH2 0xA91 JUMPI PUSH1 0x40 MLOAD PUSH32 0x8C379A000000000000000000000000000000000000000000000000000000000 DUP2 MSTORE PUSH1 0x4 ADD PUSH2 0xA88 SWAP1 PUSH2 0x15DE JUMP JUMPDEST PUSH1 0x40 MLOAD DUP1 SWAP2 SUB SWAP1 REVERT JUMPDEST PUSH0 DUP1 DUP3 DUP2 MSTORE PUSH1 0x20 ADD SWAP1 DUP2 MSTORE PUSH1 0x20 ADD PUSH0 KECCAK256 PUSH0 DUP1 DUP3 ADD PUSH0 PUSH2 0xAB0 SWAP2 SWAP1 PUSH2 0xB1B JUMP JUMPDEST PUSH1 0x1 DUP3 ADD PUSH0 PUSH2 0xABF SWAP2 SWAP1 PUSH2 0xB1B JUMP JUMPDEST PUSH1 0x2 DUP3 ADD PUSH0 SWAP1 SSTORE PUSH1 0x3 DUP3 ADD PUSH0 SWAP1 SSTORE PUSH1 0x4 DUP3 ADD PUSH0 SWAP1 SSTORE PUSH1 0x5 DUP3 ADD PUSH0 PUSH2 0xAE3 SWAP2 SWAP1 PUSH2 0xB1B JUMP JUMPDEST POP POP POP JUMP JUMPDEST PUSH1 0x40 MLOAD DUP1 PUSH1 0xC0 ADD PUSH1 0x40 MSTORE DUP1 PUSH1 0x60 DUP2 MSTORE PUSH1 0x20 ADD PUSH1 0x60 DUP2 MSTORE PUSH1 0x20 ADD PUSH0 DUP2 MSTORE PUSH1 0x20 ADD PUSH0 DUP2 MSTORE PUSH1 0x20 ADD PUSH0 DUP2 MSTORE PUSH1 0x20 ADD PUSH1 0x60 DUP2 MSTORE POP SWAP1 JUMP JUMPDEST POP DUP1 SLOAD PUSH2 0xB27 SWAP1 PUSH2 0x1189 JUMP JUMPDEST PUSH0 DUP3 SSTORE DUP1 PUSH1 0x1F LT PUSH2 0xB38 JUMPI POP PUSH2 0xB55 JUMP JUMPDEST PUSH1 0x1F ADD PUSH1 0x20 SWAP1 DIV SWAP1 PUSH0 MSTORE PUSH1 0x20 PUSH0 KECCAK256 SWAP1 DUP2 ADD SWAP1 PUSH2 0xB54 SWAP2 SWAP1 PUSH2 0xB58 JUMP JUMPDEST JUMPDEST POP JUMP JUMPDEST JUMPDEST DUP1 DUP3 GT ISZERO PUSH2 0xB6F JUMPI PUSH0 DUP2 PUSH0 SWAP1 SSTORE POP PUSH1 0x1 ADD PUSH2 0xB59 JUMP JUMPDEST POP SWAP1 JUMP JUMPDEST PUSH0 DUP1 REVERT JUMPDEST PUSH0 DUP1 REVERT JUMPDEST PUSH0 DUP1 REVERT JUMPDEST PUSH0 DUP1 REVERT JUMPDEST PUSH0 DUP1 REVERT JUMPDEST PUSH0 DUP1 DUP4 PUSH1 0x1F DUP5 ADD SLT PUSH2 0xB9C JUMPI PUSH2 0xB9B PUSH2 0xB7B JUMP JUMPDEST JUMPDEST DUP3 CALLDATALOAD SWAP1 POP PUSH8 0xFFFFFFFFFFFFFFFF DUP2 GT ISZERO PUSH2 0xBB9 JUMPI PUSH2 0xBB8 PUSH2 0xB7F JUMP JUMPDEST JUMPDEST PUSH1 0x20 DUP4 ADD SWAP2 POP DUP4 PUSH1 0x1 DUP3 MUL DUP4 ADD GT ISZERO PUSH2 0xBD5 JUMPI PUSH2 0xBD4 PUSH2 0xB83 JUMP JUMPDEST JUMPDEST SWAP3 POP SWAP3 SWAP1 POP JUMP JUMPDEST PUSH0 DUP1 PUSH1 0x20 DUP4 DUP6 SUB SLT ISZERO PUSH2 0xBF2 JUMPI PUSH2 0xBF1 PUSH2 0xB73 JUMP JUMPDEST JUMPDEST PUSH0 DUP4 ADD CALLDATALOAD PUSH8 0xFFFFFFFFFFFFFFFF DUP2 GT ISZERO PUSH2 0xC0F JUMPI PUSH2 0xC0E PUSH2 0xB77 JUMP JUMPDEST JUMPDEST PUSH2 0xC1B DUP6 DUP3 DUP7 ADD PUSH2 0xB87 JUMP JUMPDEST SWAP3 POP SWAP3 POP POP SWAP3 POP SWAP3 SWAP1 POP JUMP JUMPDEST PUSH0 DUP2 MLOAD SWAP1 POP SWAP2 SWAP1 POP JUMP JUMPDEST PUSH0 DUP3 DUP3 MSTORE PUSH1 0x20 DUP3 ADD SWAP1 POP SWAP3 SWAP2 POP POP JUMP JUMPDEST PUSH0 DUP2 SWAP1 POP PUSH1 0x20 DUP3 ADD SWAP1 POP SWAP2 SWAP1 POP JUMP JUMPDEST PUSH0 DUP2 MLOAD SWAP1 POP SWAP2 SWAP1 POP JUMP JUMPDEST PUSH0 DUP3 DUP3 MSTORE PUSH1 0x20 DUP3 ADD SWAP1 POP SWAP3 SWAP2 POP POP JUMP JUMPDEST DUP3 DUP2 DUP4 MCOPY PUSH0 DUP4 DUP4 ADD MSTORE POP POP POP JUMP JUMPDEST PUSH0 PUSH1 0x1F NOT PUSH1 0x1F DUP4 ADD AND SWAP1 POP SWAP2 SWAP1 POP JUMP JUMPDEST PUSH0 PUSH2 0xC92 DUP3 PUSH2 0xC50 JUMP JUMPDEST PUSH2 0xC9C DUP2 DUP6 PUSH2 0xC5A JUMP JUMPDEST SWAP4 POP PUSH2 0xCAC DUP2 DUP6 PUSH1 0x20 DUP7 ADD PUSH2 0xC6A JUMP JUMPDEST PUSH2 0xCB5 DUP2 PUSH2 0xC78 JUMP JUMPDEST DUP5 ADD SWAP2 POP POP SWAP3 SWAP2 POP POP JUMP JUMPDEST PUSH0 DUP2 SWAP1 POP SWAP2 SWAP1 POP JUMP JUMPDEST PUSH2 0xCD2 DUP2 PUSH2 0xCC0 JUMP JUMPDEST DUP3 MSTORE POP POP JUMP JUMPDEST PUSH0 PUSH1 0xC0 DUP4 ADD PUSH0 DUP4 ADD MLOAD DUP5 DUP3 SUB PUSH0 DUP7 ADD MSTORE PUSH2 0xCF2 DUP3 DUP3 PUSH2 0xC88 JUMP JUMPDEST SWAP2 POP POP PUSH1 0x20 DUP4 ADD MLOAD DUP5 DUP3 SUB PUSH1 0x20 DUP7 ADD MSTORE PUSH2 0xD0C DUP3 DUP3 PUSH2 0xC88 JUMP JUMPDEST SWAP2 POP POP PUSH1 0x40 DUP4 ADD MLOAD PUSH2 0xD21 PUSH1 0x40 DUP7 ADD DUP3 PUSH2 0xCC9 JUMP JUMPDEST POP PUSH1 0x60 DUP4 ADD MLOAD PUSH2 0xD34 PUSH1 0x60 DUP7 ADD DUP3 PUSH2 0xCC9 JUMP JUMPDEST POP PUSH1 0x80 DUP4 ADD MLOAD PUSH2 0xD47 PUSH1 0x80 DUP7 ADD DUP3 PUSH2 0xCC9 JUMP JUMPDEST POP PUSH1 0xA0 DUP4 ADD MLOAD DUP5 DUP3 SUB PUSH1 0xA0 DUP7 ADD MSTORE PUSH2 0xD5F DUP3 DUP3 PUSH2 0xC88 JUMP JUMPDEST SWAP2 POP POP DUP1 SWAP2 POP POP SWAP3 SWAP2 POP POP JUMP JUMPDEST PUSH0 PUSH2 0xD77 DUP4 DUP4 PUSH2 0xCD8 JUMP JUMPDEST SWAP1 POP SWAP3 SWAP2 POP POP JUMP JUMPDEST PUSH0 PUSH1 0x20 DUP3 ADD SWAP1 POP SWAP2 SWAP1 POP JUMP JUMPDEST PUSH0 PUSH2 0xD95 DUP3 PUSH2 0xC27 JUMP JUMPDEST PUSH2 0xD9F DUP2 DUP6 PUSH2 0xC31 JUMP JUMPDEST SWAP4 POP DUP4 PUSH1 0x20 DUP3 MUL DUP6 ADD PUSH2 0xDB1 DUP6 PUSH2 0xC41 JUMP JUMPDEST DUP1 PUSH0 JUMPDEST DUP6 DUP2 LT ISZERO PUSH2 0xDEC JUMPI DUP5 DUP5 SUB DUP10 MSTORE DUP2 MLOAD PUSH2 0xDCD DUP6 DUP3 PUSH2 0xD6C JUMP JUMPDEST SWAP5 POP PUSH2 0xDD8 DUP4 PUSH2 0xD7F JUMP JUMPDEST SWAP3 POP PUSH1 0x20 DUP11 ADD SWAP10 POP POP PUSH1 0x1 DUP2 ADD SWAP1 POP PUSH2 0xDB4 JUMP JUMPDEST POP DUP3 SWAP8 POP DUP8 SWAP6 POP POP POP POP POP POP SWAP3 SWAP2 POP POP JUMP JUMPDEST PUSH0 PUSH1 0x20 DUP3 ADD SWAP1 POP DUP2 DUP2 SUB PUSH0 DUP4 ADD MSTORE PUSH2 0xE16 DUP2 DUP5 PUSH2 0xD8B JUMP JUMPDEST SWAP1 POP SWAP3 SWAP2 POP POP JUMP JUMPDEST PUSH2 0xE27 DUP2 PUSH2 0xCC0 JUMP JUMPDEST DUP2 EQ PUSH2 0xE31 JUMPI PUSH0 DUP1 REVERT JUMPDEST POP JUMP JUMPDEST PUSH0 DUP2 CALLDATALOAD SWAP1 POP PUSH2 0xE42 DUP2 PUSH2 0xE1E JUMP JUMPDEST SWAP3 SWAP2 POP POP JUMP JUMPDEST PUSH0 PUSH1 0x20 DUP3 DUP5 SUB SLT ISZERO PUSH2 0xE5D JUMPI PUSH2 0xE5C PUSH2 0xB73 JUMP JUMPDEST JUMPDEST PUSH0 PUSH2 0xE6A DUP5 DUP3 DUP6 ADD PUSH2 0xE34 JUMP JUMPDEST SWAP2 POP POP SWAP3 SWAP2 POP POP JUMP JUMPDEST PUSH0 DUP3 DUP3 MSTORE PUSH1 0x20 DUP3 ADD SWAP1 POP SWAP3 SWAP2 POP POP JUMP JUMPDEST PUSH0 PUSH2 0xE8D DUP3 PUSH2 0xC50 JUMP JUMPDEST PUSH2 0xE97 DUP2 DUP6 PUSH2 0xE73 JUMP JUMPDEST SWAP4 POP PUSH2 0xEA7 DUP2 DUP6 PUSH1 0x20 DUP7 ADD PUSH2 0xC6A JUMP JUMPDEST PUSH2 0xEB0 DUP2 PUSH2 0xC78 JUMP JUMPDEST DUP5 ADD SWAP2 POP POP SWAP3 SWAP2 POP POP JUMP JUMPDEST PUSH2 0xEC4 DUP2 PUSH2 0xCC0 JUMP JUMPDEST DUP3 MSTORE POP POP JUMP JUMPDEST PUSH0 PUSH1 0xC0 DUP3 ADD SWAP1 POP DUP2 DUP2 SUB PUSH0 DUP4 ADD MSTORE PUSH2 0xEE2 DUP2 DUP10 PUSH2 0xE83 JUMP JUMPDEST SWAP1 POP DUP2 DUP2 SUB PUSH1 0x20 DUP4 ADD MSTORE PUSH2 0xEF6 DUP2 DUP9 PUSH2 0xE83 JUMP JUMPDEST SWAP1 POP PUSH2 0xF05 PUSH1 0x40 DUP4 ADD DUP8 PUSH2 0xEBB JUMP JUMPDEST PUSH2 0xF12 PUSH1 0x60 DUP4 ADD DUP7 PUSH2 0xEBB JUMP JUMPDEST PUSH2 0xF1F PUSH1 0x80 DUP4 ADD DUP6 PUSH2 0xEBB JUMP JUMPDEST DUP2 DUP2 SUB PUSH1 0xA0 DUP4 ADD MSTORE PUSH2 0xF31 DUP2 DUP5 PUSH2 0xE83 JUMP JUMPDEST SWAP1 POP SWAP8 SWAP7 POP POP POP POP POP POP POP JUMP JUMPDEST PUSH0 DUP1 PUSH0 DUP1 PUSH0 DUP1 PUSH0 DUP1 PUSH0 PUSH1 0xC0 DUP11 DUP13 SUB SLT ISZERO PUSH2 0xF5B JUMPI PUSH2 0xF5A PUSH2 0xB73 JUMP JUMPDEST JUMPDEST PUSH0 DUP11 ADD CALLDATALOAD PUSH8 0xFFFFFFFFFFFFFFFF DUP2 GT ISZERO PUSH2 0xF78 JUMPI PUSH2 0xF77 PUSH2 0xB77 JUMP JUMPDEST JUMPDEST PUSH2 0xF84 DUP13 DUP3 DUP14 ADD PUSH2 0xB87 JUMP JUMPDEST SWAP10 POP SWAP10 POP POP PUSH1 0x20 DUP11 ADD CALLDATALOAD PUSH8 0xFFFFFFFFFFFFFFFF DUP2 GT ISZERO PUSH2 0xFA7 JUMPI PUSH2 0xFA6 PUSH2 0xB77 JUMP JUMPDEST JUMPDEST PUSH2 0xFB3 DUP13 DUP3 DUP14 ADD PUSH2 0xB87 JUMP JUMPDEST SWAP8 POP SWAP8 POP POP PUSH1 0x40 PUSH2 0xFC6 DUP13 DUP3 DUP14 ADD PUSH2 0xE34 JUMP JUMPDEST SWAP6 POP POP PUSH1 0x60 PUSH2 0xFD7 DUP13 DUP3 DUP14 ADD PUSH2 0xE34 JUMP JUMPDEST SWAP5 POP POP PUSH1 0x80 PUSH2 0xFE8 DUP13 DUP3 DUP14 ADD PUSH2 0xE34 JUMP JUMPDEST SWAP4 POP POP PUSH1 0xA0 DUP11 ADD CALLDATALOAD PUSH8 0xFFFFFFFFFFFFFFFF DUP2 GT ISZERO PUSH2 0x1009 JUMPI PUSH2 0x1008 PUSH2 0xB77 JUMP JUMPDEST JUMPDEST PUSH2 0x1015 DUP13 DUP3 DUP14 ADD PUSH2 0xB87 JUMP JUMPDEST SWAP3 POP SWAP3 POP POP SWAP3 SWAP6 SWAP9 POP SWAP3 SWAP6 SWAP9 POP SWAP3 SWAP6 SWAP9 JUMP JUMPDEST PUSH0 PUSH1 0xC0 DUP4 ADD PUSH0 DUP4 ADD MLOAD DUP5 DUP3 SUB PUSH0 DUP7 ADD MSTORE PUSH2 0x1041 DUP3 DUP3 PUSH2 0xC88 JUMP JUMPDEST SWAP2 POP POP PUSH1 0x20 DUP4 ADD MLOAD DUP5 DUP3 SUB PUSH1 0x20 DUP7 ADD MSTORE PUSH2 0x105B DUP3 DUP3 PUSH2 0xC88 JUMP JUMPDEST SWAP2 POP POP PUSH1 0x40 DUP4 ADD MLOAD PUSH2 0x1070 PUSH1 0x40 DUP7 ADD DUP3 PUSH2 0xCC9 JUMP JUMPDEST POP PUSH1 0x60 DUP4 ADD MLOAD PUSH2 0x1083 PUSH1 0x60 DUP7 ADD DUP3 PUSH2 0xCC9 JUMP JUMPDEST POP PUSH1 0x80 DUP4 ADD MLOAD PUSH2 0x1096 PUSH1 0x80 DUP7 ADD DUP3 PUSH2 0xCC9 JUMP JUMPDEST POP PUSH1 0xA0 DUP4 ADD MLOAD DUP5 DUP3 SUB PUSH1 0xA0 DUP7 ADD MSTORE PUSH2 0x10AE DUP3 DUP3 PUSH2 0xC88 JUMP JUMPDEST SWAP2 POP POP DUP1 SWAP2 POP POP SWAP3 SWAP2 POP POP JUMP JUMPDEST PUSH0 PUSH1 0x20 DUP3 ADD SWAP1 POP DUP2 DUP2 SUB PUSH0 DUP4 ADD MSTORE PUSH2 0x10D3 DUP2 DUP5 PUSH2 0x1027 JUMP JUMPDEST SWAP1 POP SWAP3 SWAP2 POP POP JUMP JUMPDEST PUSH32 0x4E487B7100000000000000000000000000000000000000000000000000000000 PUSH0 MSTORE PUSH1 0x41 PUSH1 0x4 MSTORE PUSH1 0x24 PUSH0 REVERT JUMPDEST PUSH0 DUP2 SWAP1 POP SWAP3 SWAP2 POP POP JUMP JUMPDEST DUP3 DUP2 DUP4 CALLDATACOPY PUSH0 DUP4 DUP4 ADD MSTORE POP POP POP JUMP JUMPDEST PUSH0 PUSH2 0x112B DUP4 DUP6 PUSH2 0x1108 JUMP JUMPDEST SWAP4 POP PUSH2 0x1138 DUP4 DUP6 DUP5 PUSH2 0x1112 JUMP JUMPDEST DUP3 DUP5 ADD SWAP1 POP SWAP4 SWAP3 POP POP POP JUMP JUMPDEST PUSH0 PUSH2 0x1150 DUP3 DUP5 DUP7 PUSH2 0x1120 JUMP JUMPDEST SWAP2 POP DUP2 SWAP1 POP SWAP4 SWAP3 POP POP POP JUMP JUMPDEST PUSH32 0x4E487B7100000000000000000000000000000000000000000000000000000000 PUSH0 MSTORE PUSH1 0x22 PUSH1 0x4 MSTORE PUSH1 0x24 PUSH0 REVERT JUMPDEST PUSH0 PUSH1 0x2 DUP3 DIV SWAP1 POP PUSH1 0x1 DUP3 AND DUP1 PUSH2 0x11A0 JUMPI PUSH1 0x7F DUP3 AND SWAP2 POP JUMPDEST PUSH1 0x20 DUP3 LT DUP2 SUB PUSH2 0x11B3 JUMPI PUSH2 0x11B2 PUSH2 0x115C JUMP JUMPDEST JUMPDEST POP SWAP2 SWAP1 POP JUMP JUMPDEST PUSH0 DUP2 SWAP1 POP DUP2 PUSH0 MSTORE PUSH1 0x20 PUSH0 KECCAK256 SWAP1 POP SWAP2 SWAP1 POP JUMP JUMPDEST PUSH0 DUP2 SLOAD PUSH2 0x11D7 DUP2 PUSH2 0x1189 JUMP JUMPDEST PUSH2 0x11E1 DUP2 DUP7 PUSH2 0x1108 JUMP JUMPDEST SWAP5 POP PUSH1 0x1 DUP3 AND PUSH0 DUP2 EQ PUSH2 0x11FB JUMPI PUSH1 0x1 DUP2 EQ PUSH2 0x1210 JUMPI PUSH2 0x1242 JUMP JUMPDEST PUSH1 0xFF NOT DUP4 AND DUP7 MSTORE DUP2 ISZERO ISZERO DUP3 MUL DUP7 ADD SWAP4 POP PUSH2 0x1242 JUMP JUMPDEST PUSH2 0x1219 DUP6 PUSH2 0x11B9 JUMP JUMPDEST PUSH0 JUMPDEST DUP4 DUP2 LT ISZERO PUSH2 0x123A JUMPI DUP2 SLOAD DUP2 DUP10 ADD MSTORE PUSH1 0x1 DUP3 ADD SWAP2 POP PUSH1 0x20 DUP2 ADD SWAP1 POP PUSH2 0x121B JUMP JUMPDEST DUP4 DUP9 ADD SWAP6 POP POP POP JUMPDEST POP POP POP SWAP3 SWAP2 POP POP JUMP JUMPDEST PUSH0 PUSH2 0x1256 DUP3 DUP5 PUSH2 0x11CB JUMP JUMPDEST SWAP2 POP DUP2 SWAP1 POP SWAP3 SWAP2 POP POP JUMP JUMPDEST PUSH32 0x4E487B7100000000000000000000000000000000000000000000000000000000 PUSH0 MSTORE PUSH1 0x32 PUSH1 0x4 MSTORE PUSH1 0x24 PUSH0 REVERT JUMPDEST PUSH32 0x4E487B7100000000000000000000000000000000000000000000000000000000 PUSH0 MSTORE PUSH1 0x11 PUSH1 0x4 MSTORE PUSH1 0x24 PUSH0 REVERT JUMPDEST PUSH0 PUSH2 0x12C5 DUP3 PUSH2 0xCC0 JUMP JUMPDEST SWAP2 POP PUSH32 0xFFFFFFFFFFFFFFFFFFFFFFFFFFFFFFFFFFFFFFFFFFFFFFFFFFFFFFFFFFFFFFFF DUP3 SUB PUSH2 0x12F7 JUMPI PUSH2 0x12F6 PUSH2 0x128E JUMP JUMPDEST JUMPDEST PUSH1 0x1 DUP3 ADD SWAP1 POP SWAP2 SWAP1 POP JUMP JUMPDEST PUSH0 DUP2 SWAP1 POP DUP2 PUSH0 MSTORE PUSH1 0x20 PUSH0 KECCAK256 SWAP1 POP SWAP2 SWAP1 POP JUMP JUMPDEST PUSH0 PUSH1 0x20 PUSH1 0x1F DUP4 ADD DIV SWAP1 POP SWAP2 SWAP1 POP JUMP JUMPDEST PUSH0 DUP3 DUP3 SHL SWAP1 POP SWAP3 SWAP2 POP POP JUMP JUMPDEST PUSH0 PUSH1 0x8 DUP4 MUL PUSH2 0x135E PUSH32 0xFFFFFFFFFFFFFFFFFFFFFFFFFFFFFFFFFFFFFFFFFFFFFFFFFFFFFFFFFFFFFFFF DUP3 PUSH2 0x1323 JUMP JUMPDEST PUSH2 0x1368 DUP7 DUP4 PUSH2 0x1323 JUMP JUMPDEST SWAP6 POP DUP1 NOT DUP5 AND SWAP4 POP DUP1 DUP7 AND DUP5 OR SWAP3 POP POP POP SWAP4 SWAP3 POP POP POP JUMP JUMPDEST PUSH0 DUP2 SWAP1 POP SWAP2 SWAP1 POP JUMP JUMPDEST PUSH0 PUSH2 0x13A3 PUSH2 0x139E PUSH2 0x1399 DUP5 PUSH2 0xCC0 JUMP JUMPDEST PUSH2 0x1380 JUMP JUMPDEST PUSH2 0xCC0 JUMP JUMPDEST SWAP1 POP SWAP2 SWAP1 POP JUMP JUMPDEST PUSH0 DUP2 SWAP1 POP SWAP2 SWAP1 POP JUMP JUMPDEST PUSH2 0x13BC DUP4 PUSH2 0x1389 JUMP JUMPDEST PUSH2 0x13D0 PUSH2 0x13C8 DUP3 PUSH2 0x13AA JUMP JUMPDEST DUP5 DUP5 SLOAD PUSH2 0x132F JUMP JUMPDEST DUP3 SSTORE POP POP POP POP JUMP JUMPDEST PUSH0 SWAP1 JUMP JUMPDEST PUSH2 0x13E4 PUSH2 0x13D8 JUMP JUMPDEST PUSH2 0x13EF DUP2 DUP5 DUP5 PUSH2 0x13B3 JUMP JUMPDEST POP POP POP JUMP JUMPDEST JUMPDEST DUP2 DUP2 LT ISZERO PUSH2 0x1412 JUMPI PUSH2 0x1407 PUSH0 DUP3 PUSH2 0x13DC JUMP JUMPDEST PUSH1 0x1 DUP2 ADD SWAP1 POP PUSH2 0x13F5 JUMP JUMPDEST POP POP JUMP JUMPDEST PUSH1 0x1F DUP3 GT ISZERO PUSH2 0x1457 JUMPI PUSH2 0x1428 DUP2 PUSH2 0x1302 JUMP JUMPDEST PUSH2 0x1431 DUP5 PUSH2 0x1314 JUMP JUMPDEST DUP2 ADD PUSH1 0x20 DUP6 LT ISZERO PUSH2 0x1440 JUMPI DUP2 SWAP1 POP JUMPDEST PUSH2 0x1454 PUSH2 0x144C DUP6 PUSH2 0x1314 JUMP JUMPDEST DUP4 ADD DUP3 PUSH2 0x13F4 JUMP JUMPDEST POP POP JUMPDEST POP POP POP JUMP JUMPDEST PUSH0 DUP3 DUP3 SHR SWAP1 POP SWAP3 SWAP2 POP POP JUMP JUMPDEST PUSH0 PUSH2 0x1477 PUSH0 NOT DUP5 PUSH1 0x8 MUL PUSH2 0x145C JUMP JUMPDEST NOT DUP1 DUP4 AND SWAP2 POP POP SWAP3 SWAP2 POP POP JUMP JUMPDEST PUSH0 PUSH2 0x148F DUP4 DUP4 PUSH2 0x1468 JUMP JUMPDEST SWAP2 POP DUP3 PUSH1 0x2 MUL DUP3 OR SWAP1 POP SWAP3 SWAP2 POP POP JUMP JUMPDEST PUSH2 0x14A8 DUP3 PUSH2 0xC50 JUMP JUMPDEST PUSH8 0xFFFFFFFFFFFFFFFF DUP2 GT ISZERO PUSH2 0x14C1 JUMPI PUSH2 0x14C0 PUSH2 0x10DB JUMP JUMPDEST JUMPDEST PUSH2 0x14CB DUP3 SLOAD PUSH2 0x1189 JUMP JUMPDEST PUSH2 0x14D6 DUP3 DUP3 DUP6 PUSH2 0x1416 JUMP JUMPDEST PUSH0 PUSH1 0x20 SWAP1 POP PUSH1 0x1F DUP4 GT PUSH1 0x1 DUP2 EQ PUSH2 0x1507 JUMPI PUSH0 DUP5 ISZERO PUSH2 0x14F5 JUMPI DUP3 DUP8 ADD MLOAD SWAP1 POP JUMPDEST PUSH2 0x14FF DUP6 DUP3 PUSH2 0x1484 JUMP JUMPDEST DUP7 SSTORE POP PUSH2 0x1566 JUMP JUMPDEST PUSH1 0x1F NOT DUP5 AND PUSH2 0x1515 DUP7 PUSH2 0x1302 JUMP JUMPDEST PUSH0 JUMPDEST DUP3 DUP2 LT ISZERO PUSH2 0x153C JUMPI DUP5 DUP10 ADD MLOAD DUP3 SSTORE PUSH1 0x1 DUP3 ADD SWAP2 POP PUSH1 0x20 DUP6 ADD SWAP5 POP PUSH1 0x20 DUP2 ADD SWAP1 POP PUSH2 0x1517 JUMP JUMPDEST DUP7 DUP4 LT ISZERO PUSH2 0x1559 JUMPI DUP5 DUP10 ADD MLOAD PUSH2 0x1555 PUSH1 0x1F DUP10 AND DUP3 PUSH2 0x1468 JUMP JUMPDEST DUP4 SSTORE POP JUMPDEST PUSH1 0x1 PUSH1 0x2 DUP9 MUL ADD DUP9 SSTORE POP POP POP JUMPDEST POP POP POP POP POP POP JUMP JUMPDEST PUSH32 0x4E6F7420666F756E64205265616C537461746520776974682074686973207265 PUSH0 DUP3 ADD MSTORE PUSH32 0x67697374726174696F6E00000000000000000000000000000000000000000000 PUSH1 0x20 DUP3 ADD MSTORE POP JUMP JUMPDEST PUSH0 PUSH2 0x15C8 PUSH1 0x2A DUP4 PUSH2 0xE73 JUMP JUMPDEST SWAP2 POP PUSH2 0x15D3 DUP3 PUSH2 0x156E JUMP JUMPDEST PUSH1 0x40 DUP3 ADD SWAP1 POP SWAP2 SWAP1 POP JUMP JUMPDEST PUSH0 PUSH1 0x20 DUP3 ADD SWAP1 POP DUP2 DUP2 SUB PUSH0 DUP4 ADD MSTORE PUSH2 0x15F5 DUP2 PUSH2 0x15BC JUMP JUMPDEST SWAP1 POP SWAP2 SWAP1 POP JUMP INVALID LOG2 PUSH5 0x6970667358 0x22 SLT KECCAK256 DUP8 NOT 0xE3 0xEA SWAP9 RETURNDATACOPY CALLDATASIZE 0xE9 REVERT XOR 0x25 CODECOPY 0xA5 0xAE LOG2 DUP9 0xD SWAP13 DUP8 SWAP14 MSIZE 0x4B ORIGIN PUSH20 0x742985563EE4B5B164736F6C634300081A003300 "
		},
		"gasEstimates": {
			"creation": {
				"codeDepositCost": "1136400",
				"executionCost": "1178",
				"totalCost": "1137578"
			},
			"external": {
				"addRealState(string,string,uint256,uint256,uint256,string)": "infinite",
				"deleteRealStateByRegistration(uint256)": "infinite",
				"getRealStateByCity(string)": "infinite",
				"getRealStateByRegistration(uint256)": "infinite",
				"realStateMap(uint256)": "infinite"
			}
		},
		"methodIdentifiers": {
			"addRealState(string,string,uint256,uint256,uint256,string)": "18d38110",
			"deleteRealStateByRegistration(uint256)": "8324aa5b",
			"getRealStateByCity(string)": "0de06237",
			"getRealStateByRegistration(uint256)": "82e27eab",
			"realStateMap(uint256)": "12e6c943"
		}
	},
	"abi": [
		{
			"inputs": [
				{
					"internalType": "string",
					"name": "_city",
					"type": "string"
				},
				{
					"internalType": "string",
					"name": "_street",
					"type": "string"
				},
				{
					"internalType": "uint256",
					"name": "_number",
					"type": "uint256"
				},
				{
					"internalType": "uint256",
					"name": "_meters",
					"type": "uint256"
				},
				{
					"internalType": "uint256",
					"name": "_registration",
					"type": "uint256"
				},
				{
					"internalType": "string",
					"name": "_owner",
					"type": "string"
				}
			],
			"name": "addRealState",
			"outputs": [],
			"stateMutability": "nonpayable",
			"type": "function"
		},
		{
			"inputs": [
				{
					"internalType": "uint256",
					"name": "_registration",
					"type": "uint256"
				}
			],
			"name": "deleteRealStateByRegistration",
			"outputs": [],
			"stateMutability": "nonpayable",
			"type": "function"
		},
		{
			"inputs": [
				{
					"internalType": "string",
					"name": "_city",
					"type": "string"
				}
			],
			"name": "getRealStateByCity",
			"outputs": [
				{
					"components": [
						{
							"internalType": "string",
							"name": "city",
							"type": "string"
						},
						{
							"internalType": "string",
							"name": "street",
							"type": "string"
						},
						{
							"internalType": "uint256",
							"name": "number",
							"type": "uint256"
						},
						{
							"internalType": "uint256",
							"name": "meters",
							"type": "uint256"
						},
						{
							"internalType": "uint256",
							"name": "registration",
							"type": "uint256"
						},
						{
							"internalType": "string",
							"name": "owner",
							"type": "string"
						}
					],
					"internalType": "struct RealStateContract.RealState[]",
					"name": "",
					"type": "tuple[]"
				}
			],
			"stateMutability": "view",
			"type": "function"
		},
		{
			"inputs": [
				{
					"internalType": "uint256",
					"name": "_registration",
					"type": "uint256"
				}
			],
			"name": "getRealStateByRegistration",
			"outputs": [
				{
					"components": [
						{
							"internalType": "string",
							"name": "city",
							"type": "string"
						},
						{
							"internalType": "string",
							"name": "street",
							"type": "string"
						},
						{
							"internalType": "uint256",
							"name": "number",
							"type": "uint256"
						},
						{
							"internalType": "uint256",
							"name": "meters",
							"type": "uint256"
						},
						{
							"internalType": "uint256",
							"name": "registration",
							"type": "uint256"
						},
						{
							"internalType": "string",
							"name": "owner",
							"type": "string"
						}
					],
					"internalType": "struct RealStateContract.RealState",
					"name": "",
					"type": "tuple"
				}
			],
			"stateMutability": "view",
			"type": "function"
		},
		{
			"inputs": [
				{
					"internalType": "uint256",
					"name": "",
					"type": "uint256"
				}
			],
			"name": "realStateMap",
			"outputs": [
				{
					"internalType": "string",
					"name": "city",
					"type": "string"
				},
				{
					"internalType": "string",
					"name": "street",
					"type": "string"
				},
				{
					"internalType": "uint256",
					"name": "number",
					"type": "uint256"
				},
				{
					"internalType": "uint256",
					"name": "meters",
					"type": "uint256"
				},
				{
					"internalType": "uint256",
					"name": "registration",
					"type": "uint256"
				},
				{
					"internalType": "string",
					"name": "owner",
					"type": "string"
				}
			],
			"stateMutability": "view",
			"type": "function"
		}
	]
}