{
	"data": {
		"bytecode": {
			"linkReferences": {},
			"object": "6080604052348015600e575f80fd5b50610da88061001c5f395ff3fe608060405234801561000f575f80fd5b506004361061004a575f3560e01c806318d381101461004e57806382e27eab1461006a5780638324aa5b1461009a578063f7b10808146100b6575b5f80fd5b610068600480360381019061006391906107b3565b6100eb565b005b610084600480360381019061007f9190610890565b610191565b60405161009191906109be565b60405180910390f35b6100b460048036038101906100af9190610890565b610388565b005b6100d060048036038101906100cb9190610890565b6103df565b6040516100e296959493929190610a35565b60405180910390f35b6040518060c00160405280878152602001868152602001858152602001848152602001838152602001828152505f808481526020019081526020015f205f820151815f01908161013b9190610ca3565b5060208201518160010190816101519190610ca3565b5060408201518160020155606082015181600301556080820151816004015560a08201518160050190816101859190610ca3565b50905050505050505050565b6101996105a8565b5f808381526020019081526020015f206040518060c00160405290815f820180546101c390610ad6565b80601f01602080910402602001604051908101604052809291908181526020018280546101ef90610ad6565b801561023a5780601f106102115761010080835404028352916020019161023a565b820191905f5260205f20905b81548152906001019060200180831161021d57829003601f168201915b5050505050815260200160018201805461025390610ad6565b80601f016020809104026020016040519081016040528092919081815260200182805461027f90610ad6565b80156102ca5780601f106102a1576101008083540402835291602001916102ca565b820191905f5260205f20905b8154815290600101906020018083116102ad57829003601f168201915b5050505050815260200160028201548152602001600382015481526020016004820154815260200160058201805461030190610ad6565b80601f016020809104026020016040519081016040528092919081815260200182805461032d90610ad6565b80156103785780601f1061034f57610100808354040283529160200191610378565b820191905f5260205f20905b81548152906001019060200180831161035b57829003601f168201915b5050505050815250509050919050565b5f808281526020019081526020015f205f8082015f6103a791906105db565b600182015f6103b691906105db565b600282015f9055600382015f9055600482015f9055600582015f6103da91906105db565b505050565b5f602052805f5260405f205f91509050805f0180546103fd90610ad6565b80601f016020809104026020016040519081016040528092919081815260200182805461042990610ad6565b80156104745780601f1061044b57610100808354040283529160200191610474565b820191905f5260205f20905b81548152906001019060200180831161045757829003601f168201915b50505050509080600101805461048990610ad6565b80601f01602080910402602001604051908101604052809291908181526020018280546104b590610ad6565b80156105005780601f106104d757610100808354040283529160200191610500565b820191905f5260205f20905b8154815290600101906020018083116104e357829003601f168201915b50505050509080600201549080600301549080600401549080600501805461052790610ad6565b80601f016020809104026020016040519081016040528092919081815260200182805461055390610ad6565b801561059e5780601f106105755761010080835404028352916020019161059e565b820191905f5260205f20905b81548152906001019060200180831161058157829003601f168201915b5050505050905086565b6040518060c0016040528060608152602001606081526020015f81526020015f81526020015f8152602001606081525090565b5080546105e790610ad6565b5f825580601f106105f85750610615565b601f0160209004905f5260205f20908101906106149190610618565b5b50565b5b8082111561062f575f815f905550600101610619565b5090565b5f604051905090565b5f80fd5b5f80fd5b5f80fd5b5f80fd5b5f601f19601f8301169050919050565b7f4e487b71000000000000000000000000000000000000000000000000000000005f52604160045260245ffd5b6106928261064c565b810181811067ffffffffffffffff821117156106b1576106b061065c565b5b80604052505050565b5f6106c3610633565b90506106cf8282610689565b919050565b5f67ffffffffffffffff8211156106ee576106ed61065c565b5b6106f78261064c565b9050602081019050919050565b828183375f83830152505050565b5f61072461071f846106d4565b6106ba565b9050828152602081018484840111156107405761073f610648565b5b61074b848285610704565b509392505050565b5f82601f83011261076757610766610644565b5b8135610777848260208601610712565b91505092915050565b5f819050919050565b61079281610780565b811461079c575f80fd5b50565b5f813590506107ad81610789565b92915050565b5f805f805f8060c087890312156107cd576107cc61063c565b5b5f87013567ffffffffffffffff8111156107ea576107e9610640565b5b6107f689828a01610753565b965050602087013567ffffffffffffffff81111561081757610816610640565b5b61082389828a01610753565b955050604061083489828a0161079f565b945050606061084589828a0161079f565b935050608061085689828a0161079f565b92505060a087013567ffffffffffffffff81111561087757610876610640565b5b61088389828a01610753565b9150509295509295509295565b5f602082840312156108a5576108a461063c565b5b5f6108b28482850161079f565b91505092915050565b5f81519050919050565b5f82825260208201905092915050565b8281835e5f83830152505050565b5f6108ed826108bb565b6108f781856108c5565b93506109078185602086016108d5565b6109108161064c565b840191505092915050565b61092481610780565b82525050565b5f60c083015f8301518482035f86015261094482826108e3565b9150506020830151848203602086015261095e82826108e3565b9150506040830151610973604086018261091b565b506060830151610986606086018261091b565b506080830151610999608086018261091b565b5060a083015184820360a08601526109b182826108e3565b9150508091505092915050565b5f6020820190508181035f8301526109d6818461092a565b905092915050565b5f82825260208201905092915050565b5f6109f8826108bb565b610a0281856109de565b9350610a128185602086016108d5565b610a1b8161064c565b840191505092915050565b610a2f81610780565b82525050565b5f60c0820190508181035f830152610a4d81896109ee565b90508181036020830152610a6181886109ee565b9050610a706040830187610a26565b610a7d6060830186610a26565b610a8a6080830185610a26565b81810360a0830152610a9c81846109ee565b9050979650505050505050565b7f4e487b71000000000000000000000000000000000000000000000000000000005f52602260045260245ffd5b5f6002820490506001821680610aed57607f821691505b602082108103610b0057610aff610aa9565b5b50919050565b5f819050815f5260205f209050919050565b5f6020601f8301049050919050565b5f82821b905092915050565b5f60088302610b627fffffffffffffffffffffffffffffffffffffffffffffffffffffffffffffffff82610b27565b610b6c8683610b27565b95508019841693508086168417925050509392505050565b5f819050919050565b5f610ba7610ba2610b9d84610780565b610b84565b610780565b9050919050565b5f819050919050565b610bc083610b8d565b610bd4610bcc82610bae565b848454610b33565b825550505050565b5f90565b610be8610bdc565b610bf3818484610bb7565b505050565b5b81811015610c1657610c0b5f82610be0565b600181019050610bf9565b5050565b601f821115610c5b57610c2c81610b06565b610c3584610b18565b81016020851015610c44578190505b610c58610c5085610b18565b830182610bf8565b50505b505050565b5f82821c905092915050565b5f610c7b5f1984600802610c60565b1980831691505092915050565b5f610c938383610c6c565b9150826002028217905092915050565b610cac826108bb565b67ffffffffffffffff811115610cc557610cc461065c565b5b610ccf8254610ad6565b610cda828285610c1a565b5f60209050601f831160018114610d0b575f8415610cf9578287015190505b610d038582610c88565b865550610d6a565b601f198416610d1986610b06565b5f5b82811015610d4057848901518255600182019150602085019450602081019050610d1b565b86831015610d5d5784890151610d59601f891682610c6c565b8355505b6001600288020188555050505b50505050505056fea264697066735822122062bce20972a0da50ec3da1a26ded63e583606cf1ff6917bf2879008d8aab40c464736f6c634300081a0033",
			"opcodes": "PUSH1 0x80 PUSH1 0x40 MSTORE CALLVALUE DUP1 ISZERO PUSH1 0xE JUMPI PUSH0 DUP1 REVERT JUMPDEST POP PUSH2 0xDA8 DUP1 PUSH2 0x1C PUSH0 CODECOPY PUSH0 RETURN INVALID PUSH1 0x80 PUSH1 0x40 MSTORE CALLVALUE DUP1 ISZERO PUSH2 0xF JUMPI PUSH0 DUP1 REVERT JUMPDEST POP PUSH1 0x4 CALLDATASIZE LT PUSH2 0x4A JUMPI PUSH0 CALLDATALOAD PUSH1 0xE0 SHR DUP1 PUSH4 0x18D38110 EQ PUSH2 0x4E JUMPI DUP1 PUSH4 0x82E27EAB EQ PUSH2 0x6A JUMPI DUP1 PUSH4 0x8324AA5B EQ PUSH2 0x9A JUMPI DUP1 PUSH4 0xF7B10808 EQ PUSH2 0xB6 JUMPI JUMPDEST PUSH0 DUP1 REVERT JUMPDEST PUSH2 0x68 PUSH1 0x4 DUP1 CALLDATASIZE SUB DUP2 ADD SWAP1 PUSH2 0x63 SWAP2 SWAP1 PUSH2 0x7B3 JUMP JUMPDEST PUSH2 0xEB JUMP JUMPDEST STOP JUMPDEST PUSH2 0x84 PUSH1 0x4 DUP1 CALLDATASIZE SUB DUP2 ADD SWAP1 PUSH2 0x7F SWAP2 SWAP1 PUSH2 0x890 JUMP JUMPDEST PUSH2 0x191 JUMP JUMPDEST PUSH1 0x40 MLOAD PUSH2 0x91 SWAP2 SWAP1 PUSH2 0x9BE JUMP JUMPDEST PUSH1 0x40 MLOAD DUP1 SWAP2 SUB SWAP1 RETURN JUMPDEST PUSH2 0xB4 PUSH1 0x4 DUP1 CALLDATASIZE SUB DUP2 ADD SWAP1 PUSH2 0xAF SWAP2 SWAP1 PUSH2 0x890 JUMP JUMPDEST PUSH2 0x388 JUMP JUMPDEST STOP JUMPDEST PUSH2 0xD0 PUSH1 0x4 DUP1 CALLDATASIZE SUB DUP2 ADD SWAP1 PUSH2 0xCB SWAP2 SWAP1 PUSH2 0x890 JUMP JUMPDEST PUSH2 0x3DF JUMP JUMPDEST PUSH1 0x40 MLOAD PUSH2 0xE2 SWAP7 SWAP6 SWAP5 SWAP4 SWAP3 SWAP2 SWAP1 PUSH2 0xA35 JUMP JUMPDEST PUSH1 0x40 MLOAD DUP1 SWAP2 SUB SWAP1 RETURN JUMPDEST PUSH1 0x40 MLOAD DUP1 PUSH1 0xC0 ADD PUSH1 0x40 MSTORE DUP1 DUP8 DUP2 MSTORE PUSH1 0x20 ADD DUP7 DUP2 MSTORE PUSH1 0x20 ADD DUP6 DUP2 MSTORE PUSH1 0x20 ADD DUP5 DUP2 MSTORE PUSH1 0x20 ADD DUP4 DUP2 MSTORE PUSH1 0x20 ADD DUP3 DUP2 MSTORE POP PUSH0 DUP1 DUP5 DUP2 MSTORE PUSH1 0x20 ADD SWAP1 DUP2 MSTORE PUSH1 0x20 ADD PUSH0 KECCAK256 PUSH0 DUP3 ADD MLOAD DUP2 PUSH0 ADD SWAP1 DUP2 PUSH2 0x13B SWAP2 SWAP1 PUSH2 0xCA3 JUMP JUMPDEST POP PUSH1 0x20 DUP3 ADD MLOAD DUP2 PUSH1 0x1 ADD SWAP1 DUP2 PUSH2 0x151 SWAP2 SWAP1 PUSH2 0xCA3 JUMP JUMPDEST POP PUSH1 0x40 DUP3 ADD MLOAD DUP2 PUSH1 0x2 ADD SSTORE PUSH1 0x60 DUP3 ADD MLOAD DUP2 PUSH1 0x3 ADD SSTORE PUSH1 0x80 DUP3 ADD MLOAD DUP2 PUSH1 0x4 ADD SSTORE PUSH1 0xA0 DUP3 ADD MLOAD DUP2 PUSH1 0x5 ADD SWAP1 DUP2 PUSH2 0x185 SWAP2 SWAP1 PUSH2 0xCA3 JUMP JUMPDEST POP SWAP1 POP POP POP POP POP POP POP POP JUMP JUMPDEST PUSH2 0x199 PUSH2 0x5A8 JUMP JUMPDEST PUSH0 DUP1 DUP4 DUP2 MSTORE PUSH1 0x20 ADD SWAP1 DUP2 MSTORE PUSH1 0x20 ADD PUSH0 KECCAK256 PUSH1 0x40 MLOAD DUP1 PUSH1 0xC0 ADD PUSH1 0x40 MSTORE SWAP1 DUP2 PUSH0 DUP3 ADD DUP1 SLOAD PUSH2 0x1C3 SWAP1 PUSH2 0xAD6 JUMP JUMPDEST DUP1 PUSH1 0x1F ADD PUSH1 0x20 DUP1 SWAP2 DIV MUL PUSH1 0x20 ADD PUSH1 0x40 MLOAD SWAP1 DUP2 ADD PUSH1 0x40 MSTORE DUP1 SWAP3 SWAP2 SWAP1 DUP2 DUP2 MSTORE PUSH1 0x20 ADD DUP3 DUP1 SLOAD PUSH2 0x1EF SWAP1 PUSH2 0xAD6 JUMP JUMPDEST DUP1 ISZERO PUSH2 0x23A JUMPI DUP1 PUSH1 0x1F LT PUSH2 0x211 JUMPI PUSH2 0x100 DUP1 DUP4 SLOAD DIV MUL DUP4 MSTORE SWAP2 PUSH1 0x20 ADD SWAP2 PUSH2 0x23A JUMP JUMPDEST DUP3 ADD SWAP2 SWAP1 PUSH0 MSTORE PUSH1 0x20 PUSH0 KECCAK256 SWAP1 JUMPDEST DUP2 SLOAD DUP2 MSTORE SWAP1 PUSH1 0x1 ADD SWAP1 PUSH1 0x20 ADD DUP1 DUP4 GT PUSH2 0x21D JUMPI DUP3 SWAP1 SUB PUSH1 0x1F AND DUP3 ADD SWAP2 JUMPDEST POP POP POP POP POP DUP2 MSTORE PUSH1 0x20 ADD PUSH1 0x1 DUP3 ADD DUP1 SLOAD PUSH2 0x253 SWAP1 PUSH2 0xAD6 JUMP JUMPDEST DUP1 PUSH1 0x1F ADD PUSH1 0x20 DUP1 SWAP2 DIV MUL PUSH1 0x20 ADD PUSH1 0x40 MLOAD SWAP1 DUP2 ADD PUSH1 0x40 MSTORE DUP1 SWAP3 SWAP2 SWAP1 DUP2 DUP2 MSTORE PUSH1 0x20 ADD DUP3 DUP1 SLOAD PUSH2 0x27F SWAP1 PUSH2 0xAD6 JUMP JUMPDEST DUP1 ISZERO PUSH2 0x2CA JUMPI DUP1 PUSH1 0x1F LT PUSH2 0x2A1 JUMPI PUSH2 0x100 DUP1 DUP4 SLOAD DIV MUL DUP4 MSTORE SWAP2 PUSH1 0x20 ADD SWAP2 PUSH2 0x2CA JUMP JUMPDEST DUP3 ADD SWAP2 SWAP1 PUSH0 MSTORE PUSH1 0x20 PUSH0 KECCAK256 SWAP1 JUMPDEST DUP2 SLOAD DUP2 MSTORE SWAP1 PUSH1 0x1 ADD SWAP1 PUSH1 0x20 ADD DUP1 DUP4 GT PUSH2 0x2AD JUMPI DUP3 SWAP1 SUB PUSH1 0x1F AND DUP3 ADD SWAP2 JUMPDEST POP POP POP POP POP DUP2 MSTORE PUSH1 0x20 ADD PUSH1 0x2 DUP3 ADD SLOAD DUP2 MSTORE PUSH1 0x20 ADD PUSH1 0x3 DUP3 ADD SLOAD DUP2 MSTORE PUSH1 0x20 ADD PUSH1 0x4 DUP3 ADD SLOAD DUP2 MSTORE PUSH1 0x20 ADD PUSH1 0x5 DUP3 ADD DUP1 SLOAD PUSH2 0x301 SWAP1 PUSH2 0xAD6 JUMP JUMPDEST DUP1 PUSH1 0x1F ADD PUSH1 0x20 DUP1 SWAP2 DIV MUL PUSH1 0x20 ADD PUSH1 0x40 MLOAD SWAP1 DUP2 ADD PUSH1 0x40 MSTORE DUP1 SWAP3 SWAP2 SWAP1 DUP2 DUP2 MSTORE PUSH1 0x20 ADD DUP3 DUP1 SLOAD PUSH2 0x32D SWAP1 PUSH2 0xAD6 JUMP JUMPDEST DUP1 ISZERO PUSH2 0x378 JUMPI DUP1 PUSH1 0x1F LT PUSH2 0x34F JUMPI PUSH2 0x100 DUP1 DUP4 SLOAD DIV MUL DUP4 MSTORE SWAP2 PUSH1 0x20 ADD SWAP2 PUSH2 0x378 JUMP JUMPDEST DUP3 ADD SWAP2 SWAP1 PUSH0 MSTORE PUSH1 0x20 PUSH0 KECCAK256 SWAP1 JUMPDEST DUP2 SLOAD DUP2 MSTORE SWAP1 PUSH1 0x1 ADD SWAP1 PUSH1 0x20 ADD DUP1 DUP4 GT PUSH2 0x35B JUMPI DUP3 SWAP1 SUB PUSH1 0x1F AND DUP3 ADD SWAP2 JUMPDEST POP POP POP POP POP DUP2 MSTORE POP POP SWAP1 POP SWAP2 SWAP1 POP JUMP JUMPDEST PUSH0 DUP1 DUP3 DUP2 MSTORE PUSH1 0x20 ADD SWAP1 DUP2 MSTORE PUSH1 0x20 ADD PUSH0 KECCAK256 PUSH0 DUP1 DUP3 ADD PUSH0 PUSH2 0x3A7 SWAP2 SWAP1 PUSH2 0x5DB JUMP JUMPDEST PUSH1 0x1 DUP3 ADD PUSH0 PUSH2 0x3B6 SWAP2 SWAP1 PUSH2 0x5DB JUMP JUMPDEST PUSH1 0x2 DUP3 ADD PUSH0 SWAP1 SSTORE PUSH1 0x3 DUP3 ADD PUSH0 SWAP1 SSTORE PUSH1 0x4 DUP3 ADD PUSH0 SWAP1 SSTORE PUSH1 0x5 DUP3 ADD PUSH0 PUSH2 0x3DA SWAP2 SWAP1 PUSH2 0x5DB JUMP JUMPDEST POP POP POP JUMP JUMPDEST PUSH0 PUSH1 0x20 MSTORE DUP1 PUSH0 MSTORE PUSH1 0x40 PUSH0 KECCAK256 PUSH0 SWAP2 POP SWAP1 POP DUP1 PUSH0 ADD DUP1 SLOAD PUSH2 0x3FD SWAP1 PUSH2 0xAD6 JUMP JUMPDEST DUP1 PUSH1 0x1F ADD PUSH1 0x20 DUP1 SWAP2 DIV MUL PUSH1 0x20 ADD PUSH1 0x40 MLOAD SWAP1 DUP2 ADD PUSH1 0x40 MSTORE DUP1 SWAP3 SWAP2 SWAP1 DUP2 DUP2 MSTORE PUSH1 0x20 ADD DUP3 DUP1 SLOAD PUSH2 0x429 SWAP1 PUSH2 0xAD6 JUMP JUMPDEST DUP1 ISZERO PUSH2 0x474 JUMPI DUP1 PUSH1 0x1F LT PUSH2 0x44B JUMPI PUSH2 0x100 DUP1 DUP4 SLOAD DIV MUL DUP4 MSTORE SWAP2 PUSH1 0x20 ADD SWAP2 PUSH2 0x474 JUMP JUMPDEST DUP3 ADD SWAP2 SWAP1 PUSH0 MSTORE PUSH1 0x20 PUSH0 KECCAK256 SWAP1 JUMPDEST DUP2 SLOAD DUP2 MSTORE SWAP1 PUSH1 0x1 ADD SWAP1 PUSH1 0x20 ADD DUP1 DUP4 GT PUSH2 0x457 JUMPI DUP3 SWAP1 SUB PUSH1 0x1F AND DUP3 ADD SWAP2 JUMPDEST POP POP POP POP POP SWAP1 DUP1 PUSH1 0x1 ADD DUP1 SLOAD PUSH2 0x489 SWAP1 PUSH2 0xAD6 JUMP JUMPDEST DUP1 PUSH1 0x1F ADD PUSH1 0x20 DUP1 SWAP2 DIV MUL PUSH1 0x20 ADD PUSH1 0x40 MLOAD SWAP1 DUP2 ADD PUSH1 0x40 MSTORE DUP1 SWAP3 SWAP2 SWAP1 DUP2 DUP2 MSTORE PUSH1 0x20 ADD DUP3 DUP1 SLOAD PUSH2 0x4B5 SWAP1 PUSH2 0xAD6 JUMP JUMPDEST DUP1 ISZERO PUSH2 0x500 JUMPI DUP1 PUSH1 0x1F LT PUSH2 0x4D7 JUMPI PUSH2 0x100 DUP1 DUP4 SLOAD DIV MUL DUP4 MSTORE SWAP2 PUSH1 0x20 ADD SWAP2 PUSH2 0x500 JUMP JUMPDEST DUP3 ADD SWAP2 SWAP1 PUSH0 MSTORE PUSH1 0x20 PUSH0 KECCAK256 SWAP1 JUMPDEST DUP2 SLOAD DUP2 MSTORE SWAP1 PUSH1 0x1 ADD SWAP1 PUSH1 0x20 ADD DUP1 DUP4 GT PUSH2 0x4E3 JUMPI DUP3 SWAP1 SUB PUSH1 0x1F AND DUP3 ADD SWAP2 JUMPDEST POP POP POP POP POP SWAP1 DUP1 PUSH1 0x2 ADD SLOAD SWAP1 DUP1 PUSH1 0x3 ADD SLOAD SWAP1 DUP1 PUSH1 0x4 ADD SLOAD SWAP1 DUP1 PUSH1 0x5 ADD DUP1 SLOAD PUSH2 0x527 SWAP1 PUSH2 0xAD6 JUMP JUMPDEST DUP1 PUSH1 0x1F ADD PUSH1 0x20 DUP1 SWAP2 DIV MUL PUSH1 0x20 ADD PUSH1 0x40 MLOAD SWAP1 DUP2 ADD PUSH1 0x40 MSTORE DUP1 SWAP3 SWAP2 SWAP1 DUP2 DUP2 MSTORE PUSH1 0x20 ADD DUP3 DUP1 SLOAD PUSH2 0x553 SWAP1 PUSH2 0xAD6 JUMP JUMPDEST DUP1 ISZERO PUSH2 0x59E JUMPI DUP1 PUSH1 0x1F LT PUSH2 0x575 JUMPI PUSH2 0x100 DUP1 DUP4 SLOAD DIV MUL DUP4 MSTORE SWAP2 PUSH1 0x20 ADD SWAP2 PUSH2 0x59E JUMP JUMPDEST DUP3 ADD SWAP2 SWAP1 PUSH0 MSTORE PUSH1 0x20 PUSH0 KECCAK256 SWAP1 JUMPDEST DUP2 SLOAD DUP2 MSTORE SWAP1 PUSH1 0x1 ADD SWAP1 PUSH1 0x20 ADD DUP1 DUP4 GT PUSH2 0x581 JUMPI DUP3 SWAP1 SUB PUSH1 0x1F AND DUP3 ADD SWAP2 JUMPDEST POP POP POP POP POP SWAP1 POP DUP7 JUMP JUMPDEST PUSH1 0x40 MLOAD DUP1 PUSH1 0xC0 ADD PUSH1 0x40 MSTORE DUP1 PUSH1 0x60 DUP2 MSTORE PUSH1 0x20 ADD PUSH1 0x60 DUP2 MSTORE PUSH1 0x20 ADD PUSH0 DUP2 MSTORE PUSH1 0x20 ADD PUSH0 DUP2 MSTORE PUSH1 0x20 ADD PUSH0 DUP2 MSTORE PUSH1 0x20 ADD PUSH1 0x60 DUP2 MSTORE POP SWAP1 JUMP JUMPDEST POP DUP1 SLOAD PUSH2 0x5E7 SWAP1 PUSH2 0xAD6 JUMP JUMPDEST PUSH0 DUP3 SSTORE DUP1 PUSH1 0x1F LT PUSH2 0x5F8 JUMPI POP PUSH2 0x615 JUMP JUMPDEST PUSH1 0x1F ADD PUSH1 0x20 SWAP1 DIV SWAP1 PUSH0 MSTORE PUSH1 0x20 PUSH0 KECCAK256 SWAP1 DUP2 ADD SWAP1 PUSH2 0x614 SWAP2 SWAP1 PUSH2 0x618 JUMP JUMPDEST JUMPDEST POP JUMP JUMPDEST JUMPDEST DUP1 DUP3 GT ISZERO PUSH2 0x62F JUMPI PUSH0 DUP2 PUSH0 SWAP1 SSTORE POP PUSH1 0x1 ADD PUSH2 0x619 JUMP JUMPDEST POP SWAP1 JUMP JUMPDEST PUSH0 PUSH1 0x40 MLOAD SWAP1 POP SWAP1 JUMP JUMPDEST PUSH0 DUP1 REVERT JUMPDEST PUSH0 DUP1 REVERT JUMPDEST PUSH0 DUP1 REVERT JUMPDEST PUSH0 DUP1 REVERT JUMPDEST PUSH0 PUSH1 0x1F NOT PUSH1 0x1F DUP4 ADD AND SWAP1 POP SWAP2 SWAP1 POP JUMP JUMPDEST PUSH32 0x4E487B7100000000000000000000000000000000000000000000000000000000 PUSH0 MSTORE PUSH1 0x41 PUSH1 0x4 MSTORE PUSH1 0x24 PUSH0 REVERT JUMPDEST PUSH2 0x692 DUP3 PUSH2 0x64C JUMP JUMPDEST DUP2 ADD DUP2 DUP2 LT PUSH8 0xFFFFFFFFFFFFFFFF DUP3 GT OR ISZERO PUSH2 0x6B1 JUMPI PUSH2 0x6B0 PUSH2 0x65C JUMP JUMPDEST JUMPDEST DUP1 PUSH1 0x40 MSTORE POP POP POP JUMP JUMPDEST PUSH0 PUSH2 0x6C3 PUSH2 0x633 JUMP JUMPDEST SWAP1 POP PUSH2 0x6CF DUP3 DUP3 PUSH2 0x689 JUMP JUMPDEST SWAP2 SWAP1 POP JUMP JUMPDEST PUSH0 PUSH8 0xFFFFFFFFFFFFFFFF DUP3 GT ISZERO PUSH2 0x6EE JUMPI PUSH2 0x6ED PUSH2 0x65C JUMP JUMPDEST JUMPDEST PUSH2 0x6F7 DUP3 PUSH2 0x64C JUMP JUMPDEST SWAP1 POP PUSH1 0x20 DUP2 ADD SWAP1 POP SWAP2 SWAP1 POP JUMP JUMPDEST DUP3 DUP2 DUP4 CALLDATACOPY PUSH0 DUP4 DUP4 ADD MSTORE POP POP POP JUMP JUMPDEST PUSH0 PUSH2 0x724 PUSH2 0x71F DUP5 PUSH2 0x6D4 JUMP JUMPDEST PUSH2 0x6BA JUMP JUMPDEST SWAP1 POP DUP3 DUP2 MSTORE PUSH1 0x20 DUP2 ADD DUP5 DUP5 DUP5 ADD GT ISZERO PUSH2 0x740 JUMPI PUSH2 0x73F PUSH2 0x648 JUMP JUMPDEST JUMPDEST PUSH2 0x74B DUP5 DUP3 DUP6 PUSH2 0x704 JUMP JUMPDEST POP SWAP4 SWAP3 POP POP POP JUMP JUMPDEST PUSH0 DUP3 PUSH1 0x1F DUP4 ADD SLT PUSH2 0x767 JUMPI PUSH2 0x766 PUSH2 0x644 JUMP JUMPDEST JUMPDEST DUP2 CALLDATALOAD PUSH2 0x777 DUP5 DUP3 PUSH1 0x20 DUP7 ADD PUSH2 0x712 JUMP JUMPDEST SWAP2 POP POP SWAP3 SWAP2 POP POP JUMP JUMPDEST PUSH0 DUP2 SWAP1 POP SWAP2 SWAP1 POP JUMP JUMPDEST PUSH2 0x792 DUP2 PUSH2 0x780 JUMP JUMPDEST DUP2 EQ PUSH2 0x79C JUMPI PUSH0 DUP1 REVERT JUMPDEST POP JUMP JUMPDEST PUSH0 DUP2 CALLDATALOAD SWAP1 POP PUSH2 0x7AD DUP2 PUSH2 0x789 JUMP JUMPDEST SWAP3 SWAP2 POP POP JUMP JUMPDEST PUSH0 DUP1 PUSH0 DUP1 PUSH0 DUP1 PUSH1 0xC0 DUP8 DUP10 SUB SLT ISZERO PUSH2 0x7CD JUMPI PUSH2 0x7CC PUSH2 0x63C JUMP JUMPDEST JUMPDEST PUSH0 DUP8 ADD CALLDATALOAD PUSH8 0xFFFFFFFFFFFFFFFF DUP2 GT ISZERO PUSH2 0x7EA JUMPI PUSH2 0x7E9 PUSH2 0x640 JUMP JUMPDEST JUMPDEST PUSH2 0x7F6 DUP10 DUP3 DUP11 ADD PUSH2 0x753 JUMP JUMPDEST SWAP7 POP POP PUSH1 0x20 DUP8 ADD CALLDATALOAD PUSH8 0xFFFFFFFFFFFFFFFF DUP2 GT ISZERO PUSH2 0x817 JUMPI PUSH2 0x816 PUSH2 0x640 JUMP JUMPDEST JUMPDEST PUSH2 0x823 DUP10 DUP3 DUP11 ADD PUSH2 0x753 JUMP JUMPDEST SWAP6 POP POP PUSH1 0x40 PUSH2 0x834 DUP10 DUP3 DUP11 ADD PUSH2 0x79F JUMP JUMPDEST SWAP5 POP POP PUSH1 0x60 PUSH2 0x845 DUP10 DUP3 DUP11 ADD PUSH2 0x79F JUMP JUMPDEST SWAP4 POP POP PUSH1 0x80 PUSH2 0x856 DUP10 DUP3 DUP11 ADD PUSH2 0x79F JUMP JUMPDEST SWAP3 POP POP PUSH1 0xA0 DUP8 ADD CALLDATALOAD PUSH8 0xFFFFFFFFFFFFFFFF DUP2 GT ISZERO PUSH2 0x877 JUMPI PUSH2 0x876 PUSH2 0x640 JUMP JUMPDEST JUMPDEST PUSH2 0x883 DUP10 DUP3 DUP11 ADD PUSH2 0x753 JUMP JUMPDEST SWAP2 POP POP SWAP3 SWAP6 POP SWAP3 SWAP6 POP SWAP3 SWAP6 JUMP JUMPDEST PUSH0 PUSH1 0x20 DUP3 DUP5 SUB SLT ISZERO PUSH2 0x8A5 JUMPI PUSH2 0x8A4 PUSH2 0x63C JUMP JUMPDEST JUMPDEST PUSH0 PUSH2 0x8B2 DUP5 DUP3 DUP6 ADD PUSH2 0x79F JUMP JUMPDEST SWAP2 POP POP SWAP3 SWAP2 POP POP JUMP JUMPDEST PUSH0 DUP2 MLOAD SWAP1 POP SWAP2 SWAP1 POP JUMP JUMPDEST PUSH0 DUP3 DUP3 MSTORE PUSH1 0x20 DUP3 ADD SWAP1 POP SWAP3 SWAP2 POP POP JUMP JUMPDEST DUP3 DUP2 DUP4 MCOPY PUSH0 DUP4 DUP4 ADD MSTORE POP POP POP JUMP JUMPDEST PUSH0 PUSH2 0x8ED DUP3 PUSH2 0x8BB JUMP JUMPDEST PUSH2 0x8F7 DUP2 DUP6 PUSH2 0x8C5 JUMP JUMPDEST SWAP4 POP PUSH2 0x907 DUP2 DUP6 PUSH1 0x20 DUP7 ADD PUSH2 0x8D5 JUMP JUMPDEST PUSH2 0x910 DUP2 PUSH2 0x64C JUMP JUMPDEST DUP5 ADD SWAP2 POP POP SWAP3 SWAP2 POP POP JUMP JUMPDEST PUSH2 0x924 DUP2 PUSH2 0x780 JUMP JUMPDEST DUP3 MSTORE POP POP JUMP JUMPDEST PUSH0 PUSH1 0xC0 DUP4 ADD PUSH0 DUP4 ADD MLOAD DUP5 DUP3 SUB PUSH0 DUP7 ADD MSTORE PUSH2 0x944 DUP3 DUP3 PUSH2 0x8E3 JUMP JUMPDEST SWAP2 POP POP PUSH1 0x20 DUP4 ADD MLOAD DUP5 DUP3 SUB PUSH1 0x20 DUP7 ADD MSTORE PUSH2 0x95E DUP3 DUP3 PUSH2 0x8E3 JUMP JUMPDEST SWAP2 POP POP PUSH1 0x40 DUP4 ADD MLOAD PUSH2 0x973 PUSH1 0x40 DUP7 ADD DUP3 PUSH2 0x91B JUMP JUMPDEST POP PUSH1 0x60 DUP4 ADD MLOAD PUSH2 0x986 PUSH1 0x60 DUP7 ADD DUP3 PUSH2 0x91B JUMP JUMPDEST POP PUSH1 0x80 DUP4 ADD MLOAD PUSH2 0x999 PUSH1 0x80 DUP7 ADD DUP3 PUSH2 0x91B JUMP JUMPDEST POP PUSH1 0xA0 DUP4 ADD MLOAD DUP5 DUP3 SUB PUSH1 0xA0 DUP7 ADD MSTORE PUSH2 0x9B1 DUP3 DUP3 PUSH2 0x8E3 JUMP JUMPDEST SWAP2 POP POP DUP1 SWAP2 POP POP SWAP3 SWAP2 POP POP JUMP JUMPDEST PUSH0 PUSH1 0x20 DUP3 ADD SWAP1 POP DUP2 DUP2 SUB PUSH0 DUP4 ADD MSTORE PUSH2 0x9D6 DUP2 DUP5 PUSH2 0x92A JUMP JUMPDEST SWAP1 POP SWAP3 SWAP2 POP POP JUMP JUMPDEST PUSH0 DUP3 DUP3 MSTORE PUSH1 0x20 DUP3 ADD SWAP1 POP SWAP3 SWAP2 POP POP JUMP JUMPDEST PUSH0 PUSH2 0x9F8 DUP3 PUSH2 0x8BB JUMP JUMPDEST PUSH2 0xA02 DUP2 DUP6 PUSH2 0x9DE JUMP JUMPDEST SWAP4 POP PUSH2 0xA12 DUP2 DUP6 PUSH1 0x20 DUP7 ADD PUSH2 0x8D5 JUMP JUMPDEST PUSH2 0xA1B DUP2 PUSH2 0x64C JUMP JUMPDEST DUP5 ADD SWAP2 POP POP SWAP3 SWAP2 POP POP JUMP JUMPDEST PUSH2 0xA2F DUP2 PUSH2 0x780 JUMP JUMPDEST DUP3 MSTORE POP POP JUMP JUMPDEST PUSH0 PUSH1 0xC0 DUP3 ADD SWAP1 POP DUP2 DUP2 SUB PUSH0 DUP4 ADD MSTORE PUSH2 0xA4D DUP2 DUP10 PUSH2 0x9EE JUMP JUMPDEST SWAP1 POP DUP2 DUP2 SUB PUSH1 0x20 DUP4 ADD MSTORE PUSH2 0xA61 DUP2 DUP9 PUSH2 0x9EE JUMP JUMPDEST SWAP1 POP PUSH2 0xA70 PUSH1 0x40 DUP4 ADD DUP8 PUSH2 0xA26 JUMP JUMPDEST PUSH2 0xA7D PUSH1 0x60 DUP4 ADD DUP7 PUSH2 0xA26 JUMP JUMPDEST PUSH2 0xA8A PUSH1 0x80 DUP4 ADD DUP6 PUSH2 0xA26 JUMP JUMPDEST DUP2 DUP2 SUB PUSH1 0xA0 DUP4 ADD MSTORE PUSH2 0xA9C DUP2 DUP5 PUSH2 0x9EE JUMP JUMPDEST SWAP1 POP SWAP8 SWAP7 POP POP POP POP POP POP POP JUMP JUMPDEST PUSH32 0x4E487B7100000000000000000000000000000000000000000000000000000000 PUSH0 MSTORE PUSH1 0x22 PUSH1 0x4 MSTORE PUSH1 0x24 PUSH0 REVERT JUMPDEST PUSH0 PUSH1 0x2 DUP3 DIV SWAP1 POP PUSH1 0x1 DUP3 AND DUP1 PUSH2 0xAED JUMPI PUSH1 0x7F DUP3 AND SWAP2 POP JUMPDEST PUSH1 0x20 DUP3 LT DUP2 SUB PUSH2 0xB00 JUMPI PUSH2 0xAFF PUSH2 0xAA9 JUMP JUMPDEST JUMPDEST POP SWAP2 SWAP1 POP JUMP JUMPDEST PUSH0 DUP2 SWAP1 POP DUP2 PUSH0 MSTORE PUSH1 0x20 PUSH0 KECCAK256 SWAP1 POP SWAP2 SWAP1 POP JUMP JUMPDEST PUSH0 PUSH1 0x20 PUSH1 0x1F DUP4 ADD DIV SWAP1 POP SWAP2 SWAP1 POP JUMP JUMPDEST PUSH0 DUP3 DUP3 SHL SWAP1 POP SWAP3 SWAP2 POP POP JUMP JUMPDEST PUSH0 PUSH1 0x8 DUP4 MUL PUSH2 0xB62 PUSH32 0xFFFFFFFFFFFFFFFFFFFFFFFFFFFFFFFFFFFFFFFFFFFFFFFFFFFFFFFFFFFFFFFF DUP3 PUSH2 0xB27 JUMP JUMPDEST PUSH2 0xB6C DUP7 DUP4 PUSH2 0xB27 JUMP JUMPDEST SWAP6 POP DUP1 NOT DUP5 AND SWAP4 POP DUP1 DUP7 AND DUP5 OR SWAP3 POP POP POP SWAP4 SWAP3 POP POP POP JUMP JUMPDEST PUSH0 DUP2 SWAP1 POP SWAP2 SWAP1 POP JUMP JUMPDEST PUSH0 PUSH2 0xBA7 PUSH2 0xBA2 PUSH2 0xB9D DUP5 PUSH2 0x780 JUMP JUMPDEST PUSH2 0xB84 JUMP JUMPDEST PUSH2 0x780 JUMP JUMPDEST SWAP1 POP SWAP2 SWAP1 POP JUMP JUMPDEST PUSH0 DUP2 SWAP1 POP SWAP2 SWAP1 POP JUMP JUMPDEST PUSH2 0xBC0 DUP4 PUSH2 0xB8D JUMP JUMPDEST PUSH2 0xBD4 PUSH2 0xBCC DUP3 PUSH2 0xBAE JUMP JUMPDEST DUP5 DUP5 SLOAD PUSH2 0xB33 JUMP JUMPDEST DUP3 SSTORE POP POP POP POP JUMP JUMPDEST PUSH0 SWAP1 JUMP JUMPDEST PUSH2 0xBE8 PUSH2 0xBDC JUMP JUMPDEST PUSH2 0xBF3 DUP2 DUP5 DUP5 PUSH2 0xBB7 JUMP JUMPDEST POP POP POP JUMP JUMPDEST JUMPDEST DUP2 DUP2 LT ISZERO PUSH2 0xC16 JUMPI PUSH2 0xC0B PUSH0 DUP3 PUSH2 0xBE0 JUMP JUMPDEST PUSH1 0x1 DUP2 ADD SWAP1 POP PUSH2 0xBF9 JUMP JUMPDEST POP POP JUMP JUMPDEST PUSH1 0x1F DUP3 GT ISZERO PUSH2 0xC5B JUMPI PUSH2 0xC2C DUP2 PUSH2 0xB06 JUMP JUMPDEST PUSH2 0xC35 DUP5 PUSH2 0xB18 JUMP JUMPDEST DUP2 ADD PUSH1 0x20 DUP6 LT ISZERO PUSH2 0xC44 JUMPI DUP2 SWAP1 POP JUMPDEST PUSH2 0xC58 PUSH2 0xC50 DUP6 PUSH2 0xB18 JUMP JUMPDEST DUP4 ADD DUP3 PUSH2 0xBF8 JUMP JUMPDEST POP POP JUMPDEST POP POP POP JUMP JUMPDEST PUSH0 DUP3 DUP3 SHR SWAP1 POP SWAP3 SWAP2 POP POP JUMP JUMPDEST PUSH0 PUSH2 0xC7B PUSH0 NOT DUP5 PUSH1 0x8 MUL PUSH2 0xC60 JUMP JUMPDEST NOT DUP1 DUP4 AND SWAP2 POP POP SWAP3 SWAP2 POP POP JUMP JUMPDEST PUSH0 PUSH2 0xC93 DUP4 DUP4 PUSH2 0xC6C JUMP JUMPDEST SWAP2 POP DUP3 PUSH1 0x2 MUL DUP3 OR SWAP1 POP SWAP3 SWAP2 POP POP JUMP JUMPDEST PUSH2 0xCAC DUP3 PUSH2 0x8BB JUMP JUMPDEST PUSH8 0xFFFFFFFFFFFFFFFF DUP2 GT ISZERO PUSH2 0xCC5 JUMPI PUSH2 0xCC4 PUSH2 0x65C JUMP JUMPDEST JUMPDEST PUSH2 0xCCF DUP3 SLOAD PUSH2 0xAD6 JUMP JUMPDEST PUSH2 0xCDA DUP3 DUP3 DUP6 PUSH2 0xC1A JUMP JUMPDEST PUSH0 PUSH1 0x20 SWAP1 POP PUSH1 0x1F DUP4 GT PUSH1 0x1 DUP2 EQ PUSH2 0xD0B JUMPI PUSH0 DUP5 ISZERO PUSH2 0xCF9 JUMPI DUP3 DUP8 ADD MLOAD SWAP1 POP JUMPDEST PUSH2 0xD03 DUP6 DUP3 PUSH2 0xC88 JUMP JUMPDEST DUP7 SSTORE POP PUSH2 0xD6A JUMP JUMPDEST PUSH1 0x1F NOT DUP5 AND PUSH2 0xD19 DUP7 PUSH2 0xB06 JUMP JUMPDEST PUSH0 JUMPDEST DUP3 DUP2 LT ISZERO PUSH2 0xD40 JUMPI DUP5 DUP10 ADD MLOAD DUP3 SSTORE PUSH1 0x1 DUP3 ADD SWAP2 POP PUSH1 0x20 DUP6 ADD SWAP5 POP PUSH1 0x20 DUP2 ADD SWAP1 POP PUSH2 0xD1B JUMP JUMPDEST DUP7 DUP4 LT ISZERO PUSH2 0xD5D JUMPI DUP5 DUP10 ADD MLOAD PUSH2 0xD59 PUSH1 0x1F DUP10 AND DUP3 PUSH2 0xC6C JUMP JUMPDEST DUP4 SSTORE POP JUMPDEST PUSH1 0x1 PUSH1 0x2 DUP9 MUL ADD DUP9 SSTORE POP POP POP JUMPDEST POP POP POP POP POP POP JUMP INVALID LOG2 PUSH5 0x6970667358 0x22 SLT KECCAK256 PUSH3 0xBCE209 PUSH19 0xA0DA50EC3DA1A26DED63E583606CF1FF6917BF 0x28 PUSH26 0x8D8AAB40C464736F6C634300081A0033000000000000000000 "
		},
		"gasEstimates": {
			"creation": {
				"codeDepositCost": "699200",
				"executionCost": "732",
				"totalCost": "699932"
			},
			"external": {
				"addRealState(string,string,uint256,uint256,uint256,string)": "infinite",
				"deleteRealStateByRegistration(uint256)": "infinite",
				"getRealStateByRegistration(uint256)": "infinite",
				"properties(uint256)": "infinite"
			}
		},
		"methodIdentifiers": {
			"addRealState(string,string,uint256,uint256,uint256,string)": "18d38110",
			"deleteRealStateByRegistration(uint256)": "8324aa5b",
			"getRealStateByRegistration(uint256)": "82e27eab",
			"properties(uint256)": "f7b10808"
		}
	},
	"abi": [
		{
			"inputs": [
				{
					"internalType": "string",
					"name": "city",
					"type": "string"
				},
				{
					"internalType": "string",
					"name": "street",
					"type": "string"
				},
				{
					"internalType": "uint256",
					"name": "number",
					"type": "uint256"
				},
				{
					"internalType": "uint256",
					"name": "meters",
					"type": "uint256"
				},
				{
					"internalType": "uint256",
					"name": "registration",
					"type": "uint256"
				},
				{
					"internalType": "string",
					"name": "owner",
					"type": "string"
				}
			],
			"name": "addRealState",
			"outputs": [],
			"stateMutability": "nonpayable",
			"type": "function"
		},
		{
			"inputs": [
				{
					"internalType": "uint256",
					"name": "registration",
					"type": "uint256"
				}
			],
			"name": "deleteRealStateByRegistration",
			"outputs": [],
			"stateMutability": "nonpayable",
			"type": "function"
		},
		{
			"inputs": [
				{
					"internalType": "uint256",
					"name": "registration",
					"type": "uint256"
				}
			],
			"name": "getRealStateByRegistration",
			"outputs": [
				{
					"components": [
						{
							"internalType": "string",
							"name": "city",
							"type": "string"
						},
						{
							"internalType": "string",
							"name": "street",
							"type": "string"
						},
						{
							"internalType": "uint256",
							"name": "number",
							"type": "uint256"
						},
						{
							"internalType": "uint256",
							"name": "meters",
							"type": "uint256"
						},
						{
							"internalType": "uint256",
							"name": "registration",
							"type": "uint256"
						},
						{
							"internalType": "string",
							"name": "owner",
							"type": "string"
						}
					],
					"internalType": "struct RealStateContractRegistration.RealState",
					"name": "",
					"type": "tuple"
				}
			],
			"stateMutability": "view",
			"type": "function"
		},
		{
			"inputs": [
				{
					"internalType": "uint256",
					"name": "",
					"type": "uint256"
				}
			],
			"name": "properties",
			"outputs": [
				{
					"internalType": "string",
					"name": "city",
					"type": "string"
				},
				{
					"internalType": "string",
					"name": "street",
					"type": "string"
				},
				{
					"internalType": "uint256",
					"name": "number",
					"type": "uint256"
				},
				{
					"internalType": "uint256",
					"name": "meters",
					"type": "uint256"
				},
				{
					"internalType": "uint256",
					"name": "registration",
					"type": "uint256"
				},
				{
					"internalType": "string",
					"name": "owner",
					"type": "string"
				}
			],
			"stateMutability": "view",
			"type": "function"
		}
	]
}